{
  "transactions": [
    {
      "hash": "0x1001b20b9bb4356e74b356defcdea7022de0e0de97d94caacea86310651292a9",
      "transactionType": "CREATE",
      "contractName": "Depositor",
      "contractAddress": "0xF543B7445B6f2699634e2863e98D65946Dd1D5c5",
      "function": null,
      "arguments": [
        "3478487238524512106",
        "0x2a9C5afB0d0e4BAb2BCdaE109EC4b0c4Be15a165",
        "14767482510784806043",
        "0xe9A6232465f886F0f4532ca0a8002Fc6FF56024a"
      ],
      "transaction": {
        "type": "0x02",
        "from": "0x7af234d569ab6360693806d7e7f439ec2114f93c",
        "gas": "0x20a8dd",
        "value": "0x0",
        "data": "0x60a06040523480156200001157600080fd5b5060405162001d7b38038062001d7b833981016040819052620000349162000182565b838333816001600160a01b03811662000068576040516335fdcccd60e21b8152600060048201526024015b60405180910390fd5b6001600160a01b0390811660805281166200009a57604051631e4fbdf760e01b8152600060048201526024016200005f565b620000a581620000fd565b5050600680546001600160401b039283166001600160401b0319909116179055600a805493909116600160a01b026001600160e01b03199093166001600160a01b039092169190911791909117905550620001df9050565b600080546001600160a01b038381166001600160a01b0319831681178455604051919092169283917f8be0079c531659141344cd1fd0a4f28419497f9722a3daafe3b4186f6b6457e09190a35050565b80516001600160401b03811681146200016557600080fd5b919050565b80516001600160a01b03811681146200016557600080fd5b600080600080608085870312156200019957600080fd5b620001a4856200014d565b9350620001b4602086016200016a565b9250620001c4604086016200014d565b9150620001d4606086016200016a565b905092959194509250565b608051611b726200020960003960008181610448015281816108340152610ac90152611b726000f3fe60806040526004361061012e5760003560e01c80636aa673db116100ab5780638aaa22841161006f5780638aaa2284146103cb5780638da5cb5b146103eb578063aa84600a14610409578063b0f479a114610439578063dd406fd51461046c578063f2fde38b1461049c57600080fd5b80636aa673db146102d35780636e543d7014610317578063715018a61461035057806385572ffb1461036557806387c0cc4f1461038557600080fd5b80632374d710116100f25780632374d7101461022857806347e7ef24146102605780634b52ffb0146102735780635d9a2c4814610293578063678aa2b7146102b357600080fd5b806301ffc9a71461015f5780630e6dfcd5146101945780631165b26a146101b65780631572823c146101e857806319ad863e1461020857600080fd5b3661015a5733600090815260086020526040812080543492906101529084906113ef565b925050819055005b600080fd5b34801561016b57600080fd5b5061017f61017a366004611402565b6104bc565b60405190151581526020015b60405180910390f35b3480156101a057600080fd5b506101b46101af366004611441565b6104f3565b005b3480156101c257600080fd5b50600a546001600160a01b03165b6040516001600160a01b03909116815260200161018b565b3480156101f457600080fd5b506101b46102033660046114ac565b610531565b34801561021457600080fd5b506101b46102233660046114e3565b610593565b34801561023457600080fd5b50600a54600160a01b90046001600160401b03166040516001600160401b03909116815260200161018b565b6101b461026e366004611500565b6105bd565b34801561027f57600080fd5b506101b461028e36600461152c565b61077a565b34801561029f57600080fd5b506101b46102ae3660046114ac565b6107ad565b3480156102bf57600080fd5b506101b46102ce36600461154a565b6107e0565b3480156102df57600080fd5b506103096102ee3660046114e3565b6001600160a01b031660009081526008602052604090205490565b60405190815260200161018b565b34801561032357600080fd5b5061017f6103323660046114e3565b6001600160a01b031660009081526009602052604090205460ff1690565b34801561035c57600080fd5b506101b4610815565b34801561037157600080fd5b506101b4610380366004611565565b610829565b34801561039157600080fd5b506103096103a036600461159f565b6001600160a01b03918216600090815260076020908152604080832093909416825291909152205490565b3480156103d757600080fd5b506101b46103e636600461152c565b610888565b3480156103f757600080fd5b506000546001600160a01b03166101d0565b34801561041557600080fd5b5061017f61042436600461154a565b60046020526000908152604090205460ff1681565b34801561044557600080fd5b507f00000000000000000000000000000000000000000000000000000000000000006101d0565b34801561047857600080fd5b5061017f6104873660046114e3565b60056020526000908152604090205460ff1681565b3480156104a857600080fd5b506101b46104b73660046114e3565b6108bb565b60006001600160e01b031982166385572ffb60e01b14806104ed57506001600160e01b031982166301ffc9a760e01b145b92915050565b600a5433906001600160a01b0316811461052057604051631eb49d6d60e11b815260040160405180910390fd5b61052b8484846108f6565b50505050565b61053961098d565b6001600160401b0382166000908152600360205260409020805460ff1916821580159190911790915561057f5761057a60016001600160401b0384166109ba565b505050565b61057a60016001600160401b0384166109cd565b61059b61098d565b600a80546001600160a01b0319166001600160a01b0392909216919091179055565b6001600160a01b038216600090815260096020526040902054829060ff16610608576040516306c942d160e11b81526001600160a01b03821660048201526024015b60405180910390fd5b33600090815260086020526040812080543492906106279084906113ef565b9091555061063890503384846109d9565b600a546006546001600160401b03600160a01b909204821691160361071357600a54600654604051631df999a360e11b81523360048201526001600160401b0390911660248201526001600160a01b0385811660448301526064820185905290911690633bf3334690608401600060405180830381600087803b1580156106be57600080fd5b505af11580156106d2573d6000803e3d6000fd5b50506040518492506001600160a01b038616915033907f5548c837ab068cf56a2c2479df0882a4922fd203edb7517321831d95078c5f6290600090a4505050565b604080513360208201526001600160a01b03851681830152606080820185905282518083039091018152608082019092526000916107569183919060a001611633565b604051602081830303815290604052905061077333858584610a2f565b5050505050565b61078261098d565b6001600160a01b03919091166000908152600560205260409020805460ff1916911515919091179055565b6107b561098d565b6001600160401b03919091166000908152600460205260409020805460ff1916911515919091179055565b6107e861098d565b600a80546001600160401b03909216600160a01b0267ffffffffffffffff60a01b19909216919091179055565b61081d61098d565b6108276000610cd3565b565b336001600160a01b037f00000000000000000000000000000000000000000000000000000000000000001614610874576040516335fdcccd60e21b81523360048201526024016105ff565b61088561088082611823565b610d23565b50565b61089061098d565b6001600160a01b03919091166000908152600960205260409020805460ff1916911515919091179055565b6108c361098d565b6001600160a01b0381166108ed57604051631e4fbdf760e01b8152600060048201526024016105ff565b61088581610cd3565b6001600160a01b038216600090815260096020526040902054829060ff1661093c576040516306c942d160e11b81526001600160a01b03821660048201526024016105ff565b6001600160a01b038085166000908152600760209081526040808320938716835292905290812080548492906109739084906118cf565b9091555061052b90506001600160a01b0384168584610e76565b6000546001600160a01b031633146108275760405163118cdaa760e01b81523360048201526024016105ff565b60006109c68383610ed9565b9392505050565b60006109c68383610f28565b6109ee6001600160a01b03831684308461101b565b6001600160a01b03808416600090815260076020908152604080832093861683529290529081208054839290610a259084906113ef565b9091555050505050565b600a54600160a01b90046001600160401b031660008181526003602052604081205490919060ff16610a7f57604051630a503cdb60e01b81526001600160401b03821660048201526024016105ff565b600a546001600160a01b031680610aa95760405163502ffa3f60e11b815260040160405180910390fd5b600a54600090610ac3906001600160a01b03168683611053565b905060007f0000000000000000000000000000000000000000000000000000000000000000600a546040516320487ded60e01b81529192506000916001600160a01b038416916320487ded91610b2e91600160a01b90046001600160401b03169087906004016118e2565b602060405180830381865afa158015610b4b573d6000803e3d6000fd5b505050506040513d601f19601f82011682018060405250810190610b6f91906119bb565b6001600160a01b038b16600090815260086020526040902054909150811115610bd0576001600160a01b038a166000908152600860205260409081902054905163d44547cd60e01b81526004810191909152602481018290526044016105ff565b6001600160a01b038a1660009081526008602052604081208054839290610bf89084906118cf565b9091555050600a546040516396f4e9f960e01b81526001600160a01b038416916396f4e9f9918491610c4091600160a01b9091046001600160401b03169088906004016118e2565b60206040518083038185885af1158015610c5e573d6000803e3d6000fd5b50505050506040513d601f19601f82011682018060405250810190610c8391906119bb565b955087896001600160a01b03168b6001600160a01b03167f5548c837ab068cf56a2c2479df0882a4922fd203edb7517321831d95078c5f6260405160405180910390a45050505050949350505050565b600080546001600160a01b038381166001600160a01b0319831681178455604051919092169283917f8be0079c531659141344cd1fd0a4f28419497f9722a3daafe3b4186f6b6457e09190a35050565b80602001518160400151806020019051810190610d4091906119d4565b6001600160401b03821660009081526004602052604090205460ff16610d84576040516326bfad9160e21b81526001600160401b03831660048201526024016105ff565b6001600160a01b03811660009081526005602052604090205460ff16610dc8576040516338c08ef960e11b81526001600160a01b03821660048201526024016105ff565b6000808460600151806020019051810190610de391906119f1565b90925090506000826001811115610dfc57610dfc6115cd565b0361077357600080600083806020019051810190610e1a9190611a81565b925092509250610e2b8383836108f6565b80826001600160a01b0316846001600160a01b03167fd12200efa34901b99367694174c3b0d32c99585fdf37c7c26892136ddd0836d960405160405180910390a45050505050505050565b6040516001600160a01b03831660248201526044810182905261057a90849063a9059cbb60e01b906064015b60408051601f198184030181529190526020810180516001600160e01b03166001600160e01b031990931692909217909152611177565b6000818152600183016020526040812054610f20575081546001818101845560008481526020808220909301849055845484825282860190935260409020919091556104ed565b5060006104ed565b60008181526001830160205260408120548015611011576000610f4c6001836118cf565b8554909150600090610f60906001906118cf565b9050808214610fc5576000866000018281548110610f8057610f80611ac4565b9060005260206000200154905080876000018481548110610fa357610fa3611ac4565b6000918252602080832090910192909255918252600188019052604090208390555b8554869080610fd657610fd6611ada565b6001900381819060005260206000200160009055905585600101600086815260200190815260200160002060009055600193505050506104ed565b60009150506104ed565b6040516001600160a01b038085166024830152831660448201526064810182905261052b9085906323b872dd60e01b90608401610ea2565b61108e6040518060a0016040528060608152602001606081526020016060815260200160006001600160a01b03168152602001606081525090565b6040805160a081019091526001600160a01b03851660c08201528060e0810160408051808303601f190181529181529082526020808301879052815160008082529181018352929091019190611106565b60408051808201909152600080825260208201528152602001906001900390816110df5790505b508152602001836001600160a01b0316815260200161116d604051806020016040528062030d4081525060408051915160248084019190915281518084039091018152604490920190526020810180516001600160e01b03166397a657c960e01b17905290565b9052949350505050565b60006111cc826040518060400160405280602081526020017f5361666545524332303a206c6f772d6c6576656c2063616c6c206661696c6564815250856001600160a01b03166112499092919063ffffffff16565b80519091501561057a57808060200190518101906111ea9190611af0565b61057a5760405162461bcd60e51b815260206004820152602a60248201527f5361666545524332303a204552433230206f7065726174696f6e20646964206e6044820152691bdd081cdd58d8d9595960b21b60648201526084016105ff565b60606112588484600085611260565b949350505050565b6060824710156112c15760405162461bcd60e51b815260206004820152602660248201527f416464726573733a20696e73756666696369656e742062616c616e636520666f6044820152651c8818d85b1b60d21b60648201526084016105ff565b600080866001600160a01b031685876040516112dd9190611b0d565b60006040518083038185875af1925050503d806000811461131a576040519150601f19603f3d011682016040523d82523d6000602084013e61131f565b606091505b50915091506113308783838761133b565b979650505050505050565b606083156113aa5782516000036113a3576001600160a01b0385163b6113a35760405162461bcd60e51b815260206004820152601d60248201527f416464726573733a2063616c6c20746f206e6f6e2d636f6e747261637400000060448201526064016105ff565b5081611258565b61125883838151156113bf5781518083602001fd5b8060405162461bcd60e51b81526004016105ff9190611b29565b634e487b7160e01b600052601160045260246000fd5b808201808211156104ed576104ed6113d9565b60006020828403121561141457600080fd5b81356001600160e01b0319811681146109c657600080fd5b6001600160a01b038116811461088557600080fd5b60008060006060848603121561145657600080fd5b83356114618161142c565b925060208401356114718161142c565b929592945050506040919091013590565b80356001600160401b038116811461149957600080fd5b919050565b801515811461088557600080fd5b600080604083850312156114bf57600080fd5b6114c883611482565b915060208301356114d88161149e565b809150509250929050565b6000602082840312156114f557600080fd5b81356109c68161142c565b6000806040838503121561151357600080fd5b823561151e8161142c565b946020939093013593505050565b6000806040838503121561153f57600080fd5b82356114c88161142c565b60006020828403121561155c57600080fd5b6109c682611482565b60006020828403121561157757600080fd5b81356001600160401b0381111561158d57600080fd5b820160a081850312156109c657600080fd5b600080604083850312156115b257600080fd5b82356115bd8161142c565b915060208301356114d88161142c565b634e487b7160e01b600052602160045260246000fd5b60005b838110156115fe5781810151838201526020016115e6565b50506000910152565b6000815180845261161f8160208601602086016115e3565b601f01601f19169290920160200192915050565b60006002841061165357634e487b7160e01b600052602160045260246000fd5b838252604060208301526112586040830184611607565b634e487b7160e01b600052604160045260246000fd5b604080519081016001600160401b03811182821017156116a2576116a261166a565b60405290565b60405160a081016001600160401b03811182821017156116a2576116a261166a565b604051601f8201601f191681016001600160401b03811182821017156116f2576116f261166a565b604052919050565b60006001600160401b038211156117135761171361166a565b50601f01601f191660200190565b600082601f83011261173257600080fd5b8135611745611740826116fa565b6116ca565b81815284602083860101111561175a57600080fd5b816020850160208301376000918101602001919091529392505050565b600082601f83011261178857600080fd5b813560206001600160401b038211156117a3576117a361166a565b6117b1818360051b016116ca565b82815260069290921b840181019181810190868411156117d057600080fd5b8286015b8481101561181857604081890312156117ed5760008081fd5b6117f5611680565b81356118008161142c565b815281850135858201528352918301916040016117d4565b509695505050505050565b600060a0823603121561183557600080fd5b61183d6116a8565b8235815261184d60208401611482565b602082015260408301356001600160401b038082111561186c57600080fd5b61187836838701611721565b6040840152606085013591508082111561189157600080fd5b61189d36838701611721565b606084015260808501359150808211156118b657600080fd5b506118c336828601611777565b60808301525092915050565b818103818111156104ed576104ed6113d9565b600060406001600160401b038516835260208181850152845160a08386015261190e60e0860182611607565b905081860151603f198087840301606088015261192b8383611607565b88860151888203830160808a01528051808352908601945060009350908501905b8084101561197e57845180516001600160a01b031683528601518683015293850193600193909301929086019061194c565b5060608901516001600160a01b031660a08901526080890151888203830160c08a015295506119ad8187611607565b9a9950505050505050505050565b6000602082840312156119cd57600080fd5b5051919050565b6000602082840312156119e657600080fd5b81516109c68161142c565b60008060408385031215611a0457600080fd5b825160028110611a1357600080fd5b60208401519092506001600160401b03811115611a2f57600080fd5b8301601f81018513611a4057600080fd5b8051611a4e611740826116fa565b818152866020838501011115611a6357600080fd5b611a748260208301602086016115e3565b8093505050509250929050565b600080600060608486031215611a9657600080fd5b8351611aa18161142c565b6020850151909350611ab28161142c565b80925050604084015190509250925092565b634e487b7160e01b600052603260045260246000fd5b634e487b7160e01b600052603160045260246000fd5b600060208284031215611b0257600080fd5b81516109c68161149e565b60008251611b1f8184602087016115e3565b9190910192915050565b6020815260006109c6602083018461160756fea2646970667358221220606bbbd1df517d972bda485941eab56d0255a677292422b7e70e840b1f29a95b64736f6c63430008150033000000000000000000000000000000000000000000000000304611b6affba76a0000000000000000000000002a9c5afb0d0e4bab2bcdae109ec4b0c4be15a165000000000000000000000000000000000000000000000000ccf0a31a221f3c9b000000000000000000000000e9a6232465f886f0f4532ca0a8002fc6ff56024a",
        "nonce": "0x33",
        "accessList": []
      },
      "additionalContracts": [],
      "isFixedGasLimit": false
    },
    {
      "hash": "0x5312ee3d06fd25d53012ac2f329034a4a42a76eda92d332fab433d1a11aee6dc",
      "transactionType": "CALL",
      "contractName": "Depositor",
      "contractAddress": "0xF543B7445B6f2699634e2863e98D65946Dd1D5c5",
      "function": "setAllowedToken(address,bool)",
      "arguments": [
        "0xF6905F1E4ad86f8C3a1Ebfca3E04a9e4d2adDD0D",
        "true"
      ],
      "transaction": {
        "type": "0x02",
        "from": "0x7af234d569ab6360693806d7e7f439ec2114f93c",
        "to": "0xf543b7445b6f2699634e2863e98d65946dd1d5c5",
        "gas": "0xfa36",
        "value": "0x0",
        "data": "0x8aaa2284000000000000000000000000f6905f1e4ad86f8c3a1ebfca3e04a9e4d2addd0d0000000000000000000000000000000000000000000000000000000000000001",
        "nonce": "0x34",
        "accessList": []
      },
      "additionalContracts": [],
      "isFixedGasLimit": false
    },
    {
      "hash": "0x4ac25488672fbba462c5121eb484cac25d42663bcf88534987acd872f1ed9311",
      "transactionType": "CALL",
      "contractName": "Depositor",
      "contractAddress": "0xF543B7445B6f2699634e2863e98D65946Dd1D5c5",
      "function": "setAllowedToken(address,bool)",
      "arguments": [
        "0x9a24BD7833859d2364EaD5A4aF4b16799693DF12",
        "true"
      ],
      "transaction": {
        "type": "0x02",
        "from": "0x7af234d569ab6360693806d7e7f439ec2114f93c",
        "to": "0xf543b7445b6f2699634e2863e98d65946dd1d5c5",
        "gas": "0xfa36",
        "value": "0x0",
        "data": "0x8aaa22840000000000000000000000009a24bd7833859d2364ead5a4af4b16799693df120000000000000000000000000000000000000000000000000000000000000001",
        "nonce": "0x35",
        "accessList": []
      },
      "additionalContracts": [],
      "isFixedGasLimit": false
    },
    {
      "hash": "0x853e59093629790daecbfa96285b72af4493672e926a22c4057d46f38f746d96",
      "transactionType": "CALL",
      "contractName": "Depositor",
      "contractAddress": "0xF543B7445B6f2699634e2863e98D65946Dd1D5c5",
      "function": "setAllowedToken(address,bool)",
      "arguments": [
        "0x244ec7F5753b2Fc10d0C2bAaB1AB55850E73a3AB",
        "true"
      ],
      "transaction": {
        "type": "0x02",
        "from": "0x7af234d569ab6360693806d7e7f439ec2114f93c",
        "to": "0xf543b7445b6f2699634e2863e98d65946dd1d5c5",
        "gas": "0xfa36",
        "value": "0x0",
        "data": "0x8aaa2284000000000000000000000000244ec7f5753b2fc10d0c2baab1ab55850e73a3ab0000000000000000000000000000000000000000000000000000000000000001",
        "nonce": "0x36",
        "accessList": []
      },
      "additionalContracts": [],
      "isFixedGasLimit": false
    },
    {
      "hash": "0xc5c458895c389778878739fee5c07e284ab13e3645032ff5ec3730e6e07aeb93",
      "transactionType": "CALL",
      "contractName": "Depositor",
      "contractAddress": "0xF543B7445B6f2699634e2863e98D65946Dd1D5c5",
      "function": "setAllowedToken(address,bool)",
      "arguments": [
        "0xe257e2a67407144C918acaD5e11c2582F77c0B1a",
        "true"
      ],
      "transaction": {
        "type": "0x02",
        "from": "0x7af234d569ab6360693806d7e7f439ec2114f93c",
        "to": "0xf543b7445b6f2699634e2863e98d65946dd1d5c5",
        "gas": "0xfa36",
        "value": "0x0",
        "data": "0x8aaa2284000000000000000000000000e257e2a67407144c918acad5e11c2582f77c0b1a0000000000000000000000000000000000000000000000000000000000000001",
        "nonce": "0x37",
        "accessList": []
      },
      "additionalContracts": [],
      "isFixedGasLimit": false
    },
    {
      "hash": "0xa3627962f3cf05983376598dbaeb1b5b1ae6356ecd651b60adbe3152be0e2a96",
      "transactionType": "CALL",
      "contractName": "Depositor",
      "contractAddress": "0xF543B7445B6f2699634e2863e98D65946Dd1D5c5",
      "function": "setAllowedToken(address,bool)",
      "arguments": [
        "0x32B8F75d2AC926a0a906F24df3e8Fe2bA17Bd80a",
        "true"
      ],
      "transaction": {
        "type": "0x02",
        "from": "0x7af234d569ab6360693806d7e7f439ec2114f93c",
        "to": "0xf543b7445b6f2699634e2863e98d65946dd1d5c5",
        "gas": "0xfa36",
        "value": "0x0",
        "data": "0x8aaa228400000000000000000000000032b8f75d2ac926a0a906f24df3e8fe2ba17bd80a0000000000000000000000000000000000000000000000000000000000000001",
        "nonce": "0x38",
        "accessList": []
      },
      "additionalContracts": [],
      "isFixedGasLimit": false
    },
    {
      "hash": "0x49855a31e4c0b7bc8767b2f3b435b2d453f1494039963faa5ff4895f09f14f05",
      "transactionType": "CALL",
      "contractName": "Depositor",
      "contractAddress": "0xF543B7445B6f2699634e2863e98D65946Dd1D5c5",
      "function": "setAllowedToken(address,bool)",
      "arguments": [
        "0xDFf5Ba9FCff83cE455e45De7572B6259b0E7D7dE",
        "true"
      ],
      "transaction": {
        "type": "0x02",
        "from": "0x7af234d569ab6360693806d7e7f439ec2114f93c",
        "to": "0xf543b7445b6f2699634e2863e98d65946dd1d5c5",
        "gas": "0xfa36",
        "value": "0x0",
        "data": "0x8aaa2284000000000000000000000000dff5ba9fcff83ce455e45de7572b6259b0e7d7de0000000000000000000000000000000000000000000000000000000000000001",
        "nonce": "0x39",
        "accessList": []
      },
      "additionalContracts": [],
      "isFixedGasLimit": false
    },
    {
      "hash": "0xf11ffbcf97e3099f95ba4c2f38b3a3b834b6abff746428dd75684f48871f2d1a",
      "transactionType": "CALL",
      "contractName": "Depositor",
      "contractAddress": "0xF543B7445B6f2699634e2863e98D65946Dd1D5c5",
      "function": "setAllowedToken(address,bool)",
      "arguments": [
        "0x75b86D7B224Fd88f785BB5FaC5e261D9EFde3047",
        "true"
      ],
      "transaction": {
        "type": "0x02",
        "from": "0x7af234d569ab6360693806d7e7f439ec2114f93c",
        "to": "0xf543b7445b6f2699634e2863e98d65946dd1d5c5",
        "gas": "0xfa36",
        "value": "0x0",
        "data": "0x8aaa228400000000000000000000000075b86d7b224fd88f785bb5fac5e261d9efde30470000000000000000000000000000000000000000000000000000000000000001",
        "nonce": "0x3a",
        "accessList": []
      },
      "additionalContracts": [],
      "isFixedGasLimit": false
    },
    {
      "hash": "0x5b72e0a78cf1df720fc5542c0adb147de7467ed75eae9094e4de65958923e704",
      "transactionType": "CALL",
      "contractName": "Depositor",
      "contractAddress": "0xF543B7445B6f2699634e2863e98D65946Dd1D5c5",
      "function": "setAllowedDestinationChain(uint64,bool)",
      "arguments": [
        "14767482510784806043",
        "true"
      ],
      "transaction": {
        "type": "0x02",
        "from": "0x7af234d569ab6360693806d7e7f439ec2114f93c",
        "to": "0xf543b7445b6f2699634e2863e98d65946dd1d5c5",
        "gas": "0x28629",
        "value": "0x0",
        "data": "0x1572823c000000000000000000000000000000000000000000000000ccf0a31a221f3c9b0000000000000000000000000000000000000000000000000000000000000001",
        "nonce": "0x3b",
        "accessList": []
      },
      "additionalContracts": [],
      "isFixedGasLimit": false
    },
    {
      "hash": "0x27d2122d9ec3aa432800ba825ef1d199a14d3650fe062053b4947875e1b35e49",
      "transactionType": "CALL",
      "contractName": "Depositor",
      "contractAddress": "0xF543B7445B6f2699634e2863e98D65946Dd1D5c5",
      "function": "setAllowedSourceChain(uint64,bool)",
      "arguments": [
        "14767482510784806043",
        "true"
      ],
      "transaction": {
        "type": "0x02",
        "from": "0x7af234d569ab6360693806d7e7f439ec2114f93c",
        "to": "0xf543b7445b6f2699634e2863e98d65946dd1d5c5",
        "gas": "0xf9d5",
        "value": "0x0",
        "data": "0x5d9a2c48000000000000000000000000000000000000000000000000ccf0a31a221f3c9b0000000000000000000000000000000000000000000000000000000000000001",
        "nonce": "0x3c",
        "accessList": []
      },
      "additionalContracts": [],
      "isFixedGasLimit": false
    },
    {
      "hash": "0x40e7fb939c29fb00ed57199689f22c7ca8f1b913b3b0e356ff4215983d113e1b",
      "transactionType": "CALL",
      "contractName": "Depositor",
      "contractAddress": "0xF543B7445B6f2699634e2863e98D65946Dd1D5c5",
      "function": "setAllowedSender(address,bool)",
      "arguments": [
        "0xe9A6232465f886F0f4532ca0a8002Fc6FF56024a",
        "true"
      ],
      "transaction": {
        "type": "0x02",
        "from": "0x7af234d569ab6360693806d7e7f439ec2114f93c",
        "to": "0xf543b7445b6f2699634e2863e98d65946dd1d5c5",
        "gas": "0xfa64",
        "value": "0x0",
        "data": "0x4b52ffb0000000000000000000000000e9a6232465f886f0f4532ca0a8002fc6ff56024a0000000000000000000000000000000000000000000000000000000000000001",
        "nonce": "0x3d",
        "accessList": []
      },
      "additionalContracts": [],
      "isFixedGasLimit": false
    }
  ],
  "receipts": [
    {
      "transactionHash": "0x1001b20b9bb4356e74b356defcdea7022de0e0de97d94caacea86310651292a9",
      "transactionIndex": "0x6",
      "blockHash": "0x563ac73059ae203a184424d3aaefa967dceed72d3ee2fc9a85b8506fc1e2992a",
      "blockNumber": "0x2d18da3",
      "from": "0x7aF234d569aB6360693806D7e7f439Ec2114F93c",
      "to": null,
      "cumulativeGasUsed": "0x2e7557",
      "gasUsed": "0x19214f",
      "contractAddress": "0xF543B7445B6f2699634e2863e98D65946Dd1D5c5",
      "logs": [
        {
          "address": "0xF543B7445B6f2699634e2863e98D65946Dd1D5c5",
          "topics": [
            "0x8be0079c531659141344cd1fd0a4f28419497f9722a3daafe3b4186f6b6457e0",
            "0x0000000000000000000000000000000000000000000000000000000000000000",
            "0x0000000000000000000000007af234d569ab6360693806d7e7f439ec2114f93c"
          ],
          "data": "0x",
          "blockHash": "0x563ac73059ae203a184424d3aaefa967dceed72d3ee2fc9a85b8506fc1e2992a",
          "blockNumber": "0x2d18da3",
          "transactionHash": "0x1001b20b9bb4356e74b356defcdea7022de0e0de97d94caacea86310651292a9",
          "transactionIndex": "0x6",
          "logIndex": "0x13",
          "removed": false
        }
      ],
      "status": "0x1",
      "logsBloom": "0x00000000080000000000000000000000000000000000000000800000000000000000000000000000000000004000000000000000020000000000000000000000000000000000000000000000000000000001000000000000000000000000000000000000020000000000000000200800000000000000000000000000000000400000000000000000000000000000000000000000000008000000000000000000000000000000000000000000000000000000000000000000000000000000000000000000000000000000000000000000000000000000000040000000000020000000000000000000000000000000000000000000000000000000000000000000",
      "type": "0x2",
      "effectiveGasPrice": "0x5f5e100"
    },
    {
      "transactionHash": "0x5312ee3d06fd25d53012ac2f329034a4a42a76eda92d332fab433d1a11aee6dc",
      "transactionIndex": "0x7",
      "blockHash": "0x563ac73059ae203a184424d3aaefa967dceed72d3ee2fc9a85b8506fc1e2992a",
      "blockNumber": "0x2d18da3",
      "from": "0x7aF234d569aB6360693806D7e7f439Ec2114F93c",
      "to": "0xF543B7445B6f2699634e2863e98D65946Dd1D5c5",
      "cumulativeGasUsed": "0x2f2a7e",
      "gasUsed": "0xb527",
      "contractAddress": null,
      "logs": [],
      "status": "0x1",
      "logsBloom": "0x00000000000000000000000000000000000000000000000000000000000000000000000000000000000000000000000000000000000000000000000000000000000000000000000000000000000000000000000000000000000000000000000000000000000000000000000000000000000000000000000000000000000000000000000000000000000000000000000000000000000000000000000000000000000000000000000000000000000000000000000000000000000000000000000000000000000000000000000000000000000000000000000000000000000000000000000000000000000000000000000000000000000000000000000000000000",
      "type": "0x2",
      "effectiveGasPrice": "0x5f5e100"
    },
    {
      "transactionHash": "0x4ac25488672fbba462c5121eb484cac25d42663bcf88534987acd872f1ed9311",
      "transactionIndex": "0x8",
      "blockHash": "0x563ac73059ae203a184424d3aaefa967dceed72d3ee2fc9a85b8506fc1e2992a",
      "blockNumber": "0x2d18da3",
      "from": "0x7aF234d569aB6360693806D7e7f439Ec2114F93c",
      "to": "0xF543B7445B6f2699634e2863e98D65946Dd1D5c5",
      "cumulativeGasUsed": "0x2fdfa5",
      "gasUsed": "0xb527",
      "contractAddress": null,
      "logs": [],
      "status": "0x1",
      "logsBloom": "0x00000000000000000000000000000000000000000000000000000000000000000000000000000000000000000000000000000000000000000000000000000000000000000000000000000000000000000000000000000000000000000000000000000000000000000000000000000000000000000000000000000000000000000000000000000000000000000000000000000000000000000000000000000000000000000000000000000000000000000000000000000000000000000000000000000000000000000000000000000000000000000000000000000000000000000000000000000000000000000000000000000000000000000000000000000000",
      "type": "0x2",
      "effectiveGasPrice": "0x5f5e100"
    },
    {
      "transactionHash": "0x853e59093629790daecbfa96285b72af4493672e926a22c4057d46f38f746d96",
      "transactionIndex": "0x9",
      "blockHash": "0x563ac73059ae203a184424d3aaefa967dceed72d3ee2fc9a85b8506fc1e2992a",
      "blockNumber": "0x2d18da3",
      "from": "0x7aF234d569aB6360693806D7e7f439Ec2114F93c",
      "to": "0xF543B7445B6f2699634e2863e98D65946Dd1D5c5",
      "cumulativeGasUsed": "0x3094cc",
      "gasUsed": "0xb527",
      "contractAddress": null,
      "logs": [],
      "status": "0x1",
      "logsBloom": "0x00000000000000000000000000000000000000000000000000000000000000000000000000000000000000000000000000000000000000000000000000000000000000000000000000000000000000000000000000000000000000000000000000000000000000000000000000000000000000000000000000000000000000000000000000000000000000000000000000000000000000000000000000000000000000000000000000000000000000000000000000000000000000000000000000000000000000000000000000000000000000000000000000000000000000000000000000000000000000000000000000000000000000000000000000000000",
      "type": "0x2",
      "effectiveGasPrice": "0x5f5e100"
    },
    {
      "transactionHash": "0xc5c458895c389778878739fee5c07e284ab13e3645032ff5ec3730e6e07aeb93",
      "transactionIndex": "0xb",
      "blockHash": "0x563ac73059ae203a184424d3aaefa967dceed72d3ee2fc9a85b8506fc1e2992a",
      "blockNumber": "0x2d18da3",
      "from": "0x7aF234d569aB6360693806D7e7f439Ec2114F93c",
      "to": "0xF543B7445B6f2699634e2863e98D65946Dd1D5c5",
      "cumulativeGasUsed": "0x337e73",
      "gasUsed": "0xb527",
      "contractAddress": null,
      "logs": [],
      "status": "0x1",
      "logsBloom": "0x00000000000000000000000000000000000000000000000000000000000000000000000000000000000000000000000000000000000000000000000000000000000000000000000000000000000000000000000000000000000000000000000000000000000000000000000000000000000000000000000000000000000000000000000000000000000000000000000000000000000000000000000000000000000000000000000000000000000000000000000000000000000000000000000000000000000000000000000000000000000000000000000000000000000000000000000000000000000000000000000000000000000000000000000000000000",
      "type": "0x2",
      "effectiveGasPrice": "0x5f5e100"
    },
    {
      "transactionHash": "0xa3627962f3cf05983376598dbaeb1b5b1ae6356ecd651b60adbe3152be0e2a96",
      "transactionIndex": "0xc",
      "blockHash": "0x563ac73059ae203a184424d3aaefa967dceed72d3ee2fc9a85b8506fc1e2992a",
      "blockNumber": "0x2d18da3",
      "from": "0x7aF234d569aB6360693806D7e7f439Ec2114F93c",
      "to": "0xF543B7445B6f2699634e2863e98D65946Dd1D5c5",
      "cumulativeGasUsed": "0x34339a",
      "gasUsed": "0xb527",
      "contractAddress": null,
      "logs": [],
      "status": "0x1",
      "logsBloom": "0x00000000000000000000000000000000000000000000000000000000000000000000000000000000000000000000000000000000000000000000000000000000000000000000000000000000000000000000000000000000000000000000000000000000000000000000000000000000000000000000000000000000000000000000000000000000000000000000000000000000000000000000000000000000000000000000000000000000000000000000000000000000000000000000000000000000000000000000000000000000000000000000000000000000000000000000000000000000000000000000000000000000000000000000000000000000",
      "type": "0x2",
      "effectiveGasPrice": "0x5f5e100"
    },
    {
      "transactionHash": "0x49855a31e4c0b7bc8767b2f3b435b2d453f1494039963faa5ff4895f09f14f05",
      "transactionIndex": "0xd",
      "blockHash": "0x563ac73059ae203a184424d3aaefa967dceed72d3ee2fc9a85b8506fc1e2992a",
      "blockNumber": "0x2d18da3",
      "from": "0x7aF234d569aB6360693806D7e7f439Ec2114F93c",
      "to": "0xF543B7445B6f2699634e2863e98D65946Dd1D5c5",
      "cumulativeGasUsed": "0x34e8c1",
      "gasUsed": "0xb527",
      "contractAddress": null,
      "logs": [],
      "status": "0x1",
      "logsBloom": "0x00000000000000000000000000000000000000000000000000000000000000000000000000000000000000000000000000000000000000000000000000000000000000000000000000000000000000000000000000000000000000000000000000000000000000000000000000000000000000000000000000000000000000000000000000000000000000000000000000000000000000000000000000000000000000000000000000000000000000000000000000000000000000000000000000000000000000000000000000000000000000000000000000000000000000000000000000000000000000000000000000000000000000000000000000000000",
      "type": "0x2",
      "effectiveGasPrice": "0x5f5e100"
    },
    {
      "transactionHash": "0xf11ffbcf97e3099f95ba4c2f38b3a3b834b6abff746428dd75684f48871f2d1a",
      "transactionIndex": "0x2",
      "blockHash": "0x5675edabfd820555e8121776546ea46744bc2e7cfbe8de8bb2768d5729934099",
      "blockNumber": "0x2d18daa",
      "from": "0x7aF234d569aB6360693806D7e7f439Ec2114F93c",
      "to": "0xF543B7445B6f2699634e2863e98D65946Dd1D5c5",
      "cumulativeGasUsed": "0x3dc3d",
      "gasUsed": "0xb527",
      "contractAddress": null,
      "logs": [],
      "status": "0x1",
      "logsBloom": "0x00000000000000000000000000000000000000000000000000000000000000000000000000000000000000000000000000000000000000000000000000000000000000000000000000000000000000000000000000000000000000000000000000000000000000000000000000000000000000000000000000000000000000000000000000000000000000000000000000000000000000000000000000000000000000000000000000000000000000000000000000000000000000000000000000000000000000000000000000000000000000000000000000000000000000000000000000000000000000000000000000000000000000000000000000000000",
      "type": "0x2",
      "effectiveGasPrice": "0x5f5e100"
    },
    {
      "transactionHash": "0x5b72e0a78cf1df720fc5542c0adb147de7467ed75eae9094e4de65958923e704",
      "transactionIndex": "0x3",
      "blockHash": "0x5675edabfd820555e8121776546ea46744bc2e7cfbe8de8bb2768d5729934099",
      "blockNumber": "0x2d18daa",
      "from": "0x7aF234d569aB6360693806D7e7f439Ec2114F93c",
      "to": "0xF543B7445B6f2699634e2863e98D65946Dd1D5c5",
      "cumulativeGasUsed": "0x5960f",
      "gasUsed": "0x1b9d2",
      "contractAddress": null,
      "logs": [],
      "status": "0x1",
      "logsBloom": "0x00000000000000000000000000000000000000000000000000000000000000000000000000000000000000000000000000000000000000000000000000000000000000000000000000000000000000000000000000000000000000000000000000000000000000000000000000000000000000000000000000000000000000000000000000000000000000000000000000000000000000000000000000000000000000000000000000000000000000000000000000000000000000000000000000000000000000000000000000000000000000000000000000000000000000000000000000000000000000000000000000000000000000000000000000000000",
      "type": "0x2",
      "effectiveGasPrice": "0x5f5e100"
    },
    {
      "transactionHash": "0x27d2122d9ec3aa432800ba825ef1d199a14d3650fe062053b4947875e1b35e49",
      "transactionIndex": "0x4",
      "blockHash": "0x5675edabfd820555e8121776546ea46744bc2e7cfbe8de8bb2768d5729934099",
      "blockNumber": "0x2d18daa",
      "from": "0x7aF234d569aB6360693806D7e7f439Ec2114F93c",
      "to": "0xF543B7445B6f2699634e2863e98D65946Dd1D5c5",
      "cumulativeGasUsed": "0x64aef",
      "gasUsed": "0xb4e0",
      "contractAddress": null,
      "logs": [],
      "status": "0x1",
      "logsBloom": "0x00000000000000000000000000000000000000000000000000000000000000000000000000000000000000000000000000000000000000000000000000000000000000000000000000000000000000000000000000000000000000000000000000000000000000000000000000000000000000000000000000000000000000000000000000000000000000000000000000000000000000000000000000000000000000000000000000000000000000000000000000000000000000000000000000000000000000000000000000000000000000000000000000000000000000000000000000000000000000000000000000000000000000000000000000000000",
      "type": "0x2",
      "effectiveGasPrice": "0x5f5e100"
    },
    {
      "transactionHash": "0x40e7fb939c29fb00ed57199689f22c7ca8f1b913b3b0e356ff4215983d113e1b",
      "transactionIndex": "0x1",
      "blockHash": "0x5ec1b1d3e203e3e4674c5efeec6c6c92a3993e21436ad92262198f17c677a2ad",
      "blockNumber": "0x2d18dab",
      "from": "0x7aF234d569aB6360693806D7e7f439Ec2114F93c",
      "to": "0xF543B7445B6f2699634e2863e98D65946Dd1D5c5",
      "cumulativeGasUsed": "0xb548",
      "gasUsed": "0xb548",
      "contractAddress": null,
      "logs": [],
      "status": "0x1",
      "logsBloom": "0x00000000000000000000000000000000000000000000000000000000000000000000000000000000000000000000000000000000000000000000000000000000000000000000000000000000000000000000000000000000000000000000000000000000000000000000000000000000000000000000000000000000000000000000000000000000000000000000000000000000000000000000000000000000000000000000000000000000000000000000000000000000000000000000000000000000000000000000000000000000000000000000000000000000000000000000000000000000000000000000000000000000000000000000000000000000",
      "type": "0x2",
      "effectiveGasPrice": "0x5f5e100"
    }
  ],
  "libraries": [],
  "pending": [],
  "returns": {
    "depositor": {
      "internal_type": "contract Depositor",
      "value": "0xF543B7445B6f2699634e2863e98D65946Dd1D5c5"
    }
  },
  "timestamp": 1716523441,
  "chain": 421614,
  "multi": false,
  "commit": "5617307"
}