{
  "transactions": [
    {
      "hash": "0x1872e2926b216dc21ae52fe85f0a0f8afb3723deaf149264e9a2a367e9a375e7",
      "transactionType": "CREATE",
      "contractName": "Depositor",
      "contractAddress": "0x7803DB4950e0Bc60F11ef7e38971D0D2fEF23E2E",
      "function": null,
      "arguments": [
        "16015286601757825753",
        "0x0BF3dE8c5D3e8A2B34D2BEeB17ABfCeBaf363A59",
        "14767482510784806043",
        "0x9b0cb6E1B1BbA871b2738f3CCd10eC5eCe8DaBa7"
      ],
      "transaction": {
        "type": "0x02",
        "from": "0x7af234d569ab6360693806d7e7f439ec2114f93c",
        "gas": "0x2680fd",
        "value": "0x0",
        "data": "0x60a0604052620493e0600b556207a120600c553480156200001f57600080fd5b506040516200221038038062002210833981016040819052620000429162000190565b838333816001600160a01b03811662000076576040516335fdcccd60e21b8152600060048201526024015b60405180910390fd5b6001600160a01b039081166080528116620000a857604051631e4fbdf760e01b8152600060048201526024016200006d565b620000b3816200010b565b5050600680546001600160401b039283166001600160401b0319909116179055600a805493909116600160a01b026001600160e01b03199093166001600160a01b039092169190911791909117905550620001ed9050565b600080546001600160a01b038381166001600160a01b0319831681178455604051919092169283917f8be0079c531659141344cd1fd0a4f28419497f9722a3daafe3b4186f6b6457e09190a35050565b80516001600160401b03811681146200017357600080fd5b919050565b80516001600160a01b03811681146200017357600080fd5b60008060008060808587031215620001a757600080fd5b620001b2856200015b565b9350620001c26020860162000178565b9250620001d2604086016200015b565b9150620001e26060860162000178565b905092959194509250565b608051611ff962000217600039600081816105c901528181610c0e0152610ea40152611ff96000f3fe6080604052600436106101a05760003560e01c806364e43bb9116100ec57806387c0cc4f1161008a5780638da5cb5b116100645780638da5cb5b146105635780639719501f14610581578063b0f479a1146105ba578063f2fde38b146105ed57600080fd5b806387c0cc4f146104c45780638aaa22841461050a5780638d1f0afa1461052a57600080fd5b80636e543d70116100c65780636e543d7014610438578063715018a6146104715780637e72ffa61461048657806385572ffb146104a457600080fd5b806364e43bb9146103b4578063678aa2b7146103d45780636aa673db146103f457600080fd5b80632374d7101161015957806351425e951161013357806351425e95146103195780635b091875146103395780635d9a2c481461035b578063628c97fc1461037b57600080fd5b80632374d710146102ad57806347e7ef24146102e65780634b52ffb0146102f957600080fd5b806301ffc9a7146101d15780630e6dfcd5146102065780631165b26a146102285780631572823c1461025a57806315abb12f1461027a57806319ad863e1461028d57600080fd5b366101cc5733600090815260086020526040812080543492906101c490849061179e565b925050819055005b600080fd5b3480156101dd57600080fd5b506101f16101ec3660046117b1565b61060d565b60405190151581526020015b60405180910390f35b34801561021257600080fd5b506102266102213660046117f0565b610644565b005b34801561023457600080fd5b50600a546001600160a01b03165b6040516001600160a01b0390911681526020016101fd565b34801561026657600080fd5b5061022661027536600461185b565b610682565b610226610288366004611892565b6106e4565b34801561029957600080fd5b506102266102a83660046118eb565b6108a6565b3480156102b957600080fd5b50600a54600160a01b90046001600160401b03165b6040516001600160401b0390911681526020016101fd565b6102266102f4366004611908565b6108d0565b34801561030557600080fd5b50610226610314366004611934565b610a8b565b34801561032557600080fd5b50610226610334366004611952565b610abe565b34801561034557600080fd5b5061034e610acb565b6040516101fd919061196b565b34801561036757600080fd5b5061022661037636600461185b565b610b7a565b34801561038757600080fd5b506101f16103963660046119b8565b6001600160401b031660009081526003602052604090205460ff1690565b3480156103c057600080fd5b506102266103cf366004611952565b610bad565b3480156103e057600080fd5b506102266103ef3660046119b8565b610bba565b34801561040057600080fd5b5061042a61040f3660046118eb565b6001600160a01b031660009081526008602052604090205490565b6040519081526020016101fd565b34801561044457600080fd5b506101f16104533660046118eb565b6001600160a01b031660009081526009602052604090205460ff1690565b34801561047d57600080fd5b50610226610bef565b34801561049257600080fd5b506006546001600160401b03166102ce565b3480156104b057600080fd5b506102266104bf3660046119d3565b610c03565b3480156104d057600080fd5b5061042a6104df366004611a0d565b6001600160a01b03918216600090815260076020908152604080832093909416825291909152205490565b34801561051657600080fd5b50610226610525366004611934565b610c62565b34801561053657600080fd5b506101f16105453660046119b8565b6001600160401b031660009081526004602052604090205460ff1690565b34801561056f57600080fd5b506000546001600160a01b0316610242565b34801561058d57600080fd5b506101f161059c3660046118eb565b6001600160a01b031660009081526005602052604090205460ff1690565b3480156105c657600080fd5b507f0000000000000000000000000000000000000000000000000000000000000000610242565b3480156105f957600080fd5b506102266106083660046118eb565b610c95565b60006001600160e01b031982166385572ffb60e01b148061063e57506001600160e01b031982166301ffc9a760e01b145b92915050565b600a5433906001600160a01b0316811461067157604051631eb49d6d60e11b815260040160405180910390fd5b61067c848484610cd0565b50505050565b61068a610d67565b6001600160401b0382166000908152600360205260409020805460ff191682158015919091179091556106d0576106cb60016001600160401b038416610d94565b505050565b6106cb60016001600160401b038416610da7565b6001600160a01b038516600090815260096020526040902054859060ff1661072f576040516306c942d160e11b81526001600160a01b03821660048201526024015b60405180910390fd5b336000908152600860205260408120805434929061074e90849061179e565b9091555061075f9050338787610db3565b600a546006546001600160401b03600160a01b909204821691160361081857600a5460065460405163748cbf7f60e11b81523360048201526001600160401b0391821660248201526001600160a01b03898116604483015260648201899052918716608482015285821660a482015260c4810185905291169063e9197efe9060e401600060405180830381600087803b1580156107fb57600080fd5b505af115801561080f573d6000803e3d6000fd5b5050505061089e565b604080513360208201526001600160a01b0388811682840152606082018890526001600160401b0387166080830152851660a082015260c08082018590528251808303909101815260e0820190925260009161087b916002919061010001611aa1565b604051602081830303815290604052905061089b33888884600c54610e09565b50505b505050505050565b6108ae610d67565b600a80546001600160a01b0319166001600160a01b0392909216919091179055565b6001600160a01b038216600090815260096020526040902054829060ff16610916576040516306c942d160e11b81526001600160a01b0382166004820152602401610726565b336000908152600860205260408120805434929061093590849061179e565b909155506109469050338484610db3565b600a546006546001600160401b03600160a01b9092048216911603610a2157600a54600654604051631df999a360e11b81523360048201526001600160401b0390911660248201526001600160a01b0385811660448301526064820185905290911690633bf3334690608401600060405180830381600087803b1580156109cc57600080fd5b505af11580156109e0573d6000803e3d6000fd5b50506040518492506001600160a01b038616915033907f5548c837ab068cf56a2c2479df0882a4922fd203edb7517321831d95078c5f6290600090a4505050565b604080513360208201526001600160a01b0385168183015260608082018590528251808303909101815260808201909252600091610a649183919060a001611aa1565b6040516020818303038152906040529050610a8433858584600b54610e09565b5050505050565b610a93610d67565b6001600160a01b03919091166000908152600560205260409020805460ff1916911515919091179055565b610ac6610d67565b600c55565b60606000610ad960016110af565b90506000816001600160401b03811115610af557610af5611ad8565b604051908082528060200260200182016040528015610b1e578160200160208202803683370190505b50905060005b82811015610b7357610b376001826110b9565b828281518110610b4957610b49611aee565b6001600160401b039092166020928302919091019091015280610b6b81611b04565b915050610b24565b5092915050565b610b82610d67565b6001600160401b03919091166000908152600460205260409020805460ff1916911515919091179055565b610bb5610d67565b600b55565b610bc2610d67565b600a80546001600160401b03909216600160a01b0267ffffffffffffffff60a01b19909216919091179055565b610bf7610d67565b610c0160006110c5565b565b336001600160a01b037f00000000000000000000000000000000000000000000000000000000000000001614610c4e576040516335fdcccd60e21b8152336004820152602401610726565b610c5f610c5a82611cc0565b611115565b50565b610c6a610d67565b6001600160a01b03919091166000908152600960205260409020805460ff1916911515919091179055565b610c9d610d67565b6001600160a01b038116610cc757604051631e4fbdf760e01b815260006004820152602401610726565b610c5f816110c5565b6001600160a01b038216600090815260096020526040902054829060ff16610d16576040516306c942d160e11b81526001600160a01b0382166004820152602401610726565b6001600160a01b03808516600090815260076020908152604080832093871683529290529081208054849290610d4d908490611d6c565b9091555061067c90506001600160a01b0384168584611268565b6000546001600160a01b03163314610c015760405163118cdaa760e01b8152336004820152602401610726565b6000610da083836112cb565b9392505050565b6000610da0838361131a565b610dc86001600160a01b03831684308461140d565b6001600160a01b03808416600090815260076020908152604080832093861683529290529081208054839290610dff90849061179e565b9091555050505050565b600a54600160a01b90046001600160401b031660008181526003602052604081205490919060ff16610e5957604051630a503cdb60e01b81526001600160401b0382166004820152602401610726565b600a546001600160a01b031680610e835760405163502ffa3f60e11b815260040160405180910390fd5b600a54600090610e9e906001600160a01b0316878388611445565b905060007f0000000000000000000000000000000000000000000000000000000000000000600a546040516320487ded60e01b81529192506000916001600160a01b038416916320487ded91610f0991600160a01b90046001600160401b0316908790600401611d7f565b602060405180830381865afa158015610f26573d6000803e3d6000fd5b505050506040513d601f19601f82011682018060405250810190610f4a9190611e58565b6001600160a01b038c16600090815260086020526040902054909150811115610fab576001600160a01b038b166000908152600860205260409081902054905163d44547cd60e01b8152600481019190915260248101829052604401610726565b6001600160a01b038b1660009081526008602052604081208054839290610fd3908490611d6c565b9091555050600a546040516396f4e9f960e01b81526001600160a01b038416916396f4e9f991849161101b91600160a01b9091046001600160401b0316908890600401611d7f565b60206040518083038185885af1158015611039573d6000803e3d6000fd5b50505050506040513d601f19601f8201168201806040525081019061105e9190611e58565b9550888a6001600160a01b03168c6001600160a01b03167f5548c837ab068cf56a2c2479df0882a4922fd203edb7517321831d95078c5f6260405160405180910390a4505050505095945050505050565b600061063e825490565b6000610da08383611569565b600080546001600160a01b038381166001600160a01b0319831681178455604051919092169283917f8be0079c531659141344cd1fd0a4f28419497f9722a3daafe3b4186f6b6457e09190a35050565b806020015181604001518060200190518101906111329190611e71565b6001600160401b03821660009081526004602052604090205460ff16611176576040516326bfad9160e21b81526001600160401b0383166004820152602401610726565b6001600160a01b03811660009081526005602052604090205460ff166111ba576040516338c08ef960e11b81526001600160a01b0382166004820152602401610726565b60008084606001518060200190518101906111d59190611e8e565b909250905060008260018111156111ee576111ee611a3b565b03610a845760008060008380602001905181019061120c9190611f1e565b92509250925061121d838383610cd0565b80826001600160a01b0316846001600160a01b03167fd12200efa34901b99367694174c3b0d32c99585fdf37c7c26892136ddd0836d960405160405180910390a45050505050505050565b6040516001600160a01b0383166024820152604481018290526106cb90849063a9059cbb60e01b906064015b60408051601f198184030181529190526020810180516001600160e01b03166001600160e01b031990931692909217909152611593565b60008181526001830160205260408120546113125750815460018181018455600084815260208082209093018490558454848252828601909352604090209190915561063e565b50600061063e565b6000818152600183016020526040812054801561140357600061133e600183611d6c565b855490915060009061135290600190611d6c565b90508082146113b757600086600001828154811061137257611372611aee565b906000526020600020015490508087600001848154811061139557611395611aee565b6000918252602080832090910192909255918252600188019052604090208390555b85548690806113c8576113c8611f61565b60019003818190600052602060002001600090559055856001016000868152602001908152602001600020600090556001935050505061063e565b600091505061063e565b6040516001600160a01b038085166024830152831660448201526064810182905261067c9085906323b872dd60e01b90608401611294565b6114806040518060a0016040528060608152602001606081526020016060815260200160006001600160a01b03168152602001606081525090565b6040805160a081019091526001600160a01b03861660c08201528060e0810160408051808303601f1901815291815290825260208083018890528151600080825291810183529290910191906114f8565b60408051808201909152600080825260208201528152602001906001900390816114d15790505b508152602001846001600160a01b0316815260200161155c60405180602001604052808681525060408051915160248084019190915281518084039091018152604490920190526020810180516001600160e01b03166397a657c960e01b17905290565b905290505b949350505050565b600082600001828154811061158057611580611aee565b9060005260206000200154905092915050565b60006115e8826040518060400160405280602081526020017f5361666545524332303a206c6f772d6c6576656c2063616c6c206661696c6564815250856001600160a01b03166116659092919063ffffffff16565b8051909150156106cb57808060200190518101906116069190611f77565b6106cb5760405162461bcd60e51b815260206004820152602a60248201527f5361666545524332303a204552433230206f7065726174696f6e20646964206e6044820152691bdd081cdd58d8d9595960b21b6064820152608401610726565b6060611561848460008585600080866001600160a01b0316858760405161168c9190611f94565b60006040518083038185875af1925050503d80600081146116c9576040519150601f19603f3d011682016040523d82523d6000602084013e6116ce565b606091505b50915091506116df878383876116ea565b979650505050505050565b60608315611759578251600003611752576001600160a01b0385163b6117525760405162461bcd60e51b815260206004820152601d60248201527f416464726573733a2063616c6c20746f206e6f6e2d636f6e74726163740000006044820152606401610726565b5081611561565b611561838381511561176e5781518083602001fd5b8060405162461bcd60e51b81526004016107269190611fb0565b634e487b7160e01b600052601160045260246000fd5b8082018082111561063e5761063e611788565b6000602082840312156117c357600080fd5b81356001600160e01b031981168114610da057600080fd5b6001600160a01b0381168114610c5f57600080fd5b60008060006060848603121561180557600080fd5b8335611810816117db565b92506020840135611820816117db565b929592945050506040919091013590565b80356001600160401b038116811461184857600080fd5b919050565b8015158114610c5f57600080fd5b6000806040838503121561186e57600080fd5b61187783611831565b915060208301356118878161184d565b809150509250929050565b600080600080600060a086880312156118aa57600080fd5b85356118b5816117db565b9450602086013593506118ca60408701611831565b925060608601356118da816117db565b949793965091946080013592915050565b6000602082840312156118fd57600080fd5b8135610da0816117db565b6000806040838503121561191b57600080fd5b8235611926816117db565b946020939093013593505050565b6000806040838503121561194757600080fd5b8235611877816117db565b60006020828403121561196457600080fd5b5035919050565b6020808252825182820181905260009190848201906040850190845b818110156119ac5783516001600160401b031683529284019291840191600101611987565b50909695505050505050565b6000602082840312156119ca57600080fd5b610da082611831565b6000602082840312156119e557600080fd5b81356001600160401b038111156119fb57600080fd5b820160a08185031215610da057600080fd5b60008060408385031215611a2057600080fd5b8235611a2b816117db565b91506020830135611887816117db565b634e487b7160e01b600052602160045260246000fd5b60005b83811015611a6c578181015183820152602001611a54565b50506000910152565b60008151808452611a8d816020860160208601611a51565b601f01601f19169290920160200192915050565b600060038410611ac157634e487b7160e01b600052602160045260246000fd5b838252604060208301526115616040830184611a75565b634e487b7160e01b600052604160045260246000fd5b634e487b7160e01b600052603260045260246000fd5b600060018201611b1657611b16611788565b5060010190565b604080519081016001600160401b0381118282101715611b3f57611b3f611ad8565b60405290565b60405160a081016001600160401b0381118282101715611b3f57611b3f611ad8565b604051601f8201601f191681016001600160401b0381118282101715611b8f57611b8f611ad8565b604052919050565b60006001600160401b03821115611bb057611bb0611ad8565b50601f01601f191660200190565b600082601f830112611bcf57600080fd5b8135611be2611bdd82611b97565b611b67565b818152846020838601011115611bf757600080fd5b816020850160208301376000918101602001919091529392505050565b600082601f830112611c2557600080fd5b813560206001600160401b03821115611c4057611c40611ad8565b611c4e818360051b01611b67565b82815260069290921b84018101918181019086841115611c6d57600080fd5b8286015b84811015611cb55760408189031215611c8a5760008081fd5b611c92611b1d565b8135611c9d816117db565b81528185013585820152835291830191604001611c71565b509695505050505050565b600060a08236031215611cd257600080fd5b611cda611b45565b82358152611cea60208401611831565b602082015260408301356001600160401b0380821115611d0957600080fd5b611d1536838701611bbe565b60408401526060850135915080821115611d2e57600080fd5b611d3a36838701611bbe565b60608401526080850135915080821115611d5357600080fd5b50611d6036828601611c14565b60808301525092915050565b8181038181111561063e5761063e611788565b600060406001600160401b038516835260208181850152845160a083860152611dab60e0860182611a75565b905081860151603f1980878403016060880152611dc88383611a75565b88860151888203830160808a01528051808352908601945060009350908501905b80841015611e1b57845180516001600160a01b0316835286015186830152938501936001939093019290860190611de9565b5060608901516001600160a01b031660a08901526080890151888203830160c08a01529550611e4a8187611a75565b9a9950505050505050505050565b600060208284031215611e6a57600080fd5b5051919050565b600060208284031215611e8357600080fd5b8151610da0816117db565b60008060408385031215611ea157600080fd5b825160028110611eb057600080fd5b60208401519092506001600160401b03811115611ecc57600080fd5b8301601f81018513611edd57600080fd5b8051611eeb611bdd82611b97565b818152866020838501011115611f0057600080fd5b611f11826020830160208601611a51565b8093505050509250929050565b600080600060608486031215611f3357600080fd5b8351611f3e816117db565b6020850151909350611f4f816117db565b80925050604084015190509250925092565b634e487b7160e01b600052603160045260246000fd5b600060208284031215611f8957600080fd5b8151610da08161184d565b60008251611fa6818460208701611a51565b9190910192915050565b602081526000610da06020830184611a7556fea2646970667358221220fb224228ed0969bad2b19f2ca396e057666f5e7b2655e4f30414bd40beb3d3fc64736f6c63430008150033000000000000000000000000000000000000000000000000de41ba4fc9d91ad90000000000000000000000000bf3de8c5d3e8a2b34d2beeb17abfcebaf363a59000000000000000000000000000000000000000000000000ccf0a31a221f3c9b0000000000000000000000009b0cb6e1b1bba871b2738f3ccd10ec5ece8daba7",
        "nonce": "0x15f",
        "accessList": []
      },
      "additionalContracts": [],
      "isFixedGasLimit": false
    },
    {
      "hash": "0xe1ea7b862a9f86a3c6c8bdaaa6a584fa299a8cf11d8edee97ddb4b9619189d8d",
      "transactionType": "CALL",
      "contractName": "Depositor",
      "contractAddress": "0x7803DB4950e0Bc60F11ef7e38971D0D2fEF23E2E",
      "function": "setAllowedToken(address,bool)",
      "arguments": [
        "0x4aa3B1639d45Cb98a67790b8509E47bD7aa16D2A",
        "true"
      ],
      "transaction": {
        "type": "0x02",
        "from": "0x7af234d569ab6360693806d7e7f439ec2114f93c",
        "to": "0x7803db4950e0bc60f11ef7e38971d0d2fef23e2e",
        "gas": "0xfa75",
        "value": "0x0",
        "data": "0x8aaa22840000000000000000000000004aa3b1639d45cb98a67790b8509e47bd7aa16d2a0000000000000000000000000000000000000000000000000000000000000001",
        "nonce": "0x160",
        "accessList": []
      },
      "additionalContracts": [],
      "isFixedGasLimit": false
    },
    {
      "hash": "0x8456846628ff67d1dd4898239d7b85e864e35b0528d34be9a291ec9e6b6be95a",
      "transactionType": "CALL",
      "contractName": "Depositor",
      "contractAddress": "0x7803DB4950e0Bc60F11ef7e38971D0D2fEF23E2E",
      "function": "setAllowedToken(address,bool)",
      "arguments": [
        "0x9124d3b5DfD072bB2d6cf3e3A59430d2a5D8A55D",
        "true"
      ],
      "transaction": {
        "type": "0x02",
        "from": "0x7af234d569ab6360693806d7e7f439ec2114f93c",
        "to": "0x7803db4950e0bc60f11ef7e38971d0d2fef23e2e",
        "gas": "0xfa75",
        "value": "0x0",
        "data": "0x8aaa22840000000000000000000000009124d3b5dfd072bb2d6cf3e3a59430d2a5d8a55d0000000000000000000000000000000000000000000000000000000000000001",
        "nonce": "0x161",
        "accessList": []
      },
      "additionalContracts": [],
      "isFixedGasLimit": false
    },
    {
      "hash": "0x1a97b6945f614daa05110fa8ea76d41d20696cdf28abeb749a64ff7edf43027d",
      "transactionType": "CALL",
      "contractName": "Depositor",
      "contractAddress": "0x7803DB4950e0Bc60F11ef7e38971D0D2fEF23E2E",
      "function": "setAllowedToken(address,bool)",
      "arguments": [
        "0x31A4Ae750C0e8d477Dd39AF3662F93e69021AA50",
        "true"
      ],
      "transaction": {
        "type": "0x02",
        "from": "0x7af234d569ab6360693806d7e7f439ec2114f93c",
        "to": "0x7803db4950e0bc60f11ef7e38971d0d2fef23e2e",
        "gas": "0xfa75",
        "value": "0x0",
        "data": "0x8aaa228400000000000000000000000031a4ae750c0e8d477dd39af3662f93e69021aa500000000000000000000000000000000000000000000000000000000000000001",
        "nonce": "0x162",
        "accessList": []
      },
      "additionalContracts": [],
      "isFixedGasLimit": false
    },
    {
      "hash": "0x98e69059a1a230b45a81ad05541ab728d5a2905150646a2f5aadc2113f951d75",
      "transactionType": "CALL",
      "contractName": "Depositor",
      "contractAddress": "0x7803DB4950e0Bc60F11ef7e38971D0D2fEF23E2E",
      "function": "setAllowedToken(address,bool)",
      "arguments": [
        "0xdd36FB413B4470ab5CE67F975c6A2B192e6F84ba",
        "true"
      ],
      "transaction": {
        "type": "0x02",
        "from": "0x7af234d569ab6360693806d7e7f439ec2114f93c",
        "to": "0x7803db4950e0bc60f11ef7e38971d0d2fef23e2e",
        "gas": "0xfa75",
        "value": "0x0",
        "data": "0x8aaa2284000000000000000000000000dd36fb413b4470ab5ce67f975c6a2b192e6f84ba0000000000000000000000000000000000000000000000000000000000000001",
        "nonce": "0x163",
        "accessList": []
      },
      "additionalContracts": [],
      "isFixedGasLimit": false
    },
    {
      "hash": "0xca54646c042f118d1d21e03c34677d18683c6f9fc9c0f6b0d4d2b275c0a96a1c",
      "transactionType": "CALL",
      "contractName": "Depositor",
      "contractAddress": "0x7803DB4950e0Bc60F11ef7e38971D0D2fEF23E2E",
      "function": "setAllowedToken(address,bool)",
      "arguments": [
        "0x492E85cD024A271C4F19d8B7E9050Ef2bbFeDcCA",
        "true"
      ],
      "transaction": {
        "type": "0x02",
        "from": "0x7af234d569ab6360693806d7e7f439ec2114f93c",
        "to": "0x7803db4950e0bc60f11ef7e38971d0d2fef23e2e",
        "gas": "0xfa75",
        "value": "0x0",
        "data": "0x8aaa2284000000000000000000000000492e85cd024a271c4f19d8b7e9050ef2bbfedcca0000000000000000000000000000000000000000000000000000000000000001",
        "nonce": "0x164",
        "accessList": []
      },
      "additionalContracts": [],
      "isFixedGasLimit": false
    },
    {
      "hash": "0x5b1dda5fcc300f031ca56ae4d23c6c2e62a6cfe5835150a6bce74017b408590d",
      "transactionType": "CALL",
      "contractName": "Depositor",
      "contractAddress": "0x7803DB4950e0Bc60F11ef7e38971D0D2fEF23E2E",
      "function": "setAllowedToken(address,bool)",
      "arguments": [
        "0x65Ae0010421814B1303778Bc82a599f63028d899",
        "true"
      ],
      "transaction": {
        "type": "0x02",
        "from": "0x7af234d569ab6360693806d7e7f439ec2114f93c",
        "to": "0x7803db4950e0bc60f11ef7e38971d0d2fef23e2e",
        "gas": "0xfa64",
        "value": "0x0",
        "data": "0x8aaa228400000000000000000000000065ae0010421814b1303778bc82a599f63028d8990000000000000000000000000000000000000000000000000000000000000001",
        "nonce": "0x165",
        "accessList": []
      },
      "additionalContracts": [],
      "isFixedGasLimit": false
    },
    {
      "hash": "0x17bc8e8c0f236cd6d63e32afd51e00fc906af0c7a8e9a11a36ee1dfacc0d53a9",
      "transactionType": "CALL",
      "contractName": "Depositor",
      "contractAddress": "0x7803DB4950e0Bc60F11ef7e38971D0D2fEF23E2E",
      "function": "setAllowedToken(address,bool)",
      "arguments": [
        "0xB3718E52781F9Fc1C0b72A2966C2616E6d962a1C",
        "true"
      ],
      "transaction": {
        "type": "0x02",
        "from": "0x7af234d569ab6360693806d7e7f439ec2114f93c",
        "to": "0x7803db4950e0bc60f11ef7e38971d0d2fef23e2e",
        "gas": "0xfa75",
        "value": "0x0",
        "data": "0x8aaa2284000000000000000000000000b3718e52781f9fc1c0b72a2966c2616e6d962a1c0000000000000000000000000000000000000000000000000000000000000001",
        "nonce": "0x166",
        "accessList": []
      },
      "additionalContracts": [],
      "isFixedGasLimit": false
    },
    {
      "hash": "0x600bd8d869c0ad1a82b6c2c195e619ca680608d92f78013cdeb7b9e0df8a3cab",
      "transactionType": "CALL",
      "contractName": "Depositor",
      "contractAddress": "0x7803DB4950e0Bc60F11ef7e38971D0D2fEF23E2E",
      "function": "setAllowedDestinationChain(uint64,bool)",
      "arguments": [
        "14767482510784806043",
        "true"
      ],
      "transaction": {
        "type": "0x02",
        "from": "0x7af234d569ab6360693806d7e7f439ec2114f93c",
        "to": "0x7803db4950e0bc60f11ef7e38971d0d2fef23e2e",
        "gas": "0x28629",
        "value": "0x0",
        "data": "0x1572823c000000000000000000000000000000000000000000000000ccf0a31a221f3c9b0000000000000000000000000000000000000000000000000000000000000001",
        "nonce": "0x167",
        "accessList": []
      },
      "additionalContracts": [],
      "isFixedGasLimit": false
    },
    {
      "hash": "0xa8e7ad1555325d88361126dbdd3583aff9ea20fb473935a41d9b34d92aca059f",
      "transactionType": "CALL",
      "contractName": "Depositor",
      "contractAddress": "0x7803DB4950e0Bc60F11ef7e38971D0D2fEF23E2E",
      "function": "setAllowedSourceChain(uint64,bool)",
      "arguments": [
        "14767482510784806043",
        "true"
      ],
      "transaction": {
        "type": "0x02",
        "from": "0x7af234d569ab6360693806d7e7f439ec2114f93c",
        "to": "0x7803db4950e0bc60f11ef7e38971d0d2fef23e2e",
        "gas": "0xf9d5",
        "value": "0x0",
        "data": "0x5d9a2c48000000000000000000000000000000000000000000000000ccf0a31a221f3c9b0000000000000000000000000000000000000000000000000000000000000001",
        "nonce": "0x168",
        "accessList": []
      },
      "additionalContracts": [],
      "isFixedGasLimit": false
    },
    {
      "hash": "0x69c8062c2fc21b8ff6e466b93d0880727f9aa9f88a634ee08f831a4406f20a5d",
      "transactionType": "CALL",
      "contractName": "Depositor",
      "contractAddress": "0x7803DB4950e0Bc60F11ef7e38971D0D2fEF23E2E",
      "function": "setAllowedSender(address,bool)",
      "arguments": [
        "0x9b0cb6E1B1BbA871b2738f3CCd10eC5eCe8DaBa7",
        "true"
      ],
      "transaction": {
        "type": "0x02",
        "from": "0x7af234d569ab6360693806d7e7f439ec2114f93c",
        "to": "0x7803db4950e0bc60f11ef7e38971d0d2fef23e2e",
        "gas": "0x10952",
        "value": "0x0",
        "data": "0x4b52ffb00000000000000000000000009b0cb6e1b1bba871b2738f3ccd10ec5ece8daba70000000000000000000000000000000000000000000000000000000000000001",
        "nonce": "0x169",
        "accessList": []
      },
      "additionalContracts": [],
      "isFixedGasLimit": false
    }
  ],
  "receipts": [
    {
      "transactionHash": "0x1872e2926b216dc21ae52fe85f0a0f8afb3723deaf149264e9a2a367e9a375e7",
      "transactionIndex": "0xc",
      "blockHash": "0xd22e359f7cbba699d1adc7bde39621f88689e662befadceffdcf70ef9a337271",
      "blockNumber": "0x5b3f05",
      "from": "0x7aF234d569aB6360693806D7e7f439Ec2114F93c",
      "to": null,
      "cumulativeGasUsed": "0x2310ff",
      "gasUsed": "0x1da077",
      "contractAddress": "0x7803DB4950e0Bc60F11ef7e38971D0D2fEF23E2E",
      "logs": [
        {
          "address": "0x7803DB4950e0Bc60F11ef7e38971D0D2fEF23E2E",
          "topics": [
            "0x8be0079c531659141344cd1fd0a4f28419497f9722a3daafe3b4186f6b6457e0",
            "0x0000000000000000000000000000000000000000000000000000000000000000",
            "0x0000000000000000000000007af234d569ab6360693806d7e7f439ec2114f93c"
          ],
          "data": "0x",
          "blockHash": "0xd22e359f7cbba699d1adc7bde39621f88689e662befadceffdcf70ef9a337271",
          "blockNumber": "0x5b3f05",
          "transactionHash": "0x1872e2926b216dc21ae52fe85f0a0f8afb3723deaf149264e9a2a367e9a375e7",
          "transactionIndex": "0xc",
          "logIndex": "0x7",
          "removed": false
        }
      ],
      "status": "0x1",
      "logsBloom": "0x00000000080000000000000000000000000000000000000000800000000000000000000000000000000000000000000000000000000000000008000000000000000000000000000000000000000000000001000000000000000000000000000000000000020000000000000000000804000000000000000000000000000000400001000000000000000000000000000000000000000008000000000000000000000000000000000000000000000000000000000000000000000000000000000000000000000000000000000000000000000000000000000040000000000020000000000000000000000000000000000000000000000000000000000000000000",
      "type": "0x2",
      "effectiveGasPrice": "0xb2da36ea"
    },
    {
      "transactionHash": "0xe1ea7b862a9f86a3c6c8bdaaa6a584fa299a8cf11d8edee97ddb4b9619189d8d",
      "transactionIndex": "0xd",
      "blockHash": "0xd22e359f7cbba699d1adc7bde39621f88689e662befadceffdcf70ef9a337271",
      "blockNumber": "0x5b3f05",
      "from": "0x7aF234d569aB6360693806D7e7f439Ec2114F93c",
      "to": "0x7803DB4950e0Bc60F11ef7e38971D0D2fEF23E2E",
      "cumulativeGasUsed": "0x23c653",
      "gasUsed": "0xb554",
      "contractAddress": null,
      "logs": [],
      "status": "0x1",
      "logsBloom": "0x00000000000000000000000000000000000000000000000000000000000000000000000000000000000000000000000000000000000000000000000000000000000000000000000000000000000000000000000000000000000000000000000000000000000000000000000000000000000000000000000000000000000000000000000000000000000000000000000000000000000000000000000000000000000000000000000000000000000000000000000000000000000000000000000000000000000000000000000000000000000000000000000000000000000000000000000000000000000000000000000000000000000000000000000000000000",
      "type": "0x2",
      "effectiveGasPrice": "0xb2da36ea"
    },
    {
      "transactionHash": "0x8456846628ff67d1dd4898239d7b85e864e35b0528d34be9a291ec9e6b6be95a",
      "transactionIndex": "0xe",
      "blockHash": "0xd22e359f7cbba699d1adc7bde39621f88689e662befadceffdcf70ef9a337271",
      "blockNumber": "0x5b3f05",
      "from": "0x7aF234d569aB6360693806D7e7f439Ec2114F93c",
      "to": "0x7803DB4950e0Bc60F11ef7e38971D0D2fEF23E2E",
      "cumulativeGasUsed": "0x247ba7",
      "gasUsed": "0xb554",
      "contractAddress": null,
      "logs": [],
      "status": "0x1",
      "logsBloom": "0x00000000000000000000000000000000000000000000000000000000000000000000000000000000000000000000000000000000000000000000000000000000000000000000000000000000000000000000000000000000000000000000000000000000000000000000000000000000000000000000000000000000000000000000000000000000000000000000000000000000000000000000000000000000000000000000000000000000000000000000000000000000000000000000000000000000000000000000000000000000000000000000000000000000000000000000000000000000000000000000000000000000000000000000000000000000",
      "type": "0x2",
      "effectiveGasPrice": "0xb2da36ea"
    },
    {
      "transactionHash": "0x1a97b6945f614daa05110fa8ea76d41d20696cdf28abeb749a64ff7edf43027d",
      "transactionIndex": "0xf",
      "blockHash": "0xd22e359f7cbba699d1adc7bde39621f88689e662befadceffdcf70ef9a337271",
      "blockNumber": "0x5b3f05",
      "from": "0x7aF234d569aB6360693806D7e7f439Ec2114F93c",
      "to": "0x7803DB4950e0Bc60F11ef7e38971D0D2fEF23E2E",
      "cumulativeGasUsed": "0x2530fb",
      "gasUsed": "0xb554",
      "contractAddress": null,
      "logs": [],
      "status": "0x1",
      "logsBloom": "0x00000000000000000000000000000000000000000000000000000000000000000000000000000000000000000000000000000000000000000000000000000000000000000000000000000000000000000000000000000000000000000000000000000000000000000000000000000000000000000000000000000000000000000000000000000000000000000000000000000000000000000000000000000000000000000000000000000000000000000000000000000000000000000000000000000000000000000000000000000000000000000000000000000000000000000000000000000000000000000000000000000000000000000000000000000000",
      "type": "0x2",
      "effectiveGasPrice": "0xb2da36ea"
    },
    {
      "transactionHash": "0x98e69059a1a230b45a81ad05541ab728d5a2905150646a2f5aadc2113f951d75",
      "transactionIndex": "0x10",
      "blockHash": "0xd22e359f7cbba699d1adc7bde39621f88689e662befadceffdcf70ef9a337271",
      "blockNumber": "0x5b3f05",
      "from": "0x7aF234d569aB6360693806D7e7f439Ec2114F93c",
      "to": "0x7803DB4950e0Bc60F11ef7e38971D0D2fEF23E2E",
      "cumulativeGasUsed": "0x25e64f",
      "gasUsed": "0xb554",
      "contractAddress": null,
      "logs": [],
      "status": "0x1",
      "logsBloom": "0x00000000000000000000000000000000000000000000000000000000000000000000000000000000000000000000000000000000000000000000000000000000000000000000000000000000000000000000000000000000000000000000000000000000000000000000000000000000000000000000000000000000000000000000000000000000000000000000000000000000000000000000000000000000000000000000000000000000000000000000000000000000000000000000000000000000000000000000000000000000000000000000000000000000000000000000000000000000000000000000000000000000000000000000000000000000",
      "type": "0x2",
      "effectiveGasPrice": "0xb2da36ea"
    },
    {
      "transactionHash": "0xca54646c042f118d1d21e03c34677d18683c6f9fc9c0f6b0d4d2b275c0a96a1c",
      "transactionIndex": "0x11",
      "blockHash": "0xd22e359f7cbba699d1adc7bde39621f88689e662befadceffdcf70ef9a337271",
      "blockNumber": "0x5b3f05",
      "from": "0x7aF234d569aB6360693806D7e7f439Ec2114F93c",
      "to": "0x7803DB4950e0Bc60F11ef7e38971D0D2fEF23E2E",
      "cumulativeGasUsed": "0x269ba3",
      "gasUsed": "0xb554",
      "contractAddress": null,
      "logs": [],
      "status": "0x1",
      "logsBloom": "0x00000000000000000000000000000000000000000000000000000000000000000000000000000000000000000000000000000000000000000000000000000000000000000000000000000000000000000000000000000000000000000000000000000000000000000000000000000000000000000000000000000000000000000000000000000000000000000000000000000000000000000000000000000000000000000000000000000000000000000000000000000000000000000000000000000000000000000000000000000000000000000000000000000000000000000000000000000000000000000000000000000000000000000000000000000000",
      "type": "0x2",
      "effectiveGasPrice": "0xb2da36ea"
    },
    {
      "transactionHash": "0x5b1dda5fcc300f031ca56ae4d23c6c2e62a6cfe5835150a6bce74017b408590d",
      "transactionIndex": "0x6",
      "blockHash": "0x58c63b66964c4c1946cfd981f237e84acf11a856ff078b094218aad2a6a2c686",
      "blockNumber": "0x5b3f06",
      "from": "0x7aF234d569aB6360693806D7e7f439Ec2114F93c",
      "to": "0x7803DB4950e0Bc60F11ef7e38971D0D2fEF23E2E",
      "cumulativeGasUsed": "0x4d27c",
      "gasUsed": "0xb548",
      "contractAddress": null,
      "logs": [],
      "status": "0x1",
      "logsBloom": "0x00000000000000000000000000000000000000000000000000000000000000000000000000000000000000000000000000000000000000000000000000000000000000000000000000000000000000000000000000000000000000000000000000000000000000000000000000000000000000000000000000000000000000000000000000000000000000000000000000000000000000000000000000000000000000000000000000000000000000000000000000000000000000000000000000000000000000000000000000000000000000000000000000000000000000000000000000000000000000000000000000000000000000000000000000000000",
      "type": "0x2",
      "effectiveGasPrice": "0xb2da5ccd"
    },
    {
      "transactionHash": "0x17bc8e8c0f236cd6d63e32afd51e00fc906af0c7a8e9a11a36ee1dfacc0d53a9",
      "transactionIndex": "0x7",
      "blockHash": "0x58c63b66964c4c1946cfd981f237e84acf11a856ff078b094218aad2a6a2c686",
      "blockNumber": "0x5b3f06",
      "from": "0x7aF234d569aB6360693806D7e7f439Ec2114F93c",
      "to": "0x7803DB4950e0Bc60F11ef7e38971D0D2fEF23E2E",
      "cumulativeGasUsed": "0x587d0",
      "gasUsed": "0xb554",
      "contractAddress": null,
      "logs": [],
      "status": "0x1",
      "logsBloom": "0x00000000000000000000000000000000000000000000000000000000000000000000000000000000000000000000000000000000000000000000000000000000000000000000000000000000000000000000000000000000000000000000000000000000000000000000000000000000000000000000000000000000000000000000000000000000000000000000000000000000000000000000000000000000000000000000000000000000000000000000000000000000000000000000000000000000000000000000000000000000000000000000000000000000000000000000000000000000000000000000000000000000000000000000000000000000",
      "type": "0x2",
      "effectiveGasPrice": "0xb2da5ccd"
    },
    {
      "transactionHash": "0x600bd8d869c0ad1a82b6c2c195e619ca680608d92f78013cdeb7b9e0df8a3cab",
      "transactionIndex": "0x8",
      "blockHash": "0x58c63b66964c4c1946cfd981f237e84acf11a856ff078b094218aad2a6a2c686",
      "blockNumber": "0x5b3f06",
      "from": "0x7aF234d569aB6360693806D7e7f439Ec2114F93c",
      "to": "0x7803DB4950e0Bc60F11ef7e38971D0D2fEF23E2E",
      "cumulativeGasUsed": "0x741a2",
      "gasUsed": "0x1b9d2",
      "contractAddress": null,
      "logs": [],
      "status": "0x1",
      "logsBloom": "0x00000000000000000000000000000000000000000000000000000000000000000000000000000000000000000000000000000000000000000000000000000000000000000000000000000000000000000000000000000000000000000000000000000000000000000000000000000000000000000000000000000000000000000000000000000000000000000000000000000000000000000000000000000000000000000000000000000000000000000000000000000000000000000000000000000000000000000000000000000000000000000000000000000000000000000000000000000000000000000000000000000000000000000000000000000000",
      "type": "0x2",
      "effectiveGasPrice": "0xb2da5ccd"
    },
    {
      "transactionHash": "0xa8e7ad1555325d88361126dbdd3583aff9ea20fb473935a41d9b34d92aca059f",
      "transactionIndex": "0x9",
      "blockHash": "0x58c63b66964c4c1946cfd981f237e84acf11a856ff078b094218aad2a6a2c686",
      "blockNumber": "0x5b3f06",
      "from": "0x7aF234d569aB6360693806D7e7f439Ec2114F93c",
      "to": "0x7803DB4950e0Bc60F11ef7e38971D0D2fEF23E2E",
      "cumulativeGasUsed": "0x7f682",
      "gasUsed": "0xb4e0",
      "contractAddress": null,
      "logs": [],
      "status": "0x1",
      "logsBloom": "0x00000000000000000000000000000000000000000000000000000000000000000000000000000000000000000000000000000000000000000000000000000000000000000000000000000000000000000000000000000000000000000000000000000000000000000000000000000000000000000000000000000000000000000000000000000000000000000000000000000000000000000000000000000000000000000000000000000000000000000000000000000000000000000000000000000000000000000000000000000000000000000000000000000000000000000000000000000000000000000000000000000000000000000000000000000000",
      "type": "0x2",
      "effectiveGasPrice": "0xb2da5ccd"
    },
    {
      "transactionHash": "0x69c8062c2fc21b8ff6e466b93d0880727f9aa9f88a634ee08f831a4406f20a5d",
      "transactionIndex": "0xa",
      "blockHash": "0x58c63b66964c4c1946cfd981f237e84acf11a856ff078b094218aad2a6a2c686",
      "blockNumber": "0x5b3f06",
      "from": "0x7aF234d569aB6360693806D7e7f439Ec2114F93c",
      "to": "0x7803DB4950e0Bc60F11ef7e38971D0D2fEF23E2E",
      "cumulativeGasUsed": "0x8abed",
      "gasUsed": "0xb56b",
      "contractAddress": null,
      "logs": [],
      "status": "0x1",
      "logsBloom": "0x00000000000000000000000000000000000000000000000000000000000000000000000000000000000000000000000000000000000000000000000000000000000000000000000000000000000000000000000000000000000000000000000000000000000000000000000000000000000000000000000000000000000000000000000000000000000000000000000000000000000000000000000000000000000000000000000000000000000000000000000000000000000000000000000000000000000000000000000000000000000000000000000000000000000000000000000000000000000000000000000000000000000000000000000000000000",
      "type": "0x2",
      "effectiveGasPrice": "0xb2da5ccd"
    }
  ],
  "libraries": [],
  "pending": [],
  "returns": {
    "depositor": {
      "internal_type": "contract Depositor",
      "value": "0x7803DB4950e0Bc60F11ef7e38971D0D2fEF23E2E"
    }
  },
  "timestamp": 1716704751,
  "chain": 11155111,
  "multi": false,
  "commit": "d904af2"
}