{
  "transactions": [
    {
      "hash": "0x63f09354fbdb15275b527ff9b170b29a086310ca167c1fd572745079767aea5f",
      "transactionType": "CREATE",
      "contractName": "OracleLib",
      "contractAddress": "0xAE71D3DA9D435da6a44a48Ea28df9E75fCbAeAfA",
      "function": null,
      "arguments": null,
      "transaction": {
        "type": "0x02",
        "from": "0x7af234d569ab6360693806d7e7f439ec2114f93c",
        "gas": "0x58581",
        "data": "0x61041261003a600b82828239805160001a60731461002d57634e487b7160e01b600052600060045260246000fd5b30600052607381538281f3fe73000000000000000000000000000000000000000030146080604052600436106100615760003560e01c8063115d30c5146100665780632ba1c96a1461008c57806347096f81146100d65780634a98fd7f146100ec578063f56f48f2146100ff575b600080fd5b610079610074366004610316565b610109565b6040519081526020015b60405180910390f35b61009f61009a366004610316565b61018a565b6040805169ffffffffffffffffffff968716815260208101959095528401929092526060830152909116608082015260a001610083565b6100796100e4366004610316565b506201518090565b61009f6100fa366004610316565b61028e565b6100796201518081565b600080826001600160a01b031663feaf968c6040518163ffffffff1660e01b815260040160a060405180830381865afa15801561014a573d6000803e3d6000fd5b505050506040513d601f19601f8201168201806040525081019061016e9190610365565b5093505050506000814261018291906103b5565b949350505050565b6000806000806000806000806000808a6001600160a01b031663feaf968c6040518163ffffffff1660e01b815260040160a060405180830381865afa1580156101d7573d6000803e3d6000fd5b505050506040513d601f19601f820116820180604052508101906101fb9190610365565b94509450945094509450816000148061022b57508469ffffffffffffffffffff168169ffffffffffffffffffff16105b1561024957604051636250849d60e11b815260040160405180910390fd5b600061025583426103b5565b90506201518081111561027b57604051636250849d60e11b815260040160405180910390fd5b50939a9299509097509550909350915050565b6000806000806000806000806000808a6001600160a01b031663feaf968c6040518163ffffffff1660e01b815260040160a060405180830381865afa1580156102db573d6000803e3d6000fd5b505050506040513d601f19601f820116820180604052508101906102ff9190610365565b939f929e50909c509a509098509650505050505050565b60006020828403121561032857600080fd5b81356001600160a01b038116811461033f57600080fd5b9392505050565b805169ffffffffffffffffffff8116811461036057600080fd5b919050565b600080600080600060a0868803121561037d57600080fd5b61038686610346565b94506020860151935060408601519250606086015191506103a960808701610346565b90509295509295909350565b818103818111156103d657634e487b7160e01b600052601160045260246000fd5b9291505056fea26469706673582212206483b829a8af770d18a36575f2e853a489e1d3f671b19e239505922788b2c8f664736f6c63430008150033",
        "nonce": "0x23e",
        "accessList": []
      },
      "additionalContracts": [],
      "isFixedGasLimit": false
    },
    {
      "hash": "0xd011fa05c167b2d23691e71745376f478ad2a08cf6ef54c535be900955d5bbaa",
      "transactionType": "CREATE",
      "contractName": "MainRouter",
      "contractAddress": "0x86d76dcA88B435E9342F0f8A05523BE89c819F3E",
      "function": null,
      "arguments": [
        "14767482510784806043",
        "0xF694E193200268f9a4868e4Aa017A0118C9a8177",
        "0xA9d587a00A31A52Ed70D6026794a8FC5E2F5dCb0",
        "0x66756e2d6176616c616e6368652d66756a692d31000000000000000000000000"
      ],
      "transaction": {
        "type": "0x02",
        "from": "0x7af234d569ab6360693806d7e7f439ec2114f93c",
        "gas": "0x60e2f4",
        "value": "0x0",
        "data": "0x6008805463ffffffff60401b19166a0493e0000000000000000017905561024060405261015960c081815290620053fc60e039600a9062000041908262000234565b50620493e06016553480156200005657600080fd5b50604051620055553803806200555583398101604081905262000079916200031d565b818185853384826001600160a01b038116620000b0576040516335fdcccd60e21b8152600060048201526024015b60405180910390fd5b6001600160a01b0390811660805290811660a0528116620000e857604051631e4fbdf760e01b815260006004820152602401620000a7565b620000f3816200013f565b5050600680546001600160a01b0390941668010000000000000000026001600160e01b03199094166001600160401b039092169190911792909217909155600755506200037c92505050565b600080546001600160a01b038381166001600160a01b0319831681178455604051919092169283917f8be0079c531659141344cd1fd0a4f28419497f9722a3daafe3b4186f6b6457e09190a35050565b634e487b7160e01b600052604160045260246000fd5b600181811c90821680620001ba57607f821691505b602082108103620001db57634e487b7160e01b600052602260045260246000fd5b50919050565b601f8211156200022f57600081815260208120601f850160051c810160208610156200020a5750805b601f850160051c820191505b818110156200022b5782815560010162000216565b5050505b505050565b81516001600160401b038111156200025057620002506200018f565b6200026881620002618454620001a5565b84620001e1565b602080601f831160018114620002a05760008415620002875750858301515b600019600386901b1c1916600185901b1785556200022b565b600085815260208120601f198616915b82811015620002d157888601518255948401946001909101908401620002b0565b5085821015620002f05787850151600019600388901b60f8161c191681555b5050505050600190811b01905550565b80516001600160a01b03811681146200031857600080fd5b919050565b600080600080608085870312156200033457600080fd5b84516001600160401b03811681146200034c57600080fd5b93506200035c6020860162000300565b92506200036c6040860162000300565b6060959095015193969295505050565b60805160a051615037620003c5600039600081816110f20152613326015260008181610d9e015281816113b501528181611a1b01528181611c7501526135f001526150376000f3fe6080604052600436106104ae5760003560e01c80637f776ade1161026b578063b79ea77f1161014f578063d83ce949116100c1578063f2be459911610085578063f2be459914610fd3578063f2fde38b14610fe6578063f9ca2b0914611006578063fa39355f14611026578063ff1aea4a14611046578063ff673dbc14610cb857600080fd5b8063d83ce94914610f40578063db7bf55a14610f55578063de3d9fb714610f75578063e9197efe14610f93578063f172010d14610fb357600080fd5b8063c8bc57b011610113578063c8bc57b014610e75578063c8ce7b4714610e93578063ca0880cf14610ec0578063d02641a014610ee0578063d1bccf0814610f00578063d348dd5014610f2057600080fd5b8063b79ea77f14610df8578063bc7a778b14610e18578063c26f5b6e14610e38578063c56cc3a014610e58578063c6b7ac3c1461084f57600080fd5b806399d25455116101e8578063aaf5eb68116101ac578063aaf5eb6814610d31578063ad7ea8aa14610d4d578063afa293d414610d6d578063b0f479a114610d8f578063b5627e4214610d31578063b6c0f0e014610dc257600080fd5b806399d2545514610c985780639ace5b8214610cb85780639b8621d514610cd85780639d45ac8914610cf4578063a635b7b314610d1157600080fd5b806390a8ae9b1161022f57806390a8ae9b14610bee57806391ec998414610c0b57806394de0dc814610c2b5780639719501f14610c4157806398bec9d514610c7a57600080fd5b80637f776ade14610b3a57806381bf8d3d14610b5a57806385572ffb14610b775780638d1f0afa14610b975780638da5cb5b14610bd057600080fd5b806344b1aa5e11610392578063628c97fc1161030f5780636aa673db116102d35780636aa673db14610a5d578063715018a614610a9357806371cbfc9814610aa85780637462534214610ac857806378ca5de714610ae85780637e72ffa614610b0857600080fd5b8063628c97fc146109a6578063636ce040146109df578063644f1aa7146109f5578063649a05c114610a2a5780636a2f953614610a3d57600080fd5b8063554a221c11610356578063554a221c14610904578063586d25cb146109245780635b091875146109445780635d9a2c48146109665780636185328f1461098657600080fd5b806344b1aa5e1461086f5780634b52ffb0146108845780634d69d946146108a457806352d84c62146108c457806354688d2f146108e457600080fd5b80631edebf0b1161042b5780633bf33346116103ef5780633bf33346146107515780633c96b5ef146107715780633d91079b146107915780633ed4464b146107e257806340bf5da41461082f578063444810f21461084f57600080fd5b80631edebf0b146106655780632d682b56146106855780632f881be7146106a5578063326cb917146106c55780633395a79a1461072c57600080fd5b80630ca76175116104725780630ca76175146105b1578063137a9acb146105d35780631572823c146105f357806318bd43c2146106135780631a93d1c31461063357600080fd5b806301996e6f146104df57806301f728841461051457806301ffc9a714610542578063077440781461056257806309fef9d91461057b57600080fd5b366104da5733600090815260156020526040812080543492906104d2908490613da5565b925050819055005b600080fd5b3480156104eb57600080fd5b506104ff6104fa366004613dcd565b611066565b60405190151581526020015b60405180910390f35b34801561052057600080fd5b5061053461052f366004613dea565b611081565b60405190815260200161050b565b34801561054e57600080fd5b506104ff61055d366004613e0c565b6110b1565b34801561056e57600080fd5b506105346402540be40081565b34801561058757600080fd5b50610534610596366004613dcd565b6001600160a01b03166000908152600e602052604090205490565b3480156105bd57600080fd5b506105d16105cc366004613f43565b6110e7565b005b3480156105df57600080fd5b506105346105ee366004613dcd565b61116b565b3480156105ff57600080fd5b506105d161060e366004613fe4565b6111b3565b34801561061f57600080fd5b506105d161062e366004614010565b611219565b34801561063f57600080fd5b50600854600160401b900463ffffffff1660405163ffffffff909116815260200161050b565b34801561067157600080fd5b506105d1610680366004614051565b611257565b34801561069157600080fd5b506105346106a0366004613dcd565b611282565b3480156106b157600080fd5b506105d16106c0366004613dcd565b6112b4565b3480156106d157600080fd5b506107146106e036600461406e565b6001600160401b039190911660009081526013602090815260408083206001600160a01b0394851684529091529020541690565b6040516001600160a01b03909116815260200161050b565b34801561073857600080fd5b50600654600160401b90046001600160a01b0316610714565b34801561075d57600080fd5b506105d161076c3660046140a7565b6112de565b34801561077d57600080fd5b5061053461078c3660046140f8565b61131e565b34801561079d57600080fd5b506104ff6107ac36600461406e565b6001600160401b03821660009081526010602090815260408083206001600160a01b038516845290915290205460ff1692915050565b3480156107ee57600080fd5b5061081c6107fd366004613dcd565b6001600160a01b03166000908152600d602052604090205461ffff1690565b60405161ffff909116815260200161050b565b34801561083b57600080fd5b506105d161084a366004614129565b611449565b34801561085b57600080fd5b5061053461086a36600461418b565b611562565b34801561087b57600080fd5b50600754610534565b34801561089057600080fd5b506105d161089f3660046141b9565b611595565b3480156108b057600080fd5b506105346108bf366004613dcd565b6115c8565b3480156108d057600080fd5b506105d16108df3660046141d7565b611627565b3480156108f057600080fd5b506105d16108ff3660046141fd565b61165a565b34801561091057600080fd5b5061053461091f366004614265565b6116a6565b34801561093057600080fd5b506104ff61093f366004613dcd565b6116dc565b34801561095057600080fd5b506109596116f0565b60405161050b919061427e565b34801561097257600080fd5b506105d1610981366004613fe4565b61179f565b34801561099257600080fd5b506105346109a13660046142cb565b6117d2565b3480156109b257600080fd5b506104ff6109c1366004614051565b6001600160401b031660009081526003602052604090205460ff1690565b3480156109eb57600080fd5b506105346103e881565b348015610a0157600080fd5b50610a15610a1036600461418b565b6117fa565b6040805192835260208301919091520161050b565b6105d1610a383660046140f8565b61181c565b348015610a4957600080fd5b50610534610a583660046142cb565b6118c5565b348015610a6957600080fd5b50610534610a78366004613dcd565b6001600160a01b031660009081526015602052604090205490565b348015610a9f57600080fd5b506105d1611904565b348015610ab457600080fd5b50610534610ac3366004613dcd565b611918565b348015610ad457600080fd5b506105d1610ae3366004613dcd565b611934565b348015610af457600080fd5b506105d1610b03366004614265565b61195e565b348015610b1457600080fd5b506006546001600160401b03165b6040516001600160401b03909116815260200161050b565b348015610b4657600080fd5b506105d1610b55366004614265565b61196b565b348015610b6657600080fd5b50610534680410d586a20a4c000081565b348015610b8357600080fd5b506105d1610b923660046142f7565b611a10565b348015610ba357600080fd5b506104ff610bb2366004614051565b6001600160401b031660009081526004602052604090205460ff1690565b348015610bdc57600080fd5b506000546001600160a01b0316610714565b348015610bfa57600080fd5b506105346804563918244f40000081565b348015610c1757600080fd5b50610534610c26366004614331565b611a6f565b348015610c3757600080fd5b5061081c61012c81565b348015610c4d57600080fd5b506104ff610c5c366004613dcd565b6001600160a01b031660009081526005602052604090205460ff1690565b348015610c8657600080fd5b50600c546001600160a01b0316610714565b348015610ca457600080fd5b506105d1610cb3366004614373565b611af9565b348015610cc457600080fd5b50610534610cd33660046143a7565b611b0d565b348015610ce457600080fd5b506105346753444835ec58000081565b348015610d0057600080fd5b5061053468056bc75e2d6310000081565b348015610d1d57600080fd5b506105d1610d2c3660046143d7565b611b4b565b348015610d3d57600080fd5b50610534670de0b6b3a764000081565b348015610d5957600080fd5b50610534610d68366004614407565b611bee565b348015610d7957600080fd5b50610d82611d06565b60405161050b9190614487565b348015610d9b57600080fd5b507f0000000000000000000000000000000000000000000000000000000000000000610714565b348015610dce57600080fd5b50610714610ddd366004614265565b6000908152600960205260409020546001600160a01b031690565b348015610e0457600080fd5b506105d1610e13366004613dcd565b611d98565b348015610e2457600080fd5b506105d1610e3336600461449a565b611dd1565b348015610e4457600080fd5b50610534610e533660046143a7565b611e17565b348015610e6457600080fd5b506105346803860e639d8064000081565b348015610e8157600080fd5b50600b546001600160a01b0316610714565b348015610e9f57600080fd5b50610eb3610eae366004614051565b611e29565b60405161050b9190614527565b348015610ecc57600080fd5b506105d1610edb366004614265565b611f1a565b348015610eec57600080fd5b50610534610efb366004613dcd565b611f27565b348015610f0c57600080fd5b50610534610f1b366004614407565b611fef565b348015610f2c57600080fd5b506105d1610f3b36600461406e565b61216e565b348015610f4c57600080fd5b50601654610534565b348015610f6157600080fd5b50610534610f7036600461418b565b61226f565b348015610f8157600080fd5b506008546001600160401b0316610b22565b348015610f9f57600080fd5b506105d1610fae366004614568565b6122e4565b348015610fbf57600080fd5b50610a15610fce366004613dcd565b612329565b6105d1610fe1366004614407565b612347565b348015610ff257600080fd5b506105d1611001366004613dcd565b612378565b34801561101257600080fd5b50610534611021366004613dcd565b6123b3565b34801561103257600080fd5b506105346110413660046145ec565b6123ec565b34801561105257600080fd5b50610534611061366004613dcd565b61254c565b6000670de0b6b3a764000061107a83611282565b1192915050565b60008160000361109457506000196110ab565b6110a883836804563918244f4000006118c5565b90505b92915050565b60006001600160e01b031982166385572ffb60e01b14806110ab57506001600160e01b031982166301ffc9a760e01b1492915050565b336001600160a01b037f000000000000000000000000000000000000000000000000000000000000000016146111305760405163c6829f8360e01b815260040160405180910390fd5b61113b8383836125a3565b60405183907f85e1543bf2f84fe80c6badbce3648c8539ad1df4d2b3d822938ca0538be727e690600090a2505050565b6001600160a01b0381166000908152600e6020908152604080832054600d9092528220546111a09161091f9161ffff16614673565b6110ab906803860e639d80640000613da5565b6111bb61269d565b6001600160401b0382166000908152600360205260409020805460ff19168215801591909117909155611201576111fc60016001600160401b0384166126ca565b505050565b6111fc60016001600160401b0384166126d6565b5050565b600c5433906001600160a01b0316811461124657604051631eb49d6d60e11b815260040160405180910390fd5b6112518484846126e2565b50505050565b61125f61269d565b6008805467ffffffffffffffff19166001600160401b0392909216919091179055565b60008061128e8361116b565b905060008061129c85612329565b915091506112ab8282856117d2565b95945050505050565b6112bc61269d565b600b80546001600160a01b0319166001600160a01b0392909216919091179055565b600b5433906001600160a01b0316811461130b57604051631eb49d6d60e11b815260040160405180910390fd5b61131785858585612771565b5050505050565b6006546000906001600160401b0380871691160361133e57506000611441565b604080513360208201526001600160a01b03851681830152606080820185905282518083039091018152608082019092526000916113819183919060a00161469c565b604051602081830303815290604052905060006113a38683600060165461281d565b6040516320487ded60e01b81529091507f0000000000000000000000000000000000000000000000000000000000000000906000906001600160a01b038316906320487ded906113f9908c9087906004016146d3565b602060405180830381865afa158015611416573d6000803e3d6000fd5b505050506040513d601f19601f8201168201806040525081019061143a91906147ac565b9450505050505b949350505050565b61145161269d565b6001600160401b03841660009081526010602090815260408083206001600160a01b038716845290915290205460ff16156114ac578383604051635b764d5760e01b81526004016114a39291906147c5565b60405180910390fd5b6001600160401b03841660008181526010602090815260408083206001600160a01b03881684528252808320805460ff1916600117905592825260119052206114f5908461293f565b506001600160401b039390931660008181526013602090815260408083206001600160a01b0396871680855290835281842080546001600160a01b03191696909716959095179095559181526012825283812092815291905220805460ff191660ff909216919091179055565b6001600160a01b03821660009081526014602090815260408083206001600160401b038516845290915290205492915050565b61159d61269d565b6001600160a01b03919091166000908152600560205260409020805460ff1916911515919091179055565b60006001816115d682612954565b905060005b8161ffff1681101561161f5760006115f3848361295e565b90506115ff8682611562565b6116099086613da5565b9450508080611617906147e7565b9150506115db565b505050919050565b61162f61269d565b6008805463ffffffff909216600160401b026bffffffff000000000000000019909216919091179055565b600c5433906001600160a01b0316811461168757604051631eb49d6d60e11b815260040160405180910390fd5b6116928686866126e2565b61169e8383888761296a565b505050505050565b60006103e8826116c86803860e639d80640000680410d586a20a4c0000614673565b6116d29190614800565b6110ab919061482d565b6000670de0b6b3a764000061107a83611918565b606060006116fe6001612954565b90506000816001600160401b0381111561171a5761171a613e36565b604051908082528060200260200182016040528015611743578160200160208202803683370190505b50905060005b828110156117985761175c60018261295e565b82828151811061176e5761176e614841565b6001600160401b039092166020928302919091019091015280611790816147e7565b915050611749565b5092915050565b6117a761269d565b6001600160401b03919091166000908152600460205260409020805460ff1916911515919091179055565b6000826000036117e557506000196117f3565b6117f08484846118c5565b90505b9392505050565b600080611807848461226f565b91506118138484611562565b90509250929050565b6001600160401b03841660009081526010602090815260408083206001600160a01b03861684529091529020548490839060ff1661187157818160405163b34279bf60e01b81526004016114a39291906147c5565b826000036118925760405163532c969f60e11b815260040160405180910390fd5b33600090815260156020526040812080543492906118b1908490613da5565b9091555061169e9050868686863380612acd565b600068056bc75e2d631000006118db8386614800565b6118e5919061482d565b9050826118fa670de0b6b3a764000083614800565b6117f0919061482d565b61190c61269d565b6119166000612c5c565b565b600080600061192684612329565b915091506114418282611081565b61193c61269d565b600c80546001600160a01b0319166001600160a01b0392909216919091179055565b61196661269d565b600755565b336000908152601560205260409020548111156119bf5760405162461bcd60e51b81526020600482015260126024820152714e6f7420656e6f756768206665652070617960701b60448201526064016114a3565b33600090815260156020526040812080548392906119de908490614673565b9091555050604051339082156108fc029083906000818181858888f19350505050158015611215573d6000803e3d6000fd5b336001600160a01b037f00000000000000000000000000000000000000000000000000000000000000001614611a5b576040516335fdcccd60e21b81523360048201526024016114a3565b611a6c611a678261490d565b612cac565b50565b600080611a7b83611f27565b6001600160401b03851660009081526012602081815260408084206001600160a01b038916855290915290912054919250611ab99160ff16906149b9565b611ac490600a614ab6565b611ad36402540be40083614800565b611ae5670de0b6b3a764000088614800565b611aef919061482d565b6112ab919061482d565b611b0161269d565b600a6112158282614b45565b6001600160a01b038084166000908152600f602090815260408083206001600160401b03871684528252808320938516835292905220549392505050565b611b5361269d565b6001600160401b03831660009081526010602090815260408083206001600160a01b03861684529091529020548390839060ff16611ba857818160405163b34279bf60e01b81526004016114a39291906147c5565b50506001600160401b039290921660009081526013602090815260408083206001600160a01b039485168452909152902080546001600160a01b03191691909216179055565b6006546000906001600160401b03808616911603611c0e575060006117f3565b6040805133602082015280820184905281518082038301815260608201909252600091611c41916001919060800161469c565b60405160208183030381529060405290506000611c638583600060165461281d565b6040516320487ded60e01b81529091507f0000000000000000000000000000000000000000000000000000000000000000906000906001600160a01b038316906320487ded90611cb9908b9087906004016146d3565b602060405180830381865afa158015611cd6573d6000803e3d6000fd5b505050506040513d601f19601f82011682018060405250810190611cfa91906147ac565b98975050505050505050565b6060600a8054611d1590614ac5565b80601f0160208091040260200160405190810160405280929190818152602001828054611d4190614ac5565b8015611d8e5780601f10611d6357610100808354040283529160200191611d8e565b820191906000526020600020905b815481529060010190602001808311611d7157829003601f168201915b5050505050905090565b611da061269d565b600680546001600160a01b03909216600160401b0268010000000000000000600160e01b0319909216919091179055565b600c5433906001600160a01b03168114611dfe57604051631eb49d6d60e11b815260040160405180910390fd5b611e0d88888888888888612f1e565b5050505050505050565b60006117f08383610f1b878787611b0d565b6001600160401b038116600090815260116020526040812060609190611e4e90612954565b6001600160401b03811115611e6557611e65613e36565b604051908082528060200260200182016040528015611e8e578160200160208202803683370190505b50905060005b6001600160401b0384166000908152601160205260409020611eb590612954565b811015611798576001600160401b0384166000908152601160205260409020611ede908261295e565b828281518110611ef057611ef0614841565b6001600160a01b039092166020928302919091019091015280611f12816147e7565b915050611e94565b611f2261269d565b601655565b600080601381611f3860018261295e565b6001600160401b03168152602080820192909252604090810160009081206001600160a01b03878116835293528181205491516315d0e4b560e11b81529190921660048201819052925073ae71d3da9d435da6a44a48ea28df9e75fcbaeafa90632ba1c96a9060240160a060405180830381865af4158015611fbe573d6000803e3d6000fd5b505050506040513d601f19601f82011682018060405250810190611fe29190614c1e565b5091979650505050505050565b6001600160401b03831660009081526010602090815260408083206001600160a01b03861684529091528120548490849060ff1661204457818160405163b34279bf60e01b81526004016114a39291906147c5565b6001600160401b03861660009081526013602090815260408083206001600160a01b03898116855292528083205490516315d0e4b560e11b8152911660048201819052919073ae71d3da9d435da6a44a48ea28df9e75fcbaeafa90632ba1c96a9060240160a060405180830381865af41580156120c5573d6000803e3d6000fd5b505050506040513d601f19601f820116820180604052508101906120e99190614c1e565b5050506001600160401b038a1660009081526012602081815260408084206001600160a01b038e16855290915290912054919350670de0b6b3a764000092506121359160ff16906149b9565b61214090600a614ab6565b876121506402540be40085614800565b61215a9190614800565b6121649190614800565b611cfa919061482d565b61217661269d565b6001600160401b03821660009081526010602090815260408083206001600160a01b03851684529091529020548290829060ff166121cb57818160405163b34279bf60e01b81526004016114a39291906147c5565b6001600160401b03841660008181526010602090815260408083206001600160a01b03881684528252808320805460ff1916905592825260119052206122119084612ffd565b5050506001600160401b0390911660008181526013602090815260408083206001600160a01b0390951680845294825280832080546001600160a01b031916905592825260128152828220938252929092529020805460ff19169055565b6001600160401b03811660009081526011602052604081208161229182612954565b905060005b8161ffff168110156122db5760006122ae848361295e565b90506122bb878783611e17565b6122c59086613da5565b94505080806122d3906147e7565b915050612296565b50505092915050565b600b5433906001600160a01b0316811461231157604051631eb49d6d60e11b815260040160405180910390fd5b61231d88888888612771565b611e0d84848a8561296a565b6000806123358361254c565b9150612340836115c8565b9050915091565b3360009081526015602052604081208054349290612366908490613da5565b909155506111fc90508383338461296a565b61238061269d565b6001600160a01b0381166123aa57604051631e4fbdf760e01b8152600060048201526024016114a3565b611a6c81612c5c565b6000806123bf8361116b565b905060006123cc8461254c565b905068056bc75e2d631000006123e28383614800565b611441919061482d565b600061242f6040805160e0810190915280600081526020016000815260200160008152602001606081526020016060815260200160608152602001606081525090565b6124cc600a805461243f90614ac5565b80601f016020809104026020016040519081016040528092919081815260200182805461246b90614ac5565b80156124b85780601f1061248d576101008083540402835291602001916124b8565b820191906000526020600020905b81548152906001019060200180831161249b57829003601f168201915b50505050508261301290919063ffffffff16565b82156124e6576124e66124df8486614c6e565b829061301f565b6125166124f282613049565b6008546007546001600160401b03821691600160401b900463ffffffff1690613321565b600081815260096020526040902080546001600160a01b0319166001600160a01b03979097169690961790955550929392505050565b600060018161255a82612954565b905060005b8161ffff1681101561161f576000612577848361295e565b9050612583868261226f565b61258d9086613da5565b945050808061259b906147e7565b91505061255f565b60008381526009602052604081205483516001600160a01b039091169190156125d2576125cf84614ce1565b90505b61ffff811615612604576001600160a01b0382166000908152600d60205260409020805461ffff191661ffff83161790555b6001600160a01b0382166000908152600d602052604081205461ffff16900361264d576001600160a01b0382166000908152600d60205260409020805461ffff191661012c1790555b8061ffff1685836001600160a01b03167f403bdb10ed8dc83f54ba14d3110235f19bfe4f00550a91eda66c81c9c47c9efe878760405161268e929190614d05565b60405180910390a45050505050565b6000546001600160a01b031633146119165760405163118cdaa760e01b81523360048201526024016114a3565b60006110a883836133f3565b60006110a88383613442565b6001600160a01b03831660009081526014602090815260408083206001600160401b03861684529091528120805483929061271e908490614673565b90915550506040518181526001600160401b038316906001600160a01b038516907ffc9381a94a7dfa48ef1e0101b90a651637dc1dde1dfc766ae2e94db9193814489060200160405180910390a3505050565b6001600160a01b038085166000908152600f602090815260408083206001600160401b03881684528252808320938616835292905290812080548392906127b9908490613da5565b92505081905550816001600160a01b0316836001600160401b0316856001600160a01b03167fa61751a812949bef861391695e3c0ff1e7d4a33cb2afd76e49d1ce2feef41bc98460405161280f91815260200190565b60405180910390a450505050565b6128586040518060a0016040528060608152602001606081526020016060815260200160006001600160a01b03168152602001606081525090565b6040805160a081019091526001600160a01b03861660c08201528060e0810160408051808303601f1901815291815290825260208083018890528151600080825291810183529290910191906128d0565b60408051808201909152600080825260208201528152602001906001900390816128a95790505b508152602001846001600160a01b0316815260200161293460405180602001604052808681525060408051915160248084019190915281518084039091018152604490920190526020810180516001600160e01b03166397a657c960e01b17905290565b905295945050505050565b60006110a8836001600160a01b0384166133f3565b60006110ab825490565b60006110a88383613535565b8060000361298b5760405163532c969f60e11b815260040160405180910390fd5b6001600160a01b03821660009081526014602090815260408083206001600160401b0388168452909152812080548392906129c7908490613da5565b909155506129d6905082611066565b6129f357604051635296a20960e11b815260040160405180910390fd5b6006546001600160401b03808616911603612a6f576040516340c10f1960e01b81526001600160a01b038381166004830152602482018390528416906340c10f1990604401600060405180830381600087803b158015612a5257600080fd5b505af1158015612a66573d6000803e3d6000fd5b50505050611251565b604080516001600160a01b038416602082015280820183905281518082038301815260608201909252600091612aab916001919060800161469c565b604051602081830303815290604052905061169e83868660016000878761355f565b82600003612aee5760405163532c969f60e11b815260040160405180910390fd5b6001600160a01b038083166000908152600f602090815260408083206001600160401b038b168452825280832093881683529290529081208054859290612b36908490614673565b90915550612b459050826116dc565b612b625760405163317416e560e11b815260040160405180910390fd5b6006546001600160401b03808816911603612bee576040516302e80dad60e61b81526001600160a01b038381166004830152828116602483015285811660448301526064820185905286169063ba036b4090608401600060405180830381600087803b158015612bd157600080fd5b505af1158015612be5573d6000803e3d6000fd5b5050505061169e565b604080516001600160a01b038481166020830152838116828401528616606082015260808082018690528251808303909101815260a08201909252600091612c3b9183919060c00161469c565b6040516020818303038152906040529050611e0d828888600089898761355f565b600080546001600160a01b038381166001600160a01b0319831681178455604051919092169283917f8be0079c531659141344cd1fd0a4f28419497f9722a3daafe3b4186f6b6457e09190a35050565b80602001518160400151806020019051810190612cc99190614d2a565b6001600160401b03821660009081526004602052604090205460ff16612d0d576040516326bfad9160e21b81526001600160401b03831660048201526024016114a3565b6001600160a01b03811660009081526005602052604090205460ff16612d51576040516338c08ef960e11b81526001600160a01b03821660048201526024016114a3565b6000808460600151806020019051810190612d6c9190614d47565b602087015191935091506000836004811115612d8a57612d8a614686565b03612dc257600080600084806020019051810190612da89190614dd7565b925092509250612dba83858484612771565b50505061169e565b6001836004811115612dd657612dd6614686565b03612e085760008083806020019051810190612df29190614e1a565b91509150612e018284836126e2565b505061169e565b6002836004811115612e1c57612e1c614686565b03612e6d5760008060008060008087806020019051810190612e3e9190614e48565b955095509550955095509550612e5686888787612771565b612e628383888461296a565b50505050505061169e565b6003836004811115612e8157612e81614686565b03612ebf5760008060008085806020019051810190612ea09190614ebb565b9350935093509350612eb38486856126e2565b612be58282868661296a565b6004836004811115612ed357612ed3614686565b0361169e5760008060008060008087806020019051810190612ef59190614f05565b955095509550955095509550612f1087878787878787612f1e565b505050505050505050505050565b6000612f2987611918565b9050670de0b6b3a7640000811115612f535760405162c8277d60e31b815260040160405180910390fd5b612f5e8789856126e2565b600068056bc75e2d63100000612f7c6753444835ec58000086614800565b612f86919061482d565b612f909085613da5565b6001600160a01b03808a166000908152600f602090815260408083206001600160401b038c1684528252808320938c1683529290529081205491925090612fe190612fdc848a8c611a6f565b613865565b9050612ff187878a848d89612acd565b50505050505050505050565b60006110a8836001600160a01b038416613442565b611215826000808461387c565b80516000036130415760405163fe936cb760e01b815260040160405180910390fd5b60a090910152565b606060006130586101006138fa565b90506130916040518060400160405280600c81526020016b31b7b232a637b1b0ba34b7b760a11b8152508261391b90919063ffffffff16565b82516130af9060028111156130a8576130a8614686565b8290613934565b6040805180820190915260088152676c616e677561676560c01b60208201526130d990829061391b565b60408301516130f09080156130a8576130a8614686565b604080518082019091526006815265736f7572636560d01b602082015261311890829061391b565b606083015161312890829061391b565b60a083015151156131bc576040805180820190915260048152636172677360e01b602082015261315990829061391b565b6131628161396d565b60005b8360a00151518110156131b2576131a28460a00151828151811061318b5761318b614841565b60200260200101518361391b90919063ffffffff16565b6131ab816147e7565b9050613165565b506131bc81613991565b60808301515115613280576000836020015160028111156131df576131df614686565b036131fd5760405163a80d31f760e01b815260040160405180910390fd5b60408051808201909152600f81526e39b2b1b932ba39a637b1b0ba34b7b760891b602082015261322e90829061391b565b613247836020015160028111156130a8576130a8614686565b6040805180820190915260078152667365637265747360c81b602082015261327090829061391b565b60808301516132809082906139af565b60c083015151156133195760408051808201909152600981526862797465734172677360b81b60208201526132b690829061391b565b6132bf8161396d565b60005b8360c001515181101561330f576132ff8460c0015182815181106132e8576132e8614841565b6020026020010151836139af90919063ffffffff16565b613308816147e7565b90506132c2565b5061331981613991565b515192915050565b6000807f00000000000000000000000000000000000000000000000000000000000000006001600160a01b031663461d27628688600188886040518663ffffffff1660e01b8152600401613379959493929190614f82565b6020604051808303816000875af1158015613398573d6000803e3d6000fd5b505050506040513d601f19601f820116820180604052508101906133bc91906147ac565b60405190915081907f1131472297a800fee664d1d89cfa8f7676ff07189ecc53f80bbb5f4969099db890600090a295945050505050565b600081815260018301602052604081205461343a575081546001818101845560008481526020808220909301849055845484825282860190935260409020919091556110ab565b5060006110ab565b6000818152600183016020526040812054801561352b576000613466600183614673565b855490915060009061347a90600190614673565b90508082146134df57600086600001828154811061349a5761349a614841565b90600052602060002001549050808760000184815481106134bd576134bd614841565b6000918252602080832090910192909255918252600188019052604090208390555b85548690806134f0576134f0614fcb565b6001900381819060005260206000200160009055905585600101600086815260200190815260200160002060009055600193505050506110ab565b60009150506110ab565b600082600001828154811061354c5761354c614841565b9060005260206000200154905092915050565b6001600160401b038616600090815260036020526040812054879060ff166135a557604051630a503cdb60e01b81526001600160401b03821660048201526024016114a3565b866001600160a01b0381166135cd5760405163502ffa3f60e11b815260040160405180910390fd5b60006135de8986600060165461281d565b6040516320487ded60e01b81529091507f0000000000000000000000000000000000000000000000000000000000000000906000906001600160a01b038316906320487ded90613634908f9087906004016146d3565b602060405180830381865afa158015613651573d6000803e3d6000fd5b505050506040513d601f19601f8201168201806040525081019061367591906147ac565b6001600160a01b038e166000908152601560205260409020549091508111156136d6576001600160a01b038d166000908152601560205260409081902054905163d44547cd60e01b81526004810191909152602481018290526044016114a3565b6001600160a01b038d16600090815260156020526040812080548392906136fe908490614673565b92505081905550816001600160a01b03166396f4e9f9828e866040518463ffffffff1660e01b81526004016137349291906146d3565b60206040518083038185885af1158015613752573d6000803e3d6000fd5b50505050506040513d601f19601f8201168201806040525081019061377791906147ac565b955060008a600181111561378d5761378d614686565b036137ee57886001600160a01b03168c6001600160401b03168e6001600160a01b03167fa4a5196b9663ea82d0c7a1554b5b9cb8d7aa3bf0a56e43a0abd169e47cb817ef8b6040516137e191815260200190565b60405180910390a4613855565b60018a600181111561380257613802614686565b03613855578b6001600160401b03168d6001600160a01b03167fbee4f42ec19ab812d347ca0b11a0e518e9f4d1c671f7f4df8b093f2bd5dea0df8a60405161384c91815260200190565b60405180910390a35b5050505050979650505050505050565b60008183111561387557816110a8565b5090919050565b805160000361389e576040516322ce3edd60e01b815260040160405180910390fd5b838360028111156138b1576138b1614686565b908160028111156138c4576138c4614686565b905250604084018280156138da576138da614686565b908180156138ea576138ea614686565b9052506060909301929092525050565b613902613d5a565b805161390e90836139bc565b5060006020820152919050565b6139288260038351613a33565b81516111fc9082613b4c565b81516139419060c2613b6d565b50611215828260405160200161395991815260200190565b6040516020818303038152906040526139af565b613978816004613bd6565b60018160200181815161398b9190613da5565b90525050565b61399c816007613bd6565b60018160200181815161398b9190614673565b6139288260028351613a33565b6040805180820190915260608152600060208201526139dc602083614fe1565b15613a04576139ec602083614fe1565b6139f7906020614673565b613a019083613da5565b91505b602080840183905260405180855260008152908184010181811015613a2857600080fd5b604052509192915050565b6017816001600160401b031611613a595782516112519060e0600585901b168317613b6d565b60ff816001600160401b031611613a99578251613a81906018611fe0600586901b1617613b6d565b508251611251906001600160401b0383166001613bed565b61ffff816001600160401b031611613ada578251613ac2906019611fe0600586901b1617613b6d565b508251611251906001600160401b0383166002613bed565b63ffffffff816001600160401b031611613b1d578251613b0590601a611fe0600586901b1617613b6d565b508251611251906001600160401b0383166004613bed565b8251613b3490601b611fe0600586901b1617613b6d565b508251611251906001600160401b0383166008613bed565b6040805180820190915260608152600060208201526110a883838451613c72565b6040805180820190915260608152600060208201528251516000613b92826001613da5565b905084602001518210613bb357613bb385613bae836002614800565b613d43565b8451602083820101858153508051821115613bcc578181525b5093949350505050565b81516111fc90601f611fe0600585901b1617613b6d565b6040805180820190915260608152600060208201528351516000613c118285613da5565b90508560200151811115613c2e57613c2e86613bae836002614800565b60006001613c3e86610100614ff5565b613c489190614673565b90508651828101878319825116178152508051831115613c66578281525b50959695505050505050565b6040805180820190915260608152600060208201528251821115613c9557600080fd5b8351516000613ca48483613da5565b90508560200151811115613cc157613cc186613bae836002614800565b855180518382016020019160009180851115613cdb578482525b505050602086015b60208610613d1b5780518252613cfa602083613da5565b9150613d07602082613da5565b9050613d14602087614673565b9550613ce3565b51815160001960208890036101000a0190811690199190911617905250849150509392505050565b8151613d4f83836139bc565b506112518382613b4c565b6040518060400160405280613d82604051806040016040528060608152602001600081525090565b8152602001600081525090565b634e487b7160e01b600052601160045260246000fd5b808201808211156110ab576110ab613d8f565b6001600160a01b0381168114611a6c57600080fd5b600060208284031215613ddf57600080fd5b81356117f381613db8565b60008060408385031215613dfd57600080fd5b50508035926020909101359150565b600060208284031215613e1e57600080fd5b81356001600160e01b0319811681146117f357600080fd5b634e487b7160e01b600052604160045260246000fd5b604080519081016001600160401b0381118282101715613e6e57613e6e613e36565b60405290565b60405160a081016001600160401b0381118282101715613e6e57613e6e613e36565b604051601f8201601f191681016001600160401b0381118282101715613ebe57613ebe613e36565b604052919050565b60006001600160401b03821115613edf57613edf613e36565b50601f01601f191660200190565b600082601f830112613efe57600080fd5b8135613f11613f0c82613ec6565b613e96565b818152846020838601011115613f2657600080fd5b816020850160208301376000918101602001919091529392505050565b600080600060608486031215613f5857600080fd5b8335925060208401356001600160401b0380821115613f7657600080fd5b613f8287838801613eed565b93506040860135915080821115613f9857600080fd5b50613fa586828701613eed565b9150509250925092565b6001600160401b0381168114611a6c57600080fd5b8035613fcf81613faf565b919050565b80358015158114613fcf57600080fd5b60008060408385031215613ff757600080fd5b823561400281613faf565b915061181360208401613fd4565b60008060006060848603121561402557600080fd5b833561403081613db8565b9250602084013561404081613faf565b929592945050506040919091013590565b60006020828403121561406357600080fd5b81356117f381613faf565b6000806040838503121561408157600080fd5b823561408c81613faf565b9150602083013561409c81613db8565b809150509250929050565b600080600080608085870312156140bd57600080fd5b84356140c881613db8565b935060208501356140d881613faf565b925060408501356140e881613db8565b9396929550929360600135925050565b6000806000806080858703121561410e57600080fd5b843561411981613faf565b935060208501356140d881613db8565b6000806000806080858703121561413f57600080fd5b843561414a81613faf565b9350602085013561415a81613db8565b9250604085013561416a81613db8565b9150606085013560ff8116811461418057600080fd5b939692955090935050565b6000806040838503121561419e57600080fd5b82356141a981613db8565b9150602083013561409c81613faf565b600080604083850312156141cc57600080fd5b823561400281613db8565b6000602082840312156141e957600080fd5b813563ffffffff811681146117f357600080fd5b600080600080600060a0868803121561421557600080fd5b853561422081613db8565b9450602086013561423081613faf565b935060408601359250606086013561424781613faf565b9150608086013561425781613db8565b809150509295509295909350565b60006020828403121561427757600080fd5b5035919050565b6020808252825182820181905260009190848201906040850190845b818110156142bf5783516001600160401b03168352928401929184019160010161429a565b50909695505050505050565b6000806000606084860312156142e057600080fd5b505081359360208301359350604090920135919050565b60006020828403121561430957600080fd5b81356001600160401b0381111561431f57600080fd5b820160a081850312156117f357600080fd5b60008060006060848603121561434657600080fd5b83359250602084013561435881613faf565b9150604084013561436881613db8565b809150509250925092565b60006020828403121561438557600080fd5b81356001600160401b0381111561439b57600080fd5b61144184828501613eed565b6000806000606084860312156143bc57600080fd5b83356143c781613db8565b9250602084013561435881613faf565b6000806000606084860312156143ec57600080fd5b83356143f781613faf565b9250602084013561435881613db8565b60008060006060848603121561441c57600080fd5b833561442781613faf565b9250602084013561404081613db8565b60005b8381101561445257818101518382015260200161443a565b50506000910152565b60008151808452614473816020860160208601614437565b601f01601f19169290920160200192915050565b6020815260006110a8602083018461445b565b600080600080600080600060e0888a0312156144b557600080fd5b87356144c081613faf565b965060208801356144d081613db8565b955060408801356144e081613db8565b945060608801356144f081613faf565b9350608088013561450081613db8565b925060a0880135915060c088013561451781613db8565b8091505092959891949750929550565b6020808252825182820181905260009190848201906040850190845b818110156142bf5783516001600160a01b031683529284019291840191600101614543565b600080600080600080600060e0888a03121561458357600080fd5b873561458e81613db8565b9650602088013561459e81613faf565b955060408801356145ae81613db8565b94506060880135935060808801356145c581613faf565b925060a08801356145d581613db8565b8092505060c0880135905092959891949750929550565b60008060006040848603121561460157600080fd5b833561460c81613db8565b925060208401356001600160401b038082111561462857600080fd5b818601915086601f83011261463c57600080fd5b81358181111561464b57600080fd5b8760208260051b850101111561466057600080fd5b6020830194508093505050509250925092565b818103818111156110ab576110ab613d8f565b634e487b7160e01b600052602160045260246000fd5b6000600284106146bc57634e487b7160e01b600052602160045260246000fd5b838252604060208301526117f0604083018461445b565b600060406001600160401b038516835260208181850152845160a0838601526146ff60e086018261445b565b905081860151603f198087840301606088015261471c838361445b565b88860151888203830160808a01528051808352908601945060009350908501905b8084101561476f57845180516001600160a01b031683528601518683015293850193600193909301929086019061473d565b5060608901516001600160a01b031660a08901526080890151888203830160c08a0152955061479e818761445b565b9a9950505050505050505050565b6000602082840312156147be57600080fd5b5051919050565b6001600160401b039290921682526001600160a01b0316602082015260400190565b6000600182016147f9576147f9613d8f565b5060010190565b80820281158282048414176110ab576110ab613d8f565b634e487b7160e01b600052601260045260246000fd5b60008261483c5761483c614817565b500490565b634e487b7160e01b600052603260045260246000fd5b60006001600160401b0382111561487057614870613e36565b5060051b60200190565b600082601f83011261488b57600080fd5b8135602061489b613f0c83614857565b82815260069290921b840181019181810190868411156148ba57600080fd5b8286015b8481101561490257604081890312156148d75760008081fd5b6148df613e4c565b81356148ea81613db8565b815281850135858201528352918301916040016148be565b509695505050505050565b600060a0823603121561491f57600080fd5b614927613e74565b8235815261493760208401613fc4565b602082015260408301356001600160401b038082111561495657600080fd5b61496236838701613eed565b6040840152606085013591508082111561497b57600080fd5b61498736838701613eed565b606084015260808501359150808211156149a057600080fd5b506149ad3682860161487a565b60808301525092915050565b60ff82811682821603908111156110ab576110ab613d8f565b600181815b80851115614a0d5781600019048211156149f3576149f3613d8f565b80851615614a0057918102915b93841c93908002906149d7565b509250929050565b600082614a24575060016110ab565b81614a31575060006110ab565b8160018114614a475760028114614a5157614a6d565b60019150506110ab565b60ff841115614a6257614a62613d8f565b50506001821b6110ab565b5060208310610133831016604e8410600b8410161715614a90575081810a6110ab565b614a9a83836149d2565b8060001904821115614aae57614aae613d8f565b029392505050565b60006110a860ff841683614a15565b600181811c90821680614ad957607f821691505b602082108103614af957634e487b7160e01b600052602260045260246000fd5b50919050565b601f8211156111fc57600081815260208120601f850160051c81016020861015614b265750805b601f850160051c820191505b8181101561169e57828155600101614b32565b81516001600160401b03811115614b5e57614b5e613e36565b614b7281614b6c8454614ac5565b84614aff565b602080601f831160018114614ba75760008415614b8f5750858301515b600019600386901b1c1916600185901b17855561169e565b600085815260208120601f198616915b82811015614bd657888601518255948401946001909101908401614bb7565b5085821015614bf45787850151600019600388901b60f8161c191681555b5050505050600190811b01905550565b805169ffffffffffffffffffff81168114613fcf57600080fd5b600080600080600060a08688031215614c3657600080fd5b614c3f86614c04565b9450602086015193506040860151925060608601519150614c6260808701614c04565b90509295509295909350565b6000614c7c613f0c84614857565b80848252602080830192508560051b850136811115614c9a57600080fd5b855b81811015614cd55780356001600160401b03811115614cbb5760008081fd5b614cc736828a01613eed565b865250938201938201614c9c565b50919695505050505050565b80516020808301519190811015614af95760001960209190910360031b1b16919050565b604081526000614d18604083018561445b565b82810360208401526112ab818561445b565b600060208284031215614d3c57600080fd5b81516117f381613db8565b60008060408385031215614d5a57600080fd5b825160058110614d6957600080fd5b60208401519092506001600160401b03811115614d8557600080fd5b8301601f81018513614d9657600080fd5b8051614da4613f0c82613ec6565b818152866020838501011115614db957600080fd5b614dca826020830160208601614437565b8093505050509250929050565b600080600060608486031215614dec57600080fd5b8351614df781613db8565b6020850151909350614e0881613db8565b80925050604084015190509250925092565b60008060408385031215614e2d57600080fd5b8251614e3881613db8565b6020939093015192949293505050565b60008060008060008060c08789031215614e6157600080fd5b8651614e6c81613db8565b6020880151909650614e7d81613db8565b604088015160608901519196509450614e9581613faf565b6080880151909350614ea681613db8565b8092505060a087015190509295509295509295565b60008060008060808587031215614ed157600080fd5b8451614edc81613db8565b602086015160408701519195509350614ef481613faf565b606086015190925061418081613db8565b60008060008060008060c08789031215614f1e57600080fd5b8651614f2981613db8565b6020880151909650614f3a81613db8565b6040880151909550614f4b81613faf565b6060880151909450614f5c81613db8565b608088015160a08901519194509250614f7481613db8565b809150509295509295509295565b6001600160401b038616815260a060208201526000614fa460a083018761445b565b61ffff9590951660408301525063ffffffff92909216606083015260809091015292915050565b634e487b7160e01b600052603160045260246000fd5b600082614ff057614ff0614817565b500690565b60006110a88383614a1556fea26469706673582212205d7c82471b6a9870dc8c823c4f70c7f1563fe39f09f97584463c914b16b6c12964736f6c63430008150033636f6e73742075736572203d20617267735b305d3b636f6e737420617069526573706f6e7365203d2061776169742046756e6374696f6e732e6d616b654874747052657175657374287b75726c3a206068747470733a2f2f626574612e6372656470726f746f636f6c2e636f6d2f6170692f73636f72652f616464726573732f247b757365727d2f602c686561646572733a207b27417574686f72697a6174696f6e273a2060546f6b656e2033373335343038333664313239366638633466373932656164653738646464383961623133643230607d2c7d293b69662028617069526573706f6e73652e6572726f7229207b7468726f77204572726f72282752657175657374206661696c656427293b7d636f6e7374207b2064617461207d203d20617069526573706f6e73653b72657475726e2046756e6374696f6e732e656e636f646555696e7432353628646174612e76616c7565293b000000000000000000000000000000000000000000000000ccf0a31a221f3c9b000000000000000000000000f694e193200268f9a4868e4aa017a0118c9a8177000000000000000000000000a9d587a00a31a52ed70d6026794a8fc5e2f5dcb066756e2d6176616c616e6368652d66756a692d31000000000000000000000000",
        "nonce": "0x23f",
        "accessList": []
      },
      "additionalContracts": [],
      "isFixedGasLimit": false
    },
    {
      "hash": "0x2f612266893be7b2457e611d837f3b2e5c88d48710a495e510587da85e4cc285",
      "transactionType": "CALL",
      "contractName": "MainRouter",
      "contractAddress": "0x86d76dcA88B435E9342F0f8A05523BE89c819F3E",
      "function": "setSubscriptionID(uint64)",
      "arguments": [
        "8690"
      ],
      "transaction": {
        "type": "0x02",
        "from": "0x7af234d569ab6360693806d7e7f439ec2114f93c",
        "to": "0x86d76dca88b435e9342f0f8a05523be89c819f3e",
        "gas": "0xa48a",
        "value": "0x0",
        "data": "0x1edebf0b00000000000000000000000000000000000000000000000000000000000021f2",
        "nonce": "0x240",
        "accessList": []
      },
      "additionalContracts": [],
      "isFixedGasLimit": false
    },
    {
      "hash": "0x3a694b6f4cef380712507be9e2fed45ba2b559665d6560bf53ec4c258d6fe8e6",
      "transactionType": "CREATE",
      "contractName": "TokenConfig",
      "contractAddress": "0x92D0A9f7D9C5c120A4D3095CC7f674B71A9181e9",
      "function": null,
      "arguments": null,
      "transaction": {
        "type": "0x02",
        "from": "0x7af234d569ab6360693806d7e7f439ec2114f93c",
        "gas": "0x1d829e",
        "value": "0x0",
        "data": "0x6080604052600c805462ff00ff19166201000117905534801561002157600080fd5b50611984806100316000396000f3fe608060405234801561001057600080fd5b506004361061054b5760003560e01c8063a08fc322116102ca578063c95a43691161018d578063de88e915116100f4578063f8ccbf47116100ad578063f9b001e011610087578063f9b001e014610c2c578063fa0caf1714610617578063fc2a53d514610c47578063fcb9a2181461076857600080fd5b8063f8ccbf4714610c01578063f8cda8ca14610c24578063f8f095dc1461058857600080fd5b8063de88e91514610ba9578063ead9528414610bb8578063ef597f74146105fc578063f15650c814610bc1578063f1b09fc114610bdc578063f8caf99b14610be657600080fd5b8063d806acb711610146578063d806acb714610b22578063d863fcc8146105e1578063d8dab1f714610b3d578063d8ea3d2414610b58578063da960d2714610b73578063dce6075f14610b8e57600080fd5b8063c95a4369146105e1578063cafa15c714610834578063cb62cfbd14610ab6578063cdf686df14610ad1578063d043bf9c14610aec578063d7a6ead814610b0757600080fd5b8063afed4d8c11610231578063c0406226116101ea578063c040622614610a8e578063c132cda714610a96578063c1cbe74914610aa5578063c1e5163514610aad578063c43b6b001461084f578063c714ff6f1461083457600080fd5b8063afed4d8c14610a26578063b5b3774f14610a35578063b6085d1c14610a3d578063be00843014610a58578063bf1344db14610588578063bfaa4aad14610a7357600080fd5b8063abe914dd11610283578063abe914dd146109b2578063ac659d1d146105e1578063acec0a69146109cd578063acfaf34d146109f9578063ad9f2db214610a03578063ae02670914610a0b57600080fd5b8063a08fc32214610957578063a25b465e14610972578063a25bc4791461098d578063a882305214610768578063a95d644314610834578063aa8269201461099757600080fd5b806350e2f236116104125780636c619a08116103795780638f3f1561116103325780638f3f1561146105fc57806393ea3c791461076857806394c965451461084f5780639acd72a1146109065780639d2ab4f914610921578063a06e2b1f1461093c57600080fd5b80636c619a081461064d5780636ece0949146108b5578063709e1ba6146108d0578063811db762146108eb57806386862bc514610588578063888117e21461061757600080fd5b806360f0ff8e116103cb57806360f0ff8e14610834578063616258fc1461084f57806363c7b8001461084f578063669ac34f1461086a57806367fee2811461088557806368567e711461089a57600080fd5b806350e2f236146107925780635556b32a146107ad578063573864c4146107c85780635878d5fe146107e35780635932b5db146107fe5780635ba1a94e1461081957600080fd5b80632b4c59db116104b65780633cad3fc11161046f5780633cad3fc1146107175780633e49331d1461073257806343ac40df1461074d57806349377bd7146107685780634c47f188146107835780634d1b22f81461061757600080fd5b80632b4c59db146105fc5780632b7076a01461069c5780632bfcce4e146106b75780632f3a3fa6146106d257806331e8ae5d146106ed57806334f594361461070857600080fd5b80630ff859d6116105085780630ff859d61461061757806313643d0a1461063257806315d992061461064d57806316b3d6fa146106685780631fab59fb1461067757806329da731e1461068157600080fd5b806301f9c1fd14610550578063033130f21461058857806304c4a7b3146105a3578063062dbe8d146105c65780630c4c526c146105e15780630f011ded146105fc575b600080fd5b61056b733b21674254b6020d360b4ed4517cbe59b10dbae381565b6040516001600160a01b0390911681526020015b60405180910390f35b61056b7332b8f75d2ac926a0a906f24df3e8fe2ba17bd80a81565b6105ad62aa36a781565b60405167ffffffffffffffff909116815260200161057f565b61056b739306da79208982a13c8a73736071fe62fc1a310e81565b61056b73dff5ba9fcff83ce455e45de7572b6259b0e7d7de81565b61056b73f6905f1e4ad86f8c3a1ebfca3e04a9e4d2addd0d81565b61056b7375b86d7b224fd88f785bb5fac5e261d9efde304781565b61056b73114a20a10b43d4115e5aeef7345a1a71d2a60c5781565b61056b737898accc83587c3c55116c5230c17a6cd9c71bad81565b6105ad678f90b8876dee653881565b6105ad62066eee81565b61056b7390f7279a2b221b46c3e03377c3e9f8ee0fd6a27781565b61056b73b3718e52781f9fc1c0b72a2966c2616e6d962a1c81565b61056b73f975abb3e230c3a089ba330249c782c1d0f5170881565b61056b733001d62ebc86ab3a4ef91afed766bb70182e251c81565b61056b73b6d37130dfe32681f9a97d18f7bb475167344bed81565b6105ad67e1f4423f1bf587cd81565b61056b7334c4c526902d88a3aa98db8a9b802603eb1e347081565b61056b737b219f57a8e9c7303204af681e9fa69d17ef626f81565b61056b736d9729c62efbaf4ec65920a8f26ad9bc9533d2f581565b61056b739a24bd7833859d2364ead5a4af4b16799693df1281565b6105ad67ccf0a31a221f3c9b81565b61056b730bf3de8c5d3e8a2b34d2beeb17abfcebaf363a5981565b61056b730804bfec3ef24bc6ca0eb399d108cc0313d86d9c81565b61056b7331cf013a08c6ac228c94551d535d5bafe19c602a81565b61056b73aca1ea8547e247a3125da273b16c17badc4f081281565b61056b734ff263b5e695dc0f6b555c5118c3e426ea4783e181565b61056b739124d3b5dfd072bb2d6cf3e3a59430d2a5d8a55d81565b61056b73e257e2a67407144c918acad5e11c2582f77c0b1a81565b61056b73244ec7f5753b2fc10d0c2baab1ab55850e73a3ab81565b61056b73a2696cd53f0e8c8fdc2d2fd842c7670ba066279481565b61088d610c4f565b60405161057f91906118be565b61056b73f7be8e30e35bf739e9e63b5d334d91de34cefa8d81565b61056b73d28f8454873ceb4de41d537257044510c3a1d61681565b61056b73b2080ce3e7daa9ed149bb78e6bb244ba0f5cac0a81565b61056b7373744f28ff269c5a4f8f3a825da5028724c6890e81565b61056b73df7980dafd8844a0693c46202e0d34c2014773f381565b61056b73fb4230a5dff059091fe22a4be5cb1a4e5468adea81565b61056b732a9c5afb0d0e4bab2bcdae109ec4b0c4be15a16581565b61056b736cc55345982d82e3e6dc704a64cdbd58a6421b7a81565b61056b73dd36fb413b4470ab5ce67f975c6a2b192e6f84ba81565b6105ad62aa37dc81565b61056b739c32fcb86bf0f4a1a8921a9fe46de3198bb884b281565b61056b7365ae0010421814b1303778bc82a599f63028d89981565b6109eb7366756e2d6176616c616e6368652d66756a692d3160601b81565b60405190815260200161057f565b6105ad6201388281565b61088d610e21565b61056b735498bb86bc934c8d34fda08e81d444153d0d06ad81565b6105ad67de41ba4fc9d91ad981565b61088d610ff3565b61056b73b0a1491a0e429ce4a74c98b87172eb0a886cc90681565b61056b73620476fe1bc36a37530b416b7d658024d5966b0881565b61056b7386d67c3d38d2bcee722e601025c25a575021c6ea81565b61088d6111c5565b6105ad6748810ec3e431431f81565b61088d611246565b6105ad6121f281565b61056b738d554e76becf75012c9168fbc7df2da0ccfa4b4e81565b61056b739022604de68edfbd041c3eecdda9e3f28ac365fa81565b61056b73492e85cd024a271c4f19d8b7e9050ef2bbfedcca81565b61056b7351353bfb9fb8bae6d70b896401937c64e96bacb981565b61056b7331a4ae750c0e8d477dd39af3662f93e69021aa5081565b61056b73f694e193200268f9a4868e4aa017a0118c9a817781565b61056b73d3b06cebf099ce7da4accf578aaebfdbd6e88a9381565b61056b730f38096f37b067be83ae62437e9b9408375669bb81565b61056b73c2a0142c8211aab44277a6cf8a22ff40245c920c81565b6105ad67304611b6affba76a81565b6105ad61a86981565b61056b73280c615c8218535f5378e1f423cfc673405f672d81565b6105ad62014a3481565b61056b73a9d587a00a31a52ed70d6026794a8fc5e2f5dcb081565b600c54610c149062010000900460ff1681565b604051901515815260200161057f565b61088d611418565b61056b734aa3b1639d45cb98a67790b8509e47bd7aa16d2a81565b61088d6115ea565b610c576117bc565b604080516060808201835267e1f4423f1bf587cd80835273f6905f1e4ad86f8c3a1ebfca3e04a9e4d2addd0d6020808501919091527331cf013a08c6ac228c94551d535d5bafe19c602a8486015292855283518083018552818152739a24bd7833859d2364ead5a4af4b16799693df12818501527386d67c3d38d2bcee722e601025c25a575021c6ea81860152858401528351808301855281815273244ec7f5753b2fc10d0c2baab1ab55850e73a3ab818501527334c4c526902d88a3aa98db8a9b802603eb1e347081860152858501528351808301855281815273e257e2a67407144c918acad5e11c2582f77c0b1a81850152735498bb86bc934c8d34fda08e81d444153d0d06ad8186015285830152835180830185528181527332b8f75d2ac926a0a906f24df3e8fe2ba17bd80a81850152737b219f57a8e9c7303204af681e9fa69d17ef626f8186015260808601528351808301855281815273dff5ba9fcff83ce455e45de7572b6259b0e7d7de81850152737898accc83587c3c55116c5230c17a6cd9c71bad81860181905260a0870191909152845192830185529082527375b86d7b224fd88f785bb5fac5e261d9efde3047928201929092529182015260c082015290565b610e296117bc565b6040805160608082018352678f90b8876dee653880835273f6905f1e4ad86f8c3a1ebfca3e04a9e4d2addd0d6020808501919091527331cf013a08c6ac228c94551d535d5bafe19c602a8486015292855283518083018552818152739a24bd7833859d2364ead5a4af4b16799693df12818501527386d67c3d38d2bcee722e601025c25a575021c6ea81860152858401528351808301855281815273244ec7f5753b2fc10d0c2baab1ab55850e73a3ab818501527334c4c526902d88a3aa98db8a9b802603eb1e347081860152858501528351808301855281815273e257e2a67407144c918acad5e11c2582f77c0b1a81850152735498bb86bc934c8d34fda08e81d444153d0d06ad8186015285830152835180830185528181527332b8f75d2ac926a0a906f24df3e8fe2ba17bd80a81850152737b219f57a8e9c7303204af681e9fa69d17ef626f8186015260808601528351808301855281815273dff5ba9fcff83ce455e45de7572b6259b0e7d7de81850152737898accc83587c3c55116c5230c17a6cd9c71bad81860181905260a0870191909152845192830185529082527375b86d7b224fd88f785bb5fac5e261d9efde3047928201929092529182015260c082015290565b610ffb6117bc565b604080516060808201835267de41ba4fc9d91ad9808352734aa3b1639d45cb98a67790b8509e47bd7aa16d2a6020808501919091527331cf013a08c6ac228c94551d535d5bafe19c602a8486015292855283518083018552818152739124d3b5dfd072bb2d6cf3e3a59430d2a5d8a55d818501527386d67c3d38d2bcee722e601025c25a575021c6ea8186015285840152835180830185528181527331a4ae750c0e8d477dd39af3662f93e69021aa50818501527334c4c526902d88a3aa98db8a9b802603eb1e347081860152858501528351808301855281815273dd36fb413b4470ab5ce67f975c6a2b192e6f84ba81850152735498bb86bc934c8d34fda08e81d444153d0d06ad81860152858301528351808301855281815273492e85cd024a271c4f19d8b7e9050ef2bbfedcca81850152737b219f57a8e9c7303204af681e9fa69d17ef626f818601526080860152835180830185528181527365ae0010421814b1303778bc82a599f63028d89981850152737898accc83587c3c55116c5230c17a6cd9c71bad81860181905260a08701919091528451928301855290825273b3718e52781f9fc1c0b72a2966c2616e6d962a1c928201929092529182015260c082015290565b6111cd6117bc565b61a8681946016111e4576111df6115ea565b905090565b62aa36a61946016111f7576111df610ff3565b62066eed19460161120a576111df611418565b6201388119460161121d576111df610c4f565b62014a33194601611230576111df610e21565b62aa37db194601611243576111df611246565b90565b61124e6117bc565b60408051606080820183526748810ec3e431431f80835273f6905f1e4ad86f8c3a1ebfca3e04a9e4d2addd0d6020808501919091527331cf013a08c6ac228c94551d535d5bafe19c602a8486015292855283518083018552818152739a24bd7833859d2364ead5a4af4b16799693df12818501527386d67c3d38d2bcee722e601025c25a575021c6ea81860152858401528351808301855281815273244ec7f5753b2fc10d0c2baab1ab55850e73a3ab818501527334c4c526902d88a3aa98db8a9b802603eb1e347081860152858501528351808301855281815273e257e2a67407144c918acad5e11c2582f77c0b1a81850152735498bb86bc934c8d34fda08e81d444153d0d06ad8186015285830152835180830185528181527332b8f75d2ac926a0a906f24df3e8fe2ba17bd80a81850152737b219f57a8e9c7303204af681e9fa69d17ef626f8186015260808601528351808301855281815273dff5ba9fcff83ce455e45de7572b6259b0e7d7de81850152737898accc83587c3c55116c5230c17a6cd9c71bad81860181905260a0870191909152845192830185529082527375b86d7b224fd88f785bb5fac5e261d9efde3047928201929092529182015260c082015290565b6114206117bc565b604080516060808201835267304611b6affba76a80835273f6905f1e4ad86f8c3a1ebfca3e04a9e4d2addd0d6020808501919091527331cf013a08c6ac228c94551d535d5bafe19c602a8486015292855283518083018552818152739a24bd7833859d2364ead5a4af4b16799693df12818501527386d67c3d38d2bcee722e601025c25a575021c6ea81860152858401528351808301855281815273244ec7f5753b2fc10d0c2baab1ab55850e73a3ab818501527334c4c526902d88a3aa98db8a9b802603eb1e347081860152858501528351808301855281815273e257e2a67407144c918acad5e11c2582f77c0b1a81850152735498bb86bc934c8d34fda08e81d444153d0d06ad8186015285830152835180830185528181527332b8f75d2ac926a0a906f24df3e8fe2ba17bd80a81850152737b219f57a8e9c7303204af681e9fa69d17ef626f8186015260808601528351808301855281815273dff5ba9fcff83ce455e45de7572b6259b0e7d7de81850152737898accc83587c3c55116c5230c17a6cd9c71bad81860181905260a0870191909152845192830185529082527375b86d7b224fd88f785bb5fac5e261d9efde3047928201929092529182015260c082015290565b6115f26117bc565b604080516060808201835267ccf0a31a221f3c9b808352730804bfec3ef24bc6ca0eb399d108cc0313d86d9c6020808501919091527331cf013a08c6ac228c94551d535d5bafe19c602a84860152928552835180830185528181527351353bfb9fb8bae6d70b896401937c64e96bacb9818501527386d67c3d38d2bcee722e601025c25a575021c6ea818601528584015283518083018552818152733001d62ebc86ab3a4ef91afed766bb70182e251c818501527334c4c526902d88a3aa98db8a9b802603eb1e347081860152858501528351808301855281815273d28f8454873ceb4de41d537257044510c3a1d61681850152735498bb86bc934c8d34fda08e81d444153d0d06ad818601528583015283518083018552818152736cc55345982d82e3e6dc704a64cdbd58a6421b7a81850152737b219f57a8e9c7303204af681e9fa69d17ef626f8186015260808601528351808301855281815273620476fe1bc36a37530b416b7d658024d5966b0881850152737898accc83587c3c55116c5230c17a6cd9c71bad81860181905260a08701919091528451928301855290825273aca1ea8547e247a3125da273b16c17badc4f0812928201929092529182015260c082015290565b6040805161014081018252600060e08201818152610100830182905261012083018290528252825160608082018552828252602080830184905282860184905280850192909252845180820186528381528083018490528086018490528486015284518082018652838152808301849052808601849052818501528451808201865283815280830184905280860184905260808501528451808201865283815280830184905280860184905260a0850152845190810185528281529081018290529283015260c081019190915290565b805167ffffffffffffffff1682526020808201516001600160a01b039081169184019190915260409182015116910152565b60006102a0820190506118d282845161188c565b60208301516118e4606084018261188c565b5060408301516118f760c084018261188c565b50606083015161190b61012084018261188c565b50608083015161191f61018084018261188c565b5060a08301516119336101e084018261188c565b5060c083015161194761024084018261188c565b509291505056fea26469706673582212207df9090c431088f7e020c911cbcf104a23056699348b88720f016f7e790e482864736f6c63430008150033",
        "nonce": "0x241",
        "accessList": []
      },
      "additionalContracts": [],
      "isFixedGasLimit": false
    },
    {
      "hash": "0x9f815e95b96e8b5a38b7f6c43eb2f589729e3990250a0cfa337a986f2002fc1b",
      "transactionType": "CALL",
      "contractName": "MainRouter",
      "contractAddress": "0x86d76dcA88B435E9342F0f8A05523BE89c819F3E",
      "function": "addAllowedToken(uint64,address,address,uint8)",
      "arguments": [
        "14767482510784806043",
        "0x0804BfEC3ef24bc6CA0eb399D108CC0313d86d9c",
        "0x31CF013A08c6Ac228C94551d535d5BAfE19c602a",
        "18"
      ],
      "transaction": {
        "type": "0x02",
        "from": "0x7af234d569ab6360693806d7e7f439ec2114f93c",
        "to": "0x86d76dca88b435e9342f0f8a05523be89c819f3e",
        "gas": "0x35a59",
        "value": "0x0",
        "data": "0x40bf5da4000000000000000000000000000000000000000000000000ccf0a31a221f3c9b0000000000000000000000000804bfec3ef24bc6ca0eb399d108cc0313d86d9c00000000000000000000000031cf013a08c6ac228c94551d535d5bafe19c602a0000000000000000000000000000000000000000000000000000000000000012",
        "nonce": "0x242",
        "accessList": []
      },
      "additionalContracts": [],
      "isFixedGasLimit": false
    },
    {
      "hash": "0x66715892afefc91144d29b492bfa31292fd0e582f812fcf6819bf96698c37187",
      "transactionType": "CALL",
      "contractName": "MainRouter",
      "contractAddress": "0x86d76dcA88B435E9342F0f8A05523BE89c819F3E",
      "function": "addAllowedToken(uint64,address,address,uint8)",
      "arguments": [
        "14767482510784806043",
        "0x51353BFb9fB8baE6d70b896401937C64E96BAcB9",
        "0x86d67c3D38D2bCeE722E601025C25a575021c6EA",
        "18"
      ],
      "transaction": {
        "type": "0x02",
        "from": "0x7af234d569ab6360693806d7e7f439ec2114f93c",
        "to": "0x86d76dca88b435e9342f0f8a05523be89c819f3e",
        "gas": "0x32b27",
        "value": "0x0",
        "data": "0x40bf5da4000000000000000000000000000000000000000000000000ccf0a31a221f3c9b00000000000000000000000051353bfb9fb8bae6d70b896401937c64e96bacb900000000000000000000000086d67c3d38d2bcee722e601025c25a575021c6ea0000000000000000000000000000000000000000000000000000000000000012",
        "nonce": "0x243",
        "accessList": []
      },
      "additionalContracts": [],
      "isFixedGasLimit": false
    },
    {
      "hash": "0x3893cee72c4e17f02a848a462215639097f74303c80e6d6e32b0576b4d2e8ef3",
      "transactionType": "CALL",
      "contractName": "MainRouter",
      "contractAddress": "0x86d76dcA88B435E9342F0f8A05523BE89c819F3E",
      "function": "addAllowedToken(uint64,address,address,uint8)",
      "arguments": [
        "14767482510784806043",
        "0x3001d62eBc86ab3A4eF91aFed766BB70182e251c",
        "0x34C4c526902d88a3Aa98DB8a9b802603EB1E3470",
        "18"
      ],
      "transaction": {
        "type": "0x02",
        "from": "0x7af234d569ab6360693806d7e7f439ec2114f93c",
        "to": "0x86d76dca88b435e9342f0f8a05523be89c819f3e",
        "gas": "0x32b27",
        "value": "0x0",
        "data": "0x40bf5da4000000000000000000000000000000000000000000000000ccf0a31a221f3c9b0000000000000000000000003001d62ebc86ab3a4ef91afed766bb70182e251c00000000000000000000000034c4c526902d88a3aa98db8a9b802603eb1e34700000000000000000000000000000000000000000000000000000000000000012",
        "nonce": "0x244",
        "accessList": []
      },
      "additionalContracts": [],
      "isFixedGasLimit": false
    },
    {
      "hash": "0xaab8e3223adc9f9297938ae14bf01f67d2431fb8351b6c1102ac173d6290c586",
      "transactionType": "CALL",
      "contractName": "MainRouter",
      "contractAddress": "0x86d76dcA88B435E9342F0f8A05523BE89c819F3E",
      "function": "addAllowedToken(uint64,address,address,uint8)",
      "arguments": [
        "14767482510784806043",
        "0xD28f8454873CEb4de41d537257044510c3A1d616",
        "0x5498BB86BC934c8D34FDA08E81D444153d0D06aD",
        "18"
      ],
      "transaction": {
        "type": "0x02",
        "from": "0x7af234d569ab6360693806d7e7f439ec2114f93c",
        "to": "0x86d76dca88b435e9342f0f8a05523be89c819f3e",
        "gas": "0x32b27",
        "value": "0x0",
        "data": "0x40bf5da4000000000000000000000000000000000000000000000000ccf0a31a221f3c9b000000000000000000000000d28f8454873ceb4de41d537257044510c3a1d6160000000000000000000000005498bb86bc934c8d34fda08e81d444153d0d06ad0000000000000000000000000000000000000000000000000000000000000012",
        "nonce": "0x245",
        "accessList": []
      },
      "additionalContracts": [],
      "isFixedGasLimit": false
    },
    {
      "hash": "0xf39cd4e7de3cea5e2632f26e877699d93158357d5a6718db64ed8a24b4a78c3d",
      "transactionType": "CALL",
      "contractName": "MainRouter",
      "contractAddress": "0x86d76dcA88B435E9342F0f8A05523BE89c819F3E",
      "function": "addAllowedToken(uint64,address,address,uint8)",
      "arguments": [
        "14767482510784806043",
        "0x6cC55345982d82e3E6dC704a64cdbD58a6421b7A",
        "0x7b219F57a8e9C7303204Af681e9fA69d17ef626f",
        "18"
      ],
      "transaction": {
        "type": "0x02",
        "from": "0x7af234d569ab6360693806d7e7f439ec2114f93c",
        "to": "0x86d76dca88b435e9342f0f8a05523be89c819f3e",
        "gas": "0x32b27",
        "value": "0x0",
        "data": "0x40bf5da4000000000000000000000000000000000000000000000000ccf0a31a221f3c9b0000000000000000000000006cc55345982d82e3e6dc704a64cdbd58a6421b7a0000000000000000000000007b219f57a8e9c7303204af681e9fa69d17ef626f0000000000000000000000000000000000000000000000000000000000000012",
        "nonce": "0x246",
        "accessList": []
      },
      "additionalContracts": [],
      "isFixedGasLimit": false
    },
    {
      "hash": "0xdaacddea73860b7f815e4bbf58a83a0adb27f89add15075490ca5d7611b9af71",
      "transactionType": "CALL",
      "contractName": "MainRouter",
      "contractAddress": "0x86d76dcA88B435E9342F0f8A05523BE89c819F3E",
      "function": "addAllowedToken(uint64,address,address,uint8)",
      "arguments": [
        "14767482510784806043",
        "0x620476fe1Bc36a37530b416B7d658024D5966b08",
        "0x7898AcCC83587C3C55116c5230C17a6Cd9C71bad",
        "6"
      ],
      "transaction": {
        "type": "0x02",
        "from": "0x7af234d569ab6360693806d7e7f439ec2114f93c",
        "to": "0x86d76dca88b435e9342f0f8a05523be89c819f3e",
        "gas": "0x32b27",
        "value": "0x0",
        "data": "0x40bf5da4000000000000000000000000000000000000000000000000ccf0a31a221f3c9b000000000000000000000000620476fe1bc36a37530b416b7d658024d5966b080000000000000000000000007898accc83587c3c55116c5230c17a6cd9c71bad0000000000000000000000000000000000000000000000000000000000000006",
        "nonce": "0x247",
        "accessList": []
      },
      "additionalContracts": [],
      "isFixedGasLimit": false
    },
    {
      "hash": "0x11b16228d80603e31cc58d4f214b9f14bfc79723a89c0b6b77efc69eed98b368",
      "transactionType": "CALL",
      "contractName": "MainRouter",
      "contractAddress": "0x86d76dcA88B435E9342F0f8A05523BE89c819F3E",
      "function": "addAllowedToken(uint64,address,address,uint8)",
      "arguments": [
        "14767482510784806043",
        "0xAcA1eA8547E247a3125Da273b16C17Badc4f0812",
        "0x7898AcCC83587C3C55116c5230C17a6Cd9C71bad",
        "6"
      ],
      "transaction": {
        "type": "0x02",
        "from": "0x7af234d569ab6360693806d7e7f439ec2114f93c",
        "to": "0x86d76dca88b435e9342f0f8a05523be89c819f3e",
        "gas": "0x32b27",
        "value": "0x0",
        "data": "0x40bf5da4000000000000000000000000000000000000000000000000ccf0a31a221f3c9b000000000000000000000000aca1ea8547e247a3125da273b16c17badc4f08120000000000000000000000007898accc83587c3c55116c5230c17a6cd9c71bad0000000000000000000000000000000000000000000000000000000000000006",
        "nonce": "0x248",
        "accessList": []
      },
      "additionalContracts": [],
      "isFixedGasLimit": false
    },
    {
      "hash": "0xc818a80ea749ba00bb38539a5878ba0e7918b277431d39679bab1291a729bc9e",
      "transactionType": "CALL",
      "contractName": "MainRouter",
      "contractAddress": "0x86d76dcA88B435E9342F0f8A05523BE89c819F3E",
      "function": "addAllowedToken(uint64,address,address,uint8)",
      "arguments": [
        "16015286601757825753",
        "0x4aa3B1639d45Cb98a67790b8509E47bD7aa16D2A",
        "0x31CF013A08c6Ac228C94551d535d5BAfE19c602a",
        "18"
      ],
      "transaction": {
        "type": "0x02",
        "from": "0x7af234d569ab6360693806d7e7f439ec2114f93c",
        "to": "0x86d76dca88b435e9342f0f8a05523be89c819f3e",
        "gas": "0x35a59",
        "value": "0x0",
        "data": "0x40bf5da4000000000000000000000000000000000000000000000000de41ba4fc9d91ad90000000000000000000000004aa3b1639d45cb98a67790b8509e47bd7aa16d2a00000000000000000000000031cf013a08c6ac228c94551d535d5bafe19c602a0000000000000000000000000000000000000000000000000000000000000012",
        "nonce": "0x249",
        "accessList": []
      },
      "additionalContracts": [],
      "isFixedGasLimit": false
    },
    {
      "hash": "0x480a16b9c0ae57987e388ce22c1b2f615598dd455fbc48ee7657f5e0c9795757",
      "transactionType": "CALL",
      "contractName": "MainRouter",
      "contractAddress": "0x86d76dcA88B435E9342F0f8A05523BE89c819F3E",
      "function": "addAllowedToken(uint64,address,address,uint8)",
      "arguments": [
        "16015286601757825753",
        "0x9124d3b5DfD072bB2d6cf3e3A59430d2a5D8A55D",
        "0x86d67c3D38D2bCeE722E601025C25a575021c6EA",
        "18"
      ],
      "transaction": {
        "type": "0x02",
        "from": "0x7af234d569ab6360693806d7e7f439ec2114f93c",
        "to": "0x86d76dca88b435e9342f0f8a05523be89c819f3e",
        "gas": "0x32b27",
        "value": "0x0",
        "data": "0x40bf5da4000000000000000000000000000000000000000000000000de41ba4fc9d91ad90000000000000000000000009124d3b5dfd072bb2d6cf3e3a59430d2a5d8a55d00000000000000000000000086d67c3d38d2bcee722e601025c25a575021c6ea0000000000000000000000000000000000000000000000000000000000000012",
        "nonce": "0x24a",
        "accessList": []
      },
      "additionalContracts": [],
      "isFixedGasLimit": false
    },
    {
      "hash": "0x2c391b46258ab3295e9a7dcaf50f2c06f43c1e7496b03a6c575be29c2c940a93",
      "transactionType": "CALL",
      "contractName": "MainRouter",
      "contractAddress": "0x86d76dcA88B435E9342F0f8A05523BE89c819F3E",
      "function": "addAllowedToken(uint64,address,address,uint8)",
      "arguments": [
        "16015286601757825753",
        "0x31A4Ae750C0e8d477Dd39AF3662F93e69021AA50",
        "0x34C4c526902d88a3Aa98DB8a9b802603EB1E3470",
        "18"
      ],
      "transaction": {
        "type": "0x02",
        "from": "0x7af234d569ab6360693806d7e7f439ec2114f93c",
        "to": "0x86d76dca88b435e9342f0f8a05523be89c819f3e",
        "gas": "0x32b27",
        "value": "0x0",
        "data": "0x40bf5da4000000000000000000000000000000000000000000000000de41ba4fc9d91ad900000000000000000000000031a4ae750c0e8d477dd39af3662f93e69021aa5000000000000000000000000034c4c526902d88a3aa98db8a9b802603eb1e34700000000000000000000000000000000000000000000000000000000000000012",
        "nonce": "0x24b",
        "accessList": []
      },
      "additionalContracts": [],
      "isFixedGasLimit": false
    },
    {
      "hash": "0xf87865007d821c9487ddf95efdfc1fe6b476dcb78e420966416d044f820bed8e",
      "transactionType": "CALL",
      "contractName": "MainRouter",
      "contractAddress": "0x86d76dcA88B435E9342F0f8A05523BE89c819F3E",
      "function": "addAllowedToken(uint64,address,address,uint8)",
      "arguments": [
        "16015286601757825753",
        "0xdd36FB413B4470ab5CE67F975c6A2B192e6F84ba",
        "0x5498BB86BC934c8D34FDA08E81D444153d0D06aD",
        "18"
      ],
      "transaction": {
        "type": "0x02",
        "from": "0x7af234d569ab6360693806d7e7f439ec2114f93c",
        "to": "0x86d76dca88b435e9342f0f8a05523be89c819f3e",
        "gas": "0x32b27",
        "value": "0x0",
        "data": "0x40bf5da4000000000000000000000000000000000000000000000000de41ba4fc9d91ad9000000000000000000000000dd36fb413b4470ab5ce67f975c6a2b192e6f84ba0000000000000000000000005498bb86bc934c8d34fda08e81d444153d0d06ad0000000000000000000000000000000000000000000000000000000000000012",
        "nonce": "0x24c",
        "accessList": []
      },
      "additionalContracts": [],
      "isFixedGasLimit": false
    },
    {
      "hash": "0x92fd6d52f98efd435bb80a535d47482872285b05658e3a905f5d4f44f23c292b",
      "transactionType": "CALL",
      "contractName": "MainRouter",
      "contractAddress": "0x86d76dcA88B435E9342F0f8A05523BE89c819F3E",
      "function": "addAllowedToken(uint64,address,address,uint8)",
      "arguments": [
        "16015286601757825753",
        "0x492E85cD024A271C4F19d8B7E9050Ef2bbFeDcCA",
        "0x7b219F57a8e9C7303204Af681e9fA69d17ef626f",
        "18"
      ],
      "transaction": {
        "type": "0x02",
        "from": "0x7af234d569ab6360693806d7e7f439ec2114f93c",
        "to": "0x86d76dca88b435e9342f0f8a05523be89c819f3e",
        "gas": "0x32b27",
        "value": "0x0",
        "data": "0x40bf5da4000000000000000000000000000000000000000000000000de41ba4fc9d91ad9000000000000000000000000492e85cd024a271c4f19d8b7e9050ef2bbfedcca0000000000000000000000007b219f57a8e9c7303204af681e9fa69d17ef626f0000000000000000000000000000000000000000000000000000000000000012",
        "nonce": "0x24d",
        "accessList": []
      },
      "additionalContracts": [],
      "isFixedGasLimit": false
    },
    {
      "hash": "0xe3738fb9e769740171e65368f67a537bb5c4b75f3a5e38cef2d3a298e3acab33",
      "transactionType": "CALL",
      "contractName": "MainRouter",
      "contractAddress": "0x86d76dcA88B435E9342F0f8A05523BE89c819F3E",
      "function": "addAllowedToken(uint64,address,address,uint8)",
      "arguments": [
        "16015286601757825753",
        "0x65Ae0010421814B1303778Bc82a599f63028d899",
        "0x7898AcCC83587C3C55116c5230C17a6Cd9C71bad",
        "6"
      ],
      "transaction": {
        "type": "0x02",
        "from": "0x7af234d569ab6360693806d7e7f439ec2114f93c",
        "to": "0x86d76dca88b435e9342f0f8a05523be89c819f3e",
        "gas": "0x2fe06",
        "value": "0x0",
        "data": "0x40bf5da4000000000000000000000000000000000000000000000000de41ba4fc9d91ad900000000000000000000000065ae0010421814b1303778bc82a599f63028d8990000000000000000000000007898accc83587c3c55116c5230c17a6cd9c71bad0000000000000000000000000000000000000000000000000000000000000006",
        "nonce": "0x24e",
        "accessList": []
      },
      "additionalContracts": [],
      "isFixedGasLimit": false
    },
    {
      "hash": "0x3e653f88bc22102e23a6db2e85c06e1dc12483702e5fc36ed6666b6bf86b404b",
      "transactionType": "CALL",
      "contractName": "MainRouter",
      "contractAddress": "0x86d76dcA88B435E9342F0f8A05523BE89c819F3E",
      "function": "addAllowedToken(uint64,address,address,uint8)",
      "arguments": [
        "16015286601757825753",
        "0xB3718E52781F9Fc1C0b72A2966C2616E6d962a1C",
        "0x7898AcCC83587C3C55116c5230C17a6Cd9C71bad",
        "6"
      ],
      "transaction": {
        "type": "0x02",
        "from": "0x7af234d569ab6360693806d7e7f439ec2114f93c",
        "to": "0x86d76dca88b435e9342f0f8a05523be89c819f3e",
        "gas": "0x32b27",
        "value": "0x0",
        "data": "0x40bf5da4000000000000000000000000000000000000000000000000de41ba4fc9d91ad9000000000000000000000000b3718e52781f9fc1c0b72a2966c2616e6d962a1c0000000000000000000000007898accc83587c3c55116c5230c17a6cd9c71bad0000000000000000000000000000000000000000000000000000000000000006",
        "nonce": "0x24f",
        "accessList": []
      },
      "additionalContracts": [],
      "isFixedGasLimit": false
    },
    {
      "hash": "0xbe5ef83109baa098db9c8769804cbf60339bcf7f2cb633b999c61e0ba090d02c",
      "transactionType": "CALL",
      "contractName": "MainRouter",
      "contractAddress": "0x86d76dcA88B435E9342F0f8A05523BE89c819F3E",
      "function": "addAllowedToken(uint64,address,address,uint8)",
      "arguments": [
        "16281711391670634445",
        "0xF6905F1E4ad86f8C3a1Ebfca3E04a9e4d2adDD0D",
        "0x31CF013A08c6Ac228C94551d535d5BAfE19c602a",
        "18"
      ],
      "transaction": {
        "type": "0x02",
        "from": "0x7af234d569ab6360693806d7e7f439ec2114f93c",
        "to": "0x86d76dca88b435e9342f0f8a05523be89c819f3e",
        "gas": "0x35a59",
        "value": "0x0",
        "data": "0x40bf5da4000000000000000000000000000000000000000000000000e1f4423f1bf587cd000000000000000000000000f6905f1e4ad86f8c3a1ebfca3e04a9e4d2addd0d00000000000000000000000031cf013a08c6ac228c94551d535d5bafe19c602a0000000000000000000000000000000000000000000000000000000000000012",
        "nonce": "0x250",
        "accessList": []
      },
      "additionalContracts": [],
      "isFixedGasLimit": false
    },
    {
      "hash": "0x66660e109e070951c6d96112d8127afad8fcb943180f2716c7de9d30eb3d1ee4",
      "transactionType": "CALL",
      "contractName": "MainRouter",
      "contractAddress": "0x86d76dcA88B435E9342F0f8A05523BE89c819F3E",
      "function": "addAllowedToken(uint64,address,address,uint8)",
      "arguments": [
        "16281711391670634445",
        "0x9a24BD7833859d2364EaD5A4aF4b16799693DF12",
        "0x86d67c3D38D2bCeE722E601025C25a575021c6EA",
        "18"
      ],
      "transaction": {
        "type": "0x02",
        "from": "0x7af234d569ab6360693806d7e7f439ec2114f93c",
        "to": "0x86d76dca88b435e9342f0f8a05523be89c819f3e",
        "gas": "0x32b27",
        "value": "0x0",
        "data": "0x40bf5da4000000000000000000000000000000000000000000000000e1f4423f1bf587cd0000000000000000000000009a24bd7833859d2364ead5a4af4b16799693df1200000000000000000000000086d67c3d38d2bcee722e601025c25a575021c6ea0000000000000000000000000000000000000000000000000000000000000012",
        "nonce": "0x251",
        "accessList": []
      },
      "additionalContracts": [],
      "isFixedGasLimit": false
    },
    {
      "hash": "0x80c54e31ddabe99424c3290df19761a01ad77743a03b4b096533f3533ccf44e4",
      "transactionType": "CALL",
      "contractName": "MainRouter",
      "contractAddress": "0x86d76dcA88B435E9342F0f8A05523BE89c819F3E",
      "function": "addAllowedToken(uint64,address,address,uint8)",
      "arguments": [
        "16281711391670634445",
        "0x244ec7F5753b2Fc10d0C2bAaB1AB55850E73a3AB",
        "0x34C4c526902d88a3Aa98DB8a9b802603EB1E3470",
        "18"
      ],
      "transaction": {
        "type": "0x02",
        "from": "0x7af234d569ab6360693806d7e7f439ec2114f93c",
        "to": "0x86d76dca88b435e9342f0f8a05523be89c819f3e",
        "gas": "0x32b27",
        "value": "0x0",
        "data": "0x40bf5da4000000000000000000000000000000000000000000000000e1f4423f1bf587cd000000000000000000000000244ec7f5753b2fc10d0c2baab1ab55850e73a3ab00000000000000000000000034c4c526902d88a3aa98db8a9b802603eb1e34700000000000000000000000000000000000000000000000000000000000000012",
        "nonce": "0x252",
        "accessList": []
      },
      "additionalContracts": [],
      "isFixedGasLimit": false
    },
    {
      "hash": "0x4dc84701c9445f95e562514c5f68b59f1b82e2c5ef25326e676ea66f13f848b9",
      "transactionType": "CALL",
      "contractName": "MainRouter",
      "contractAddress": "0x86d76dcA88B435E9342F0f8A05523BE89c819F3E",
      "function": "addAllowedToken(uint64,address,address,uint8)",
      "arguments": [
        "16281711391670634445",
        "0xe257e2a67407144C918acaD5e11c2582F77c0B1a",
        "0x5498BB86BC934c8D34FDA08E81D444153d0D06aD",
        "18"
      ],
      "transaction": {
        "type": "0x02",
        "from": "0x7af234d569ab6360693806d7e7f439ec2114f93c",
        "to": "0x86d76dca88b435e9342f0f8a05523be89c819f3e",
        "gas": "0x32b27",
        "value": "0x0",
        "data": "0x40bf5da4000000000000000000000000000000000000000000000000e1f4423f1bf587cd000000000000000000000000e257e2a67407144c918acad5e11c2582f77c0b1a0000000000000000000000005498bb86bc934c8d34fda08e81d444153d0d06ad0000000000000000000000000000000000000000000000000000000000000012",
        "nonce": "0x253",
        "accessList": []
      },
      "additionalContracts": [],
      "isFixedGasLimit": false
    },
    {
      "hash": "0x3124c01da46bd2acbf299229da687395ab86d13b06b42f0cbeaf40e17ceb6e6c",
      "transactionType": "CALL",
      "contractName": "MainRouter",
      "contractAddress": "0x86d76dcA88B435E9342F0f8A05523BE89c819F3E",
      "function": "addAllowedToken(uint64,address,address,uint8)",
      "arguments": [
        "16281711391670634445",
        "0x32B8F75d2AC926a0a906F24df3e8Fe2bA17Bd80a",
        "0x7b219F57a8e9C7303204Af681e9fA69d17ef626f",
        "18"
      ],
      "transaction": {
        "type": "0x02",
        "from": "0x7af234d569ab6360693806d7e7f439ec2114f93c",
        "to": "0x86d76dca88b435e9342f0f8a05523be89c819f3e",
        "gas": "0x32b27",
        "value": "0x0",
        "data": "0x40bf5da4000000000000000000000000000000000000000000000000e1f4423f1bf587cd00000000000000000000000032b8f75d2ac926a0a906f24df3e8fe2ba17bd80a0000000000000000000000007b219f57a8e9c7303204af681e9fa69d17ef626f0000000000000000000000000000000000000000000000000000000000000012",
        "nonce": "0x254",
        "accessList": []
      },
      "additionalContracts": [],
      "isFixedGasLimit": false
    },
    {
      "hash": "0x4badd7c5bcb4ce7377bf9ce18d252c1ba76ac3660b97f39fe32e56aa555a0cb5",
      "transactionType": "CALL",
      "contractName": "MainRouter",
      "contractAddress": "0x86d76dcA88B435E9342F0f8A05523BE89c819F3E",
      "function": "addAllowedToken(uint64,address,address,uint8)",
      "arguments": [
        "16281711391670634445",
        "0xDFf5Ba9FCff83cE455e45De7572B6259b0E7D7dE",
        "0x7898AcCC83587C3C55116c5230C17a6Cd9C71bad",
        "6"
      ],
      "transaction": {
        "type": "0x02",
        "from": "0x7af234d569ab6360693806d7e7f439ec2114f93c",
        "to": "0x86d76dca88b435e9342f0f8a05523be89c819f3e",
        "gas": "0x32b27",
        "value": "0x0",
        "data": "0x40bf5da4000000000000000000000000000000000000000000000000e1f4423f1bf587cd000000000000000000000000dff5ba9fcff83ce455e45de7572b6259b0e7d7de0000000000000000000000007898accc83587c3c55116c5230c17a6cd9c71bad0000000000000000000000000000000000000000000000000000000000000006",
        "nonce": "0x255",
        "accessList": []
      },
      "additionalContracts": [],
      "isFixedGasLimit": false
    },
    {
      "hash": "0x2a15e090b57f7091824d8d16eec07318d104ca6d044e0337d96443287775fb2f",
      "transactionType": "CALL",
      "contractName": "MainRouter",
      "contractAddress": "0x86d76dcA88B435E9342F0f8A05523BE89c819F3E",
      "function": "addAllowedToken(uint64,address,address,uint8)",
      "arguments": [
        "16281711391670634445",
        "0x75b86D7B224Fd88f785BB5FaC5e261D9EFde3047",
        "0x7898AcCC83587C3C55116c5230C17a6Cd9C71bad",
        "6"
      ],
      "transaction": {
        "type": "0x02",
        "from": "0x7af234d569ab6360693806d7e7f439ec2114f93c",
        "to": "0x86d76dca88b435e9342f0f8a05523be89c819f3e",
        "gas": "0x32b27",
        "value": "0x0",
        "data": "0x40bf5da4000000000000000000000000000000000000000000000000e1f4423f1bf587cd00000000000000000000000075b86d7b224fd88f785bb5fac5e261d9efde30470000000000000000000000007898accc83587c3c55116c5230c17a6cd9c71bad0000000000000000000000000000000000000000000000000000000000000006",
        "nonce": "0x256",
        "accessList": []
      },
      "additionalContracts": [],
      "isFixedGasLimit": false
    },
    {
      "hash": "0x537343d95c20c90937a3ea230759a862f018631f17775df03c77cdba73e6d9da",
      "transactionType": "CALL",
      "contractName": "MainRouter",
      "contractAddress": "0x86d76dcA88B435E9342F0f8A05523BE89c819F3E",
      "function": "addAllowedToken(uint64,address,address,uint8)",
      "arguments": [
        "10344971235874465080",
        "0xF6905F1E4ad86f8C3a1Ebfca3E04a9e4d2adDD0D",
        "0x31CF013A08c6Ac228C94551d535d5BAfE19c602a",
        "18"
      ],
      "transaction": {
        "type": "0x02",
        "from": "0x7af234d569ab6360693806d7e7f439ec2114f93c",
        "to": "0x86d76dca88b435e9342f0f8a05523be89c819f3e",
        "gas": "0x35a59",
        "value": "0x0",
        "data": "0x40bf5da40000000000000000000000000000000000000000000000008f90b8876dee6538000000000000000000000000f6905f1e4ad86f8c3a1ebfca3e04a9e4d2addd0d00000000000000000000000031cf013a08c6ac228c94551d535d5bafe19c602a0000000000000000000000000000000000000000000000000000000000000012",
        "nonce": "0x257",
        "accessList": []
      },
      "additionalContracts": [],
      "isFixedGasLimit": false
    },
    {
      "hash": "0xb9e625851b803b4c00b0301c9d2bf25c9dc030b2ce543f2a2064f3c72f7eca09",
      "transactionType": "CALL",
      "contractName": "MainRouter",
      "contractAddress": "0x86d76dcA88B435E9342F0f8A05523BE89c819F3E",
      "function": "addAllowedToken(uint64,address,address,uint8)",
      "arguments": [
        "10344971235874465080",
        "0x9a24BD7833859d2364EaD5A4aF4b16799693DF12",
        "0x86d67c3D38D2bCeE722E601025C25a575021c6EA",
        "18"
      ],
      "transaction": {
        "type": "0x02",
        "from": "0x7af234d569ab6360693806d7e7f439ec2114f93c",
        "to": "0x86d76dca88b435e9342f0f8a05523be89c819f3e",
        "gas": "0x32b27",
        "value": "0x0",
        "data": "0x40bf5da40000000000000000000000000000000000000000000000008f90b8876dee65380000000000000000000000009a24bd7833859d2364ead5a4af4b16799693df1200000000000000000000000086d67c3d38d2bcee722e601025c25a575021c6ea0000000000000000000000000000000000000000000000000000000000000012",
        "nonce": "0x258",
        "accessList": []
      },
      "additionalContracts": [],
      "isFixedGasLimit": false
    },
    {
      "hash": "0xc7bed675321d6b53a4d9a6bf330480379c4bf96fcacc2760ceedfc037f0e0aae",
      "transactionType": "CALL",
      "contractName": "MainRouter",
      "contractAddress": "0x86d76dcA88B435E9342F0f8A05523BE89c819F3E",
      "function": "addAllowedToken(uint64,address,address,uint8)",
      "arguments": [
        "10344971235874465080",
        "0x244ec7F5753b2Fc10d0C2bAaB1AB55850E73a3AB",
        "0x34C4c526902d88a3Aa98DB8a9b802603EB1E3470",
        "18"
      ],
      "transaction": {
        "type": "0x02",
        "from": "0x7af234d569ab6360693806d7e7f439ec2114f93c",
        "to": "0x86d76dca88b435e9342f0f8a05523be89c819f3e",
        "gas": "0x32b27",
        "value": "0x0",
        "data": "0x40bf5da40000000000000000000000000000000000000000000000008f90b8876dee6538000000000000000000000000244ec7f5753b2fc10d0c2baab1ab55850e73a3ab00000000000000000000000034c4c526902d88a3aa98db8a9b802603eb1e34700000000000000000000000000000000000000000000000000000000000000012",
        "nonce": "0x259",
        "accessList": []
      },
      "additionalContracts": [],
      "isFixedGasLimit": false
    },
    {
      "hash": "0xd249403e386dd645f025d4477229ab4a1a3840b8c9db2825b8dea138d47f628a",
      "transactionType": "CALL",
      "contractName": "MainRouter",
      "contractAddress": "0x86d76dcA88B435E9342F0f8A05523BE89c819F3E",
      "function": "addAllowedToken(uint64,address,address,uint8)",
      "arguments": [
        "10344971235874465080",
        "0xe257e2a67407144C918acaD5e11c2582F77c0B1a",
        "0x5498BB86BC934c8D34FDA08E81D444153d0D06aD",
        "18"
      ],
      "transaction": {
        "type": "0x02",
        "from": "0x7af234d569ab6360693806d7e7f439ec2114f93c",
        "to": "0x86d76dca88b435e9342f0f8a05523be89c819f3e",
        "gas": "0x32b27",
        "value": "0x0",
        "data": "0x40bf5da40000000000000000000000000000000000000000000000008f90b8876dee6538000000000000000000000000e257e2a67407144c918acad5e11c2582f77c0b1a0000000000000000000000005498bb86bc934c8d34fda08e81d444153d0d06ad0000000000000000000000000000000000000000000000000000000000000012",
        "nonce": "0x25a",
        "accessList": []
      },
      "additionalContracts": [],
      "isFixedGasLimit": false
    },
    {
      "hash": "0x98cf2a5ee7de5260415dc1ba95d9626fad5c48fa4e0ecfcfc565308b6c091af3",
      "transactionType": "CALL",
      "contractName": "MainRouter",
      "contractAddress": "0x86d76dcA88B435E9342F0f8A05523BE89c819F3E",
      "function": "addAllowedToken(uint64,address,address,uint8)",
      "arguments": [
        "10344971235874465080",
        "0x32B8F75d2AC926a0a906F24df3e8Fe2bA17Bd80a",
        "0x7b219F57a8e9C7303204Af681e9fA69d17ef626f",
        "18"
      ],
      "transaction": {
        "type": "0x02",
        "from": "0x7af234d569ab6360693806d7e7f439ec2114f93c",
        "to": "0x86d76dca88b435e9342f0f8a05523be89c819f3e",
        "gas": "0x32b27",
        "value": "0x0",
        "data": "0x40bf5da40000000000000000000000000000000000000000000000008f90b8876dee653800000000000000000000000032b8f75d2ac926a0a906f24df3e8fe2ba17bd80a0000000000000000000000007b219f57a8e9c7303204af681e9fa69d17ef626f0000000000000000000000000000000000000000000000000000000000000012",
        "nonce": "0x25b",
        "accessList": []
      },
      "additionalContracts": [],
      "isFixedGasLimit": false
    },
    {
      "hash": "0xebf7a60e5f2a29ff361245991f73503a1b2f8a19a7de1da7fc9533dc37658da4",
      "transactionType": "CALL",
      "contractName": "MainRouter",
      "contractAddress": "0x86d76dcA88B435E9342F0f8A05523BE89c819F3E",
      "function": "addAllowedToken(uint64,address,address,uint8)",
      "arguments": [
        "10344971235874465080",
        "0xDFf5Ba9FCff83cE455e45De7572B6259b0E7D7dE",
        "0x7898AcCC83587C3C55116c5230C17a6Cd9C71bad",
        "6"
      ],
      "transaction": {
        "type": "0x02",
        "from": "0x7af234d569ab6360693806d7e7f439ec2114f93c",
        "to": "0x86d76dca88b435e9342f0f8a05523be89c819f3e",
        "gas": "0x32b27",
        "value": "0x0",
        "data": "0x40bf5da40000000000000000000000000000000000000000000000008f90b8876dee6538000000000000000000000000dff5ba9fcff83ce455e45de7572b6259b0e7d7de0000000000000000000000007898accc83587c3c55116c5230c17a6cd9c71bad0000000000000000000000000000000000000000000000000000000000000006",
        "nonce": "0x25c",
        "accessList": []
      },
      "additionalContracts": [],
      "isFixedGasLimit": false
    },
    {
      "hash": "0xbd67c55d0da06ac262d9b61d78a1bc199bce455d6f5b777e0d5242d346f1ec3e",
      "transactionType": "CALL",
      "contractName": "MainRouter",
      "contractAddress": "0x86d76dcA88B435E9342F0f8A05523BE89c819F3E",
      "function": "addAllowedToken(uint64,address,address,uint8)",
      "arguments": [
        "10344971235874465080",
        "0x75b86D7B224Fd88f785BB5FaC5e261D9EFde3047",
        "0x7898AcCC83587C3C55116c5230C17a6Cd9C71bad",
        "6"
      ],
      "transaction": {
        "type": "0x02",
        "from": "0x7af234d569ab6360693806d7e7f439ec2114f93c",
        "to": "0x86d76dca88b435e9342f0f8a05523be89c819f3e",
        "gas": "0x32b27",
        "value": "0x0",
        "data": "0x40bf5da40000000000000000000000000000000000000000000000008f90b8876dee653800000000000000000000000075b86d7b224fd88f785bb5fac5e261d9efde30470000000000000000000000007898accc83587c3c55116c5230c17a6cd9c71bad0000000000000000000000000000000000000000000000000000000000000006",
        "nonce": "0x25d",
        "accessList": []
      },
      "additionalContracts": [],
      "isFixedGasLimit": false
    },
    {
      "hash": "0x351ebc0c1498119a87c7abe8193a836bd5ff68e92b21da2a6b9e492f951b25c6",
      "transactionType": "CALL",
      "contractName": "MainRouter",
      "contractAddress": "0x86d76dcA88B435E9342F0f8A05523BE89c819F3E",
      "function": "addAllowedToken(uint64,address,address,uint8)",
      "arguments": [
        "5224473277236331295",
        "0xF6905F1E4ad86f8C3a1Ebfca3E04a9e4d2adDD0D",
        "0x31CF013A08c6Ac228C94551d535d5BAfE19c602a",
        "18"
      ],
      "transaction": {
        "type": "0x02",
        "from": "0x7af234d569ab6360693806d7e7f439ec2114f93c",
        "to": "0x86d76dca88b435e9342f0f8a05523be89c819f3e",
        "gas": "0x35a59",
        "value": "0x0",
        "data": "0x40bf5da400000000000000000000000000000000000000000000000048810ec3e431431f000000000000000000000000f6905f1e4ad86f8c3a1ebfca3e04a9e4d2addd0d00000000000000000000000031cf013a08c6ac228c94551d535d5bafe19c602a0000000000000000000000000000000000000000000000000000000000000012",
        "nonce": "0x25e",
        "accessList": []
      },
      "additionalContracts": [],
      "isFixedGasLimit": false
    },
    {
      "hash": "0xd7ecb4a2a4df04fc8456065489c4ce32d87c1d69dc20dd1ee49519adcae4c8d2",
      "transactionType": "CALL",
      "contractName": "MainRouter",
      "contractAddress": "0x86d76dcA88B435E9342F0f8A05523BE89c819F3E",
      "function": "addAllowedToken(uint64,address,address,uint8)",
      "arguments": [
        "5224473277236331295",
        "0x9a24BD7833859d2364EaD5A4aF4b16799693DF12",
        "0x86d67c3D38D2bCeE722E601025C25a575021c6EA",
        "18"
      ],
      "transaction": {
        "type": "0x02",
        "from": "0x7af234d569ab6360693806d7e7f439ec2114f93c",
        "to": "0x86d76dca88b435e9342f0f8a05523be89c819f3e",
        "gas": "0x32b27",
        "value": "0x0",
        "data": "0x40bf5da400000000000000000000000000000000000000000000000048810ec3e431431f0000000000000000000000009a24bd7833859d2364ead5a4af4b16799693df1200000000000000000000000086d67c3d38d2bcee722e601025c25a575021c6ea0000000000000000000000000000000000000000000000000000000000000012",
        "nonce": "0x25f",
        "accessList": []
      },
      "additionalContracts": [],
      "isFixedGasLimit": false
    },
    {
      "hash": "0x67730490e05336ea2df91393da2b8c78094fccb1a5effda58f1e9c359fd2e15c",
      "transactionType": "CALL",
      "contractName": "MainRouter",
      "contractAddress": "0x86d76dcA88B435E9342F0f8A05523BE89c819F3E",
      "function": "addAllowedToken(uint64,address,address,uint8)",
      "arguments": [
        "5224473277236331295",
        "0x244ec7F5753b2Fc10d0C2bAaB1AB55850E73a3AB",
        "0x34C4c526902d88a3Aa98DB8a9b802603EB1E3470",
        "18"
      ],
      "transaction": {
        "type": "0x02",
        "from": "0x7af234d569ab6360693806d7e7f439ec2114f93c",
        "to": "0x86d76dca88b435e9342f0f8a05523be89c819f3e",
        "gas": "0x32b27",
        "value": "0x0",
        "data": "0x40bf5da400000000000000000000000000000000000000000000000048810ec3e431431f000000000000000000000000244ec7f5753b2fc10d0c2baab1ab55850e73a3ab00000000000000000000000034c4c526902d88a3aa98db8a9b802603eb1e34700000000000000000000000000000000000000000000000000000000000000012",
        "nonce": "0x260",
        "accessList": []
      },
      "additionalContracts": [],
      "isFixedGasLimit": false
    },
    {
      "hash": "0xdc068ac553f38fe81f763147ee3d63b89d17b3d8437886972cf8357d6b09ea3c",
      "transactionType": "CALL",
      "contractName": "MainRouter",
      "contractAddress": "0x86d76dcA88B435E9342F0f8A05523BE89c819F3E",
      "function": "addAllowedToken(uint64,address,address,uint8)",
      "arguments": [
        "5224473277236331295",
        "0xe257e2a67407144C918acaD5e11c2582F77c0B1a",
        "0x5498BB86BC934c8D34FDA08E81D444153d0D06aD",
        "18"
      ],
      "transaction": {
        "type": "0x02",
        "from": "0x7af234d569ab6360693806d7e7f439ec2114f93c",
        "to": "0x86d76dca88b435e9342f0f8a05523be89c819f3e",
        "gas": "0x32b27",
        "value": "0x0",
        "data": "0x40bf5da400000000000000000000000000000000000000000000000048810ec3e431431f000000000000000000000000e257e2a67407144c918acad5e11c2582f77c0b1a0000000000000000000000005498bb86bc934c8d34fda08e81d444153d0d06ad0000000000000000000000000000000000000000000000000000000000000012",
        "nonce": "0x261",
        "accessList": []
      },
      "additionalContracts": [],
      "isFixedGasLimit": false
    },
    {
      "hash": "0x3b12ab73fa765bc83d583eeba0aa6fbb5bb386fa763d24661ed7dde9039b16c4",
      "transactionType": "CALL",
      "contractName": "MainRouter",
      "contractAddress": "0x86d76dcA88B435E9342F0f8A05523BE89c819F3E",
      "function": "addAllowedToken(uint64,address,address,uint8)",
      "arguments": [
        "5224473277236331295",
        "0x32B8F75d2AC926a0a906F24df3e8Fe2bA17Bd80a",
        "0x7b219F57a8e9C7303204Af681e9fA69d17ef626f",
        "18"
      ],
      "transaction": {
        "type": "0x02",
        "from": "0x7af234d569ab6360693806d7e7f439ec2114f93c",
        "to": "0x86d76dca88b435e9342f0f8a05523be89c819f3e",
        "gas": "0x32b27",
        "value": "0x0",
        "data": "0x40bf5da400000000000000000000000000000000000000000000000048810ec3e431431f00000000000000000000000032b8f75d2ac926a0a906f24df3e8fe2ba17bd80a0000000000000000000000007b219f57a8e9c7303204af681e9fa69d17ef626f0000000000000000000000000000000000000000000000000000000000000012",
        "nonce": "0x262",
        "accessList": []
      },
      "additionalContracts": [],
      "isFixedGasLimit": false
    },
    {
      "hash": "0x4de3cc6549957de07789ebb8251d529f4dca6280ded42775a5009e34141fc6af",
      "transactionType": "CALL",
      "contractName": "MainRouter",
      "contractAddress": "0x86d76dcA88B435E9342F0f8A05523BE89c819F3E",
      "function": "addAllowedToken(uint64,address,address,uint8)",
      "arguments": [
        "5224473277236331295",
        "0xDFf5Ba9FCff83cE455e45De7572B6259b0E7D7dE",
        "0x7898AcCC83587C3C55116c5230C17a6Cd9C71bad",
        "6"
      ],
      "transaction": {
        "type": "0x02",
        "from": "0x7af234d569ab6360693806d7e7f439ec2114f93c",
        "to": "0x86d76dca88b435e9342f0f8a05523be89c819f3e",
        "gas": "0x32b27",
        "value": "0x0",
        "data": "0x40bf5da400000000000000000000000000000000000000000000000048810ec3e431431f000000000000000000000000dff5ba9fcff83ce455e45de7572b6259b0e7d7de0000000000000000000000007898accc83587c3c55116c5230c17a6cd9c71bad0000000000000000000000000000000000000000000000000000000000000006",
        "nonce": "0x263",
        "accessList": []
      },
      "additionalContracts": [],
      "isFixedGasLimit": false
    },
    {
      "hash": "0xd845c84fe66372ed1ab9006639ec55b2e2a67265bb2cf265a33aa3e7cf37a10e",
      "transactionType": "CALL",
      "contractName": "MainRouter",
      "contractAddress": "0x86d76dcA88B435E9342F0f8A05523BE89c819F3E",
      "function": "addAllowedToken(uint64,address,address,uint8)",
      "arguments": [
        "5224473277236331295",
        "0x75b86D7B224Fd88f785BB5FaC5e261D9EFde3047",
        "0x7898AcCC83587C3C55116c5230C17a6Cd9C71bad",
        "6"
      ],
      "transaction": {
        "type": "0x02",
        "from": "0x7af234d569ab6360693806d7e7f439ec2114f93c",
        "to": "0x86d76dca88b435e9342f0f8a05523be89c819f3e",
        "gas": "0x32b27",
        "value": "0x0",
        "data": "0x40bf5da400000000000000000000000000000000000000000000000048810ec3e431431f00000000000000000000000075b86d7b224fd88f785bb5fac5e261d9efde30470000000000000000000000007898accc83587c3c55116c5230c17a6cd9c71bad0000000000000000000000000000000000000000000000000000000000000006",
        "nonce": "0x264",
        "accessList": []
      },
      "additionalContracts": [],
      "isFixedGasLimit": false
    },
    {
      "hash": "0x1faccc68f7be5f7a54f3d65daf171159ca175b485fc212b38911421f3107dbfd",
      "transactionType": "CALL",
      "contractName": "MainRouter",
      "contractAddress": "0x86d76dcA88B435E9342F0f8A05523BE89c819F3E",
      "function": "addAllowedToken(uint64,address,address,uint8)",
      "arguments": [
        "3478487238524512106",
        "0xF6905F1E4ad86f8C3a1Ebfca3E04a9e4d2adDD0D",
        "0x31CF013A08c6Ac228C94551d535d5BAfE19c602a",
        "18"
      ],
      "transaction": {
        "type": "0x02",
        "from": "0x7af234d569ab6360693806d7e7f439ec2114f93c",
        "to": "0x86d76dca88b435e9342f0f8a05523be89c819f3e",
        "gas": "0x35a59",
        "value": "0x0",
        "data": "0x40bf5da4000000000000000000000000000000000000000000000000304611b6affba76a000000000000000000000000f6905f1e4ad86f8c3a1ebfca3e04a9e4d2addd0d00000000000000000000000031cf013a08c6ac228c94551d535d5bafe19c602a0000000000000000000000000000000000000000000000000000000000000012",
        "nonce": "0x265",
        "accessList": []
      },
      "additionalContracts": [],
      "isFixedGasLimit": false
    },
    {
      "hash": "0xfc4628afb96a40e3335680cefeff8545a4b8f2f342bb5558a91093a6c5d1a056",
      "transactionType": "CALL",
      "contractName": "MainRouter",
      "contractAddress": "0x86d76dcA88B435E9342F0f8A05523BE89c819F3E",
      "function": "addAllowedToken(uint64,address,address,uint8)",
      "arguments": [
        "3478487238524512106",
        "0x9a24BD7833859d2364EaD5A4aF4b16799693DF12",
        "0x86d67c3D38D2bCeE722E601025C25a575021c6EA",
        "18"
      ],
      "transaction": {
        "type": "0x02",
        "from": "0x7af234d569ab6360693806d7e7f439ec2114f93c",
        "to": "0x86d76dca88b435e9342f0f8a05523be89c819f3e",
        "gas": "0x32b27",
        "value": "0x0",
        "data": "0x40bf5da4000000000000000000000000000000000000000000000000304611b6affba76a0000000000000000000000009a24bd7833859d2364ead5a4af4b16799693df1200000000000000000000000086d67c3d38d2bcee722e601025c25a575021c6ea0000000000000000000000000000000000000000000000000000000000000012",
        "nonce": "0x266",
        "accessList": []
      },
      "additionalContracts": [],
      "isFixedGasLimit": false
    },
    {
      "hash": "0xcb00ea20a54131ce33c0ba93b0febe9d1b4c975b7f7c668f146ea843c3f47634",
      "transactionType": "CALL",
      "contractName": "MainRouter",
      "contractAddress": "0x86d76dcA88B435E9342F0f8A05523BE89c819F3E",
      "function": "addAllowedToken(uint64,address,address,uint8)",
      "arguments": [
        "3478487238524512106",
        "0x244ec7F5753b2Fc10d0C2bAaB1AB55850E73a3AB",
        "0x34C4c526902d88a3Aa98DB8a9b802603EB1E3470",
        "18"
      ],
      "transaction": {
        "type": "0x02",
        "from": "0x7af234d569ab6360693806d7e7f439ec2114f93c",
        "to": "0x86d76dca88b435e9342f0f8a05523be89c819f3e",
        "gas": "0x32b27",
        "value": "0x0",
        "data": "0x40bf5da4000000000000000000000000000000000000000000000000304611b6affba76a000000000000000000000000244ec7f5753b2fc10d0c2baab1ab55850e73a3ab00000000000000000000000034c4c526902d88a3aa98db8a9b802603eb1e34700000000000000000000000000000000000000000000000000000000000000012",
        "nonce": "0x267",
        "accessList": []
      },
      "additionalContracts": [],
      "isFixedGasLimit": false
    },
    {
      "hash": "0x4112bf33c794c87d493331e23af4cb189867cadb7534849ae813e9654108ee97",
      "transactionType": "CALL",
      "contractName": "MainRouter",
      "contractAddress": "0x86d76dcA88B435E9342F0f8A05523BE89c819F3E",
      "function": "addAllowedToken(uint64,address,address,uint8)",
      "arguments": [
        "3478487238524512106",
        "0xe257e2a67407144C918acaD5e11c2582F77c0B1a",
        "0x5498BB86BC934c8D34FDA08E81D444153d0D06aD",
        "18"
      ],
      "transaction": {
        "type": "0x02",
        "from": "0x7af234d569ab6360693806d7e7f439ec2114f93c",
        "to": "0x86d76dca88b435e9342f0f8a05523be89c819f3e",
        "gas": "0x32b27",
        "value": "0x0",
        "data": "0x40bf5da4000000000000000000000000000000000000000000000000304611b6affba76a000000000000000000000000e257e2a67407144c918acad5e11c2582f77c0b1a0000000000000000000000005498bb86bc934c8d34fda08e81d444153d0d06ad0000000000000000000000000000000000000000000000000000000000000012",
        "nonce": "0x268",
        "accessList": []
      },
      "additionalContracts": [],
      "isFixedGasLimit": false
    },
    {
      "hash": "0xfb1b264bdd9639b6a7defa2d3f082415ad2287e87919c7643c207cad751bb6fa",
      "transactionType": "CALL",
      "contractName": "MainRouter",
      "contractAddress": "0x86d76dcA88B435E9342F0f8A05523BE89c819F3E",
      "function": "addAllowedToken(uint64,address,address,uint8)",
      "arguments": [
        "3478487238524512106",
        "0x32B8F75d2AC926a0a906F24df3e8Fe2bA17Bd80a",
        "0x7b219F57a8e9C7303204Af681e9fA69d17ef626f",
        "18"
      ],
      "transaction": {
        "type": "0x02",
        "from": "0x7af234d569ab6360693806d7e7f439ec2114f93c",
        "to": "0x86d76dca88b435e9342f0f8a05523be89c819f3e",
        "gas": "0x32b27",
        "value": "0x0",
        "data": "0x40bf5da4000000000000000000000000000000000000000000000000304611b6affba76a00000000000000000000000032b8f75d2ac926a0a906f24df3e8fe2ba17bd80a0000000000000000000000007b219f57a8e9c7303204af681e9fa69d17ef626f0000000000000000000000000000000000000000000000000000000000000012",
        "nonce": "0x269",
        "accessList": []
      },
      "additionalContracts": [],
      "isFixedGasLimit": false
    },
    {
      "hash": "0xf2e1a8c22b4dfca5d8dc545fdbb222b53ba43356de71763a001efab50f628d2c",
      "transactionType": "CALL",
      "contractName": "MainRouter",
      "contractAddress": "0x86d76dcA88B435E9342F0f8A05523BE89c819F3E",
      "function": "addAllowedToken(uint64,address,address,uint8)",
      "arguments": [
        "3478487238524512106",
        "0xDFf5Ba9FCff83cE455e45De7572B6259b0E7D7dE",
        "0x7898AcCC83587C3C55116c5230C17a6Cd9C71bad",
        "6"
      ],
      "transaction": {
        "type": "0x02",
        "from": "0x7af234d569ab6360693806d7e7f439ec2114f93c",
        "to": "0x86d76dca88b435e9342f0f8a05523be89c819f3e",
        "gas": "0x32b27",
        "value": "0x0",
        "data": "0x40bf5da4000000000000000000000000000000000000000000000000304611b6affba76a000000000000000000000000dff5ba9fcff83ce455e45de7572b6259b0e7d7de0000000000000000000000007898accc83587c3c55116c5230c17a6cd9c71bad0000000000000000000000000000000000000000000000000000000000000006",
        "nonce": "0x26a",
        "accessList": []
      },
      "additionalContracts": [],
      "isFixedGasLimit": false
    },
    {
      "hash": "0xb2d563161bcc5cc3eb1b823fa8b1bc7ede4311f84b202e05b448fc094fe1274c",
      "transactionType": "CALL",
      "contractName": "MainRouter",
      "contractAddress": "0x86d76dcA88B435E9342F0f8A05523BE89c819F3E",
      "function": "addAllowedToken(uint64,address,address,uint8)",
      "arguments": [
        "3478487238524512106",
        "0x75b86D7B224Fd88f785BB5FaC5e261D9EFde3047",
        "0x7898AcCC83587C3C55116c5230C17a6Cd9C71bad",
        "6"
      ],
      "transaction": {
        "type": "0x02",
        "from": "0x7af234d569ab6360693806d7e7f439ec2114f93c",
        "to": "0x86d76dca88b435e9342f0f8a05523be89c819f3e",
        "gas": "0x32b27",
        "value": "0x0",
        "data": "0x40bf5da4000000000000000000000000000000000000000000000000304611b6affba76a00000000000000000000000075b86d7b224fd88f785bb5fac5e261d9efde30470000000000000000000000007898accc83587c3c55116c5230c17a6cd9c71bad0000000000000000000000000000000000000000000000000000000000000006",
        "nonce": "0x26b",
        "accessList": []
      },
      "additionalContracts": [],
      "isFixedGasLimit": false
    },
    {
      "hash": "0x661386caeb2d69bd01f15caaa5270203c429b02984348b5172f68e686b60cf6f",
      "transactionType": "CALL",
      "contractName": "MainRouter",
      "contractAddress": "0x86d76dcA88B435E9342F0f8A05523BE89c819F3E",
      "function": "setAllowedDestinationChain(uint64,bool)",
      "arguments": [
        "14767482510784806043",
        "true"
      ],
      "transaction": {
        "type": "0x02",
        "from": "0x7af234d569ab6360693806d7e7f439ec2114f93c",
        "to": "0x86d76dca88b435e9342f0f8a05523be89c819f3e",
        "gas": "0x26261",
        "value": "0x0",
        "data": "0x1572823c000000000000000000000000000000000000000000000000ccf0a31a221f3c9b0000000000000000000000000000000000000000000000000000000000000001",
        "nonce": "0x26c",
        "accessList": []
      },
      "additionalContracts": [],
      "isFixedGasLimit": false
    },
    {
      "hash": "0xe299060aef665b4dca35f9ee451e56267ab975e5c669db54e01af28af3c23890",
      "transactionType": "CALL",
      "contractName": "MainRouter",
      "contractAddress": "0x86d76dcA88B435E9342F0f8A05523BE89c819F3E",
      "function": "setAllowedDestinationChain(uint64,bool)",
      "arguments": [
        "16015286601757825753",
        "true"
      ],
      "transaction": {
        "type": "0x02",
        "from": "0x7af234d569ab6360693806d7e7f439ec2114f93c",
        "to": "0x86d76dca88b435e9342f0f8a05523be89c819f3e",
        "gas": "0x2061d",
        "value": "0x0",
        "data": "0x1572823c000000000000000000000000000000000000000000000000de41ba4fc9d91ad90000000000000000000000000000000000000000000000000000000000000001",
        "nonce": "0x26d",
        "accessList": []
      },
      "additionalContracts": [],
      "isFixedGasLimit": false
    },
    {
      "hash": "0x69750a0ac87cd7fef0a65a676bfc85113051e7ca7214a822eeb1967cf83d4e6d",
      "transactionType": "CALL",
      "contractName": "MainRouter",
      "contractAddress": "0x86d76dcA88B435E9342F0f8A05523BE89c819F3E",
      "function": "setAllowedDestinationChain(uint64,bool)",
      "arguments": [
        "16281711391670634445",
        "true"
      ],
      "transaction": {
        "type": "0x02",
        "from": "0x7af234d569ab6360693806d7e7f439ec2114f93c",
        "to": "0x86d76dca88b435e9342f0f8a05523be89c819f3e",
        "gas": "0x2061d",
        "value": "0x0",
        "data": "0x1572823c000000000000000000000000000000000000000000000000e1f4423f1bf587cd0000000000000000000000000000000000000000000000000000000000000001",
        "nonce": "0x26e",
        "accessList": []
      },
      "additionalContracts": [],
      "isFixedGasLimit": false
    },
    {
      "hash": "0x01315433b35d97ffbdb2d2fc830390ee24141d3218ca7c1584359d80003db6f3",
      "transactionType": "CALL",
      "contractName": "MainRouter",
      "contractAddress": "0x86d76dcA88B435E9342F0f8A05523BE89c819F3E",
      "function": "setAllowedDestinationChain(uint64,bool)",
      "arguments": [
        "10344971235874465080",
        "true"
      ],
      "transaction": {
        "type": "0x02",
        "from": "0x7af234d569ab6360693806d7e7f439ec2114f93c",
        "to": "0x86d76dca88b435e9342f0f8a05523be89c819f3e",
        "gas": "0x2061d",
        "value": "0x0",
        "data": "0x1572823c0000000000000000000000000000000000000000000000008f90b8876dee65380000000000000000000000000000000000000000000000000000000000000001",
        "nonce": "0x26f",
        "accessList": []
      },
      "additionalContracts": [],
      "isFixedGasLimit": false
    },
    {
      "hash": "0xccab0d3666a1d962b22e24c7ae01551d60a68b8ab77cbdd3c727e7f0ca3d1500",
      "transactionType": "CALL",
      "contractName": "MainRouter",
      "contractAddress": "0x86d76dcA88B435E9342F0f8A05523BE89c819F3E",
      "function": "setAllowedDestinationChain(uint64,bool)",
      "arguments": [
        "5224473277236331295",
        "true"
      ],
      "transaction": {
        "type": "0x02",
        "from": "0x7af234d569ab6360693806d7e7f439ec2114f93c",
        "to": "0x86d76dca88b435e9342f0f8a05523be89c819f3e",
        "gas": "0x2061d",
        "value": "0x0",
        "data": "0x1572823c00000000000000000000000000000000000000000000000048810ec3e431431f0000000000000000000000000000000000000000000000000000000000000001",
        "nonce": "0x270",
        "accessList": []
      },
      "additionalContracts": [],
      "isFixedGasLimit": false
    },
    {
      "hash": "0xa5414ee6ce3460af5360f96daa9b834984779e2f3e314afb2b3f2a62ed7dcb10",
      "transactionType": "CALL",
      "contractName": "MainRouter",
      "contractAddress": "0x86d76dcA88B435E9342F0f8A05523BE89c819F3E",
      "function": "setAllowedDestinationChain(uint64,bool)",
      "arguments": [
        "3478487238524512106",
        "true"
      ],
      "transaction": {
        "type": "0x02",
        "from": "0x7af234d569ab6360693806d7e7f439ec2114f93c",
        "to": "0x86d76dca88b435e9342f0f8a05523be89c819f3e",
        "gas": "0x2061d",
        "value": "0x0",
        "data": "0x1572823c000000000000000000000000000000000000000000000000304611b6affba76a0000000000000000000000000000000000000000000000000000000000000001",
        "nonce": "0x271",
        "accessList": []
      },
      "additionalContracts": [],
      "isFixedGasLimit": false
    },
    {
      "hash": "0x3bb742d80a90756697d17caef1d8fbc2cb4d3c3db263aa7c06b0bfb3b19b292a",
      "transactionType": "CALL",
      "contractName": "MainRouter",
      "contractAddress": "0x86d76dcA88B435E9342F0f8A05523BE89c819F3E",
      "function": "setAllowedSourceChain(uint64,bool)",
      "arguments": [
        "14767482510784806043",
        "true"
      ],
      "transaction": {
        "type": "0x02",
        "from": "0x7af234d569ab6360693806d7e7f439ec2114f93c",
        "to": "0x86d76dca88b435e9342f0f8a05523be89c819f3e",
        "gas": "0xfa0c",
        "value": "0x0",
        "data": "0x5d9a2c48000000000000000000000000000000000000000000000000ccf0a31a221f3c9b0000000000000000000000000000000000000000000000000000000000000001",
        "nonce": "0x272",
        "accessList": []
      },
      "additionalContracts": [],
      "isFixedGasLimit": false
    },
    {
      "hash": "0x117c98c07239b2ee2e5321c6d54248d8d8df00f3738af32a35afa8a7fcbe2c29",
      "transactionType": "CALL",
      "contractName": "MainRouter",
      "contractAddress": "0x86d76dcA88B435E9342F0f8A05523BE89c819F3E",
      "function": "setAllowedSourceChain(uint64,bool)",
      "arguments": [
        "16015286601757825753",
        "true"
      ],
      "transaction": {
        "type": "0x02",
        "from": "0x7af234d569ab6360693806d7e7f439ec2114f93c",
        "to": "0x86d76dca88b435e9342f0f8a05523be89c819f3e",
        "gas": "0xfa0c",
        "value": "0x0",
        "data": "0x5d9a2c48000000000000000000000000000000000000000000000000de41ba4fc9d91ad90000000000000000000000000000000000000000000000000000000000000001",
        "nonce": "0x273",
        "accessList": []
      },
      "additionalContracts": [],
      "isFixedGasLimit": false
    },
    {
      "hash": "0xb2b0ed2b7728cf5d867b4db5b985089caa0df9d20b04edad24b2ef86d80bc27b",
      "transactionType": "CALL",
      "contractName": "MainRouter",
      "contractAddress": "0x86d76dcA88B435E9342F0f8A05523BE89c819F3E",
      "function": "setAllowedSourceChain(uint64,bool)",
      "arguments": [
        "16281711391670634445",
        "true"
      ],
      "transaction": {
        "type": "0x02",
        "from": "0x7af234d569ab6360693806d7e7f439ec2114f93c",
        "to": "0x86d76dca88b435e9342f0f8a05523be89c819f3e",
        "gas": "0xfa0c",
        "value": "0x0",
        "data": "0x5d9a2c48000000000000000000000000000000000000000000000000e1f4423f1bf587cd0000000000000000000000000000000000000000000000000000000000000001",
        "nonce": "0x274",
        "accessList": []
      },
      "additionalContracts": [],
      "isFixedGasLimit": false
    },
    {
      "hash": "0x469733a4382e85267641a26ba8900da64d6c7557a163d83a285cf9fa0a9c6b22",
      "transactionType": "CALL",
      "contractName": "MainRouter",
      "contractAddress": "0x86d76dcA88B435E9342F0f8A05523BE89c819F3E",
      "function": "setAllowedSourceChain(uint64,bool)",
      "arguments": [
        "10344971235874465080",
        "true"
      ],
      "transaction": {
        "type": "0x02",
        "from": "0x7af234d569ab6360693806d7e7f439ec2114f93c",
        "to": "0x86d76dca88b435e9342f0f8a05523be89c819f3e",
        "gas": "0xfa0c",
        "value": "0x0",
        "data": "0x5d9a2c480000000000000000000000000000000000000000000000008f90b8876dee65380000000000000000000000000000000000000000000000000000000000000001",
        "nonce": "0x275",
        "accessList": []
      },
      "additionalContracts": [],
      "isFixedGasLimit": false
    },
    {
      "hash": "0xe32e2aeee2ecb5b55078b1866eff5282f0c65c5b66d5fc2a9afdafd20c6d879e",
      "transactionType": "CALL",
      "contractName": "MainRouter",
      "contractAddress": "0x86d76dcA88B435E9342F0f8A05523BE89c819F3E",
      "function": "setAllowedSourceChain(uint64,bool)",
      "arguments": [
        "5224473277236331295",
        "true"
      ],
      "transaction": {
        "type": "0x02",
        "from": "0x7af234d569ab6360693806d7e7f439ec2114f93c",
        "to": "0x86d76dca88b435e9342f0f8a05523be89c819f3e",
        "gas": "0xfa0c",
        "value": "0x0",
        "data": "0x5d9a2c4800000000000000000000000000000000000000000000000048810ec3e431431f0000000000000000000000000000000000000000000000000000000000000001",
        "nonce": "0x276",
        "accessList": []
      },
      "additionalContracts": [],
      "isFixedGasLimit": false
    },
    {
      "hash": "0x7dc012027287865f6bfd65e43dff1c50c36e8119ee0597dac14fb11ad731af0a",
      "transactionType": "CALL",
      "contractName": "MainRouter",
      "contractAddress": "0x86d76dcA88B435E9342F0f8A05523BE89c819F3E",
      "function": "setAllowedSourceChain(uint64,bool)",
      "arguments": [
        "3478487238524512106",
        "true"
      ],
      "transaction": {
        "type": "0x02",
        "from": "0x7af234d569ab6360693806d7e7f439ec2114f93c",
        "to": "0x86d76dca88b435e9342f0f8a05523be89c819f3e",
        "gas": "0xfa0c",
        "value": "0x0",
        "data": "0x5d9a2c48000000000000000000000000000000000000000000000000304611b6affba76a0000000000000000000000000000000000000000000000000000000000000001",
        "nonce": "0x277",
        "accessList": []
      },
      "additionalContracts": [],
      "isFixedGasLimit": false
    }
  ],
  "receipts": [
    {
      "transactionHash": "0x63f09354fbdb15275b527ff9b170b29a086310ca167c1fd572745079767aea5f",
      "transactionIndex": "0x0",
      "blockHash": "0x5e4218b05d393bbcc94b1bc81182b9da33a1bac8bf9b408b860b3e4a9f3f319b",
      "blockNumber": "0x200f09b",
      "from": "0x7aF234d569aB6360693806D7e7f439Ec2114F93c",
      "to": null,
      "cumulativeGasUsed": "0x43f96",
      "gasUsed": "0x43f96",
      "contractAddress": "0xAE71D3DA9D435da6a44a48Ea28df9E75fCbAeAfA",
      "logs": [],
      "status": "0x1",
      "logsBloom": "0x00000000000000000000000000000000000000000000000000000000000000000000000000000000000000000000000000000000000000000000000000000000000000000000000000000000000000000000000000000000000000000000000000000000000000000000000000000000000000000000000000000000000000000000000000000000000000000000000000000000000000000000000000000000000000000000000000000000000000000000000000000000000000000000000000000000000000000000000000000000000000000000000000000000000000000000000000000000000000000000000000000000000000000000000000000000",
      "type": "0x2",
      "effectiveGasPrice": "0x684ee1800"
    },
    {
      "transactionHash": "0xd011fa05c167b2d23691e71745376f478ad2a08cf6ef54c535be900955d5bbaa",
      "transactionIndex": "0x1",
      "blockHash": "0x5e4218b05d393bbcc94b1bc81182b9da33a1bac8bf9b408b860b3e4a9f3f319b",
      "blockNumber": "0x200f09b",
      "from": "0x7aF234d569aB6360693806D7e7f439Ec2114F93c",
      "to": null,
      "cumulativeGasUsed": "0x4ecc26",
      "gasUsed": "0x4a8c90",
      "contractAddress": "0x86d76dcA88B435E9342F0f8A05523BE89c819F3E",
      "logs": [
        {
          "address": "0x86d76dcA88B435E9342F0f8A05523BE89c819F3E",
          "topics": [
            "0x8be0079c531659141344cd1fd0a4f28419497f9722a3daafe3b4186f6b6457e0",
            "0x0000000000000000000000000000000000000000000000000000000000000000",
            "0x0000000000000000000000007af234d569ab6360693806d7e7f439ec2114f93c"
          ],
          "data": "0x",
          "blockHash": "0x5e4218b05d393bbcc94b1bc81182b9da33a1bac8bf9b408b860b3e4a9f3f319b",
          "blockNumber": "0x200f09b",
          "transactionHash": "0xd011fa05c167b2d23691e71745376f478ad2a08cf6ef54c535be900955d5bbaa",
          "transactionIndex": "0x1",
          "logIndex": "0x0",
          "removed": false
        }
      ],
      "status": "0x1",
      "logsBloom": "0x00000000080000000000000000000000000000000000000000800000000000000000000000000000000000000000000000000000000000000000000000000000000000000000000000000000000000800001000000000000000000000000000000000000020000000000000000000800000000000000000000000000000000400000000000000000000000000000000000000000000008000000000000000000000000000000000000000000000000000000000000000000000000000000000000000000000000000000000000000000000000000000000040000040000020000000000000000010000000000000000000000000000000000000000000000000",
      "type": "0x2",
      "effectiveGasPrice": "0x684ee1800"
    },
    {
      "transactionHash": "0x2f612266893be7b2457e611d837f3b2e5c88d48710a495e510587da85e4cc285",
      "transactionIndex": "0x2",
      "blockHash": "0x5e4218b05d393bbcc94b1bc81182b9da33a1bac8bf9b408b860b3e4a9f3f319b",
      "blockNumber": "0x200f09b",
      "from": "0x7aF234d569aB6360693806D7e7f439Ec2114F93c",
      "to": "0x86d76dcA88B435E9342F0f8A05523BE89c819F3E",
      "cumulativeGasUsed": "0x4f3ca8",
      "gasUsed": "0x7082",
      "contractAddress": null,
      "logs": [],
      "status": "0x1",
      "logsBloom": "0x00000000000000000000000000000000000000000000000000000000000000000000000000000000000000000000000000000000000000000000000000000000000000000000000000000000000000000000000000000000000000000000000000000000000000000000000000000000000000000000000000000000000000000000000000000000000000000000000000000000000000000000000000000000000000000000000000000000000000000000000000000000000000000000000000000000000000000000000000000000000000000000000000000000000000000000000000000000000000000000000000000000000000000000000000000000",
      "type": "0x2",
      "effectiveGasPrice": "0x684ee1800"
    },
    {
      "transactionHash": "0x3a694b6f4cef380712507be9e2fed45ba2b559665d6560bf53ec4c258d6fe8e6",
      "transactionIndex": "0x3",
      "blockHash": "0x5e4218b05d393bbcc94b1bc81182b9da33a1bac8bf9b408b860b3e4a9f3f319b",
      "blockNumber": "0x200f09b",
      "from": "0x7aF234d569aB6360693806D7e7f439Ec2114F93c",
      "to": null,
      "cumulativeGasUsed": "0x65f183",
      "gasUsed": "0x16b4db",
      "contractAddress": "0x92D0A9f7D9C5c120A4D3095CC7f674B71A9181e9",
      "logs": [],
      "status": "0x1",
      "logsBloom": "0x00000000000000000000000000000000000000000000000000000000000000000000000000000000000000000000000000000000000000000000000000000000000000000000000000000000000000000000000000000000000000000000000000000000000000000000000000000000000000000000000000000000000000000000000000000000000000000000000000000000000000000000000000000000000000000000000000000000000000000000000000000000000000000000000000000000000000000000000000000000000000000000000000000000000000000000000000000000000000000000000000000000000000000000000000000000",
      "type": "0x2",
      "effectiveGasPrice": "0x684ee1800"
    },
    {
      "transactionHash": "0x9f815e95b96e8b5a38b7f6c43eb2f589729e3990250a0cfa337a986f2002fc1b",
      "transactionIndex": "0x4",
      "blockHash": "0x5e4218b05d393bbcc94b1bc81182b9da33a1bac8bf9b408b860b3e4a9f3f319b",
      "blockNumber": "0x200f09b",
      "from": "0x7aF234d569aB6360693806D7e7f439Ec2114F93c",
      "to": "0x86d76dcA88B435E9342F0f8A05523BE89c819F3E",
      "cumulativeGasUsed": "0x685ef2",
      "gasUsed": "0x26d6f",
      "contractAddress": null,
      "logs": [],
      "status": "0x1",
      "logsBloom": "0x00000000000000000000000000000000000000000000000000000000000000000000000000000000000000000000000000000000000000000000000000000000000000000000000000000000000000000000000000000000000000000000000000000000000000000000000000000000000000000000000000000000000000000000000000000000000000000000000000000000000000000000000000000000000000000000000000000000000000000000000000000000000000000000000000000000000000000000000000000000000000000000000000000000000000000000000000000000000000000000000000000000000000000000000000000000",
      "type": "0x2",
      "effectiveGasPrice": "0x684ee1800"
    },
    {
      "transactionHash": "0x66715892afefc91144d29b492bfa31292fd0e582f812fcf6819bf96698c37187",
      "transactionIndex": "0x5",
      "blockHash": "0x5e4218b05d393bbcc94b1bc81182b9da33a1bac8bf9b408b860b3e4a9f3f319b",
      "blockNumber": "0x200f09b",
      "from": "0x7aF234d569aB6360693806D7e7f439Ec2114F93c",
      "to": "0x86d76dcA88B435E9342F0f8A05523BE89c819F3E",
      "cumulativeGasUsed": "0x6a8995",
      "gasUsed": "0x22aa3",
      "contractAddress": null,
      "logs": [],
      "status": "0x1",
      "logsBloom": "0x00000000000000000000000000000000000000000000000000000000000000000000000000000000000000000000000000000000000000000000000000000000000000000000000000000000000000000000000000000000000000000000000000000000000000000000000000000000000000000000000000000000000000000000000000000000000000000000000000000000000000000000000000000000000000000000000000000000000000000000000000000000000000000000000000000000000000000000000000000000000000000000000000000000000000000000000000000000000000000000000000000000000000000000000000000000",
      "type": "0x2",
      "effectiveGasPrice": "0x684ee1800"
    },
    {
      "transactionHash": "0x3893cee72c4e17f02a848a462215639097f74303c80e6d6e32b0576b4d2e8ef3",
      "transactionIndex": "0x6",
      "blockHash": "0x5e4218b05d393bbcc94b1bc81182b9da33a1bac8bf9b408b860b3e4a9f3f319b",
      "blockNumber": "0x200f09b",
      "from": "0x7aF234d569aB6360693806D7e7f439Ec2114F93c",
      "to": "0x86d76dcA88B435E9342F0f8A05523BE89c819F3E",
      "cumulativeGasUsed": "0x6cb438",
      "gasUsed": "0x22aa3",
      "contractAddress": null,
      "logs": [],
      "status": "0x1",
      "logsBloom": "0x00000000000000000000000000000000000000000000000000000000000000000000000000000000000000000000000000000000000000000000000000000000000000000000000000000000000000000000000000000000000000000000000000000000000000000000000000000000000000000000000000000000000000000000000000000000000000000000000000000000000000000000000000000000000000000000000000000000000000000000000000000000000000000000000000000000000000000000000000000000000000000000000000000000000000000000000000000000000000000000000000000000000000000000000000000000",
      "type": "0x2",
      "effectiveGasPrice": "0x684ee1800"
    },
    {
      "transactionHash": "0xaab8e3223adc9f9297938ae14bf01f67d2431fb8351b6c1102ac173d6290c586",
      "transactionIndex": "0x0",
      "blockHash": "0x823a46ec5d3fdebb0ad5b7918bdee3a67a2c6b8e08b7926e3b45708fb19f30fc",
      "blockNumber": "0x200f09c",
      "from": "0x7aF234d569aB6360693806D7e7f439Ec2114F93c",
      "to": "0x86d76dcA88B435E9342F0f8A05523BE89c819F3E",
      "cumulativeGasUsed": "0x22aa3",
      "gasUsed": "0x22aa3",
      "contractAddress": null,
      "logs": [],
      "status": "0x1",
      "logsBloom": "0x00000000000000000000000000000000000000000000000000000000000000000000000000000000000000000000000000000000000000000000000000000000000000000000000000000000000000000000000000000000000000000000000000000000000000000000000000000000000000000000000000000000000000000000000000000000000000000000000000000000000000000000000000000000000000000000000000000000000000000000000000000000000000000000000000000000000000000000000000000000000000000000000000000000000000000000000000000000000000000000000000000000000000000000000000000000",
      "type": "0x2",
      "effectiveGasPrice": "0x684ee1800"
    },
    {
      "transactionHash": "0xf39cd4e7de3cea5e2632f26e877699d93158357d5a6718db64ed8a24b4a78c3d",
      "transactionIndex": "0x1",
      "blockHash": "0x823a46ec5d3fdebb0ad5b7918bdee3a67a2c6b8e08b7926e3b45708fb19f30fc",
      "blockNumber": "0x200f09c",
      "from": "0x7aF234d569aB6360693806D7e7f439Ec2114F93c",
      "to": "0x86d76dcA88B435E9342F0f8A05523BE89c819F3E",
      "cumulativeGasUsed": "0x45546",
      "gasUsed": "0x22aa3",
      "contractAddress": null,
      "logs": [],
      "status": "0x1",
      "logsBloom": "0x00000000000000000000000000000000000000000000000000000000000000000000000000000000000000000000000000000000000000000000000000000000000000000000000000000000000000000000000000000000000000000000000000000000000000000000000000000000000000000000000000000000000000000000000000000000000000000000000000000000000000000000000000000000000000000000000000000000000000000000000000000000000000000000000000000000000000000000000000000000000000000000000000000000000000000000000000000000000000000000000000000000000000000000000000000000",
      "type": "0x2",
      "effectiveGasPrice": "0x684ee1800"
    },
    {
      "transactionHash": "0xdaacddea73860b7f815e4bbf58a83a0adb27f89add15075490ca5d7611b9af71",
      "transactionIndex": "0x2",
      "blockHash": "0x823a46ec5d3fdebb0ad5b7918bdee3a67a2c6b8e08b7926e3b45708fb19f30fc",
      "blockNumber": "0x200f09c",
      "from": "0x7aF234d569aB6360693806D7e7f439Ec2114F93c",
      "to": "0x86d76dcA88B435E9342F0f8A05523BE89c819F3E",
      "cumulativeGasUsed": "0x67fe9",
      "gasUsed": "0x22aa3",
      "contractAddress": null,
      "logs": [],
      "status": "0x1",
      "logsBloom": "0x00000000000000000000000000000000000000000000000000000000000000000000000000000000000000000000000000000000000000000000000000000000000000000000000000000000000000000000000000000000000000000000000000000000000000000000000000000000000000000000000000000000000000000000000000000000000000000000000000000000000000000000000000000000000000000000000000000000000000000000000000000000000000000000000000000000000000000000000000000000000000000000000000000000000000000000000000000000000000000000000000000000000000000000000000000000",
      "type": "0x2",
      "effectiveGasPrice": "0x684ee1800"
    },
    {
      "transactionHash": "0x11b16228d80603e31cc58d4f214b9f14bfc79723a89c0b6b77efc69eed98b368",
      "transactionIndex": "0x3",
      "blockHash": "0x823a46ec5d3fdebb0ad5b7918bdee3a67a2c6b8e08b7926e3b45708fb19f30fc",
      "blockNumber": "0x200f09c",
      "from": "0x7aF234d569aB6360693806D7e7f439Ec2114F93c",
      "to": "0x86d76dcA88B435E9342F0f8A05523BE89c819F3E",
      "cumulativeGasUsed": "0x8aa8c",
      "gasUsed": "0x22aa3",
      "contractAddress": null,
      "logs": [],
      "status": "0x1",
      "logsBloom": "0x00000000000000000000000000000000000000000000000000000000000000000000000000000000000000000000000000000000000000000000000000000000000000000000000000000000000000000000000000000000000000000000000000000000000000000000000000000000000000000000000000000000000000000000000000000000000000000000000000000000000000000000000000000000000000000000000000000000000000000000000000000000000000000000000000000000000000000000000000000000000000000000000000000000000000000000000000000000000000000000000000000000000000000000000000000000",
      "type": "0x2",
      "effectiveGasPrice": "0x684ee1800"
    },
    {
      "transactionHash": "0xc818a80ea749ba00bb38539a5878ba0e7918b277431d39679bab1291a729bc9e",
      "transactionIndex": "0x4",
      "blockHash": "0x823a46ec5d3fdebb0ad5b7918bdee3a67a2c6b8e08b7926e3b45708fb19f30fc",
      "blockNumber": "0x200f09c",
      "from": "0x7aF234d569aB6360693806D7e7f439Ec2114F93c",
      "to": "0x86d76dcA88B435E9342F0f8A05523BE89c819F3E",
      "cumulativeGasUsed": "0xb17fb",
      "gasUsed": "0x26d6f",
      "contractAddress": null,
      "logs": [],
      "status": "0x1",
      "logsBloom": "0x00000000000000000000000000000000000000000000000000000000000000000000000000000000000000000000000000000000000000000000000000000000000000000000000000000000000000000000000000000000000000000000000000000000000000000000000000000000000000000000000000000000000000000000000000000000000000000000000000000000000000000000000000000000000000000000000000000000000000000000000000000000000000000000000000000000000000000000000000000000000000000000000000000000000000000000000000000000000000000000000000000000000000000000000000000000",
      "type": "0x2",
      "effectiveGasPrice": "0x684ee1800"
    },
    {
      "transactionHash": "0x480a16b9c0ae57987e388ce22c1b2f615598dd455fbc48ee7657f5e0c9795757",
      "transactionIndex": "0x5",
      "blockHash": "0x823a46ec5d3fdebb0ad5b7918bdee3a67a2c6b8e08b7926e3b45708fb19f30fc",
      "blockNumber": "0x200f09c",
      "from": "0x7aF234d569aB6360693806D7e7f439Ec2114F93c",
      "to": "0x86d76dcA88B435E9342F0f8A05523BE89c819F3E",
      "cumulativeGasUsed": "0xd429e",
      "gasUsed": "0x22aa3",
      "contractAddress": null,
      "logs": [],
      "status": "0x1",
      "logsBloom": "0x00000000000000000000000000000000000000000000000000000000000000000000000000000000000000000000000000000000000000000000000000000000000000000000000000000000000000000000000000000000000000000000000000000000000000000000000000000000000000000000000000000000000000000000000000000000000000000000000000000000000000000000000000000000000000000000000000000000000000000000000000000000000000000000000000000000000000000000000000000000000000000000000000000000000000000000000000000000000000000000000000000000000000000000000000000000",
      "type": "0x2",
      "effectiveGasPrice": "0x684ee1800"
    },
    {
      "transactionHash": "0x2c391b46258ab3295e9a7dcaf50f2c06f43c1e7496b03a6c575be29c2c940a93",
      "transactionIndex": "0x6",
      "blockHash": "0x823a46ec5d3fdebb0ad5b7918bdee3a67a2c6b8e08b7926e3b45708fb19f30fc",
      "blockNumber": "0x200f09c",
      "from": "0x7aF234d569aB6360693806D7e7f439Ec2114F93c",
      "to": "0x86d76dcA88B435E9342F0f8A05523BE89c819F3E",
      "cumulativeGasUsed": "0xf6d41",
      "gasUsed": "0x22aa3",
      "contractAddress": null,
      "logs": [],
      "status": "0x1",
      "logsBloom": "0x00000000000000000000000000000000000000000000000000000000000000000000000000000000000000000000000000000000000000000000000000000000000000000000000000000000000000000000000000000000000000000000000000000000000000000000000000000000000000000000000000000000000000000000000000000000000000000000000000000000000000000000000000000000000000000000000000000000000000000000000000000000000000000000000000000000000000000000000000000000000000000000000000000000000000000000000000000000000000000000000000000000000000000000000000000000",
      "type": "0x2",
      "effectiveGasPrice": "0x684ee1800"
    },
    {
      "transactionHash": "0xf87865007d821c9487ddf95efdfc1fe6b476dcb78e420966416d044f820bed8e",
      "transactionIndex": "0x7",
      "blockHash": "0x823a46ec5d3fdebb0ad5b7918bdee3a67a2c6b8e08b7926e3b45708fb19f30fc",
      "blockNumber": "0x200f09c",
      "from": "0x7aF234d569aB6360693806D7e7f439Ec2114F93c",
      "to": "0x86d76dcA88B435E9342F0f8A05523BE89c819F3E",
      "cumulativeGasUsed": "0x1197e4",
      "gasUsed": "0x22aa3",
      "contractAddress": null,
      "logs": [],
      "status": "0x1",
      "logsBloom": "0x00000000000000000000000000000000000000000000000000000000000000000000000000000000000000000000000000000000000000000000000000000000000000000000000000000000000000000000000000000000000000000000000000000000000000000000000000000000000000000000000000000000000000000000000000000000000000000000000000000000000000000000000000000000000000000000000000000000000000000000000000000000000000000000000000000000000000000000000000000000000000000000000000000000000000000000000000000000000000000000000000000000000000000000000000000000",
      "type": "0x2",
      "effectiveGasPrice": "0x684ee1800"
    },
    {
      "transactionHash": "0x92fd6d52f98efd435bb80a535d47482872285b05658e3a905f5d4f44f23c292b",
      "transactionIndex": "0x8",
      "blockHash": "0x823a46ec5d3fdebb0ad5b7918bdee3a67a2c6b8e08b7926e3b45708fb19f30fc",
      "blockNumber": "0x200f09c",
      "from": "0x7aF234d569aB6360693806D7e7f439Ec2114F93c",
      "to": "0x86d76dcA88B435E9342F0f8A05523BE89c819F3E",
      "cumulativeGasUsed": "0x13c287",
      "gasUsed": "0x22aa3",
      "contractAddress": null,
      "logs": [],
      "status": "0x1",
      "logsBloom": "0x00000000000000000000000000000000000000000000000000000000000000000000000000000000000000000000000000000000000000000000000000000000000000000000000000000000000000000000000000000000000000000000000000000000000000000000000000000000000000000000000000000000000000000000000000000000000000000000000000000000000000000000000000000000000000000000000000000000000000000000000000000000000000000000000000000000000000000000000000000000000000000000000000000000000000000000000000000000000000000000000000000000000000000000000000000000",
      "type": "0x2",
      "effectiveGasPrice": "0x684ee1800"
    },
    {
      "transactionHash": "0xe3738fb9e769740171e65368f67a537bb5c4b75f3a5e38cef2d3a298e3acab33",
      "transactionIndex": "0x9",
      "blockHash": "0x823a46ec5d3fdebb0ad5b7918bdee3a67a2c6b8e08b7926e3b45708fb19f30fc",
      "blockNumber": "0x200f09c",
      "from": "0x7aF234d569aB6360693806D7e7f439Ec2114F93c",
      "to": "0x86d76dcA88B435E9342F0f8A05523BE89c819F3E",
      "cumulativeGasUsed": "0x15ed1e",
      "gasUsed": "0x22a97",
      "contractAddress": null,
      "logs": [],
      "status": "0x1",
      "logsBloom": "0x00000000000000000000000000000000000000000000000000000000000000000000000000000000000000000000000000000000000000000000000000000000000000000000000000000000000000000000000000000000000000000000000000000000000000000000000000000000000000000000000000000000000000000000000000000000000000000000000000000000000000000000000000000000000000000000000000000000000000000000000000000000000000000000000000000000000000000000000000000000000000000000000000000000000000000000000000000000000000000000000000000000000000000000000000000000",
      "type": "0x2",
      "effectiveGasPrice": "0x684ee1800"
    },
    {
      "transactionHash": "0x3e653f88bc22102e23a6db2e85c06e1dc12483702e5fc36ed6666b6bf86b404b",
      "transactionIndex": "0xa",
      "blockHash": "0x823a46ec5d3fdebb0ad5b7918bdee3a67a2c6b8e08b7926e3b45708fb19f30fc",
      "blockNumber": "0x200f09c",
      "from": "0x7aF234d569aB6360693806D7e7f439Ec2114F93c",
      "to": "0x86d76dcA88B435E9342F0f8A05523BE89c819F3E",
      "cumulativeGasUsed": "0x1817c1",
      "gasUsed": "0x22aa3",
      "contractAddress": null,
      "logs": [],
      "status": "0x1",
      "logsBloom": "0x00000000000000000000000000000000000000000000000000000000000000000000000000000000000000000000000000000000000000000000000000000000000000000000000000000000000000000000000000000000000000000000000000000000000000000000000000000000000000000000000000000000000000000000000000000000000000000000000000000000000000000000000000000000000000000000000000000000000000000000000000000000000000000000000000000000000000000000000000000000000000000000000000000000000000000000000000000000000000000000000000000000000000000000000000000000",
      "type": "0x2",
      "effectiveGasPrice": "0x684ee1800"
    },
    {
      "transactionHash": "0xbe5ef83109baa098db9c8769804cbf60339bcf7f2cb633b999c61e0ba090d02c",
      "transactionIndex": "0xb",
      "blockHash": "0x823a46ec5d3fdebb0ad5b7918bdee3a67a2c6b8e08b7926e3b45708fb19f30fc",
      "blockNumber": "0x200f09c",
      "from": "0x7aF234d569aB6360693806D7e7f439Ec2114F93c",
      "to": "0x86d76dcA88B435E9342F0f8A05523BE89c819F3E",
      "cumulativeGasUsed": "0x1a8530",
      "gasUsed": "0x26d6f",
      "contractAddress": null,
      "logs": [],
      "status": "0x1",
      "logsBloom": "0x00000000000000000000000000000000000000000000000000000000000000000000000000000000000000000000000000000000000000000000000000000000000000000000000000000000000000000000000000000000000000000000000000000000000000000000000000000000000000000000000000000000000000000000000000000000000000000000000000000000000000000000000000000000000000000000000000000000000000000000000000000000000000000000000000000000000000000000000000000000000000000000000000000000000000000000000000000000000000000000000000000000000000000000000000000000",
      "type": "0x2",
      "effectiveGasPrice": "0x684ee1800"
    },
    {
      "transactionHash": "0x66660e109e070951c6d96112d8127afad8fcb943180f2716c7de9d30eb3d1ee4",
      "transactionIndex": "0xc",
      "blockHash": "0x823a46ec5d3fdebb0ad5b7918bdee3a67a2c6b8e08b7926e3b45708fb19f30fc",
      "blockNumber": "0x200f09c",
      "from": "0x7aF234d569aB6360693806D7e7f439Ec2114F93c",
      "to": "0x86d76dcA88B435E9342F0f8A05523BE89c819F3E",
      "cumulativeGasUsed": "0x1cafd3",
      "gasUsed": "0x22aa3",
      "contractAddress": null,
      "logs": [],
      "status": "0x1",
      "logsBloom": "0x00000000000000000000000000000000000000000000000000000000000000000000000000000000000000000000000000000000000000000000000000000000000000000000000000000000000000000000000000000000000000000000000000000000000000000000000000000000000000000000000000000000000000000000000000000000000000000000000000000000000000000000000000000000000000000000000000000000000000000000000000000000000000000000000000000000000000000000000000000000000000000000000000000000000000000000000000000000000000000000000000000000000000000000000000000000",
      "type": "0x2",
      "effectiveGasPrice": "0x684ee1800"
    },
    {
      "transactionHash": "0x80c54e31ddabe99424c3290df19761a01ad77743a03b4b096533f3533ccf44e4",
      "transactionIndex": "0xd",
      "blockHash": "0x823a46ec5d3fdebb0ad5b7918bdee3a67a2c6b8e08b7926e3b45708fb19f30fc",
      "blockNumber": "0x200f09c",
      "from": "0x7aF234d569aB6360693806D7e7f439Ec2114F93c",
      "to": "0x86d76dcA88B435E9342F0f8A05523BE89c819F3E",
      "cumulativeGasUsed": "0x1eda76",
      "gasUsed": "0x22aa3",
      "contractAddress": null,
      "logs": [],
      "status": "0x1",
      "logsBloom": "0x00000000000000000000000000000000000000000000000000000000000000000000000000000000000000000000000000000000000000000000000000000000000000000000000000000000000000000000000000000000000000000000000000000000000000000000000000000000000000000000000000000000000000000000000000000000000000000000000000000000000000000000000000000000000000000000000000000000000000000000000000000000000000000000000000000000000000000000000000000000000000000000000000000000000000000000000000000000000000000000000000000000000000000000000000000000",
      "type": "0x2",
      "effectiveGasPrice": "0x684ee1800"
    },
    {
      "transactionHash": "0x4dc84701c9445f95e562514c5f68b59f1b82e2c5ef25326e676ea66f13f848b9",
      "transactionIndex": "0xe",
      "blockHash": "0x823a46ec5d3fdebb0ad5b7918bdee3a67a2c6b8e08b7926e3b45708fb19f30fc",
      "blockNumber": "0x200f09c",
      "from": "0x7aF234d569aB6360693806D7e7f439Ec2114F93c",
      "to": "0x86d76dcA88B435E9342F0f8A05523BE89c819F3E",
      "cumulativeGasUsed": "0x210519",
      "gasUsed": "0x22aa3",
      "contractAddress": null,
      "logs": [],
      "status": "0x1",
      "logsBloom": "0x00000000000000000000000000000000000000000000000000000000000000000000000000000000000000000000000000000000000000000000000000000000000000000000000000000000000000000000000000000000000000000000000000000000000000000000000000000000000000000000000000000000000000000000000000000000000000000000000000000000000000000000000000000000000000000000000000000000000000000000000000000000000000000000000000000000000000000000000000000000000000000000000000000000000000000000000000000000000000000000000000000000000000000000000000000000",
      "type": "0x2",
      "effectiveGasPrice": "0x684ee1800"
    },
    {
      "transactionHash": "0x3124c01da46bd2acbf299229da687395ab86d13b06b42f0cbeaf40e17ceb6e6c",
      "transactionIndex": "0xf",
      "blockHash": "0x823a46ec5d3fdebb0ad5b7918bdee3a67a2c6b8e08b7926e3b45708fb19f30fc",
      "blockNumber": "0x200f09c",
      "from": "0x7aF234d569aB6360693806D7e7f439Ec2114F93c",
      "to": "0x86d76dcA88B435E9342F0f8A05523BE89c819F3E",
      "cumulativeGasUsed": "0x232fbc",
      "gasUsed": "0x22aa3",
      "contractAddress": null,
      "logs": [],
      "status": "0x1",
      "logsBloom": "0x00000000000000000000000000000000000000000000000000000000000000000000000000000000000000000000000000000000000000000000000000000000000000000000000000000000000000000000000000000000000000000000000000000000000000000000000000000000000000000000000000000000000000000000000000000000000000000000000000000000000000000000000000000000000000000000000000000000000000000000000000000000000000000000000000000000000000000000000000000000000000000000000000000000000000000000000000000000000000000000000000000000000000000000000000000000",
      "type": "0x2",
      "effectiveGasPrice": "0x684ee1800"
    },
    {
      "transactionHash": "0x4badd7c5bcb4ce7377bf9ce18d252c1ba76ac3660b97f39fe32e56aa555a0cb5",
      "transactionIndex": "0x0",
      "blockHash": "0x6a35aee0992c1bd5136a07e3c585656524ca4526fce12d40bc4568ad508a1894",
      "blockNumber": "0x200f09d",
      "from": "0x7aF234d569aB6360693806D7e7f439Ec2114F93c",
      "to": "0x86d76dcA88B435E9342F0f8A05523BE89c819F3E",
      "cumulativeGasUsed": "0x22aa3",
      "gasUsed": "0x22aa3",
      "contractAddress": null,
      "logs": [],
      "status": "0x1",
      "logsBloom": "0x00000000000000000000000000000000000000000000000000000000000000000000000000000000000000000000000000000000000000000000000000000000000000000000000000000000000000000000000000000000000000000000000000000000000000000000000000000000000000000000000000000000000000000000000000000000000000000000000000000000000000000000000000000000000000000000000000000000000000000000000000000000000000000000000000000000000000000000000000000000000000000000000000000000000000000000000000000000000000000000000000000000000000000000000000000000",
      "type": "0x2",
      "effectiveGasPrice": "0x684ee1800"
    },
    {
      "transactionHash": "0x2a15e090b57f7091824d8d16eec07318d104ca6d044e0337d96443287775fb2f",
      "transactionIndex": "0x1",
      "blockHash": "0x6a35aee0992c1bd5136a07e3c585656524ca4526fce12d40bc4568ad508a1894",
      "blockNumber": "0x200f09d",
      "from": "0x7aF234d569aB6360693806D7e7f439Ec2114F93c",
      "to": "0x86d76dcA88B435E9342F0f8A05523BE89c819F3E",
      "cumulativeGasUsed": "0x45546",
      "gasUsed": "0x22aa3",
      "contractAddress": null,
      "logs": [],
      "status": "0x1",
      "logsBloom": "0x00000000000000000000000000000000000000000000000000000000000000000000000000000000000000000000000000000000000000000000000000000000000000000000000000000000000000000000000000000000000000000000000000000000000000000000000000000000000000000000000000000000000000000000000000000000000000000000000000000000000000000000000000000000000000000000000000000000000000000000000000000000000000000000000000000000000000000000000000000000000000000000000000000000000000000000000000000000000000000000000000000000000000000000000000000000",
      "type": "0x2",
      "effectiveGasPrice": "0x684ee1800"
    },
    {
      "transactionHash": "0x537343d95c20c90937a3ea230759a862f018631f17775df03c77cdba73e6d9da",
      "transactionIndex": "0x2",
      "blockHash": "0x6a35aee0992c1bd5136a07e3c585656524ca4526fce12d40bc4568ad508a1894",
      "blockNumber": "0x200f09d",
      "from": "0x7aF234d569aB6360693806D7e7f439Ec2114F93c",
      "to": "0x86d76dcA88B435E9342F0f8A05523BE89c819F3E",
      "cumulativeGasUsed": "0x6c2b5",
      "gasUsed": "0x26d6f",
      "contractAddress": null,
      "logs": [],
      "status": "0x1",
      "logsBloom": "0x00000000000000000000000000000000000000000000000000000000000000000000000000000000000000000000000000000000000000000000000000000000000000000000000000000000000000000000000000000000000000000000000000000000000000000000000000000000000000000000000000000000000000000000000000000000000000000000000000000000000000000000000000000000000000000000000000000000000000000000000000000000000000000000000000000000000000000000000000000000000000000000000000000000000000000000000000000000000000000000000000000000000000000000000000000000",
      "type": "0x2",
      "effectiveGasPrice": "0x684ee1800"
    },
    {
      "transactionHash": "0xb9e625851b803b4c00b0301c9d2bf25c9dc030b2ce543f2a2064f3c72f7eca09",
      "transactionIndex": "0x3",
      "blockHash": "0x6a35aee0992c1bd5136a07e3c585656524ca4526fce12d40bc4568ad508a1894",
      "blockNumber": "0x200f09d",
      "from": "0x7aF234d569aB6360693806D7e7f439Ec2114F93c",
      "to": "0x86d76dcA88B435E9342F0f8A05523BE89c819F3E",
      "cumulativeGasUsed": "0x8ed58",
      "gasUsed": "0x22aa3",
      "contractAddress": null,
      "logs": [],
      "status": "0x1",
      "logsBloom": "0x00000000000000000000000000000000000000000000000000000000000000000000000000000000000000000000000000000000000000000000000000000000000000000000000000000000000000000000000000000000000000000000000000000000000000000000000000000000000000000000000000000000000000000000000000000000000000000000000000000000000000000000000000000000000000000000000000000000000000000000000000000000000000000000000000000000000000000000000000000000000000000000000000000000000000000000000000000000000000000000000000000000000000000000000000000000",
      "type": "0x2",
      "effectiveGasPrice": "0x684ee1800"
    },
    {
      "transactionHash": "0xc7bed675321d6b53a4d9a6bf330480379c4bf96fcacc2760ceedfc037f0e0aae",
      "transactionIndex": "0x4",
      "blockHash": "0x6a35aee0992c1bd5136a07e3c585656524ca4526fce12d40bc4568ad508a1894",
      "blockNumber": "0x200f09d",
      "from": "0x7aF234d569aB6360693806D7e7f439Ec2114F93c",
      "to": "0x86d76dcA88B435E9342F0f8A05523BE89c819F3E",
      "cumulativeGasUsed": "0xb17fb",
      "gasUsed": "0x22aa3",
      "contractAddress": null,
      "logs": [],
      "status": "0x1",
      "logsBloom": "0x00000000000000000000000000000000000000000000000000000000000000000000000000000000000000000000000000000000000000000000000000000000000000000000000000000000000000000000000000000000000000000000000000000000000000000000000000000000000000000000000000000000000000000000000000000000000000000000000000000000000000000000000000000000000000000000000000000000000000000000000000000000000000000000000000000000000000000000000000000000000000000000000000000000000000000000000000000000000000000000000000000000000000000000000000000000",
      "type": "0x2",
      "effectiveGasPrice": "0x684ee1800"
    },
    {
      "transactionHash": "0xd249403e386dd645f025d4477229ab4a1a3840b8c9db2825b8dea138d47f628a",
      "transactionIndex": "0x5",
      "blockHash": "0x6a35aee0992c1bd5136a07e3c585656524ca4526fce12d40bc4568ad508a1894",
      "blockNumber": "0x200f09d",
      "from": "0x7aF234d569aB6360693806D7e7f439Ec2114F93c",
      "to": "0x86d76dcA88B435E9342F0f8A05523BE89c819F3E",
      "cumulativeGasUsed": "0xd429e",
      "gasUsed": "0x22aa3",
      "contractAddress": null,
      "logs": [],
      "status": "0x1",
      "logsBloom": "0x00000000000000000000000000000000000000000000000000000000000000000000000000000000000000000000000000000000000000000000000000000000000000000000000000000000000000000000000000000000000000000000000000000000000000000000000000000000000000000000000000000000000000000000000000000000000000000000000000000000000000000000000000000000000000000000000000000000000000000000000000000000000000000000000000000000000000000000000000000000000000000000000000000000000000000000000000000000000000000000000000000000000000000000000000000000",
      "type": "0x2",
      "effectiveGasPrice": "0x684ee1800"
    },
    {
      "transactionHash": "0x98cf2a5ee7de5260415dc1ba95d9626fad5c48fa4e0ecfcfc565308b6c091af3",
      "transactionIndex": "0x6",
      "blockHash": "0x6a35aee0992c1bd5136a07e3c585656524ca4526fce12d40bc4568ad508a1894",
      "blockNumber": "0x200f09d",
      "from": "0x7aF234d569aB6360693806D7e7f439Ec2114F93c",
      "to": "0x86d76dcA88B435E9342F0f8A05523BE89c819F3E",
      "cumulativeGasUsed": "0xf6d41",
      "gasUsed": "0x22aa3",
      "contractAddress": null,
      "logs": [],
      "status": "0x1",
      "logsBloom": "0x00000000000000000000000000000000000000000000000000000000000000000000000000000000000000000000000000000000000000000000000000000000000000000000000000000000000000000000000000000000000000000000000000000000000000000000000000000000000000000000000000000000000000000000000000000000000000000000000000000000000000000000000000000000000000000000000000000000000000000000000000000000000000000000000000000000000000000000000000000000000000000000000000000000000000000000000000000000000000000000000000000000000000000000000000000000",
      "type": "0x2",
      "effectiveGasPrice": "0x684ee1800"
    },
    {
      "transactionHash": "0xebf7a60e5f2a29ff361245991f73503a1b2f8a19a7de1da7fc9533dc37658da4",
      "transactionIndex": "0x7",
      "blockHash": "0x6a35aee0992c1bd5136a07e3c585656524ca4526fce12d40bc4568ad508a1894",
      "blockNumber": "0x200f09d",
      "from": "0x7aF234d569aB6360693806D7e7f439Ec2114F93c",
      "to": "0x86d76dcA88B435E9342F0f8A05523BE89c819F3E",
      "cumulativeGasUsed": "0x1197e4",
      "gasUsed": "0x22aa3",
      "contractAddress": null,
      "logs": [],
      "status": "0x1",
      "logsBloom": "0x00000000000000000000000000000000000000000000000000000000000000000000000000000000000000000000000000000000000000000000000000000000000000000000000000000000000000000000000000000000000000000000000000000000000000000000000000000000000000000000000000000000000000000000000000000000000000000000000000000000000000000000000000000000000000000000000000000000000000000000000000000000000000000000000000000000000000000000000000000000000000000000000000000000000000000000000000000000000000000000000000000000000000000000000000000000",
      "type": "0x2",
      "effectiveGasPrice": "0x684ee1800"
    },
    {
      "transactionHash": "0xbd67c55d0da06ac262d9b61d78a1bc199bce455d6f5b777e0d5242d346f1ec3e",
      "transactionIndex": "0x8",
      "blockHash": "0x6a35aee0992c1bd5136a07e3c585656524ca4526fce12d40bc4568ad508a1894",
      "blockNumber": "0x200f09d",
      "from": "0x7aF234d569aB6360693806D7e7f439Ec2114F93c",
      "to": "0x86d76dcA88B435E9342F0f8A05523BE89c819F3E",
      "cumulativeGasUsed": "0x13c287",
      "gasUsed": "0x22aa3",
      "contractAddress": null,
      "logs": [],
      "status": "0x1",
      "logsBloom": "0x00000000000000000000000000000000000000000000000000000000000000000000000000000000000000000000000000000000000000000000000000000000000000000000000000000000000000000000000000000000000000000000000000000000000000000000000000000000000000000000000000000000000000000000000000000000000000000000000000000000000000000000000000000000000000000000000000000000000000000000000000000000000000000000000000000000000000000000000000000000000000000000000000000000000000000000000000000000000000000000000000000000000000000000000000000000",
      "type": "0x2",
      "effectiveGasPrice": "0x684ee1800"
    },
    {
      "transactionHash": "0x351ebc0c1498119a87c7abe8193a836bd5ff68e92b21da2a6b9e492f951b25c6",
      "transactionIndex": "0x9",
      "blockHash": "0x6a35aee0992c1bd5136a07e3c585656524ca4526fce12d40bc4568ad508a1894",
      "blockNumber": "0x200f09d",
      "from": "0x7aF234d569aB6360693806D7e7f439Ec2114F93c",
      "to": "0x86d76dcA88B435E9342F0f8A05523BE89c819F3E",
      "cumulativeGasUsed": "0x162ff6",
      "gasUsed": "0x26d6f",
      "contractAddress": null,
      "logs": [],
      "status": "0x1",
      "logsBloom": "0x00000000000000000000000000000000000000000000000000000000000000000000000000000000000000000000000000000000000000000000000000000000000000000000000000000000000000000000000000000000000000000000000000000000000000000000000000000000000000000000000000000000000000000000000000000000000000000000000000000000000000000000000000000000000000000000000000000000000000000000000000000000000000000000000000000000000000000000000000000000000000000000000000000000000000000000000000000000000000000000000000000000000000000000000000000000",
      "type": "0x2",
      "effectiveGasPrice": "0x684ee1800"
    },
    {
      "transactionHash": "0xd7ecb4a2a4df04fc8456065489c4ce32d87c1d69dc20dd1ee49519adcae4c8d2",
      "transactionIndex": "0xa",
      "blockHash": "0x6a35aee0992c1bd5136a07e3c585656524ca4526fce12d40bc4568ad508a1894",
      "blockNumber": "0x200f09d",
      "from": "0x7aF234d569aB6360693806D7e7f439Ec2114F93c",
      "to": "0x86d76dcA88B435E9342F0f8A05523BE89c819F3E",
      "cumulativeGasUsed": "0x185a99",
      "gasUsed": "0x22aa3",
      "contractAddress": null,
      "logs": [],
      "status": "0x1",
      "logsBloom": "0x00000000000000000000000000000000000000000000000000000000000000000000000000000000000000000000000000000000000000000000000000000000000000000000000000000000000000000000000000000000000000000000000000000000000000000000000000000000000000000000000000000000000000000000000000000000000000000000000000000000000000000000000000000000000000000000000000000000000000000000000000000000000000000000000000000000000000000000000000000000000000000000000000000000000000000000000000000000000000000000000000000000000000000000000000000000",
      "type": "0x2",
      "effectiveGasPrice": "0x684ee1800"
    },
    {
      "transactionHash": "0x67730490e05336ea2df91393da2b8c78094fccb1a5effda58f1e9c359fd2e15c",
      "transactionIndex": "0xb",
      "blockHash": "0x6a35aee0992c1bd5136a07e3c585656524ca4526fce12d40bc4568ad508a1894",
      "blockNumber": "0x200f09d",
      "from": "0x7aF234d569aB6360693806D7e7f439Ec2114F93c",
      "to": "0x86d76dcA88B435E9342F0f8A05523BE89c819F3E",
      "cumulativeGasUsed": "0x1a853c",
      "gasUsed": "0x22aa3",
      "contractAddress": null,
      "logs": [],
      "status": "0x1",
      "logsBloom": "0x00000000000000000000000000000000000000000000000000000000000000000000000000000000000000000000000000000000000000000000000000000000000000000000000000000000000000000000000000000000000000000000000000000000000000000000000000000000000000000000000000000000000000000000000000000000000000000000000000000000000000000000000000000000000000000000000000000000000000000000000000000000000000000000000000000000000000000000000000000000000000000000000000000000000000000000000000000000000000000000000000000000000000000000000000000000",
      "type": "0x2",
      "effectiveGasPrice": "0x684ee1800"
    },
    {
      "transactionHash": "0xdc068ac553f38fe81f763147ee3d63b89d17b3d8437886972cf8357d6b09ea3c",
      "transactionIndex": "0xc",
      "blockHash": "0x6a35aee0992c1bd5136a07e3c585656524ca4526fce12d40bc4568ad508a1894",
      "blockNumber": "0x200f09d",
      "from": "0x7aF234d569aB6360693806D7e7f439Ec2114F93c",
      "to": "0x86d76dcA88B435E9342F0f8A05523BE89c819F3E",
      "cumulativeGasUsed": "0x1cafdf",
      "gasUsed": "0x22aa3",
      "contractAddress": null,
      "logs": [],
      "status": "0x1",
      "logsBloom": "0x00000000000000000000000000000000000000000000000000000000000000000000000000000000000000000000000000000000000000000000000000000000000000000000000000000000000000000000000000000000000000000000000000000000000000000000000000000000000000000000000000000000000000000000000000000000000000000000000000000000000000000000000000000000000000000000000000000000000000000000000000000000000000000000000000000000000000000000000000000000000000000000000000000000000000000000000000000000000000000000000000000000000000000000000000000000",
      "type": "0x2",
      "effectiveGasPrice": "0x684ee1800"
    },
    {
      "transactionHash": "0x3b12ab73fa765bc83d583eeba0aa6fbb5bb386fa763d24661ed7dde9039b16c4",
      "transactionIndex": "0xd",
      "blockHash": "0x6a35aee0992c1bd5136a07e3c585656524ca4526fce12d40bc4568ad508a1894",
      "blockNumber": "0x200f09d",
      "from": "0x7aF234d569aB6360693806D7e7f439Ec2114F93c",
      "to": "0x86d76dcA88B435E9342F0f8A05523BE89c819F3E",
      "cumulativeGasUsed": "0x1eda82",
      "gasUsed": "0x22aa3",
      "contractAddress": null,
      "logs": [],
      "status": "0x1",
      "logsBloom": "0x00000000000000000000000000000000000000000000000000000000000000000000000000000000000000000000000000000000000000000000000000000000000000000000000000000000000000000000000000000000000000000000000000000000000000000000000000000000000000000000000000000000000000000000000000000000000000000000000000000000000000000000000000000000000000000000000000000000000000000000000000000000000000000000000000000000000000000000000000000000000000000000000000000000000000000000000000000000000000000000000000000000000000000000000000000000",
      "type": "0x2",
      "effectiveGasPrice": "0x684ee1800"
    },
    {
      "transactionHash": "0x4de3cc6549957de07789ebb8251d529f4dca6280ded42775a5009e34141fc6af",
      "transactionIndex": "0xe",
      "blockHash": "0x6a35aee0992c1bd5136a07e3c585656524ca4526fce12d40bc4568ad508a1894",
      "blockNumber": "0x200f09d",
      "from": "0x7aF234d569aB6360693806D7e7f439Ec2114F93c",
      "to": "0x86d76dcA88B435E9342F0f8A05523BE89c819F3E",
      "cumulativeGasUsed": "0x210525",
      "gasUsed": "0x22aa3",
      "contractAddress": null,
      "logs": [],
      "status": "0x1",
      "logsBloom": "0x00000000000000000000000000000000000000000000000000000000000000000000000000000000000000000000000000000000000000000000000000000000000000000000000000000000000000000000000000000000000000000000000000000000000000000000000000000000000000000000000000000000000000000000000000000000000000000000000000000000000000000000000000000000000000000000000000000000000000000000000000000000000000000000000000000000000000000000000000000000000000000000000000000000000000000000000000000000000000000000000000000000000000000000000000000000",
      "type": "0x2",
      "effectiveGasPrice": "0x684ee1800"
    },
    {
      "transactionHash": "0xd845c84fe66372ed1ab9006639ec55b2e2a67265bb2cf265a33aa3e7cf37a10e",
      "transactionIndex": "0xf",
      "blockHash": "0x6a35aee0992c1bd5136a07e3c585656524ca4526fce12d40bc4568ad508a1894",
      "blockNumber": "0x200f09d",
      "from": "0x7aF234d569aB6360693806D7e7f439Ec2114F93c",
      "to": "0x86d76dcA88B435E9342F0f8A05523BE89c819F3E",
      "cumulativeGasUsed": "0x232fc8",
      "gasUsed": "0x22aa3",
      "contractAddress": null,
      "logs": [],
      "status": "0x1",
      "logsBloom": "0x00000000000000000000000000000000000000000000000000000000000000000000000000000000000000000000000000000000000000000000000000000000000000000000000000000000000000000000000000000000000000000000000000000000000000000000000000000000000000000000000000000000000000000000000000000000000000000000000000000000000000000000000000000000000000000000000000000000000000000000000000000000000000000000000000000000000000000000000000000000000000000000000000000000000000000000000000000000000000000000000000000000000000000000000000000000",
      "type": "0x2",
      "effectiveGasPrice": "0x684ee1800"
    },
    {
      "transactionHash": "0x1faccc68f7be5f7a54f3d65daf171159ca175b485fc212b38911421f3107dbfd",
      "transactionIndex": "0x10",
      "blockHash": "0x6a35aee0992c1bd5136a07e3c585656524ca4526fce12d40bc4568ad508a1894",
      "blockNumber": "0x200f09d",
      "from": "0x7aF234d569aB6360693806D7e7f439Ec2114F93c",
      "to": "0x86d76dcA88B435E9342F0f8A05523BE89c819F3E",
      "cumulativeGasUsed": "0x259d37",
      "gasUsed": "0x26d6f",
      "contractAddress": null,
      "logs": [],
      "status": "0x1",
      "logsBloom": "0x00000000000000000000000000000000000000000000000000000000000000000000000000000000000000000000000000000000000000000000000000000000000000000000000000000000000000000000000000000000000000000000000000000000000000000000000000000000000000000000000000000000000000000000000000000000000000000000000000000000000000000000000000000000000000000000000000000000000000000000000000000000000000000000000000000000000000000000000000000000000000000000000000000000000000000000000000000000000000000000000000000000000000000000000000000000",
      "type": "0x2",
      "effectiveGasPrice": "0x684ee1800"
    },
    {
      "transactionHash": "0xfc4628afb96a40e3335680cefeff8545a4b8f2f342bb5558a91093a6c5d1a056",
      "transactionIndex": "0x11",
      "blockHash": "0x6a35aee0992c1bd5136a07e3c585656524ca4526fce12d40bc4568ad508a1894",
      "blockNumber": "0x200f09d",
      "from": "0x7aF234d569aB6360693806D7e7f439Ec2114F93c",
      "to": "0x86d76dcA88B435E9342F0f8A05523BE89c819F3E",
      "cumulativeGasUsed": "0x27c7da",
      "gasUsed": "0x22aa3",
      "contractAddress": null,
      "logs": [],
      "status": "0x1",
      "logsBloom": "0x00000000000000000000000000000000000000000000000000000000000000000000000000000000000000000000000000000000000000000000000000000000000000000000000000000000000000000000000000000000000000000000000000000000000000000000000000000000000000000000000000000000000000000000000000000000000000000000000000000000000000000000000000000000000000000000000000000000000000000000000000000000000000000000000000000000000000000000000000000000000000000000000000000000000000000000000000000000000000000000000000000000000000000000000000000000",
      "type": "0x2",
      "effectiveGasPrice": "0x684ee1800"
    },
    {
      "transactionHash": "0xcb00ea20a54131ce33c0ba93b0febe9d1b4c975b7f7c668f146ea843c3f47634",
      "transactionIndex": "0x12",
      "blockHash": "0x6a35aee0992c1bd5136a07e3c585656524ca4526fce12d40bc4568ad508a1894",
      "blockNumber": "0x200f09d",
      "from": "0x7aF234d569aB6360693806D7e7f439Ec2114F93c",
      "to": "0x86d76dcA88B435E9342F0f8A05523BE89c819F3E",
      "cumulativeGasUsed": "0x29f27d",
      "gasUsed": "0x22aa3",
      "contractAddress": null,
      "logs": [],
      "status": "0x1",
      "logsBloom": "0x00000000000000000000000000000000000000000000000000000000000000000000000000000000000000000000000000000000000000000000000000000000000000000000000000000000000000000000000000000000000000000000000000000000000000000000000000000000000000000000000000000000000000000000000000000000000000000000000000000000000000000000000000000000000000000000000000000000000000000000000000000000000000000000000000000000000000000000000000000000000000000000000000000000000000000000000000000000000000000000000000000000000000000000000000000000",
      "type": "0x2",
      "effectiveGasPrice": "0x684ee1800"
    },
    {
      "transactionHash": "0x4112bf33c794c87d493331e23af4cb189867cadb7534849ae813e9654108ee97",
      "transactionIndex": "0x13",
      "blockHash": "0x6a35aee0992c1bd5136a07e3c585656524ca4526fce12d40bc4568ad508a1894",
      "blockNumber": "0x200f09d",
      "from": "0x7aF234d569aB6360693806D7e7f439Ec2114F93c",
      "to": "0x86d76dcA88B435E9342F0f8A05523BE89c819F3E",
      "cumulativeGasUsed": "0x2c1d20",
      "gasUsed": "0x22aa3",
      "contractAddress": null,
      "logs": [],
      "status": "0x1",
      "logsBloom": "0x00000000000000000000000000000000000000000000000000000000000000000000000000000000000000000000000000000000000000000000000000000000000000000000000000000000000000000000000000000000000000000000000000000000000000000000000000000000000000000000000000000000000000000000000000000000000000000000000000000000000000000000000000000000000000000000000000000000000000000000000000000000000000000000000000000000000000000000000000000000000000000000000000000000000000000000000000000000000000000000000000000000000000000000000000000000",
      "type": "0x2",
      "effectiveGasPrice": "0x684ee1800"
    },
    {
      "transactionHash": "0xfb1b264bdd9639b6a7defa2d3f082415ad2287e87919c7643c207cad751bb6fa",
      "transactionIndex": "0x14",
      "blockHash": "0x6a35aee0992c1bd5136a07e3c585656524ca4526fce12d40bc4568ad508a1894",
      "blockNumber": "0x200f09d",
      "from": "0x7aF234d569aB6360693806D7e7f439Ec2114F93c",
      "to": "0x86d76dcA88B435E9342F0f8A05523BE89c819F3E",
      "cumulativeGasUsed": "0x2e47c3",
      "gasUsed": "0x22aa3",
      "contractAddress": null,
      "logs": [],
      "status": "0x1",
      "logsBloom": "0x00000000000000000000000000000000000000000000000000000000000000000000000000000000000000000000000000000000000000000000000000000000000000000000000000000000000000000000000000000000000000000000000000000000000000000000000000000000000000000000000000000000000000000000000000000000000000000000000000000000000000000000000000000000000000000000000000000000000000000000000000000000000000000000000000000000000000000000000000000000000000000000000000000000000000000000000000000000000000000000000000000000000000000000000000000000",
      "type": "0x2",
      "effectiveGasPrice": "0x684ee1800"
    },
    {
      "transactionHash": "0xf2e1a8c22b4dfca5d8dc545fdbb222b53ba43356de71763a001efab50f628d2c",
      "transactionIndex": "0x15",
      "blockHash": "0x6a35aee0992c1bd5136a07e3c585656524ca4526fce12d40bc4568ad508a1894",
      "blockNumber": "0x200f09d",
      "from": "0x7aF234d569aB6360693806D7e7f439Ec2114F93c",
      "to": "0x86d76dcA88B435E9342F0f8A05523BE89c819F3E",
      "cumulativeGasUsed": "0x307266",
      "gasUsed": "0x22aa3",
      "contractAddress": null,
      "logs": [],
      "status": "0x1",
      "logsBloom": "0x00000000000000000000000000000000000000000000000000000000000000000000000000000000000000000000000000000000000000000000000000000000000000000000000000000000000000000000000000000000000000000000000000000000000000000000000000000000000000000000000000000000000000000000000000000000000000000000000000000000000000000000000000000000000000000000000000000000000000000000000000000000000000000000000000000000000000000000000000000000000000000000000000000000000000000000000000000000000000000000000000000000000000000000000000000000",
      "type": "0x2",
      "effectiveGasPrice": "0x684ee1800"
    },
    {
      "transactionHash": "0xb2d563161bcc5cc3eb1b823fa8b1bc7ede4311f84b202e05b448fc094fe1274c",
      "transactionIndex": "0x16",
      "blockHash": "0x6a35aee0992c1bd5136a07e3c585656524ca4526fce12d40bc4568ad508a1894",
      "blockNumber": "0x200f09d",
      "from": "0x7aF234d569aB6360693806D7e7f439Ec2114F93c",
      "to": "0x86d76dcA88B435E9342F0f8A05523BE89c819F3E",
      "cumulativeGasUsed": "0x329d09",
      "gasUsed": "0x22aa3",
      "contractAddress": null,
      "logs": [],
      "status": "0x1",
      "logsBloom": "0x00000000000000000000000000000000000000000000000000000000000000000000000000000000000000000000000000000000000000000000000000000000000000000000000000000000000000000000000000000000000000000000000000000000000000000000000000000000000000000000000000000000000000000000000000000000000000000000000000000000000000000000000000000000000000000000000000000000000000000000000000000000000000000000000000000000000000000000000000000000000000000000000000000000000000000000000000000000000000000000000000000000000000000000000000000000",
      "type": "0x2",
      "effectiveGasPrice": "0x684ee1800"
    },
    {
      "transactionHash": "0x661386caeb2d69bd01f15caaa5270203c429b02984348b5172f68e686b60cf6f",
      "transactionIndex": "0x17",
      "blockHash": "0x6a35aee0992c1bd5136a07e3c585656524ca4526fce12d40bc4568ad508a1894",
      "blockNumber": "0x200f09d",
      "from": "0x7aF234d569aB6360693806D7e7f439Ec2114F93c",
      "to": "0x86d76dcA88B435E9342F0f8A05523BE89c819F3E",
      "cumulativeGasUsed": "0x3456f1",
      "gasUsed": "0x1b9e8",
      "contractAddress": null,
      "logs": [],
      "status": "0x1",
      "logsBloom": "0x00000000000000000000000000000000000000000000000000000000000000000000000000000000000000000000000000000000000000000000000000000000000000000000000000000000000000000000000000000000000000000000000000000000000000000000000000000000000000000000000000000000000000000000000000000000000000000000000000000000000000000000000000000000000000000000000000000000000000000000000000000000000000000000000000000000000000000000000000000000000000000000000000000000000000000000000000000000000000000000000000000000000000000000000000000000",
      "type": "0x2",
      "effectiveGasPrice": "0x684ee1800"
    },
    {
      "transactionHash": "0xe299060aef665b4dca35f9ee451e56267ab975e5c669db54e01af28af3c23890",
      "transactionIndex": "0x18",
      "blockHash": "0x6a35aee0992c1bd5136a07e3c585656524ca4526fce12d40bc4568ad508a1894",
      "blockNumber": "0x200f09d",
      "from": "0x7aF234d569aB6360693806D7e7f439Ec2114F93c",
      "to": "0x86d76dcA88B435E9342F0f8A05523BE89c819F3E",
      "cumulativeGasUsed": "0x35ce0d",
      "gasUsed": "0x1771c",
      "contractAddress": null,
      "logs": [],
      "status": "0x1",
      "logsBloom": "0x00000000000000000000000000000000000000000000000000000000000000000000000000000000000000000000000000000000000000000000000000000000000000000000000000000000000000000000000000000000000000000000000000000000000000000000000000000000000000000000000000000000000000000000000000000000000000000000000000000000000000000000000000000000000000000000000000000000000000000000000000000000000000000000000000000000000000000000000000000000000000000000000000000000000000000000000000000000000000000000000000000000000000000000000000000000",
      "type": "0x2",
      "effectiveGasPrice": "0x684ee1800"
    },
    {
      "transactionHash": "0x69750a0ac87cd7fef0a65a676bfc85113051e7ca7214a822eeb1967cf83d4e6d",
      "transactionIndex": "0x19",
      "blockHash": "0x6a35aee0992c1bd5136a07e3c585656524ca4526fce12d40bc4568ad508a1894",
      "blockNumber": "0x200f09d",
      "from": "0x7aF234d569aB6360693806D7e7f439Ec2114F93c",
      "to": "0x86d76dcA88B435E9342F0f8A05523BE89c819F3E",
      "cumulativeGasUsed": "0x374529",
      "gasUsed": "0x1771c",
      "contractAddress": null,
      "logs": [],
      "status": "0x1",
      "logsBloom": "0x00000000000000000000000000000000000000000000000000000000000000000000000000000000000000000000000000000000000000000000000000000000000000000000000000000000000000000000000000000000000000000000000000000000000000000000000000000000000000000000000000000000000000000000000000000000000000000000000000000000000000000000000000000000000000000000000000000000000000000000000000000000000000000000000000000000000000000000000000000000000000000000000000000000000000000000000000000000000000000000000000000000000000000000000000000000",
      "type": "0x2",
      "effectiveGasPrice": "0x684ee1800"
    },
    {
      "transactionHash": "0x01315433b35d97ffbdb2d2fc830390ee24141d3218ca7c1584359d80003db6f3",
      "transactionIndex": "0x1a",
      "blockHash": "0x6a35aee0992c1bd5136a07e3c585656524ca4526fce12d40bc4568ad508a1894",
      "blockNumber": "0x200f09d",
      "from": "0x7aF234d569aB6360693806D7e7f439Ec2114F93c",
      "to": "0x86d76dcA88B435E9342F0f8A05523BE89c819F3E",
      "cumulativeGasUsed": "0x38bc45",
      "gasUsed": "0x1771c",
      "contractAddress": null,
      "logs": [],
      "status": "0x1",
      "logsBloom": "0x00000000000000000000000000000000000000000000000000000000000000000000000000000000000000000000000000000000000000000000000000000000000000000000000000000000000000000000000000000000000000000000000000000000000000000000000000000000000000000000000000000000000000000000000000000000000000000000000000000000000000000000000000000000000000000000000000000000000000000000000000000000000000000000000000000000000000000000000000000000000000000000000000000000000000000000000000000000000000000000000000000000000000000000000000000000",
      "type": "0x2",
      "effectiveGasPrice": "0x684ee1800"
    },
    {
      "transactionHash": "0xccab0d3666a1d962b22e24c7ae01551d60a68b8ab77cbdd3c727e7f0ca3d1500",
      "transactionIndex": "0x1b",
      "blockHash": "0x6a35aee0992c1bd5136a07e3c585656524ca4526fce12d40bc4568ad508a1894",
      "blockNumber": "0x200f09d",
      "from": "0x7aF234d569aB6360693806D7e7f439Ec2114F93c",
      "to": "0x86d76dcA88B435E9342F0f8A05523BE89c819F3E",
      "cumulativeGasUsed": "0x3a3361",
      "gasUsed": "0x1771c",
      "contractAddress": null,
      "logs": [],
      "status": "0x1",
      "logsBloom": "0x00000000000000000000000000000000000000000000000000000000000000000000000000000000000000000000000000000000000000000000000000000000000000000000000000000000000000000000000000000000000000000000000000000000000000000000000000000000000000000000000000000000000000000000000000000000000000000000000000000000000000000000000000000000000000000000000000000000000000000000000000000000000000000000000000000000000000000000000000000000000000000000000000000000000000000000000000000000000000000000000000000000000000000000000000000000",
      "type": "0x2",
      "effectiveGasPrice": "0x684ee1800"
    },
    {
      "transactionHash": "0xa5414ee6ce3460af5360f96daa9b834984779e2f3e314afb2b3f2a62ed7dcb10",
      "transactionIndex": "0x1c",
      "blockHash": "0x6a35aee0992c1bd5136a07e3c585656524ca4526fce12d40bc4568ad508a1894",
      "blockNumber": "0x200f09d",
      "from": "0x7aF234d569aB6360693806D7e7f439Ec2114F93c",
      "to": "0x86d76dcA88B435E9342F0f8A05523BE89c819F3E",
      "cumulativeGasUsed": "0x3baa7d",
      "gasUsed": "0x1771c",
      "contractAddress": null,
      "logs": [],
      "status": "0x1",
      "logsBloom": "0x00000000000000000000000000000000000000000000000000000000000000000000000000000000000000000000000000000000000000000000000000000000000000000000000000000000000000000000000000000000000000000000000000000000000000000000000000000000000000000000000000000000000000000000000000000000000000000000000000000000000000000000000000000000000000000000000000000000000000000000000000000000000000000000000000000000000000000000000000000000000000000000000000000000000000000000000000000000000000000000000000000000000000000000000000000000",
      "type": "0x2",
      "effectiveGasPrice": "0x684ee1800"
    },
    {
      "transactionHash": "0x3bb742d80a90756697d17caef1d8fbc2cb4d3c3db263aa7c06b0bfb3b19b292a",
      "transactionIndex": "0x1d",
      "blockHash": "0x6a35aee0992c1bd5136a07e3c585656524ca4526fce12d40bc4568ad508a1894",
      "blockNumber": "0x200f09d",
      "from": "0x7aF234d569aB6360693806D7e7f439Ec2114F93c",
      "to": "0x86d76dcA88B435E9342F0f8A05523BE89c819F3E",
      "cumulativeGasUsed": "0x3c5f85",
      "gasUsed": "0xb508",
      "contractAddress": null,
      "logs": [],
      "status": "0x1",
      "logsBloom": "0x00000000000000000000000000000000000000000000000000000000000000000000000000000000000000000000000000000000000000000000000000000000000000000000000000000000000000000000000000000000000000000000000000000000000000000000000000000000000000000000000000000000000000000000000000000000000000000000000000000000000000000000000000000000000000000000000000000000000000000000000000000000000000000000000000000000000000000000000000000000000000000000000000000000000000000000000000000000000000000000000000000000000000000000000000000000",
      "type": "0x2",
      "effectiveGasPrice": "0x684ee1800"
    },
    {
      "transactionHash": "0x117c98c07239b2ee2e5321c6d54248d8d8df00f3738af32a35afa8a7fcbe2c29",
      "transactionIndex": "0x1e",
      "blockHash": "0x6a35aee0992c1bd5136a07e3c585656524ca4526fce12d40bc4568ad508a1894",
      "blockNumber": "0x200f09d",
      "from": "0x7aF234d569aB6360693806D7e7f439Ec2114F93c",
      "to": "0x86d76dcA88B435E9342F0f8A05523BE89c819F3E",
      "cumulativeGasUsed": "0x3d148d",
      "gasUsed": "0xb508",
      "contractAddress": null,
      "logs": [],
      "status": "0x1",
      "logsBloom": "0x00000000000000000000000000000000000000000000000000000000000000000000000000000000000000000000000000000000000000000000000000000000000000000000000000000000000000000000000000000000000000000000000000000000000000000000000000000000000000000000000000000000000000000000000000000000000000000000000000000000000000000000000000000000000000000000000000000000000000000000000000000000000000000000000000000000000000000000000000000000000000000000000000000000000000000000000000000000000000000000000000000000000000000000000000000000",
      "type": "0x2",
      "effectiveGasPrice": "0x684ee1800"
    },
    {
      "transactionHash": "0xb2b0ed2b7728cf5d867b4db5b985089caa0df9d20b04edad24b2ef86d80bc27b",
      "transactionIndex": "0x1f",
      "blockHash": "0x6a35aee0992c1bd5136a07e3c585656524ca4526fce12d40bc4568ad508a1894",
      "blockNumber": "0x200f09d",
      "from": "0x7aF234d569aB6360693806D7e7f439Ec2114F93c",
      "to": "0x86d76dcA88B435E9342F0f8A05523BE89c819F3E",
      "cumulativeGasUsed": "0x3dc995",
      "gasUsed": "0xb508",
      "contractAddress": null,
      "logs": [],
      "status": "0x1",
      "logsBloom": "0x00000000000000000000000000000000000000000000000000000000000000000000000000000000000000000000000000000000000000000000000000000000000000000000000000000000000000000000000000000000000000000000000000000000000000000000000000000000000000000000000000000000000000000000000000000000000000000000000000000000000000000000000000000000000000000000000000000000000000000000000000000000000000000000000000000000000000000000000000000000000000000000000000000000000000000000000000000000000000000000000000000000000000000000000000000000",
      "type": "0x2",
      "effectiveGasPrice": "0x684ee1800"
    },
    {
      "transactionHash": "0x469733a4382e85267641a26ba8900da64d6c7557a163d83a285cf9fa0a9c6b22",
      "transactionIndex": "0x20",
      "blockHash": "0x6a35aee0992c1bd5136a07e3c585656524ca4526fce12d40bc4568ad508a1894",
      "blockNumber": "0x200f09d",
      "from": "0x7aF234d569aB6360693806D7e7f439Ec2114F93c",
      "to": "0x86d76dcA88B435E9342F0f8A05523BE89c819F3E",
      "cumulativeGasUsed": "0x3e7e9d",
      "gasUsed": "0xb508",
      "contractAddress": null,
      "logs": [],
      "status": "0x1",
      "logsBloom": "0x00000000000000000000000000000000000000000000000000000000000000000000000000000000000000000000000000000000000000000000000000000000000000000000000000000000000000000000000000000000000000000000000000000000000000000000000000000000000000000000000000000000000000000000000000000000000000000000000000000000000000000000000000000000000000000000000000000000000000000000000000000000000000000000000000000000000000000000000000000000000000000000000000000000000000000000000000000000000000000000000000000000000000000000000000000000",
      "type": "0x2",
      "effectiveGasPrice": "0x684ee1800"
    },
    {
      "transactionHash": "0xe32e2aeee2ecb5b55078b1866eff5282f0c65c5b66d5fc2a9afdafd20c6d879e",
      "transactionIndex": "0x21",
      "blockHash": "0x6a35aee0992c1bd5136a07e3c585656524ca4526fce12d40bc4568ad508a1894",
      "blockNumber": "0x200f09d",
      "from": "0x7aF234d569aB6360693806D7e7f439Ec2114F93c",
      "to": "0x86d76dcA88B435E9342F0f8A05523BE89c819F3E",
      "cumulativeGasUsed": "0x3f33a5",
      "gasUsed": "0xb508",
      "contractAddress": null,
      "logs": [],
      "status": "0x1",
      "logsBloom": "0x00000000000000000000000000000000000000000000000000000000000000000000000000000000000000000000000000000000000000000000000000000000000000000000000000000000000000000000000000000000000000000000000000000000000000000000000000000000000000000000000000000000000000000000000000000000000000000000000000000000000000000000000000000000000000000000000000000000000000000000000000000000000000000000000000000000000000000000000000000000000000000000000000000000000000000000000000000000000000000000000000000000000000000000000000000000",
      "type": "0x2",
      "effectiveGasPrice": "0x684ee1800"
    },
    {
      "transactionHash": "0x7dc012027287865f6bfd65e43dff1c50c36e8119ee0597dac14fb11ad731af0a",
      "transactionIndex": "0x22",
      "blockHash": "0x6a35aee0992c1bd5136a07e3c585656524ca4526fce12d40bc4568ad508a1894",
      "blockNumber": "0x200f09d",
      "from": "0x7aF234d569aB6360693806D7e7f439Ec2114F93c",
      "to": "0x86d76dcA88B435E9342F0f8A05523BE89c819F3E",
      "cumulativeGasUsed": "0x3fe8ad",
      "gasUsed": "0xb508",
      "contractAddress": null,
      "logs": [],
      "status": "0x1",
      "logsBloom": "0x00000000000000000000000000000000000000000000000000000000000000000000000000000000000000000000000000000000000000000000000000000000000000000000000000000000000000000000000000000000000000000000000000000000000000000000000000000000000000000000000000000000000000000000000000000000000000000000000000000000000000000000000000000000000000000000000000000000000000000000000000000000000000000000000000000000000000000000000000000000000000000000000000000000000000000000000000000000000000000000000000000000000000000000000000000000",
      "type": "0x2",
      "effectiveGasPrice": "0x684ee1800"
    }
  ],
  "libraries": [
    "src/library/OracleLib.sol:OracleLib:0xae71d3da9d435da6a44a48ea28df9e75fcbaeafa"
  ],
  "pending": [],
  "returns": {
    "mainRouter": {
      "internal_type": "contract MainRouter",
      "value": "0x86d76dcA88B435E9342F0f8A05523BE89c819F3E"
    }
  },
  "timestamp": 1717219597,
  "chain": 43113,
  "multi": false,
  "commit": "d79c3f0"
}