{
  "transactions": [
    {
      "hash": "0x000d9b81c6262d93fcf02a6b7d226d4b87d92f4d4f9166af17e2fcc254aa5f48",
      "transactionType": "CREATE",
      "contractName": "OracleLib",
      "contractAddress": "0xC621BC66a58781B80E64b0754b1555453c9312d8",
      "function": null,
      "arguments": null,
      "transaction": {
        "type": "0x02",
        "from": "0x7af234d569ab6360693806d7e7f439ec2114f93c",
        "gas": "0x41e55",
        "data": "0x6102ca61003a600b82828239805160001a60731461002d57634e487b7160e01b600052600060045260246000fd5b30600052607381538281f3fe730000000000000000000000000000000000000000301460806040526004361061004b5760003560e01c80632ba1c96a1461005057806347096f811461009f578063f56f48f2146100c2575b600080fd5b61006361005e3660046101ce565b6100cb565b6040805169ffffffffffffffffffff968716815260208101959095528401929092526060830152909116608082015260a0015b60405180910390f35b6100b46100ad3660046101ce565b50610e1090565b604051908152602001610096565b6100b4610e1081565b6000806000806000806000806000808a6001600160a01b031663feaf968c6040518163ffffffff1660e01b815260040160a060405180830381865afa158015610118573d6000803e3d6000fd5b505050506040513d601f19601f8201168201806040525081019061013c919061021d565b94509450945094509450816000148061016c57508469ffffffffffffffffffff168169ffffffffffffffffffff16105b1561018a57604051636250849d60e11b815260040160405180910390fd5b6000610196834261026d565b9050610e108111156101bb57604051636250849d60e11b815260040160405180910390fd5b50939a9299509097509550909350915050565b6000602082840312156101e057600080fd5b81356001600160a01b03811681146101f757600080fd5b9392505050565b805169ffffffffffffffffffff8116811461021857600080fd5b919050565b600080600080600060a0868803121561023557600080fd5b61023e866101fe565b9450602086015193506040860151925060608601519150610261608087016101fe565b90509295509295909350565b8181038181111561028e57634e487b7160e01b600052601160045260246000fd5b9291505056fea2646970667358221220da7d00b651f071632e993b6c73e47f444ee12c77636e1629d910159a1cc6a77264736f6c63430008150033",
        "nonce": "0x2b",
        "accessList": []
      },
      "additionalContracts": [],
      "isFixedGasLimit": false
    },
    {
      "hash": "0xfa1ee0f40d8f2e8700b90664d8b5a1a3c900f5963d2ddb52876b32b6c71b7866",
      "transactionType": "CREATE",
      "contractName": "MainRouter",
      "contractAddress": "0x1658727bd2E390837D39c2fffE41e16Dc1D6c27b",
      "function": null,
      "arguments": [
        "0xF694E193200268f9a4868e4Aa017A0118C9a8177",
        "0xA9d587a00A31A52Ed70D6026794a8FC5E2F5dCb0",
        "0x66756e2d6176616c616e6368652d66756a692d31000000000000000000000000"
      ],
      "transaction": {
        "type": "0x02",
        "from": "0x7af234d569ab6360693806d7e7f439ec2114f93c",
        "gas": "0x42c5be",
        "value": "0x0",
        "data": "0x61020060405261010160c081815290620039bd60e039600a90620000249082620001f3565b503480156200003257600080fd5b5060405162003abe38038062003abe8339810160408190526200005591620002dc565b8181843383826001600160a01b0381166200008b576040516335fdcccd60e21b8152600060048201526024015b60405180910390fd5b6001600160a01b0390811660805290811660a0528116620000c357604051631e4fbdf760e01b81526000600482015260240162000082565b620000ce81620000fe565b5050600680546001600160a01b0319166001600160a01b039390931692909217909155600755506200031d915050565b600080546001600160a01b038381166001600160a01b0319831681178455604051919092169283917f8be0079c531659141344cd1fd0a4f28419497f9722a3daafe3b4186f6b6457e09190a35050565b634e487b7160e01b600052604160045260246000fd5b600181811c908216806200017957607f821691505b6020821081036200019a57634e487b7160e01b600052602260045260246000fd5b50919050565b601f821115620001ee57600081815260208120601f850160051c81016020861015620001c95750805b601f850160051c820191505b81811015620001ea57828155600101620001d5565b5050505b505050565b81516001600160401b038111156200020f576200020f6200014e565b620002278162000220845462000164565b84620001a0565b602080601f8311600181146200025f5760008415620002465750858301515b600019600386901b1c1916600185901b178555620001ea565b600085815260208120601f198616915b8281101562000290578886015182559484019460019091019084016200026f565b5085821015620002af5787850151600019600388901b60f8161c191681555b5050505050600190811b01905550565b80516001600160a01b0381168114620002d757600080fd5b919050565b600080600060608486031215620002f257600080fd5b620002fd84620002bf565b92506200030d60208501620002bf565b9150604084015190509250925092565b60805160a0516136656200035860003960008181610a1c0152611fb30152600081816107e601528181610fbe01526118d801526136656000f3fe6080604052600436106102975760003560e01c80638b500ea91161015a578063d348dd50116100c1578063f172010d1161007a578063f172010d146108fa578063f2be45991461091a578063f2fde38b1461092d578063f68016b71461094d578063fa39355f14610986578063ff1aea4a146109a657600080fd5b8063d348dd501461084a578063d58f05da1461086a578063db7bf55a1461088a578063dd406fd5146108aa578063e986b13a146108da578063ef9ab7e71461076757600080fd5b8063aa84600a11610113578063aa84600a14610787578063ac3cda2f146107b7578063b0f479a1146107d7578063c26f5b6e1461080a578063c6b7ac3c14610540578063d02641a01461082a57600080fd5b80638b500ea9146106d35780638da5cb5b146106f35780638dbe7b9d146107115780638e2190fe1461072757806399d25455146107475780639ace5b821461076757600080fd5b8063444810f2116101fe578063644f1aa7116101b7578063644f1aa714610600578063649a05c1146106355780636aa673db14610648578063715018a61461067e57806372757f0b1461069357806385572ffb146106b357600080fd5b8063444810f2146105405780634b52ffb0146105605780634d69d9461461058057806352d84c62146105a05780635d9a2c48146105c057806361b3872b146105e057600080fd5b80631edebf0b116102505780631edebf0b146103db57806328ca8428146103fb578063326cb9171461041b5780633b4d5c6e146104825780633d91079b146104a25780633ed4464b146104f357600080fd5b806301f72884146102c857806301ffc9a7146102fb57806309c1ba2e1461032b57806309fef9d9146103635780630ca76175146103995780631572823c146103bb57600080fd5b366102c35733600090815260126020526040812080543492906102bb90849061287e565b925050819055005b600080fd5b3480156102d457600080fd5b506102e86102e3366004612891565b6109c6565b6040519081526020015b60405180910390f35b34801561030757600080fd5b5061031b6103163660046128b3565b6109db565b60405190151581526020016102f2565b34801561033757600080fd5b5060085461034b906001600160401b031681565b6040516001600160401b0390911681526020016102f2565b34801561036f57600080fd5b506102e861037e3660046128f2565b6001600160a01b03166000908152600c602052604090205490565b3480156103a557600080fd5b506103b96103b4366004612a1c565b610a11565b005b3480156103c757600080fd5b506103b96103d6366004612ab4565b610a95565b3480156103e757600080fd5b506103b96103f6366004612ade565b610afb565b34801561040757600080fd5b506102e8610416366004612af9565b610b26565b34801561042757600080fd5b5061046a610436366004612b12565b6001600160401b039190911660009081526010602090815260408083206001600160a01b0394851684529091529020541690565b6040516001600160a01b0390911681526020016102f2565b34801561048e57600080fd5b506102e861049d366004612b49565b610b5c565b3480156104ae57600080fd5b5061031b6104bd366004612b12565b6001600160401b0382166000908152600e602090815260408083206001600160a01b038516845290915290205460ff1692915050565b3480156104ff57600080fd5b5061052d61050e3660046128f2565b6001600160a01b03166000908152600b602052604090205461ffff1690565b60405161ffff90911681526020016102f2565b34801561054c57600080fd5b506102e861055b366004612b88565b610ca0565b34801561056c57600080fd5b506103b961057b366004612bb4565b610cd3565b34801561058c57600080fd5b506102e861059b3660046128f2565b610d06565b3480156105ac57600080fd5b506103b96105bb366004612bd2565b610d65565b3480156105cc57600080fd5b506103b96105db366004612ab4565b610d98565b3480156105ec57600080fd5b506102e86105fb3660046128f2565b610dcb565b34801561060c57600080fd5b5061062061061b366004612b88565b610def565b604080519283526020830191909152016102f2565b6103b9610643366004612bf8565b610e11565b34801561065457600080fd5b506102e86106633660046128f2565b6001600160a01b031660009081526012602052604090205490565b34801561068a57600080fd5b506103b9610f84565b34801561069f57600080fd5b5061031b6106ae3660046128f2565b610f98565b3480156106bf57600080fd5b506103b96106ce366004612c47565b610fb3565b3480156106df57600080fd5b506102e86106ee3660046128f2565b611012565b3480156106ff57600080fd5b506000546001600160a01b031661046a565b34801561071d57600080fd5b506102e860075481565b34801561073357600080fd5b5061031b6107423660046128f2565b61105a565b34801561075357600080fd5b506103b9610762366004612c81565b61106e565b34801561077357600080fd5b506102e8610782366004612cb5565b611082565b34801561079357600080fd5b5061031b6107a2366004612ade565b60046020526000908152604090205460ff1681565b3480156107c357600080fd5b506102e86107d23660046128f2565b6110c1565b3480156107e357600080fd5b507f000000000000000000000000000000000000000000000000000000000000000061046a565b34801561081657600080fd5b506102e8610825366004612cb5565b6110f3565b34801561083657600080fd5b506102e86108453660046128f2565b611105565b34801561085657600080fd5b506103b9610865366004612b12565b6111cd565b34801561087657600080fd5b5060065461046a906001600160a01b031681565b34801561089657600080fd5b506102e86108a5366004612b88565b6112b0565b3480156108b657600080fd5b5061031b6108c53660046128f2565b60056020526000908152604090205460ff1681565b3480156108e657600080fd5b506103b96108f5366004612cfe565b611325565b34801561090657600080fd5b506106206109153660046128f2565b61140d565b6103b9610928366004612b49565b61142b565b34801561093957600080fd5b506103b96109483660046128f2565b611525565b34801561095957600080fd5b5060085461097190600160401b900463ffffffff1681565b60405163ffffffff90911681526020016102f2565b34801561099257600080fd5b506102e86109a1366004612d2c565b611560565b3480156109b257600080fd5b506102e86109c13660046128f2565b6116c0565b60006109d28383611717565b90505b92915050565b60006001600160e01b031982166385572ffb60e01b14806109d557506001600160e01b031982166301ffc9a760e01b1492915050565b336001600160a01b037f00000000000000000000000000000000000000000000000000000000000000001614610a5a5760405163c6829f8360e01b815260040160405180910390fd5b610a6583838361173e565b60405183907f85e1543bf2f84fe80c6badbce3648c8539ad1df4d2b3d822938ca0538be727e690600090a2505050565b610a9d6117ef565b6001600160401b0382166000908152600360205260409020805460ff19168215801591909117909155610ae357610ade60016001600160401b03841661181c565b505050565b610ade60016001600160401b038416611828565b5050565b610b036117ef565b6008805467ffffffffffffffff19166001600160401b0392909216919091179055565b60006103e882610b486803860e639d80640000680410d586a20a4c0000612db3565b610b529190612dc6565b6109d59190612df3565b6001600160401b0383166000908152600e602090815260408083206001600160a01b03861684529091528120548490849060ff16610bba57818160405163b34279bf60e01b8152600401610bb1929190612e07565b60405180910390fd5b6001600160401b03861660009081526010602090815260408083206001600160a01b03898116855292528083205490516315d0e4b560e11b8152911660048201819052919073c621bc66a58781b80e64b0754b1555453c9312d890632ba1c96a9060240160a060405180830381865af4158015610c3b573d6000803e3d6000fd5b505050506040513d601f19601f82011682018060405250810190610c5f9190612e43565b505050915050670de0b6b3a7640000866402540be40083610c809190612dc6565b610c8a9190612dc6565b610c949190612df3565b98975050505050505050565b6001600160a01b03821660009081526011602090815260408083206001600160401b038516845290915290205492915050565b610cdb6117ef565b6001600160a01b03919091166000908152600560205260409020805460ff1916911515919091179055565b6000600181610d1482611834565b905060005b8161ffff16811015610d5d576000610d31848361183e565b9050610d3d8682610ca0565b610d47908661287e565b9450508080610d5590612e93565b915050610d19565b505050919050565b610d6d6117ef565b6008805463ffffffff909216600160401b026bffffffff000000000000000019909216919091179055565b610da06117ef565b6001600160401b03919091166000908152600460205260409020805460ff1916911515919091179055565b6000806000610dd98461140d565b91509150610de78282611717565b949350505050565b600080610dfc84846112b0565b9150610e088484610ca0565b90509250929050565b6001600160401b0384166000908152600e602090815260408083206001600160a01b03861684529091529020548490839060ff16610e6657818160405163b34279bf60e01b8152600401610bb1929190612e07565b82600003610e875760405163532c969f60e11b815260040160405180910390fd5b3360009081526012602052604081208054349290610ea690849061287e565b9091555050336000908152600d602090815260408083206001600160401b038a16845282528083206001600160a01b038816845290915281208054859290610eef908490612db3565b90915550610efe905033610f98565b610f1b5760405163317416e560e11b815260040160405180910390fd5b604080513360208201526001600160a01b0386168183015260608082018690528251808303909101815260808201909252600091610f5e9183919060a001612f12565b6040516020818303038152906040529050610f7a87878361184a565b5050505050505050565b610f8c6117ef565b610f966000611a2c565b565b6000670de0b6b3a7640000610fac83610dcb565b1192915050565b336001600160a01b037f00000000000000000000000000000000000000000000000000000000000000001614610ffe576040516335fdcccd60e21b8152336004820152602401610bb1565b61100f61100a82612fff565b611a7c565b50565b6001600160a01b0381166000908152600c6020908152604080832054600b909252822054611047916104169161ffff16612db3565b6109d5906803860e639d8064000061287e565b6000670de0b6b3a7640000610fac836110c1565b6110766117ef565b600a610af7828261312b565b6001600160a01b038084166000908152600d602090815260408083206001600160401b03871684528252808320938516835292905220545b9392505050565b6000806110cd83611012565b90506000806110db8561140d565b915091506110ea828285611c57565b95945050505050565b6000610de7838361049d878787611082565b60008060108161111660018261183e565b6001600160401b03168152602080820192909252604090810160009081206001600160a01b03878116835293528181205491516315d0e4b560e11b81529190921660048201819052925073c621bc66a58781b80e64b0754b1555453c9312d890632ba1c96a9060240160a060405180830381865af415801561119c573d6000803e3d6000fd5b505050506040513d601f19601f820116820180604052508101906111c09190612e43565b5091979650505050505050565b6111d56117ef565b6001600160401b0382166000908152600e602090815260408083206001600160a01b03851684529091529020548290829060ff1661122a57818160405163b34279bf60e01b8152600401610bb1929190612e07565b6001600160401b0384166000818152600e602090815260408083206001600160a01b03881684528252808320805460ff19169055928252600f9052206112709084611c75565b5050506001600160401b0390911660009081526010602090815260408083206001600160a01b0390941683529290522080546001600160a01b0319169055565b6001600160401b0381166000908152600f60205260408120816112d282611834565b905060005b8161ffff1681101561131c5760006112ef848361183e565b90506112fc8787836110f3565b611306908661287e565b945050808061131490612e93565b9150506112d7565b50505092915050565b61132d6117ef565b6001600160401b0383166000908152600e602090815260408083206001600160a01b038616845290915290205460ff161561137f578282604051635b764d5760e01b8152600401610bb1929190612e07565b6001600160401b0383166000818152600e602090815260408083206001600160a01b03871684528252808320805460ff19166001179055928252600f9052206113c89083611c8a565b506001600160401b039290921660009081526010602090815260408083206001600160a01b039485168452909152902080546001600160a01b03191691909216179055565b600080611419836116c0565b915061142483610d06565b9050915091565b8060000361144c5760405163532c969f60e11b815260040160405180910390fd5b336000908152601260205260408120805434929061146b90849061287e565b90915550503360009081526011602090815260408083206001600160401b0387168452909152812080548392906114a390849061287e565b909155506114b290503361105a565b6114cf57604051635296a20960e11b815260040160405180910390fd5b60408051336020820152808201839052815180820383018152606082019092526000916115029160019190608001612f12565b604051602081830303815290604052905061151e84848361184a565b5050505050565b61152d6117ef565b6001600160a01b03811661155757604051631e4fbdf760e01b815260006004820152602401610bb1565b61100f81611a2c565b60006115a36040805160e0810190915280600081526020016000815260200160008152602001606081526020016060815260200160608152602001606081525090565b611640600a80546115b3906130ab565b80601f01602080910402602001604051908101604052809291908181526020018280546115df906130ab565b801561162c5780601f106116015761010080835404028352916020019161162c565b820191906000526020600020905b81548152906001019060200180831161160f57829003601f168201915b505050505082611c9f90919063ffffffff16565b821561165a5761165a61165384866131ea565b8290611cac565b61168a61166682611cd6565b6008546007546001600160401b03821691600160401b900463ffffffff1690611fae565b600081815260096020526040902080546001600160a01b0319166001600160a01b03979097169690961790955550929392505050565b60006001816116ce82611834565b905060005b8161ffff16811015610d5d5760006116eb848361183e565b90506116f786826112b0565b611701908661287e565b945050808061170f90612e93565b9150506116d3565b60008160000361172a57506000196109d5565b6109d283836804563918244f400000612080565b60008381526009602052604081205483516001600160a01b0390911691901561176d5761176a8461325d565b90505b61ffff81161561179f576001600160a01b0382166000908152600b60205260409020805461ffff191661ffff83161790555b8061ffff1685836001600160a01b03167f403bdb10ed8dc83f54ba14d3110235f19bfe4f00550a91eda66c81c9c47c9efe87876040516117e0929190613281565b60405180910390a45050505050565b6000546001600160a01b03163314610f965760405163118cdaa760e01b8152336004820152602401610bb1565b60006109d283836120bf565b60006109d2838361210e565b60006109d5825490565b60006109d28383612201565b6001600160401b038316600090815260036020526040812054849060ff1661189057604051630a503cdb60e01b81526001600160401b0382166004820152602401610bb1565b836001600160a01b0381166118b85760405163502ffa3f60e11b815260040160405180910390fd5b60006118c68686600061222b565b6040516320487ded60e01b81529091507f0000000000000000000000000000000000000000000000000000000000000000906000906001600160a01b038316906320487ded9061191c908c9087906004016132a6565b602060405180830381865afa158015611939573d6000803e3d6000fd5b505050506040513d601f19601f8201168201806040525081019061195d919061337f565b336000908152601260205260409020549091508111156119ac57336000908152601260205260409081902054905163d44547cd60e01b8152600481019190915260248101829052604401610bb1565b6040516396f4e9f960e01b81526001600160a01b038316906396f4e9f99083906119dc908d9088906004016132a6565b60206040518083038185885af11580156119fa573d6000803e3d6000fd5b50505050506040513d601f19601f82011682018060405250810190611a1f919061337f565b9998505050505050505050565b600080546001600160a01b038381166001600160a01b0319831681178455604051919092169283917f8be0079c531659141344cd1fd0a4f28419497f9722a3daafe3b4186f6b6457e09190a35050565b80602001518160400151806020019051810190611a999190613398565b6001600160401b03821660009081526004602052604090205460ff16611add576040516326bfad9160e21b81526001600160401b0383166004820152602401610bb1565b6001600160a01b03811660009081526005602052604090205460ff16611b21576040516338c08ef960e11b81526001600160a01b0382166004820152602401610bb1565b6000808460600151806020019051810190611b3c91906133b5565b602087015191935091506000836001811115611b5a57611b5a612eac565b03611bd657600080600084806020019051810190611b789190613445565b6001600160a01b038084166000908152600d602090815260408083206001600160401b038c1684528252808320938616835292905290812080549497509295509093508392611bc890849061287e565b90915550611c4f9350505050565b6001836001811115611bea57611bea612eac565b03611c4f5760008083806020019051810190611c069190613488565b6001600160a01b03821660009081526011602090815260408083206001600160401b0389168452909152812080549395509193508392611c47908490612db3565b909155505050505b505050505050565b600082600003611c6a57506000196110ba565b610de7848484612080565b60006109d2836001600160a01b03841661210e565b60006109d2836001600160a01b0384166120bf565b610af7826000808461234f565b8051600003611cce5760405163fe936cb760e01b815260040160405180910390fd5b60a090910152565b60606000611ce56101006123cd565b9050611d1e6040518060400160405280600c81526020016b31b7b232a637b1b0ba34b7b760a11b815250826123ee90919063ffffffff16565b8251611d3c906002811115611d3557611d35612eac565b8290612407565b6040805180820190915260088152676c616e677561676560c01b6020820152611d669082906123ee565b6040830151611d7d908015611d3557611d35612eac565b604080518082019091526006815265736f7572636560d01b6020820152611da59082906123ee565b6060830151611db59082906123ee565b60a08301515115611e49576040805180820190915260048152636172677360e01b6020820152611de69082906123ee565b611def81612440565b60005b8360a0015151811015611e3f57611e2f8460a001518281518110611e1857611e186134b6565b6020026020010151836123ee90919063ffffffff16565b611e3881612e93565b9050611df2565b50611e4981612464565b60808301515115611f0d57600083602001516002811115611e6c57611e6c612eac565b03611e8a5760405163a80d31f760e01b815260040160405180910390fd5b60408051808201909152600f81526e39b2b1b932ba39a637b1b0ba34b7b760891b6020820152611ebb9082906123ee565b611ed483602001516002811115611d3557611d35612eac565b6040805180820190915260078152667365637265747360c81b6020820152611efd9082906123ee565b6080830151611f0d908290612482565b60c08301515115611fa65760408051808201909152600981526862797465734172677360b81b6020820152611f439082906123ee565b611f4c81612440565b60005b8360c0015151811015611f9c57611f8c8460c001518281518110611f7557611f756134b6565b60200260200101518361248290919063ffffffff16565b611f9581612e93565b9050611f4f565b50611fa681612464565b515192915050565b6000807f00000000000000000000000000000000000000000000000000000000000000006001600160a01b031663461d27628688600188886040518663ffffffff1660e01b81526004016120069594939291906134cc565b6020604051808303816000875af1158015612025573d6000803e3d6000fd5b505050506040513d601f19601f82011682018060405250810190612049919061337f565b60405190915081907f1131472297a800fee664d1d89cfa8f7676ff07189ecc53f80bbb5f4969099db890600090a295945050505050565b600068056bc75e2d631000006120968386612dc6565b6120a09190612df3565b9050826120b5670de0b6b3a764000083612dc6565b610de79190612df3565b6000818152600183016020526040812054612106575081546001818101845560008481526020808220909301849055845484825282860190935260409020919091556109d5565b5060006109d5565b600081815260018301602052604081205480156121f7576000612132600183612db3565b855490915060009061214690600190612db3565b90508082146121ab576000866000018281548110612166576121666134b6565b9060005260206000200154905080876000018481548110612189576121896134b6565b6000918252602080832090910192909255918252600188019052604090208390555b85548690806121bc576121bc613515565b6001900381819060005260206000200160009055905585600101600086815260200190815260200160002060009055600193505050506109d5565b60009150506109d5565b6000826000018281548110612218576122186134b6565b9060005260206000200154905092915050565b6122666040518060a0016040528060608152602001606081526020016060815260200160006001600160a01b03168152602001606081525090565b6040805160a081019091526001600160a01b03851660c08201528060e0810160408051808303601f1901815291815290825260208083018790528151600080825291810183529290910191906122de565b60408051808201909152600080825260208201528152602001906001900390816122b75790505b508152602001836001600160a01b03168152602001612345604051806020016040528062030d4081525060408051915160248084019190915281518084039091018152604490920190526020810180516001600160e01b03166397a657c960e01b17905290565b9052949350505050565b8051600003612371576040516322ce3edd60e01b815260040160405180910390fd5b8383600281111561238457612384612eac565b9081600281111561239757612397612eac565b905250604084018280156123ad576123ad612eac565b908180156123bd576123bd612eac565b9052506060909301929092525050565b6123d5612833565b80516123e1908361248f565b5060006020820152919050565b6123fb8260038351612506565b8151610ade9082612625565b81516124149060c2612646565b50610af7828260405160200161242c91815260200190565b604051602081830303815290604052612482565b61244b8160046126af565b60018160200181815161245e919061287e565b90525050565b61246f8160076126af565b60018160200181815161245e9190612db3565b6123fb8260028351612506565b6040805180820190915260608152600060208201526124af60208361352b565b156124d7576124bf60208361352b565b6124ca906020612db3565b6124d4908361287e565b91505b6020808401839052604051808552600081529081840101818110156124fb57600080fd5b604052509192915050565b6017816001600160401b03161161253257825161252c9060e0600585901b168317612646565b50505050565b60ff816001600160401b03161161257257825161255a906018611fe0600586901b1617612646565b50825161252c906001600160401b03831660016126c6565b61ffff816001600160401b0316116125b357825161259b906019611fe0600586901b1617612646565b50825161252c906001600160401b03831660026126c6565b63ffffffff816001600160401b0316116125f65782516125de90601a611fe0600586901b1617612646565b50825161252c906001600160401b03831660046126c6565b825161260d90601b611fe0600586901b1617612646565b50825161252c906001600160401b03831660086126c6565b6040805180820190915260608152600060208201526109d28383845161274b565b604080518082019091526060815260006020820152825151600061266b82600161287e565b90508460200151821061268c5761268c85612687836002612dc6565b61281c565b84516020838201018581535080518211156126a5578181525b5093949350505050565b8151610ade90601f611fe0600585901b1617612646565b60408051808201909152606081526000602082015283515160006126ea828561287e565b905085602001518111156127075761270786612687836002612dc6565b6000600161271786610100613623565b6127219190612db3565b9050865182810187831982511617815250805183111561273f578281525b50959695505050505050565b604080518082019091526060815260006020820152825182111561276e57600080fd5b835151600061277d848361287e565b9050856020015181111561279a5761279a86612687836002612dc6565b8551805183820160200191600091808511156127b4578482525b505050602086015b602086106127f457805182526127d360208361287e565b91506127e060208261287e565b90506127ed602087612db3565b95506127bc565b51815160001960208890036101000a0190811690199190911617905250849150509392505050565b8151612828838361248f565b5061252c8382612625565b604051806040016040528061285b604051806040016040528060608152602001600081525090565b8152602001600081525090565b634e487b7160e01b600052601160045260246000fd5b808201808211156109d5576109d5612868565b600080604083850312156128a457600080fd5b50508035926020909101359150565b6000602082840312156128c557600080fd5b81356001600160e01b0319811681146110ba57600080fd5b6001600160a01b038116811461100f57600080fd5b60006020828403121561290457600080fd5b81356110ba816128dd565b634e487b7160e01b600052604160045260246000fd5b604080519081016001600160401b03811182821017156129475761294761290f565b60405290565b60405160a081016001600160401b03811182821017156129475761294761290f565b604051601f8201601f191681016001600160401b03811182821017156129975761299761290f565b604052919050565b60006001600160401b038211156129b8576129b861290f565b50601f01601f191660200190565b600082601f8301126129d757600080fd5b81356129ea6129e58261299f565b61296f565b8181528460208386010111156129ff57600080fd5b816020850160208301376000918101602001919091529392505050565b600080600060608486031215612a3157600080fd5b8335925060208401356001600160401b0380821115612a4f57600080fd5b612a5b878388016129c6565b93506040860135915080821115612a7157600080fd5b50612a7e868287016129c6565b9150509250925092565b80356001600160401b0381168114612a9f57600080fd5b919050565b80358015158114612a9f57600080fd5b60008060408385031215612ac757600080fd5b612ad083612a88565b9150610e0860208401612aa4565b600060208284031215612af057600080fd5b6109d282612a88565b600060208284031215612b0b57600080fd5b5035919050565b60008060408385031215612b2557600080fd5b612b2e83612a88565b91506020830135612b3e816128dd565b809150509250929050565b600080600060608486031215612b5e57600080fd5b612b6784612a88565b92506020840135612b77816128dd565b929592945050506040919091013590565b60008060408385031215612b9b57600080fd5b8235612ba6816128dd565b9150610e0860208401612a88565b60008060408385031215612bc757600080fd5b8235612ad0816128dd565b600060208284031215612be457600080fd5b813563ffffffff811681146110ba57600080fd5b60008060008060808587031215612c0e57600080fd5b612c1785612a88565b93506020850135612c27816128dd565b92506040850135612c37816128dd565b9396929550929360600135925050565b600060208284031215612c5957600080fd5b81356001600160401b03811115612c6f57600080fd5b820160a081850312156110ba57600080fd5b600060208284031215612c9357600080fd5b81356001600160401b03811115612ca957600080fd5b610de7848285016129c6565b600080600060608486031215612cca57600080fd5b8335612cd5816128dd565b9250612ce360208501612a88565b91506040840135612cf3816128dd565b809150509250925092565b600080600060608486031215612d1357600080fd5b612d1c84612a88565b92506020840135612ce3816128dd565b600080600060408486031215612d4157600080fd5b8335612d4c816128dd565b925060208401356001600160401b0380821115612d6857600080fd5b818601915086601f830112612d7c57600080fd5b813581811115612d8b57600080fd5b8760208260051b8501011115612da057600080fd5b6020830194508093505050509250925092565b818103818111156109d5576109d5612868565b80820281158282048414176109d5576109d5612868565b634e487b7160e01b600052601260045260246000fd5b600082612e0257612e02612ddd565b500490565b6001600160401b039290921682526001600160a01b0316602082015260400190565b805169ffffffffffffffffffff81168114612a9f57600080fd5b600080600080600060a08688031215612e5b57600080fd5b612e6486612e29565b9450602086015193506040860151925060608601519150612e8760808701612e29565b90509295509295909350565b600060018201612ea557612ea5612868565b5060010190565b634e487b7160e01b600052602160045260246000fd5b60005b83811015612edd578181015183820152602001612ec5565b50506000910152565b60008151808452612efe816020860160208601612ec2565b601f01601f19169290920160200192915050565b600060028410612f3257634e487b7160e01b600052602160045260246000fd5b83825260406020830152610de76040830184612ee6565b60006001600160401b03821115612f6257612f6261290f565b5060051b60200190565b600082601f830112612f7d57600080fd5b81356020612f8d6129e583612f49565b82815260069290921b84018101918181019086841115612fac57600080fd5b8286015b84811015612ff45760408189031215612fc95760008081fd5b612fd1612925565b8135612fdc816128dd565b81528185013585820152835291830191604001612fb0565b509695505050505050565b600060a0823603121561301157600080fd5b61301961294d565b8235815261302960208401612a88565b602082015260408301356001600160401b038082111561304857600080fd5b613054368387016129c6565b6040840152606085013591508082111561306d57600080fd5b613079368387016129c6565b6060840152608085013591508082111561309257600080fd5b5061309f36828601612f6c565b60808301525092915050565b600181811c908216806130bf57607f821691505b6020821081036130df57634e487b7160e01b600052602260045260246000fd5b50919050565b601f821115610ade57600081815260208120601f850160051c8101602086101561310c5750805b601f850160051c820191505b81811015611c4f57828155600101613118565b81516001600160401b038111156131445761314461290f565b6131588161315284546130ab565b846130e5565b602080601f83116001811461318d57600084156131755750858301515b600019600386901b1c1916600185901b178555611c4f565b600085815260208120601f198616915b828110156131bc5788860151825594840194600190910190840161319d565b50858210156131da5787850151600019600388901b60f8161c191681555b5050505050600190811b01905550565b60006131f86129e584612f49565b80848252602080830192508560051b85013681111561321657600080fd5b855b818110156132515780356001600160401b038111156132375760008081fd5b61324336828a016129c6565b865250938201938201613218565b50919695505050505050565b805160208083015191908110156130df5760001960209190910360031b1b16919050565b6040815260006132946040830185612ee6565b82810360208401526110ea8185612ee6565b600060406001600160401b038516835260208181850152845160a0838601526132d260e0860182612ee6565b905081860151603f19808784030160608801526132ef8383612ee6565b88860151888203830160808a01528051808352908601945060009350908501905b8084101561334257845180516001600160a01b0316835286015186830152938501936001939093019290860190613310565b5060608901516001600160a01b031660a08901526080890151888203830160c08a015295506133718187612ee6565b9a9950505050505050505050565b60006020828403121561339157600080fd5b5051919050565b6000602082840312156133aa57600080fd5b81516110ba816128dd565b600080604083850312156133c857600080fd5b8251600281106133d757600080fd5b60208401519092506001600160401b038111156133f357600080fd5b8301601f8101851361340457600080fd5b80516134126129e58261299f565b81815286602083850101111561342757600080fd5b613438826020830160208601612ec2565b8093505050509250929050565b60008060006060848603121561345a57600080fd5b8351613465816128dd565b6020850151909350613476816128dd565b80925050604084015190509250925092565b6000806040838503121561349b57600080fd5b82516134a6816128dd565b6020939093015192949293505050565b634e487b7160e01b600052603260045260246000fd5b6001600160401b038616815260a0602082015260006134ee60a0830187612ee6565b61ffff9590951660408301525063ffffffff92909216606083015260809091015292915050565b634e487b7160e01b600052603160045260246000fd5b60008261353a5761353a612ddd565b500690565b600181815b8085111561357a57816000190482111561356057613560612868565b8085161561356d57918102915b93841c9390800290613544565b509250929050565b600082613591575060016109d5565b8161359e575060006109d5565b81600181146135b457600281146135be576135da565b60019150506109d5565b60ff8411156135cf576135cf612868565b50506001821b6109d5565b5060208310610133831016604e8410600b84101617156135fd575081810a6109d5565b613607838361353f565b806000190482111561361b5761361b612868565b029392505050565b60006109d2838361358256fea264697066735822122046418041c7a1eaa8e1eb01c23027696dfb488474816da415f312dee295b7f6e464736f6c63430008150033636f6e73742075736572203d20617267735b305d3b636f6e737420617069526573706f6e7365203d2061776169742046756e6374696f6e732e6d616b654874747052657175657374287b75726c3a2060687474703a2f2f6c6f63616c686f73743a333030302f6170692f6372656469742f247b757365727d607d293b69662028617069526573706f6e73652e6572726f7229207b7468726f77204572726f72282752657175657374206661696c656427293b7d636f6e7374207b2064617461207d203d20617069526573706f6e73653b72657475726e2046756e6374696f6e732e656e636f646555696e7432353628646174612e637265646974506f696e74293b000000000000000000000000f694e193200268f9a4868e4aa017a0118c9a8177000000000000000000000000a9d587a00a31a52ed70d6026794a8fc5e2f5dcb066756e2d6176616c616e6368652d66756a692d31000000000000000000000000",
        "nonce": "0x2c",
        "accessList": []
      },
      "additionalContracts": [],
      "isFixedGasLimit": false
    },
    {
      "hash": "0xad11ada1c96e55b48ac53b0bd87a82187359f1b3692bcadfcdf8d817beedec1d",
      "transactionType": "CREATE",
      "contractName": null,
      "contractAddress": "0x52840e66FBd701Bb8321d5A11B081b2B646a3dB9",
      "function": null,
      "arguments": null,
      "transaction": {
        "type": "0x02",
        "from": "0x7af234d569ab6360693806d7e7f439ec2114f93c",
        "gas": "0x1a74da",
        "value": "0x0",
        "data": "0x6080604052600c805462ff00ff19166201000117905534801561002157600080fd5b506116bc806100316000396000f3fe608060405234801561001057600080fd5b50600436106104ee5760003560e01c8063a25b465e1161028e578063cafa15c711610167578063ead95284116100d9578063f8cda8ca11610092578063f8cda8ca146109aa578063f8f095dc146104f3578063f9b001e0146109b2578063fa0caf1714610584578063fc2a53d5146109cd578063fcb9a2181461067157600080fd5b8063ead9528414610959578063ef597f7414610569578063f15650c8146105ee578063f1b09fc114610962578063f8caf99b1461096c578063f8ccbf471461098757600080fd5b8063d806acb71161012b578063d806acb7146108f9578063d863fcc81461054e578063d8dab1f714610914578063d8ea3d241461092f578063da960d27146105ee578063de88e9151461094a57600080fd5b8063cafa15c714610722578063cb62cfbd146105ee578063cdf686df146105ee578063d043bf9c146108c3578063d7a6ead8146108de57600080fd5b8063afed4d8c11610200578063c0406226116101c4578063c0406226146108a4578063c132cda7146108ac578063c1cbe749146108bb578063c43b6b001461073d578063c714ff6f14610722578063c95a43691461054e57600080fd5b8063afed4d8c14610857578063b5b3774f14610866578063be0084301461086e578063bf1344db146104f3578063bfaa4aad1461088957600080fd5b8063abe914dd11610252578063abe914dd146107fe578063ac659d1d1461054e578063acec0a6914610819578063acfaf34d14610845578063ad9f2db21461084f578063ae0267091461063b57600080fd5b8063a25b465e146107be578063a25bc479146107d9578063a882305214610671578063a95d644314610722578063aa826920146107e357600080fd5b80635556b32a116103cb5780636c619a081161033d5780638f3f1561116102f65780638f3f15611461056957806393ea3c791461067157806394c965451461073d5780639acd72a1146105ee578063a06e2b1f14610788578063a08fc322146107a357600080fd5b80636c619a08146105ba5780636ece09491461076d578063709e1ba6146105ee578063811db762146105ee57806386862bc5146104f3578063888117e21461058457600080fd5b806360f0ff8e1161038f57806360f0ff8e14610722578063616258fc1461073d57806363c7b8001461073d578063669ac34f146105ee57806367fee2811461075857806368567e71146105ee57600080fd5b80635556b32a146106b6578063573864c4146106d15780635878d5fe146106ec5780635932b5db146105ee5780635ba1a94e1461070757600080fd5b80632b7076a0116104645780633e49331d116104285780633e49331d1461065657806343ac40df146105ee57806349377bd7146106715780634c47f1881461068c5780634d1b22f81461058457806350e2f2361461069b57600080fd5b80632b7076a0146105f65780632f3a3fa61461061157806331e8ae5d146105ee57806334f594361461062c5780633cad3fc11461063b57600080fd5b806313643d0a116104b657806313643d0a1461059f57806315d99206146105ba57806316b3d6fa146105d55780631fab59fb146105e457806329da731e146105ee5780632b4c59db1461056957600080fd5b8063033130f2146104f357806304c4a7b31461052b5780630c4c526c1461054e5780630f011ded146105695780630ff859d614610584575b600080fd5b61050e7332b8f75d2ac926a0a906f24df3e8fe2ba17bd80a81565b6040516001600160a01b0390911681526020015b60405180910390f35b61053562aa36a781565b60405167ffffffffffffffff9091168152602001610522565b61050e73dff5ba9fcff83ce455e45de7572b6259b0e7d7de81565b61050e73f6905f1e4ad86f8c3a1ebfca3e04a9e4d2addd0d81565b61050e7375b86d7b224fd88f785bb5fac5e261d9efde304781565b61050e73114a20a10b43d4115e5aeef7345a1a71d2a60c5781565b61050e737898accc83587c3c55116c5230c17a6cd9c71bad81565b610535678f90b8876dee653881565b61053562066eee81565b61050e600081565b61050e73b3718e52781f9fc1c0b72a2966c2616e6d962a1c81565b61050e733001d62ebc86ab3a4ef91afed766bb70182e251c81565b61053567e1f4423f1bf587cd81565b61050e7334c4c526902d88a3aa98db8a9b802603eb1e347081565b61050e737b219f57a8e9c7303204af681e9fa69d17ef626f81565b61050e739a24bd7833859d2364ead5a4af4b16799693df1281565b61053567ccf0a31a221f3c9b81565b61050e735724b4cc39a9690135f7273b44dfd3ba6c0c69ad81565b61050e730804bfec3ef24bc6ca0eb399d108cc0313d86d9c81565b61050e7331cf013a08c6ac228c94551d535d5bafe19c602a81565b61050e73aca1ea8547e247a3125da273b16c17badc4f081281565b61050e739124d3b5dfd072bb2d6cf3e3a59430d2a5d8a55d81565b61050e73e257e2a67407144c918acad5e11c2582f77c0b1a81565b61050e73244ec7f5753b2fc10d0c2baab1ab55850e73a3ab81565b6107606109d5565b60405161052291906115f6565b61050e73d28f8454873ceb4de41d537257044510c3a1d61681565b61050e738bb16bedbfd62d1f905ace8dbbf2954c8eeb4f6681565b61050e736cc55345982d82e3e6dc704a64cdbd58a6421b7a81565b61050e73dd36fb413b4470ab5ce67f975c6a2b192e6f84ba81565b61053562aa37dc81565b61050e739c32fcb86bf0f4a1a8921a9fe46de3198bb884b281565b61050e7365ae0010421814b1303778bc82a599f63028d89981565b6108377366756e2d6176616c616e6368652d66756a692d3160601b81565b604051908152602001610522565b6105356201388281565b610760610b9a565b61053567de41ba4fc9d91ad981565b610760610d5f565b61050e73620476fe1bc36a37530b416b7d658024d5966b0881565b61050e7386d67c3d38d2bcee722e601025c25a575021c6ea81565b610760610f24565b6105356748810ec3e431431f81565b610760610fa5565b61050e73492e85cd024a271c4f19d8b7e9050ef2bbfedcca81565b61050e7351353bfb9fb8bae6d70b896401937c64e96bacb981565b61050e7331a4ae750c0e8d477dd39af3662f93e69021aa5081565b61050e73f694e193200268f9a4868e4aa017a0118c9a817781565b61050e73d3b06cebf099ce7da4accf578aaebfdbd6e88a9381565b61053567304611b6affba76a81565b61053561a86981565b61053562014a3481565b61050e73a9d587a00a31a52ed70d6026794a8fc5e2f5dcb081565b600c5461099a9062010000900460ff1681565b6040519015158152602001610522565b61076061116a565b61050e734aa3b1639d45cb98a67790b8509e47bd7aa16d2a81565b61076061132f565b6109dd6114f4565b604080516060808201835267e1f4423f1bf587cd80835273f6905f1e4ad86f8c3a1ebfca3e04a9e4d2addd0d6020808501919091527331cf013a08c6ac228c94551d535d5bafe19c602a8486015292855283518083018552818152739a24bd7833859d2364ead5a4af4b16799693df12818501527386d67c3d38d2bcee722e601025c25a575021c6ea81860152858401528351808301855281815273244ec7f5753b2fc10d0c2baab1ab55850e73a3ab818501527334c4c526902d88a3aa98db8a9b802603eb1e3470818601819052868601919091528451808401865282815273e257e2a67407144c918acad5e11c2582f77c0b1a818601528086019190915285830152835180830185528181527332b8f75d2ac926a0a906f24df3e8fe2ba17bd80a81850152737b219f57a8e9c7303204af681e9fa69d17ef626f8186015260808601528351808301855281815273dff5ba9fcff83ce455e45de7572b6259b0e7d7de81850152737898accc83587c3c55116c5230c17a6cd9c71bad81860181905260a0870191909152845192830185529082527375b86d7b224fd88f785bb5fac5e261d9efde3047928201929092529182015260c082015290565b610ba26114f4565b6040805160608082018352678f90b8876dee653880835273f6905f1e4ad86f8c3a1ebfca3e04a9e4d2addd0d6020808501919091527331cf013a08c6ac228c94551d535d5bafe19c602a8486015292855283518083018552818152739a24bd7833859d2364ead5a4af4b16799693df12818501527386d67c3d38d2bcee722e601025c25a575021c6ea81860152858401528351808301855281815273244ec7f5753b2fc10d0c2baab1ab55850e73a3ab818501527334c4c526902d88a3aa98db8a9b802603eb1e3470818601819052868601919091528451808401865282815273e257e2a67407144c918acad5e11c2582f77c0b1a818601528086019190915285830152835180830185528181527332b8f75d2ac926a0a906f24df3e8fe2ba17bd80a81850152737b219f57a8e9c7303204af681e9fa69d17ef626f8186015260808601528351808301855281815273dff5ba9fcff83ce455e45de7572b6259b0e7d7de81850152737898accc83587c3c55116c5230c17a6cd9c71bad81860181905260a0870191909152845192830185529082527375b86d7b224fd88f785bb5fac5e261d9efde3047928201929092529182015260c082015290565b610d676114f4565b604080516060808201835267de41ba4fc9d91ad9808352734aa3b1639d45cb98a67790b8509e47bd7aa16d2a6020808501919091527331cf013a08c6ac228c94551d535d5bafe19c602a8486015292855283518083018552818152739124d3b5dfd072bb2d6cf3e3a59430d2a5d8a55d818501527386d67c3d38d2bcee722e601025c25a575021c6ea8186015285840152835180830185528181527331a4ae750c0e8d477dd39af3662f93e69021aa50818501527334c4c526902d88a3aa98db8a9b802603eb1e3470818601819052868601919091528451808401865282815273dd36fb413b4470ab5ce67f975c6a2b192e6f84ba8186015280860191909152858301528351808301855281815273492e85cd024a271c4f19d8b7e9050ef2bbfedcca81850152737b219f57a8e9c7303204af681e9fa69d17ef626f818601526080860152835180830185528181527365ae0010421814b1303778bc82a599f63028d89981850152737898accc83587c3c55116c5230c17a6cd9c71bad81860181905260a08701919091528451928301855290825273b3718e52781f9fc1c0b72a2966c2616e6d962a1c928201929092529182015260c082015290565b610f2c6114f4565b61a868194601610f4357610f3e61132f565b905090565b62aa36a6194601610f5657610f3e610d5f565b62066eed194601610f6957610f3e61116a565b62013881194601610f7c57610f3e6109d5565b62014a33194601610f8f57610f3e610b9a565b62aa37db194601610fa257610f3e610fa5565b90565b610fad6114f4565b60408051606080820183526748810ec3e431431f80835273f6905f1e4ad86f8c3a1ebfca3e04a9e4d2addd0d6020808501919091527331cf013a08c6ac228c94551d535d5bafe19c602a8486015292855283518083018552818152739a24bd7833859d2364ead5a4af4b16799693df12818501527386d67c3d38d2bcee722e601025c25a575021c6ea81860152858401528351808301855281815273244ec7f5753b2fc10d0c2baab1ab55850e73a3ab818501527334c4c526902d88a3aa98db8a9b802603eb1e3470818601819052868601919091528451808401865282815273e257e2a67407144c918acad5e11c2582f77c0b1a818601528086019190915285830152835180830185528181527332b8f75d2ac926a0a906f24df3e8fe2ba17bd80a81850152737b219f57a8e9c7303204af681e9fa69d17ef626f8186015260808601528351808301855281815273dff5ba9fcff83ce455e45de7572b6259b0e7d7de81850152737898accc83587c3c55116c5230c17a6cd9c71bad81860181905260a0870191909152845192830185529082527375b86d7b224fd88f785bb5fac5e261d9efde3047928201929092529182015260c082015290565b6111726114f4565b604080516060808201835267304611b6affba76a80835273f6905f1e4ad86f8c3a1ebfca3e04a9e4d2addd0d6020808501919091527331cf013a08c6ac228c94551d535d5bafe19c602a8486015292855283518083018552818152739a24bd7833859d2364ead5a4af4b16799693df12818501527386d67c3d38d2bcee722e601025c25a575021c6ea81860152858401528351808301855281815273244ec7f5753b2fc10d0c2baab1ab55850e73a3ab818501527334c4c526902d88a3aa98db8a9b802603eb1e3470818601819052868601919091528451808401865282815273e257e2a67407144c918acad5e11c2582f77c0b1a818601528086019190915285830152835180830185528181527332b8f75d2ac926a0a906f24df3e8fe2ba17bd80a81850152737b219f57a8e9c7303204af681e9fa69d17ef626f8186015260808601528351808301855281815273dff5ba9fcff83ce455e45de7572b6259b0e7d7de81850152737898accc83587c3c55116c5230c17a6cd9c71bad81860181905260a0870191909152845192830185529082527375b86d7b224fd88f785bb5fac5e261d9efde3047928201929092529182015260c082015290565b6113376114f4565b604080516060808201835267ccf0a31a221f3c9b808352730804bfec3ef24bc6ca0eb399d108cc0313d86d9c6020808501919091527331cf013a08c6ac228c94551d535d5bafe19c602a84860152928552835180830185528181527351353bfb9fb8bae6d70b896401937c64e96bacb9818501527386d67c3d38d2bcee722e601025c25a575021c6ea818601528584015283518083018552818152733001d62ebc86ab3a4ef91afed766bb70182e251c818501527334c4c526902d88a3aa98db8a9b802603eb1e3470818601819052868601919091528451808401865282815273d28f8454873ceb4de41d537257044510c3a1d61681860152808601919091528583015283518083018552818152736cc55345982d82e3e6dc704a64cdbd58a6421b7a81850152737b219f57a8e9c7303204af681e9fa69d17ef626f8186015260808601528351808301855281815273620476fe1bc36a37530b416b7d658024d5966b0881850152737898accc83587c3c55116c5230c17a6cd9c71bad81860181905260a08701919091528451928301855290825273aca1ea8547e247a3125da273b16c17badc4f0812928201929092529182015260c082015290565b6040805161014081018252600060e08201818152610100830182905261012083018290528252825160608082018552828252602080830184905282860184905280850192909252845180820186528381528083018490528086018490528486015284518082018652838152808301849052808601849052818501528451808201865283815280830184905280860184905260808501528451808201865283815280830184905280860184905260a0850152845190810185528281529081018290529283015260c081019190915290565b805167ffffffffffffffff1682526020808201516001600160a01b039081169184019190915260409182015116910152565b60006102a08201905061160a8284516115c4565b602083015161161c60608401826115c4565b50604083015161162f60c08401826115c4565b5060608301516116436101208401826115c4565b5060808301516116576101808401826115c4565b5060a083015161166b6101e08401826115c4565b5060c083015161167f6102408401826115c4565b509291505056fea2646970667358221220e97f2b9ee7f2202cc154a6f317f72f098bc287a89050ba995ef99ea0401d93db64736f6c63430008150033",
        "nonce": "0x2d",
        "accessList": []
      },
      "additionalContracts": [],
      "isFixedGasLimit": false
    },
    {
      "hash": "0xdabf3c4ecffe37b94543b0609ad3872a703ff87fc70ea829f4cd3fb97cfbb722",
      "transactionType": "CALL",
      "contractName": "MainRouter",
      "contractAddress": "0x1658727bd2E390837D39c2fffE41e16Dc1D6c27b",
      "function": "addAllowedToken(uint64,address,address)",
      "arguments": [
        "14767482510784806043",
        "0x0804BfEC3ef24bc6CA0eb399D108CC0313d86d9c",
        "0x31CF013A08c6Ac228C94551d535d5BAfE19c602a"
      ],
      "transaction": {
        "type": "0x02",
        "from": "0x7af234d569ab6360693806d7e7f439ec2114f93c",
        "to": "0x1658727bd2e390837d39c2fffe41e16dc1d6c27b",
        "gas": "0x2e102",
        "value": "0x0",
        "data": "0xe986b13a000000000000000000000000000000000000000000000000ccf0a31a221f3c9b0000000000000000000000000804bfec3ef24bc6ca0eb399d108cc0313d86d9c00000000000000000000000031cf013a08c6ac228c94551d535d5bafe19c602a",
        "nonce": "0x2e",
        "accessList": []
      },
      "additionalContracts": [],
      "isFixedGasLimit": false
    },
    {
      "hash": "0xeca91366693cc7828b59f8a0d5b652f778e6ddd7337d996cff458df8dbeccc05",
      "transactionType": "CALL",
      "contractName": "MainRouter",
      "contractAddress": "0x1658727bd2E390837D39c2fffE41e16Dc1D6c27b",
      "function": "addAllowedToken(uint64,address,address)",
      "arguments": [
        "14767482510784806043",
        "0x51353BFb9fB8baE6d70b896401937C64E96BAcB9",
        "0x86d67c3D38D2bCeE722E601025C25a575021c6EA"
      ],
      "transaction": {
        "type": "0x02",
        "from": "0x7af234d569ab6360693806d7e7f439ec2114f93c",
        "to": "0x1658727bd2e390837d39c2fffe41e16dc1d6c27b",
        "gas": "0x2aaac",
        "value": "0x0",
        "data": "0xe986b13a000000000000000000000000000000000000000000000000ccf0a31a221f3c9b00000000000000000000000051353bfb9fb8bae6d70b896401937c64e96bacb900000000000000000000000086d67c3d38d2bcee722e601025c25a575021c6ea",
        "nonce": "0x2f",
        "accessList": []
      },
      "additionalContracts": [],
      "isFixedGasLimit": false
    },
    {
      "hash": "0x7638b54e9c10a34cd502e46126bf62810e6270af949cefdca021dddaecb2223c",
      "transactionType": "CALL",
      "contractName": "MainRouter",
      "contractAddress": "0x1658727bd2E390837D39c2fffE41e16Dc1D6c27b",
      "function": "addAllowedToken(uint64,address,address)",
      "arguments": [
        "14767482510784806043",
        "0x3001d62eBc86ab3A4eF91aFed766BB70182e251c",
        "0x34C4c526902d88a3Aa98DB8a9b802603EB1E3470"
      ],
      "transaction": {
        "type": "0x02",
        "from": "0x7af234d569ab6360693806d7e7f439ec2114f93c",
        "to": "0x1658727bd2e390837d39c2fffe41e16dc1d6c27b",
        "gas": "0x2aaac",
        "value": "0x0",
        "data": "0xe986b13a000000000000000000000000000000000000000000000000ccf0a31a221f3c9b0000000000000000000000003001d62ebc86ab3a4ef91afed766bb70182e251c00000000000000000000000034c4c526902d88a3aa98db8a9b802603eb1e3470",
        "nonce": "0x30",
        "accessList": []
      },
      "additionalContracts": [],
      "isFixedGasLimit": false
    },
    {
      "hash": "0x49a1902948bc6e11a85a3a8743d55bc0bb04629f9b515ca7a051473d89e2e7ef",
      "transactionType": "CALL",
      "contractName": "MainRouter",
      "contractAddress": "0x1658727bd2E390837D39c2fffE41e16Dc1D6c27b",
      "function": "addAllowedToken(uint64,address,address)",
      "arguments": [
        "14767482510784806043",
        "0xD28f8454873CEb4de41d537257044510c3A1d616",
        "0x34C4c526902d88a3Aa98DB8a9b802603EB1E3470"
      ],
      "transaction": {
        "type": "0x02",
        "from": "0x7af234d569ab6360693806d7e7f439ec2114f93c",
        "to": "0x1658727bd2e390837d39c2fffe41e16dc1d6c27b",
        "gas": "0x2aaac",
        "value": "0x0",
        "data": "0xe986b13a000000000000000000000000000000000000000000000000ccf0a31a221f3c9b000000000000000000000000d28f8454873ceb4de41d537257044510c3a1d61600000000000000000000000034c4c526902d88a3aa98db8a9b802603eb1e3470",
        "nonce": "0x31",
        "accessList": []
      },
      "additionalContracts": [],
      "isFixedGasLimit": false
    },
    {
      "hash": "0x8d92aeab70cafe7743aa955d8717db0d6501c713ece67eac664ed506877a41ac",
      "transactionType": "CALL",
      "contractName": "MainRouter",
      "contractAddress": "0x1658727bd2E390837D39c2fffE41e16Dc1D6c27b",
      "function": "addAllowedToken(uint64,address,address)",
      "arguments": [
        "14767482510784806043",
        "0x6cC55345982d82e3E6dC704a64cdbD58a6421b7A",
        "0x7b219F57a8e9C7303204Af681e9fA69d17ef626f"
      ],
      "transaction": {
        "type": "0x02",
        "from": "0x7af234d569ab6360693806d7e7f439ec2114f93c",
        "to": "0x1658727bd2e390837d39c2fffe41e16dc1d6c27b",
        "gas": "0x2aaac",
        "value": "0x0",
        "data": "0xe986b13a000000000000000000000000000000000000000000000000ccf0a31a221f3c9b0000000000000000000000006cc55345982d82e3e6dc704a64cdbd58a6421b7a0000000000000000000000007b219f57a8e9c7303204af681e9fa69d17ef626f",
        "nonce": "0x32",
        "accessList": []
      },
      "additionalContracts": [],
      "isFixedGasLimit": false
    },
    {
      "hash": "0xe15a94c976c1bb59b3aee5d75e06b3bf74e93a79b4a21678a1a86eba241120be",
      "transactionType": "CALL",
      "contractName": "MainRouter",
      "contractAddress": "0x1658727bd2E390837D39c2fffE41e16Dc1D6c27b",
      "function": "addAllowedToken(uint64,address,address)",
      "arguments": [
        "14767482510784806043",
        "0x620476fe1Bc36a37530b416B7d658024D5966b08",
        "0x7898AcCC83587C3C55116c5230C17a6Cd9C71bad"
      ],
      "transaction": {
        "type": "0x02",
        "from": "0x7af234d569ab6360693806d7e7f439ec2114f93c",
        "to": "0x1658727bd2e390837d39c2fffe41e16dc1d6c27b",
        "gas": "0x2aaac",
        "value": "0x0",
        "data": "0xe986b13a000000000000000000000000000000000000000000000000ccf0a31a221f3c9b000000000000000000000000620476fe1bc36a37530b416b7d658024d5966b080000000000000000000000007898accc83587c3c55116c5230c17a6cd9c71bad",
        "nonce": "0x33",
        "accessList": []
      },
      "additionalContracts": [],
      "isFixedGasLimit": false
    },
    {
      "hash": "0x05b9dd9c14d140744b51164d187e4dc607d90130c372afdd8dc435801c53b99f",
      "transactionType": "CALL",
      "contractName": "MainRouter",
      "contractAddress": "0x1658727bd2E390837D39c2fffE41e16Dc1D6c27b",
      "function": "addAllowedToken(uint64,address,address)",
      "arguments": [
        "14767482510784806043",
        "0xAcA1eA8547E247a3125Da273b16C17Badc4f0812",
        "0x7898AcCC83587C3C55116c5230C17a6Cd9C71bad"
      ],
      "transaction": {
        "type": "0x02",
        "from": "0x7af234d569ab6360693806d7e7f439ec2114f93c",
        "to": "0x1658727bd2e390837d39c2fffe41e16dc1d6c27b",
        "gas": "0x2aaac",
        "value": "0x0",
        "data": "0xe986b13a000000000000000000000000000000000000000000000000ccf0a31a221f3c9b000000000000000000000000aca1ea8547e247a3125da273b16c17badc4f08120000000000000000000000007898accc83587c3c55116c5230c17a6cd9c71bad",
        "nonce": "0x34",
        "accessList": []
      },
      "additionalContracts": [],
      "isFixedGasLimit": false
    },
    {
      "hash": "0x0f98e30da3905ff91f9f2427e779ff0269dfb5e1896dab2f59bd82b6eb03f030",
      "transactionType": "CALL",
      "contractName": "MainRouter",
      "contractAddress": "0x1658727bd2E390837D39c2fffE41e16Dc1D6c27b",
      "function": "addAllowedToken(uint64,address,address)",
      "arguments": [
        "16015286601757825753",
        "0x4aa3B1639d45Cb98a67790b8509E47bD7aa16D2A",
        "0x31CF013A08c6Ac228C94551d535d5BAfE19c602a"
      ],
      "transaction": {
        "type": "0x02",
        "from": "0x7af234d569ab6360693806d7e7f439ec2114f93c",
        "to": "0x1658727bd2e390837d39c2fffe41e16dc1d6c27b",
        "gas": "0x2e102",
        "value": "0x0",
        "data": "0xe986b13a000000000000000000000000000000000000000000000000de41ba4fc9d91ad90000000000000000000000004aa3b1639d45cb98a67790b8509e47bd7aa16d2a00000000000000000000000031cf013a08c6ac228c94551d535d5bafe19c602a",
        "nonce": "0x35",
        "accessList": []
      },
      "additionalContracts": [],
      "isFixedGasLimit": false
    },
    {
      "hash": "0xb2f3143a6ca297a5ad08245481f6896c79e9d169b0c79a31280d6aafb8b621dd",
      "transactionType": "CALL",
      "contractName": "MainRouter",
      "contractAddress": "0x1658727bd2E390837D39c2fffE41e16Dc1D6c27b",
      "function": "addAllowedToken(uint64,address,address)",
      "arguments": [
        "16015286601757825753",
        "0x9124d3b5DfD072bB2d6cf3e3A59430d2a5D8A55D",
        "0x86d67c3D38D2bCeE722E601025C25a575021c6EA"
      ],
      "transaction": {
        "type": "0x02",
        "from": "0x7af234d569ab6360693806d7e7f439ec2114f93c",
        "to": "0x1658727bd2e390837d39c2fffe41e16dc1d6c27b",
        "gas": "0x2aaac",
        "value": "0x0",
        "data": "0xe986b13a000000000000000000000000000000000000000000000000de41ba4fc9d91ad90000000000000000000000009124d3b5dfd072bb2d6cf3e3a59430d2a5d8a55d00000000000000000000000086d67c3d38d2bcee722e601025c25a575021c6ea",
        "nonce": "0x36",
        "accessList": []
      },
      "additionalContracts": [],
      "isFixedGasLimit": false
    },
    {
      "hash": "0x4cebc01c6f4dbba8797ff0e4940dff7f340d946eac11dbf54e59747b554ddd0f",
      "transactionType": "CALL",
      "contractName": "MainRouter",
      "contractAddress": "0x1658727bd2E390837D39c2fffE41e16Dc1D6c27b",
      "function": "addAllowedToken(uint64,address,address)",
      "arguments": [
        "16015286601757825753",
        "0x31A4Ae750C0e8d477Dd39AF3662F93e69021AA50",
        "0x34C4c526902d88a3Aa98DB8a9b802603EB1E3470"
      ],
      "transaction": {
        "type": "0x02",
        "from": "0x7af234d569ab6360693806d7e7f439ec2114f93c",
        "to": "0x1658727bd2e390837d39c2fffe41e16dc1d6c27b",
        "gas": "0x2aaac",
        "value": "0x0",
        "data": "0xe986b13a000000000000000000000000000000000000000000000000de41ba4fc9d91ad900000000000000000000000031a4ae750c0e8d477dd39af3662f93e69021aa5000000000000000000000000034c4c526902d88a3aa98db8a9b802603eb1e3470",
        "nonce": "0x37",
        "accessList": []
      },
      "additionalContracts": [],
      "isFixedGasLimit": false
    },
    {
      "hash": "0x84ae1c56ce0cf39825b593ce33361ae256dbaaffc7ba77dc4f289a18b63555c3",
      "transactionType": "CALL",
      "contractName": "MainRouter",
      "contractAddress": "0x1658727bd2E390837D39c2fffE41e16Dc1D6c27b",
      "function": "addAllowedToken(uint64,address,address)",
      "arguments": [
        "16015286601757825753",
        "0xdd36FB413B4470ab5CE67F975c6A2B192e6F84ba",
        "0x34C4c526902d88a3Aa98DB8a9b802603EB1E3470"
      ],
      "transaction": {
        "type": "0x02",
        "from": "0x7af234d569ab6360693806d7e7f439ec2114f93c",
        "to": "0x1658727bd2e390837d39c2fffe41e16dc1d6c27b",
        "gas": "0x2aaac",
        "value": "0x0",
        "data": "0xe986b13a000000000000000000000000000000000000000000000000de41ba4fc9d91ad9000000000000000000000000dd36fb413b4470ab5ce67f975c6a2b192e6f84ba00000000000000000000000034c4c526902d88a3aa98db8a9b802603eb1e3470",
        "nonce": "0x38",
        "accessList": []
      },
      "additionalContracts": [],
      "isFixedGasLimit": false
    },
    {
      "hash": "0xf973c0df1101caf5a114c7749bdacb3e644bfffa9cea6d6fb9cd199fb40724ac",
      "transactionType": "CALL",
      "contractName": "MainRouter",
      "contractAddress": "0x1658727bd2E390837D39c2fffE41e16Dc1D6c27b",
      "function": "addAllowedToken(uint64,address,address)",
      "arguments": [
        "16015286601757825753",
        "0x492E85cD024A271C4F19d8B7E9050Ef2bbFeDcCA",
        "0x7b219F57a8e9C7303204Af681e9fA69d17ef626f"
      ],
      "transaction": {
        "type": "0x02",
        "from": "0x7af234d569ab6360693806d7e7f439ec2114f93c",
        "to": "0x1658727bd2e390837d39c2fffe41e16dc1d6c27b",
        "gas": "0x2aaac",
        "value": "0x0",
        "data": "0xe986b13a000000000000000000000000000000000000000000000000de41ba4fc9d91ad9000000000000000000000000492e85cd024a271c4f19d8b7e9050ef2bbfedcca0000000000000000000000007b219f57a8e9c7303204af681e9fa69d17ef626f",
        "nonce": "0x39",
        "accessList": []
      },
      "additionalContracts": [],
      "isFixedGasLimit": false
    },
    {
      "hash": "0x604e3fe39af2f59cb2678da61ad59df0e0acc2859401bf10bbf4dc3a950e83ff",
      "transactionType": "CALL",
      "contractName": "MainRouter",
      "contractAddress": "0x1658727bd2E390837D39c2fffE41e16Dc1D6c27b",
      "function": "addAllowedToken(uint64,address,address)",
      "arguments": [
        "16015286601757825753",
        "0x65Ae0010421814B1303778Bc82a599f63028d899",
        "0x7898AcCC83587C3C55116c5230C17a6Cd9C71bad"
      ],
      "transaction": {
        "type": "0x02",
        "from": "0x7af234d569ab6360693806d7e7f439ec2114f93c",
        "to": "0x1658727bd2e390837d39c2fffe41e16dc1d6c27b",
        "gas": "0x284ad",
        "value": "0x0",
        "data": "0xe986b13a000000000000000000000000000000000000000000000000de41ba4fc9d91ad900000000000000000000000065ae0010421814b1303778bc82a599f63028d8990000000000000000000000007898accc83587c3c55116c5230c17a6cd9c71bad",
        "nonce": "0x3a",
        "accessList": []
      },
      "additionalContracts": [],
      "isFixedGasLimit": false
    },
    {
      "hash": "0x24deb5ab18b90fcc0f87e5caef102310231633526a4513bdc5629aa55cf60c3a",
      "transactionType": "CALL",
      "contractName": "MainRouter",
      "contractAddress": "0x1658727bd2E390837D39c2fffE41e16Dc1D6c27b",
      "function": "addAllowedToken(uint64,address,address)",
      "arguments": [
        "16015286601757825753",
        "0xB3718E52781F9Fc1C0b72A2966C2616E6d962a1C",
        "0x7898AcCC83587C3C55116c5230C17a6Cd9C71bad"
      ],
      "transaction": {
        "type": "0x02",
        "from": "0x7af234d569ab6360693806d7e7f439ec2114f93c",
        "to": "0x1658727bd2e390837d39c2fffe41e16dc1d6c27b",
        "gas": "0x2aaac",
        "value": "0x0",
        "data": "0xe986b13a000000000000000000000000000000000000000000000000de41ba4fc9d91ad9000000000000000000000000b3718e52781f9fc1c0b72a2966c2616e6d962a1c0000000000000000000000007898accc83587c3c55116c5230c17a6cd9c71bad",
        "nonce": "0x3b",
        "accessList": []
      },
      "additionalContracts": [],
      "isFixedGasLimit": false
    },
    {
      "hash": "0x4784886f200c2811f79c51c23074a88712c6e3544b2ef955b5c52e267dfe039f",
      "transactionType": "CALL",
      "contractName": "MainRouter",
      "contractAddress": "0x1658727bd2E390837D39c2fffE41e16Dc1D6c27b",
      "function": "addAllowedToken(uint64,address,address)",
      "arguments": [
        "16281711391670634445",
        "0xF6905F1E4ad86f8C3a1Ebfca3E04a9e4d2adDD0D",
        "0x31CF013A08c6Ac228C94551d535d5BAfE19c602a"
      ],
      "transaction": {
        "type": "0x02",
        "from": "0x7af234d569ab6360693806d7e7f439ec2114f93c",
        "to": "0x1658727bd2e390837d39c2fffe41e16dc1d6c27b",
        "gas": "0x2e102",
        "value": "0x0",
        "data": "0xe986b13a000000000000000000000000000000000000000000000000e1f4423f1bf587cd000000000000000000000000f6905f1e4ad86f8c3a1ebfca3e04a9e4d2addd0d00000000000000000000000031cf013a08c6ac228c94551d535d5bafe19c602a",
        "nonce": "0x3c",
        "accessList": []
      },
      "additionalContracts": [],
      "isFixedGasLimit": false
    },
    {
      "hash": "0xbe8561274417d162c992b986e61b15e12c24ed9a531a234e4cb8d08675031d15",
      "transactionType": "CALL",
      "contractName": "MainRouter",
      "contractAddress": "0x1658727bd2E390837D39c2fffE41e16Dc1D6c27b",
      "function": "addAllowedToken(uint64,address,address)",
      "arguments": [
        "16281711391670634445",
        "0x9a24BD7833859d2364EaD5A4aF4b16799693DF12",
        "0x86d67c3D38D2bCeE722E601025C25a575021c6EA"
      ],
      "transaction": {
        "type": "0x02",
        "from": "0x7af234d569ab6360693806d7e7f439ec2114f93c",
        "to": "0x1658727bd2e390837d39c2fffe41e16dc1d6c27b",
        "gas": "0x2aaac",
        "value": "0x0",
        "data": "0xe986b13a000000000000000000000000000000000000000000000000e1f4423f1bf587cd0000000000000000000000009a24bd7833859d2364ead5a4af4b16799693df1200000000000000000000000086d67c3d38d2bcee722e601025c25a575021c6ea",
        "nonce": "0x3d",
        "accessList": []
      },
      "additionalContracts": [],
      "isFixedGasLimit": false
    },
    {
      "hash": "0x813005faf1522ca8477b370bd5f6e875b7e47ef74c2f02c54d3da654c359b900",
      "transactionType": "CALL",
      "contractName": "MainRouter",
      "contractAddress": "0x1658727bd2E390837D39c2fffE41e16Dc1D6c27b",
      "function": "addAllowedToken(uint64,address,address)",
      "arguments": [
        "16281711391670634445",
        "0x244ec7F5753b2Fc10d0C2bAaB1AB55850E73a3AB",
        "0x34C4c526902d88a3Aa98DB8a9b802603EB1E3470"
      ],
      "transaction": {
        "type": "0x02",
        "from": "0x7af234d569ab6360693806d7e7f439ec2114f93c",
        "to": "0x1658727bd2e390837d39c2fffe41e16dc1d6c27b",
        "gas": "0x2aaac",
        "value": "0x0",
        "data": "0xe986b13a000000000000000000000000000000000000000000000000e1f4423f1bf587cd000000000000000000000000244ec7f5753b2fc10d0c2baab1ab55850e73a3ab00000000000000000000000034c4c526902d88a3aa98db8a9b802603eb1e3470",
        "nonce": "0x3e",
        "accessList": []
      },
      "additionalContracts": [],
      "isFixedGasLimit": false
    },
    {
      "hash": "0x811101fa7e86e7ac78658c3557220085dc9be4e4cb300e824be8f3284acb732e",
      "transactionType": "CALL",
      "contractName": "MainRouter",
      "contractAddress": "0x1658727bd2E390837D39c2fffE41e16Dc1D6c27b",
      "function": "addAllowedToken(uint64,address,address)",
      "arguments": [
        "16281711391670634445",
        "0xe257e2a67407144C918acaD5e11c2582F77c0B1a",
        "0x34C4c526902d88a3Aa98DB8a9b802603EB1E3470"
      ],
      "transaction": {
        "type": "0x02",
        "from": "0x7af234d569ab6360693806d7e7f439ec2114f93c",
        "to": "0x1658727bd2e390837d39c2fffe41e16dc1d6c27b",
        "gas": "0x2aaac",
        "value": "0x0",
        "data": "0xe986b13a000000000000000000000000000000000000000000000000e1f4423f1bf587cd000000000000000000000000e257e2a67407144c918acad5e11c2582f77c0b1a00000000000000000000000034c4c526902d88a3aa98db8a9b802603eb1e3470",
        "nonce": "0x3f",
        "accessList": []
      },
      "additionalContracts": [],
      "isFixedGasLimit": false
    },
    {
      "hash": "0x448774da5ae446f84a1705063e634e25abdc7bf93b7ce054dc4da61536c61226",
      "transactionType": "CALL",
      "contractName": "MainRouter",
      "contractAddress": "0x1658727bd2E390837D39c2fffE41e16Dc1D6c27b",
      "function": "addAllowedToken(uint64,address,address)",
      "arguments": [
        "16281711391670634445",
        "0x32B8F75d2AC926a0a906F24df3e8Fe2bA17Bd80a",
        "0x7b219F57a8e9C7303204Af681e9fA69d17ef626f"
      ],
      "transaction": {
        "type": "0x02",
        "from": "0x7af234d569ab6360693806d7e7f439ec2114f93c",
        "to": "0x1658727bd2e390837d39c2fffe41e16dc1d6c27b",
        "gas": "0x2aaac",
        "value": "0x0",
        "data": "0xe986b13a000000000000000000000000000000000000000000000000e1f4423f1bf587cd00000000000000000000000032b8f75d2ac926a0a906f24df3e8fe2ba17bd80a0000000000000000000000007b219f57a8e9c7303204af681e9fa69d17ef626f",
        "nonce": "0x40",
        "accessList": []
      },
      "additionalContracts": [],
      "isFixedGasLimit": false
    },
    {
      "hash": "0x9fdc1768a6b55367a8d6b9e95818d49c26190e91179e05365bb0636837d67ccd",
      "transactionType": "CALL",
      "contractName": "MainRouter",
      "contractAddress": "0x1658727bd2E390837D39c2fffE41e16Dc1D6c27b",
      "function": "addAllowedToken(uint64,address,address)",
      "arguments": [
        "16281711391670634445",
        "0xDFf5Ba9FCff83cE455e45De7572B6259b0E7D7dE",
        "0x7898AcCC83587C3C55116c5230C17a6Cd9C71bad"
      ],
      "transaction": {
        "type": "0x02",
        "from": "0x7af234d569ab6360693806d7e7f439ec2114f93c",
        "to": "0x1658727bd2e390837d39c2fffe41e16dc1d6c27b",
        "gas": "0x2aaac",
        "value": "0x0",
        "data": "0xe986b13a000000000000000000000000000000000000000000000000e1f4423f1bf587cd000000000000000000000000dff5ba9fcff83ce455e45de7572b6259b0e7d7de0000000000000000000000007898accc83587c3c55116c5230c17a6cd9c71bad",
        "nonce": "0x41",
        "accessList": []
      },
      "additionalContracts": [],
      "isFixedGasLimit": false
    },
    {
      "hash": "0x0c7725845f6327996e1f79f280daf4c1ed0deb4bbf2aa02fc2b355451b0f7f65",
      "transactionType": "CALL",
      "contractName": "MainRouter",
      "contractAddress": "0x1658727bd2E390837D39c2fffE41e16Dc1D6c27b",
      "function": "addAllowedToken(uint64,address,address)",
      "arguments": [
        "16281711391670634445",
        "0x75b86D7B224Fd88f785BB5FaC5e261D9EFde3047",
        "0x7898AcCC83587C3C55116c5230C17a6Cd9C71bad"
      ],
      "transaction": {
        "type": "0x02",
        "from": "0x7af234d569ab6360693806d7e7f439ec2114f93c",
        "to": "0x1658727bd2e390837d39c2fffe41e16dc1d6c27b",
        "gas": "0x2aaac",
        "value": "0x0",
        "data": "0xe986b13a000000000000000000000000000000000000000000000000e1f4423f1bf587cd00000000000000000000000075b86d7b224fd88f785bb5fac5e261d9efde30470000000000000000000000007898accc83587c3c55116c5230c17a6cd9c71bad",
        "nonce": "0x42",
        "accessList": []
      },
      "additionalContracts": [],
      "isFixedGasLimit": false
    },
    {
      "hash": "0x0d91ea484ed9a10139a9e178f1ff225894f79257fca3cf50154b92c3ec3da27b",
      "transactionType": "CALL",
      "contractName": "MainRouter",
      "contractAddress": "0x1658727bd2E390837D39c2fffE41e16Dc1D6c27b",
      "function": "addAllowedToken(uint64,address,address)",
      "arguments": [
        "10344971235874465080",
        "0xF6905F1E4ad86f8C3a1Ebfca3E04a9e4d2adDD0D",
        "0x31CF013A08c6Ac228C94551d535d5BAfE19c602a"
      ],
      "transaction": {
        "type": "0x02",
        "from": "0x7af234d569ab6360693806d7e7f439ec2114f93c",
        "to": "0x1658727bd2e390837d39c2fffe41e16dc1d6c27b",
        "gas": "0x2e102",
        "value": "0x0",
        "data": "0xe986b13a0000000000000000000000000000000000000000000000008f90b8876dee6538000000000000000000000000f6905f1e4ad86f8c3a1ebfca3e04a9e4d2addd0d00000000000000000000000031cf013a08c6ac228c94551d535d5bafe19c602a",
        "nonce": "0x43",
        "accessList": []
      },
      "additionalContracts": [],
      "isFixedGasLimit": false
    },
    {
      "hash": "0x9289957212d7d3a322bad9db9a7083595a4445ec1c49749f1c8c81759c4a63d3",
      "transactionType": "CALL",
      "contractName": "MainRouter",
      "contractAddress": "0x1658727bd2E390837D39c2fffE41e16Dc1D6c27b",
      "function": "addAllowedToken(uint64,address,address)",
      "arguments": [
        "10344971235874465080",
        "0x9a24BD7833859d2364EaD5A4aF4b16799693DF12",
        "0x86d67c3D38D2bCeE722E601025C25a575021c6EA"
      ],
      "transaction": {
        "type": "0x02",
        "from": "0x7af234d569ab6360693806d7e7f439ec2114f93c",
        "to": "0x1658727bd2e390837d39c2fffe41e16dc1d6c27b",
        "gas": "0x2aaac",
        "value": "0x0",
        "data": "0xe986b13a0000000000000000000000000000000000000000000000008f90b8876dee65380000000000000000000000009a24bd7833859d2364ead5a4af4b16799693df1200000000000000000000000086d67c3d38d2bcee722e601025c25a575021c6ea",
        "nonce": "0x44",
        "accessList": []
      },
      "additionalContracts": [],
      "isFixedGasLimit": false
    },
    {
      "hash": "0x38653c03562e896a82299d0f95a6af4621a58b75980dc956a535a6280e0bb1f2",
      "transactionType": "CALL",
      "contractName": "MainRouter",
      "contractAddress": "0x1658727bd2E390837D39c2fffE41e16Dc1D6c27b",
      "function": "addAllowedToken(uint64,address,address)",
      "arguments": [
        "10344971235874465080",
        "0x244ec7F5753b2Fc10d0C2bAaB1AB55850E73a3AB",
        "0x34C4c526902d88a3Aa98DB8a9b802603EB1E3470"
      ],
      "transaction": {
        "type": "0x02",
        "from": "0x7af234d569ab6360693806d7e7f439ec2114f93c",
        "to": "0x1658727bd2e390837d39c2fffe41e16dc1d6c27b",
        "gas": "0x2aaac",
        "value": "0x0",
        "data": "0xe986b13a0000000000000000000000000000000000000000000000008f90b8876dee6538000000000000000000000000244ec7f5753b2fc10d0c2baab1ab55850e73a3ab00000000000000000000000034c4c526902d88a3aa98db8a9b802603eb1e3470",
        "nonce": "0x45",
        "accessList": []
      },
      "additionalContracts": [],
      "isFixedGasLimit": false
    },
    {
      "hash": "0x755584426a41a26f960fa6af89d837e3b3e7ef5805926973a0551613a3dcddaf",
      "transactionType": "CALL",
      "contractName": "MainRouter",
      "contractAddress": "0x1658727bd2E390837D39c2fffE41e16Dc1D6c27b",
      "function": "addAllowedToken(uint64,address,address)",
      "arguments": [
        "10344971235874465080",
        "0xe257e2a67407144C918acaD5e11c2582F77c0B1a",
        "0x34C4c526902d88a3Aa98DB8a9b802603EB1E3470"
      ],
      "transaction": {
        "type": "0x02",
        "from": "0x7af234d569ab6360693806d7e7f439ec2114f93c",
        "to": "0x1658727bd2e390837d39c2fffe41e16dc1d6c27b",
        "gas": "0x2aaac",
        "value": "0x0",
        "data": "0xe986b13a0000000000000000000000000000000000000000000000008f90b8876dee6538000000000000000000000000e257e2a67407144c918acad5e11c2582f77c0b1a00000000000000000000000034c4c526902d88a3aa98db8a9b802603eb1e3470",
        "nonce": "0x46",
        "accessList": []
      },
      "additionalContracts": [],
      "isFixedGasLimit": false
    },
    {
      "hash": "0xb6a411b3d7ebdb8648be70b15e1045fff9ed9ec054dd8f5df65b8b3526d1a466",
      "transactionType": "CALL",
      "contractName": "MainRouter",
      "contractAddress": "0x1658727bd2E390837D39c2fffE41e16Dc1D6c27b",
      "function": "addAllowedToken(uint64,address,address)",
      "arguments": [
        "10344971235874465080",
        "0x32B8F75d2AC926a0a906F24df3e8Fe2bA17Bd80a",
        "0x7b219F57a8e9C7303204Af681e9fA69d17ef626f"
      ],
      "transaction": {
        "type": "0x02",
        "from": "0x7af234d569ab6360693806d7e7f439ec2114f93c",
        "to": "0x1658727bd2e390837d39c2fffe41e16dc1d6c27b",
        "gas": "0x2aaac",
        "value": "0x0",
        "data": "0xe986b13a0000000000000000000000000000000000000000000000008f90b8876dee653800000000000000000000000032b8f75d2ac926a0a906f24df3e8fe2ba17bd80a0000000000000000000000007b219f57a8e9c7303204af681e9fa69d17ef626f",
        "nonce": "0x47",
        "accessList": []
      },
      "additionalContracts": [],
      "isFixedGasLimit": false
    },
    {
      "hash": "0x44f48b2e2c21172bad7f782dd64a0aac5672de655b576c8337477eb493af39c4",
      "transactionType": "CALL",
      "contractName": "MainRouter",
      "contractAddress": "0x1658727bd2E390837D39c2fffE41e16Dc1D6c27b",
      "function": "addAllowedToken(uint64,address,address)",
      "arguments": [
        "10344971235874465080",
        "0xDFf5Ba9FCff83cE455e45De7572B6259b0E7D7dE",
        "0x7898AcCC83587C3C55116c5230C17a6Cd9C71bad"
      ],
      "transaction": {
        "type": "0x02",
        "from": "0x7af234d569ab6360693806d7e7f439ec2114f93c",
        "to": "0x1658727bd2e390837d39c2fffe41e16dc1d6c27b",
        "gas": "0x2aaac",
        "value": "0x0",
        "data": "0xe986b13a0000000000000000000000000000000000000000000000008f90b8876dee6538000000000000000000000000dff5ba9fcff83ce455e45de7572b6259b0e7d7de0000000000000000000000007898accc83587c3c55116c5230c17a6cd9c71bad",
        "nonce": "0x48",
        "accessList": []
      },
      "additionalContracts": [],
      "isFixedGasLimit": false
    },
    {
      "hash": "0xc99fd48907d7192a83b19f11b25ad844f58a1c74bba3b5d66fc21216779e0ee1",
      "transactionType": "CALL",
      "contractName": "MainRouter",
      "contractAddress": "0x1658727bd2E390837D39c2fffE41e16Dc1D6c27b",
      "function": "addAllowedToken(uint64,address,address)",
      "arguments": [
        "10344971235874465080",
        "0x75b86D7B224Fd88f785BB5FaC5e261D9EFde3047",
        "0x7898AcCC83587C3C55116c5230C17a6Cd9C71bad"
      ],
      "transaction": {
        "type": "0x02",
        "from": "0x7af234d569ab6360693806d7e7f439ec2114f93c",
        "to": "0x1658727bd2e390837d39c2fffe41e16dc1d6c27b",
        "gas": "0x2aaac",
        "value": "0x0",
        "data": "0xe986b13a0000000000000000000000000000000000000000000000008f90b8876dee653800000000000000000000000075b86d7b224fd88f785bb5fac5e261d9efde30470000000000000000000000007898accc83587c3c55116c5230c17a6cd9c71bad",
        "nonce": "0x49",
        "accessList": []
      },
      "additionalContracts": [],
      "isFixedGasLimit": false
    },
    {
      "hash": "0xf59e83cd93c30b44a3ac7e89d27f73118ca135fb4593df491e032ea073d7e393",
      "transactionType": "CALL",
      "contractName": "MainRouter",
      "contractAddress": "0x1658727bd2E390837D39c2fffE41e16Dc1D6c27b",
      "function": "addAllowedToken(uint64,address,address)",
      "arguments": [
        "5224473277236331295",
        "0xF6905F1E4ad86f8C3a1Ebfca3E04a9e4d2adDD0D",
        "0x31CF013A08c6Ac228C94551d535d5BAfE19c602a"
      ],
      "transaction": {
        "type": "0x02",
        "from": "0x7af234d569ab6360693806d7e7f439ec2114f93c",
        "to": "0x1658727bd2e390837d39c2fffe41e16dc1d6c27b",
        "gas": "0x2e102",
        "value": "0x0",
        "data": "0xe986b13a00000000000000000000000000000000000000000000000048810ec3e431431f000000000000000000000000f6905f1e4ad86f8c3a1ebfca3e04a9e4d2addd0d00000000000000000000000031cf013a08c6ac228c94551d535d5bafe19c602a",
        "nonce": "0x4a",
        "accessList": []
      },
      "additionalContracts": [],
      "isFixedGasLimit": false
    },
    {
      "hash": "0xe844b9543e8eec0fc7ca0a6538f18024d3690f56161a8eab278e573d41c22dbd",
      "transactionType": "CALL",
      "contractName": "MainRouter",
      "contractAddress": "0x1658727bd2E390837D39c2fffE41e16Dc1D6c27b",
      "function": "addAllowedToken(uint64,address,address)",
      "arguments": [
        "5224473277236331295",
        "0x9a24BD7833859d2364EaD5A4aF4b16799693DF12",
        "0x86d67c3D38D2bCeE722E601025C25a575021c6EA"
      ],
      "transaction": {
        "type": "0x02",
        "from": "0x7af234d569ab6360693806d7e7f439ec2114f93c",
        "to": "0x1658727bd2e390837d39c2fffe41e16dc1d6c27b",
        "gas": "0x2aaac",
        "value": "0x0",
        "data": "0xe986b13a00000000000000000000000000000000000000000000000048810ec3e431431f0000000000000000000000009a24bd7833859d2364ead5a4af4b16799693df1200000000000000000000000086d67c3d38d2bcee722e601025c25a575021c6ea",
        "nonce": "0x4b",
        "accessList": []
      },
      "additionalContracts": [],
      "isFixedGasLimit": false
    },
    {
      "hash": "0x272f7f4bc36085e1fb28359fddf50b560e8d9a3f78cfed241afa18c10dc129e9",
      "transactionType": "CALL",
      "contractName": "MainRouter",
      "contractAddress": "0x1658727bd2E390837D39c2fffE41e16Dc1D6c27b",
      "function": "addAllowedToken(uint64,address,address)",
      "arguments": [
        "5224473277236331295",
        "0x244ec7F5753b2Fc10d0C2bAaB1AB55850E73a3AB",
        "0x34C4c526902d88a3Aa98DB8a9b802603EB1E3470"
      ],
      "transaction": {
        "type": "0x02",
        "from": "0x7af234d569ab6360693806d7e7f439ec2114f93c",
        "to": "0x1658727bd2e390837d39c2fffe41e16dc1d6c27b",
        "gas": "0x2aaac",
        "value": "0x0",
        "data": "0xe986b13a00000000000000000000000000000000000000000000000048810ec3e431431f000000000000000000000000244ec7f5753b2fc10d0c2baab1ab55850e73a3ab00000000000000000000000034c4c526902d88a3aa98db8a9b802603eb1e3470",
        "nonce": "0x4c",
        "accessList": []
      },
      "additionalContracts": [],
      "isFixedGasLimit": false
    },
    {
      "hash": "0xf2fcb542382ffa0dde40d305b40fe4c5cc0f63941e1e84fafcb5fc8479f2a822",
      "transactionType": "CALL",
      "contractName": "MainRouter",
      "contractAddress": "0x1658727bd2E390837D39c2fffE41e16Dc1D6c27b",
      "function": "addAllowedToken(uint64,address,address)",
      "arguments": [
        "5224473277236331295",
        "0xe257e2a67407144C918acaD5e11c2582F77c0B1a",
        "0x34C4c526902d88a3Aa98DB8a9b802603EB1E3470"
      ],
      "transaction": {
        "type": "0x02",
        "from": "0x7af234d569ab6360693806d7e7f439ec2114f93c",
        "to": "0x1658727bd2e390837d39c2fffe41e16dc1d6c27b",
        "gas": "0x2aaac",
        "value": "0x0",
        "data": "0xe986b13a00000000000000000000000000000000000000000000000048810ec3e431431f000000000000000000000000e257e2a67407144c918acad5e11c2582f77c0b1a00000000000000000000000034c4c526902d88a3aa98db8a9b802603eb1e3470",
        "nonce": "0x4d",
        "accessList": []
      },
      "additionalContracts": [],
      "isFixedGasLimit": false
    },
    {
      "hash": "0xa64b3f625fa5f0fc6c7dc1eb98070010ce7a615358286431f145e2e42d448746",
      "transactionType": "CALL",
      "contractName": "MainRouter",
      "contractAddress": "0x1658727bd2E390837D39c2fffE41e16Dc1D6c27b",
      "function": "addAllowedToken(uint64,address,address)",
      "arguments": [
        "5224473277236331295",
        "0x32B8F75d2AC926a0a906F24df3e8Fe2bA17Bd80a",
        "0x7b219F57a8e9C7303204Af681e9fA69d17ef626f"
      ],
      "transaction": {
        "type": "0x02",
        "from": "0x7af234d569ab6360693806d7e7f439ec2114f93c",
        "to": "0x1658727bd2e390837d39c2fffe41e16dc1d6c27b",
        "gas": "0x2aaac",
        "value": "0x0",
        "data": "0xe986b13a00000000000000000000000000000000000000000000000048810ec3e431431f00000000000000000000000032b8f75d2ac926a0a906f24df3e8fe2ba17bd80a0000000000000000000000007b219f57a8e9c7303204af681e9fa69d17ef626f",
        "nonce": "0x4e",
        "accessList": []
      },
      "additionalContracts": [],
      "isFixedGasLimit": false
    },
    {
      "hash": "0x37dad99137f75d800b57be67cbef33bc598b0f8f366b8ea0374fcb8299460208",
      "transactionType": "CALL",
      "contractName": "MainRouter",
      "contractAddress": "0x1658727bd2E390837D39c2fffE41e16Dc1D6c27b",
      "function": "addAllowedToken(uint64,address,address)",
      "arguments": [
        "5224473277236331295",
        "0xDFf5Ba9FCff83cE455e45De7572B6259b0E7D7dE",
        "0x7898AcCC83587C3C55116c5230C17a6Cd9C71bad"
      ],
      "transaction": {
        "type": "0x02",
        "from": "0x7af234d569ab6360693806d7e7f439ec2114f93c",
        "to": "0x1658727bd2e390837d39c2fffe41e16dc1d6c27b",
        "gas": "0x2aaac",
        "value": "0x0",
        "data": "0xe986b13a00000000000000000000000000000000000000000000000048810ec3e431431f000000000000000000000000dff5ba9fcff83ce455e45de7572b6259b0e7d7de0000000000000000000000007898accc83587c3c55116c5230c17a6cd9c71bad",
        "nonce": "0x4f",
        "accessList": []
      },
      "additionalContracts": [],
      "isFixedGasLimit": false
    },
    {
      "hash": "0x32553990f4024bd84ba682eee09172af3bd8b17fc9e61cd78f06f8b421ff04a0",
      "transactionType": "CALL",
      "contractName": "MainRouter",
      "contractAddress": "0x1658727bd2E390837D39c2fffE41e16Dc1D6c27b",
      "function": "addAllowedToken(uint64,address,address)",
      "arguments": [
        "5224473277236331295",
        "0x75b86D7B224Fd88f785BB5FaC5e261D9EFde3047",
        "0x7898AcCC83587C3C55116c5230C17a6Cd9C71bad"
      ],
      "transaction": {
        "type": "0x02",
        "from": "0x7af234d569ab6360693806d7e7f439ec2114f93c",
        "to": "0x1658727bd2e390837d39c2fffe41e16dc1d6c27b",
        "gas": "0x2aaac",
        "value": "0x0",
        "data": "0xe986b13a00000000000000000000000000000000000000000000000048810ec3e431431f00000000000000000000000075b86d7b224fd88f785bb5fac5e261d9efde30470000000000000000000000007898accc83587c3c55116c5230c17a6cd9c71bad",
        "nonce": "0x50",
        "accessList": []
      },
      "additionalContracts": [],
      "isFixedGasLimit": false
    },
    {
      "hash": "0xa5621834b0fef3b46578072cf7806d9fa2007aae0d5c42b35304e912569470a9",
      "transactionType": "CALL",
      "contractName": "MainRouter",
      "contractAddress": "0x1658727bd2E390837D39c2fffE41e16Dc1D6c27b",
      "function": "addAllowedToken(uint64,address,address)",
      "arguments": [
        "3478487238524512106",
        "0xF6905F1E4ad86f8C3a1Ebfca3E04a9e4d2adDD0D",
        "0x31CF013A08c6Ac228C94551d535d5BAfE19c602a"
      ],
      "transaction": {
        "type": "0x02",
        "from": "0x7af234d569ab6360693806d7e7f439ec2114f93c",
        "to": "0x1658727bd2e390837d39c2fffe41e16dc1d6c27b",
        "gas": "0x2e102",
        "value": "0x0",
        "data": "0xe986b13a000000000000000000000000000000000000000000000000304611b6affba76a000000000000000000000000f6905f1e4ad86f8c3a1ebfca3e04a9e4d2addd0d00000000000000000000000031cf013a08c6ac228c94551d535d5bafe19c602a",
        "nonce": "0x51",
        "accessList": []
      },
      "additionalContracts": [],
      "isFixedGasLimit": false
    },
    {
      "hash": "0xb6dafc608bfc60933e2e1f2bee3ddf5ae8264b88a834afc36a7e6c7bce91b626",
      "transactionType": "CALL",
      "contractName": "MainRouter",
      "contractAddress": "0x1658727bd2E390837D39c2fffE41e16Dc1D6c27b",
      "function": "addAllowedToken(uint64,address,address)",
      "arguments": [
        "3478487238524512106",
        "0x9a24BD7833859d2364EaD5A4aF4b16799693DF12",
        "0x86d67c3D38D2bCeE722E601025C25a575021c6EA"
      ],
      "transaction": {
        "type": "0x02",
        "from": "0x7af234d569ab6360693806d7e7f439ec2114f93c",
        "to": "0x1658727bd2e390837d39c2fffe41e16dc1d6c27b",
        "gas": "0x2aaac",
        "value": "0x0",
        "data": "0xe986b13a000000000000000000000000000000000000000000000000304611b6affba76a0000000000000000000000009a24bd7833859d2364ead5a4af4b16799693df1200000000000000000000000086d67c3d38d2bcee722e601025c25a575021c6ea",
        "nonce": "0x52",
        "accessList": []
      },
      "additionalContracts": [],
      "isFixedGasLimit": false
    },
    {
      "hash": "0x9c8d17cfccfc5e533f499940a8a85c9cf2d69d81639780b7d772659a4ac73857",
      "transactionType": "CALL",
      "contractName": "MainRouter",
      "contractAddress": "0x1658727bd2E390837D39c2fffE41e16Dc1D6c27b",
      "function": "addAllowedToken(uint64,address,address)",
      "arguments": [
        "3478487238524512106",
        "0x244ec7F5753b2Fc10d0C2bAaB1AB55850E73a3AB",
        "0x34C4c526902d88a3Aa98DB8a9b802603EB1E3470"
      ],
      "transaction": {
        "type": "0x02",
        "from": "0x7af234d569ab6360693806d7e7f439ec2114f93c",
        "to": "0x1658727bd2e390837d39c2fffe41e16dc1d6c27b",
        "gas": "0x2aaac",
        "value": "0x0",
        "data": "0xe986b13a000000000000000000000000000000000000000000000000304611b6affba76a000000000000000000000000244ec7f5753b2fc10d0c2baab1ab55850e73a3ab00000000000000000000000034c4c526902d88a3aa98db8a9b802603eb1e3470",
        "nonce": "0x53",
        "accessList": []
      },
      "additionalContracts": [],
      "isFixedGasLimit": false
    },
    {
      "hash": "0x6bb0f8fd1a5406556fe311cb071c21e409e30aa4f602de3a2e286c4fc28eadac",
      "transactionType": "CALL",
      "contractName": "MainRouter",
      "contractAddress": "0x1658727bd2E390837D39c2fffE41e16Dc1D6c27b",
      "function": "addAllowedToken(uint64,address,address)",
      "arguments": [
        "3478487238524512106",
        "0xe257e2a67407144C918acaD5e11c2582F77c0B1a",
        "0x34C4c526902d88a3Aa98DB8a9b802603EB1E3470"
      ],
      "transaction": {
        "type": "0x02",
        "from": "0x7af234d569ab6360693806d7e7f439ec2114f93c",
        "to": "0x1658727bd2e390837d39c2fffe41e16dc1d6c27b",
        "gas": "0x2aaac",
        "value": "0x0",
        "data": "0xe986b13a000000000000000000000000000000000000000000000000304611b6affba76a000000000000000000000000e257e2a67407144c918acad5e11c2582f77c0b1a00000000000000000000000034c4c526902d88a3aa98db8a9b802603eb1e3470",
        "nonce": "0x54",
        "accessList": []
      },
      "additionalContracts": [],
      "isFixedGasLimit": false
    },
    {
      "hash": "0x8c187ce1f9abb4d9f2dbe150da6ffd9eb90065a1c2f9ab70624cee68d1022d32",
      "transactionType": "CALL",
      "contractName": "MainRouter",
      "contractAddress": "0x1658727bd2E390837D39c2fffE41e16Dc1D6c27b",
      "function": "addAllowedToken(uint64,address,address)",
      "arguments": [
        "3478487238524512106",
        "0x32B8F75d2AC926a0a906F24df3e8Fe2bA17Bd80a",
        "0x7b219F57a8e9C7303204Af681e9fA69d17ef626f"
      ],
      "transaction": {
        "type": "0x02",
        "from": "0x7af234d569ab6360693806d7e7f439ec2114f93c",
        "to": "0x1658727bd2e390837d39c2fffe41e16dc1d6c27b",
        "gas": "0x2aaac",
        "value": "0x0",
        "data": "0xe986b13a000000000000000000000000000000000000000000000000304611b6affba76a00000000000000000000000032b8f75d2ac926a0a906f24df3e8fe2ba17bd80a0000000000000000000000007b219f57a8e9c7303204af681e9fa69d17ef626f",
        "nonce": "0x55",
        "accessList": []
      },
      "additionalContracts": [],
      "isFixedGasLimit": false
    },
    {
      "hash": "0xb7fb90eb6d59c838088b233c49f7cf860e9ab26c4149269dd9599ab141dcc648",
      "transactionType": "CALL",
      "contractName": "MainRouter",
      "contractAddress": "0x1658727bd2E390837D39c2fffE41e16Dc1D6c27b",
      "function": "addAllowedToken(uint64,address,address)",
      "arguments": [
        "3478487238524512106",
        "0xDFf5Ba9FCff83cE455e45De7572B6259b0E7D7dE",
        "0x7898AcCC83587C3C55116c5230C17a6Cd9C71bad"
      ],
      "transaction": {
        "type": "0x02",
        "from": "0x7af234d569ab6360693806d7e7f439ec2114f93c",
        "to": "0x1658727bd2e390837d39c2fffe41e16dc1d6c27b",
        "gas": "0x2aaac",
        "value": "0x0",
        "data": "0xe986b13a000000000000000000000000000000000000000000000000304611b6affba76a000000000000000000000000dff5ba9fcff83ce455e45de7572b6259b0e7d7de0000000000000000000000007898accc83587c3c55116c5230c17a6cd9c71bad",
        "nonce": "0x56",
        "accessList": []
      },
      "additionalContracts": [],
      "isFixedGasLimit": false
    },
    {
      "hash": "0xe66569811cec099fac9fc7b0fdacd02c925f10485385331fc9fa0821596d2eca",
      "transactionType": "CALL",
      "contractName": "MainRouter",
      "contractAddress": "0x1658727bd2E390837D39c2fffE41e16Dc1D6c27b",
      "function": "addAllowedToken(uint64,address,address)",
      "arguments": [
        "3478487238524512106",
        "0x75b86D7B224Fd88f785BB5FaC5e261D9EFde3047",
        "0x7898AcCC83587C3C55116c5230C17a6Cd9C71bad"
      ],
      "transaction": {
        "type": "0x02",
        "from": "0x7af234d569ab6360693806d7e7f439ec2114f93c",
        "to": "0x1658727bd2e390837d39c2fffe41e16dc1d6c27b",
        "gas": "0x2aaac",
        "value": "0x0",
        "data": "0xe986b13a000000000000000000000000000000000000000000000000304611b6affba76a00000000000000000000000075b86d7b224fd88f785bb5fac5e261d9efde30470000000000000000000000007898accc83587c3c55116c5230c17a6cd9c71bad",
        "nonce": "0x57",
        "accessList": []
      },
      "additionalContracts": [],
      "isFixedGasLimit": false
    },
    {
      "hash": "0xa37a1e15af1130e52d12e3a5e9ff869cb3e45806a12f4e6f06752cb0664549d2",
      "transactionType": "CALL",
      "contractName": "MainRouter",
      "contractAddress": "0x1658727bd2E390837D39c2fffE41e16Dc1D6c27b",
      "function": "setAllowedDestinationChain(uint64,bool)",
      "arguments": [
        "14767482510784806043",
        "true"
      ],
      "transaction": {
        "type": "0x02",
        "from": "0x7af234d569ab6360693806d7e7f439ec2114f93c",
        "to": "0x1658727bd2e390837d39c2fffe41e16dc1d6c27b",
        "gas": "0x28692",
        "value": "0x0",
        "data": "0x1572823c000000000000000000000000000000000000000000000000ccf0a31a221f3c9b0000000000000000000000000000000000000000000000000000000000000001",
        "nonce": "0x58",
        "accessList": []
      },
      "additionalContracts": [],
      "isFixedGasLimit": false
    },
    {
      "hash": "0xa183f6c075a7102bce9d9ae566d8aa928738fb3d265193d7310b157ad544cfc7",
      "transactionType": "CALL",
      "contractName": "MainRouter",
      "contractAddress": "0x1658727bd2E390837D39c2fffE41e16Dc1D6c27b",
      "function": "setAllowedDestinationChain(uint64,bool)",
      "arguments": [
        "16015286601757825753",
        "true"
      ],
      "transaction": {
        "type": "0x02",
        "from": "0x7af234d569ab6360693806d7e7f439ec2114f93c",
        "to": "0x1658727bd2e390837d39c2fffe41e16dc1d6c27b",
        "gas": "0x20662",
        "value": "0x0",
        "data": "0x1572823c000000000000000000000000000000000000000000000000de41ba4fc9d91ad90000000000000000000000000000000000000000000000000000000000000001",
        "nonce": "0x59",
        "accessList": []
      },
      "additionalContracts": [],
      "isFixedGasLimit": false
    },
    {
      "hash": "0x0408c092250d6130c200f858e93eb651a67f11e01abcc26e576424e1b92b80c1",
      "transactionType": "CALL",
      "contractName": "MainRouter",
      "contractAddress": "0x1658727bd2E390837D39c2fffE41e16Dc1D6c27b",
      "function": "setAllowedDestinationChain(uint64,bool)",
      "arguments": [
        "16281711391670634445",
        "true"
      ],
      "transaction": {
        "type": "0x02",
        "from": "0x7af234d569ab6360693806d7e7f439ec2114f93c",
        "to": "0x1658727bd2e390837d39c2fffe41e16dc1d6c27b",
        "gas": "0x20662",
        "value": "0x0",
        "data": "0x1572823c000000000000000000000000000000000000000000000000e1f4423f1bf587cd0000000000000000000000000000000000000000000000000000000000000001",
        "nonce": "0x5a",
        "accessList": []
      },
      "additionalContracts": [],
      "isFixedGasLimit": false
    },
    {
      "hash": "0x5a33528cf27d3abbc38fb9242bd061050b0abac0b422a0de8084a2ed1377656c",
      "transactionType": "CALL",
      "contractName": "MainRouter",
      "contractAddress": "0x1658727bd2E390837D39c2fffE41e16Dc1D6c27b",
      "function": "setAllowedDestinationChain(uint64,bool)",
      "arguments": [
        "10344971235874465080",
        "true"
      ],
      "transaction": {
        "type": "0x02",
        "from": "0x7af234d569ab6360693806d7e7f439ec2114f93c",
        "to": "0x1658727bd2e390837d39c2fffe41e16dc1d6c27b",
        "gas": "0x20662",
        "value": "0x0",
        "data": "0x1572823c0000000000000000000000000000000000000000000000008f90b8876dee65380000000000000000000000000000000000000000000000000000000000000001",
        "nonce": "0x5b",
        "accessList": []
      },
      "additionalContracts": [],
      "isFixedGasLimit": false
    },
    {
      "hash": "0x154ada981b99f4d990c1c4bda9d443aa30828a3e68e6d145b5e0a0d2bffd7ea9",
      "transactionType": "CALL",
      "contractName": "MainRouter",
      "contractAddress": "0x1658727bd2E390837D39c2fffE41e16Dc1D6c27b",
      "function": "setAllowedDestinationChain(uint64,bool)",
      "arguments": [
        "5224473277236331295",
        "true"
      ],
      "transaction": {
        "type": "0x02",
        "from": "0x7af234d569ab6360693806d7e7f439ec2114f93c",
        "to": "0x1658727bd2e390837d39c2fffe41e16dc1d6c27b",
        "gas": "0x20662",
        "value": "0x0",
        "data": "0x1572823c00000000000000000000000000000000000000000000000048810ec3e431431f0000000000000000000000000000000000000000000000000000000000000001",
        "nonce": "0x5c",
        "accessList": []
      },
      "additionalContracts": [],
      "isFixedGasLimit": false
    },
    {
      "hash": "0xcbf3e8c88f6089a48053c8d64e92971e9960605a430479c76fe7fa5c08988535",
      "transactionType": "CALL",
      "contractName": "MainRouter",
      "contractAddress": "0x1658727bd2E390837D39c2fffE41e16Dc1D6c27b",
      "function": "setAllowedDestinationChain(uint64,bool)",
      "arguments": [
        "3478487238524512106",
        "true"
      ],
      "transaction": {
        "type": "0x02",
        "from": "0x7af234d569ab6360693806d7e7f439ec2114f93c",
        "to": "0x1658727bd2e390837d39c2fffe41e16dc1d6c27b",
        "gas": "0x20662",
        "value": "0x0",
        "data": "0x1572823c000000000000000000000000000000000000000000000000304611b6affba76a0000000000000000000000000000000000000000000000000000000000000001",
        "nonce": "0x5d",
        "accessList": []
      },
      "additionalContracts": [],
      "isFixedGasLimit": false
    },
    {
      "hash": "0xc553df1c66742ef601e1649858c69fb2823332430f4a8e087bfc33d437e42f59",
      "transactionType": "CALL",
      "contractName": "MainRouter",
      "contractAddress": "0x1658727bd2E390837D39c2fffE41e16Dc1D6c27b",
      "function": "setAllowedSourceChain(uint64,bool)",
      "arguments": [
        "14767482510784806043",
        "true"
      ],
      "transaction": {
        "type": "0x02",
        "from": "0x7af234d569ab6360693806d7e7f439ec2114f93c",
        "to": "0x1658727bd2e390837d39c2fffe41e16dc1d6c27b",
        "gas": "0xfa13",
        "value": "0x0",
        "data": "0x5d9a2c48000000000000000000000000000000000000000000000000ccf0a31a221f3c9b0000000000000000000000000000000000000000000000000000000000000001",
        "nonce": "0x5e",
        "accessList": []
      },
      "additionalContracts": [],
      "isFixedGasLimit": false
    },
    {
      "hash": "0xf11dcc808d74c3821ff2c9bcf48bfdd43ce81538be92f7a372e9177abbff1a2b",
      "transactionType": "CALL",
      "contractName": "MainRouter",
      "contractAddress": "0x1658727bd2E390837D39c2fffE41e16Dc1D6c27b",
      "function": "setAllowedSourceChain(uint64,bool)",
      "arguments": [
        "16015286601757825753",
        "true"
      ],
      "transaction": {
        "type": "0x02",
        "from": "0x7af234d569ab6360693806d7e7f439ec2114f93c",
        "to": "0x1658727bd2e390837d39c2fffe41e16dc1d6c27b",
        "gas": "0xfa13",
        "value": "0x0",
        "data": "0x5d9a2c48000000000000000000000000000000000000000000000000de41ba4fc9d91ad90000000000000000000000000000000000000000000000000000000000000001",
        "nonce": "0x5f",
        "accessList": []
      },
      "additionalContracts": [],
      "isFixedGasLimit": false
    },
    {
      "hash": "0x5f5b30ec9517ed247ed807a9b8682fedc072feda2f3b66861440d5cf3235c7e8",
      "transactionType": "CALL",
      "contractName": "MainRouter",
      "contractAddress": "0x1658727bd2E390837D39c2fffE41e16Dc1D6c27b",
      "function": "setAllowedSourceChain(uint64,bool)",
      "arguments": [
        "16281711391670634445",
        "true"
      ],
      "transaction": {
        "type": "0x02",
        "from": "0x7af234d569ab6360693806d7e7f439ec2114f93c",
        "to": "0x1658727bd2e390837d39c2fffe41e16dc1d6c27b",
        "gas": "0xfa13",
        "value": "0x0",
        "data": "0x5d9a2c48000000000000000000000000000000000000000000000000e1f4423f1bf587cd0000000000000000000000000000000000000000000000000000000000000001",
        "nonce": "0x60",
        "accessList": []
      },
      "additionalContracts": [],
      "isFixedGasLimit": false
    },
    {
      "hash": "0xe7826b5dbb605d5c56f33bd3210e1b7cac1497b39d3b5cb6a143cd7040d7092f",
      "transactionType": "CALL",
      "contractName": "MainRouter",
      "contractAddress": "0x1658727bd2E390837D39c2fffE41e16Dc1D6c27b",
      "function": "setAllowedSourceChain(uint64,bool)",
      "arguments": [
        "10344971235874465080",
        "true"
      ],
      "transaction": {
        "type": "0x02",
        "from": "0x7af234d569ab6360693806d7e7f439ec2114f93c",
        "to": "0x1658727bd2e390837d39c2fffe41e16dc1d6c27b",
        "gas": "0xfa13",
        "value": "0x0",
        "data": "0x5d9a2c480000000000000000000000000000000000000000000000008f90b8876dee65380000000000000000000000000000000000000000000000000000000000000001",
        "nonce": "0x61",
        "accessList": []
      },
      "additionalContracts": [],
      "isFixedGasLimit": false
    },
    {
      "hash": "0xbc7ac63327653dc272ab577e6ff3a78b2f980d07b92753f05fbd1c6642f3799d",
      "transactionType": "CALL",
      "contractName": "MainRouter",
      "contractAddress": "0x1658727bd2E390837D39c2fffE41e16Dc1D6c27b",
      "function": "setAllowedSourceChain(uint64,bool)",
      "arguments": [
        "5224473277236331295",
        "true"
      ],
      "transaction": {
        "type": "0x02",
        "from": "0x7af234d569ab6360693806d7e7f439ec2114f93c",
        "to": "0x1658727bd2e390837d39c2fffe41e16dc1d6c27b",
        "gas": "0xfa13",
        "value": "0x0",
        "data": "0x5d9a2c4800000000000000000000000000000000000000000000000048810ec3e431431f0000000000000000000000000000000000000000000000000000000000000001",
        "nonce": "0x62",
        "accessList": []
      },
      "additionalContracts": [],
      "isFixedGasLimit": false
    },
    {
      "hash": "0x33503898bb3157da801a7851338bac03d19919faf5ff2db1c20bc5b598d9dfb1",
      "transactionType": "CALL",
      "contractName": "MainRouter",
      "contractAddress": "0x1658727bd2E390837D39c2fffE41e16Dc1D6c27b",
      "function": "setAllowedSourceChain(uint64,bool)",
      "arguments": [
        "3478487238524512106",
        "true"
      ],
      "transaction": {
        "type": "0x02",
        "from": "0x7af234d569ab6360693806d7e7f439ec2114f93c",
        "to": "0x1658727bd2e390837d39c2fffe41e16dc1d6c27b",
        "gas": "0xfa13",
        "value": "0x0",
        "data": "0x5d9a2c48000000000000000000000000000000000000000000000000304611b6affba76a0000000000000000000000000000000000000000000000000000000000000001",
        "nonce": "0x63",
        "accessList": []
      },
      "additionalContracts": [],
      "isFixedGasLimit": false
    }
  ],
  "receipts": [],
  "libraries": [
    "src/library/OracleLib.sol:OracleLib:0xc621bc66a58781b80e64b0754b1555453c9312d8"
  ],
  "pending": [
    "0x000d9b81c6262d93fcf02a6b7d226d4b87d92f4d4f9166af17e2fcc254aa5f48",
    "0xfa1ee0f40d8f2e8700b90664d8b5a1a3c900f5963d2ddb52876b32b6c71b7866",
    "0xad11ada1c96e55b48ac53b0bd87a82187359f1b3692bcadfcdf8d817beedec1d",
    "0xdabf3c4ecffe37b94543b0609ad3872a703ff87fc70ea829f4cd3fb97cfbb722",
    "0xeca91366693cc7828b59f8a0d5b652f778e6ddd7337d996cff458df8dbeccc05",
    "0x7638b54e9c10a34cd502e46126bf62810e6270af949cefdca021dddaecb2223c",
    "0x49a1902948bc6e11a85a3a8743d55bc0bb04629f9b515ca7a051473d89e2e7ef",
    "0x8d92aeab70cafe7743aa955d8717db0d6501c713ece67eac664ed506877a41ac",
    "0xe15a94c976c1bb59b3aee5d75e06b3bf74e93a79b4a21678a1a86eba241120be",
    "0x05b9dd9c14d140744b51164d187e4dc607d90130c372afdd8dc435801c53b99f",
    "0x0f98e30da3905ff91f9f2427e779ff0269dfb5e1896dab2f59bd82b6eb03f030",
    "0xb2f3143a6ca297a5ad08245481f6896c79e9d169b0c79a31280d6aafb8b621dd",
    "0x4cebc01c6f4dbba8797ff0e4940dff7f340d946eac11dbf54e59747b554ddd0f",
    "0x84ae1c56ce0cf39825b593ce33361ae256dbaaffc7ba77dc4f289a18b63555c3",
    "0xf973c0df1101caf5a114c7749bdacb3e644bfffa9cea6d6fb9cd199fb40724ac",
    "0x604e3fe39af2f59cb2678da61ad59df0e0acc2859401bf10bbf4dc3a950e83ff",
    "0x24deb5ab18b90fcc0f87e5caef102310231633526a4513bdc5629aa55cf60c3a",
    "0x4784886f200c2811f79c51c23074a88712c6e3544b2ef955b5c52e267dfe039f",
    "0xbe8561274417d162c992b986e61b15e12c24ed9a531a234e4cb8d08675031d15",
    "0x813005faf1522ca8477b370bd5f6e875b7e47ef74c2f02c54d3da654c359b900",
    "0x811101fa7e86e7ac78658c3557220085dc9be4e4cb300e824be8f3284acb732e",
    "0x448774da5ae446f84a1705063e634e25abdc7bf93b7ce054dc4da61536c61226",
    "0x9fdc1768a6b55367a8d6b9e95818d49c26190e91179e05365bb0636837d67ccd",
    "0x0c7725845f6327996e1f79f280daf4c1ed0deb4bbf2aa02fc2b355451b0f7f65",
    "0x0d91ea484ed9a10139a9e178f1ff225894f79257fca3cf50154b92c3ec3da27b",
    "0x9289957212d7d3a322bad9db9a7083595a4445ec1c49749f1c8c81759c4a63d3",
    "0x38653c03562e896a82299d0f95a6af4621a58b75980dc956a535a6280e0bb1f2",
    "0x755584426a41a26f960fa6af89d837e3b3e7ef5805926973a0551613a3dcddaf",
    "0xb6a411b3d7ebdb8648be70b15e1045fff9ed9ec054dd8f5df65b8b3526d1a466",
    "0x44f48b2e2c21172bad7f782dd64a0aac5672de655b576c8337477eb493af39c4",
    "0xc99fd48907d7192a83b19f11b25ad844f58a1c74bba3b5d66fc21216779e0ee1",
    "0xf59e83cd93c30b44a3ac7e89d27f73118ca135fb4593df491e032ea073d7e393",
    "0xe844b9543e8eec0fc7ca0a6538f18024d3690f56161a8eab278e573d41c22dbd",
    "0x272f7f4bc36085e1fb28359fddf50b560e8d9a3f78cfed241afa18c10dc129e9",
    "0xf2fcb542382ffa0dde40d305b40fe4c5cc0f63941e1e84fafcb5fc8479f2a822",
    "0xa64b3f625fa5f0fc6c7dc1eb98070010ce7a615358286431f145e2e42d448746",
    "0x37dad99137f75d800b57be67cbef33bc598b0f8f366b8ea0374fcb8299460208",
    "0x32553990f4024bd84ba682eee09172af3bd8b17fc9e61cd78f06f8b421ff04a0",
    "0xa5621834b0fef3b46578072cf7806d9fa2007aae0d5c42b35304e912569470a9",
    "0xb6dafc608bfc60933e2e1f2bee3ddf5ae8264b88a834afc36a7e6c7bce91b626",
    "0x9c8d17cfccfc5e533f499940a8a85c9cf2d69d81639780b7d772659a4ac73857",
    "0x6bb0f8fd1a5406556fe311cb071c21e409e30aa4f602de3a2e286c4fc28eadac",
    "0x8c187ce1f9abb4d9f2dbe150da6ffd9eb90065a1c2f9ab70624cee68d1022d32",
    "0xb7fb90eb6d59c838088b233c49f7cf860e9ab26c4149269dd9599ab141dcc648",
    "0xe66569811cec099fac9fc7b0fdacd02c925f10485385331fc9fa0821596d2eca",
    "0xa37a1e15af1130e52d12e3a5e9ff869cb3e45806a12f4e6f06752cb0664549d2",
    "0xa183f6c075a7102bce9d9ae566d8aa928738fb3d265193d7310b157ad544cfc7",
    "0x0408c092250d6130c200f858e93eb651a67f11e01abcc26e576424e1b92b80c1",
    "0x5a33528cf27d3abbc38fb9242bd061050b0abac0b422a0de8084a2ed1377656c",
    "0x154ada981b99f4d990c1c4bda9d443aa30828a3e68e6d145b5e0a0d2bffd7ea9",
    "0xcbf3e8c88f6089a48053c8d64e92971e9960605a430479c76fe7fa5c08988535",
    "0xc553df1c66742ef601e1649858c69fb2823332430f4a8e087bfc33d437e42f59",
    "0xf11dcc808d74c3821ff2c9bcf48bfdd43ce81538be92f7a372e9177abbff1a2b",
    "0x5f5b30ec9517ed247ed807a9b8682fedc072feda2f3b66861440d5cf3235c7e8",
    "0xe7826b5dbb605d5c56f33bd3210e1b7cac1497b39d3b5cb6a143cd7040d7092f",
    "0xbc7ac63327653dc272ab577e6ff3a78b2f980d07b92753f05fbd1c6642f3799d",
    "0x33503898bb3157da801a7851338bac03d19919faf5ff2db1c20bc5b598d9dfb1"
  ],
  "returns": {
    "mainRouter": {
      "internal_type": "contract MainRouter",
      "value": "0x1658727bd2E390837D39c2fffE41e16Dc1D6c27b"
    }
  },
  "timestamp": 1716435778,
  "chain": 43113,
  "multi": false,
  "commit": "dea0c6c"
}