{
  "transactions": [
    {
      "hash": "0x511127549f213b81100ed8396e271a8704735ffe9c23224304a760fc37b7dddd",
      "transactionType": "CREATE",
      "contractName": "OracleLib",
      "contractAddress": "0xAcd1b6FDED854F7b4a90173A29Fce1e605a8ab43",
      "function": null,
      "arguments": null,
      "transaction": {
        "type": "0x02",
        "from": "0x7af234d569ab6360693806d7e7f439ec2114f93c",
        "gas": "0x58581",
        "data": "0x61041261003a600b82828239805160001a60731461002d57634e487b7160e01b600052600060045260246000fd5b30600052607381538281f3fe73000000000000000000000000000000000000000030146080604052600436106100615760003560e01c8063115d30c5146100665780632ba1c96a1461008c57806347096f81146100d65780634a98fd7f146100ec578063f56f48f2146100ff575b600080fd5b610079610074366004610316565b610109565b6040519081526020015b60405180910390f35b61009f61009a366004610316565b61018a565b6040805169ffffffffffffffffffff968716815260208101959095528401929092526060830152909116608082015260a001610083565b6100796100e4366004610316565b506201518090565b61009f6100fa366004610316565b61028e565b6100796201518081565b600080826001600160a01b031663feaf968c6040518163ffffffff1660e01b815260040160a060405180830381865afa15801561014a573d6000803e3d6000fd5b505050506040513d601f19601f8201168201806040525081019061016e9190610365565b5093505050506000814261018291906103b5565b949350505050565b6000806000806000806000806000808a6001600160a01b031663feaf968c6040518163ffffffff1660e01b815260040160a060405180830381865afa1580156101d7573d6000803e3d6000fd5b505050506040513d601f19601f820116820180604052508101906101fb9190610365565b94509450945094509450816000148061022b57508469ffffffffffffffffffff168169ffffffffffffffffffff16105b1561024957604051636250849d60e11b815260040160405180910390fd5b600061025583426103b5565b90506201518081111561027b57604051636250849d60e11b815260040160405180910390fd5b50939a9299509097509550909350915050565b6000806000806000806000806000808a6001600160a01b031663feaf968c6040518163ffffffff1660e01b815260040160a060405180830381865afa1580156102db573d6000803e3d6000fd5b505050506040513d601f19601f820116820180604052508101906102ff9190610365565b939f929e50909c509a509098509650505050505050565b60006020828403121561032857600080fd5b81356001600160a01b038116811461033f57600080fd5b9392505050565b805169ffffffffffffffffffff8116811461036057600080fd5b919050565b600080600080600060a0868803121561037d57600080fd5b61038686610346565b94506020860151935060408601519250606086015191506103a960808701610346565b90509295509295909350565b818103818111156103d657634e487b7160e01b600052601160045260246000fd5b9291505056fea26469706673582212206483b829a8af770d18a36575f2e853a489e1d3f671b19e239505922788b2c8f664736f6c63430008150033",
        "nonce": "0x1ae",
        "accessList": []
      },
      "additionalContracts": [],
      "isFixedGasLimit": false
    },
    {
      "hash": "0x595ba007224ee7f3044f24dfc8475109dd9f2dac34c3aecd25b72747ba8bfd96",
      "transactionType": "CREATE",
      "contractName": "MainRouter",
      "contractAddress": "0xF7be8E30E35bf739e9e63B5D334D91de34cEFA8D",
      "function": null,
      "arguments": [
        "14767482510784806043",
        "0xF694E193200268f9a4868e4Aa017A0118C9a8177",
        "0xA9d587a00A31A52Ed70D6026794a8FC5E2F5dCb0",
        "0x66756e2d6176616c616e6368652d66756a692d31000000000000000000000000"
      ],
      "transaction": {
        "type": "0x02",
        "from": "0x7af234d569ab6360693806d7e7f439ec2114f93c",
        "gas": "0x5b5182",
        "value": "0x0",
        "data": "0x61024060405261015960c08181529062004f3260e039600a9062000024908262000217565b50620493e06016553480156200003957600080fd5b506040516200508b3803806200508b8339810160408190526200005c9162000300565b818185853384826001600160a01b03811662000093576040516335fdcccd60e21b8152600060048201526024015b60405180910390fd5b6001600160a01b0390811660805290811660a0528116620000cb57604051631e4fbdf760e01b8152600060048201526024016200008a565b620000d68162000122565b5050600680546001600160a01b0390941668010000000000000000026001600160e01b03199094166001600160401b039092169190911792909217909155600755506200035f92505050565b600080546001600160a01b038381166001600160a01b0319831681178455604051919092169283917f8be0079c531659141344cd1fd0a4f28419497f9722a3daafe3b4186f6b6457e09190a35050565b634e487b7160e01b600052604160045260246000fd5b600181811c908216806200019d57607f821691505b602082108103620001be57634e487b7160e01b600052602260045260246000fd5b50919050565b601f8211156200021257600081815260208120601f850160051c81016020861015620001ed5750805b601f850160051c820191505b818110156200020e57828155600101620001f9565b5050505b505050565b81516001600160401b0381111562000233576200023362000172565b6200024b8162000244845462000188565b84620001c4565b602080601f8311600181146200028357600084156200026a5750858301515b600019600386901b1c1916600185901b1785556200020e565b600085815260208120601f198616915b82811015620002b45788860151825594840194600190910190840162000293565b5085821015620002d35787850151600019600388901b60f8161c191681555b5050505050600190811b01905550565b80516001600160a01b0381168114620002fb57600080fd5b919050565b600080600080608085870312156200031757600080fd5b84516001600160401b03811681146200032f57600080fd5b93506200033f60208601620002e3565b92506200034f60408601620002e3565b6060959095015193969295505050565b60805160a051614b8a620003a86000396000818161104601526132c7015260008181610d320152818161130901528181611ab301528181611c830152612ae90152614b8a6000f3fe6080604052600436106104825760003560e01c80637e72ffa611610255578063b6c0f0e011610144578063d83ce949116100c1578063f2be459911610085578063f2be459914610f27578063f2fde38b14610f3a578063f9ca2b0914610f5a578063fa39355f14610f7a578063ff1aea4a14610f9a578063ff673dbc14610c4c57600080fd5b8063d83ce94914610e94578063db7bf55a14610ea9578063de3d9fb714610ec9578063e9197efe14610ee7578063f172010d14610f0757600080fd5b8063c8ce7b4711610108578063c8ce7b4714610de7578063ca0880cf14610e14578063d02641a014610e34578063d1bccf0814610e54578063d348dd5014610e7457600080fd5b8063b6c0f0e014610d56578063c26f5b6e14610d8c578063c56cc3a014610dac578063c6b7ac3c14610823578063c8bc57b014610dc957600080fd5b806399d25455116101d2578063aaf5eb6811610196578063aaf5eb6814610cc5578063ad7ea8aa14610ce1578063afa293d414610d01578063b0f479a114610d23578063b5627e4214610cc557600080fd5b806399d2545514610c2c5780639ace5b8214610c4c5780639b8621d514610c6c5780639d45ac8914610c88578063a635b7b314610ca557600080fd5b80638da5cb5b116102195780638da5cb5b14610b8457806390a8ae9b14610ba257806394de0dc814610bbf5780639719501f14610bd557806398bec9d514610c0e57600080fd5b80637e72ffa614610abc5780637f776ade14610aee57806381bf8d3d14610b0e57806385572ffb14610b2b5780638d1f0afa14610b4b57600080fd5b8063444810f2116103715780636185328f116102ee5780636a2f9536116102b25780636a2f953614610a115780636aa673db14610a31578063715018a614610a6757806371cbfc9814610a7c5780637462534214610a9c57600080fd5b80636185328f1461095a578063628c97fc1461097a578063636ce040146109b3578063644f1aa7146109c9578063649a05c1146109fe57600080fd5b806354688d2f1161033557806354688d2f146108b8578063554a221c146108d8578063586d25cb146108f85780635b091875146109185780635d9a2c481461093a57600080fd5b8063444810f21461082357806344b1aa5e146108435780634b52ffb0146108585780634d69d9461461087857806352d84c621461089857600080fd5b80631edebf0b116103ff5780633bf33346116103c35780633bf33346146107255780633c96b5ef146107455780633d91079b146107655780633ed4464b146107b657806340bf5da41461080357600080fd5b80631edebf0b146106395780632d682b56146106595780632f881be714610679578063326cb917146106995780633395a79a1461070057600080fd5b80630ca76175116104465780630ca7617514610585578063137a9acb146105a75780631572823c146105c757806318bd43c2146105e75780631a93d1c31461060757600080fd5b806301996e6f146104b357806301f72884146104e857806301ffc9a714610516578063077440781461053657806309fef9d91461054f57600080fd5b366104ae5733600090815260156020526040812080543492906104a6908490613a29565b925050819055005b600080fd5b3480156104bf57600080fd5b506104d36104ce366004613a51565b610fba565b60405190151581526020015b60405180910390f35b3480156104f457600080fd5b50610508610503366004613a6e565b610fd5565b6040519081526020016104df565b34801561052257600080fd5b506104d3610531366004613a90565b611005565b34801561054257600080fd5b506105086402540be40081565b34801561055b57600080fd5b5061050861056a366004613a51565b6001600160a01b03166000908152600e602052604090205490565b34801561059157600080fd5b506105a56105a0366004613bc7565b61103b565b005b3480156105b357600080fd5b506105086105c2366004613a51565b6110bf565b3480156105d357600080fd5b506105a56105e2366004613c68565b611107565b3480156105f357600080fd5b506105a5610602366004613c94565b61116d565b34801561061357600080fd5b50600854600160401b900463ffffffff1660405163ffffffff90911681526020016104df565b34801561064557600080fd5b506105a5610654366004613cd5565b6111ab565b34801561066557600080fd5b50610508610674366004613a51565b6111d6565b34801561068557600080fd5b506105a5610694366004613a51565b611208565b3480156106a557600080fd5b506106e86106b4366004613cf2565b6001600160401b039190911660009081526013602090815260408083206001600160a01b0394851684529091529020541690565b6040516001600160a01b0390911681526020016104df565b34801561070c57600080fd5b50600654600160401b90046001600160a01b03166106e8565b34801561073157600080fd5b506105a5610740366004613d2b565b611232565b34801561075157600080fd5b50610508610760366004613d7c565b611272565b34801561077157600080fd5b506104d3610780366004613cf2565b6001600160401b03821660009081526010602090815260408083206001600160a01b038516845290915290205460ff1692915050565b3480156107c257600080fd5b506107f06107d1366004613a51565b6001600160a01b03166000908152600d602052604090205461ffff1690565b60405161ffff90911681526020016104df565b34801561080f57600080fd5b506105a561081e366004613dad565b61139d565b34801561082f57600080fd5b5061050861083e366004613e0f565b6114b6565b34801561084f57600080fd5b50600754610508565b34801561086457600080fd5b506105a5610873366004613e3d565b6114e9565b34801561088457600080fd5b50610508610893366004613a51565b61151c565b3480156108a457600080fd5b506105a56108b3366004613e5b565b61157b565b3480156108c457600080fd5b506105a56108d3366004613e81565b6115ae565b3480156108e457600080fd5b506105086108f3366004613ee9565b6115fa565b34801561090457600080fd5b506104d3610913366004613a51565b611630565b34801561092457600080fd5b5061092d611644565b6040516104df9190613f02565b34801561094657600080fd5b506105a5610955366004613c68565b6116f3565b34801561096657600080fd5b50610508610975366004613f4f565b611726565b34801561098657600080fd5b506104d3610995366004613cd5565b6001600160401b031660009081526003602052604090205460ff1690565b3480156109bf57600080fd5b506105086103e881565b3480156109d557600080fd5b506109e96109e4366004613e0f565b61174e565b604080519283526020830191909152016104df565b6105a5610a0c366004613d7c565b611770565b348015610a1d57600080fd5b50610508610a2c366004613f4f565b61196a565b348015610a3d57600080fd5b50610508610a4c366004613a51565b6001600160a01b031660009081526015602052604090205490565b348015610a7357600080fd5b506105a56119a9565b348015610a8857600080fd5b50610508610a97366004613a51565b6119bd565b348015610aa857600080fd5b506105a5610ab7366004613a51565b6119d9565b348015610ac857600080fd5b506006546001600160401b03165b6040516001600160401b0390911681526020016104df565b348015610afa57600080fd5b506105a5610b09366004613ee9565b611a03565b348015610b1a57600080fd5b50610508680410d586a20a4c000081565b348015610b3757600080fd5b506105a5610b46366004613f7b565b611aa8565b348015610b5757600080fd5b506104d3610b66366004613cd5565b6001600160401b031660009081526004602052604090205460ff1690565b348015610b9057600080fd5b506000546001600160a01b03166106e8565b348015610bae57600080fd5b506105086804563918244f40000081565b348015610bcb57600080fd5b506107f061012c81565b348015610be157600080fd5b506104d3610bf0366004613a51565b6001600160a01b031660009081526005602052604090205460ff1690565b348015610c1a57600080fd5b50600c546001600160a01b03166106e8565b348015610c3857600080fd5b506105a5610c47366004613fb5565b611b07565b348015610c5857600080fd5b50610508610c67366004613fe9565b611b1b565b348015610c7857600080fd5b506105086753444835ec58000081565b348015610c9457600080fd5b5061050868056bc75e2d6310000081565b348015610cb157600080fd5b506105a5610cc0366004614034565b611b59565b348015610cd157600080fd5b50610508670de0b6b3a764000081565b348015610ced57600080fd5b50610508610cfc366004614064565b611bfc565b348015610d0d57600080fd5b50610d16611d14565b6040516104df91906140e4565b348015610d2f57600080fd5b507f00000000000000000000000000000000000000000000000000000000000000006106e8565b348015610d6257600080fd5b506106e8610d71366004613ee9565b6000908152600960205260409020546001600160a01b031690565b348015610d9857600080fd5b50610508610da7366004613fe9565b611da6565b348015610db857600080fd5b506105086803860e639d8064000081565b348015610dd557600080fd5b50600b546001600160a01b03166106e8565b348015610df357600080fd5b50610e07610e02366004613cd5565b611db8565b6040516104df91906140f7565b348015610e2057600080fd5b506105a5610e2f366004613ee9565b611ea9565b348015610e4057600080fd5b50610508610e4f366004613a51565b611eb6565b348015610e6057600080fd5b50610508610e6f366004614064565b611f7e565b348015610e8057600080fd5b506105a5610e8f366004613cf2565b6120fd565b348015610ea057600080fd5b50601654610508565b348015610eb557600080fd5b50610508610ec4366004613e0f565b6121fe565b348015610ed557600080fd5b506008546001600160401b0316610ad6565b348015610ef357600080fd5b506105a5610f02366004614138565b612273565b348015610f1357600080fd5b506109e9610f22366004613a51565b6122b8565b6105a5610f35366004614064565b6122d6565b348015610f4657600080fd5b506105a5610f55366004613a51565b612307565b348015610f6657600080fd5b50610508610f75366004613a51565b612342565b348015610f8657600080fd5b50610508610f953660046141bc565b61237b565b348015610fa657600080fd5b50610508610fb5366004613a51565b6124db565b6000670de0b6b3a7640000610fce836111d6565b1192915050565b600081600003610fe85750600019610fff565b610ffc83836804563918244f40000061196a565b90505b92915050565b60006001600160e01b031982166385572ffb60e01b1480610fff57506001600160e01b031982166301ffc9a760e01b1492915050565b336001600160a01b037f000000000000000000000000000000000000000000000000000000000000000016146110845760405163c6829f8360e01b815260040160405180910390fd5b61108f838383612532565b60405183907f85e1543bf2f84fe80c6badbce3648c8539ad1df4d2b3d822938ca0538be727e690600090a2505050565b6001600160a01b0381166000908152600e6020908152604080832054600d9092528220546110f4916108f39161ffff16614243565b610fff906803860e639d80640000613a29565b61110f61262c565b6001600160401b0382166000908152600360205260409020805460ff191682158015919091179091556111555761115060016001600160401b038416612659565b505050565b61115060016001600160401b038416612665565b5050565b600c5433906001600160a01b0316811461119a57604051631eb49d6d60e11b815260040160405180910390fd5b6111a5848484612671565b50505050565b6111b361262c565b6008805467ffffffffffffffff19166001600160401b0392909216919091179055565b6000806111e2836110bf565b90506000806111f0856122b8565b915091506111ff828285611726565b95945050505050565b61121061262c565b600b80546001600160a01b0319166001600160a01b0392909216919091179055565b600b5433906001600160a01b0316811461125f57604051631eb49d6d60e11b815260040160405180910390fd5b61126b85858585612700565b5050505050565b6006546000906001600160401b0380871691160361129257506000611395565b604080513360208201526001600160a01b03851681830152606080820185905282518083039091018152608082019092526000916112d59183919060a00161426c565b604051602081830303815290604052905060006112f7868360006016546127ac565b6040516320487ded60e01b81529091507f0000000000000000000000000000000000000000000000000000000000000000906000906001600160a01b038316906320487ded9061134d908c9087906004016142a3565b602060405180830381865afa15801561136a573d6000803e3d6000fd5b505050506040513d601f19601f8201168201806040525081019061138e919061437c565b9450505050505b949350505050565b6113a561262c565b6001600160401b03841660009081526010602090815260408083206001600160a01b038716845290915290205460ff1615611400578383604051635b764d5760e01b81526004016113f7929190614395565b60405180910390fd5b6001600160401b03841660008181526010602090815260408083206001600160a01b03881684528252808320805460ff19166001179055928252601190522061144990846128ce565b506001600160401b039390931660008181526013602090815260408083206001600160a01b0396871680855290835281842080546001600160a01b03191696909716959095179095559181526012825283812092815291905220805460ff191660ff909216919091179055565b6001600160a01b03821660009081526014602090815260408083206001600160401b038516845290915290205492915050565b6114f161262c565b6001600160a01b03919091166000908152600560205260409020805460ff1916911515919091179055565b600060018161152a826128e3565b905060005b8161ffff1681101561157357600061154784836128ed565b905061155386826114b6565b61155d9086613a29565b945050808061156b906143b7565b91505061152f565b505050919050565b61158361262c565b6008805463ffffffff909216600160401b026bffffffff000000000000000019909216919091179055565b600c5433906001600160a01b031681146115db57604051631eb49d6d60e11b815260040160405180910390fd5b6115e6868686612671565b6115f2838388876128f9565b505050505050565b60006103e88261161c6803860e639d80640000680410d586a20a4c0000614243565b61162691906143d0565b610fff91906143fd565b6000670de0b6b3a7640000610fce836119bd565b6060600061165260016128e3565b90506000816001600160401b0381111561166e5761166e613aba565b604051908082528060200260200182016040528015611697578160200160208202803683370190505b50905060005b828110156116ec576116b06001826128ed565b8282815181106116c2576116c2614411565b6001600160401b0390921660209283029190910190910152806116e4816143b7565b91505061169d565b5092915050565b6116fb61262c565b6001600160401b03919091166000908152600460205260409020805460ff1916911515919091179055565b6000826000036117395750600019611747565b61174484848461196a565b90505b9392505050565b60008061175b84846121fe565b915061176784846114b6565b90509250929050565b6001600160401b03841660009081526010602090815260408083206001600160a01b03861684529091529020548490839060ff166117c557818160405163b34279bf60e01b81526004016113f7929190614395565b826000036117e65760405163532c969f60e11b815260040160405180910390fd5b3360009081526015602052604081208054349290611805908490613a29565b9091555050336000908152600f602090815260408083206001600160401b038a16845282528083206001600160a01b03881684529091528120805485929061184e908490614243565b9091555061185d905033611630565b61187a5760405163317416e560e11b815260040160405180910390fd5b6006546001600160401b038088169116036118fc57604051630e6dfcd560e01b81523360048201526001600160a01b03858116602483015260448201859052861690630e6dfcd590606401600060405180830381600087803b1580156118df57600080fd5b505af11580156118f3573d6000803e3d6000fd5b505050506115f2565b604080513360208201526001600160a01b038616818301526060808201869052825180830390910181526080820190925260009161193f9183919060a00161426c565b60405160208183030381529060405290506119603388886000898987612a58565b5050505050505050565b600068056bc75e2d6310000061198083866143d0565b61198a91906143fd565b90508261199f670de0b6b3a7640000836143d0565b61174491906143fd565b6119b161262c565b6119bb6000612d2f565b565b60008060006119cb846122b8565b915091506113958282610fd5565b6119e161262c565b600c80546001600160a01b0319166001600160a01b0392909216919091179055565b33600090815260156020526040902054811115611a575760405162461bcd60e51b81526020600482015260126024820152714e6f7420656e6f756768206665652070617960701b60448201526064016113f7565b3360009081526015602052604081208054839290611a76908490614243565b9091555050604051339082156108fc029083906000818181858888f19350505050158015611169573d6000803e3d6000fd5b336001600160a01b037f00000000000000000000000000000000000000000000000000000000000000001614611af3576040516335fdcccd60e21b81523360048201526024016113f7565b611b04611aff826144dd565b612d7f565b50565b611b0f61262c565b600a6111698282614609565b6001600160a01b038084166000908152600f602090815260408083206001600160401b03871684528252808320938516835292905220549392505050565b611b6161262c565b6001600160401b03831660009081526010602090815260408083206001600160a01b03861684529091529020548390839060ff16611bb657818160405163b34279bf60e01b81526004016113f7929190614395565b50506001600160401b039290921660009081526013602090815260408083206001600160a01b039485168452909152902080546001600160a01b03191691909216179055565b6006546000906001600160401b03808616911603611c1c57506000611747565b6040805133602082015280820184905281518082038301815260608201909252600091611c4f916001919060800161426c565b60405160208183030381529060405290506000611c71858360006016546127ac565b6040516320487ded60e01b81529091507f0000000000000000000000000000000000000000000000000000000000000000906000906001600160a01b038316906320487ded90611cc7908b9087906004016142a3565b602060405180830381865afa158015611ce4573d6000803e3d6000fd5b505050506040513d601f19601f82011682018060405250810190611d08919061437c565b98975050505050505050565b6060600a8054611d2390614589565b80601f0160208091040260200160405190810160405280929190818152602001828054611d4f90614589565b8015611d9c5780601f10611d7157610100808354040283529160200191611d9c565b820191906000526020600020905b815481529060010190602001808311611d7f57829003601f168201915b5050505050905090565b60006117448383610e6f878787611b1b565b6001600160401b038116600090815260116020526040812060609190611ddd906128e3565b6001600160401b03811115611df457611df4613aba565b604051908082528060200260200182016040528015611e1d578160200160208202803683370190505b50905060005b6001600160401b0384166000908152601160205260409020611e44906128e3565b8110156116ec576001600160401b0384166000908152601160205260409020611e6d90826128ed565b828281518110611e7f57611e7f614411565b6001600160a01b039092166020928302919091019091015280611ea1816143b7565b915050611e23565b611eb161262c565b601655565b600080601381611ec76001826128ed565b6001600160401b03168152602080820192909252604090810160009081206001600160a01b03878116835293528181205491516315d0e4b560e11b81529190921660048201819052925073acd1b6fded854f7b4a90173a29fce1e605a8ab4390632ba1c96a9060240160a060405180830381865af4158015611f4d573d6000803e3d6000fd5b505050506040513d601f19601f82011682018060405250810190611f7191906146e2565b5091979650505050505050565b6001600160401b03831660009081526010602090815260408083206001600160a01b03861684529091528120548490849060ff16611fd357818160405163b34279bf60e01b81526004016113f7929190614395565b6001600160401b03861660009081526013602090815260408083206001600160a01b03898116855292528083205490516315d0e4b560e11b8152911660048201819052919073acd1b6fded854f7b4a90173a29fce1e605a8ab4390632ba1c96a9060240160a060405180830381865af4158015612054573d6000803e3d6000fd5b505050506040513d601f19601f8201168201806040525081019061207891906146e2565b5050506001600160401b038a1660009081526012602081815260408084206001600160a01b038e16855290915290912054919350670de0b6b3a764000092506120c49160ff1690614732565b6120cf90600a61482f565b876120df6402540be400856143d0565b6120e991906143d0565b6120f391906143d0565b611d0891906143fd565b61210561262c565b6001600160401b03821660009081526010602090815260408083206001600160a01b03851684529091529020548290829060ff1661215a57818160405163b34279bf60e01b81526004016113f7929190614395565b6001600160401b03841660008181526010602090815260408083206001600160a01b03881684528252808320805460ff1916905592825260119052206121a09084612f9e565b5050506001600160401b0390911660008181526013602090815260408083206001600160a01b0390951680845294825280832080546001600160a01b031916905592825260128152828220938252929092529020805460ff19169055565b6001600160401b038116600090815260116020526040812081612220826128e3565b905060005b8161ffff1681101561226a57600061223d84836128ed565b905061224a878783611da6565b6122549086613a29565b9450508080612262906143b7565b915050612225565b50505092915050565b600b5433906001600160a01b031681146122a057604051631eb49d6d60e11b815260040160405180910390fd5b6122ac88888888612700565b61196084848a856128f9565b6000806122c4836124db565b91506122cf8361151c565b9050915091565b33600090815260156020526040812080543492906122f5908490613a29565b909155506111509050838333846128f9565b61230f61262c565b6001600160a01b03811661233957604051631e4fbdf760e01b8152600060048201526024016113f7565b611b0481612d2f565b60008061234e836110bf565b9050600061235b846124db565b905068056bc75e2d6310000061237183836143d0565b61139591906143fd565b60006123be6040805160e0810190915280600081526020016000815260200160008152602001606081526020016060815260200160608152602001606081525090565b61245b600a80546123ce90614589565b80601f01602080910402602001604051908101604052809291908181526020018280546123fa90614589565b80156124475780601f1061241c57610100808354040283529160200191612447565b820191906000526020600020905b81548152906001019060200180831161242a57829003601f168201915b505050505082612fb390919063ffffffff16565b82156124755761247561246e848661483e565b8290612fc0565b6124a561248182612fea565b6008546007546001600160401b03821691600160401b900463ffffffff16906132c2565b600081815260096020526040902080546001600160a01b0319166001600160a01b03979097169690961790955550929392505050565b60006001816124e9826128e3565b905060005b8161ffff1681101561157357600061250684836128ed565b905061251286826121fe565b61251c9086613a29565b945050808061252a906143b7565b9150506124ee565b60008381526009602052604081205483516001600160a01b039091169190156125615761255e846148b1565b90505b61ffff811615612593576001600160a01b0382166000908152600d60205260409020805461ffff191661ffff83161790555b6001600160a01b0382166000908152600d602052604081205461ffff1690036125dc576001600160a01b0382166000908152600d60205260409020805461ffff191661012c1790555b8061ffff1685836001600160a01b03167f403bdb10ed8dc83f54ba14d3110235f19bfe4f00550a91eda66c81c9c47c9efe878760405161261d9291906148d5565b60405180910390a45050505050565b6000546001600160a01b031633146119bb5760405163118cdaa760e01b81523360048201526024016113f7565b6000610ffc8383613394565b6000610ffc83836133e3565b6001600160a01b03831660009081526014602090815260408083206001600160401b0386168452909152812080548392906126ad908490614243565b90915550506040518181526001600160401b038316906001600160a01b038516907ffc9381a94a7dfa48ef1e0101b90a651637dc1dde1dfc766ae2e94db9193814489060200160405180910390a3505050565b6001600160a01b038085166000908152600f602090815260408083206001600160401b0388168452825280832093861683529290529081208054839290612748908490613a29565b92505081905550816001600160a01b0316836001600160401b0316856001600160a01b03167fa61751a812949bef861391695e3c0ff1e7d4a33cb2afd76e49d1ce2feef41bc98460405161279e91815260200190565b60405180910390a450505050565b6127e76040518060a0016040528060608152602001606081526020016060815260200160006001600160a01b03168152602001606081525090565b6040805160a081019091526001600160a01b03861660c08201528060e0810160408051808303601f19018152918152908252602080830188905281516000808252918101835292909101919061285f565b60408051808201909152600080825260208201528152602001906001900390816128385790505b508152602001846001600160a01b031681526020016128c360405180602001604052808681525060408051915160248084019190915281518084039091018152604490920190526020810180516001600160e01b03166397a657c960e01b17905290565b905295945050505050565b6000610ffc836001600160a01b038416613394565b6000610fff825490565b6000610ffc83836134d6565b8060000361291a5760405163532c969f60e11b815260040160405180910390fd5b6001600160a01b03821660009081526014602090815260408083206001600160401b038816845290915281208054839290612956908490613a29565b90915550612965905082610fba565b61298257604051635296a20960e11b815260040160405180910390fd5b6006546001600160401b038086169116036129fe576040516340c10f1960e01b81526001600160a01b038381166004830152602482018390528416906340c10f1990604401600060405180830381600087803b1580156129e157600080fd5b505af11580156129f5573d6000803e3d6000fd5b505050506111a5565b604080516001600160a01b038416602082015280820183905281518082038301815260608201909252600091612a3a916001919060800161426c565b60405160208183030381529060405290506115f28386866001600087875b6001600160401b038616600090815260036020526040812054879060ff16612a9e57604051630a503cdb60e01b81526001600160401b03821660048201526024016113f7565b866001600160a01b038116612ac65760405163502ffa3f60e11b815260040160405180910390fd5b6000612ad7898660006016546127ac565b6040516320487ded60e01b81529091507f0000000000000000000000000000000000000000000000000000000000000000906000906001600160a01b038316906320487ded90612b2d908f9087906004016142a3565b602060405180830381865afa158015612b4a573d6000803e3d6000fd5b505050506040513d601f19601f82011682018060405250810190612b6e919061437c565b6001600160a01b038e16600090815260156020526040902054909150811115612bcf576001600160a01b038d166000908152601560205260409081902054905163d44547cd60e01b81526004810191909152602481018290526044016113f7565b816001600160a01b03166396f4e9f9828e866040518463ffffffff1660e01b8152600401612bfe9291906142a3565b60206040518083038185885af1158015612c1c573d6000803e3d6000fd5b50505050506040513d601f19601f82011682018060405250810190612c41919061437c565b955060008a6001811115612c5757612c57614256565b03612cb857886001600160a01b03168c6001600160401b03168e6001600160a01b03167fa4a5196b9663ea82d0c7a1554b5b9cb8d7aa3bf0a56e43a0abd169e47cb817ef8b604051612cab91815260200190565b60405180910390a4612d1f565b60018a6001811115612ccc57612ccc614256565b03612d1f578b6001600160401b03168d6001600160a01b03167fbee4f42ec19ab812d347ca0b11a0e518e9f4d1c671f7f4df8b093f2bd5dea0df8a604051612d1691815260200190565b60405180910390a35b5050505050979650505050505050565b600080546001600160a01b038381166001600160a01b0319831681178455604051919092169283917f8be0079c531659141344cd1fd0a4f28419497f9722a3daafe3b4186f6b6457e09190a35050565b80602001518160400151806020019051810190612d9c91906148fa565b6001600160401b03821660009081526004602052604090205460ff16612de0576040516326bfad9160e21b81526001600160401b03831660048201526024016113f7565b6001600160a01b03811660009081526005602052604090205460ff16612e24576040516338c08ef960e11b81526001600160a01b03821660048201526024016113f7565b6000808460600151806020019051810190612e3f9190614917565b602087015191935091506000836003811115612e5d57612e5d614256565b03612e9557600080600084806020019051810190612e7b91906149a7565b925092509250612e8d83858484612700565b5050506115f2565b6001836003811115612ea957612ea9614256565b03612edb5760008083806020019051810190612ec591906149ea565b91509150612ed4828483612671565b50506115f2565b6002836003811115612eef57612eef614256565b03612f405760008060008060008087806020019051810190612f119190614a18565b955095509550955095509550612f2986888787612700565b612f35838388846128f9565b5050505050506115f2565b6003836003811115612f5457612f54614256565b036115f25760008060008085806020019051810190612f739190614a8b565b9350935093509350612f86848685612671565b612f92828286866128f9565b50505050505050505050565b6000610ffc836001600160a01b0384166133e3565b6111698260008084613500565b8051600003612fe25760405163fe936cb760e01b815260040160405180910390fd5b60a090910152565b60606000612ff961010061357e565b90506130326040518060400160405280600c81526020016b31b7b232a637b1b0ba34b7b760a11b8152508261359f90919063ffffffff16565b825161305090600281111561304957613049614256565b82906135b8565b6040805180820190915260088152676c616e677561676560c01b602082015261307a90829061359f565b604083015161309190801561304957613049614256565b604080518082019091526006815265736f7572636560d01b60208201526130b990829061359f565b60608301516130c990829061359f565b60a0830151511561315d576040805180820190915260048152636172677360e01b60208201526130fa90829061359f565b613103816135f1565b60005b8360a0015151811015613153576131438460a00151828151811061312c5761312c614411565b60200260200101518361359f90919063ffffffff16565b61314c816143b7565b9050613106565b5061315d81613615565b608083015151156132215760008360200151600281111561318057613180614256565b0361319e5760405163a80d31f760e01b815260040160405180910390fd5b60408051808201909152600f81526e39b2b1b932ba39a637b1b0ba34b7b760891b60208201526131cf90829061359f565b6131e88360200151600281111561304957613049614256565b6040805180820190915260078152667365637265747360c81b602082015261321190829061359f565b6080830151613221908290613633565b60c083015151156132ba5760408051808201909152600981526862797465734172677360b81b602082015261325790829061359f565b613260816135f1565b60005b8360c00151518110156132b0576132a08460c00151828151811061328957613289614411565b60200260200101518361363390919063ffffffff16565b6132a9816143b7565b9050613263565b506132ba81613615565b515192915050565b6000807f00000000000000000000000000000000000000000000000000000000000000006001600160a01b031663461d27628688600188886040518663ffffffff1660e01b815260040161331a959493929190614ad5565b6020604051808303816000875af1158015613339573d6000803e3d6000fd5b505050506040513d601f19601f8201168201806040525081019061335d919061437c565b60405190915081907f1131472297a800fee664d1d89cfa8f7676ff07189ecc53f80bbb5f4969099db890600090a295945050505050565b60008181526001830160205260408120546133db57508154600181810184556000848152602080822090930184905584548482528286019093526040902091909155610fff565b506000610fff565b600081815260018301602052604081205480156134cc576000613407600183614243565b855490915060009061341b90600190614243565b905080821461348057600086600001828154811061343b5761343b614411565b906000526020600020015490508087600001848154811061345e5761345e614411565b6000918252602080832090910192909255918252600188019052604090208390555b855486908061349157613491614b1e565b600190038181906000526020600020016000905590558560010160008681526020019081526020016000206000905560019350505050610fff565b6000915050610fff565b60008260000182815481106134ed576134ed614411565b9060005260206000200154905092915050565b8051600003613522576040516322ce3edd60e01b815260040160405180910390fd5b8383600281111561353557613535614256565b9081600281111561354857613548614256565b9052506040840182801561355e5761355e614256565b9081801561356e5761356e614256565b9052506060909301929092525050565b6135866139de565b80516135929083613640565b5060006020820152919050565b6135ac82600383516136b7565b815161115090826137d0565b81516135c59060c26137f1565b5061116982826040516020016135dd91815260200190565b604051602081830303815290604052613633565b6135fc81600461385a565b60018160200181815161360f9190613a29565b90525050565b61362081600761385a565b60018160200181815161360f9190614243565b6135ac82600283516136b7565b604080518082019091526060815260006020820152613660602083614b34565b1561368857613670602083614b34565b61367b906020614243565b6136859083613a29565b91505b6020808401839052604051808552600081529081840101818110156136ac57600080fd5b604052509192915050565b6017816001600160401b0316116136dd5782516111a59060e0600585901b1683176137f1565b60ff816001600160401b03161161371d578251613705906018611fe0600586901b16176137f1565b5082516111a5906001600160401b0383166001613871565b61ffff816001600160401b03161161375e578251613746906019611fe0600586901b16176137f1565b5082516111a5906001600160401b0383166002613871565b63ffffffff816001600160401b0316116137a157825161378990601a611fe0600586901b16176137f1565b5082516111a5906001600160401b0383166004613871565b82516137b890601b611fe0600586901b16176137f1565b5082516111a5906001600160401b0383166008613871565b604080518082019091526060815260006020820152610ffc838384516138f6565b6040805180820190915260608152600060208201528251516000613816826001613a29565b90508460200151821061383757613837856138328360026143d0565b6139c7565b8451602083820101858153508051821115613850578181525b5093949350505050565b815161115090601f611fe0600585901b16176137f1565b60408051808201909152606081526000602082015283515160006138958285613a29565b905085602001518111156138b2576138b2866138328360026143d0565b600060016138c286610100614b48565b6138cc9190614243565b905086518281018783198251161781525080518311156138ea578281525b50959695505050505050565b604080518082019091526060815260006020820152825182111561391957600080fd5b83515160006139288483613a29565b9050856020015181111561394557613945866138328360026143d0565b85518051838201602001916000918085111561395f578482525b505050602086015b6020861061399f578051825261397e602083613a29565b915061398b602082613a29565b9050613998602087614243565b9550613967565b51815160001960208890036101000a0190811690199190911617905250849150509392505050565b81516139d38383613640565b506111a583826137d0565b6040518060400160405280613a06604051806040016040528060608152602001600081525090565b8152602001600081525090565b634e487b7160e01b600052601160045260246000fd5b80820180821115610fff57610fff613a13565b6001600160a01b0381168114611b0457600080fd5b600060208284031215613a6357600080fd5b813561174781613a3c565b60008060408385031215613a8157600080fd5b50508035926020909101359150565b600060208284031215613aa257600080fd5b81356001600160e01b03198116811461174757600080fd5b634e487b7160e01b600052604160045260246000fd5b604080519081016001600160401b0381118282101715613af257613af2613aba565b60405290565b60405160a081016001600160401b0381118282101715613af257613af2613aba565b604051601f8201601f191681016001600160401b0381118282101715613b4257613b42613aba565b604052919050565b60006001600160401b03821115613b6357613b63613aba565b50601f01601f191660200190565b600082601f830112613b8257600080fd5b8135613b95613b9082613b4a565b613b1a565b818152846020838601011115613baa57600080fd5b816020850160208301376000918101602001919091529392505050565b600080600060608486031215613bdc57600080fd5b8335925060208401356001600160401b0380821115613bfa57600080fd5b613c0687838801613b71565b93506040860135915080821115613c1c57600080fd5b50613c2986828701613b71565b9150509250925092565b6001600160401b0381168114611b0457600080fd5b8035613c5381613c33565b919050565b80358015158114613c5357600080fd5b60008060408385031215613c7b57600080fd5b8235613c8681613c33565b915061176760208401613c58565b600080600060608486031215613ca957600080fd5b8335613cb481613a3c565b92506020840135613cc481613c33565b929592945050506040919091013590565b600060208284031215613ce757600080fd5b813561174781613c33565b60008060408385031215613d0557600080fd5b8235613d1081613c33565b91506020830135613d2081613a3c565b809150509250929050565b60008060008060808587031215613d4157600080fd5b8435613d4c81613a3c565b93506020850135613d5c81613c33565b92506040850135613d6c81613a3c565b9396929550929360600135925050565b60008060008060808587031215613d9257600080fd5b8435613d9d81613c33565b93506020850135613d5c81613a3c565b60008060008060808587031215613dc357600080fd5b8435613dce81613c33565b93506020850135613dde81613a3c565b92506040850135613dee81613a3c565b9150606085013560ff81168114613e0457600080fd5b939692955090935050565b60008060408385031215613e2257600080fd5b8235613e2d81613a3c565b91506020830135613d2081613c33565b60008060408385031215613e5057600080fd5b8235613c8681613a3c565b600060208284031215613e6d57600080fd5b813563ffffffff8116811461174757600080fd5b600080600080600060a08688031215613e9957600080fd5b8535613ea481613a3c565b94506020860135613eb481613c33565b9350604086013592506060860135613ecb81613c33565b91506080860135613edb81613a3c565b809150509295509295909350565b600060208284031215613efb57600080fd5b5035919050565b6020808252825182820181905260009190848201906040850190845b81811015613f435783516001600160401b031683529284019291840191600101613f1e565b50909695505050505050565b600080600060608486031215613f6457600080fd5b505081359360208301359350604090920135919050565b600060208284031215613f8d57600080fd5b81356001600160401b03811115613fa357600080fd5b820160a0818503121561174757600080fd5b600060208284031215613fc757600080fd5b81356001600160401b03811115613fdd57600080fd5b61139584828501613b71565b600080600060608486031215613ffe57600080fd5b833561400981613a3c565b9250602084013561401981613c33565b9150604084013561402981613a3c565b809150509250925092565b60008060006060848603121561404957600080fd5b833561405481613c33565b9250602084013561401981613a3c565b60008060006060848603121561407957600080fd5b833561408481613c33565b92506020840135613cc481613a3c565b60005b838110156140af578181015183820152602001614097565b50506000910152565b600081518084526140d0816020860160208601614094565b601f01601f19169290920160200192915050565b602081526000610ffc60208301846140b8565b6020808252825182820181905260009190848201906040850190845b81811015613f435783516001600160a01b031683529284019291840191600101614113565b600080600080600080600060e0888a03121561415357600080fd5b873561415e81613a3c565b9650602088013561416e81613c33565b9550604088013561417e81613a3c565b945060608801359350608088013561419581613c33565b925060a08801356141a581613a3c565b8092505060c0880135905092959891949750929550565b6000806000604084860312156141d157600080fd5b83356141dc81613a3c565b925060208401356001600160401b03808211156141f857600080fd5b818601915086601f83011261420c57600080fd5b81358181111561421b57600080fd5b8760208260051b850101111561423057600080fd5b6020830194508093505050509250925092565b81810381811115610fff57610fff613a13565b634e487b7160e01b600052602160045260246000fd5b60006002841061428c57634e487b7160e01b600052602160045260246000fd5b8382526040602083015261174460408301846140b8565b600060406001600160401b038516835260208181850152845160a0838601526142cf60e08601826140b8565b905081860151603f19808784030160608801526142ec83836140b8565b88860151888203830160808a01528051808352908601945060009350908501905b8084101561433f57845180516001600160a01b031683528601518683015293850193600193909301929086019061430d565b5060608901516001600160a01b031660a08901526080890151888203830160c08a0152955061436e81876140b8565b9a9950505050505050505050565b60006020828403121561438e57600080fd5b5051919050565b6001600160401b039290921682526001600160a01b0316602082015260400190565b6000600182016143c9576143c9613a13565b5060010190565b8082028115828204841417610fff57610fff613a13565b634e487b7160e01b600052601260045260246000fd5b60008261440c5761440c6143e7565b500490565b634e487b7160e01b600052603260045260246000fd5b60006001600160401b0382111561444057614440613aba565b5060051b60200190565b600082601f83011261445b57600080fd5b8135602061446b613b9083614427565b82815260069290921b8401810191818101908684111561448a57600080fd5b8286015b848110156144d257604081890312156144a75760008081fd5b6144af613ad0565b81356144ba81613a3c565b8152818501358582015283529183019160400161448e565b509695505050505050565b600060a082360312156144ef57600080fd5b6144f7613af8565b8235815261450760208401613c48565b602082015260408301356001600160401b038082111561452657600080fd5b61453236838701613b71565b6040840152606085013591508082111561454b57600080fd5b61455736838701613b71565b6060840152608085013591508082111561457057600080fd5b5061457d3682860161444a565b60808301525092915050565b600181811c9082168061459d57607f821691505b6020821081036145bd57634e487b7160e01b600052602260045260246000fd5b50919050565b601f82111561115057600081815260208120601f850160051c810160208610156145ea5750805b601f850160051c820191505b818110156115f2578281556001016145f6565b81516001600160401b0381111561462257614622613aba565b614636816146308454614589565b846145c3565b602080601f83116001811461466b57600084156146535750858301515b600019600386901b1c1916600185901b1785556115f2565b600085815260208120601f198616915b8281101561469a5788860151825594840194600190910190840161467b565b50858210156146b85787850151600019600388901b60f8161c191681555b5050505050600190811b01905550565b805169ffffffffffffffffffff81168114613c5357600080fd5b600080600080600060a086880312156146fa57600080fd5b614703866146c8565b9450602086015193506040860151925060608601519150614726608087016146c8565b90509295509295909350565b60ff8281168282160390811115610fff57610fff613a13565b600181815b8085111561478657816000190482111561476c5761476c613a13565b8085161561477957918102915b93841c9390800290614750565b509250929050565b60008261479d57506001610fff565b816147aa57506000610fff565b81600181146147c057600281146147ca576147e6565b6001915050610fff565b60ff8411156147db576147db613a13565b50506001821b610fff565b5060208310610133831016604e8410600b8410161715614809575081810a610fff565b614813838361474b565b806000190482111561482757614827613a13565b029392505050565b6000610ffc60ff84168361478e565b600061484c613b9084614427565b80848252602080830192508560051b85013681111561486a57600080fd5b855b818110156148a55780356001600160401b0381111561488b5760008081fd5b61489736828a01613b71565b86525093820193820161486c565b50919695505050505050565b805160208083015191908110156145bd5760001960209190910360031b1b16919050565b6040815260006148e860408301856140b8565b82810360208401526111ff81856140b8565b60006020828403121561490c57600080fd5b815161174781613a3c565b6000806040838503121561492a57600080fd5b82516004811061493957600080fd5b60208401519092506001600160401b0381111561495557600080fd5b8301601f8101851361496657600080fd5b8051614974613b9082613b4a565b81815286602083850101111561498957600080fd5b61499a826020830160208601614094565b8093505050509250929050565b6000806000606084860312156149bc57600080fd5b83516149c781613a3c565b60208501519093506149d881613a3c565b80925050604084015190509250925092565b600080604083850312156149fd57600080fd5b8251614a0881613a3c565b6020939093015192949293505050565b60008060008060008060c08789031215614a3157600080fd5b8651614a3c81613a3c565b6020880151909650614a4d81613a3c565b604088015160608901519196509450614a6581613c33565b6080880151909350614a7681613a3c565b8092505060a087015190509295509295509295565b60008060008060808587031215614aa157600080fd5b8451614aac81613a3c565b602086015160408701519195509350614ac481613c33565b6060860151909250613e0481613a3c565b6001600160401b038616815260a060208201526000614af760a08301876140b8565b61ffff9590951660408301525063ffffffff92909216606083015260809091015292915050565b634e487b7160e01b600052603160045260246000fd5b600082614b4357614b436143e7565b500690565b6000610ffc838361478e56fea2646970667358221220702c856ec708284c7c23b49a681a9216c3c10a405ba8799bbcce832c494d028e64736f6c63430008150033636f6e73742075736572203d20617267735b305d3b636f6e737420617069526573706f6e7365203d2061776169742046756e6374696f6e732e6d616b654874747052657175657374287b75726c3a206068747470733a2f2f626574612e6372656470726f746f636f6c2e636f6d2f6170692f73636f72652f616464726573732f247b757365727d2f602c686561646572733a207b27417574686f72697a6174696f6e273a2060546f6b656e2033373335343038333664313239366638633466373932656164653738646464383961623133643230607d2c7d293b69662028617069526573706f6e73652e6572726f7229207b7468726f77204572726f72282752657175657374206661696c656427293b7d636f6e7374207b2064617461207d203d20617069526573706f6e73653b72657475726e2046756e6374696f6e732e656e636f646555696e7432353628646174612e76616c7565293b000000000000000000000000000000000000000000000000ccf0a31a221f3c9b000000000000000000000000f694e193200268f9a4868e4aa017a0118c9a8177000000000000000000000000a9d587a00a31a52ed70d6026794a8fc5e2f5dcb066756e2d6176616c616e6368652d66756a692d31000000000000000000000000",
        "nonce": "0x1af",
        "accessList": []
      },
      "additionalContracts": [],
      "isFixedGasLimit": false
    },
    {
      "hash": "0xe64c8917d963a5232ebc689b944cbd22d5a09a16b665386c836e7176dd5bc9fd",
      "transactionType": "CREATE",
      "contractName": "TokenConfig",
      "contractAddress": "0x2Dfa5BA737636afBa3AFC7d106D2CC5fCfE7A4Ac",
      "function": null,
      "arguments": null,
      "transaction": {
        "type": "0x02",
        "from": "0x7af234d569ab6360693806d7e7f439ec2114f93c",
        "gas": "0x1d1fea",
        "value": "0x0",
        "data": "0x6080604052600c805462ff00ff19166201000117905534801561002157600080fd5b5061192a806100316000396000f3fe608060405234801561001057600080fd5b50600436106105305760003560e01c8063a08fc322116102af578063cafa15c711610172578063ead95284116100d9578063f8cda8ca11610092578063f8cda8ca14610bca578063f8f095dc1461056d578063f9b001e014610bd2578063fa0caf17146105fc578063fc2a53d514610bed578063fcb9a2181461074d57600080fd5b8063ead9528414610b5e578063ef597f74146105e1578063f15650c814610b67578063f1b09fc114610b82578063f8caf99b14610b8c578063f8ccbf4714610ba757600080fd5b8063d863fcc81161012b578063d863fcc8146105c6578063d8dab1f714610ae3578063d8ea3d2414610afe578063da960d2714610b19578063dce6075f14610b34578063de88e91514610b4f57600080fd5b8063cafa15c714610819578063cb62cfbd14610a92578063cdf686df1461089a578063d043bf9c14610aad578063d7a6ead8146108b5578063d806acb714610ac857600080fd5b8063afed4d8c11610216578063c0406226116101cf578063c040622614610a73578063c132cda714610a7b578063c1cbe74914610a8a578063c43b6b0014610834578063c714ff6f14610819578063c95a4369146105c657600080fd5b8063afed4d8c14610a0b578063b5b3774f14610a1a578063b6085d1c14610a22578063be00843014610a3d578063bf1344db1461056d578063bfaa4aad14610a5857600080fd5b8063abe914dd11610268578063abe914dd14610997578063ac659d1d146105c6578063acec0a69146109b2578063acfaf34d146109de578063ad9f2db2146109e8578063ae026709146109f057600080fd5b8063a08fc3221461093c578063a25b465e14610957578063a25bc47914610972578063a88230521461074d578063a95d644314610819578063aa8269201461097c57600080fd5b806350e2f236116103f75780636c619a081161035e5780638f3f1561116103175780638f3f1561146105e157806393ea3c791461074d57806394c96545146108345780639acd72a1146108eb5780639d2ab4f914610906578063a06e2b1f1461092157600080fd5b80636c619a08146106325780636ece09491461089a578063709e1ba6146108b5578063811db762146108d057806386862bc51461056d578063888117e2146105fc57600080fd5b806360f0ff8e116103b057806360f0ff8e14610819578063616258fc1461083457806363c7b80014610834578063669ac34f1461084f57806367fee2811461086a57806368567e711461087f57600080fd5b806350e2f236146107775780635556b32a14610792578063573864c4146107ad5780635878d5fe146107c85780635932b5db146107e35780635ba1a94e146107fe57600080fd5b80632b4c59db1161049b5780633cad3fc1116104545780633cad3fc1146106fc5780633e49331d1461071757806343ac40df1461073257806349377bd71461074d5780634c47f188146107685780634d1b22f8146105fc57600080fd5b80632b4c59db146105e15780632b7076a0146106815780632bfcce4e1461069c5780632f3a3fa6146106b757806331e8ae5d146106d257806334f59436146106ed57600080fd5b80630ff859d6116104ed5780630ff859d6146105fc57806313643d0a1461061757806315d992061461063257806316b3d6fa1461064d5780631fab59fb1461065c57806329da731e1461066657600080fd5b806301f9c1fd14610535578063033130f21461056d57806304c4a7b314610588578063062dbe8d146105ab5780630c4c526c146105c65780630f011ded146105e1575b600080fd5b6105507315c51cdd0b53789711c43a2d6c624db20d52086e81565b6040516001600160a01b0390911681526020015b60405180910390f35b6105507332b8f75d2ac926a0a906f24df3e8fe2ba17bd80a81565b61059262aa36a781565b60405167ffffffffffffffff9091168152602001610564565b6105507323d3e4b7293a2e1cc9abce03bb920d7e42480d1781565b61055073dff5ba9fcff83ce455e45de7572b6259b0e7d7de81565b61055073f6905f1e4ad86f8c3a1ebfca3e04a9e4d2addd0d81565b6105507375b86d7b224fd88f785bb5fac5e261d9efde304781565b61055073114a20a10b43d4115e5aeef7345a1a71d2a60c5781565b610550737898accc83587c3c55116c5230c17a6cd9c71bad81565b610592678f90b8876dee653881565b61059262066eee81565b6105507318d2483bddad0e6df259c780fc9d7c9774ebacf581565b61055073b3718e52781f9fc1c0b72a2966c2616e6d962a1c81565b610550731a0303dca8dbfb25da3f3d37395bcc546cec0bf081565b610550733001d62ebc86ab3a4ef91afed766bb70182e251c81565b61055073a6669a015db6816f1233111e248a4efad84920a581565b61059267e1f4423f1bf587cd81565b6105507334c4c526902d88a3aa98db8a9b802603eb1e347081565b610550737b219f57a8e9c7303204af681e9fa69d17ef626f81565b6105507304aa81701b59b5e390f0c2cd7fa84ba63a82c94481565b610550739a24bd7833859d2364ead5a4af4b16799693df1281565b61059267ccf0a31a221f3c9b81565b610550730bf3de8c5d3e8a2b34d2beeb17abfcebaf363a5981565b610550730804bfec3ef24bc6ca0eb399d108cc0313d86d9c81565b6105507331cf013a08c6ac228c94551d535d5bafe19c602a81565b61055073aca1ea8547e247a3125da273b16c17badc4f081281565b610550731658727bd2e390837d39c2fffe41e16dc1d6c27b81565b610550739124d3b5dfd072bb2d6cf3e3a59430d2a5d8a55d81565b61055073e257e2a67407144c918acad5e11c2582f77c0b1a81565b61055073244ec7f5753b2fc10d0c2baab1ab55850e73a3ab81565b610550736ae8f2481a6b871482e4d66e7ceed6960b37d22981565b610872610bf5565b6040516105649190611864565b610550739b0cb6e1b1bba871b2738f3ccd10ec5ece8daba781565b61055073d28f8454873ceb4de41d537257044510c3a1d61681565b6105507351353bfb9fb8bae6d70b896401937c64e96bacb981565b610550739559e4655e0b5dd06ce2fbecac18c24abb54d0fb81565b61055073c621bc66a58781b80e64b0754b1555453c9312d881565b61055073f7d270b5f6879feb65ed169b82f933ec75b4b62481565b610550732a9c5afb0d0e4bab2bcdae109ec4b0c4be15a16581565b610550736cc55345982d82e3e6dc704a64cdbd58a6421b7a81565b61055073dd36fb413b4470ab5ce67f975c6a2b192e6f84ba81565b61059262aa37dc81565b610550739c32fcb86bf0f4a1a8921a9fe46de3198bb884b281565b6105507365ae0010421814b1303778bc82a599f63028d89981565b6109d07366756e2d6176616c616e6368652d66756a692d3160601b81565b604051908152602001610564565b6105926201388281565b610872610dc7565b610550735498bb86bc934c8d34fda08e81d444153d0d06ad81565b61059267de41ba4fc9d91ad981565b610872610f99565b6105507329040d0c5f2881f0102876b45a9e989813dec61a81565b61055073620476fe1bc36a37530b416b7d658024d5966b0881565b6105507386d67c3d38d2bcee722e601025c25a575021c6ea81565b61087261116b565b6105926748810ec3e431431f81565b6108726111ec565b610550737803db4950e0bc60f11ef7e38971d0d2fef23e2e81565b61055073492e85cd024a271c4f19d8b7e9050ef2bbfedcca81565b6105507331a4ae750c0e8d477dd39af3662f93e69021aa5081565b61055073f694e193200268f9a4868e4aa017a0118c9a817781565b61055073d3b06cebf099ce7da4accf578aaebfdbd6e88a9381565b6105507335de3ceb32a829808a2d8f6ae743d3ea62a2d7aa81565b61055073db287c159f397d561fa3b1235e0afd652860ecdf81565b61059267304611b6affba76a81565b61059261a86981565b610550738dbe4e6e57bcf80b59263158589cfa5f8d0b783881565b61059262014a3481565b61055073a9d587a00a31a52ed70d6026794a8fc5e2f5dcb081565b600c54610bba9062010000900460ff1681565b6040519015158152602001610564565b6108726113be565b610550734aa3b1639d45cb98a67790b8509e47bd7aa16d2a81565b610872611590565b610bfd611762565b604080516060808201835267e1f4423f1bf587cd80835273f6905f1e4ad86f8c3a1ebfca3e04a9e4d2addd0d6020808501919091527331cf013a08c6ac228c94551d535d5bafe19c602a8486015292855283518083018552818152739a24bd7833859d2364ead5a4af4b16799693df12818501527386d67c3d38d2bcee722e601025c25a575021c6ea81860152858401528351808301855281815273244ec7f5753b2fc10d0c2baab1ab55850e73a3ab818501527334c4c526902d88a3aa98db8a9b802603eb1e347081860152858501528351808301855281815273e257e2a67407144c918acad5e11c2582f77c0b1a81850152735498bb86bc934c8d34fda08e81d444153d0d06ad8186015285830152835180830185528181527332b8f75d2ac926a0a906f24df3e8fe2ba17bd80a81850152737b219f57a8e9c7303204af681e9fa69d17ef626f8186015260808601528351808301855281815273dff5ba9fcff83ce455e45de7572b6259b0e7d7de81850152737898accc83587c3c55116c5230c17a6cd9c71bad81860181905260a0870191909152845192830185529082527375b86d7b224fd88f785bb5fac5e261d9efde3047928201929092529182015260c082015290565b610dcf611762565b6040805160608082018352678f90b8876dee653880835273f6905f1e4ad86f8c3a1ebfca3e04a9e4d2addd0d6020808501919091527331cf013a08c6ac228c94551d535d5bafe19c602a8486015292855283518083018552818152739a24bd7833859d2364ead5a4af4b16799693df12818501527386d67c3d38d2bcee722e601025c25a575021c6ea81860152858401528351808301855281815273244ec7f5753b2fc10d0c2baab1ab55850e73a3ab818501527334c4c526902d88a3aa98db8a9b802603eb1e347081860152858501528351808301855281815273e257e2a67407144c918acad5e11c2582f77c0b1a81850152735498bb86bc934c8d34fda08e81d444153d0d06ad8186015285830152835180830185528181527332b8f75d2ac926a0a906f24df3e8fe2ba17bd80a81850152737b219f57a8e9c7303204af681e9fa69d17ef626f8186015260808601528351808301855281815273dff5ba9fcff83ce455e45de7572b6259b0e7d7de81850152737898accc83587c3c55116c5230c17a6cd9c71bad81860181905260a0870191909152845192830185529082527375b86d7b224fd88f785bb5fac5e261d9efde3047928201929092529182015260c082015290565b610fa1611762565b604080516060808201835267de41ba4fc9d91ad9808352734aa3b1639d45cb98a67790b8509e47bd7aa16d2a6020808501919091527331cf013a08c6ac228c94551d535d5bafe19c602a8486015292855283518083018552818152739124d3b5dfd072bb2d6cf3e3a59430d2a5d8a55d818501527386d67c3d38d2bcee722e601025c25a575021c6ea8186015285840152835180830185528181527331a4ae750c0e8d477dd39af3662f93e69021aa50818501527334c4c526902d88a3aa98db8a9b802603eb1e347081860152858501528351808301855281815273dd36fb413b4470ab5ce67f975c6a2b192e6f84ba81850152735498bb86bc934c8d34fda08e81d444153d0d06ad81860152858301528351808301855281815273492e85cd024a271c4f19d8b7e9050ef2bbfedcca81850152737b219f57a8e9c7303204af681e9fa69d17ef626f818601526080860152835180830185528181527365ae0010421814b1303778bc82a599f63028d89981850152737898accc83587c3c55116c5230c17a6cd9c71bad81860181905260a08701919091528451928301855290825273b3718e52781f9fc1c0b72a2966c2616e6d962a1c928201929092529182015260c082015290565b611173611762565b61a86819460161118a57611185611590565b905090565b62aa36a619460161119d57611185610f99565b62066eed1946016111b0576111856113be565b620138811946016111c357611185610bf5565b62014a331946016111d657611185610dc7565b62aa37db1946016111e9576111856111ec565b90565b6111f4611762565b60408051606080820183526748810ec3e431431f80835273f6905f1e4ad86f8c3a1ebfca3e04a9e4d2addd0d6020808501919091527331cf013a08c6ac228c94551d535d5bafe19c602a8486015292855283518083018552818152739a24bd7833859d2364ead5a4af4b16799693df12818501527386d67c3d38d2bcee722e601025c25a575021c6ea81860152858401528351808301855281815273244ec7f5753b2fc10d0c2baab1ab55850e73a3ab818501527334c4c526902d88a3aa98db8a9b802603eb1e347081860152858501528351808301855281815273e257e2a67407144c918acad5e11c2582f77c0b1a81850152735498bb86bc934c8d34fda08e81d444153d0d06ad8186015285830152835180830185528181527332b8f75d2ac926a0a906f24df3e8fe2ba17bd80a81850152737b219f57a8e9c7303204af681e9fa69d17ef626f8186015260808601528351808301855281815273dff5ba9fcff83ce455e45de7572b6259b0e7d7de81850152737898accc83587c3c55116c5230c17a6cd9c71bad81860181905260a0870191909152845192830185529082527375b86d7b224fd88f785bb5fac5e261d9efde3047928201929092529182015260c082015290565b6113c6611762565b604080516060808201835267304611b6affba76a80835273f6905f1e4ad86f8c3a1ebfca3e04a9e4d2addd0d6020808501919091527331cf013a08c6ac228c94551d535d5bafe19c602a8486015292855283518083018552818152739a24bd7833859d2364ead5a4af4b16799693df12818501527386d67c3d38d2bcee722e601025c25a575021c6ea81860152858401528351808301855281815273244ec7f5753b2fc10d0c2baab1ab55850e73a3ab818501527334c4c526902d88a3aa98db8a9b802603eb1e347081860152858501528351808301855281815273e257e2a67407144c918acad5e11c2582f77c0b1a81850152735498bb86bc934c8d34fda08e81d444153d0d06ad8186015285830152835180830185528181527332b8f75d2ac926a0a906f24df3e8fe2ba17bd80a81850152737b219f57a8e9c7303204af681e9fa69d17ef626f8186015260808601528351808301855281815273dff5ba9fcff83ce455e45de7572b6259b0e7d7de81850152737898accc83587c3c55116c5230c17a6cd9c71bad81860181905260a0870191909152845192830185529082527375b86d7b224fd88f785bb5fac5e261d9efde3047928201929092529182015260c082015290565b611598611762565b604080516060808201835267ccf0a31a221f3c9b808352730804bfec3ef24bc6ca0eb399d108cc0313d86d9c6020808501919091527331cf013a08c6ac228c94551d535d5bafe19c602a84860152928552835180830185528181527351353bfb9fb8bae6d70b896401937c64e96bacb9818501527386d67c3d38d2bcee722e601025c25a575021c6ea818601528584015283518083018552818152733001d62ebc86ab3a4ef91afed766bb70182e251c818501527334c4c526902d88a3aa98db8a9b802603eb1e347081860152858501528351808301855281815273d28f8454873ceb4de41d537257044510c3a1d61681850152735498bb86bc934c8d34fda08e81d444153d0d06ad818601528583015283518083018552818152736cc55345982d82e3e6dc704a64cdbd58a6421b7a81850152737b219f57a8e9c7303204af681e9fa69d17ef626f8186015260808601528351808301855281815273620476fe1bc36a37530b416b7d658024d5966b0881850152737898accc83587c3c55116c5230c17a6cd9c71bad81860181905260a08701919091528451928301855290825273aca1ea8547e247a3125da273b16c17badc4f0812928201929092529182015260c082015290565b6040805161014081018252600060e08201818152610100830182905261012083018290528252825160608082018552828252602080830184905282860184905280850192909252845180820186528381528083018490528086018490528486015284518082018652838152808301849052808601849052818501528451808201865283815280830184905280860184905260808501528451808201865283815280830184905280860184905260a0850152845190810185528281529081018290529283015260c081019190915290565b805167ffffffffffffffff1682526020808201516001600160a01b039081169184019190915260409182015116910152565b60006102a082019050611878828451611832565b602083015161188a6060840182611832565b50604083015161189d60c0840182611832565b5060608301516118b1610120840182611832565b5060808301516118c5610180840182611832565b5060a08301516118d96101e0840182611832565b5060c08301516118ed610240840182611832565b509291505056fea2646970667358221220edd057bc31695205973d67e24770d1ebe13d06c0ed1e485793806899bd52ffb364736f6c63430008150033",
        "nonce": "0x1b0",
        "accessList": []
      },
      "additionalContracts": [],
      "isFixedGasLimit": false
    },
    {
      "hash": "0xcf3c3d4afd6c92e374cdd6bbb835b8a42a8657d188d50c08b2fcf4abbfe99da6",
      "transactionType": "CALL",
      "contractName": "MainRouter",
      "contractAddress": "0xF7be8E30E35bf739e9e63B5D334D91de34cEFA8D",
      "function": "addAllowedToken(uint64,address,address,uint8)",
      "arguments": [
        "14767482510784806043",
        "0x0804BfEC3ef24bc6CA0eb399D108CC0313d86d9c",
        "0x31CF013A08c6Ac228C94551d535d5BAfE19c602a",
        "18"
      ],
      "transaction": {
        "type": "0x02",
        "from": "0x7af234d569ab6360693806d7e7f439ec2114f93c",
        "to": "0xf7be8e30e35bf739e9e63b5d334d91de34cefa8d",
        "gas": "0x35a59",
        "value": "0x0",
        "data": "0x40bf5da4000000000000000000000000000000000000000000000000ccf0a31a221f3c9b0000000000000000000000000804bfec3ef24bc6ca0eb399d108cc0313d86d9c00000000000000000000000031cf013a08c6ac228c94551d535d5bafe19c602a0000000000000000000000000000000000000000000000000000000000000012",
        "nonce": "0x1b1",
        "accessList": []
      },
      "additionalContracts": [],
      "isFixedGasLimit": false
    },
    {
      "hash": "0x18125e007d5376e79b8b3eb9503d08c05e37ae103744d89e48152824eb30bde0",
      "transactionType": "CALL",
      "contractName": "MainRouter",
      "contractAddress": "0xF7be8E30E35bf739e9e63B5D334D91de34cEFA8D",
      "function": "addAllowedToken(uint64,address,address,uint8)",
      "arguments": [
        "14767482510784806043",
        "0x51353BFb9fB8baE6d70b896401937C64E96BAcB9",
        "0x86d67c3D38D2bCeE722E601025C25a575021c6EA",
        "18"
      ],
      "transaction": {
        "type": "0x02",
        "from": "0x7af234d569ab6360693806d7e7f439ec2114f93c",
        "to": "0xf7be8e30e35bf739e9e63b5d334d91de34cefa8d",
        "gas": "0x32b27",
        "value": "0x0",
        "data": "0x40bf5da4000000000000000000000000000000000000000000000000ccf0a31a221f3c9b00000000000000000000000051353bfb9fb8bae6d70b896401937c64e96bacb900000000000000000000000086d67c3d38d2bcee722e601025c25a575021c6ea0000000000000000000000000000000000000000000000000000000000000012",
        "nonce": "0x1b2",
        "accessList": []
      },
      "additionalContracts": [],
      "isFixedGasLimit": false
    },
    {
      "hash": "0x96a4d638091660a01a6370d36750506c8f55b8547b55286d71e5325395dafbe1",
      "transactionType": "CALL",
      "contractName": "MainRouter",
      "contractAddress": "0xF7be8E30E35bf739e9e63B5D334D91de34cEFA8D",
      "function": "addAllowedToken(uint64,address,address,uint8)",
      "arguments": [
        "14767482510784806043",
        "0x3001d62eBc86ab3A4eF91aFed766BB70182e251c",
        "0x34C4c526902d88a3Aa98DB8a9b802603EB1E3470",
        "18"
      ],
      "transaction": {
        "type": "0x02",
        "from": "0x7af234d569ab6360693806d7e7f439ec2114f93c",
        "to": "0xf7be8e30e35bf739e9e63b5d334d91de34cefa8d",
        "gas": "0x32b27",
        "value": "0x0",
        "data": "0x40bf5da4000000000000000000000000000000000000000000000000ccf0a31a221f3c9b0000000000000000000000003001d62ebc86ab3a4ef91afed766bb70182e251c00000000000000000000000034c4c526902d88a3aa98db8a9b802603eb1e34700000000000000000000000000000000000000000000000000000000000000012",
        "nonce": "0x1b3",
        "accessList": []
      },
      "additionalContracts": [],
      "isFixedGasLimit": false
    },
    {
      "hash": "0x830a2f25e4a9849f77925c07f4474bd7466c042119876a303e013149191998f5",
      "transactionType": "CALL",
      "contractName": "MainRouter",
      "contractAddress": "0xF7be8E30E35bf739e9e63B5D334D91de34cEFA8D",
      "function": "addAllowedToken(uint64,address,address,uint8)",
      "arguments": [
        "14767482510784806043",
        "0xD28f8454873CEb4de41d537257044510c3A1d616",
        "0x5498BB86BC934c8D34FDA08E81D444153d0D06aD",
        "18"
      ],
      "transaction": {
        "type": "0x02",
        "from": "0x7af234d569ab6360693806d7e7f439ec2114f93c",
        "to": "0xf7be8e30e35bf739e9e63b5d334d91de34cefa8d",
        "gas": "0x32b27",
        "value": "0x0",
        "data": "0x40bf5da4000000000000000000000000000000000000000000000000ccf0a31a221f3c9b000000000000000000000000d28f8454873ceb4de41d537257044510c3a1d6160000000000000000000000005498bb86bc934c8d34fda08e81d444153d0d06ad0000000000000000000000000000000000000000000000000000000000000012",
        "nonce": "0x1b4",
        "accessList": []
      },
      "additionalContracts": [],
      "isFixedGasLimit": false
    },
    {
      "hash": "0x9a121980633f383d268f65bea8d071c1e0de5051a5b9f1f83e3fd20225f7461c",
      "transactionType": "CALL",
      "contractName": "MainRouter",
      "contractAddress": "0xF7be8E30E35bf739e9e63B5D334D91de34cEFA8D",
      "function": "addAllowedToken(uint64,address,address,uint8)",
      "arguments": [
        "14767482510784806043",
        "0x6cC55345982d82e3E6dC704a64cdbD58a6421b7A",
        "0x7b219F57a8e9C7303204Af681e9fA69d17ef626f",
        "18"
      ],
      "transaction": {
        "type": "0x02",
        "from": "0x7af234d569ab6360693806d7e7f439ec2114f93c",
        "to": "0xf7be8e30e35bf739e9e63b5d334d91de34cefa8d",
        "gas": "0x32b27",
        "value": "0x0",
        "data": "0x40bf5da4000000000000000000000000000000000000000000000000ccf0a31a221f3c9b0000000000000000000000006cc55345982d82e3e6dc704a64cdbd58a6421b7a0000000000000000000000007b219f57a8e9c7303204af681e9fa69d17ef626f0000000000000000000000000000000000000000000000000000000000000012",
        "nonce": "0x1b5",
        "accessList": []
      },
      "additionalContracts": [],
      "isFixedGasLimit": false
    },
    {
      "hash": "0x8462262188f424fbb83faa96871826c5a1a3de182a698bdf1d26bbfe0c7f6880",
      "transactionType": "CALL",
      "contractName": "MainRouter",
      "contractAddress": "0xF7be8E30E35bf739e9e63B5D334D91de34cEFA8D",
      "function": "addAllowedToken(uint64,address,address,uint8)",
      "arguments": [
        "14767482510784806043",
        "0x620476fe1Bc36a37530b416B7d658024D5966b08",
        "0x7898AcCC83587C3C55116c5230C17a6Cd9C71bad",
        "6"
      ],
      "transaction": {
        "type": "0x02",
        "from": "0x7af234d569ab6360693806d7e7f439ec2114f93c",
        "to": "0xf7be8e30e35bf739e9e63b5d334d91de34cefa8d",
        "gas": "0x32b27",
        "value": "0x0",
        "data": "0x40bf5da4000000000000000000000000000000000000000000000000ccf0a31a221f3c9b000000000000000000000000620476fe1bc36a37530b416b7d658024d5966b080000000000000000000000007898accc83587c3c55116c5230c17a6cd9c71bad0000000000000000000000000000000000000000000000000000000000000006",
        "nonce": "0x1b6",
        "accessList": []
      },
      "additionalContracts": [],
      "isFixedGasLimit": false
    },
    {
      "hash": "0x004d67cf702517134013de82a29206628980c3f15a37b6e3cc5fa0c7a5b2eb07",
      "transactionType": "CALL",
      "contractName": "MainRouter",
      "contractAddress": "0xF7be8E30E35bf739e9e63B5D334D91de34cEFA8D",
      "function": "addAllowedToken(uint64,address,address,uint8)",
      "arguments": [
        "14767482510784806043",
        "0xAcA1eA8547E247a3125Da273b16C17Badc4f0812",
        "0x7898AcCC83587C3C55116c5230C17a6Cd9C71bad",
        "6"
      ],
      "transaction": {
        "type": "0x02",
        "from": "0x7af234d569ab6360693806d7e7f439ec2114f93c",
        "to": "0xf7be8e30e35bf739e9e63b5d334d91de34cefa8d",
        "gas": "0x32b27",
        "value": "0x0",
        "data": "0x40bf5da4000000000000000000000000000000000000000000000000ccf0a31a221f3c9b000000000000000000000000aca1ea8547e247a3125da273b16c17badc4f08120000000000000000000000007898accc83587c3c55116c5230c17a6cd9c71bad0000000000000000000000000000000000000000000000000000000000000006",
        "nonce": "0x1b7",
        "accessList": []
      },
      "additionalContracts": [],
      "isFixedGasLimit": false
    },
    {
      "hash": "0x0accc05b01a419f1ab039363caba6e92b682daa1194ad2516aa6f62a3288fe26",
      "transactionType": "CALL",
      "contractName": "MainRouter",
      "contractAddress": "0xF7be8E30E35bf739e9e63B5D334D91de34cEFA8D",
      "function": "addAllowedToken(uint64,address,address,uint8)",
      "arguments": [
        "16015286601757825753",
        "0x4aa3B1639d45Cb98a67790b8509E47bD7aa16D2A",
        "0x31CF013A08c6Ac228C94551d535d5BAfE19c602a",
        "18"
      ],
      "transaction": {
        "type": "0x02",
        "from": "0x7af234d569ab6360693806d7e7f439ec2114f93c",
        "to": "0xf7be8e30e35bf739e9e63b5d334d91de34cefa8d",
        "gas": "0x35a59",
        "value": "0x0",
        "data": "0x40bf5da4000000000000000000000000000000000000000000000000de41ba4fc9d91ad90000000000000000000000004aa3b1639d45cb98a67790b8509e47bd7aa16d2a00000000000000000000000031cf013a08c6ac228c94551d535d5bafe19c602a0000000000000000000000000000000000000000000000000000000000000012",
        "nonce": "0x1b8",
        "accessList": []
      },
      "additionalContracts": [],
      "isFixedGasLimit": false
    },
    {
      "hash": "0xf8e2e94a819ac48ff001f710621ceca423354a5470e2c3351891e1f7c4b3eece",
      "transactionType": "CALL",
      "contractName": "MainRouter",
      "contractAddress": "0xF7be8E30E35bf739e9e63B5D334D91de34cEFA8D",
      "function": "addAllowedToken(uint64,address,address,uint8)",
      "arguments": [
        "16015286601757825753",
        "0x9124d3b5DfD072bB2d6cf3e3A59430d2a5D8A55D",
        "0x86d67c3D38D2bCeE722E601025C25a575021c6EA",
        "18"
      ],
      "transaction": {
        "type": "0x02",
        "from": "0x7af234d569ab6360693806d7e7f439ec2114f93c",
        "to": "0xf7be8e30e35bf739e9e63b5d334d91de34cefa8d",
        "gas": "0x32b27",
        "value": "0x0",
        "data": "0x40bf5da4000000000000000000000000000000000000000000000000de41ba4fc9d91ad90000000000000000000000009124d3b5dfd072bb2d6cf3e3a59430d2a5d8a55d00000000000000000000000086d67c3d38d2bcee722e601025c25a575021c6ea0000000000000000000000000000000000000000000000000000000000000012",
        "nonce": "0x1b9",
        "accessList": []
      },
      "additionalContracts": [],
      "isFixedGasLimit": false
    },
    {
      "hash": "0x53fa8cbacfd0dc69cfc6e0a66b68328441a7c03277f52f368a63a97ee59eac8c",
      "transactionType": "CALL",
      "contractName": "MainRouter",
      "contractAddress": "0xF7be8E30E35bf739e9e63B5D334D91de34cEFA8D",
      "function": "addAllowedToken(uint64,address,address,uint8)",
      "arguments": [
        "16015286601757825753",
        "0x31A4Ae750C0e8d477Dd39AF3662F93e69021AA50",
        "0x34C4c526902d88a3Aa98DB8a9b802603EB1E3470",
        "18"
      ],
      "transaction": {
        "type": "0x02",
        "from": "0x7af234d569ab6360693806d7e7f439ec2114f93c",
        "to": "0xf7be8e30e35bf739e9e63b5d334d91de34cefa8d",
        "gas": "0x32b27",
        "value": "0x0",
        "data": "0x40bf5da4000000000000000000000000000000000000000000000000de41ba4fc9d91ad900000000000000000000000031a4ae750c0e8d477dd39af3662f93e69021aa5000000000000000000000000034c4c526902d88a3aa98db8a9b802603eb1e34700000000000000000000000000000000000000000000000000000000000000012",
        "nonce": "0x1ba",
        "accessList": []
      },
      "additionalContracts": [],
      "isFixedGasLimit": false
    },
    {
      "hash": "0xe399387a03caa04c8c7ef64978845ae04f32c4161e6bb427d63a9c0381679b52",
      "transactionType": "CALL",
      "contractName": "MainRouter",
      "contractAddress": "0xF7be8E30E35bf739e9e63B5D334D91de34cEFA8D",
      "function": "addAllowedToken(uint64,address,address,uint8)",
      "arguments": [
        "16015286601757825753",
        "0xdd36FB413B4470ab5CE67F975c6A2B192e6F84ba",
        "0x5498BB86BC934c8D34FDA08E81D444153d0D06aD",
        "18"
      ],
      "transaction": {
        "type": "0x02",
        "from": "0x7af234d569ab6360693806d7e7f439ec2114f93c",
        "to": "0xf7be8e30e35bf739e9e63b5d334d91de34cefa8d",
        "gas": "0x32b27",
        "value": "0x0",
        "data": "0x40bf5da4000000000000000000000000000000000000000000000000de41ba4fc9d91ad9000000000000000000000000dd36fb413b4470ab5ce67f975c6a2b192e6f84ba0000000000000000000000005498bb86bc934c8d34fda08e81d444153d0d06ad0000000000000000000000000000000000000000000000000000000000000012",
        "nonce": "0x1bb",
        "accessList": []
      },
      "additionalContracts": [],
      "isFixedGasLimit": false
    },
    {
      "hash": "0x1c7b986be6253551656082fcea0227e3331d8c3ef620037e807da14548a1e84c",
      "transactionType": "CALL",
      "contractName": "MainRouter",
      "contractAddress": "0xF7be8E30E35bf739e9e63B5D334D91de34cEFA8D",
      "function": "addAllowedToken(uint64,address,address,uint8)",
      "arguments": [
        "16015286601757825753",
        "0x492E85cD024A271C4F19d8B7E9050Ef2bbFeDcCA",
        "0x7b219F57a8e9C7303204Af681e9fA69d17ef626f",
        "18"
      ],
      "transaction": {
        "type": "0x02",
        "from": "0x7af234d569ab6360693806d7e7f439ec2114f93c",
        "to": "0xf7be8e30e35bf739e9e63b5d334d91de34cefa8d",
        "gas": "0x32b27",
        "value": "0x0",
        "data": "0x40bf5da4000000000000000000000000000000000000000000000000de41ba4fc9d91ad9000000000000000000000000492e85cd024a271c4f19d8b7e9050ef2bbfedcca0000000000000000000000007b219f57a8e9c7303204af681e9fa69d17ef626f0000000000000000000000000000000000000000000000000000000000000012",
        "nonce": "0x1bc",
        "accessList": []
      },
      "additionalContracts": [],
      "isFixedGasLimit": false
    },
    {
      "hash": "0x0424a1cecf911c58dfaca0ae99c66000a071438ba4da4692f6cae51c60778f59",
      "transactionType": "CALL",
      "contractName": "MainRouter",
      "contractAddress": "0xF7be8E30E35bf739e9e63B5D334D91de34cEFA8D",
      "function": "addAllowedToken(uint64,address,address,uint8)",
      "arguments": [
        "16015286601757825753",
        "0x65Ae0010421814B1303778Bc82a599f63028d899",
        "0x7898AcCC83587C3C55116c5230C17a6Cd9C71bad",
        "6"
      ],
      "transaction": {
        "type": "0x02",
        "from": "0x7af234d569ab6360693806d7e7f439ec2114f93c",
        "to": "0xf7be8e30e35bf739e9e63b5d334d91de34cefa8d",
        "gas": "0x2fe06",
        "value": "0x0",
        "data": "0x40bf5da4000000000000000000000000000000000000000000000000de41ba4fc9d91ad900000000000000000000000065ae0010421814b1303778bc82a599f63028d8990000000000000000000000007898accc83587c3c55116c5230c17a6cd9c71bad0000000000000000000000000000000000000000000000000000000000000006",
        "nonce": "0x1bd",
        "accessList": []
      },
      "additionalContracts": [],
      "isFixedGasLimit": false
    },
    {
      "hash": "0xcab9c9672356260c00b2cf24e16033375388f377cd90a50d976be20be572c270",
      "transactionType": "CALL",
      "contractName": "MainRouter",
      "contractAddress": "0xF7be8E30E35bf739e9e63B5D334D91de34cEFA8D",
      "function": "addAllowedToken(uint64,address,address,uint8)",
      "arguments": [
        "16015286601757825753",
        "0xB3718E52781F9Fc1C0b72A2966C2616E6d962a1C",
        "0x7898AcCC83587C3C55116c5230C17a6Cd9C71bad",
        "6"
      ],
      "transaction": {
        "type": "0x02",
        "from": "0x7af234d569ab6360693806d7e7f439ec2114f93c",
        "to": "0xf7be8e30e35bf739e9e63b5d334d91de34cefa8d",
        "gas": "0x32b27",
        "value": "0x0",
        "data": "0x40bf5da4000000000000000000000000000000000000000000000000de41ba4fc9d91ad9000000000000000000000000b3718e52781f9fc1c0b72a2966c2616e6d962a1c0000000000000000000000007898accc83587c3c55116c5230c17a6cd9c71bad0000000000000000000000000000000000000000000000000000000000000006",
        "nonce": "0x1be",
        "accessList": []
      },
      "additionalContracts": [],
      "isFixedGasLimit": false
    },
    {
      "hash": "0x892f7587a9c0de3ac9045c8bc8144c61c68251c53e53f4474b7cedf2e300342b",
      "transactionType": "CALL",
      "contractName": "MainRouter",
      "contractAddress": "0xF7be8E30E35bf739e9e63B5D334D91de34cEFA8D",
      "function": "addAllowedToken(uint64,address,address,uint8)",
      "arguments": [
        "16281711391670634445",
        "0xF6905F1E4ad86f8C3a1Ebfca3E04a9e4d2adDD0D",
        "0x31CF013A08c6Ac228C94551d535d5BAfE19c602a",
        "18"
      ],
      "transaction": {
        "type": "0x02",
        "from": "0x7af234d569ab6360693806d7e7f439ec2114f93c",
        "to": "0xf7be8e30e35bf739e9e63b5d334d91de34cefa8d",
        "gas": "0x35a59",
        "value": "0x0",
        "data": "0x40bf5da4000000000000000000000000000000000000000000000000e1f4423f1bf587cd000000000000000000000000f6905f1e4ad86f8c3a1ebfca3e04a9e4d2addd0d00000000000000000000000031cf013a08c6ac228c94551d535d5bafe19c602a0000000000000000000000000000000000000000000000000000000000000012",
        "nonce": "0x1bf",
        "accessList": []
      },
      "additionalContracts": [],
      "isFixedGasLimit": false
    },
    {
      "hash": "0x1550e135bef32a5cb3d627e0446895870648b3a97ae1a0e1af416fa81191ca8c",
      "transactionType": "CALL",
      "contractName": "MainRouter",
      "contractAddress": "0xF7be8E30E35bf739e9e63B5D334D91de34cEFA8D",
      "function": "addAllowedToken(uint64,address,address,uint8)",
      "arguments": [
        "16281711391670634445",
        "0x9a24BD7833859d2364EaD5A4aF4b16799693DF12",
        "0x86d67c3D38D2bCeE722E601025C25a575021c6EA",
        "18"
      ],
      "transaction": {
        "type": "0x02",
        "from": "0x7af234d569ab6360693806d7e7f439ec2114f93c",
        "to": "0xf7be8e30e35bf739e9e63b5d334d91de34cefa8d",
        "gas": "0x32b27",
        "value": "0x0",
        "data": "0x40bf5da4000000000000000000000000000000000000000000000000e1f4423f1bf587cd0000000000000000000000009a24bd7833859d2364ead5a4af4b16799693df1200000000000000000000000086d67c3d38d2bcee722e601025c25a575021c6ea0000000000000000000000000000000000000000000000000000000000000012",
        "nonce": "0x1c0",
        "accessList": []
      },
      "additionalContracts": [],
      "isFixedGasLimit": false
    },
    {
      "hash": "0x74a5c3de0a3995119a3ea0c933e0ac5f31084f1c74956f5cc26905c89efe15b9",
      "transactionType": "CALL",
      "contractName": "MainRouter",
      "contractAddress": "0xF7be8E30E35bf739e9e63B5D334D91de34cEFA8D",
      "function": "addAllowedToken(uint64,address,address,uint8)",
      "arguments": [
        "16281711391670634445",
        "0x244ec7F5753b2Fc10d0C2bAaB1AB55850E73a3AB",
        "0x34C4c526902d88a3Aa98DB8a9b802603EB1E3470",
        "18"
      ],
      "transaction": {
        "type": "0x02",
        "from": "0x7af234d569ab6360693806d7e7f439ec2114f93c",
        "to": "0xf7be8e30e35bf739e9e63b5d334d91de34cefa8d",
        "gas": "0x32b27",
        "value": "0x0",
        "data": "0x40bf5da4000000000000000000000000000000000000000000000000e1f4423f1bf587cd000000000000000000000000244ec7f5753b2fc10d0c2baab1ab55850e73a3ab00000000000000000000000034c4c526902d88a3aa98db8a9b802603eb1e34700000000000000000000000000000000000000000000000000000000000000012",
        "nonce": "0x1c1",
        "accessList": []
      },
      "additionalContracts": [],
      "isFixedGasLimit": false
    },
    {
      "hash": "0x5e6df5b323c59543797139e91abb243dabad92a8ec667ade5586f7004045a4fc",
      "transactionType": "CALL",
      "contractName": "MainRouter",
      "contractAddress": "0xF7be8E30E35bf739e9e63B5D334D91de34cEFA8D",
      "function": "addAllowedToken(uint64,address,address,uint8)",
      "arguments": [
        "16281711391670634445",
        "0xe257e2a67407144C918acaD5e11c2582F77c0B1a",
        "0x5498BB86BC934c8D34FDA08E81D444153d0D06aD",
        "18"
      ],
      "transaction": {
        "type": "0x02",
        "from": "0x7af234d569ab6360693806d7e7f439ec2114f93c",
        "to": "0xf7be8e30e35bf739e9e63b5d334d91de34cefa8d",
        "gas": "0x32b27",
        "value": "0x0",
        "data": "0x40bf5da4000000000000000000000000000000000000000000000000e1f4423f1bf587cd000000000000000000000000e257e2a67407144c918acad5e11c2582f77c0b1a0000000000000000000000005498bb86bc934c8d34fda08e81d444153d0d06ad0000000000000000000000000000000000000000000000000000000000000012",
        "nonce": "0x1c2",
        "accessList": []
      },
      "additionalContracts": [],
      "isFixedGasLimit": false
    },
    {
      "hash": "0x9df39b93125b25080434bf3641dfcf6734b95bc39aa6a4c06837cb773c07ee84",
      "transactionType": "CALL",
      "contractName": "MainRouter",
      "contractAddress": "0xF7be8E30E35bf739e9e63B5D334D91de34cEFA8D",
      "function": "addAllowedToken(uint64,address,address,uint8)",
      "arguments": [
        "16281711391670634445",
        "0x32B8F75d2AC926a0a906F24df3e8Fe2bA17Bd80a",
        "0x7b219F57a8e9C7303204Af681e9fA69d17ef626f",
        "18"
      ],
      "transaction": {
        "type": "0x02",
        "from": "0x7af234d569ab6360693806d7e7f439ec2114f93c",
        "to": "0xf7be8e30e35bf739e9e63b5d334d91de34cefa8d",
        "gas": "0x32b27",
        "value": "0x0",
        "data": "0x40bf5da4000000000000000000000000000000000000000000000000e1f4423f1bf587cd00000000000000000000000032b8f75d2ac926a0a906f24df3e8fe2ba17bd80a0000000000000000000000007b219f57a8e9c7303204af681e9fa69d17ef626f0000000000000000000000000000000000000000000000000000000000000012",
        "nonce": "0x1c3",
        "accessList": []
      },
      "additionalContracts": [],
      "isFixedGasLimit": false
    },
    {
      "hash": "0xa3ea3b3de657a92a28083d72430bd3ba4859c3fd8659b88a88b8032c3fa8adff",
      "transactionType": "CALL",
      "contractName": "MainRouter",
      "contractAddress": "0xF7be8E30E35bf739e9e63B5D334D91de34cEFA8D",
      "function": "addAllowedToken(uint64,address,address,uint8)",
      "arguments": [
        "16281711391670634445",
        "0xDFf5Ba9FCff83cE455e45De7572B6259b0E7D7dE",
        "0x7898AcCC83587C3C55116c5230C17a6Cd9C71bad",
        "6"
      ],
      "transaction": {
        "type": "0x02",
        "from": "0x7af234d569ab6360693806d7e7f439ec2114f93c",
        "to": "0xf7be8e30e35bf739e9e63b5d334d91de34cefa8d",
        "gas": "0x32b27",
        "value": "0x0",
        "data": "0x40bf5da4000000000000000000000000000000000000000000000000e1f4423f1bf587cd000000000000000000000000dff5ba9fcff83ce455e45de7572b6259b0e7d7de0000000000000000000000007898accc83587c3c55116c5230c17a6cd9c71bad0000000000000000000000000000000000000000000000000000000000000006",
        "nonce": "0x1c4",
        "accessList": []
      },
      "additionalContracts": [],
      "isFixedGasLimit": false
    },
    {
      "hash": "0x58c37eeb3e2a4aac74e3e54fa5a1f1329ac846d1a687a6c79e8d4d5de8c0221d",
      "transactionType": "CALL",
      "contractName": "MainRouter",
      "contractAddress": "0xF7be8E30E35bf739e9e63B5D334D91de34cEFA8D",
      "function": "addAllowedToken(uint64,address,address,uint8)",
      "arguments": [
        "16281711391670634445",
        "0x75b86D7B224Fd88f785BB5FaC5e261D9EFde3047",
        "0x7898AcCC83587C3C55116c5230C17a6Cd9C71bad",
        "6"
      ],
      "transaction": {
        "type": "0x02",
        "from": "0x7af234d569ab6360693806d7e7f439ec2114f93c",
        "to": "0xf7be8e30e35bf739e9e63b5d334d91de34cefa8d",
        "gas": "0x32b27",
        "value": "0x0",
        "data": "0x40bf5da4000000000000000000000000000000000000000000000000e1f4423f1bf587cd00000000000000000000000075b86d7b224fd88f785bb5fac5e261d9efde30470000000000000000000000007898accc83587c3c55116c5230c17a6cd9c71bad0000000000000000000000000000000000000000000000000000000000000006",
        "nonce": "0x1c5",
        "accessList": []
      },
      "additionalContracts": [],
      "isFixedGasLimit": false
    },
    {
      "hash": "0x9d39e3c8683a6a44a1b7d886531a08aca13874676397a745cad2e06f5e9b4dd9",
      "transactionType": "CALL",
      "contractName": "MainRouter",
      "contractAddress": "0xF7be8E30E35bf739e9e63B5D334D91de34cEFA8D",
      "function": "addAllowedToken(uint64,address,address,uint8)",
      "arguments": [
        "10344971235874465080",
        "0xF6905F1E4ad86f8C3a1Ebfca3E04a9e4d2adDD0D",
        "0x31CF013A08c6Ac228C94551d535d5BAfE19c602a",
        "18"
      ],
      "transaction": {
        "type": "0x02",
        "from": "0x7af234d569ab6360693806d7e7f439ec2114f93c",
        "to": "0xf7be8e30e35bf739e9e63b5d334d91de34cefa8d",
        "gas": "0x35a59",
        "value": "0x0",
        "data": "0x40bf5da40000000000000000000000000000000000000000000000008f90b8876dee6538000000000000000000000000f6905f1e4ad86f8c3a1ebfca3e04a9e4d2addd0d00000000000000000000000031cf013a08c6ac228c94551d535d5bafe19c602a0000000000000000000000000000000000000000000000000000000000000012",
        "nonce": "0x1c6",
        "accessList": []
      },
      "additionalContracts": [],
      "isFixedGasLimit": false
    },
    {
      "hash": "0x53abfc875f7369f896aa45ba2c4b83bed56ba522ab32c92bef9f1b983d2bac6d",
      "transactionType": "CALL",
      "contractName": "MainRouter",
      "contractAddress": "0xF7be8E30E35bf739e9e63B5D334D91de34cEFA8D",
      "function": "addAllowedToken(uint64,address,address,uint8)",
      "arguments": [
        "10344971235874465080",
        "0x9a24BD7833859d2364EaD5A4aF4b16799693DF12",
        "0x86d67c3D38D2bCeE722E601025C25a575021c6EA",
        "18"
      ],
      "transaction": {
        "type": "0x02",
        "from": "0x7af234d569ab6360693806d7e7f439ec2114f93c",
        "to": "0xf7be8e30e35bf739e9e63b5d334d91de34cefa8d",
        "gas": "0x32b27",
        "value": "0x0",
        "data": "0x40bf5da40000000000000000000000000000000000000000000000008f90b8876dee65380000000000000000000000009a24bd7833859d2364ead5a4af4b16799693df1200000000000000000000000086d67c3d38d2bcee722e601025c25a575021c6ea0000000000000000000000000000000000000000000000000000000000000012",
        "nonce": "0x1c7",
        "accessList": []
      },
      "additionalContracts": [],
      "isFixedGasLimit": false
    },
    {
      "hash": "0xde2840361f8f13cd8924cdc2b923ccce8c24cb1e59fc26c71e77860eed654942",
      "transactionType": "CALL",
      "contractName": "MainRouter",
      "contractAddress": "0xF7be8E30E35bf739e9e63B5D334D91de34cEFA8D",
      "function": "addAllowedToken(uint64,address,address,uint8)",
      "arguments": [
        "10344971235874465080",
        "0x244ec7F5753b2Fc10d0C2bAaB1AB55850E73a3AB",
        "0x34C4c526902d88a3Aa98DB8a9b802603EB1E3470",
        "18"
      ],
      "transaction": {
        "type": "0x02",
        "from": "0x7af234d569ab6360693806d7e7f439ec2114f93c",
        "to": "0xf7be8e30e35bf739e9e63b5d334d91de34cefa8d",
        "gas": "0x32b27",
        "value": "0x0",
        "data": "0x40bf5da40000000000000000000000000000000000000000000000008f90b8876dee6538000000000000000000000000244ec7f5753b2fc10d0c2baab1ab55850e73a3ab00000000000000000000000034c4c526902d88a3aa98db8a9b802603eb1e34700000000000000000000000000000000000000000000000000000000000000012",
        "nonce": "0x1c8",
        "accessList": []
      },
      "additionalContracts": [],
      "isFixedGasLimit": false
    },
    {
      "hash": "0x0c8fd3c1cde3cba5e2ad2ad76a67584143ba72d912a636f6e83b342b7a422291",
      "transactionType": "CALL",
      "contractName": "MainRouter",
      "contractAddress": "0xF7be8E30E35bf739e9e63B5D334D91de34cEFA8D",
      "function": "addAllowedToken(uint64,address,address,uint8)",
      "arguments": [
        "10344971235874465080",
        "0xe257e2a67407144C918acaD5e11c2582F77c0B1a",
        "0x5498BB86BC934c8D34FDA08E81D444153d0D06aD",
        "18"
      ],
      "transaction": {
        "type": "0x02",
        "from": "0x7af234d569ab6360693806d7e7f439ec2114f93c",
        "to": "0xf7be8e30e35bf739e9e63b5d334d91de34cefa8d",
        "gas": "0x32b27",
        "value": "0x0",
        "data": "0x40bf5da40000000000000000000000000000000000000000000000008f90b8876dee6538000000000000000000000000e257e2a67407144c918acad5e11c2582f77c0b1a0000000000000000000000005498bb86bc934c8d34fda08e81d444153d0d06ad0000000000000000000000000000000000000000000000000000000000000012",
        "nonce": "0x1c9",
        "accessList": []
      },
      "additionalContracts": [],
      "isFixedGasLimit": false
    },
    {
      "hash": "0x2f2feeaecd141b6f80ae087c68ed88b562920d9b530d43dea25a5ab8626396d1",
      "transactionType": "CALL",
      "contractName": "MainRouter",
      "contractAddress": "0xF7be8E30E35bf739e9e63B5D334D91de34cEFA8D",
      "function": "addAllowedToken(uint64,address,address,uint8)",
      "arguments": [
        "10344971235874465080",
        "0x32B8F75d2AC926a0a906F24df3e8Fe2bA17Bd80a",
        "0x7b219F57a8e9C7303204Af681e9fA69d17ef626f",
        "18"
      ],
      "transaction": {
        "type": "0x02",
        "from": "0x7af234d569ab6360693806d7e7f439ec2114f93c",
        "to": "0xf7be8e30e35bf739e9e63b5d334d91de34cefa8d",
        "gas": "0x32b27",
        "value": "0x0",
        "data": "0x40bf5da40000000000000000000000000000000000000000000000008f90b8876dee653800000000000000000000000032b8f75d2ac926a0a906f24df3e8fe2ba17bd80a0000000000000000000000007b219f57a8e9c7303204af681e9fa69d17ef626f0000000000000000000000000000000000000000000000000000000000000012",
        "nonce": "0x1ca",
        "accessList": []
      },
      "additionalContracts": [],
      "isFixedGasLimit": false
    },
    {
      "hash": "0x39e06a6b995a8d8d62680a61fcc70d7d63ea8ee2fa01b5113352d980a16a97a3",
      "transactionType": "CALL",
      "contractName": "MainRouter",
      "contractAddress": "0xF7be8E30E35bf739e9e63B5D334D91de34cEFA8D",
      "function": "addAllowedToken(uint64,address,address,uint8)",
      "arguments": [
        "10344971235874465080",
        "0xDFf5Ba9FCff83cE455e45De7572B6259b0E7D7dE",
        "0x7898AcCC83587C3C55116c5230C17a6Cd9C71bad",
        "6"
      ],
      "transaction": {
        "type": "0x02",
        "from": "0x7af234d569ab6360693806d7e7f439ec2114f93c",
        "to": "0xf7be8e30e35bf739e9e63b5d334d91de34cefa8d",
        "gas": "0x32b27",
        "value": "0x0",
        "data": "0x40bf5da40000000000000000000000000000000000000000000000008f90b8876dee6538000000000000000000000000dff5ba9fcff83ce455e45de7572b6259b0e7d7de0000000000000000000000007898accc83587c3c55116c5230c17a6cd9c71bad0000000000000000000000000000000000000000000000000000000000000006",
        "nonce": "0x1cb",
        "accessList": []
      },
      "additionalContracts": [],
      "isFixedGasLimit": false
    },
    {
      "hash": "0x80ccdd59dc66a3f98f466d2b5b70fff812ff7cad6c0635067767ae976f693f0b",
      "transactionType": "CALL",
      "contractName": "MainRouter",
      "contractAddress": "0xF7be8E30E35bf739e9e63B5D334D91de34cEFA8D",
      "function": "addAllowedToken(uint64,address,address,uint8)",
      "arguments": [
        "10344971235874465080",
        "0x75b86D7B224Fd88f785BB5FaC5e261D9EFde3047",
        "0x7898AcCC83587C3C55116c5230C17a6Cd9C71bad",
        "6"
      ],
      "transaction": {
        "type": "0x02",
        "from": "0x7af234d569ab6360693806d7e7f439ec2114f93c",
        "to": "0xf7be8e30e35bf739e9e63b5d334d91de34cefa8d",
        "gas": "0x32b27",
        "value": "0x0",
        "data": "0x40bf5da40000000000000000000000000000000000000000000000008f90b8876dee653800000000000000000000000075b86d7b224fd88f785bb5fac5e261d9efde30470000000000000000000000007898accc83587c3c55116c5230c17a6cd9c71bad0000000000000000000000000000000000000000000000000000000000000006",
        "nonce": "0x1cc",
        "accessList": []
      },
      "additionalContracts": [],
      "isFixedGasLimit": false
    },
    {
      "hash": "0xb66e3f7d7aabaa138e24070c55c6e60b44b7d11f80be81d4c12cc0774e03e2ef",
      "transactionType": "CALL",
      "contractName": "MainRouter",
      "contractAddress": "0xF7be8E30E35bf739e9e63B5D334D91de34cEFA8D",
      "function": "addAllowedToken(uint64,address,address,uint8)",
      "arguments": [
        "5224473277236331295",
        "0xF6905F1E4ad86f8C3a1Ebfca3E04a9e4d2adDD0D",
        "0x31CF013A08c6Ac228C94551d535d5BAfE19c602a",
        "18"
      ],
      "transaction": {
        "type": "0x02",
        "from": "0x7af234d569ab6360693806d7e7f439ec2114f93c",
        "to": "0xf7be8e30e35bf739e9e63b5d334d91de34cefa8d",
        "gas": "0x35a59",
        "value": "0x0",
        "data": "0x40bf5da400000000000000000000000000000000000000000000000048810ec3e431431f000000000000000000000000f6905f1e4ad86f8c3a1ebfca3e04a9e4d2addd0d00000000000000000000000031cf013a08c6ac228c94551d535d5bafe19c602a0000000000000000000000000000000000000000000000000000000000000012",
        "nonce": "0x1cd",
        "accessList": []
      },
      "additionalContracts": [],
      "isFixedGasLimit": false
    },
    {
      "hash": "0x1f2aa50001e9b0ff147f62dad76a2b7ca2ba0501340610f1372b3656a38d9423",
      "transactionType": "CALL",
      "contractName": "MainRouter",
      "contractAddress": "0xF7be8E30E35bf739e9e63B5D334D91de34cEFA8D",
      "function": "addAllowedToken(uint64,address,address,uint8)",
      "arguments": [
        "5224473277236331295",
        "0x9a24BD7833859d2364EaD5A4aF4b16799693DF12",
        "0x86d67c3D38D2bCeE722E601025C25a575021c6EA",
        "18"
      ],
      "transaction": {
        "type": "0x02",
        "from": "0x7af234d569ab6360693806d7e7f439ec2114f93c",
        "to": "0xf7be8e30e35bf739e9e63b5d334d91de34cefa8d",
        "gas": "0x32b27",
        "value": "0x0",
        "data": "0x40bf5da400000000000000000000000000000000000000000000000048810ec3e431431f0000000000000000000000009a24bd7833859d2364ead5a4af4b16799693df1200000000000000000000000086d67c3d38d2bcee722e601025c25a575021c6ea0000000000000000000000000000000000000000000000000000000000000012",
        "nonce": "0x1ce",
        "accessList": []
      },
      "additionalContracts": [],
      "isFixedGasLimit": false
    },
    {
      "hash": "0x08475dcd334f18b84e8246bfff55b6688ba5f0c9249b07f27c15e594c1ea6d3c",
      "transactionType": "CALL",
      "contractName": "MainRouter",
      "contractAddress": "0xF7be8E30E35bf739e9e63B5D334D91de34cEFA8D",
      "function": "addAllowedToken(uint64,address,address,uint8)",
      "arguments": [
        "5224473277236331295",
        "0x244ec7F5753b2Fc10d0C2bAaB1AB55850E73a3AB",
        "0x34C4c526902d88a3Aa98DB8a9b802603EB1E3470",
        "18"
      ],
      "transaction": {
        "type": "0x02",
        "from": "0x7af234d569ab6360693806d7e7f439ec2114f93c",
        "to": "0xf7be8e30e35bf739e9e63b5d334d91de34cefa8d",
        "gas": "0x32b27",
        "value": "0x0",
        "data": "0x40bf5da400000000000000000000000000000000000000000000000048810ec3e431431f000000000000000000000000244ec7f5753b2fc10d0c2baab1ab55850e73a3ab00000000000000000000000034c4c526902d88a3aa98db8a9b802603eb1e34700000000000000000000000000000000000000000000000000000000000000012",
        "nonce": "0x1cf",
        "accessList": []
      },
      "additionalContracts": [],
      "isFixedGasLimit": false
    },
    {
      "hash": "0xe9c49a4d5c1b980be6ae7349cb0a1d38e800bff360e83100f5c5cb425216a0af",
      "transactionType": "CALL",
      "contractName": "MainRouter",
      "contractAddress": "0xF7be8E30E35bf739e9e63B5D334D91de34cEFA8D",
      "function": "addAllowedToken(uint64,address,address,uint8)",
      "arguments": [
        "5224473277236331295",
        "0xe257e2a67407144C918acaD5e11c2582F77c0B1a",
        "0x5498BB86BC934c8D34FDA08E81D444153d0D06aD",
        "18"
      ],
      "transaction": {
        "type": "0x02",
        "from": "0x7af234d569ab6360693806d7e7f439ec2114f93c",
        "to": "0xf7be8e30e35bf739e9e63b5d334d91de34cefa8d",
        "gas": "0x32b27",
        "value": "0x0",
        "data": "0x40bf5da400000000000000000000000000000000000000000000000048810ec3e431431f000000000000000000000000e257e2a67407144c918acad5e11c2582f77c0b1a0000000000000000000000005498bb86bc934c8d34fda08e81d444153d0d06ad0000000000000000000000000000000000000000000000000000000000000012",
        "nonce": "0x1d0",
        "accessList": []
      },
      "additionalContracts": [],
      "isFixedGasLimit": false
    },
    {
      "hash": "0xab98b61cf367fd88d9b13c21791ee6c881a0e5edd5ab4d863b1872ea4029999f",
      "transactionType": "CALL",
      "contractName": "MainRouter",
      "contractAddress": "0xF7be8E30E35bf739e9e63B5D334D91de34cEFA8D",
      "function": "addAllowedToken(uint64,address,address,uint8)",
      "arguments": [
        "5224473277236331295",
        "0x32B8F75d2AC926a0a906F24df3e8Fe2bA17Bd80a",
        "0x7b219F57a8e9C7303204Af681e9fA69d17ef626f",
        "18"
      ],
      "transaction": {
        "type": "0x02",
        "from": "0x7af234d569ab6360693806d7e7f439ec2114f93c",
        "to": "0xf7be8e30e35bf739e9e63b5d334d91de34cefa8d",
        "gas": "0x32b27",
        "value": "0x0",
        "data": "0x40bf5da400000000000000000000000000000000000000000000000048810ec3e431431f00000000000000000000000032b8f75d2ac926a0a906f24df3e8fe2ba17bd80a0000000000000000000000007b219f57a8e9c7303204af681e9fa69d17ef626f0000000000000000000000000000000000000000000000000000000000000012",
        "nonce": "0x1d1",
        "accessList": []
      },
      "additionalContracts": [],
      "isFixedGasLimit": false
    },
    {
      "hash": "0x4ed0e1651ee0c2d126aef6fd883ffdaaadee0dbf9aa23942691414010ec4c39f",
      "transactionType": "CALL",
      "contractName": "MainRouter",
      "contractAddress": "0xF7be8E30E35bf739e9e63B5D334D91de34cEFA8D",
      "function": "addAllowedToken(uint64,address,address,uint8)",
      "arguments": [
        "5224473277236331295",
        "0xDFf5Ba9FCff83cE455e45De7572B6259b0E7D7dE",
        "0x7898AcCC83587C3C55116c5230C17a6Cd9C71bad",
        "6"
      ],
      "transaction": {
        "type": "0x02",
        "from": "0x7af234d569ab6360693806d7e7f439ec2114f93c",
        "to": "0xf7be8e30e35bf739e9e63b5d334d91de34cefa8d",
        "gas": "0x32b27",
        "value": "0x0",
        "data": "0x40bf5da400000000000000000000000000000000000000000000000048810ec3e431431f000000000000000000000000dff5ba9fcff83ce455e45de7572b6259b0e7d7de0000000000000000000000007898accc83587c3c55116c5230c17a6cd9c71bad0000000000000000000000000000000000000000000000000000000000000006",
        "nonce": "0x1d2",
        "accessList": []
      },
      "additionalContracts": [],
      "isFixedGasLimit": false
    },
    {
      "hash": "0x2cb52fa1f330cfbdcc3456c44de79c414472fbe2226dcd9d70c727037b091504",
      "transactionType": "CALL",
      "contractName": "MainRouter",
      "contractAddress": "0xF7be8E30E35bf739e9e63B5D334D91de34cEFA8D",
      "function": "addAllowedToken(uint64,address,address,uint8)",
      "arguments": [
        "5224473277236331295",
        "0x75b86D7B224Fd88f785BB5FaC5e261D9EFde3047",
        "0x7898AcCC83587C3C55116c5230C17a6Cd9C71bad",
        "6"
      ],
      "transaction": {
        "type": "0x02",
        "from": "0x7af234d569ab6360693806d7e7f439ec2114f93c",
        "to": "0xf7be8e30e35bf739e9e63b5d334d91de34cefa8d",
        "gas": "0x32b27",
        "value": "0x0",
        "data": "0x40bf5da400000000000000000000000000000000000000000000000048810ec3e431431f00000000000000000000000075b86d7b224fd88f785bb5fac5e261d9efde30470000000000000000000000007898accc83587c3c55116c5230c17a6cd9c71bad0000000000000000000000000000000000000000000000000000000000000006",
        "nonce": "0x1d3",
        "accessList": []
      },
      "additionalContracts": [],
      "isFixedGasLimit": false
    },
    {
      "hash": "0x203971f0542cd4372d51c7d25e9308a3f4391ca0da458eb2fb0068685301ba77",
      "transactionType": "CALL",
      "contractName": "MainRouter",
      "contractAddress": "0xF7be8E30E35bf739e9e63B5D334D91de34cEFA8D",
      "function": "addAllowedToken(uint64,address,address,uint8)",
      "arguments": [
        "3478487238524512106",
        "0xF6905F1E4ad86f8C3a1Ebfca3E04a9e4d2adDD0D",
        "0x31CF013A08c6Ac228C94551d535d5BAfE19c602a",
        "18"
      ],
      "transaction": {
        "type": "0x02",
        "from": "0x7af234d569ab6360693806d7e7f439ec2114f93c",
        "to": "0xf7be8e30e35bf739e9e63b5d334d91de34cefa8d",
        "gas": "0x35a59",
        "value": "0x0",
        "data": "0x40bf5da4000000000000000000000000000000000000000000000000304611b6affba76a000000000000000000000000f6905f1e4ad86f8c3a1ebfca3e04a9e4d2addd0d00000000000000000000000031cf013a08c6ac228c94551d535d5bafe19c602a0000000000000000000000000000000000000000000000000000000000000012",
        "nonce": "0x1d4",
        "accessList": []
      },
      "additionalContracts": [],
      "isFixedGasLimit": false
    },
    {
      "hash": "0x568618a088bcb0bf4711ba2308ede972a2e23a0aefb8e5f0adcd9d35d39f3d4c",
      "transactionType": "CALL",
      "contractName": "MainRouter",
      "contractAddress": "0xF7be8E30E35bf739e9e63B5D334D91de34cEFA8D",
      "function": "addAllowedToken(uint64,address,address,uint8)",
      "arguments": [
        "3478487238524512106",
        "0x9a24BD7833859d2364EaD5A4aF4b16799693DF12",
        "0x86d67c3D38D2bCeE722E601025C25a575021c6EA",
        "18"
      ],
      "transaction": {
        "type": "0x02",
        "from": "0x7af234d569ab6360693806d7e7f439ec2114f93c",
        "to": "0xf7be8e30e35bf739e9e63b5d334d91de34cefa8d",
        "gas": "0x32b27",
        "value": "0x0",
        "data": "0x40bf5da4000000000000000000000000000000000000000000000000304611b6affba76a0000000000000000000000009a24bd7833859d2364ead5a4af4b16799693df1200000000000000000000000086d67c3d38d2bcee722e601025c25a575021c6ea0000000000000000000000000000000000000000000000000000000000000012",
        "nonce": "0x1d5",
        "accessList": []
      },
      "additionalContracts": [],
      "isFixedGasLimit": false
    },
    {
      "hash": "0x7bf5facf60cba66fa4aedcf2a6ad12ab27c5989ce0d91614395a7ee4bc5f2935",
      "transactionType": "CALL",
      "contractName": "MainRouter",
      "contractAddress": "0xF7be8E30E35bf739e9e63B5D334D91de34cEFA8D",
      "function": "addAllowedToken(uint64,address,address,uint8)",
      "arguments": [
        "3478487238524512106",
        "0x244ec7F5753b2Fc10d0C2bAaB1AB55850E73a3AB",
        "0x34C4c526902d88a3Aa98DB8a9b802603EB1E3470",
        "18"
      ],
      "transaction": {
        "type": "0x02",
        "from": "0x7af234d569ab6360693806d7e7f439ec2114f93c",
        "to": "0xf7be8e30e35bf739e9e63b5d334d91de34cefa8d",
        "gas": "0x32b27",
        "value": "0x0",
        "data": "0x40bf5da4000000000000000000000000000000000000000000000000304611b6affba76a000000000000000000000000244ec7f5753b2fc10d0c2baab1ab55850e73a3ab00000000000000000000000034c4c526902d88a3aa98db8a9b802603eb1e34700000000000000000000000000000000000000000000000000000000000000012",
        "nonce": "0x1d6",
        "accessList": []
      },
      "additionalContracts": [],
      "isFixedGasLimit": false
    },
    {
      "hash": "0x0896ffd6a45d5bc6030b59b6cd0cbc32fcd0fd721c84ae1bd18a4b57a4de2819",
      "transactionType": "CALL",
      "contractName": "MainRouter",
      "contractAddress": "0xF7be8E30E35bf739e9e63B5D334D91de34cEFA8D",
      "function": "addAllowedToken(uint64,address,address,uint8)",
      "arguments": [
        "3478487238524512106",
        "0xe257e2a67407144C918acaD5e11c2582F77c0B1a",
        "0x5498BB86BC934c8D34FDA08E81D444153d0D06aD",
        "18"
      ],
      "transaction": {
        "type": "0x02",
        "from": "0x7af234d569ab6360693806d7e7f439ec2114f93c",
        "to": "0xf7be8e30e35bf739e9e63b5d334d91de34cefa8d",
        "gas": "0x32b27",
        "value": "0x0",
        "data": "0x40bf5da4000000000000000000000000000000000000000000000000304611b6affba76a000000000000000000000000e257e2a67407144c918acad5e11c2582f77c0b1a0000000000000000000000005498bb86bc934c8d34fda08e81d444153d0d06ad0000000000000000000000000000000000000000000000000000000000000012",
        "nonce": "0x1d7",
        "accessList": []
      },
      "additionalContracts": [],
      "isFixedGasLimit": false
    },
    {
      "hash": "0xa1b95116ffe70bf1a5336049e29edf7d189128b84093385e832a0d7720c1c917",
      "transactionType": "CALL",
      "contractName": "MainRouter",
      "contractAddress": "0xF7be8E30E35bf739e9e63B5D334D91de34cEFA8D",
      "function": "addAllowedToken(uint64,address,address,uint8)",
      "arguments": [
        "3478487238524512106",
        "0x32B8F75d2AC926a0a906F24df3e8Fe2bA17Bd80a",
        "0x7b219F57a8e9C7303204Af681e9fA69d17ef626f",
        "18"
      ],
      "transaction": {
        "type": "0x02",
        "from": "0x7af234d569ab6360693806d7e7f439ec2114f93c",
        "to": "0xf7be8e30e35bf739e9e63b5d334d91de34cefa8d",
        "gas": "0x32b27",
        "value": "0x0",
        "data": "0x40bf5da4000000000000000000000000000000000000000000000000304611b6affba76a00000000000000000000000032b8f75d2ac926a0a906f24df3e8fe2ba17bd80a0000000000000000000000007b219f57a8e9c7303204af681e9fa69d17ef626f0000000000000000000000000000000000000000000000000000000000000012",
        "nonce": "0x1d8",
        "accessList": []
      },
      "additionalContracts": [],
      "isFixedGasLimit": false
    },
    {
      "hash": "0xc29e80c34ed8df41727e97b7a9144fa42d384c4cd91b42eea8e194520a1d29f2",
      "transactionType": "CALL",
      "contractName": "MainRouter",
      "contractAddress": "0xF7be8E30E35bf739e9e63B5D334D91de34cEFA8D",
      "function": "addAllowedToken(uint64,address,address,uint8)",
      "arguments": [
        "3478487238524512106",
        "0xDFf5Ba9FCff83cE455e45De7572B6259b0E7D7dE",
        "0x7898AcCC83587C3C55116c5230C17a6Cd9C71bad",
        "6"
      ],
      "transaction": {
        "type": "0x02",
        "from": "0x7af234d569ab6360693806d7e7f439ec2114f93c",
        "to": "0xf7be8e30e35bf739e9e63b5d334d91de34cefa8d",
        "gas": "0x32b27",
        "value": "0x0",
        "data": "0x40bf5da4000000000000000000000000000000000000000000000000304611b6affba76a000000000000000000000000dff5ba9fcff83ce455e45de7572b6259b0e7d7de0000000000000000000000007898accc83587c3c55116c5230c17a6cd9c71bad0000000000000000000000000000000000000000000000000000000000000006",
        "nonce": "0x1d9",
        "accessList": []
      },
      "additionalContracts": [],
      "isFixedGasLimit": false
    },
    {
      "hash": "0xa15fc377eba1a1ba608f81faf6b71077ed5701b06a61f672388a432941f1a8ae",
      "transactionType": "CALL",
      "contractName": "MainRouter",
      "contractAddress": "0xF7be8E30E35bf739e9e63B5D334D91de34cEFA8D",
      "function": "addAllowedToken(uint64,address,address,uint8)",
      "arguments": [
        "3478487238524512106",
        "0x75b86D7B224Fd88f785BB5FaC5e261D9EFde3047",
        "0x7898AcCC83587C3C55116c5230C17a6Cd9C71bad",
        "6"
      ],
      "transaction": {
        "type": "0x02",
        "from": "0x7af234d569ab6360693806d7e7f439ec2114f93c",
        "to": "0xf7be8e30e35bf739e9e63b5d334d91de34cefa8d",
        "gas": "0x32b27",
        "value": "0x0",
        "data": "0x40bf5da4000000000000000000000000000000000000000000000000304611b6affba76a00000000000000000000000075b86d7b224fd88f785bb5fac5e261d9efde30470000000000000000000000007898accc83587c3c55116c5230c17a6cd9c71bad0000000000000000000000000000000000000000000000000000000000000006",
        "nonce": "0x1da",
        "accessList": []
      },
      "additionalContracts": [],
      "isFixedGasLimit": false
    },
    {
      "hash": "0x9fda0da9af86fc188ae1cbd3a9b709131adab234ed597eb7c627df9010531031",
      "transactionType": "CALL",
      "contractName": "MainRouter",
      "contractAddress": "0xF7be8E30E35bf739e9e63B5D334D91de34cEFA8D",
      "function": "setAllowedDestinationChain(uint64,bool)",
      "arguments": [
        "14767482510784806043",
        "true"
      ],
      "transaction": {
        "type": "0x02",
        "from": "0x7af234d569ab6360693806d7e7f439ec2114f93c",
        "to": "0xf7be8e30e35bf739e9e63b5d334d91de34cefa8d",
        "gas": "0x26261",
        "value": "0x0",
        "data": "0x1572823c000000000000000000000000000000000000000000000000ccf0a31a221f3c9b0000000000000000000000000000000000000000000000000000000000000001",
        "nonce": "0x1db",
        "accessList": []
      },
      "additionalContracts": [],
      "isFixedGasLimit": false
    },
    {
      "hash": "0x7c27431f99b194e65f136b993621844115e263a60a37e85516d53afadb19c374",
      "transactionType": "CALL",
      "contractName": "MainRouter",
      "contractAddress": "0xF7be8E30E35bf739e9e63B5D334D91de34cEFA8D",
      "function": "setAllowedDestinationChain(uint64,bool)",
      "arguments": [
        "16015286601757825753",
        "true"
      ],
      "transaction": {
        "type": "0x02",
        "from": "0x7af234d569ab6360693806d7e7f439ec2114f93c",
        "to": "0xf7be8e30e35bf739e9e63b5d334d91de34cefa8d",
        "gas": "0x2061d",
        "value": "0x0",
        "data": "0x1572823c000000000000000000000000000000000000000000000000de41ba4fc9d91ad90000000000000000000000000000000000000000000000000000000000000001",
        "nonce": "0x1dc",
        "accessList": []
      },
      "additionalContracts": [],
      "isFixedGasLimit": false
    },
    {
      "hash": "0x554b966193dd65386783e4f89df779ad5ba46b6f8e6a2539de118d3efea34f39",
      "transactionType": "CALL",
      "contractName": "MainRouter",
      "contractAddress": "0xF7be8E30E35bf739e9e63B5D334D91de34cEFA8D",
      "function": "setAllowedDestinationChain(uint64,bool)",
      "arguments": [
        "16281711391670634445",
        "true"
      ],
      "transaction": {
        "type": "0x02",
        "from": "0x7af234d569ab6360693806d7e7f439ec2114f93c",
        "to": "0xf7be8e30e35bf739e9e63b5d334d91de34cefa8d",
        "gas": "0x2061d",
        "value": "0x0",
        "data": "0x1572823c000000000000000000000000000000000000000000000000e1f4423f1bf587cd0000000000000000000000000000000000000000000000000000000000000001",
        "nonce": "0x1dd",
        "accessList": []
      },
      "additionalContracts": [],
      "isFixedGasLimit": false
    },
    {
      "hash": "0xcd564b324c0242dc0d8e96f5e0c25e2c2142672e14bde00bb81b78046e5c8b7c",
      "transactionType": "CALL",
      "contractName": "MainRouter",
      "contractAddress": "0xF7be8E30E35bf739e9e63B5D334D91de34cEFA8D",
      "function": "setAllowedDestinationChain(uint64,bool)",
      "arguments": [
        "10344971235874465080",
        "true"
      ],
      "transaction": {
        "type": "0x02",
        "from": "0x7af234d569ab6360693806d7e7f439ec2114f93c",
        "to": "0xf7be8e30e35bf739e9e63b5d334d91de34cefa8d",
        "gas": "0x2061d",
        "value": "0x0",
        "data": "0x1572823c0000000000000000000000000000000000000000000000008f90b8876dee65380000000000000000000000000000000000000000000000000000000000000001",
        "nonce": "0x1de",
        "accessList": []
      },
      "additionalContracts": [],
      "isFixedGasLimit": false
    },
    {
      "hash": "0x89c1c36f2a7ebc62aae13976a53cf7ae41439b0d5b85c798f8e7a3a49ed2144c",
      "transactionType": "CALL",
      "contractName": "MainRouter",
      "contractAddress": "0xF7be8E30E35bf739e9e63B5D334D91de34cEFA8D",
      "function": "setAllowedDestinationChain(uint64,bool)",
      "arguments": [
        "5224473277236331295",
        "true"
      ],
      "transaction": {
        "type": "0x02",
        "from": "0x7af234d569ab6360693806d7e7f439ec2114f93c",
        "to": "0xf7be8e30e35bf739e9e63b5d334d91de34cefa8d",
        "gas": "0x2061d",
        "value": "0x0",
        "data": "0x1572823c00000000000000000000000000000000000000000000000048810ec3e431431f0000000000000000000000000000000000000000000000000000000000000001",
        "nonce": "0x1df",
        "accessList": []
      },
      "additionalContracts": [],
      "isFixedGasLimit": false
    },
    {
      "hash": "0xa732e4d020e29ae8ec2485e895b08c3bc24eacb8b3ec727c175c048730d3e27e",
      "transactionType": "CALL",
      "contractName": "MainRouter",
      "contractAddress": "0xF7be8E30E35bf739e9e63B5D334D91de34cEFA8D",
      "function": "setAllowedDestinationChain(uint64,bool)",
      "arguments": [
        "3478487238524512106",
        "true"
      ],
      "transaction": {
        "type": "0x02",
        "from": "0x7af234d569ab6360693806d7e7f439ec2114f93c",
        "to": "0xf7be8e30e35bf739e9e63b5d334d91de34cefa8d",
        "gas": "0x2061d",
        "value": "0x0",
        "data": "0x1572823c000000000000000000000000000000000000000000000000304611b6affba76a0000000000000000000000000000000000000000000000000000000000000001",
        "nonce": "0x1e0",
        "accessList": []
      },
      "additionalContracts": [],
      "isFixedGasLimit": false
    },
    {
      "hash": "0x5242ba24306380e2518e09dba27fc78e662f066886fd5889309d217ba75c0eb5",
      "transactionType": "CALL",
      "contractName": "MainRouter",
      "contractAddress": "0xF7be8E30E35bf739e9e63B5D334D91de34cEFA8D",
      "function": "setAllowedSourceChain(uint64,bool)",
      "arguments": [
        "14767482510784806043",
        "true"
      ],
      "transaction": {
        "type": "0x02",
        "from": "0x7af234d569ab6360693806d7e7f439ec2114f93c",
        "to": "0xf7be8e30e35bf739e9e63b5d334d91de34cefa8d",
        "gas": "0xfa29",
        "value": "0x0",
        "data": "0x5d9a2c48000000000000000000000000000000000000000000000000ccf0a31a221f3c9b0000000000000000000000000000000000000000000000000000000000000001",
        "nonce": "0x1e1",
        "accessList": []
      },
      "additionalContracts": [],
      "isFixedGasLimit": false
    },
    {
      "hash": "0xb9f3ddcd1d2597e1b15b2709fed2b9769075a377e4a04e6dd026c92bf3bf78f6",
      "transactionType": "CALL",
      "contractName": "MainRouter",
      "contractAddress": "0xF7be8E30E35bf739e9e63B5D334D91de34cEFA8D",
      "function": "setAllowedSourceChain(uint64,bool)",
      "arguments": [
        "16015286601757825753",
        "true"
      ],
      "transaction": {
        "type": "0x02",
        "from": "0x7af234d569ab6360693806d7e7f439ec2114f93c",
        "to": "0xf7be8e30e35bf739e9e63b5d334d91de34cefa8d",
        "gas": "0xfa29",
        "value": "0x0",
        "data": "0x5d9a2c48000000000000000000000000000000000000000000000000de41ba4fc9d91ad90000000000000000000000000000000000000000000000000000000000000001",
        "nonce": "0x1e2",
        "accessList": []
      },
      "additionalContracts": [],
      "isFixedGasLimit": false
    },
    {
      "hash": "0x4b238e456fc647c82dbbad48f613b27f970573300a3221ed3d8707e03806e157",
      "transactionType": "CALL",
      "contractName": "MainRouter",
      "contractAddress": "0xF7be8E30E35bf739e9e63B5D334D91de34cEFA8D",
      "function": "setAllowedSourceChain(uint64,bool)",
      "arguments": [
        "16281711391670634445",
        "true"
      ],
      "transaction": {
        "type": "0x02",
        "from": "0x7af234d569ab6360693806d7e7f439ec2114f93c",
        "to": "0xf7be8e30e35bf739e9e63b5d334d91de34cefa8d",
        "gas": "0xfa29",
        "value": "0x0",
        "data": "0x5d9a2c48000000000000000000000000000000000000000000000000e1f4423f1bf587cd0000000000000000000000000000000000000000000000000000000000000001",
        "nonce": "0x1e3",
        "accessList": []
      },
      "additionalContracts": [],
      "isFixedGasLimit": false
    },
    {
      "hash": "0x5c9fbe123241715615e0ce5d75f44d39c0b112d9434f70dc1e0fa4b4504b4c58",
      "transactionType": "CALL",
      "contractName": "MainRouter",
      "contractAddress": "0xF7be8E30E35bf739e9e63B5D334D91de34cEFA8D",
      "function": "setAllowedSourceChain(uint64,bool)",
      "arguments": [
        "10344971235874465080",
        "true"
      ],
      "transaction": {
        "type": "0x02",
        "from": "0x7af234d569ab6360693806d7e7f439ec2114f93c",
        "to": "0xf7be8e30e35bf739e9e63b5d334d91de34cefa8d",
        "gas": "0xfa29",
        "value": "0x0",
        "data": "0x5d9a2c480000000000000000000000000000000000000000000000008f90b8876dee65380000000000000000000000000000000000000000000000000000000000000001",
        "nonce": "0x1e4",
        "accessList": []
      },
      "additionalContracts": [],
      "isFixedGasLimit": false
    },
    {
      "hash": "0x5bfba587e10e8461f167c6cc4bb7cb6284ca20d01d204b55b61563fa6dbbdf1b",
      "transactionType": "CALL",
      "contractName": "MainRouter",
      "contractAddress": "0xF7be8E30E35bf739e9e63B5D334D91de34cEFA8D",
      "function": "setAllowedSourceChain(uint64,bool)",
      "arguments": [
        "5224473277236331295",
        "true"
      ],
      "transaction": {
        "type": "0x02",
        "from": "0x7af234d569ab6360693806d7e7f439ec2114f93c",
        "to": "0xf7be8e30e35bf739e9e63b5d334d91de34cefa8d",
        "gas": "0xfa29",
        "value": "0x0",
        "data": "0x5d9a2c4800000000000000000000000000000000000000000000000048810ec3e431431f0000000000000000000000000000000000000000000000000000000000000001",
        "nonce": "0x1e5",
        "accessList": []
      },
      "additionalContracts": [],
      "isFixedGasLimit": false
    },
    {
      "hash": "0xe5705b1805a672d046846f06a0c38bad2631995b698a25e15174c1395a74edaa",
      "transactionType": "CALL",
      "contractName": "MainRouter",
      "contractAddress": "0xF7be8E30E35bf739e9e63B5D334D91de34cEFA8D",
      "function": "setAllowedSourceChain(uint64,bool)",
      "arguments": [
        "3478487238524512106",
        "true"
      ],
      "transaction": {
        "type": "0x02",
        "from": "0x7af234d569ab6360693806d7e7f439ec2114f93c",
        "to": "0xf7be8e30e35bf739e9e63b5d334d91de34cefa8d",
        "gas": "0xfa29",
        "value": "0x0",
        "data": "0x5d9a2c48000000000000000000000000000000000000000000000000304611b6affba76a0000000000000000000000000000000000000000000000000000000000000001",
        "nonce": "0x1e6",
        "accessList": []
      },
      "additionalContracts": [],
      "isFixedGasLimit": false
    }
  ],
  "receipts": [],
  "libraries": [
    "src/library/OracleLib.sol:OracleLib:0xacd1b6fded854f7b4a90173a29fce1e605a8ab43"
  ],
  "pending": [
    "0x511127549f213b81100ed8396e271a8704735ffe9c23224304a760fc37b7dddd",
    "0x595ba007224ee7f3044f24dfc8475109dd9f2dac34c3aecd25b72747ba8bfd96",
    "0xe64c8917d963a5232ebc689b944cbd22d5a09a16b665386c836e7176dd5bc9fd",
    "0xcf3c3d4afd6c92e374cdd6bbb835b8a42a8657d188d50c08b2fcf4abbfe99da6",
    "0x18125e007d5376e79b8b3eb9503d08c05e37ae103744d89e48152824eb30bde0",
    "0x96a4d638091660a01a6370d36750506c8f55b8547b55286d71e5325395dafbe1",
    "0x830a2f25e4a9849f77925c07f4474bd7466c042119876a303e013149191998f5",
    "0x9a121980633f383d268f65bea8d071c1e0de5051a5b9f1f83e3fd20225f7461c",
    "0x8462262188f424fbb83faa96871826c5a1a3de182a698bdf1d26bbfe0c7f6880",
    "0x004d67cf702517134013de82a29206628980c3f15a37b6e3cc5fa0c7a5b2eb07",
    "0x0accc05b01a419f1ab039363caba6e92b682daa1194ad2516aa6f62a3288fe26",
    "0xf8e2e94a819ac48ff001f710621ceca423354a5470e2c3351891e1f7c4b3eece",
    "0x53fa8cbacfd0dc69cfc6e0a66b68328441a7c03277f52f368a63a97ee59eac8c",
    "0xe399387a03caa04c8c7ef64978845ae04f32c4161e6bb427d63a9c0381679b52",
    "0x1c7b986be6253551656082fcea0227e3331d8c3ef620037e807da14548a1e84c",
    "0x0424a1cecf911c58dfaca0ae99c66000a071438ba4da4692f6cae51c60778f59",
    "0xcab9c9672356260c00b2cf24e16033375388f377cd90a50d976be20be572c270",
    "0x892f7587a9c0de3ac9045c8bc8144c61c68251c53e53f4474b7cedf2e300342b",
    "0x1550e135bef32a5cb3d627e0446895870648b3a97ae1a0e1af416fa81191ca8c",
    "0x74a5c3de0a3995119a3ea0c933e0ac5f31084f1c74956f5cc26905c89efe15b9",
    "0x5e6df5b323c59543797139e91abb243dabad92a8ec667ade5586f7004045a4fc",
    "0x9df39b93125b25080434bf3641dfcf6734b95bc39aa6a4c06837cb773c07ee84",
    "0xa3ea3b3de657a92a28083d72430bd3ba4859c3fd8659b88a88b8032c3fa8adff",
    "0x58c37eeb3e2a4aac74e3e54fa5a1f1329ac846d1a687a6c79e8d4d5de8c0221d",
    "0x9d39e3c8683a6a44a1b7d886531a08aca13874676397a745cad2e06f5e9b4dd9",
    "0x53abfc875f7369f896aa45ba2c4b83bed56ba522ab32c92bef9f1b983d2bac6d",
    "0xde2840361f8f13cd8924cdc2b923ccce8c24cb1e59fc26c71e77860eed654942",
    "0x0c8fd3c1cde3cba5e2ad2ad76a67584143ba72d912a636f6e83b342b7a422291",
    "0x2f2feeaecd141b6f80ae087c68ed88b562920d9b530d43dea25a5ab8626396d1",
    "0x39e06a6b995a8d8d62680a61fcc70d7d63ea8ee2fa01b5113352d980a16a97a3",
    "0x80ccdd59dc66a3f98f466d2b5b70fff812ff7cad6c0635067767ae976f693f0b",
    "0xb66e3f7d7aabaa138e24070c55c6e60b44b7d11f80be81d4c12cc0774e03e2ef",
    "0x1f2aa50001e9b0ff147f62dad76a2b7ca2ba0501340610f1372b3656a38d9423",
    "0x08475dcd334f18b84e8246bfff55b6688ba5f0c9249b07f27c15e594c1ea6d3c",
    "0xe9c49a4d5c1b980be6ae7349cb0a1d38e800bff360e83100f5c5cb425216a0af",
    "0xab98b61cf367fd88d9b13c21791ee6c881a0e5edd5ab4d863b1872ea4029999f",
    "0x4ed0e1651ee0c2d126aef6fd883ffdaaadee0dbf9aa23942691414010ec4c39f",
    "0x2cb52fa1f330cfbdcc3456c44de79c414472fbe2226dcd9d70c727037b091504",
    "0x203971f0542cd4372d51c7d25e9308a3f4391ca0da458eb2fb0068685301ba77",
    "0x568618a088bcb0bf4711ba2308ede972a2e23a0aefb8e5f0adcd9d35d39f3d4c",
    "0x7bf5facf60cba66fa4aedcf2a6ad12ab27c5989ce0d91614395a7ee4bc5f2935",
    "0x0896ffd6a45d5bc6030b59b6cd0cbc32fcd0fd721c84ae1bd18a4b57a4de2819",
    "0xa1b95116ffe70bf1a5336049e29edf7d189128b84093385e832a0d7720c1c917",
    "0xc29e80c34ed8df41727e97b7a9144fa42d384c4cd91b42eea8e194520a1d29f2",
    "0xa15fc377eba1a1ba608f81faf6b71077ed5701b06a61f672388a432941f1a8ae",
    "0x9fda0da9af86fc188ae1cbd3a9b709131adab234ed597eb7c627df9010531031",
    "0x7c27431f99b194e65f136b993621844115e263a60a37e85516d53afadb19c374",
    "0x554b966193dd65386783e4f89df779ad5ba46b6f8e6a2539de118d3efea34f39",
    "0xcd564b324c0242dc0d8e96f5e0c25e2c2142672e14bde00bb81b78046e5c8b7c",
    "0x89c1c36f2a7ebc62aae13976a53cf7ae41439b0d5b85c798f8e7a3a49ed2144c",
    "0xa732e4d020e29ae8ec2485e895b08c3bc24eacb8b3ec727c175c048730d3e27e",
    "0x5242ba24306380e2518e09dba27fc78e662f066886fd5889309d217ba75c0eb5",
    "0xb9f3ddcd1d2597e1b15b2709fed2b9769075a377e4a04e6dd026c92bf3bf78f6",
    "0x4b238e456fc647c82dbbad48f613b27f970573300a3221ed3d8707e03806e157",
    "0x5c9fbe123241715615e0ce5d75f44d39c0b112d9434f70dc1e0fa4b4504b4c58",
    "0x5bfba587e10e8461f167c6cc4bb7cb6284ca20d01d204b55b61563fa6dbbdf1b",
    "0xe5705b1805a672d046846f06a0c38bad2631995b698a25e15174c1395a74edaa"
  ],
  "returns": {
    "mainRouter": {
      "internal_type": "contract MainRouter",
      "value": "0xF7be8E30E35bf739e9e63B5D334D91de34cEFA8D"
    }
  },
  "timestamp": 1716968383,
  "chain": 43113,
  "multi": false,
  "commit": "5f6d2f1"
}