{
  "transactions": [
    {
      "hash": "0x73be5d5e24fc704701a93874ee00685605487bb485f42779295999b140086d64",
      "transactionType": "CREATE",
      "contractName": "OracleLib",
      "contractAddress": "0xD026A971D3dBF3Fe0BFF93A096db291F0473D717",
      "function": null,
      "arguments": null,
      "transaction": {
        "type": "0x02",
        "from": "0x7af234d569ab6360693806d7e7f439ec2114f93c",
        "gas": "0x4cfd0",
        "data": "0x61036c61003a600b82828239805160001a60731461002d57634e487b7160e01b600052600060045260246000fd5b30600052607381538281f3fe73000000000000000000000000000000000000000030146080604052600436106100565760003560e01c8063115d30c51461005b5780632ba1c96a1461008157806347096f81146100cb578063f56f48f2146100e1575b600080fd5b61006e610069366004610270565b6100eb565b6040519081526020015b60405180910390f35b61009461008f366004610270565b61016c565b6040805169ffffffffffffffffffff968716815260208101959095528401929092526060830152909116608082015260a001610078565b61006e6100d9366004610270565b506201518090565b61006e6201518081565b600080826001600160a01b031663feaf968c6040518163ffffffff1660e01b815260040160a060405180830381865afa15801561012c573d6000803e3d6000fd5b505050506040513d601f19601f8201168201806040525081019061015091906102bf565b50935050505060008142610164919061030f565b949350505050565b6000806000806000806000806000808a6001600160a01b031663feaf968c6040518163ffffffff1660e01b815260040160a060405180830381865afa1580156101b9573d6000803e3d6000fd5b505050506040513d601f19601f820116820180604052508101906101dd91906102bf565b94509450945094509450816000148061020d57508469ffffffffffffffffffff168169ffffffffffffffffffff16105b1561022b57604051636250849d60e11b815260040160405180910390fd5b6000610237834261030f565b90506201518081111561025d57604051636250849d60e11b815260040160405180910390fd5b50939a9299509097509550909350915050565b60006020828403121561028257600080fd5b81356001600160a01b038116811461029957600080fd5b9392505050565b805169ffffffffffffffffffff811681146102ba57600080fd5b919050565b600080600080600060a086880312156102d757600080fd5b6102e0866102a0565b9450602086015193506040860151925060608601519150610303608087016102a0565b90509295509295909350565b8181038181111561033057634e487b7160e01b600052601160045260246000fd5b9291505056fea2646970667358221220db8d89078b29b21a9a1d66ccc3dc5e0ff44f77eb62470a5797cbc32fc32c3d2764736f6c63430008150033",
        "nonce": "0x86",
        "accessList": []
      },
      "additionalContracts": [],
      "isFixedGasLimit": false
    },
    {
      "hash": "0x626602ba2f6925a9d7130e7d89c09ce7d4688f91d02b4f75d97644ea0a2f085b",
      "transactionType": "CREATE",
      "contractName": "MainRouter",
      "contractAddress": "0xde538591834dd6e364833CA3937dfC8178a52fD9",
      "function": null,
      "arguments": [
        "14767482510784806043",
        "0xF694E193200268f9a4868e4Aa017A0118C9a8177",
        "0xA9d587a00A31A52Ed70D6026794a8FC5E2F5dCb0",
        "0x66756e2d6176616c616e6368652d66756a692d31000000000000000000000000"
      ],
      "transaction": {
        "type": "0x02",
        "from": "0x7af234d569ab6360693806d7e7f439ec2114f93c",
        "gas": "0x48da5a",
        "value": "0x0",
        "data": "0x61024060405261015960c08181529062003eaa60e039600a9062000024908262000210565b503480156200003257600080fd5b5060405162004003380380620040038339810160408190526200005591620002f9565b818185853384826001600160a01b0381166200008c576040516335fdcccd60e21b8152600060048201526024015b60405180910390fd5b6001600160a01b0390811660805290811660a0528116620000c457604051631e4fbdf760e01b81526000600482015260240162000083565b620000cf816200011b565b5050600680546001600160a01b0390941668010000000000000000026001600160e01b03199094166001600160401b039092169190911792909217909155600755506200035892505050565b600080546001600160a01b038381166001600160a01b0319831681178455604051919092169283917f8be0079c531659141344cd1fd0a4f28419497f9722a3daafe3b4186f6b6457e09190a35050565b634e487b7160e01b600052604160045260246000fd5b600181811c908216806200019657607f821691505b602082108103620001b757634e487b7160e01b600052602260045260246000fd5b50919050565b601f8211156200020b57600081815260208120601f850160051c81016020861015620001e65750805b601f850160051c820191505b818110156200020757828155600101620001f2565b5050505b505050565b81516001600160401b038111156200022c576200022c6200016b565b62000244816200023d845462000181565b84620001bd565b602080601f8311600181146200027c5760008415620002635750858301515b600019600386901b1c1916600185901b17855562000207565b600085815260208120601f198616915b82811015620002ad578886015182559484019460019091019084016200028c565b5085821015620002cc5787850151600019600388901b60f8161c191681555b5050505050600190811b01905550565b80516001600160a01b0381168114620002f457600080fd5b919050565b600080600080608085870312156200031057600080fd5b84516001600160401b03811681146200032857600080fd5b93506200033860208601620002dc565b92506200034860408601620002dc565b6060959095015193969295505050565b60805160a051613b176200039360003960008181610b0f01526123fe0152600081816108d20152818161120a0152611cd70152613b176000f3fe6080604052600436106103035760003560e01c80637462534211610190578063d02641a0116100dc578063ef9ab7e711610095578063f2fde38b1161006f578063f2fde38b14610a20578063f68016b714610a40578063fa39355f14610a79578063ff1aea4a14610a9957600080fd5b8063ef9ab7e714610853578063f172010d146109ed578063f2be459914610a0d57600080fd5b8063d02641a014610916578063d348dd5014610936578063d58f05da14610956578063db7bf55a1461097d578063dd406fd51461099d578063e986b13a146109cd57600080fd5b806399d2545511610149578063ac3cda2f11610123578063ac3cda2f146108a3578063b0f479a1146108c3578063c26f5b6e146108f6578063c6b7ac3c1461060c57600080fd5b806399d25455146108335780639ace5b8214610853578063aa84600a1461087357600080fd5b8063746253421461077f57806385572ffb1461079f5780638b500ea9146107bf5780638da5cb5b146107df5780638dbe7b9d146107fd5780638e2190fe1461081357600080fd5b80633d91079b1161024f5780635d9a2c4811610208578063649a05c1116101e2578063649a05c1146107015780636aa673db14610714578063715018a61461074a57806372757f0b1461075f57600080fd5b80635d9a2c481461068c57806361b3872b146106ac578063644f1aa7146106cc57600080fd5b80633d91079b1461056e5780633ed4464b146105bf578063444810f21461060c5780634b52ffb01461062c5780634d69d9461461064c57806352d84c621461066c57600080fd5b806318bd43c2116102bc5780632f881be7116102965780632f881be7146104a7578063326cb917146104c75780633b4d5c6e1461052e5780633bf333461461054e57600080fd5b806318bd43c2146104475780631edebf0b1461046757806328ca84281461048757600080fd5b806301f728841461033457806301ffc9a71461036757806309c1ba2e1461039757806309fef9d9146103cf5780630ca76175146104055780631572823c1461042757600080fd5b3661032f573360009081526014602052604081208054349290610327908490612cc3565b925050819055005b600080fd5b34801561034057600080fd5b5061035461034f366004612cd6565b610ab9565b6040519081526020015b60405180910390f35b34801561037357600080fd5b50610387610382366004612cf8565b610ace565b604051901515815260200161035e565b3480156103a357600080fd5b506008546103b7906001600160401b031681565b6040516001600160401b03909116815260200161035e565b3480156103db57600080fd5b506103546103ea366004612d37565b6001600160a01b03166000908152600e602052604090205490565b34801561041157600080fd5b50610425610420366004612e61565b610b04565b005b34801561043357600080fd5b50610425610442366004612ef9565b610b88565b34801561045357600080fd5b50610425610462366004612f23565b610bee565b34801561047357600080fd5b50610425610482366004612f61565b610c2c565b34801561049357600080fd5b506103546104a2366004612f7c565b610c57565b3480156104b357600080fd5b506104256104c2366004612d37565b610c8d565b3480156104d357600080fd5b506105166104e2366004612f95565b6001600160401b039190911660009081526012602090815260408083206001600160a01b0394851684529091529020541690565b6040516001600160a01b03909116815260200161035e565b34801561053a57600080fd5b50610354610549366004612fcc565b610cb7565b34801561055a57600080fd5b5061042561056936600461300b565b610dfb565b34801561057a57600080fd5b50610387610589366004612f95565b6001600160401b03821660009081526010602090815260408083206001600160a01b038516845290915290205460ff1692915050565b3480156105cb57600080fd5b506105f96105da366004612d37565b6001600160a01b03166000908152600d602052604090205461ffff1690565b60405161ffff909116815260200161035e565b34801561061857600080fd5b5061035461062736600461305a565b610e3b565b34801561063857600080fd5b50610425610647366004613086565b610e6e565b34801561065857600080fd5b50610354610667366004612d37565b610ea1565b34801561067857600080fd5b506104256106873660046130a4565b610f00565b34801561069857600080fd5b506104256106a7366004612ef9565b610f33565b3480156106b857600080fd5b506103546106c7366004612d37565b610f66565b3480156106d857600080fd5b506106ec6106e736600461305a565b610f8a565b6040805192835260208301919091520161035e565b61042561070f3660046130ca565b610fac565b34801561072057600080fd5b5061035461072f366004612d37565b6001600160a01b031660009081526014602052604090205490565b34801561075657600080fd5b506104256111a6565b34801561076b57600080fd5b5061038761077a366004612d37565b6111ba565b34801561078b57600080fd5b5061042561079a366004612d37565b6111d5565b3480156107ab57600080fd5b506104256107ba3660046130f9565b6111ff565b3480156107cb57600080fd5b506103546107da366004612d37565b61125e565b3480156107eb57600080fd5b506000546001600160a01b0316610516565b34801561080957600080fd5b5061035460075481565b34801561081f57600080fd5b5061038761082e366004612d37565b6112a6565b34801561083f57600080fd5b5061042561084e366004613133565b6112ba565b34801561085f57600080fd5b5061035461086e366004613167565b6112ce565b34801561087f57600080fd5b5061038761088e366004612f61565b60046020526000908152604090205460ff1681565b3480156108af57600080fd5b506103546108be366004612d37565b61130d565b3480156108cf57600080fd5b507f0000000000000000000000000000000000000000000000000000000000000000610516565b34801561090257600080fd5b50610354610911366004613167565b61133f565b34801561092257600080fd5b50610354610931366004612d37565b611351565b34801561094257600080fd5b50610425610951366004612f95565b611419565b34801561096257600080fd5b5060065461051690600160401b90046001600160a01b031681565b34801561098957600080fd5b5061035461099836600461305a565b6114fc565b3480156109a957600080fd5b506103876109b8366004612d37565b60056020526000908152604090205460ff1681565b3480156109d957600080fd5b506104256109e83660046131b0565b611571565b3480156109f957600080fd5b506106ec610a08366004612d37565b611659565b610425610a1b366004612fcc565b611677565b348015610a2c57600080fd5b50610425610a3b366004612d37565b6117e9565b348015610a4c57600080fd5b50600854610a6490600160401b900463ffffffff1681565b60405163ffffffff909116815260200161035e565b348015610a8557600080fd5b50610354610a943660046131de565b611824565b348015610aa557600080fd5b50610354610ab4366004612d37565b611984565b6000610ac583836119db565b90505b92915050565b60006001600160e01b031982166385572ffb60e01b1480610ac857506001600160e01b031982166301ffc9a760e01b1492915050565b336001600160a01b037f00000000000000000000000000000000000000000000000000000000000000001614610b4d5760405163c6829f8360e01b815260040160405180910390fd5b610b58838383611a02565b60405183907f85e1543bf2f84fe80c6badbce3648c8539ad1df4d2b3d822938ca0538be727e690600090a2505050565b610b90611ab3565b6001600160401b0382166000908152600360205260409020805460ff19168215801591909117909155610bd657610bd160016001600160401b038416611ae0565b505050565b610bd160016001600160401b038416611aec565b5050565b600c5433906001600160a01b03168114610c1b57604051631eb49d6d60e11b815260040160405180910390fd5b610c26848484611af8565b50505050565b610c34611ab3565b6008805467ffffffffffffffff19166001600160401b0392909216919091179055565b60006103e882610c796803860e639d80640000680410d586a20a4c0000613265565b610c839190613278565b610ac891906132a5565b610c95611ab3565b600b80546001600160a01b0319166001600160a01b0392909216919091179055565b6001600160401b03831660009081526010602090815260408083206001600160a01b03861684529091528120548490849060ff16610d1557818160405163b34279bf60e01b8152600401610d0c9291906132b9565b60405180910390fd5b6001600160401b03861660009081526012602090815260408083206001600160a01b03898116855292528083205490516315d0e4b560e11b8152911660048201819052919073d026a971d3dbf3fe0bff93a096db291f0473d71790632ba1c96a9060240160a060405180830381865af4158015610d96573d6000803e3d6000fd5b505050506040513d601f19601f82011682018060405250810190610dba91906132f5565b505050915050670de0b6b3a7640000866402540be40083610ddb9190613278565b610de59190613278565b610def91906132a5565b98975050505050505050565b600b5433906001600160a01b03168114610e2857604051631eb49d6d60e11b815260040160405180910390fd5b610e3485858585611b87565b5050505050565b6001600160a01b03821660009081526013602090815260408083206001600160401b038516845290915290205492915050565b610e76611ab3565b6001600160a01b03919091166000908152600560205260409020805460ff1916911515919091179055565b6000600181610eaf82611c33565b905060005b8161ffff16811015610ef8576000610ecc8483611c3d565b9050610ed88682610e3b565b610ee29086612cc3565b9450508080610ef090613345565b915050610eb4565b505050919050565b610f08611ab3565b6008805463ffffffff909216600160401b026bffffffff000000000000000019909216919091179055565b610f3b611ab3565b6001600160401b03919091166000908152600460205260409020805460ff1916911515919091179055565b6000806000610f7484611659565b91509150610f8282826119db565b949350505050565b600080610f9784846114fc565b9150610fa38484610e3b565b90509250929050565b6001600160401b03841660009081526010602090815260408083206001600160a01b03861684529091529020548490839060ff1661100157818160405163b34279bf60e01b8152600401610d0c9291906132b9565b826000036110225760405163532c969f60e11b815260040160405180910390fd5b3360009081526014602052604081208054349290611041908490612cc3565b9091555050336000908152600f602090815260408083206001600160401b038a16845282528083206001600160a01b03881684529091528120805485929061108a908490613265565b909155506110999050336111ba565b6110b65760405163317416e560e11b815260040160405180910390fd5b6006546001600160401b0380881691160361113857604051630e6dfcd560e01b81523360048201526001600160a01b03858116602483015260448201859052861690630e6dfcd590606401600060405180830381600087803b15801561111b57600080fd5b505af115801561112f573d6000803e3d6000fd5b5050505061119e565b604080513360208201526001600160a01b038616818301526060808201869052825180830390910181526080820190925260009161117b9183919060a0016133c4565b604051602081830303815290604052905061119b87876000888886611c49565b50505b505050505050565b6111ae611ab3565b6111b86000611efd565b565b6000670de0b6b3a76400006111ce83610f66565b1192915050565b6111dd611ab3565b600c80546001600160a01b0319166001600160a01b0392909216919091179055565b336001600160a01b037f0000000000000000000000000000000000000000000000000000000000000000161461124a576040516335fdcccd60e21b8152336004820152602401610d0c565b61125b611256826134b1565b611f4d565b50565b6001600160a01b0381166000908152600e6020908152604080832054600d909252822054611293916104a29161ffff16613265565b610ac8906803860e639d80640000612cc3565b6000670de0b6b3a76400006111ce8361130d565b6112c2611ab3565b600a610bea82826135dd565b6001600160a01b038084166000908152600f602090815260408083206001600160401b03871684528252808320938516835292905220545b9392505050565b6000806113198361125e565b905060008061132785611659565b915091506113368282856120a2565b95945050505050565b6000610f8283836105498787876112ce565b600080601281611362600182611c3d565b6001600160401b03168152602080820192909252604090810160009081206001600160a01b03878116835293528181205491516315d0e4b560e11b81529190921660048201819052925073d026a971d3dbf3fe0bff93a096db291f0473d71790632ba1c96a9060240160a060405180830381865af41580156113e8573d6000803e3d6000fd5b505050506040513d601f19601f8201168201806040525081019061140c91906132f5565b5091979650505050505050565b611421611ab3565b6001600160401b03821660009081526010602090815260408083206001600160a01b03851684529091529020548290829060ff1661147657818160405163b34279bf60e01b8152600401610d0c9291906132b9565b6001600160401b03841660008181526010602090815260408083206001600160a01b03881684528252808320805460ff1916905592825260119052206114bc90846120c0565b5050506001600160401b0390911660009081526012602090815260408083206001600160a01b0390941683529290522080546001600160a01b0319169055565b6001600160401b03811660009081526011602052604081208161151e82611c33565b905060005b8161ffff1681101561156857600061153b8483611c3d565b905061154887878361133f565b6115529086612cc3565b945050808061156090613345565b915050611523565b50505092915050565b611579611ab3565b6001600160401b03831660009081526010602090815260408083206001600160a01b038616845290915290205460ff16156115cb578282604051635b764d5760e01b8152600401610d0c9291906132b9565b6001600160401b03831660008181526010602090815260408083206001600160a01b03871684528252808320805460ff19166001179055928252601190522061161490836120d5565b506001600160401b039290921660009081526012602090815260408083206001600160a01b039485168452909152902080546001600160a01b03191691909216179055565b60008061166583611984565b915061167083610ea1565b9050915091565b806000036116985760405163532c969f60e11b815260040160405180910390fd5b33600090815260146020526040812080543492906116b7908490612cc3565b90915550503360009081526013602090815260408083206001600160401b0387168452909152812080548392906116ef908490612cc3565b909155506116fe9050336112a6565b61171b57604051635296a20960e11b815260040160405180910390fd5b6006546001600160401b03808516911603611795576040516340c10f1960e01b8152336004820152602481018290526001600160a01b038316906340c10f1990604401600060405180830381600087803b15801561177857600080fd5b505af115801561178c573d6000803e3d6000fd5b50505050505050565b60408051336020820152808201839052815180820383018152606082019092526000916117c891600191906080016133c4565b6040516020818303038152906040529050610e348484600160008686611c49565b6117f1611ab3565b6001600160a01b03811661181b57604051631e4fbdf760e01b815260006004820152602401610d0c565b61125b81611efd565b60006118676040805160e0810190915280600081526020016000815260200160008152602001606081526020016060815260200160608152602001606081525090565b611904600a80546118779061355d565b80601f01602080910402602001604051908101604052809291908181526020018280546118a39061355d565b80156118f05780601f106118c5576101008083540402835291602001916118f0565b820191906000526020600020905b8154815290600101906020018083116118d357829003601f168201915b5050505050826120ea90919063ffffffff16565b821561191e5761191e611917848661369c565b82906120f7565b61194e61192a82612121565b6008546007546001600160401b03821691600160401b900463ffffffff16906123f9565b600081815260096020526040902080546001600160a01b0319166001600160a01b03979097169690961790955550929392505050565b600060018161199282611c33565b905060005b8161ffff16811015610ef85760006119af8483611c3d565b90506119bb86826114fc565b6119c59086612cc3565b94505080806119d390613345565b915050611997565b6000816000036119ee5750600019610ac8565b610ac583836804563918244f4000006124cb565b60008381526009602052604081205483516001600160a01b03909116919015611a3157611a2e8461370f565b90505b61ffff811615611a63576001600160a01b0382166000908152600d60205260409020805461ffff191661ffff83161790555b8061ffff1685836001600160a01b03167f403bdb10ed8dc83f54ba14d3110235f19bfe4f00550a91eda66c81c9c47c9efe8787604051611aa4929190613733565b60405180910390a45050505050565b6000546001600160a01b031633146111b85760405163118cdaa760e01b8152336004820152602401610d0c565b6000610ac5838361250a565b6000610ac58383612559565b6001600160a01b03831660009081526013602090815260408083206001600160401b038616845290915281208054839290611b34908490613265565b90915550506040518181526001600160401b038316906001600160a01b038516907ffc9381a94a7dfa48ef1e0101b90a651637dc1dde1dfc766ae2e94db9193814489060200160405180910390a3505050565b6001600160a01b038085166000908152600f602090815260408083206001600160401b0388168452825280832093861683529290529081208054839290611bcf908490612cc3565b92505081905550816001600160a01b0316836001600160401b0316856001600160a01b03167fa61751a812949bef861391695e3c0ff1e7d4a33cb2afd76e49d1ce2feef41bc984604051611c2591815260200190565b60405180910390a450505050565b6000610ac8825490565b6000610ac5838361264c565b6001600160401b038616600090815260036020526040812054879060ff16611c8f57604051630a503cdb60e01b81526001600160401b0382166004820152602401610d0c565b866001600160a01b038116611cb75760405163502ffa3f60e11b815260040160405180910390fd5b6000611cc589866000612676565b6040516320487ded60e01b81529091507f0000000000000000000000000000000000000000000000000000000000000000906000906001600160a01b038316906320487ded90611d1b908f908790600401613758565b602060405180830381865afa158015611d38573d6000803e3d6000fd5b505050506040513d601f19601f82011682018060405250810190611d5c9190613831565b33600090815260146020526040902054909150811115611dab57336000908152601460205260409081902054905163d44547cd60e01b8152600481019190915260248101829052604401610d0c565b816001600160a01b03166396f4e9f9828e866040518463ffffffff1660e01b8152600401611dda929190613758565b60206040518083038185885af1158015611df8573d6000803e3d6000fd5b50505050506040513d601f19601f82011682018060405250810190611e1d9190613831565b955060008a6001811115611e3357611e3361335e565b03611e9457886001600160a01b03168c6001600160401b0316336001600160a01b03167fa4a5196b9663ea82d0c7a1554b5b9cb8d7aa3bf0a56e43a0abd169e47cb817ef8b604051611e8791815260200190565b60405180910390a4611eee565b60018a6001811115611ea857611ea861335e565b03611eee576040518881526001600160401b038d169033907fbee4f42ec19ab812d347ca0b11a0e518e9f4d1c671f7f4df8b093f2bd5dea0df9060200160405180910390a35b50505050509695505050505050565b600080546001600160a01b038381166001600160a01b0319831681178455604051919092169283917f8be0079c531659141344cd1fd0a4f28419497f9722a3daafe3b4186f6b6457e09190a35050565b80602001518160400151806020019051810190611f6a919061384a565b6001600160401b03821660009081526004602052604090205460ff16611fae576040516326bfad9160e21b81526001600160401b0383166004820152602401610d0c565b6001600160a01b03811660009081526005602052604090205460ff16611ff2576040516338c08ef960e11b81526001600160a01b0382166004820152602401610d0c565b600080846060015180602001905181019061200d9190613867565b60208701519193509150600083600181111561202b5761202b61335e565b036120635760008060008480602001905181019061204991906138f7565b92509250925061205b83858484611b87565b50505061119e565b60018360018111156120775761207761335e565b0361119e5760008083806020019051810190612093919061393a565b9150915061119b828483611af8565b6000826000036120b55750600019611306565b610f828484846124cb565b6000610ac5836001600160a01b038416612559565b6000610ac5836001600160a01b03841661250a565b610bea826000808461279a565b80516000036121195760405163fe936cb760e01b815260040160405180910390fd5b60a090910152565b60606000612130610100612818565b90506121696040518060400160405280600c81526020016b31b7b232a637b1b0ba34b7b760a11b8152508261283990919063ffffffff16565b82516121879060028111156121805761218061335e565b8290612852565b6040805180820190915260088152676c616e677561676560c01b60208201526121b1908290612839565b60408301516121c89080156121805761218061335e565b604080518082019091526006815265736f7572636560d01b60208201526121f0908290612839565b6060830151612200908290612839565b60a08301515115612294576040805180820190915260048152636172677360e01b6020820152612231908290612839565b61223a8161288b565b60005b8360a001515181101561228a5761227a8460a00151828151811061226357612263613968565b60200260200101518361283990919063ffffffff16565b61228381613345565b905061223d565b50612294816128af565b60808301515115612358576000836020015160028111156122b7576122b761335e565b036122d55760405163a80d31f760e01b815260040160405180910390fd5b60408051808201909152600f81526e39b2b1b932ba39a637b1b0ba34b7b760891b6020820152612306908290612839565b61231f836020015160028111156121805761218061335e565b6040805180820190915260078152667365637265747360c81b6020820152612348908290612839565b60808301516123589082906128cd565b60c083015151156123f15760408051808201909152600981526862797465734172677360b81b602082015261238e908290612839565b6123978161288b565b60005b8360c00151518110156123e7576123d78460c0015182815181106123c0576123c0613968565b6020026020010151836128cd90919063ffffffff16565b6123e081613345565b905061239a565b506123f1816128af565b515192915050565b6000807f00000000000000000000000000000000000000000000000000000000000000006001600160a01b031663461d27628688600188886040518663ffffffff1660e01b815260040161245195949392919061397e565b6020604051808303816000875af1158015612470573d6000803e3d6000fd5b505050506040513d601f19601f820116820180604052508101906124949190613831565b60405190915081907f1131472297a800fee664d1d89cfa8f7676ff07189ecc53f80bbb5f4969099db890600090a295945050505050565b600068056bc75e2d631000006124e18386613278565b6124eb91906132a5565b905082612500670de0b6b3a764000083613278565b610f8291906132a5565b600081815260018301602052604081205461255157508154600181810184556000848152602080822090930184905584548482528286019093526040902091909155610ac8565b506000610ac8565b6000818152600183016020526040812054801561264257600061257d600183613265565b855490915060009061259190600190613265565b90508082146125f65760008660000182815481106125b1576125b1613968565b90600052602060002001549050808760000184815481106125d4576125d4613968565b6000918252602080832090910192909255918252600188019052604090208390555b8554869080612607576126076139c7565b600190038181906000526020600020016000905590558560010160008681526020019081526020016000206000905560019350505050610ac8565b6000915050610ac8565b600082600001828154811061266357612663613968565b9060005260206000200154905092915050565b6126b16040518060a0016040528060608152602001606081526020016060815260200160006001600160a01b03168152602001606081525090565b6040805160a081019091526001600160a01b03851660c08201528060e0810160408051808303601f190181529181529082526020808301879052815160008082529181018352929091019190612729565b60408051808201909152600080825260208201528152602001906001900390816127025790505b508152602001836001600160a01b03168152602001612790604051806020016040528062030d4081525060408051915160248084019190915281518084039091018152604490920190526020810180516001600160e01b03166397a657c960e01b17905290565b9052949350505050565b80516000036127bc576040516322ce3edd60e01b815260040160405180910390fd5b838360028111156127cf576127cf61335e565b908160028111156127e2576127e261335e565b905250604084018280156127f8576127f861335e565b908180156128085761280861335e565b9052506060909301929092525050565b612820612c78565b805161282c90836128da565b5060006020820152919050565b6128468260038351612951565b8151610bd19082612a6a565b815161285f9060c2612a8b565b50610bea828260405160200161287791815260200190565b6040516020818303038152906040526128cd565b612896816004612af4565b6001816020018181516128a99190612cc3565b90525050565b6128ba816007612af4565b6001816020018181516128a99190613265565b6128468260028351612951565b6040805180820190915260608152600060208201526128fa6020836139dd565b156129225761290a6020836139dd565b612915906020613265565b61291f9083612cc3565b91505b60208084018390526040518085526000815290818401018181101561294657600080fd5b604052509192915050565b6017816001600160401b031611612977578251610c269060e0600585901b168317612a8b565b60ff816001600160401b0316116129b757825161299f906018611fe0600586901b1617612a8b565b508251610c26906001600160401b0383166001612b0b565b61ffff816001600160401b0316116129f85782516129e0906019611fe0600586901b1617612a8b565b508251610c26906001600160401b0383166002612b0b565b63ffffffff816001600160401b031611612a3b578251612a2390601a611fe0600586901b1617612a8b565b508251610c26906001600160401b0383166004612b0b565b8251612a5290601b611fe0600586901b1617612a8b565b508251610c26906001600160401b0383166008612b0b565b604080518082019091526060815260006020820152610ac583838451612b90565b6040805180820190915260608152600060208201528251516000612ab0826001612cc3565b905084602001518210612ad157612ad185612acc836002613278565b612c61565b8451602083820101858153508051821115612aea578181525b5093949350505050565b8151610bd190601f611fe0600585901b1617612a8b565b6040805180820190915260608152600060208201528351516000612b2f8285612cc3565b90508560200151811115612b4c57612b4c86612acc836002613278565b60006001612b5c86610100613ad5565b612b669190613265565b90508651828101878319825116178152508051831115612b84578281525b50959695505050505050565b6040805180820190915260608152600060208201528251821115612bb357600080fd5b8351516000612bc28483612cc3565b90508560200151811115612bdf57612bdf86612acc836002613278565b855180518382016020019160009180851115612bf9578482525b505050602086015b60208610612c395780518252612c18602083612cc3565b9150612c25602082612cc3565b9050612c32602087613265565b9550612c01565b51815160001960208890036101000a0190811690199190911617905250849150509392505050565b8151612c6d83836128da565b50610c268382612a6a565b6040518060400160405280612ca0604051806040016040528060608152602001600081525090565b8152602001600081525090565b634e487b7160e01b600052601160045260246000fd5b80820180821115610ac857610ac8612cad565b60008060408385031215612ce957600080fd5b50508035926020909101359150565b600060208284031215612d0a57600080fd5b81356001600160e01b03198116811461130657600080fd5b6001600160a01b038116811461125b57600080fd5b600060208284031215612d4957600080fd5b813561130681612d22565b634e487b7160e01b600052604160045260246000fd5b604080519081016001600160401b0381118282101715612d8c57612d8c612d54565b60405290565b60405160a081016001600160401b0381118282101715612d8c57612d8c612d54565b604051601f8201601f191681016001600160401b0381118282101715612ddc57612ddc612d54565b604052919050565b60006001600160401b03821115612dfd57612dfd612d54565b50601f01601f191660200190565b600082601f830112612e1c57600080fd5b8135612e2f612e2a82612de4565b612db4565b818152846020838601011115612e4457600080fd5b816020850160208301376000918101602001919091529392505050565b600080600060608486031215612e7657600080fd5b8335925060208401356001600160401b0380821115612e9457600080fd5b612ea087838801612e0b565b93506040860135915080821115612eb657600080fd5b50612ec386828701612e0b565b9150509250925092565b80356001600160401b0381168114612ee457600080fd5b919050565b80358015158114612ee457600080fd5b60008060408385031215612f0c57600080fd5b612f1583612ecd565b9150610fa360208401612ee9565b600080600060608486031215612f3857600080fd5b8335612f4381612d22565b9250612f5160208501612ecd565b9150604084013590509250925092565b600060208284031215612f7357600080fd5b610ac582612ecd565b600060208284031215612f8e57600080fd5b5035919050565b60008060408385031215612fa857600080fd5b612fb183612ecd565b91506020830135612fc181612d22565b809150509250929050565b600080600060608486031215612fe157600080fd5b612fea84612ecd565b92506020840135612ffa81612d22565b929592945050506040919091013590565b6000806000806080858703121561302157600080fd5b843561302c81612d22565b935061303a60208601612ecd565b9250604085013561304a81612d22565b9396929550929360600135925050565b6000806040838503121561306d57600080fd5b823561307881612d22565b9150610fa360208401612ecd565b6000806040838503121561309957600080fd5b8235612f1581612d22565b6000602082840312156130b657600080fd5b813563ffffffff8116811461130657600080fd5b600080600080608085870312156130e057600080fd5b6130e985612ecd565b9350602085013561303a81612d22565b60006020828403121561310b57600080fd5b81356001600160401b0381111561312157600080fd5b820160a0818503121561130657600080fd5b60006020828403121561314557600080fd5b81356001600160401b0381111561315b57600080fd5b610f8284828501612e0b565b60008060006060848603121561317c57600080fd5b833561318781612d22565b925061319560208501612ecd565b915060408401356131a581612d22565b809150509250925092565b6000806000606084860312156131c557600080fd5b6131ce84612ecd565b9250602084013561319581612d22565b6000806000604084860312156131f357600080fd5b83356131fe81612d22565b925060208401356001600160401b038082111561321a57600080fd5b818601915086601f83011261322e57600080fd5b81358181111561323d57600080fd5b8760208260051b850101111561325257600080fd5b6020830194508093505050509250925092565b81810381811115610ac857610ac8612cad565b8082028115828204841417610ac857610ac8612cad565b634e487b7160e01b600052601260045260246000fd5b6000826132b4576132b461328f565b500490565b6001600160401b039290921682526001600160a01b0316602082015260400190565b805169ffffffffffffffffffff81168114612ee457600080fd5b600080600080600060a0868803121561330d57600080fd5b613316866132db565b9450602086015193506040860151925060608601519150613339608087016132db565b90509295509295909350565b60006001820161335757613357612cad565b5060010190565b634e487b7160e01b600052602160045260246000fd5b60005b8381101561338f578181015183820152602001613377565b50506000910152565b600081518084526133b0816020860160208601613374565b601f01601f19169290920160200192915050565b6000600284106133e457634e487b7160e01b600052602160045260246000fd5b83825260406020830152610f826040830184613398565b60006001600160401b0382111561341457613414612d54565b5060051b60200190565b600082601f83011261342f57600080fd5b8135602061343f612e2a836133fb565b82815260069290921b8401810191818101908684111561345e57600080fd5b8286015b848110156134a6576040818903121561347b5760008081fd5b613483612d6a565b813561348e81612d22565b81528185013585820152835291830191604001613462565b509695505050505050565b600060a082360312156134c357600080fd5b6134cb612d92565b823581526134db60208401612ecd565b602082015260408301356001600160401b03808211156134fa57600080fd5b61350636838701612e0b565b6040840152606085013591508082111561351f57600080fd5b61352b36838701612e0b565b6060840152608085013591508082111561354457600080fd5b506135513682860161341e565b60808301525092915050565b600181811c9082168061357157607f821691505b60208210810361359157634e487b7160e01b600052602260045260246000fd5b50919050565b601f821115610bd157600081815260208120601f850160051c810160208610156135be5750805b601f850160051c820191505b8181101561119e578281556001016135ca565b81516001600160401b038111156135f6576135f6612d54565b61360a81613604845461355d565b84613597565b602080601f83116001811461363f57600084156136275750858301515b600019600386901b1c1916600185901b17855561119e565b600085815260208120601f198616915b8281101561366e5788860151825594840194600190910190840161364f565b508582101561368c5787850151600019600388901b60f8161c191681555b5050505050600190811b01905550565b60006136aa612e2a846133fb565b80848252602080830192508560051b8501368111156136c857600080fd5b855b818110156137035780356001600160401b038111156136e95760008081fd5b6136f536828a01612e0b565b8652509382019382016136ca565b50919695505050505050565b805160208083015191908110156135915760001960209190910360031b1b16919050565b6040815260006137466040830185613398565b82810360208401526113368185613398565b600060406001600160401b038516835260208181850152845160a08386015261378460e0860182613398565b905081860151603f19808784030160608801526137a18383613398565b88860151888203830160808a01528051808352908601945060009350908501905b808410156137f457845180516001600160a01b03168352860151868301529385019360019390930192908601906137c2565b5060608901516001600160a01b031660a08901526080890151888203830160c08a015295506138238187613398565b9a9950505050505050505050565b60006020828403121561384357600080fd5b5051919050565b60006020828403121561385c57600080fd5b815161130681612d22565b6000806040838503121561387a57600080fd5b82516002811061388957600080fd5b60208401519092506001600160401b038111156138a557600080fd5b8301601f810185136138b657600080fd5b80516138c4612e2a82612de4565b8181528660208385010111156138d957600080fd5b6138ea826020830160208601613374565b8093505050509250929050565b60008060006060848603121561390c57600080fd5b835161391781612d22565b602085015190935061392881612d22565b80925050604084015190509250925092565b6000806040838503121561394d57600080fd5b825161395881612d22565b6020939093015192949293505050565b634e487b7160e01b600052603260045260246000fd5b6001600160401b038616815260a0602082015260006139a060a0830187613398565b61ffff9590951660408301525063ffffffff92909216606083015260809091015292915050565b634e487b7160e01b600052603160045260246000fd5b6000826139ec576139ec61328f565b500690565b600181815b80851115613a2c578160001904821115613a1257613a12612cad565b80851615613a1f57918102915b93841c93908002906139f6565b509250929050565b600082613a4357506001610ac8565b81613a5057506000610ac8565b8160018114613a665760028114613a7057613a8c565b6001915050610ac8565b60ff841115613a8157613a81612cad565b50506001821b610ac8565b5060208310610133831016604e8410600b8410161715613aaf575081810a610ac8565b613ab983836139f1565b8060001904821115613acd57613acd612cad565b029392505050565b6000610ac58383613a3456fea2646970667358221220efe4f9cd11f6b67073dc903ccafd57ad09a699bd07e412fb02e20b4a93b5935f64736f6c63430008150033636f6e73742075736572203d20617267735b305d3b636f6e737420617069526573706f6e7365203d2061776169742046756e6374696f6e732e6d616b654874747052657175657374287b75726c3a206068747470733a2f2f626574612e6372656470726f746f636f6c2e636f6d2f6170692f73636f72652f616464726573732f247b757365727d2f602c686561646572733a207b27417574686f72697a6174696f6e273a2060546f6b656e2033373335343038333664313239366638633466373932656164653738646464383961623133643230607d2c7d293b69662028617069526573706f6e73652e6572726f7229207b7468726f77204572726f72282752657175657374206661696c656427293b7d636f6e7374207b2064617461207d203d20617069526573706f6e73653b72657475726e2046756e6374696f6e732e656e636f646555696e7432353628646174612e76616c7565293b000000000000000000000000000000000000000000000000ccf0a31a221f3c9b000000000000000000000000f694e193200268f9a4868e4aa017a0118c9a8177000000000000000000000000a9d587a00a31a52ed70d6026794a8fc5e2f5dcb066756e2d6176616c616e6368652d66756a692d31000000000000000000000000",
        "nonce": "0x87",
        "accessList": []
      },
      "additionalContracts": [],
      "isFixedGasLimit": false
    },
    {
      "hash": "0x13fc17ee7fe2d9d71a3c115684587106a033e37647b0854c0582bbfb44c11091",
      "transactionType": "CREATE",
      "contractName": "TokenConfig",
      "contractAddress": "0xce9b4F58E8990746Bd95d519253238Bc60Da5aa6",
      "function": null,
      "arguments": null,
      "transaction": {
        "type": "0x02",
        "from": "0x7af234d569ab6360693806d7e7f439ec2114f93c",
        "gas": "0x1b593d",
        "value": "0x0",
        "data": "0x6080604052600c805462ff00ff19166201000117905534801561002157600080fd5b5061178c806100316000396000f3fe608060405234801561001057600080fd5b50600436106104ee5760003560e01c8063a25b465e1161028e578063cafa15c711610167578063ead95284116100d9578063f8cda8ca11610092578063f8cda8ca14610a7a578063f8f095dc146104f3578063f9b001e014610a82578063fa0caf1714610584578063fc2a53d514610a9d578063fcb9a218146106ba57600080fd5b8063ead9528414610a0e578063ef597f7414610569578063f15650c814610a17578063f1b09fc114610a32578063f8caf99b14610a3c578063f8ccbf4714610a5757600080fd5b8063d806acb71161012b578063d806acb714610993578063d863fcc81461054e578063d8dab1f7146109ae578063d8ea3d24146109c9578063da960d27146109e4578063de88e915146109ff57600080fd5b8063cafa15c71461076b578063cb62cfbd14610942578063cdf686df1461069f578063d043bf9c1461095d578063d7a6ead81461097857600080fd5b8063afed4d8c11610200578063c0406226116101c4578063c040622614610923578063c132cda71461092b578063c1cbe7491461093a578063c43b6b0014610786578063c714ff6f1461076b578063c95a43691461054e57600080fd5b8063afed4d8c146108d6578063b5b3774f146108e5578063be008430146108ed578063bf1344db146104f3578063bfaa4aad1461090857600080fd5b8063abe914dd11610252578063abe914dd1461087d578063ac659d1d1461054e578063acec0a6914610898578063acfaf34d146108c4578063ad9f2db2146108ce578063ae0267091461066957600080fd5b8063a25b465e1461083d578063a25bc47914610858578063a8823052146106ba578063a95d64431461076b578063aa8269201461086257600080fd5b80635556b32a116103cb5780636c619a081161033d5780638f3f1561116102f65780638f3f15611461056957806393ea3c79146106ba57806394c96545146107865780639acd72a1146107a1578063a06e2b1f14610807578063a08fc3221461082257600080fd5b80636c619a08146105ba5780636ece0949146107ec578063709e1ba61461069f578063811db7621461063f57806386862bc5146104f3578063888117e21461058457600080fd5b806360f0ff8e1161038f57806360f0ff8e1461076b578063616258fc1461078657806363c7b80014610786578063669ac34f146107a157806367fee281146107bc57806368567e71146107d157600080fd5b80635556b32a146106ff578063573864c41461071a5780635878d5fe146107355780635932b5db1461069f5780635ba1a94e1461075057600080fd5b80632b7076a0116104645780633e49331d116104285780633e49331d1461068457806343ac40df1461069f57806349377bd7146106ba5780634c47f188146106d55780634d1b22f81461058457806350e2f236146106e457600080fd5b80632b7076a0146106095780632f3a3fa61461062457806331e8ae5d1461063f57806334f594361461065a5780633cad3fc11461066957600080fd5b806313643d0a116104b657806313643d0a1461059f57806315d99206146105ba57806316b3d6fa146105d55780631fab59fb146105e457806329da731e146105ee5780632b4c59db1461056957600080fd5b8063033130f2146104f357806304c4a7b31461052b5780630c4c526c1461054e5780630f011ded146105695780630ff859d614610584575b600080fd5b61050e7332b8f75d2ac926a0a906f24df3e8fe2ba17bd80a81565b6040516001600160a01b0390911681526020015b60405180910390f35b61053562aa36a781565b60405167ffffffffffffffff9091168152602001610522565b61050e73dff5ba9fcff83ce455e45de7572b6259b0e7d7de81565b61050e73f6905f1e4ad86f8c3a1ebfca3e04a9e4d2addd0d81565b61050e7375b86d7b224fd88f785bb5fac5e261d9efde304781565b61050e73114a20a10b43d4115e5aeef7345a1a71d2a60c5781565b61050e737898accc83587c3c55116c5230c17a6cd9c71bad81565b610535678f90b8876dee653881565b61053562066eee81565b61050e737e732eba9e67c16d8cea65185f0a383e8c70912181565b61050e73b3718e52781f9fc1c0b72a2966c2616e6d962a1c81565b61050e733001d62ebc86ab3a4ef91afed766bb70182e251c81565b61050e73a7809a6373ee66a99269933395a311c01ed6d02381565b61053567e1f4423f1bf587cd81565b61050e7334c4c526902d88a3aa98db8a9b802603eb1e347081565b61050e737b219f57a8e9c7303204af681e9fa69d17ef626f81565b61050e7309484f76b7376d53fc5e4f52fabee3fe3aac525c81565b61050e739a24bd7833859d2364ead5a4af4b16799693df1281565b61053567ccf0a31a221f3c9b81565b61050e730bf3de8c5d3e8a2b34d2beeb17abfcebaf363a5981565b61050e730804bfec3ef24bc6ca0eb399d108cc0313d86d9c81565b61050e7331cf013a08c6ac228c94551d535d5bafe19c602a81565b61050e73aca1ea8547e247a3125da273b16c17badc4f081281565b61050e739124d3b5dfd072bb2d6cf3e3a59430d2a5d8a55d81565b61050e73e257e2a67407144c918acad5e11c2582f77c0b1a81565b61050e73244ec7f5753b2fc10d0c2baab1ab55850e73a3ab81565b61050e732165936af562a3901e6d60c18b2e4a2b09898be681565b6107c4610aa5565b60405161052291906116c6565b61050e731658727bd2e390837d39c2fffe41e16dc1d6c27b81565b61050e73d28f8454873ceb4de41d537257044510c3a1d61681565b61050e732a9c5afb0d0e4bab2bcdae109ec4b0c4be15a16581565b61050e736cc55345982d82e3e6dc704a64cdbd58a6421b7a81565b61050e73dd36fb413b4470ab5ce67f975c6a2b192e6f84ba81565b61053562aa37dc81565b61050e739c32fcb86bf0f4a1a8921a9fe46de3198bb884b281565b61050e7365ae0010421814b1303778bc82a599f63028d89981565b6108b67366756e2d6176616c616e6368652d66756a692d3160601b81565b604051908152602001610522565b6105356201388281565b6107c4610c6a565b61053567de41ba4fc9d91ad981565b6107c4610e2f565b61050e73620476fe1bc36a37530b416b7d658024d5966b0881565b61050e7386d67c3d38d2bcee722e601025c25a575021c6ea81565b6107c4610ff4565b6105356748810ec3e431431f81565b6107c4611075565b61050e73597fa805bfc550d1d5bba46425fc92555352aa5181565b61050e73492e85cd024a271c4f19d8b7e9050ef2bbfedcca81565b61050e7351353bfb9fb8bae6d70b896401937c64e96bacb981565b61050e7331a4ae750c0e8d477dd39af3662f93e69021aa5081565b61050e73f694e193200268f9a4868e4aa017a0118c9a817781565b61050e73d3b06cebf099ce7da4accf578aaebfdbd6e88a9381565b61050e73873784501cc4151eb61553e27ae177db1e76089481565b61053567304611b6affba76a81565b61053561a86981565b61050e73170dd06d42000d32f325a102214b1304daa757eb81565b61053562014a3481565b61050e73a9d587a00a31a52ed70d6026794a8fc5e2f5dcb081565b600c54610a6a9062010000900460ff1681565b6040519015158152602001610522565b6107c461123a565b61050e734aa3b1639d45cb98a67790b8509e47bd7aa16d2a81565b6107c46113ff565b610aad6115c4565b604080516060808201835267e1f4423f1bf587cd80835273f6905f1e4ad86f8c3a1ebfca3e04a9e4d2addd0d6020808501919091527331cf013a08c6ac228c94551d535d5bafe19c602a8486015292855283518083018552818152739a24bd7833859d2364ead5a4af4b16799693df12818501527386d67c3d38d2bcee722e601025c25a575021c6ea81860152858401528351808301855281815273244ec7f5753b2fc10d0c2baab1ab55850e73a3ab818501527334c4c526902d88a3aa98db8a9b802603eb1e3470818601819052868601919091528451808401865282815273e257e2a67407144c918acad5e11c2582f77c0b1a818601528086019190915285830152835180830185528181527332b8f75d2ac926a0a906f24df3e8fe2ba17bd80a81850152737b219f57a8e9c7303204af681e9fa69d17ef626f8186015260808601528351808301855281815273dff5ba9fcff83ce455e45de7572b6259b0e7d7de81850152737898accc83587c3c55116c5230c17a6cd9c71bad81860181905260a0870191909152845192830185529082527375b86d7b224fd88f785bb5fac5e261d9efde3047928201929092529182015260c082015290565b610c726115c4565b6040805160608082018352678f90b8876dee653880835273f6905f1e4ad86f8c3a1ebfca3e04a9e4d2addd0d6020808501919091527331cf013a08c6ac228c94551d535d5bafe19c602a8486015292855283518083018552818152739a24bd7833859d2364ead5a4af4b16799693df12818501527386d67c3d38d2bcee722e601025c25a575021c6ea81860152858401528351808301855281815273244ec7f5753b2fc10d0c2baab1ab55850e73a3ab818501527334c4c526902d88a3aa98db8a9b802603eb1e3470818601819052868601919091528451808401865282815273e257e2a67407144c918acad5e11c2582f77c0b1a818601528086019190915285830152835180830185528181527332b8f75d2ac926a0a906f24df3e8fe2ba17bd80a81850152737b219f57a8e9c7303204af681e9fa69d17ef626f8186015260808601528351808301855281815273dff5ba9fcff83ce455e45de7572b6259b0e7d7de81850152737898accc83587c3c55116c5230c17a6cd9c71bad81860181905260a0870191909152845192830185529082527375b86d7b224fd88f785bb5fac5e261d9efde3047928201929092529182015260c082015290565b610e376115c4565b604080516060808201835267de41ba4fc9d91ad9808352734aa3b1639d45cb98a67790b8509e47bd7aa16d2a6020808501919091527331cf013a08c6ac228c94551d535d5bafe19c602a8486015292855283518083018552818152739124d3b5dfd072bb2d6cf3e3a59430d2a5d8a55d818501527386d67c3d38d2bcee722e601025c25a575021c6ea8186015285840152835180830185528181527331a4ae750c0e8d477dd39af3662f93e69021aa50818501527334c4c526902d88a3aa98db8a9b802603eb1e3470818601819052868601919091528451808401865282815273dd36fb413b4470ab5ce67f975c6a2b192e6f84ba8186015280860191909152858301528351808301855281815273492e85cd024a271c4f19d8b7e9050ef2bbfedcca81850152737b219f57a8e9c7303204af681e9fa69d17ef626f818601526080860152835180830185528181527365ae0010421814b1303778bc82a599f63028d89981850152737898accc83587c3c55116c5230c17a6cd9c71bad81860181905260a08701919091528451928301855290825273b3718e52781f9fc1c0b72a2966c2616e6d962a1c928201929092529182015260c082015290565b610ffc6115c4565b61a8681946016110135761100e6113ff565b905090565b62aa36a61946016110265761100e610e2f565b62066eed1946016110395761100e61123a565b6201388119460161104c5761100e610aa5565b62014a3319460161105f5761100e610c6a565b62aa37db1946016110725761100e611075565b90565b61107d6115c4565b60408051606080820183526748810ec3e431431f80835273f6905f1e4ad86f8c3a1ebfca3e04a9e4d2addd0d6020808501919091527331cf013a08c6ac228c94551d535d5bafe19c602a8486015292855283518083018552818152739a24bd7833859d2364ead5a4af4b16799693df12818501527386d67c3d38d2bcee722e601025c25a575021c6ea81860152858401528351808301855281815273244ec7f5753b2fc10d0c2baab1ab55850e73a3ab818501527334c4c526902d88a3aa98db8a9b802603eb1e3470818601819052868601919091528451808401865282815273e257e2a67407144c918acad5e11c2582f77c0b1a818601528086019190915285830152835180830185528181527332b8f75d2ac926a0a906f24df3e8fe2ba17bd80a81850152737b219f57a8e9c7303204af681e9fa69d17ef626f8186015260808601528351808301855281815273dff5ba9fcff83ce455e45de7572b6259b0e7d7de81850152737898accc83587c3c55116c5230c17a6cd9c71bad81860181905260a0870191909152845192830185529082527375b86d7b224fd88f785bb5fac5e261d9efde3047928201929092529182015260c082015290565b6112426115c4565b604080516060808201835267304611b6affba76a80835273f6905f1e4ad86f8c3a1ebfca3e04a9e4d2addd0d6020808501919091527331cf013a08c6ac228c94551d535d5bafe19c602a8486015292855283518083018552818152739a24bd7833859d2364ead5a4af4b16799693df12818501527386d67c3d38d2bcee722e601025c25a575021c6ea81860152858401528351808301855281815273244ec7f5753b2fc10d0c2baab1ab55850e73a3ab818501527334c4c526902d88a3aa98db8a9b802603eb1e3470818601819052868601919091528451808401865282815273e257e2a67407144c918acad5e11c2582f77c0b1a818601528086019190915285830152835180830185528181527332b8f75d2ac926a0a906f24df3e8fe2ba17bd80a81850152737b219f57a8e9c7303204af681e9fa69d17ef626f8186015260808601528351808301855281815273dff5ba9fcff83ce455e45de7572b6259b0e7d7de81850152737898accc83587c3c55116c5230c17a6cd9c71bad81860181905260a0870191909152845192830185529082527375b86d7b224fd88f785bb5fac5e261d9efde3047928201929092529182015260c082015290565b6114076115c4565b604080516060808201835267ccf0a31a221f3c9b808352730804bfec3ef24bc6ca0eb399d108cc0313d86d9c6020808501919091527331cf013a08c6ac228c94551d535d5bafe19c602a84860152928552835180830185528181527351353bfb9fb8bae6d70b896401937c64e96bacb9818501527386d67c3d38d2bcee722e601025c25a575021c6ea818601528584015283518083018552818152733001d62ebc86ab3a4ef91afed766bb70182e251c818501527334c4c526902d88a3aa98db8a9b802603eb1e3470818601819052868601919091528451808401865282815273d28f8454873ceb4de41d537257044510c3a1d61681860152808601919091528583015283518083018552818152736cc55345982d82e3e6dc704a64cdbd58a6421b7a81850152737b219f57a8e9c7303204af681e9fa69d17ef626f8186015260808601528351808301855281815273620476fe1bc36a37530b416b7d658024d5966b0881850152737898accc83587c3c55116c5230c17a6cd9c71bad81860181905260a08701919091528451928301855290825273aca1ea8547e247a3125da273b16c17badc4f0812928201929092529182015260c082015290565b6040805161014081018252600060e08201818152610100830182905261012083018290528252825160608082018552828252602080830184905282860184905280850192909252845180820186528381528083018490528086018490528486015284518082018652838152808301849052808601849052818501528451808201865283815280830184905280860184905260808501528451808201865283815280830184905280860184905260a0850152845190810185528281529081018290529283015260c081019190915290565b805167ffffffffffffffff1682526020808201516001600160a01b039081169184019190915260409182015116910152565b60006102a0820190506116da828451611694565b60208301516116ec6060840182611694565b5060408301516116ff60c0840182611694565b506060830151611713610120840182611694565b506080830151611727610180840182611694565b5060a083015161173b6101e0840182611694565b5060c083015161174f610240840182611694565b509291505056fea2646970667358221220e8e419e352d2f736c87e7ee4c14461ab3f5bd36ec016924250729c7a6d75a2ae64736f6c63430008150033",
        "nonce": "0x88",
        "accessList": []
      },
      "additionalContracts": [],
      "isFixedGasLimit": false
    },
    {
      "hash": "0x6edc58dee2a62385abe1619ca9d444abca798a70734cf6c190b419c0167fae5d",
      "transactionType": "CALL",
      "contractName": "MainRouter",
      "contractAddress": "0xde538591834dd6e364833CA3937dfC8178a52fD9",
      "function": "addAllowedToken(uint64,address,address)",
      "arguments": [
        "14767482510784806043",
        "0x0804BfEC3ef24bc6CA0eb399D108CC0313d86d9c",
        "0x31CF013A08c6Ac228C94551d535d5BAfE19c602a"
      ],
      "transaction": {
        "type": "0x02",
        "from": "0x7af234d569ab6360693806d7e7f439ec2114f93c",
        "to": "0xde538591834dd6e364833ca3937dfc8178a52fd9",
        "gas": "0x30c7c",
        "value": "0x0",
        "data": "0xe986b13a000000000000000000000000000000000000000000000000ccf0a31a221f3c9b0000000000000000000000000804bfec3ef24bc6ca0eb399d108cc0313d86d9c00000000000000000000000031cf013a08c6ac228c94551d535d5bafe19c602a",
        "nonce": "0x89",
        "accessList": []
      },
      "additionalContracts": [],
      "isFixedGasLimit": false
    },
    {
      "hash": "0x1cdac84944508a0c9b80402bd2664ccb52c6ba2b94dd9c8ac8ab4fd3e14db0a8",
      "transactionType": "CALL",
      "contractName": "MainRouter",
      "contractAddress": "0xde538591834dd6e364833CA3937dfC8178a52fD9",
      "function": "addAllowedToken(uint64,address,address)",
      "arguments": [
        "14767482510784806043",
        "0x51353BFb9fB8baE6d70b896401937C64E96BAcB9",
        "0x86d67c3D38D2bCeE722E601025C25a575021c6EA"
      ],
      "transaction": {
        "type": "0x02",
        "from": "0x7af234d569ab6360693806d7e7f439ec2114f93c",
        "to": "0xde538591834dd6e364833ca3937dfc8178a52fd9",
        "gas": "0x284dc",
        "value": "0x0",
        "data": "0xe986b13a000000000000000000000000000000000000000000000000ccf0a31a221f3c9b00000000000000000000000051353bfb9fb8bae6d70b896401937c64e96bacb900000000000000000000000086d67c3d38d2bcee722e601025c25a575021c6ea",
        "nonce": "0x8a",
        "accessList": []
      },
      "additionalContracts": [],
      "isFixedGasLimit": false
    },
    {
      "hash": "0x38ea59e3751801dcc1e57d9f59935851a2f979548f820118bd2d409e02bdab32",
      "transactionType": "CALL",
      "contractName": "MainRouter",
      "contractAddress": "0xde538591834dd6e364833CA3937dfC8178a52fD9",
      "function": "addAllowedToken(uint64,address,address)",
      "arguments": [
        "14767482510784806043",
        "0x3001d62eBc86ab3A4eF91aFed766BB70182e251c",
        "0x34C4c526902d88a3Aa98DB8a9b802603EB1E3470"
      ],
      "transaction": {
        "type": "0x02",
        "from": "0x7af234d569ab6360693806d7e7f439ec2114f93c",
        "to": "0xde538591834dd6e364833ca3937dfc8178a52fd9",
        "gas": "0x284dc",
        "value": "0x0",
        "data": "0xe986b13a000000000000000000000000000000000000000000000000ccf0a31a221f3c9b0000000000000000000000003001d62ebc86ab3a4ef91afed766bb70182e251c00000000000000000000000034c4c526902d88a3aa98db8a9b802603eb1e3470",
        "nonce": "0x8b",
        "accessList": []
      },
      "additionalContracts": [],
      "isFixedGasLimit": false
    },
    {
      "hash": "0x8057c24647f1e5caefe0e4ab0789a8a8b5c3dfff4009100f6b2334edfb8b083b",
      "transactionType": "CALL",
      "contractName": "MainRouter",
      "contractAddress": "0xde538591834dd6e364833CA3937dfC8178a52fD9",
      "function": "addAllowedToken(uint64,address,address)",
      "arguments": [
        "14767482510784806043",
        "0xD28f8454873CEb4de41d537257044510c3A1d616",
        "0x34C4c526902d88a3Aa98DB8a9b802603EB1E3470"
      ],
      "transaction": {
        "type": "0x02",
        "from": "0x7af234d569ab6360693806d7e7f439ec2114f93c",
        "to": "0xde538591834dd6e364833ca3937dfc8178a52fd9",
        "gas": "0x284dc",
        "value": "0x0",
        "data": "0xe986b13a000000000000000000000000000000000000000000000000ccf0a31a221f3c9b000000000000000000000000d28f8454873ceb4de41d537257044510c3a1d61600000000000000000000000034c4c526902d88a3aa98db8a9b802603eb1e3470",
        "nonce": "0x8c",
        "accessList": []
      },
      "additionalContracts": [],
      "isFixedGasLimit": false
    },
    {
      "hash": "0x2aae1311bc88c0eb15233815eee54d38cf6ad667054fb982828c10013db22f95",
      "transactionType": "CALL",
      "contractName": "MainRouter",
      "contractAddress": "0xde538591834dd6e364833CA3937dfC8178a52fD9",
      "function": "addAllowedToken(uint64,address,address)",
      "arguments": [
        "14767482510784806043",
        "0x6cC55345982d82e3E6dC704a64cdbD58a6421b7A",
        "0x7b219F57a8e9C7303204Af681e9fA69d17ef626f"
      ],
      "transaction": {
        "type": "0x02",
        "from": "0x7af234d569ab6360693806d7e7f439ec2114f93c",
        "to": "0xde538591834dd6e364833ca3937dfc8178a52fd9",
        "gas": "0x284dc",
        "value": "0x0",
        "data": "0xe986b13a000000000000000000000000000000000000000000000000ccf0a31a221f3c9b0000000000000000000000006cc55345982d82e3e6dc704a64cdbd58a6421b7a0000000000000000000000007b219f57a8e9c7303204af681e9fa69d17ef626f",
        "nonce": "0x8d",
        "accessList": []
      },
      "additionalContracts": [],
      "isFixedGasLimit": false
    },
    {
      "hash": "0xd4cbcba51665ae4d74847ee1f2d4e1d50db48ad7fce137e7600f1bce41f7790f",
      "transactionType": "CALL",
      "contractName": "MainRouter",
      "contractAddress": "0xde538591834dd6e364833CA3937dfC8178a52fD9",
      "function": "addAllowedToken(uint64,address,address)",
      "arguments": [
        "14767482510784806043",
        "0x620476fe1Bc36a37530b416B7d658024D5966b08",
        "0x7898AcCC83587C3C55116c5230C17a6Cd9C71bad"
      ],
      "transaction": {
        "type": "0x02",
        "from": "0x7af234d569ab6360693806d7e7f439ec2114f93c",
        "to": "0xde538591834dd6e364833ca3937dfc8178a52fd9",
        "gas": "0x284dc",
        "value": "0x0",
        "data": "0xe986b13a000000000000000000000000000000000000000000000000ccf0a31a221f3c9b000000000000000000000000620476fe1bc36a37530b416b7d658024d5966b080000000000000000000000007898accc83587c3c55116c5230c17a6cd9c71bad",
        "nonce": "0x8e",
        "accessList": []
      },
      "additionalContracts": [],
      "isFixedGasLimit": false
    },
    {
      "hash": "0xe38a7ef7e4dfae9ab399de56bcb113af7e5b3b61d033540ab9e5e828d896d2f0",
      "transactionType": "CALL",
      "contractName": "MainRouter",
      "contractAddress": "0xde538591834dd6e364833CA3937dfC8178a52fD9",
      "function": "addAllowedToken(uint64,address,address)",
      "arguments": [
        "14767482510784806043",
        "0xAcA1eA8547E247a3125Da273b16C17Badc4f0812",
        "0x7898AcCC83587C3C55116c5230C17a6Cd9C71bad"
      ],
      "transaction": {
        "type": "0x02",
        "from": "0x7af234d569ab6360693806d7e7f439ec2114f93c",
        "to": "0xde538591834dd6e364833ca3937dfc8178a52fd9",
        "gas": "0x284dc",
        "value": "0x0",
        "data": "0xe986b13a000000000000000000000000000000000000000000000000ccf0a31a221f3c9b000000000000000000000000aca1ea8547e247a3125da273b16c17badc4f08120000000000000000000000007898accc83587c3c55116c5230c17a6cd9c71bad",
        "nonce": "0x8f",
        "accessList": []
      },
      "additionalContracts": [],
      "isFixedGasLimit": false
    },
    {
      "hash": "0x3992b24793288700936ef5d8b028eb075a12802a0a350512a26a93fd8d8866b5",
      "transactionType": "CALL",
      "contractName": "MainRouter",
      "contractAddress": "0xde538591834dd6e364833CA3937dfC8178a52fD9",
      "function": "addAllowedToken(uint64,address,address)",
      "arguments": [
        "16015286601757825753",
        "0x4aa3B1639d45Cb98a67790b8509E47bD7aa16D2A",
        "0x31CF013A08c6Ac228C94551d535d5BAfE19c602a"
      ],
      "transaction": {
        "type": "0x02",
        "from": "0x7af234d569ab6360693806d7e7f439ec2114f93c",
        "to": "0xde538591834dd6e364833ca3937dfc8178a52fd9",
        "gas": "0x30c7c",
        "value": "0x0",
        "data": "0xe986b13a000000000000000000000000000000000000000000000000de41ba4fc9d91ad90000000000000000000000004aa3b1639d45cb98a67790b8509e47bd7aa16d2a00000000000000000000000031cf013a08c6ac228c94551d535d5bafe19c602a",
        "nonce": "0x90",
        "accessList": []
      },
      "additionalContracts": [],
      "isFixedGasLimit": false
    },
    {
      "hash": "0x8bd4f403c5579547de6dc1600ca17b48635e6905a12827d417ea56384a4232a1",
      "transactionType": "CALL",
      "contractName": "MainRouter",
      "contractAddress": "0xde538591834dd6e364833CA3937dfC8178a52fD9",
      "function": "addAllowedToken(uint64,address,address)",
      "arguments": [
        "16015286601757825753",
        "0x9124d3b5DfD072bB2d6cf3e3A59430d2a5D8A55D",
        "0x86d67c3D38D2bCeE722E601025C25a575021c6EA"
      ],
      "transaction": {
        "type": "0x02",
        "from": "0x7af234d569ab6360693806d7e7f439ec2114f93c",
        "to": "0xde538591834dd6e364833ca3937dfc8178a52fd9",
        "gas": "0x284dc",
        "value": "0x0",
        "data": "0xe986b13a000000000000000000000000000000000000000000000000de41ba4fc9d91ad90000000000000000000000009124d3b5dfd072bb2d6cf3e3a59430d2a5d8a55d00000000000000000000000086d67c3d38d2bcee722e601025c25a575021c6ea",
        "nonce": "0x91",
        "accessList": []
      },
      "additionalContracts": [],
      "isFixedGasLimit": false
    },
    {
      "hash": "0x75acc172ff479b551b28d8270f1b1dc14231837c89bfcf12b43f4f16c4a554b8",
      "transactionType": "CALL",
      "contractName": "MainRouter",
      "contractAddress": "0xde538591834dd6e364833CA3937dfC8178a52fD9",
      "function": "addAllowedToken(uint64,address,address)",
      "arguments": [
        "16015286601757825753",
        "0x31A4Ae750C0e8d477Dd39AF3662F93e69021AA50",
        "0x34C4c526902d88a3Aa98DB8a9b802603EB1E3470"
      ],
      "transaction": {
        "type": "0x02",
        "from": "0x7af234d569ab6360693806d7e7f439ec2114f93c",
        "to": "0xde538591834dd6e364833ca3937dfc8178a52fd9",
        "gas": "0x284dc",
        "value": "0x0",
        "data": "0xe986b13a000000000000000000000000000000000000000000000000de41ba4fc9d91ad900000000000000000000000031a4ae750c0e8d477dd39af3662f93e69021aa5000000000000000000000000034c4c526902d88a3aa98db8a9b802603eb1e3470",
        "nonce": "0x92",
        "accessList": []
      },
      "additionalContracts": [],
      "isFixedGasLimit": false
    },
    {
      "hash": "0x52a8e5b89dd20552710601205a1c447abbe65c7897f59e4a363c5c5c412b0b3f",
      "transactionType": "CALL",
      "contractName": "MainRouter",
      "contractAddress": "0xde538591834dd6e364833CA3937dfC8178a52fD9",
      "function": "addAllowedToken(uint64,address,address)",
      "arguments": [
        "16015286601757825753",
        "0xdd36FB413B4470ab5CE67F975c6A2B192e6F84ba",
        "0x34C4c526902d88a3Aa98DB8a9b802603EB1E3470"
      ],
      "transaction": {
        "type": "0x02",
        "from": "0x7af234d569ab6360693806d7e7f439ec2114f93c",
        "to": "0xde538591834dd6e364833ca3937dfc8178a52fd9",
        "gas": "0x284dc",
        "value": "0x0",
        "data": "0xe986b13a000000000000000000000000000000000000000000000000de41ba4fc9d91ad9000000000000000000000000dd36fb413b4470ab5ce67f975c6a2b192e6f84ba00000000000000000000000034c4c526902d88a3aa98db8a9b802603eb1e3470",
        "nonce": "0x93",
        "accessList": []
      },
      "additionalContracts": [],
      "isFixedGasLimit": false
    },
    {
      "hash": "0xfaa6ce0caf5668b2a2977ea286ff1cfcb5827d80eb81000437396e4f88b902dc",
      "transactionType": "CALL",
      "contractName": "MainRouter",
      "contractAddress": "0xde538591834dd6e364833CA3937dfC8178a52fD9",
      "function": "addAllowedToken(uint64,address,address)",
      "arguments": [
        "16015286601757825753",
        "0x492E85cD024A271C4F19d8B7E9050Ef2bbFeDcCA",
        "0x7b219F57a8e9C7303204Af681e9fA69d17ef626f"
      ],
      "transaction": {
        "type": "0x02",
        "from": "0x7af234d569ab6360693806d7e7f439ec2114f93c",
        "to": "0xde538591834dd6e364833ca3937dfc8178a52fd9",
        "gas": "0x284dc",
        "value": "0x0",
        "data": "0xe986b13a000000000000000000000000000000000000000000000000de41ba4fc9d91ad9000000000000000000000000492e85cd024a271c4f19d8b7e9050ef2bbfedcca0000000000000000000000007b219f57a8e9c7303204af681e9fa69d17ef626f",
        "nonce": "0x94",
        "accessList": []
      },
      "additionalContracts": [],
      "isFixedGasLimit": false
    },
    {
      "hash": "0xff896e51b43d8690cfb559871d6d80556fd0b30d0c09643df5d423e9b0252df3",
      "transactionType": "CALL",
      "contractName": "MainRouter",
      "contractAddress": "0xde538591834dd6e364833CA3937dfC8178a52fD9",
      "function": "addAllowedToken(uint64,address,address)",
      "arguments": [
        "16015286601757825753",
        "0x65Ae0010421814B1303778Bc82a599f63028d899",
        "0x7898AcCC83587C3C55116c5230C17a6Cd9C71bad"
      ],
      "transaction": {
        "type": "0x02",
        "from": "0x7af234d569ab6360693806d7e7f439ec2114f93c",
        "to": "0xde538591834dd6e364833ca3937dfc8178a52fd9",
        "gas": "0x2aaba",
        "value": "0x0",
        "data": "0xe986b13a000000000000000000000000000000000000000000000000de41ba4fc9d91ad900000000000000000000000065ae0010421814b1303778bc82a599f63028d8990000000000000000000000007898accc83587c3c55116c5230c17a6cd9c71bad",
        "nonce": "0x95",
        "accessList": []
      },
      "additionalContracts": [],
      "isFixedGasLimit": false
    },
    {
      "hash": "0xf73ae5c0f3943f10a744ba4153d8cdeae50d17b8f1773212f0e52e270b4d06a2",
      "transactionType": "CALL",
      "contractName": "MainRouter",
      "contractAddress": "0xde538591834dd6e364833CA3937dfC8178a52fD9",
      "function": "addAllowedToken(uint64,address,address)",
      "arguments": [
        "16015286601757825753",
        "0xB3718E52781F9Fc1C0b72A2966C2616E6d962a1C",
        "0x7898AcCC83587C3C55116c5230C17a6Cd9C71bad"
      ],
      "transaction": {
        "type": "0x02",
        "from": "0x7af234d569ab6360693806d7e7f439ec2114f93c",
        "to": "0xde538591834dd6e364833ca3937dfc8178a52fd9",
        "gas": "0x284dc",
        "value": "0x0",
        "data": "0xe986b13a000000000000000000000000000000000000000000000000de41ba4fc9d91ad9000000000000000000000000b3718e52781f9fc1c0b72a2966c2616e6d962a1c0000000000000000000000007898accc83587c3c55116c5230c17a6cd9c71bad",
        "nonce": "0x96",
        "accessList": []
      },
      "additionalContracts": [],
      "isFixedGasLimit": false
    },
    {
      "hash": "0x40a73881cdfdfe958cf03d797fa314cfc61b07207866c783305628ed65c33d7f",
      "transactionType": "CALL",
      "contractName": "MainRouter",
      "contractAddress": "0xde538591834dd6e364833CA3937dfC8178a52fD9",
      "function": "addAllowedToken(uint64,address,address)",
      "arguments": [
        "16281711391670634445",
        "0xF6905F1E4ad86f8C3a1Ebfca3E04a9e4d2adDD0D",
        "0x31CF013A08c6Ac228C94551d535d5BAfE19c602a"
      ],
      "transaction": {
        "type": "0x02",
        "from": "0x7af234d569ab6360693806d7e7f439ec2114f93c",
        "to": "0xde538591834dd6e364833ca3937dfc8178a52fd9",
        "gas": "0x30c7c",
        "value": "0x0",
        "data": "0xe986b13a000000000000000000000000000000000000000000000000e1f4423f1bf587cd000000000000000000000000f6905f1e4ad86f8c3a1ebfca3e04a9e4d2addd0d00000000000000000000000031cf013a08c6ac228c94551d535d5bafe19c602a",
        "nonce": "0x97",
        "accessList": []
      },
      "additionalContracts": [],
      "isFixedGasLimit": false
    },
    {
      "hash": "0x71200de483ca1cb1129c0599d52f18ed4d48736e2756c8f06334cb70b90f6257",
      "transactionType": "CALL",
      "contractName": "MainRouter",
      "contractAddress": "0xde538591834dd6e364833CA3937dfC8178a52fD9",
      "function": "addAllowedToken(uint64,address,address)",
      "arguments": [
        "16281711391670634445",
        "0x9a24BD7833859d2364EaD5A4aF4b16799693DF12",
        "0x86d67c3D38D2bCeE722E601025C25a575021c6EA"
      ],
      "transaction": {
        "type": "0x02",
        "from": "0x7af234d569ab6360693806d7e7f439ec2114f93c",
        "to": "0xde538591834dd6e364833ca3937dfc8178a52fd9",
        "gas": "0x284dc",
        "value": "0x0",
        "data": "0xe986b13a000000000000000000000000000000000000000000000000e1f4423f1bf587cd0000000000000000000000009a24bd7833859d2364ead5a4af4b16799693df1200000000000000000000000086d67c3d38d2bcee722e601025c25a575021c6ea",
        "nonce": "0x98",
        "accessList": []
      },
      "additionalContracts": [],
      "isFixedGasLimit": false
    },
    {
      "hash": "0xdacef81b470b35180f4e5189186eaca67bd3f8169dd2004ea78e11fcd9af5049",
      "transactionType": "CALL",
      "contractName": "MainRouter",
      "contractAddress": "0xde538591834dd6e364833CA3937dfC8178a52fD9",
      "function": "addAllowedToken(uint64,address,address)",
      "arguments": [
        "16281711391670634445",
        "0x244ec7F5753b2Fc10d0C2bAaB1AB55850E73a3AB",
        "0x34C4c526902d88a3Aa98DB8a9b802603EB1E3470"
      ],
      "transaction": {
        "type": "0x02",
        "from": "0x7af234d569ab6360693806d7e7f439ec2114f93c",
        "to": "0xde538591834dd6e364833ca3937dfc8178a52fd9",
        "gas": "0x284dc",
        "value": "0x0",
        "data": "0xe986b13a000000000000000000000000000000000000000000000000e1f4423f1bf587cd000000000000000000000000244ec7f5753b2fc10d0c2baab1ab55850e73a3ab00000000000000000000000034c4c526902d88a3aa98db8a9b802603eb1e3470",
        "nonce": "0x99",
        "accessList": []
      },
      "additionalContracts": [],
      "isFixedGasLimit": false
    },
    {
      "hash": "0xf43839bbd8e5c0b750c7e9450913ecfc45a530dbfe4133ebed3b5edb384a0b7a",
      "transactionType": "CALL",
      "contractName": "MainRouter",
      "contractAddress": "0xde538591834dd6e364833CA3937dfC8178a52fD9",
      "function": "addAllowedToken(uint64,address,address)",
      "arguments": [
        "16281711391670634445",
        "0xe257e2a67407144C918acaD5e11c2582F77c0B1a",
        "0x34C4c526902d88a3Aa98DB8a9b802603EB1E3470"
      ],
      "transaction": {
        "type": "0x02",
        "from": "0x7af234d569ab6360693806d7e7f439ec2114f93c",
        "to": "0xde538591834dd6e364833ca3937dfc8178a52fd9",
        "gas": "0x284dc",
        "value": "0x0",
        "data": "0xe986b13a000000000000000000000000000000000000000000000000e1f4423f1bf587cd000000000000000000000000e257e2a67407144c918acad5e11c2582f77c0b1a00000000000000000000000034c4c526902d88a3aa98db8a9b802603eb1e3470",
        "nonce": "0x9a",
        "accessList": []
      },
      "additionalContracts": [],
      "isFixedGasLimit": false
    },
    {
      "hash": "0x28f04f8866bdec9dd48433a2b517d56d558a94256aca4073ba7ddcb276ea3982",
      "transactionType": "CALL",
      "contractName": "MainRouter",
      "contractAddress": "0xde538591834dd6e364833CA3937dfC8178a52fD9",
      "function": "addAllowedToken(uint64,address,address)",
      "arguments": [
        "16281711391670634445",
        "0x32B8F75d2AC926a0a906F24df3e8Fe2bA17Bd80a",
        "0x7b219F57a8e9C7303204Af681e9fA69d17ef626f"
      ],
      "transaction": {
        "type": "0x02",
        "from": "0x7af234d569ab6360693806d7e7f439ec2114f93c",
        "to": "0xde538591834dd6e364833ca3937dfc8178a52fd9",
        "gas": "0x284dc",
        "value": "0x0",
        "data": "0xe986b13a000000000000000000000000000000000000000000000000e1f4423f1bf587cd00000000000000000000000032b8f75d2ac926a0a906f24df3e8fe2ba17bd80a0000000000000000000000007b219f57a8e9c7303204af681e9fa69d17ef626f",
        "nonce": "0x9b",
        "accessList": []
      },
      "additionalContracts": [],
      "isFixedGasLimit": false
    },
    {
      "hash": "0x357fb198f76b6acec17587e701a81f191a23e354e5a6094bea6de688b74bf89d",
      "transactionType": "CALL",
      "contractName": "MainRouter",
      "contractAddress": "0xde538591834dd6e364833CA3937dfC8178a52fD9",
      "function": "addAllowedToken(uint64,address,address)",
      "arguments": [
        "16281711391670634445",
        "0xDFf5Ba9FCff83cE455e45De7572B6259b0E7D7dE",
        "0x7898AcCC83587C3C55116c5230C17a6Cd9C71bad"
      ],
      "transaction": {
        "type": "0x02",
        "from": "0x7af234d569ab6360693806d7e7f439ec2114f93c",
        "to": "0xde538591834dd6e364833ca3937dfc8178a52fd9",
        "gas": "0x284dc",
        "value": "0x0",
        "data": "0xe986b13a000000000000000000000000000000000000000000000000e1f4423f1bf587cd000000000000000000000000dff5ba9fcff83ce455e45de7572b6259b0e7d7de0000000000000000000000007898accc83587c3c55116c5230c17a6cd9c71bad",
        "nonce": "0x9c",
        "accessList": []
      },
      "additionalContracts": [],
      "isFixedGasLimit": false
    },
    {
      "hash": "0xf758ffd175f14c3c2e2a69c22a3f0d5ea298c742fcd56b2c0d5b02c0e054342b",
      "transactionType": "CALL",
      "contractName": "MainRouter",
      "contractAddress": "0xde538591834dd6e364833CA3937dfC8178a52fD9",
      "function": "addAllowedToken(uint64,address,address)",
      "arguments": [
        "16281711391670634445",
        "0x75b86D7B224Fd88f785BB5FaC5e261D9EFde3047",
        "0x7898AcCC83587C3C55116c5230C17a6Cd9C71bad"
      ],
      "transaction": {
        "type": "0x02",
        "from": "0x7af234d569ab6360693806d7e7f439ec2114f93c",
        "to": "0xde538591834dd6e364833ca3937dfc8178a52fd9",
        "gas": "0x284dc",
        "value": "0x0",
        "data": "0xe986b13a000000000000000000000000000000000000000000000000e1f4423f1bf587cd00000000000000000000000075b86d7b224fd88f785bb5fac5e261d9efde30470000000000000000000000007898accc83587c3c55116c5230c17a6cd9c71bad",
        "nonce": "0x9d",
        "accessList": []
      },
      "additionalContracts": [],
      "isFixedGasLimit": false
    },
    {
      "hash": "0x255c51a26a3ea5da9951b5ba4d104ba842bd559cb68687d91a76d8cf04d431ff",
      "transactionType": "CALL",
      "contractName": "MainRouter",
      "contractAddress": "0xde538591834dd6e364833CA3937dfC8178a52fD9",
      "function": "addAllowedToken(uint64,address,address)",
      "arguments": [
        "10344971235874465080",
        "0xF6905F1E4ad86f8C3a1Ebfca3E04a9e4d2adDD0D",
        "0x31CF013A08c6Ac228C94551d535d5BAfE19c602a"
      ],
      "transaction": {
        "type": "0x02",
        "from": "0x7af234d569ab6360693806d7e7f439ec2114f93c",
        "to": "0xde538591834dd6e364833ca3937dfc8178a52fd9",
        "gas": "0x30c7c",
        "value": "0x0",
        "data": "0xe986b13a0000000000000000000000000000000000000000000000008f90b8876dee6538000000000000000000000000f6905f1e4ad86f8c3a1ebfca3e04a9e4d2addd0d00000000000000000000000031cf013a08c6ac228c94551d535d5bafe19c602a",
        "nonce": "0x9e",
        "accessList": []
      },
      "additionalContracts": [],
      "isFixedGasLimit": false
    },
    {
      "hash": "0xe2b839ff5431d6bcb9367ee3431087a12ff4f476a985a2679ae1c66af17ac8ac",
      "transactionType": "CALL",
      "contractName": "MainRouter",
      "contractAddress": "0xde538591834dd6e364833CA3937dfC8178a52fD9",
      "function": "addAllowedToken(uint64,address,address)",
      "arguments": [
        "10344971235874465080",
        "0x9a24BD7833859d2364EaD5A4aF4b16799693DF12",
        "0x86d67c3D38D2bCeE722E601025C25a575021c6EA"
      ],
      "transaction": {
        "type": "0x02",
        "from": "0x7af234d569ab6360693806d7e7f439ec2114f93c",
        "to": "0xde538591834dd6e364833ca3937dfc8178a52fd9",
        "gas": "0x284dc",
        "value": "0x0",
        "data": "0xe986b13a0000000000000000000000000000000000000000000000008f90b8876dee65380000000000000000000000009a24bd7833859d2364ead5a4af4b16799693df1200000000000000000000000086d67c3d38d2bcee722e601025c25a575021c6ea",
        "nonce": "0x9f",
        "accessList": []
      },
      "additionalContracts": [],
      "isFixedGasLimit": false
    },
    {
      "hash": "0xf26dc3b0d98a3b1264e461255c834f7e084ffe26abb0ee3ac4e00c2fb5c659ba",
      "transactionType": "CALL",
      "contractName": "MainRouter",
      "contractAddress": "0xde538591834dd6e364833CA3937dfC8178a52fD9",
      "function": "addAllowedToken(uint64,address,address)",
      "arguments": [
        "10344971235874465080",
        "0x244ec7F5753b2Fc10d0C2bAaB1AB55850E73a3AB",
        "0x34C4c526902d88a3Aa98DB8a9b802603EB1E3470"
      ],
      "transaction": {
        "type": "0x02",
        "from": "0x7af234d569ab6360693806d7e7f439ec2114f93c",
        "to": "0xde538591834dd6e364833ca3937dfc8178a52fd9",
        "gas": "0x284dc",
        "value": "0x0",
        "data": "0xe986b13a0000000000000000000000000000000000000000000000008f90b8876dee6538000000000000000000000000244ec7f5753b2fc10d0c2baab1ab55850e73a3ab00000000000000000000000034c4c526902d88a3aa98db8a9b802603eb1e3470",
        "nonce": "0xa0",
        "accessList": []
      },
      "additionalContracts": [],
      "isFixedGasLimit": false
    },
    {
      "hash": "0x3cbb0a1abc154de7aa10280a3d3476ba2830b1de7d805f7b06c989868879b730",
      "transactionType": "CALL",
      "contractName": "MainRouter",
      "contractAddress": "0xde538591834dd6e364833CA3937dfC8178a52fD9",
      "function": "addAllowedToken(uint64,address,address)",
      "arguments": [
        "10344971235874465080",
        "0xe257e2a67407144C918acaD5e11c2582F77c0B1a",
        "0x34C4c526902d88a3Aa98DB8a9b802603EB1E3470"
      ],
      "transaction": {
        "type": "0x02",
        "from": "0x7af234d569ab6360693806d7e7f439ec2114f93c",
        "to": "0xde538591834dd6e364833ca3937dfc8178a52fd9",
        "gas": "0x284dc",
        "value": "0x0",
        "data": "0xe986b13a0000000000000000000000000000000000000000000000008f90b8876dee6538000000000000000000000000e257e2a67407144c918acad5e11c2582f77c0b1a00000000000000000000000034c4c526902d88a3aa98db8a9b802603eb1e3470",
        "nonce": "0xa1",
        "accessList": []
      },
      "additionalContracts": [],
      "isFixedGasLimit": false
    },
    {
      "hash": "0xa044cb55a4e047d80268da14f24c087b7cc647a5bdaeac88ea1919e9a091a0ad",
      "transactionType": "CALL",
      "contractName": "MainRouter",
      "contractAddress": "0xde538591834dd6e364833CA3937dfC8178a52fD9",
      "function": "addAllowedToken(uint64,address,address)",
      "arguments": [
        "10344971235874465080",
        "0x32B8F75d2AC926a0a906F24df3e8Fe2bA17Bd80a",
        "0x7b219F57a8e9C7303204Af681e9fA69d17ef626f"
      ],
      "transaction": {
        "type": "0x02",
        "from": "0x7af234d569ab6360693806d7e7f439ec2114f93c",
        "to": "0xde538591834dd6e364833ca3937dfc8178a52fd9",
        "gas": "0x284dc",
        "value": "0x0",
        "data": "0xe986b13a0000000000000000000000000000000000000000000000008f90b8876dee653800000000000000000000000032b8f75d2ac926a0a906f24df3e8fe2ba17bd80a0000000000000000000000007b219f57a8e9c7303204af681e9fa69d17ef626f",
        "nonce": "0xa2",
        "accessList": []
      },
      "additionalContracts": [],
      "isFixedGasLimit": false
    },
    {
      "hash": "0xd36c0c39491a48289ac3f1f12df77f7315b1bf0f18550b8714e3b14740be1382",
      "transactionType": "CALL",
      "contractName": "MainRouter",
      "contractAddress": "0xde538591834dd6e364833CA3937dfC8178a52fD9",
      "function": "addAllowedToken(uint64,address,address)",
      "arguments": [
        "10344971235874465080",
        "0xDFf5Ba9FCff83cE455e45De7572B6259b0E7D7dE",
        "0x7898AcCC83587C3C55116c5230C17a6Cd9C71bad"
      ],
      "transaction": {
        "type": "0x02",
        "from": "0x7af234d569ab6360693806d7e7f439ec2114f93c",
        "to": "0xde538591834dd6e364833ca3937dfc8178a52fd9",
        "gas": "0x284dc",
        "value": "0x0",
        "data": "0xe986b13a0000000000000000000000000000000000000000000000008f90b8876dee6538000000000000000000000000dff5ba9fcff83ce455e45de7572b6259b0e7d7de0000000000000000000000007898accc83587c3c55116c5230c17a6cd9c71bad",
        "nonce": "0xa3",
        "accessList": []
      },
      "additionalContracts": [],
      "isFixedGasLimit": false
    },
    {
      "hash": "0x25ac80d21c24fba122076cb2f5b6ec6728aaf8fc4bf5af894b2f2c77a202521f",
      "transactionType": "CALL",
      "contractName": "MainRouter",
      "contractAddress": "0xde538591834dd6e364833CA3937dfC8178a52fD9",
      "function": "addAllowedToken(uint64,address,address)",
      "arguments": [
        "10344971235874465080",
        "0x75b86D7B224Fd88f785BB5FaC5e261D9EFde3047",
        "0x7898AcCC83587C3C55116c5230C17a6Cd9C71bad"
      ],
      "transaction": {
        "type": "0x02",
        "from": "0x7af234d569ab6360693806d7e7f439ec2114f93c",
        "to": "0xde538591834dd6e364833ca3937dfc8178a52fd9",
        "gas": "0x284dc",
        "value": "0x0",
        "data": "0xe986b13a0000000000000000000000000000000000000000000000008f90b8876dee653800000000000000000000000075b86d7b224fd88f785bb5fac5e261d9efde30470000000000000000000000007898accc83587c3c55116c5230c17a6cd9c71bad",
        "nonce": "0xa4",
        "accessList": []
      },
      "additionalContracts": [],
      "isFixedGasLimit": false
    },
    {
      "hash": "0x1e56e95d76bc9dfe603fe53d856ed7c09b41283ecd8b131216667b4f25ef1e1d",
      "transactionType": "CALL",
      "contractName": "MainRouter",
      "contractAddress": "0xde538591834dd6e364833CA3937dfC8178a52fD9",
      "function": "addAllowedToken(uint64,address,address)",
      "arguments": [
        "5224473277236331295",
        "0xF6905F1E4ad86f8C3a1Ebfca3E04a9e4d2adDD0D",
        "0x31CF013A08c6Ac228C94551d535d5BAfE19c602a"
      ],
      "transaction": {
        "type": "0x02",
        "from": "0x7af234d569ab6360693806d7e7f439ec2114f93c",
        "to": "0xde538591834dd6e364833ca3937dfc8178a52fd9",
        "gas": "0x30c7c",
        "value": "0x0",
        "data": "0xe986b13a00000000000000000000000000000000000000000000000048810ec3e431431f000000000000000000000000f6905f1e4ad86f8c3a1ebfca3e04a9e4d2addd0d00000000000000000000000031cf013a08c6ac228c94551d535d5bafe19c602a",
        "nonce": "0xa5",
        "accessList": []
      },
      "additionalContracts": [],
      "isFixedGasLimit": false
    },
    {
      "hash": "0x602ee0ac083065cb689874740622fe65338f49472e804d23cfc9901f821d9df1",
      "transactionType": "CALL",
      "contractName": "MainRouter",
      "contractAddress": "0xde538591834dd6e364833CA3937dfC8178a52fD9",
      "function": "addAllowedToken(uint64,address,address)",
      "arguments": [
        "5224473277236331295",
        "0x9a24BD7833859d2364EaD5A4aF4b16799693DF12",
        "0x86d67c3D38D2bCeE722E601025C25a575021c6EA"
      ],
      "transaction": {
        "type": "0x02",
        "from": "0x7af234d569ab6360693806d7e7f439ec2114f93c",
        "to": "0xde538591834dd6e364833ca3937dfc8178a52fd9",
        "gas": "0x284dc",
        "value": "0x0",
        "data": "0xe986b13a00000000000000000000000000000000000000000000000048810ec3e431431f0000000000000000000000009a24bd7833859d2364ead5a4af4b16799693df1200000000000000000000000086d67c3d38d2bcee722e601025c25a575021c6ea",
        "nonce": "0xa6",
        "accessList": []
      },
      "additionalContracts": [],
      "isFixedGasLimit": false
    },
    {
      "hash": "0xa86daabf3d106b0b1b73b310cfddf386f20d50d1b80ab765c003fc73dd2cda92",
      "transactionType": "CALL",
      "contractName": "MainRouter",
      "contractAddress": "0xde538591834dd6e364833CA3937dfC8178a52fD9",
      "function": "addAllowedToken(uint64,address,address)",
      "arguments": [
        "5224473277236331295",
        "0x244ec7F5753b2Fc10d0C2bAaB1AB55850E73a3AB",
        "0x34C4c526902d88a3Aa98DB8a9b802603EB1E3470"
      ],
      "transaction": {
        "type": "0x02",
        "from": "0x7af234d569ab6360693806d7e7f439ec2114f93c",
        "to": "0xde538591834dd6e364833ca3937dfc8178a52fd9",
        "gas": "0x284dc",
        "value": "0x0",
        "data": "0xe986b13a00000000000000000000000000000000000000000000000048810ec3e431431f000000000000000000000000244ec7f5753b2fc10d0c2baab1ab55850e73a3ab00000000000000000000000034c4c526902d88a3aa98db8a9b802603eb1e3470",
        "nonce": "0xa7",
        "accessList": []
      },
      "additionalContracts": [],
      "isFixedGasLimit": false
    },
    {
      "hash": "0xd98b46a861ae7342948ae1bf569fd4594c2f1fcad170676c40580fec70afd174",
      "transactionType": "CALL",
      "contractName": "MainRouter",
      "contractAddress": "0xde538591834dd6e364833CA3937dfC8178a52fD9",
      "function": "addAllowedToken(uint64,address,address)",
      "arguments": [
        "5224473277236331295",
        "0xe257e2a67407144C918acaD5e11c2582F77c0B1a",
        "0x34C4c526902d88a3Aa98DB8a9b802603EB1E3470"
      ],
      "transaction": {
        "type": "0x02",
        "from": "0x7af234d569ab6360693806d7e7f439ec2114f93c",
        "to": "0xde538591834dd6e364833ca3937dfc8178a52fd9",
        "gas": "0x284dc",
        "value": "0x0",
        "data": "0xe986b13a00000000000000000000000000000000000000000000000048810ec3e431431f000000000000000000000000e257e2a67407144c918acad5e11c2582f77c0b1a00000000000000000000000034c4c526902d88a3aa98db8a9b802603eb1e3470",
        "nonce": "0xa8",
        "accessList": []
      },
      "additionalContracts": [],
      "isFixedGasLimit": false
    },
    {
      "hash": "0xba79ce376af651a3f39cd29434e0808db80dc1f6bc95975c32374d887cf5a25a",
      "transactionType": "CALL",
      "contractName": "MainRouter",
      "contractAddress": "0xde538591834dd6e364833CA3937dfC8178a52fD9",
      "function": "addAllowedToken(uint64,address,address)",
      "arguments": [
        "5224473277236331295",
        "0x32B8F75d2AC926a0a906F24df3e8Fe2bA17Bd80a",
        "0x7b219F57a8e9C7303204Af681e9fA69d17ef626f"
      ],
      "transaction": {
        "type": "0x02",
        "from": "0x7af234d569ab6360693806d7e7f439ec2114f93c",
        "to": "0xde538591834dd6e364833ca3937dfc8178a52fd9",
        "gas": "0x284dc",
        "value": "0x0",
        "data": "0xe986b13a00000000000000000000000000000000000000000000000048810ec3e431431f00000000000000000000000032b8f75d2ac926a0a906f24df3e8fe2ba17bd80a0000000000000000000000007b219f57a8e9c7303204af681e9fa69d17ef626f",
        "nonce": "0xa9",
        "accessList": []
      },
      "additionalContracts": [],
      "isFixedGasLimit": false
    },
    {
      "hash": "0xf280f9955b31f1f8af4ed5dcdff8158305926efd4527dca987a3ba57025d0ba6",
      "transactionType": "CALL",
      "contractName": "MainRouter",
      "contractAddress": "0xde538591834dd6e364833CA3937dfC8178a52fD9",
      "function": "addAllowedToken(uint64,address,address)",
      "arguments": [
        "5224473277236331295",
        "0xDFf5Ba9FCff83cE455e45De7572B6259b0E7D7dE",
        "0x7898AcCC83587C3C55116c5230C17a6Cd9C71bad"
      ],
      "transaction": {
        "type": "0x02",
        "from": "0x7af234d569ab6360693806d7e7f439ec2114f93c",
        "to": "0xde538591834dd6e364833ca3937dfc8178a52fd9",
        "gas": "0x284dc",
        "value": "0x0",
        "data": "0xe986b13a00000000000000000000000000000000000000000000000048810ec3e431431f000000000000000000000000dff5ba9fcff83ce455e45de7572b6259b0e7d7de0000000000000000000000007898accc83587c3c55116c5230c17a6cd9c71bad",
        "nonce": "0xaa",
        "accessList": []
      },
      "additionalContracts": [],
      "isFixedGasLimit": false
    },
    {
      "hash": "0xfafe3999834127dfab868e26a59702fe1aecaad1235a1d04befd24dc157d0787",
      "transactionType": "CALL",
      "contractName": "MainRouter",
      "contractAddress": "0xde538591834dd6e364833CA3937dfC8178a52fD9",
      "function": "addAllowedToken(uint64,address,address)",
      "arguments": [
        "5224473277236331295",
        "0x75b86D7B224Fd88f785BB5FaC5e261D9EFde3047",
        "0x7898AcCC83587C3C55116c5230C17a6Cd9C71bad"
      ],
      "transaction": {
        "type": "0x02",
        "from": "0x7af234d569ab6360693806d7e7f439ec2114f93c",
        "to": "0xde538591834dd6e364833ca3937dfc8178a52fd9",
        "gas": "0x284dc",
        "value": "0x0",
        "data": "0xe986b13a00000000000000000000000000000000000000000000000048810ec3e431431f00000000000000000000000075b86d7b224fd88f785bb5fac5e261d9efde30470000000000000000000000007898accc83587c3c55116c5230c17a6cd9c71bad",
        "nonce": "0xab",
        "accessList": []
      },
      "additionalContracts": [],
      "isFixedGasLimit": false
    },
    {
      "hash": "0x2bb17b41959cd2d54310f5f6f597178d767143f5956e17eb7e749f53a1a3e967",
      "transactionType": "CALL",
      "contractName": "MainRouter",
      "contractAddress": "0xde538591834dd6e364833CA3937dfC8178a52fD9",
      "function": "addAllowedToken(uint64,address,address)",
      "arguments": [
        "3478487238524512106",
        "0xF6905F1E4ad86f8C3a1Ebfca3E04a9e4d2adDD0D",
        "0x31CF013A08c6Ac228C94551d535d5BAfE19c602a"
      ],
      "transaction": {
        "type": "0x02",
        "from": "0x7af234d569ab6360693806d7e7f439ec2114f93c",
        "to": "0xde538591834dd6e364833ca3937dfc8178a52fd9",
        "gas": "0x30c7c",
        "value": "0x0",
        "data": "0xe986b13a000000000000000000000000000000000000000000000000304611b6affba76a000000000000000000000000f6905f1e4ad86f8c3a1ebfca3e04a9e4d2addd0d00000000000000000000000031cf013a08c6ac228c94551d535d5bafe19c602a",
        "nonce": "0xac",
        "accessList": []
      },
      "additionalContracts": [],
      "isFixedGasLimit": false
    },
    {
      "hash": "0x91936bd6ebbf9eb20f5d845579f3a5cdc60e437fec24e1460eca931d1e411fe7",
      "transactionType": "CALL",
      "contractName": "MainRouter",
      "contractAddress": "0xde538591834dd6e364833CA3937dfC8178a52fD9",
      "function": "addAllowedToken(uint64,address,address)",
      "arguments": [
        "3478487238524512106",
        "0x9a24BD7833859d2364EaD5A4aF4b16799693DF12",
        "0x86d67c3D38D2bCeE722E601025C25a575021c6EA"
      ],
      "transaction": {
        "type": "0x02",
        "from": "0x7af234d569ab6360693806d7e7f439ec2114f93c",
        "to": "0xde538591834dd6e364833ca3937dfc8178a52fd9",
        "gas": "0x284dc",
        "value": "0x0",
        "data": "0xe986b13a000000000000000000000000000000000000000000000000304611b6affba76a0000000000000000000000009a24bd7833859d2364ead5a4af4b16799693df1200000000000000000000000086d67c3d38d2bcee722e601025c25a575021c6ea",
        "nonce": "0xad",
        "accessList": []
      },
      "additionalContracts": [],
      "isFixedGasLimit": false
    },
    {
      "hash": "0x229b9312e1a637c115ed854b071aa5e74cec61dc02a27e9404142b70035b2a22",
      "transactionType": "CALL",
      "contractName": "MainRouter",
      "contractAddress": "0xde538591834dd6e364833CA3937dfC8178a52fD9",
      "function": "addAllowedToken(uint64,address,address)",
      "arguments": [
        "3478487238524512106",
        "0x244ec7F5753b2Fc10d0C2bAaB1AB55850E73a3AB",
        "0x34C4c526902d88a3Aa98DB8a9b802603EB1E3470"
      ],
      "transaction": {
        "type": "0x02",
        "from": "0x7af234d569ab6360693806d7e7f439ec2114f93c",
        "to": "0xde538591834dd6e364833ca3937dfc8178a52fd9",
        "gas": "0x284dc",
        "value": "0x0",
        "data": "0xe986b13a000000000000000000000000000000000000000000000000304611b6affba76a000000000000000000000000244ec7f5753b2fc10d0c2baab1ab55850e73a3ab00000000000000000000000034c4c526902d88a3aa98db8a9b802603eb1e3470",
        "nonce": "0xae",
        "accessList": []
      },
      "additionalContracts": [],
      "isFixedGasLimit": false
    },
    {
      "hash": "0xe9bad655294379c4bc4c8219c67dec8f1d1adf18574fb7ecb4f76a64270e76b1",
      "transactionType": "CALL",
      "contractName": "MainRouter",
      "contractAddress": "0xde538591834dd6e364833CA3937dfC8178a52fD9",
      "function": "addAllowedToken(uint64,address,address)",
      "arguments": [
        "3478487238524512106",
        "0xe257e2a67407144C918acaD5e11c2582F77c0B1a",
        "0x34C4c526902d88a3Aa98DB8a9b802603EB1E3470"
      ],
      "transaction": {
        "type": "0x02",
        "from": "0x7af234d569ab6360693806d7e7f439ec2114f93c",
        "to": "0xde538591834dd6e364833ca3937dfc8178a52fd9",
        "gas": "0x284dc",
        "value": "0x0",
        "data": "0xe986b13a000000000000000000000000000000000000000000000000304611b6affba76a000000000000000000000000e257e2a67407144c918acad5e11c2582f77c0b1a00000000000000000000000034c4c526902d88a3aa98db8a9b802603eb1e3470",
        "nonce": "0xaf",
        "accessList": []
      },
      "additionalContracts": [],
      "isFixedGasLimit": false
    },
    {
      "hash": "0x041eda622b5096ac1ed6588d450c66a93f59b1504e68f8c2f6fe33d46f1d81cf",
      "transactionType": "CALL",
      "contractName": "MainRouter",
      "contractAddress": "0xde538591834dd6e364833CA3937dfC8178a52fD9",
      "function": "addAllowedToken(uint64,address,address)",
      "arguments": [
        "3478487238524512106",
        "0x32B8F75d2AC926a0a906F24df3e8Fe2bA17Bd80a",
        "0x7b219F57a8e9C7303204Af681e9fA69d17ef626f"
      ],
      "transaction": {
        "type": "0x02",
        "from": "0x7af234d569ab6360693806d7e7f439ec2114f93c",
        "to": "0xde538591834dd6e364833ca3937dfc8178a52fd9",
        "gas": "0x284dc",
        "value": "0x0",
        "data": "0xe986b13a000000000000000000000000000000000000000000000000304611b6affba76a00000000000000000000000032b8f75d2ac926a0a906f24df3e8fe2ba17bd80a0000000000000000000000007b219f57a8e9c7303204af681e9fa69d17ef626f",
        "nonce": "0xb0",
        "accessList": []
      },
      "additionalContracts": [],
      "isFixedGasLimit": false
    },
    {
      "hash": "0x43dec62c3f68a5670408113f758f7edd6a5cd57194623367745c061a989c0ab5",
      "transactionType": "CALL",
      "contractName": "MainRouter",
      "contractAddress": "0xde538591834dd6e364833CA3937dfC8178a52fD9",
      "function": "addAllowedToken(uint64,address,address)",
      "arguments": [
        "3478487238524512106",
        "0xDFf5Ba9FCff83cE455e45De7572B6259b0E7D7dE",
        "0x7898AcCC83587C3C55116c5230C17a6Cd9C71bad"
      ],
      "transaction": {
        "type": "0x02",
        "from": "0x7af234d569ab6360693806d7e7f439ec2114f93c",
        "to": "0xde538591834dd6e364833ca3937dfc8178a52fd9",
        "gas": "0x284dc",
        "value": "0x0",
        "data": "0xe986b13a000000000000000000000000000000000000000000000000304611b6affba76a000000000000000000000000dff5ba9fcff83ce455e45de7572b6259b0e7d7de0000000000000000000000007898accc83587c3c55116c5230c17a6cd9c71bad",
        "nonce": "0xb1",
        "accessList": []
      },
      "additionalContracts": [],
      "isFixedGasLimit": false
    },
    {
      "hash": "0xab16608efdd15d513ca0fcea1c6f4fdaa5875b6e70d337844b04c7f297041fa6",
      "transactionType": "CALL",
      "contractName": "MainRouter",
      "contractAddress": "0xde538591834dd6e364833CA3937dfC8178a52fD9",
      "function": "addAllowedToken(uint64,address,address)",
      "arguments": [
        "3478487238524512106",
        "0x75b86D7B224Fd88f785BB5FaC5e261D9EFde3047",
        "0x7898AcCC83587C3C55116c5230C17a6Cd9C71bad"
      ],
      "transaction": {
        "type": "0x02",
        "from": "0x7af234d569ab6360693806d7e7f439ec2114f93c",
        "to": "0xde538591834dd6e364833ca3937dfc8178a52fd9",
        "gas": "0x284dc",
        "value": "0x0",
        "data": "0xe986b13a000000000000000000000000000000000000000000000000304611b6affba76a00000000000000000000000075b86d7b224fd88f785bb5fac5e261d9efde30470000000000000000000000007898accc83587c3c55116c5230c17a6cd9c71bad",
        "nonce": "0xb2",
        "accessList": []
      },
      "additionalContracts": [],
      "isFixedGasLimit": false
    },
    {
      "hash": "0x125d1f4a6fad82fcddf53db08c0819b0b426eefc8bac367bca260356ef769085",
      "transactionType": "CALL",
      "contractName": "MainRouter",
      "contractAddress": "0xde538591834dd6e364833CA3937dfC8178a52fD9",
      "function": "setAllowedDestinationChain(uint64,bool)",
      "arguments": [
        "14767482510784806043",
        "true"
      ],
      "transaction": {
        "type": "0x02",
        "from": "0x7af234d569ab6360693806d7e7f439ec2114f93c",
        "to": "0xde538591834dd6e364833ca3937dfc8178a52fd9",
        "gas": "0x28692",
        "value": "0x0",
        "data": "0x1572823c000000000000000000000000000000000000000000000000ccf0a31a221f3c9b0000000000000000000000000000000000000000000000000000000000000001",
        "nonce": "0xb3",
        "accessList": []
      },
      "additionalContracts": [],
      "isFixedGasLimit": false
    },
    {
      "hash": "0x8bbf1b257dee3f1b37421b45f50953c5437ce3eca343673e31d0eabc200cad9a",
      "transactionType": "CALL",
      "contractName": "MainRouter",
      "contractAddress": "0xde538591834dd6e364833CA3937dfC8178a52fD9",
      "function": "setAllowedDestinationChain(uint64,bool)",
      "arguments": [
        "16015286601757825753",
        "true"
      ],
      "transaction": {
        "type": "0x02",
        "from": "0x7af234d569ab6360693806d7e7f439ec2114f93c",
        "to": "0xde538591834dd6e364833ca3937dfc8178a52fd9",
        "gas": "0x20662",
        "value": "0x0",
        "data": "0x1572823c000000000000000000000000000000000000000000000000de41ba4fc9d91ad90000000000000000000000000000000000000000000000000000000000000001",
        "nonce": "0xb4",
        "accessList": []
      },
      "additionalContracts": [],
      "isFixedGasLimit": false
    },
    {
      "hash": "0xead6ca998baa6a8074cd0aacb7f959d7061035ef660e9a235ca37f266b589cee",
      "transactionType": "CALL",
      "contractName": "MainRouter",
      "contractAddress": "0xde538591834dd6e364833CA3937dfC8178a52fD9",
      "function": "setAllowedDestinationChain(uint64,bool)",
      "arguments": [
        "16281711391670634445",
        "true"
      ],
      "transaction": {
        "type": "0x02",
        "from": "0x7af234d569ab6360693806d7e7f439ec2114f93c",
        "to": "0xde538591834dd6e364833ca3937dfc8178a52fd9",
        "gas": "0x20662",
        "value": "0x0",
        "data": "0x1572823c000000000000000000000000000000000000000000000000e1f4423f1bf587cd0000000000000000000000000000000000000000000000000000000000000001",
        "nonce": "0xb5",
        "accessList": []
      },
      "additionalContracts": [],
      "isFixedGasLimit": false
    },
    {
      "hash": "0xf09042e9f90b4d7bceabe5779439884960f7ebf34a5dec51e42ada0807a3989f",
      "transactionType": "CALL",
      "contractName": "MainRouter",
      "contractAddress": "0xde538591834dd6e364833CA3937dfC8178a52fD9",
      "function": "setAllowedDestinationChain(uint64,bool)",
      "arguments": [
        "10344971235874465080",
        "true"
      ],
      "transaction": {
        "type": "0x02",
        "from": "0x7af234d569ab6360693806d7e7f439ec2114f93c",
        "to": "0xde538591834dd6e364833ca3937dfc8178a52fd9",
        "gas": "0x20662",
        "value": "0x0",
        "data": "0x1572823c0000000000000000000000000000000000000000000000008f90b8876dee65380000000000000000000000000000000000000000000000000000000000000001",
        "nonce": "0xb6",
        "accessList": []
      },
      "additionalContracts": [],
      "isFixedGasLimit": false
    },
    {
      "hash": "0x8e9c55f054b7d5ba496b6f4b55cacfcde843ba3a6e007adc54988c6af2d9ba8c",
      "transactionType": "CALL",
      "contractName": "MainRouter",
      "contractAddress": "0xde538591834dd6e364833CA3937dfC8178a52fD9",
      "function": "setAllowedDestinationChain(uint64,bool)",
      "arguments": [
        "5224473277236331295",
        "true"
      ],
      "transaction": {
        "type": "0x02",
        "from": "0x7af234d569ab6360693806d7e7f439ec2114f93c",
        "to": "0xde538591834dd6e364833ca3937dfc8178a52fd9",
        "gas": "0x20662",
        "value": "0x0",
        "data": "0x1572823c00000000000000000000000000000000000000000000000048810ec3e431431f0000000000000000000000000000000000000000000000000000000000000001",
        "nonce": "0xb7",
        "accessList": []
      },
      "additionalContracts": [],
      "isFixedGasLimit": false
    },
    {
      "hash": "0xf096219455a5a8c5f20bc2debd15055fdc8001cbf8bf6ab4c352854fbac0b678",
      "transactionType": "CALL",
      "contractName": "MainRouter",
      "contractAddress": "0xde538591834dd6e364833CA3937dfC8178a52fD9",
      "function": "setAllowedDestinationChain(uint64,bool)",
      "arguments": [
        "3478487238524512106",
        "true"
      ],
      "transaction": {
        "type": "0x02",
        "from": "0x7af234d569ab6360693806d7e7f439ec2114f93c",
        "to": "0xde538591834dd6e364833ca3937dfc8178a52fd9",
        "gas": "0x20662",
        "value": "0x0",
        "data": "0x1572823c000000000000000000000000000000000000000000000000304611b6affba76a0000000000000000000000000000000000000000000000000000000000000001",
        "nonce": "0xb8",
        "accessList": []
      },
      "additionalContracts": [],
      "isFixedGasLimit": false
    },
    {
      "hash": "0x9585d7ec5daaffa2b470856d911595c37ee8405099d096ec8335a0e442c8f609",
      "transactionType": "CALL",
      "contractName": "MainRouter",
      "contractAddress": "0xde538591834dd6e364833CA3937dfC8178a52fD9",
      "function": "setAllowedSourceChain(uint64,bool)",
      "arguments": [
        "14767482510784806043",
        "true"
      ],
      "transaction": {
        "type": "0x02",
        "from": "0x7af234d569ab6360693806d7e7f439ec2114f93c",
        "to": "0xde538591834dd6e364833ca3937dfc8178a52fd9",
        "gas": "0xf9b8",
        "value": "0x0",
        "data": "0x5d9a2c48000000000000000000000000000000000000000000000000ccf0a31a221f3c9b0000000000000000000000000000000000000000000000000000000000000001",
        "nonce": "0xb9",
        "accessList": []
      },
      "additionalContracts": [],
      "isFixedGasLimit": false
    },
    {
      "hash": "0x6af8b21e278b65a18ebb8e309ae5ff2c0301a586100d02953b81aa8e974ed1ac",
      "transactionType": "CALL",
      "contractName": "MainRouter",
      "contractAddress": "0xde538591834dd6e364833CA3937dfC8178a52fD9",
      "function": "setAllowedSourceChain(uint64,bool)",
      "arguments": [
        "16015286601757825753",
        "true"
      ],
      "transaction": {
        "type": "0x02",
        "from": "0x7af234d569ab6360693806d7e7f439ec2114f93c",
        "to": "0xde538591834dd6e364833ca3937dfc8178a52fd9",
        "gas": "0xf9b8",
        "value": "0x0",
        "data": "0x5d9a2c48000000000000000000000000000000000000000000000000de41ba4fc9d91ad90000000000000000000000000000000000000000000000000000000000000001",
        "nonce": "0xba",
        "accessList": []
      },
      "additionalContracts": [],
      "isFixedGasLimit": false
    },
    {
      "hash": "0x58c8a503c05c137c95dfaabe13f7917faef9c1763bab54d9bcaf6abd65f2632b",
      "transactionType": "CALL",
      "contractName": "MainRouter",
      "contractAddress": "0xde538591834dd6e364833CA3937dfC8178a52fD9",
      "function": "setAllowedSourceChain(uint64,bool)",
      "arguments": [
        "16281711391670634445",
        "true"
      ],
      "transaction": {
        "type": "0x02",
        "from": "0x7af234d569ab6360693806d7e7f439ec2114f93c",
        "to": "0xde538591834dd6e364833ca3937dfc8178a52fd9",
        "gas": "0xf9b8",
        "value": "0x0",
        "data": "0x5d9a2c48000000000000000000000000000000000000000000000000e1f4423f1bf587cd0000000000000000000000000000000000000000000000000000000000000001",
        "nonce": "0xbb",
        "accessList": []
      },
      "additionalContracts": [],
      "isFixedGasLimit": false
    },
    {
      "hash": "0x345c3964d4e723e315201cfa6a4905d5e71aa1eff0bfecfe5847412d420f91c5",
      "transactionType": "CALL",
      "contractName": "MainRouter",
      "contractAddress": "0xde538591834dd6e364833CA3937dfC8178a52fD9",
      "function": "setAllowedSourceChain(uint64,bool)",
      "arguments": [
        "10344971235874465080",
        "true"
      ],
      "transaction": {
        "type": "0x02",
        "from": "0x7af234d569ab6360693806d7e7f439ec2114f93c",
        "to": "0xde538591834dd6e364833ca3937dfc8178a52fd9",
        "gas": "0xf9b8",
        "value": "0x0",
        "data": "0x5d9a2c480000000000000000000000000000000000000000000000008f90b8876dee65380000000000000000000000000000000000000000000000000000000000000001",
        "nonce": "0xbc",
        "accessList": []
      },
      "additionalContracts": [],
      "isFixedGasLimit": false
    },
    {
      "hash": "0x797fbf5b59ec319d5dd86a062b3cb0ce592df336761a08e4704ce1f8b2a8ac94",
      "transactionType": "CALL",
      "contractName": "MainRouter",
      "contractAddress": "0xde538591834dd6e364833CA3937dfC8178a52fD9",
      "function": "setAllowedSourceChain(uint64,bool)",
      "arguments": [
        "5224473277236331295",
        "true"
      ],
      "transaction": {
        "type": "0x02",
        "from": "0x7af234d569ab6360693806d7e7f439ec2114f93c",
        "to": "0xde538591834dd6e364833ca3937dfc8178a52fd9",
        "gas": "0xf9b8",
        "value": "0x0",
        "data": "0x5d9a2c4800000000000000000000000000000000000000000000000048810ec3e431431f0000000000000000000000000000000000000000000000000000000000000001",
        "nonce": "0xbd",
        "accessList": []
      },
      "additionalContracts": [],
      "isFixedGasLimit": false
    },
    {
      "hash": "0x5e009d5d1c5d07c62241dde209b883027c0b284cac746582adedac6f0a626c0f",
      "transactionType": "CALL",
      "contractName": "MainRouter",
      "contractAddress": "0xde538591834dd6e364833CA3937dfC8178a52fD9",
      "function": "setAllowedSourceChain(uint64,bool)",
      "arguments": [
        "3478487238524512106",
        "true"
      ],
      "transaction": {
        "type": "0x02",
        "from": "0x7af234d569ab6360693806d7e7f439ec2114f93c",
        "to": "0xde538591834dd6e364833ca3937dfc8178a52fd9",
        "gas": "0xf9b8",
        "value": "0x0",
        "data": "0x5d9a2c48000000000000000000000000000000000000000000000000304611b6affba76a0000000000000000000000000000000000000000000000000000000000000001",
        "nonce": "0xbe",
        "accessList": []
      },
      "additionalContracts": [],
      "isFixedGasLimit": false
    }
  ],
  "receipts": [
    {
      "transactionHash": "0x73be5d5e24fc704701a93874ee00685605487bb485f42779295999b140086d64",
      "transactionIndex": "0x0",
      "blockHash": "0xd7ca00a6b5d3a2f40489654e3c830c08f5751ea03dc67c147966e582ff00a62a",
      "blockNumber": "0x1fc47ee",
      "from": "0x7aF234d569aB6360693806D7e7f439Ec2114F93c",
      "to": null,
      "cumulativeGasUsed": "0x3b3c9",
      "gasUsed": "0x3b3c9",
      "contractAddress": "0xD026A971D3dBF3Fe0BFF93A096db291F0473D717",
      "logs": [],
      "status": "0x1",
      "logsBloom": "0x00000000000000000000000000000000000000000000000000000000000000000000000000000000000000000000000000000000000000000000000000000000000000000000000000000000000000000000000000000000000000000000000000000000000000000000000000000000000000000000000000000000000000000000000000000000000000000000000000000000000000000000000000000000000000000000000000000000000000000000000000000000000000000000000000000000000000000000000000000000000000000000000000000000000000000000000000000000000000000000000000000000000000000000000000000000",
      "type": "0x2",
      "effectiveGasPrice": "0x684ee1800"
    },
    {
      "transactionHash": "0x626602ba2f6925a9d7130e7d89c09ce7d4688f91d02b4f75d97644ea0a2f085b",
      "transactionIndex": "0x1",
      "blockHash": "0xd7ca00a6b5d3a2f40489654e3c830c08f5751ea03dc67c147966e582ff00a62a",
      "blockNumber": "0x1fc47ee",
      "from": "0x7aF234d569aB6360693806D7e7f439Ec2114F93c",
      "to": null,
      "cumulativeGasUsed": "0x3bc240",
      "gasUsed": "0x380e77",
      "contractAddress": "0xde538591834dd6e364833CA3937dfC8178a52fD9",
      "logs": [
        {
          "address": "0xde538591834dd6e364833CA3937dfC8178a52fD9",
          "topics": [
            "0x8be0079c531659141344cd1fd0a4f28419497f9722a3daafe3b4186f6b6457e0",
            "0x0000000000000000000000000000000000000000000000000000000000000000",
            "0x0000000000000000000000007af234d569ab6360693806d7e7f439ec2114f93c"
          ],
          "data": "0x",
          "blockHash": "0xd7ca00a6b5d3a2f40489654e3c830c08f5751ea03dc67c147966e582ff00a62a",
          "blockNumber": "0x1fc47ee",
          "transactionHash": "0x626602ba2f6925a9d7130e7d89c09ce7d4688f91d02b4f75d97644ea0a2f085b",
          "transactionIndex": "0x1",
          "logIndex": "0x0",
          "removed": false
        }
      ],
      "status": "0x1",
      "logsBloom": "0x00000000080000000000000000000000000000000000000000800000000000000000000000000000000000000000000000000000000000000000000000000000000000000000000000000000000000000001000000000000000000000000000000000000020000001000000000000800000000000000000000000000001000400000000000000000000000000000000000000000000008000000000000000000000000000000000000000010000000000000000000000000000000000000000000000000000000000000000000000000000000000000000040000000000020000000000000000000000000000000000000000000000000000000000000000000",
      "type": "0x2",
      "effectiveGasPrice": "0x684ee1800"
    },
    {
      "transactionHash": "0x13fc17ee7fe2d9d71a3c115684587106a033e37647b0854c0582bbfb44c11091",
      "transactionIndex": "0x0",
      "blockHash": "0x08246003d3cb43ba817fd53a03281765db24f755b01977d1411cb51440ff0f7b",
      "blockNumber": "0x1fc47ef",
      "from": "0x7aF234d569aB6360693806D7e7f439Ec2114F93c",
      "to": null,
      "cumulativeGasUsed": "0x150b0e",
      "gasUsed": "0x150b0e",
      "contractAddress": "0xce9b4F58E8990746Bd95d519253238Bc60Da5aa6",
      "logs": [],
      "status": "0x1",
      "logsBloom": "0x00000000000000000000000000000000000000000000000000000000000000000000000000000000000000000000000000000000000000000000000000000000000000000000000000000000000000000000000000000000000000000000000000000000000000000000000000000000000000000000000000000000000000000000000000000000000000000000000000000000000000000000000000000000000000000000000000000000000000000000000000000000000000000000000000000000000000000000000000000000000000000000000000000000000000000000000000000000000000000000000000000000000000000000000000000000",
      "type": "0x2",
      "effectiveGasPrice": "0x684ee1800"
    },
    {
      "transactionHash": "0x6edc58dee2a62385abe1619ca9d444abca798a70734cf6c190b419c0167fae5d",
      "transactionIndex": "0x1",
      "blockHash": "0x08246003d3cb43ba817fd53a03281765db24f755b01977d1411cb51440ff0f7b",
      "blockNumber": "0x1fc47ef",
      "from": "0x7aF234d569aB6360693806D7e7f439Ec2114F93c",
      "to": "0xde538591834dd6e364833CA3937dfC8178a52fD9",
      "cumulativeGasUsed": "0x1720b9",
      "gasUsed": "0x215ab",
      "contractAddress": null,
      "logs": [],
      "status": "0x1",
      "logsBloom": "0x00000000000000000000000000000000000000000000000000000000000000000000000000000000000000000000000000000000000000000000000000000000000000000000000000000000000000000000000000000000000000000000000000000000000000000000000000000000000000000000000000000000000000000000000000000000000000000000000000000000000000000000000000000000000000000000000000000000000000000000000000000000000000000000000000000000000000000000000000000000000000000000000000000000000000000000000000000000000000000000000000000000000000000000000000000000",
      "type": "0x2",
      "effectiveGasPrice": "0x684ee1800"
    },
    {
      "transactionHash": "0x1cdac84944508a0c9b80402bd2664ccb52c6ba2b94dd9c8ac8ab4fd3e14db0a8",
      "transactionIndex": "0x2",
      "blockHash": "0x08246003d3cb43ba817fd53a03281765db24f755b01977d1411cb51440ff0f7b",
      "blockNumber": "0x1fc47ef",
      "from": "0x7aF234d569aB6360693806D7e7f439Ec2114F93c",
      "to": "0xde538591834dd6e364833CA3937dfC8178a52fD9",
      "cumulativeGasUsed": "0x18f398",
      "gasUsed": "0x1d2df",
      "contractAddress": null,
      "logs": [],
      "status": "0x1",
      "logsBloom": "0x00000000000000000000000000000000000000000000000000000000000000000000000000000000000000000000000000000000000000000000000000000000000000000000000000000000000000000000000000000000000000000000000000000000000000000000000000000000000000000000000000000000000000000000000000000000000000000000000000000000000000000000000000000000000000000000000000000000000000000000000000000000000000000000000000000000000000000000000000000000000000000000000000000000000000000000000000000000000000000000000000000000000000000000000000000000",
      "type": "0x2",
      "effectiveGasPrice": "0x684ee1800"
    },
    {
      "transactionHash": "0x38ea59e3751801dcc1e57d9f59935851a2f979548f820118bd2d409e02bdab32",
      "transactionIndex": "0x3",
      "blockHash": "0x08246003d3cb43ba817fd53a03281765db24f755b01977d1411cb51440ff0f7b",
      "blockNumber": "0x1fc47ef",
      "from": "0x7aF234d569aB6360693806D7e7f439Ec2114F93c",
      "to": "0xde538591834dd6e364833CA3937dfC8178a52fD9",
      "cumulativeGasUsed": "0x1ac677",
      "gasUsed": "0x1d2df",
      "contractAddress": null,
      "logs": [],
      "status": "0x1",
      "logsBloom": "0x00000000000000000000000000000000000000000000000000000000000000000000000000000000000000000000000000000000000000000000000000000000000000000000000000000000000000000000000000000000000000000000000000000000000000000000000000000000000000000000000000000000000000000000000000000000000000000000000000000000000000000000000000000000000000000000000000000000000000000000000000000000000000000000000000000000000000000000000000000000000000000000000000000000000000000000000000000000000000000000000000000000000000000000000000000000",
      "type": "0x2",
      "effectiveGasPrice": "0x684ee1800"
    },
    {
      "transactionHash": "0x8057c24647f1e5caefe0e4ab0789a8a8b5c3dfff4009100f6b2334edfb8b083b",
      "transactionIndex": "0x4",
      "blockHash": "0x08246003d3cb43ba817fd53a03281765db24f755b01977d1411cb51440ff0f7b",
      "blockNumber": "0x1fc47ef",
      "from": "0x7aF234d569aB6360693806D7e7f439Ec2114F93c",
      "to": "0xde538591834dd6e364833CA3937dfC8178a52fD9",
      "cumulativeGasUsed": "0x1c9956",
      "gasUsed": "0x1d2df",
      "contractAddress": null,
      "logs": [],
      "status": "0x1",
      "logsBloom": "0x00000000000000000000000000000000000000000000000000000000000000000000000000000000000000000000000000000000000000000000000000000000000000000000000000000000000000000000000000000000000000000000000000000000000000000000000000000000000000000000000000000000000000000000000000000000000000000000000000000000000000000000000000000000000000000000000000000000000000000000000000000000000000000000000000000000000000000000000000000000000000000000000000000000000000000000000000000000000000000000000000000000000000000000000000000000",
      "type": "0x2",
      "effectiveGasPrice": "0x684ee1800"
    },
    {
      "transactionHash": "0x2aae1311bc88c0eb15233815eee54d38cf6ad667054fb982828c10013db22f95",
      "transactionIndex": "0x5",
      "blockHash": "0x08246003d3cb43ba817fd53a03281765db24f755b01977d1411cb51440ff0f7b",
      "blockNumber": "0x1fc47ef",
      "from": "0x7aF234d569aB6360693806D7e7f439Ec2114F93c",
      "to": "0xde538591834dd6e364833CA3937dfC8178a52fD9",
      "cumulativeGasUsed": "0x1e6c35",
      "gasUsed": "0x1d2df",
      "contractAddress": null,
      "logs": [],
      "status": "0x1",
      "logsBloom": "0x00000000000000000000000000000000000000000000000000000000000000000000000000000000000000000000000000000000000000000000000000000000000000000000000000000000000000000000000000000000000000000000000000000000000000000000000000000000000000000000000000000000000000000000000000000000000000000000000000000000000000000000000000000000000000000000000000000000000000000000000000000000000000000000000000000000000000000000000000000000000000000000000000000000000000000000000000000000000000000000000000000000000000000000000000000000",
      "type": "0x2",
      "effectiveGasPrice": "0x684ee1800"
    },
    {
      "transactionHash": "0xd4cbcba51665ae4d74847ee1f2d4e1d50db48ad7fce137e7600f1bce41f7790f",
      "transactionIndex": "0x6",
      "blockHash": "0x08246003d3cb43ba817fd53a03281765db24f755b01977d1411cb51440ff0f7b",
      "blockNumber": "0x1fc47ef",
      "from": "0x7aF234d569aB6360693806D7e7f439Ec2114F93c",
      "to": "0xde538591834dd6e364833CA3937dfC8178a52fD9",
      "cumulativeGasUsed": "0x203f14",
      "gasUsed": "0x1d2df",
      "contractAddress": null,
      "logs": [],
      "status": "0x1",
      "logsBloom": "0x00000000000000000000000000000000000000000000000000000000000000000000000000000000000000000000000000000000000000000000000000000000000000000000000000000000000000000000000000000000000000000000000000000000000000000000000000000000000000000000000000000000000000000000000000000000000000000000000000000000000000000000000000000000000000000000000000000000000000000000000000000000000000000000000000000000000000000000000000000000000000000000000000000000000000000000000000000000000000000000000000000000000000000000000000000000",
      "type": "0x2",
      "effectiveGasPrice": "0x684ee1800"
    },
    {
      "transactionHash": "0xe38a7ef7e4dfae9ab399de56bcb113af7e5b3b61d033540ab9e5e828d896d2f0",
      "transactionIndex": "0x7",
      "blockHash": "0x08246003d3cb43ba817fd53a03281765db24f755b01977d1411cb51440ff0f7b",
      "blockNumber": "0x1fc47ef",
      "from": "0x7aF234d569aB6360693806D7e7f439Ec2114F93c",
      "to": "0xde538591834dd6e364833CA3937dfC8178a52fD9",
      "cumulativeGasUsed": "0x2211f3",
      "gasUsed": "0x1d2df",
      "contractAddress": null,
      "logs": [],
      "status": "0x1",
      "logsBloom": "0x00000000000000000000000000000000000000000000000000000000000000000000000000000000000000000000000000000000000000000000000000000000000000000000000000000000000000000000000000000000000000000000000000000000000000000000000000000000000000000000000000000000000000000000000000000000000000000000000000000000000000000000000000000000000000000000000000000000000000000000000000000000000000000000000000000000000000000000000000000000000000000000000000000000000000000000000000000000000000000000000000000000000000000000000000000000",
      "type": "0x2",
      "effectiveGasPrice": "0x684ee1800"
    },
    {
      "transactionHash": "0x3992b24793288700936ef5d8b028eb075a12802a0a350512a26a93fd8d8866b5",
      "transactionIndex": "0x8",
      "blockHash": "0x08246003d3cb43ba817fd53a03281765db24f755b01977d1411cb51440ff0f7b",
      "blockNumber": "0x1fc47ef",
      "from": "0x7aF234d569aB6360693806D7e7f439Ec2114F93c",
      "to": "0xde538591834dd6e364833CA3937dfC8178a52fD9",
      "cumulativeGasUsed": "0x24279e",
      "gasUsed": "0x215ab",
      "contractAddress": null,
      "logs": [],
      "status": "0x1",
      "logsBloom": "0x00000000000000000000000000000000000000000000000000000000000000000000000000000000000000000000000000000000000000000000000000000000000000000000000000000000000000000000000000000000000000000000000000000000000000000000000000000000000000000000000000000000000000000000000000000000000000000000000000000000000000000000000000000000000000000000000000000000000000000000000000000000000000000000000000000000000000000000000000000000000000000000000000000000000000000000000000000000000000000000000000000000000000000000000000000000",
      "type": "0x2",
      "effectiveGasPrice": "0x684ee1800"
    },
    {
      "transactionHash": "0x8bd4f403c5579547de6dc1600ca17b48635e6905a12827d417ea56384a4232a1",
      "transactionIndex": "0x9",
      "blockHash": "0x08246003d3cb43ba817fd53a03281765db24f755b01977d1411cb51440ff0f7b",
      "blockNumber": "0x1fc47ef",
      "from": "0x7aF234d569aB6360693806D7e7f439Ec2114F93c",
      "to": "0xde538591834dd6e364833CA3937dfC8178a52fD9",
      "cumulativeGasUsed": "0x25fa7d",
      "gasUsed": "0x1d2df",
      "contractAddress": null,
      "logs": [],
      "status": "0x1",
      "logsBloom": "0x00000000000000000000000000000000000000000000000000000000000000000000000000000000000000000000000000000000000000000000000000000000000000000000000000000000000000000000000000000000000000000000000000000000000000000000000000000000000000000000000000000000000000000000000000000000000000000000000000000000000000000000000000000000000000000000000000000000000000000000000000000000000000000000000000000000000000000000000000000000000000000000000000000000000000000000000000000000000000000000000000000000000000000000000000000000",
      "type": "0x2",
      "effectiveGasPrice": "0x684ee1800"
    },
    {
      "transactionHash": "0x75acc172ff479b551b28d8270f1b1dc14231837c89bfcf12b43f4f16c4a554b8",
      "transactionIndex": "0xa",
      "blockHash": "0x08246003d3cb43ba817fd53a03281765db24f755b01977d1411cb51440ff0f7b",
      "blockNumber": "0x1fc47ef",
      "from": "0x7aF234d569aB6360693806D7e7f439Ec2114F93c",
      "to": "0xde538591834dd6e364833CA3937dfC8178a52fD9",
      "cumulativeGasUsed": "0x27cd5c",
      "gasUsed": "0x1d2df",
      "contractAddress": null,
      "logs": [],
      "status": "0x1",
      "logsBloom": "0x00000000000000000000000000000000000000000000000000000000000000000000000000000000000000000000000000000000000000000000000000000000000000000000000000000000000000000000000000000000000000000000000000000000000000000000000000000000000000000000000000000000000000000000000000000000000000000000000000000000000000000000000000000000000000000000000000000000000000000000000000000000000000000000000000000000000000000000000000000000000000000000000000000000000000000000000000000000000000000000000000000000000000000000000000000000",
      "type": "0x2",
      "effectiveGasPrice": "0x684ee1800"
    },
    {
      "transactionHash": "0x52a8e5b89dd20552710601205a1c447abbe65c7897f59e4a363c5c5c412b0b3f",
      "transactionIndex": "0xb",
      "blockHash": "0x08246003d3cb43ba817fd53a03281765db24f755b01977d1411cb51440ff0f7b",
      "blockNumber": "0x1fc47ef",
      "from": "0x7aF234d569aB6360693806D7e7f439Ec2114F93c",
      "to": "0xde538591834dd6e364833CA3937dfC8178a52fD9",
      "cumulativeGasUsed": "0x29a03b",
      "gasUsed": "0x1d2df",
      "contractAddress": null,
      "logs": [],
      "status": "0x1",
      "logsBloom": "0x00000000000000000000000000000000000000000000000000000000000000000000000000000000000000000000000000000000000000000000000000000000000000000000000000000000000000000000000000000000000000000000000000000000000000000000000000000000000000000000000000000000000000000000000000000000000000000000000000000000000000000000000000000000000000000000000000000000000000000000000000000000000000000000000000000000000000000000000000000000000000000000000000000000000000000000000000000000000000000000000000000000000000000000000000000000",
      "type": "0x2",
      "effectiveGasPrice": "0x684ee1800"
    },
    {
      "transactionHash": "0xfaa6ce0caf5668b2a2977ea286ff1cfcb5827d80eb81000437396e4f88b902dc",
      "transactionIndex": "0xc",
      "blockHash": "0x08246003d3cb43ba817fd53a03281765db24f755b01977d1411cb51440ff0f7b",
      "blockNumber": "0x1fc47ef",
      "from": "0x7aF234d569aB6360693806D7e7f439Ec2114F93c",
      "to": "0xde538591834dd6e364833CA3937dfC8178a52fD9",
      "cumulativeGasUsed": "0x2b731a",
      "gasUsed": "0x1d2df",
      "contractAddress": null,
      "logs": [],
      "status": "0x1",
      "logsBloom": "0x00000000000000000000000000000000000000000000000000000000000000000000000000000000000000000000000000000000000000000000000000000000000000000000000000000000000000000000000000000000000000000000000000000000000000000000000000000000000000000000000000000000000000000000000000000000000000000000000000000000000000000000000000000000000000000000000000000000000000000000000000000000000000000000000000000000000000000000000000000000000000000000000000000000000000000000000000000000000000000000000000000000000000000000000000000000",
      "type": "0x2",
      "effectiveGasPrice": "0x684ee1800"
    },
    {
      "transactionHash": "0xff896e51b43d8690cfb559871d6d80556fd0b30d0c09643df5d423e9b0252df3",
      "transactionIndex": "0x0",
      "blockHash": "0xa2f98b14e0fbdf96371fc213a7067cb2eaf03222b16edd00b76950319620de60",
      "blockNumber": "0x1fc47f0",
      "from": "0x7aF234d569aB6360693806D7e7f439Ec2114F93c",
      "to": "0xde538591834dd6e364833CA3937dfC8178a52fD9",
      "cumulativeGasUsed": "0x1d2d3",
      "gasUsed": "0x1d2d3",
      "contractAddress": null,
      "logs": [],
      "status": "0x1",
      "logsBloom": "0x00000000000000000000000000000000000000000000000000000000000000000000000000000000000000000000000000000000000000000000000000000000000000000000000000000000000000000000000000000000000000000000000000000000000000000000000000000000000000000000000000000000000000000000000000000000000000000000000000000000000000000000000000000000000000000000000000000000000000000000000000000000000000000000000000000000000000000000000000000000000000000000000000000000000000000000000000000000000000000000000000000000000000000000000000000000",
      "type": "0x2",
      "effectiveGasPrice": "0x684ee1800"
    },
    {
      "transactionHash": "0xf73ae5c0f3943f10a744ba4153d8cdeae50d17b8f1773212f0e52e270b4d06a2",
      "transactionIndex": "0x1",
      "blockHash": "0xa2f98b14e0fbdf96371fc213a7067cb2eaf03222b16edd00b76950319620de60",
      "blockNumber": "0x1fc47f0",
      "from": "0x7aF234d569aB6360693806D7e7f439Ec2114F93c",
      "to": "0xde538591834dd6e364833CA3937dfC8178a52fD9",
      "cumulativeGasUsed": "0x3a5b2",
      "gasUsed": "0x1d2df",
      "contractAddress": null,
      "logs": [],
      "status": "0x1",
      "logsBloom": "0x00000000000000000000000000000000000000000000000000000000000000000000000000000000000000000000000000000000000000000000000000000000000000000000000000000000000000000000000000000000000000000000000000000000000000000000000000000000000000000000000000000000000000000000000000000000000000000000000000000000000000000000000000000000000000000000000000000000000000000000000000000000000000000000000000000000000000000000000000000000000000000000000000000000000000000000000000000000000000000000000000000000000000000000000000000000",
      "type": "0x2",
      "effectiveGasPrice": "0x684ee1800"
    },
    {
      "transactionHash": "0x40a73881cdfdfe958cf03d797fa314cfc61b07207866c783305628ed65c33d7f",
      "transactionIndex": "0x2",
      "blockHash": "0xa2f98b14e0fbdf96371fc213a7067cb2eaf03222b16edd00b76950319620de60",
      "blockNumber": "0x1fc47f0",
      "from": "0x7aF234d569aB6360693806D7e7f439Ec2114F93c",
      "to": "0xde538591834dd6e364833CA3937dfC8178a52fD9",
      "cumulativeGasUsed": "0x5bb5d",
      "gasUsed": "0x215ab",
      "contractAddress": null,
      "logs": [],
      "status": "0x1",
      "logsBloom": "0x00000000000000000000000000000000000000000000000000000000000000000000000000000000000000000000000000000000000000000000000000000000000000000000000000000000000000000000000000000000000000000000000000000000000000000000000000000000000000000000000000000000000000000000000000000000000000000000000000000000000000000000000000000000000000000000000000000000000000000000000000000000000000000000000000000000000000000000000000000000000000000000000000000000000000000000000000000000000000000000000000000000000000000000000000000000",
      "type": "0x2",
      "effectiveGasPrice": "0x684ee1800"
    },
    {
      "transactionHash": "0x71200de483ca1cb1129c0599d52f18ed4d48736e2756c8f06334cb70b90f6257",
      "transactionIndex": "0x0",
      "blockHash": "0xfd9c730c950c91827a62ee368c21a5e9bee55a4012224b9a138b72ee6e2c3934",
      "blockNumber": "0x1fc47f1",
      "from": "0x7aF234d569aB6360693806D7e7f439Ec2114F93c",
      "to": "0xde538591834dd6e364833CA3937dfC8178a52fD9",
      "cumulativeGasUsed": "0x1d2df",
      "gasUsed": "0x1d2df",
      "contractAddress": null,
      "logs": [],
      "status": "0x1",
      "logsBloom": "0x00000000000000000000000000000000000000000000000000000000000000000000000000000000000000000000000000000000000000000000000000000000000000000000000000000000000000000000000000000000000000000000000000000000000000000000000000000000000000000000000000000000000000000000000000000000000000000000000000000000000000000000000000000000000000000000000000000000000000000000000000000000000000000000000000000000000000000000000000000000000000000000000000000000000000000000000000000000000000000000000000000000000000000000000000000000",
      "type": "0x2",
      "effectiveGasPrice": "0x684ee1800"
    },
    {
      "transactionHash": "0xdacef81b470b35180f4e5189186eaca67bd3f8169dd2004ea78e11fcd9af5049",
      "transactionIndex": "0x1",
      "blockHash": "0xfd9c730c950c91827a62ee368c21a5e9bee55a4012224b9a138b72ee6e2c3934",
      "blockNumber": "0x1fc47f1",
      "from": "0x7aF234d569aB6360693806D7e7f439Ec2114F93c",
      "to": "0xde538591834dd6e364833CA3937dfC8178a52fD9",
      "cumulativeGasUsed": "0x3a5be",
      "gasUsed": "0x1d2df",
      "contractAddress": null,
      "logs": [],
      "status": "0x1",
      "logsBloom": "0x00000000000000000000000000000000000000000000000000000000000000000000000000000000000000000000000000000000000000000000000000000000000000000000000000000000000000000000000000000000000000000000000000000000000000000000000000000000000000000000000000000000000000000000000000000000000000000000000000000000000000000000000000000000000000000000000000000000000000000000000000000000000000000000000000000000000000000000000000000000000000000000000000000000000000000000000000000000000000000000000000000000000000000000000000000000",
      "type": "0x2",
      "effectiveGasPrice": "0x684ee1800"
    },
    {
      "transactionHash": "0xf43839bbd8e5c0b750c7e9450913ecfc45a530dbfe4133ebed3b5edb384a0b7a",
      "transactionIndex": "0x2",
      "blockHash": "0xfd9c730c950c91827a62ee368c21a5e9bee55a4012224b9a138b72ee6e2c3934",
      "blockNumber": "0x1fc47f1",
      "from": "0x7aF234d569aB6360693806D7e7f439Ec2114F93c",
      "to": "0xde538591834dd6e364833CA3937dfC8178a52fD9",
      "cumulativeGasUsed": "0x5789d",
      "gasUsed": "0x1d2df",
      "contractAddress": null,
      "logs": [],
      "status": "0x1",
      "logsBloom": "0x00000000000000000000000000000000000000000000000000000000000000000000000000000000000000000000000000000000000000000000000000000000000000000000000000000000000000000000000000000000000000000000000000000000000000000000000000000000000000000000000000000000000000000000000000000000000000000000000000000000000000000000000000000000000000000000000000000000000000000000000000000000000000000000000000000000000000000000000000000000000000000000000000000000000000000000000000000000000000000000000000000000000000000000000000000000",
      "type": "0x2",
      "effectiveGasPrice": "0x684ee1800"
    },
    {
      "transactionHash": "0x28f04f8866bdec9dd48433a2b517d56d558a94256aca4073ba7ddcb276ea3982",
      "transactionIndex": "0x3",
      "blockHash": "0xfd9c730c950c91827a62ee368c21a5e9bee55a4012224b9a138b72ee6e2c3934",
      "blockNumber": "0x1fc47f1",
      "from": "0x7aF234d569aB6360693806D7e7f439Ec2114F93c",
      "to": "0xde538591834dd6e364833CA3937dfC8178a52fD9",
      "cumulativeGasUsed": "0x74b7c",
      "gasUsed": "0x1d2df",
      "contractAddress": null,
      "logs": [],
      "status": "0x1",
      "logsBloom": "0x00000000000000000000000000000000000000000000000000000000000000000000000000000000000000000000000000000000000000000000000000000000000000000000000000000000000000000000000000000000000000000000000000000000000000000000000000000000000000000000000000000000000000000000000000000000000000000000000000000000000000000000000000000000000000000000000000000000000000000000000000000000000000000000000000000000000000000000000000000000000000000000000000000000000000000000000000000000000000000000000000000000000000000000000000000000",
      "type": "0x2",
      "effectiveGasPrice": "0x684ee1800"
    },
    {
      "transactionHash": "0x357fb198f76b6acec17587e701a81f191a23e354e5a6094bea6de688b74bf89d",
      "transactionIndex": "0x4",
      "blockHash": "0xfd9c730c950c91827a62ee368c21a5e9bee55a4012224b9a138b72ee6e2c3934",
      "blockNumber": "0x1fc47f1",
      "from": "0x7aF234d569aB6360693806D7e7f439Ec2114F93c",
      "to": "0xde538591834dd6e364833CA3937dfC8178a52fD9",
      "cumulativeGasUsed": "0x91e5b",
      "gasUsed": "0x1d2df",
      "contractAddress": null,
      "logs": [],
      "status": "0x1",
      "logsBloom": "0x00000000000000000000000000000000000000000000000000000000000000000000000000000000000000000000000000000000000000000000000000000000000000000000000000000000000000000000000000000000000000000000000000000000000000000000000000000000000000000000000000000000000000000000000000000000000000000000000000000000000000000000000000000000000000000000000000000000000000000000000000000000000000000000000000000000000000000000000000000000000000000000000000000000000000000000000000000000000000000000000000000000000000000000000000000000",
      "type": "0x2",
      "effectiveGasPrice": "0x684ee1800"
    },
    {
      "transactionHash": "0xf758ffd175f14c3c2e2a69c22a3f0d5ea298c742fcd56b2c0d5b02c0e054342b",
      "transactionIndex": "0x5",
      "blockHash": "0xfd9c730c950c91827a62ee368c21a5e9bee55a4012224b9a138b72ee6e2c3934",
      "blockNumber": "0x1fc47f1",
      "from": "0x7aF234d569aB6360693806D7e7f439Ec2114F93c",
      "to": "0xde538591834dd6e364833CA3937dfC8178a52fD9",
      "cumulativeGasUsed": "0xaf13a",
      "gasUsed": "0x1d2df",
      "contractAddress": null,
      "logs": [],
      "status": "0x1",
      "logsBloom": "0x00000000000000000000000000000000000000000000000000000000000000000000000000000000000000000000000000000000000000000000000000000000000000000000000000000000000000000000000000000000000000000000000000000000000000000000000000000000000000000000000000000000000000000000000000000000000000000000000000000000000000000000000000000000000000000000000000000000000000000000000000000000000000000000000000000000000000000000000000000000000000000000000000000000000000000000000000000000000000000000000000000000000000000000000000000000",
      "type": "0x2",
      "effectiveGasPrice": "0x684ee1800"
    },
    {
      "transactionHash": "0x255c51a26a3ea5da9951b5ba4d104ba842bd559cb68687d91a76d8cf04d431ff",
      "transactionIndex": "0x6",
      "blockHash": "0xfd9c730c950c91827a62ee368c21a5e9bee55a4012224b9a138b72ee6e2c3934",
      "blockNumber": "0x1fc47f1",
      "from": "0x7aF234d569aB6360693806D7e7f439Ec2114F93c",
      "to": "0xde538591834dd6e364833CA3937dfC8178a52fD9",
      "cumulativeGasUsed": "0xd06e5",
      "gasUsed": "0x215ab",
      "contractAddress": null,
      "logs": [],
      "status": "0x1",
      "logsBloom": "0x00000000000000000000000000000000000000000000000000000000000000000000000000000000000000000000000000000000000000000000000000000000000000000000000000000000000000000000000000000000000000000000000000000000000000000000000000000000000000000000000000000000000000000000000000000000000000000000000000000000000000000000000000000000000000000000000000000000000000000000000000000000000000000000000000000000000000000000000000000000000000000000000000000000000000000000000000000000000000000000000000000000000000000000000000000000",
      "type": "0x2",
      "effectiveGasPrice": "0x684ee1800"
    },
    {
      "transactionHash": "0xe2b839ff5431d6bcb9367ee3431087a12ff4f476a985a2679ae1c66af17ac8ac",
      "transactionIndex": "0x7",
      "blockHash": "0xfd9c730c950c91827a62ee368c21a5e9bee55a4012224b9a138b72ee6e2c3934",
      "blockNumber": "0x1fc47f1",
      "from": "0x7aF234d569aB6360693806D7e7f439Ec2114F93c",
      "to": "0xde538591834dd6e364833CA3937dfC8178a52fD9",
      "cumulativeGasUsed": "0xed9c4",
      "gasUsed": "0x1d2df",
      "contractAddress": null,
      "logs": [],
      "status": "0x1",
      "logsBloom": "0x00000000000000000000000000000000000000000000000000000000000000000000000000000000000000000000000000000000000000000000000000000000000000000000000000000000000000000000000000000000000000000000000000000000000000000000000000000000000000000000000000000000000000000000000000000000000000000000000000000000000000000000000000000000000000000000000000000000000000000000000000000000000000000000000000000000000000000000000000000000000000000000000000000000000000000000000000000000000000000000000000000000000000000000000000000000",
      "type": "0x2",
      "effectiveGasPrice": "0x684ee1800"
    },
    {
      "transactionHash": "0xf26dc3b0d98a3b1264e461255c834f7e084ffe26abb0ee3ac4e00c2fb5c659ba",
      "transactionIndex": "0x8",
      "blockHash": "0xfd9c730c950c91827a62ee368c21a5e9bee55a4012224b9a138b72ee6e2c3934",
      "blockNumber": "0x1fc47f1",
      "from": "0x7aF234d569aB6360693806D7e7f439Ec2114F93c",
      "to": "0xde538591834dd6e364833CA3937dfC8178a52fD9",
      "cumulativeGasUsed": "0x10aca3",
      "gasUsed": "0x1d2df",
      "contractAddress": null,
      "logs": [],
      "status": "0x1",
      "logsBloom": "0x00000000000000000000000000000000000000000000000000000000000000000000000000000000000000000000000000000000000000000000000000000000000000000000000000000000000000000000000000000000000000000000000000000000000000000000000000000000000000000000000000000000000000000000000000000000000000000000000000000000000000000000000000000000000000000000000000000000000000000000000000000000000000000000000000000000000000000000000000000000000000000000000000000000000000000000000000000000000000000000000000000000000000000000000000000000",
      "type": "0x2",
      "effectiveGasPrice": "0x684ee1800"
    },
    {
      "transactionHash": "0x3cbb0a1abc154de7aa10280a3d3476ba2830b1de7d805f7b06c989868879b730",
      "transactionIndex": "0x9",
      "blockHash": "0xfd9c730c950c91827a62ee368c21a5e9bee55a4012224b9a138b72ee6e2c3934",
      "blockNumber": "0x1fc47f1",
      "from": "0x7aF234d569aB6360693806D7e7f439Ec2114F93c",
      "to": "0xde538591834dd6e364833CA3937dfC8178a52fD9",
      "cumulativeGasUsed": "0x127f82",
      "gasUsed": "0x1d2df",
      "contractAddress": null,
      "logs": [],
      "status": "0x1",
      "logsBloom": "0x00000000000000000000000000000000000000000000000000000000000000000000000000000000000000000000000000000000000000000000000000000000000000000000000000000000000000000000000000000000000000000000000000000000000000000000000000000000000000000000000000000000000000000000000000000000000000000000000000000000000000000000000000000000000000000000000000000000000000000000000000000000000000000000000000000000000000000000000000000000000000000000000000000000000000000000000000000000000000000000000000000000000000000000000000000000",
      "type": "0x2",
      "effectiveGasPrice": "0x684ee1800"
    },
    {
      "transactionHash": "0xa044cb55a4e047d80268da14f24c087b7cc647a5bdaeac88ea1919e9a091a0ad",
      "transactionIndex": "0xa",
      "blockHash": "0xfd9c730c950c91827a62ee368c21a5e9bee55a4012224b9a138b72ee6e2c3934",
      "blockNumber": "0x1fc47f1",
      "from": "0x7aF234d569aB6360693806D7e7f439Ec2114F93c",
      "to": "0xde538591834dd6e364833CA3937dfC8178a52fD9",
      "cumulativeGasUsed": "0x145261",
      "gasUsed": "0x1d2df",
      "contractAddress": null,
      "logs": [],
      "status": "0x1",
      "logsBloom": "0x00000000000000000000000000000000000000000000000000000000000000000000000000000000000000000000000000000000000000000000000000000000000000000000000000000000000000000000000000000000000000000000000000000000000000000000000000000000000000000000000000000000000000000000000000000000000000000000000000000000000000000000000000000000000000000000000000000000000000000000000000000000000000000000000000000000000000000000000000000000000000000000000000000000000000000000000000000000000000000000000000000000000000000000000000000000",
      "type": "0x2",
      "effectiveGasPrice": "0x684ee1800"
    },
    {
      "transactionHash": "0xd36c0c39491a48289ac3f1f12df77f7315b1bf0f18550b8714e3b14740be1382",
      "transactionIndex": "0xb",
      "blockHash": "0xfd9c730c950c91827a62ee368c21a5e9bee55a4012224b9a138b72ee6e2c3934",
      "blockNumber": "0x1fc47f1",
      "from": "0x7aF234d569aB6360693806D7e7f439Ec2114F93c",
      "to": "0xde538591834dd6e364833CA3937dfC8178a52fD9",
      "cumulativeGasUsed": "0x162540",
      "gasUsed": "0x1d2df",
      "contractAddress": null,
      "logs": [],
      "status": "0x1",
      "logsBloom": "0x00000000000000000000000000000000000000000000000000000000000000000000000000000000000000000000000000000000000000000000000000000000000000000000000000000000000000000000000000000000000000000000000000000000000000000000000000000000000000000000000000000000000000000000000000000000000000000000000000000000000000000000000000000000000000000000000000000000000000000000000000000000000000000000000000000000000000000000000000000000000000000000000000000000000000000000000000000000000000000000000000000000000000000000000000000000",
      "type": "0x2",
      "effectiveGasPrice": "0x684ee1800"
    },
    {
      "transactionHash": "0x25ac80d21c24fba122076cb2f5b6ec6728aaf8fc4bf5af894b2f2c77a202521f",
      "transactionIndex": "0xc",
      "blockHash": "0xfd9c730c950c91827a62ee368c21a5e9bee55a4012224b9a138b72ee6e2c3934",
      "blockNumber": "0x1fc47f1",
      "from": "0x7aF234d569aB6360693806D7e7f439Ec2114F93c",
      "to": "0xde538591834dd6e364833CA3937dfC8178a52fD9",
      "cumulativeGasUsed": "0x17f81f",
      "gasUsed": "0x1d2df",
      "contractAddress": null,
      "logs": [],
      "status": "0x1",
      "logsBloom": "0x00000000000000000000000000000000000000000000000000000000000000000000000000000000000000000000000000000000000000000000000000000000000000000000000000000000000000000000000000000000000000000000000000000000000000000000000000000000000000000000000000000000000000000000000000000000000000000000000000000000000000000000000000000000000000000000000000000000000000000000000000000000000000000000000000000000000000000000000000000000000000000000000000000000000000000000000000000000000000000000000000000000000000000000000000000000",
      "type": "0x2",
      "effectiveGasPrice": "0x684ee1800"
    },
    {
      "transactionHash": "0x1e56e95d76bc9dfe603fe53d856ed7c09b41283ecd8b131216667b4f25ef1e1d",
      "transactionIndex": "0xd",
      "blockHash": "0xfd9c730c950c91827a62ee368c21a5e9bee55a4012224b9a138b72ee6e2c3934",
      "blockNumber": "0x1fc47f1",
      "from": "0x7aF234d569aB6360693806D7e7f439Ec2114F93c",
      "to": "0xde538591834dd6e364833CA3937dfC8178a52fD9",
      "cumulativeGasUsed": "0x1a0dca",
      "gasUsed": "0x215ab",
      "contractAddress": null,
      "logs": [],
      "status": "0x1",
      "logsBloom": "0x00000000000000000000000000000000000000000000000000000000000000000000000000000000000000000000000000000000000000000000000000000000000000000000000000000000000000000000000000000000000000000000000000000000000000000000000000000000000000000000000000000000000000000000000000000000000000000000000000000000000000000000000000000000000000000000000000000000000000000000000000000000000000000000000000000000000000000000000000000000000000000000000000000000000000000000000000000000000000000000000000000000000000000000000000000000",
      "type": "0x2",
      "effectiveGasPrice": "0x684ee1800"
    },
    {
      "transactionHash": "0x602ee0ac083065cb689874740622fe65338f49472e804d23cfc9901f821d9df1",
      "transactionIndex": "0xe",
      "blockHash": "0xfd9c730c950c91827a62ee368c21a5e9bee55a4012224b9a138b72ee6e2c3934",
      "blockNumber": "0x1fc47f1",
      "from": "0x7aF234d569aB6360693806D7e7f439Ec2114F93c",
      "to": "0xde538591834dd6e364833CA3937dfC8178a52fD9",
      "cumulativeGasUsed": "0x1be0a9",
      "gasUsed": "0x1d2df",
      "contractAddress": null,
      "logs": [],
      "status": "0x1",
      "logsBloom": "0x00000000000000000000000000000000000000000000000000000000000000000000000000000000000000000000000000000000000000000000000000000000000000000000000000000000000000000000000000000000000000000000000000000000000000000000000000000000000000000000000000000000000000000000000000000000000000000000000000000000000000000000000000000000000000000000000000000000000000000000000000000000000000000000000000000000000000000000000000000000000000000000000000000000000000000000000000000000000000000000000000000000000000000000000000000000",
      "type": "0x2",
      "effectiveGasPrice": "0x684ee1800"
    },
    {
      "transactionHash": "0xa86daabf3d106b0b1b73b310cfddf386f20d50d1b80ab765c003fc73dd2cda92",
      "transactionIndex": "0xf",
      "blockHash": "0xfd9c730c950c91827a62ee368c21a5e9bee55a4012224b9a138b72ee6e2c3934",
      "blockNumber": "0x1fc47f1",
      "from": "0x7aF234d569aB6360693806D7e7f439Ec2114F93c",
      "to": "0xde538591834dd6e364833CA3937dfC8178a52fD9",
      "cumulativeGasUsed": "0x1db388",
      "gasUsed": "0x1d2df",
      "contractAddress": null,
      "logs": [],
      "status": "0x1",
      "logsBloom": "0x00000000000000000000000000000000000000000000000000000000000000000000000000000000000000000000000000000000000000000000000000000000000000000000000000000000000000000000000000000000000000000000000000000000000000000000000000000000000000000000000000000000000000000000000000000000000000000000000000000000000000000000000000000000000000000000000000000000000000000000000000000000000000000000000000000000000000000000000000000000000000000000000000000000000000000000000000000000000000000000000000000000000000000000000000000000",
      "type": "0x2",
      "effectiveGasPrice": "0x684ee1800"
    },
    {
      "transactionHash": "0xd98b46a861ae7342948ae1bf569fd4594c2f1fcad170676c40580fec70afd174",
      "transactionIndex": "0x10",
      "blockHash": "0xfd9c730c950c91827a62ee368c21a5e9bee55a4012224b9a138b72ee6e2c3934",
      "blockNumber": "0x1fc47f1",
      "from": "0x7aF234d569aB6360693806D7e7f439Ec2114F93c",
      "to": "0xde538591834dd6e364833CA3937dfC8178a52fD9",
      "cumulativeGasUsed": "0x1f8667",
      "gasUsed": "0x1d2df",
      "contractAddress": null,
      "logs": [],
      "status": "0x1",
      "logsBloom": "0x00000000000000000000000000000000000000000000000000000000000000000000000000000000000000000000000000000000000000000000000000000000000000000000000000000000000000000000000000000000000000000000000000000000000000000000000000000000000000000000000000000000000000000000000000000000000000000000000000000000000000000000000000000000000000000000000000000000000000000000000000000000000000000000000000000000000000000000000000000000000000000000000000000000000000000000000000000000000000000000000000000000000000000000000000000000",
      "type": "0x2",
      "effectiveGasPrice": "0x684ee1800"
    },
    {
      "transactionHash": "0xba79ce376af651a3f39cd29434e0808db80dc1f6bc95975c32374d887cf5a25a",
      "transactionIndex": "0x11",
      "blockHash": "0xfd9c730c950c91827a62ee368c21a5e9bee55a4012224b9a138b72ee6e2c3934",
      "blockNumber": "0x1fc47f1",
      "from": "0x7aF234d569aB6360693806D7e7f439Ec2114F93c",
      "to": "0xde538591834dd6e364833CA3937dfC8178a52fD9",
      "cumulativeGasUsed": "0x215946",
      "gasUsed": "0x1d2df",
      "contractAddress": null,
      "logs": [],
      "status": "0x1",
      "logsBloom": "0x00000000000000000000000000000000000000000000000000000000000000000000000000000000000000000000000000000000000000000000000000000000000000000000000000000000000000000000000000000000000000000000000000000000000000000000000000000000000000000000000000000000000000000000000000000000000000000000000000000000000000000000000000000000000000000000000000000000000000000000000000000000000000000000000000000000000000000000000000000000000000000000000000000000000000000000000000000000000000000000000000000000000000000000000000000000",
      "type": "0x2",
      "effectiveGasPrice": "0x684ee1800"
    },
    {
      "transactionHash": "0xf280f9955b31f1f8af4ed5dcdff8158305926efd4527dca987a3ba57025d0ba6",
      "transactionIndex": "0x12",
      "blockHash": "0xfd9c730c950c91827a62ee368c21a5e9bee55a4012224b9a138b72ee6e2c3934",
      "blockNumber": "0x1fc47f1",
      "from": "0x7aF234d569aB6360693806D7e7f439Ec2114F93c",
      "to": "0xde538591834dd6e364833CA3937dfC8178a52fD9",
      "cumulativeGasUsed": "0x232c25",
      "gasUsed": "0x1d2df",
      "contractAddress": null,
      "logs": [],
      "status": "0x1",
      "logsBloom": "0x00000000000000000000000000000000000000000000000000000000000000000000000000000000000000000000000000000000000000000000000000000000000000000000000000000000000000000000000000000000000000000000000000000000000000000000000000000000000000000000000000000000000000000000000000000000000000000000000000000000000000000000000000000000000000000000000000000000000000000000000000000000000000000000000000000000000000000000000000000000000000000000000000000000000000000000000000000000000000000000000000000000000000000000000000000000",
      "type": "0x2",
      "effectiveGasPrice": "0x684ee1800"
    },
    {
      "transactionHash": "0xfafe3999834127dfab868e26a59702fe1aecaad1235a1d04befd24dc157d0787",
      "transactionIndex": "0x13",
      "blockHash": "0xfd9c730c950c91827a62ee368c21a5e9bee55a4012224b9a138b72ee6e2c3934",
      "blockNumber": "0x1fc47f1",
      "from": "0x7aF234d569aB6360693806D7e7f439Ec2114F93c",
      "to": "0xde538591834dd6e364833CA3937dfC8178a52fD9",
      "cumulativeGasUsed": "0x24ff04",
      "gasUsed": "0x1d2df",
      "contractAddress": null,
      "logs": [],
      "status": "0x1",
      "logsBloom": "0x00000000000000000000000000000000000000000000000000000000000000000000000000000000000000000000000000000000000000000000000000000000000000000000000000000000000000000000000000000000000000000000000000000000000000000000000000000000000000000000000000000000000000000000000000000000000000000000000000000000000000000000000000000000000000000000000000000000000000000000000000000000000000000000000000000000000000000000000000000000000000000000000000000000000000000000000000000000000000000000000000000000000000000000000000000000",
      "type": "0x2",
      "effectiveGasPrice": "0x684ee1800"
    },
    {
      "transactionHash": "0x2bb17b41959cd2d54310f5f6f597178d767143f5956e17eb7e749f53a1a3e967",
      "transactionIndex": "0x14",
      "blockHash": "0xfd9c730c950c91827a62ee368c21a5e9bee55a4012224b9a138b72ee6e2c3934",
      "blockNumber": "0x1fc47f1",
      "from": "0x7aF234d569aB6360693806D7e7f439Ec2114F93c",
      "to": "0xde538591834dd6e364833CA3937dfC8178a52fD9",
      "cumulativeGasUsed": "0x2714af",
      "gasUsed": "0x215ab",
      "contractAddress": null,
      "logs": [],
      "status": "0x1",
      "logsBloom": "0x00000000000000000000000000000000000000000000000000000000000000000000000000000000000000000000000000000000000000000000000000000000000000000000000000000000000000000000000000000000000000000000000000000000000000000000000000000000000000000000000000000000000000000000000000000000000000000000000000000000000000000000000000000000000000000000000000000000000000000000000000000000000000000000000000000000000000000000000000000000000000000000000000000000000000000000000000000000000000000000000000000000000000000000000000000000",
      "type": "0x2",
      "effectiveGasPrice": "0x684ee1800"
    },
    {
      "transactionHash": "0x91936bd6ebbf9eb20f5d845579f3a5cdc60e437fec24e1460eca931d1e411fe7",
      "transactionIndex": "0x15",
      "blockHash": "0xfd9c730c950c91827a62ee368c21a5e9bee55a4012224b9a138b72ee6e2c3934",
      "blockNumber": "0x1fc47f1",
      "from": "0x7aF234d569aB6360693806D7e7f439Ec2114F93c",
      "to": "0xde538591834dd6e364833CA3937dfC8178a52fD9",
      "cumulativeGasUsed": "0x28e78e",
      "gasUsed": "0x1d2df",
      "contractAddress": null,
      "logs": [],
      "status": "0x1",
      "logsBloom": "0x00000000000000000000000000000000000000000000000000000000000000000000000000000000000000000000000000000000000000000000000000000000000000000000000000000000000000000000000000000000000000000000000000000000000000000000000000000000000000000000000000000000000000000000000000000000000000000000000000000000000000000000000000000000000000000000000000000000000000000000000000000000000000000000000000000000000000000000000000000000000000000000000000000000000000000000000000000000000000000000000000000000000000000000000000000000",
      "type": "0x2",
      "effectiveGasPrice": "0x684ee1800"
    },
    {
      "transactionHash": "0x229b9312e1a637c115ed854b071aa5e74cec61dc02a27e9404142b70035b2a22",
      "transactionIndex": "0x16",
      "blockHash": "0xfd9c730c950c91827a62ee368c21a5e9bee55a4012224b9a138b72ee6e2c3934",
      "blockNumber": "0x1fc47f1",
      "from": "0x7aF234d569aB6360693806D7e7f439Ec2114F93c",
      "to": "0xde538591834dd6e364833CA3937dfC8178a52fD9",
      "cumulativeGasUsed": "0x2aba6d",
      "gasUsed": "0x1d2df",
      "contractAddress": null,
      "logs": [],
      "status": "0x1",
      "logsBloom": "0x00000000000000000000000000000000000000000000000000000000000000000000000000000000000000000000000000000000000000000000000000000000000000000000000000000000000000000000000000000000000000000000000000000000000000000000000000000000000000000000000000000000000000000000000000000000000000000000000000000000000000000000000000000000000000000000000000000000000000000000000000000000000000000000000000000000000000000000000000000000000000000000000000000000000000000000000000000000000000000000000000000000000000000000000000000000",
      "type": "0x2",
      "effectiveGasPrice": "0x684ee1800"
    },
    {
      "transactionHash": "0xe9bad655294379c4bc4c8219c67dec8f1d1adf18574fb7ecb4f76a64270e76b1",
      "transactionIndex": "0x17",
      "blockHash": "0xfd9c730c950c91827a62ee368c21a5e9bee55a4012224b9a138b72ee6e2c3934",
      "blockNumber": "0x1fc47f1",
      "from": "0x7aF234d569aB6360693806D7e7f439Ec2114F93c",
      "to": "0xde538591834dd6e364833CA3937dfC8178a52fD9",
      "cumulativeGasUsed": "0x2c8d4c",
      "gasUsed": "0x1d2df",
      "contractAddress": null,
      "logs": [],
      "status": "0x1",
      "logsBloom": "0x00000000000000000000000000000000000000000000000000000000000000000000000000000000000000000000000000000000000000000000000000000000000000000000000000000000000000000000000000000000000000000000000000000000000000000000000000000000000000000000000000000000000000000000000000000000000000000000000000000000000000000000000000000000000000000000000000000000000000000000000000000000000000000000000000000000000000000000000000000000000000000000000000000000000000000000000000000000000000000000000000000000000000000000000000000000",
      "type": "0x2",
      "effectiveGasPrice": "0x684ee1800"
    },
    {
      "transactionHash": "0x041eda622b5096ac1ed6588d450c66a93f59b1504e68f8c2f6fe33d46f1d81cf",
      "transactionIndex": "0x18",
      "blockHash": "0xfd9c730c950c91827a62ee368c21a5e9bee55a4012224b9a138b72ee6e2c3934",
      "blockNumber": "0x1fc47f1",
      "from": "0x7aF234d569aB6360693806D7e7f439Ec2114F93c",
      "to": "0xde538591834dd6e364833CA3937dfC8178a52fD9",
      "cumulativeGasUsed": "0x2e602b",
      "gasUsed": "0x1d2df",
      "contractAddress": null,
      "logs": [],
      "status": "0x1",
      "logsBloom": "0x00000000000000000000000000000000000000000000000000000000000000000000000000000000000000000000000000000000000000000000000000000000000000000000000000000000000000000000000000000000000000000000000000000000000000000000000000000000000000000000000000000000000000000000000000000000000000000000000000000000000000000000000000000000000000000000000000000000000000000000000000000000000000000000000000000000000000000000000000000000000000000000000000000000000000000000000000000000000000000000000000000000000000000000000000000000",
      "type": "0x2",
      "effectiveGasPrice": "0x684ee1800"
    },
    {
      "transactionHash": "0x43dec62c3f68a5670408113f758f7edd6a5cd57194623367745c061a989c0ab5",
      "transactionIndex": "0x19",
      "blockHash": "0xfd9c730c950c91827a62ee368c21a5e9bee55a4012224b9a138b72ee6e2c3934",
      "blockNumber": "0x1fc47f1",
      "from": "0x7aF234d569aB6360693806D7e7f439Ec2114F93c",
      "to": "0xde538591834dd6e364833CA3937dfC8178a52fD9",
      "cumulativeGasUsed": "0x30330a",
      "gasUsed": "0x1d2df",
      "contractAddress": null,
      "logs": [],
      "status": "0x1",
      "logsBloom": "0x00000000000000000000000000000000000000000000000000000000000000000000000000000000000000000000000000000000000000000000000000000000000000000000000000000000000000000000000000000000000000000000000000000000000000000000000000000000000000000000000000000000000000000000000000000000000000000000000000000000000000000000000000000000000000000000000000000000000000000000000000000000000000000000000000000000000000000000000000000000000000000000000000000000000000000000000000000000000000000000000000000000000000000000000000000000",
      "type": "0x2",
      "effectiveGasPrice": "0x684ee1800"
    },
    {
      "transactionHash": "0xab16608efdd15d513ca0fcea1c6f4fdaa5875b6e70d337844b04c7f297041fa6",
      "transactionIndex": "0x1a",
      "blockHash": "0xfd9c730c950c91827a62ee368c21a5e9bee55a4012224b9a138b72ee6e2c3934",
      "blockNumber": "0x1fc47f1",
      "from": "0x7aF234d569aB6360693806D7e7f439Ec2114F93c",
      "to": "0xde538591834dd6e364833CA3937dfC8178a52fD9",
      "cumulativeGasUsed": "0x3205e9",
      "gasUsed": "0x1d2df",
      "contractAddress": null,
      "logs": [],
      "status": "0x1",
      "logsBloom": "0x00000000000000000000000000000000000000000000000000000000000000000000000000000000000000000000000000000000000000000000000000000000000000000000000000000000000000000000000000000000000000000000000000000000000000000000000000000000000000000000000000000000000000000000000000000000000000000000000000000000000000000000000000000000000000000000000000000000000000000000000000000000000000000000000000000000000000000000000000000000000000000000000000000000000000000000000000000000000000000000000000000000000000000000000000000000",
      "type": "0x2",
      "effectiveGasPrice": "0x684ee1800"
    },
    {
      "transactionHash": "0x125d1f4a6fad82fcddf53db08c0819b0b426eefc8bac367bca260356ef769085",
      "transactionIndex": "0x1b",
      "blockHash": "0xfd9c730c950c91827a62ee368c21a5e9bee55a4012224b9a138b72ee6e2c3934",
      "blockNumber": "0x1fc47f1",
      "from": "0x7aF234d569aB6360693806D7e7f439Ec2114F93c",
      "to": "0xde538591834dd6e364833CA3937dfC8178a52fD9",
      "cumulativeGasUsed": "0x33c003",
      "gasUsed": "0x1ba1a",
      "contractAddress": null,
      "logs": [],
      "status": "0x1",
      "logsBloom": "0x00000000000000000000000000000000000000000000000000000000000000000000000000000000000000000000000000000000000000000000000000000000000000000000000000000000000000000000000000000000000000000000000000000000000000000000000000000000000000000000000000000000000000000000000000000000000000000000000000000000000000000000000000000000000000000000000000000000000000000000000000000000000000000000000000000000000000000000000000000000000000000000000000000000000000000000000000000000000000000000000000000000000000000000000000000000",
      "type": "0x2",
      "effectiveGasPrice": "0x684ee1800"
    },
    {
      "transactionHash": "0x8bbf1b257dee3f1b37421b45f50953c5437ce3eca343673e31d0eabc200cad9a",
      "transactionIndex": "0x1c",
      "blockHash": "0xfd9c730c950c91827a62ee368c21a5e9bee55a4012224b9a138b72ee6e2c3934",
      "blockNumber": "0x1fc47f1",
      "from": "0x7aF234d569aB6360693806D7e7f439Ec2114F93c",
      "to": "0xde538591834dd6e364833CA3937dfC8178a52fD9",
      "cumulativeGasUsed": "0x353751",
      "gasUsed": "0x1774e",
      "contractAddress": null,
      "logs": [],
      "status": "0x1",
      "logsBloom": "0x00000000000000000000000000000000000000000000000000000000000000000000000000000000000000000000000000000000000000000000000000000000000000000000000000000000000000000000000000000000000000000000000000000000000000000000000000000000000000000000000000000000000000000000000000000000000000000000000000000000000000000000000000000000000000000000000000000000000000000000000000000000000000000000000000000000000000000000000000000000000000000000000000000000000000000000000000000000000000000000000000000000000000000000000000000000",
      "type": "0x2",
      "effectiveGasPrice": "0x684ee1800"
    }
  ],
  "libraries": [
    "src/library/OracleLib.sol:OracleLib:0xd026a971d3dbf3fe0bff93a096db291f0473d717"
  ],
  "pending": [],
  "returns": {
    "mainRouter": {
      "internal_type": "contract MainRouter",
      "value": "0xde538591834dd6e364833CA3937dfC8178a52fD9"
    }
  },
  "timestamp": 1716518786,
  "chain": 43113,
  "multi": false,
  "commit": "5617307"
}