{
  "transactions": [
    {
      "hash": "0xfd5748245d8446e3cbb8c2158191425b573b5d3ea03e7eb25120d54e9c2369ca",
      "transactionType": "CREATE",
      "contractName": "OracleLib",
      "contractAddress": "0x4DF4573F5e3Ea8134a96871Bd38ed129f5021a59",
      "function": null,
      "arguments": null,
      "transaction": {
        "type": "0x02",
        "from": "0x7af234d569ab6360693806d7e7f439ec2114f93c",
        "gas": "0x4cfd0",
        "data": "0x61036c61003a600b82828239805160001a60731461002d57634e487b7160e01b600052600060045260246000fd5b30600052607381538281f3fe73000000000000000000000000000000000000000030146080604052600436106100565760003560e01c8063115d30c51461005b5780632ba1c96a1461008157806347096f81146100cb578063f56f48f2146100e1575b600080fd5b61006e610069366004610270565b6100eb565b6040519081526020015b60405180910390f35b61009461008f366004610270565b61016c565b6040805169ffffffffffffffffffff968716815260208101959095528401929092526060830152909116608082015260a001610078565b61006e6100d9366004610270565b506201518090565b61006e6201518081565b600080826001600160a01b031663feaf968c6040518163ffffffff1660e01b815260040160a060405180830381865afa15801561012c573d6000803e3d6000fd5b505050506040513d601f19601f8201168201806040525081019061015091906102bf565b50935050505060008142610164919061030f565b949350505050565b6000806000806000806000806000808a6001600160a01b031663feaf968c6040518163ffffffff1660e01b815260040160a060405180830381865afa1580156101b9573d6000803e3d6000fd5b505050506040513d601f19601f820116820180604052508101906101dd91906102bf565b94509450945094509450816000148061020d57508469ffffffffffffffffffff168169ffffffffffffffffffff16105b1561022b57604051636250849d60e11b815260040160405180910390fd5b6000610237834261030f565b90506201518081111561025d57604051636250849d60e11b815260040160405180910390fd5b50939a9299509097509550909350915050565b60006020828403121561028257600080fd5b81356001600160a01b038116811461029957600080fd5b9392505050565b805169ffffffffffffffffffff811681146102ba57600080fd5b919050565b600080600080600060a086880312156102d757600080fd5b6102e0866102a0565b9450602086015193506040860151925060608601519150610303608087016102a0565b90509295509295909350565b8181038181111561033057634e487b7160e01b600052601160045260246000fd5b9291505056fea2646970667358221220db8d89078b29b21a9a1d66ccc3dc5e0ff44f77eb62470a5797cbc32fc32c3d2764736f6c63430008150033",
        "nonce": "0x122",
        "accessList": []
      },
      "additionalContracts": [],
      "isFixedGasLimit": false
    },
    {
      "hash": "0x4df54ca1720c4be2fa0ecf8e097800e670264a190627d381a5ee33b7be71b234",
      "transactionType": "CREATE",
      "contractName": "MainRouter",
      "contractAddress": "0x9b0cb6E1B1BbA871b2738f3CCd10eC5eCe8DaBa7",
      "function": null,
      "arguments": [
        "14767482510784806043",
        "0xF694E193200268f9a4868e4Aa017A0118C9a8177",
        "0xA9d587a00A31A52Ed70D6026794a8FC5E2F5dCb0",
        "0x66756e2d6176616c616e6368652d66756a692d31000000000000000000000000"
      ],
      "transaction": {
        "type": "0x02",
        "from": "0x7af234d569ab6360693806d7e7f439ec2114f93c",
        "gas": "0x54714d",
        "value": "0x0",
        "data": "0x61024060405261015960c081815290620048ec60e039600a9062000024908262000217565b50620493e06015553480156200003957600080fd5b5060405162004a4538038062004a458339810160408190526200005c9162000300565b818185853384826001600160a01b03811662000093576040516335fdcccd60e21b8152600060048201526024015b60405180910390fd5b6001600160a01b0390811660805290811660a0528116620000cb57604051631e4fbdf760e01b8152600060048201526024016200008a565b620000d68162000122565b5050600680546001600160a01b0390941668010000000000000000026001600160e01b03199094166001600160401b039092169190911792909217909155600755506200035f92505050565b600080546001600160a01b038381166001600160a01b0319831681178455604051919092169283917f8be0079c531659141344cd1fd0a4f28419497f9722a3daafe3b4186f6b6457e09190a35050565b634e487b7160e01b600052604160045260246000fd5b600181811c908216806200019d57607f821691505b602082108103620001be57634e487b7160e01b600052602260045260246000fd5b50919050565b601f8211156200021257600081815260208120601f850160051c81016020861015620001ed5750805b601f850160051c820191505b818110156200020e57828155600101620001f9565b5050505b505050565b81516001600160401b0381111562000233576200023362000172565b6200024b8162000244845462000188565b84620001c4565b602080601f8311600181146200028357600084156200026a5750858301515b600019600386901b1c1916600185901b1785556200020e565b600085815260208120601f198616915b82811015620002b45788860151825594840194600190910190840162000293565b5085821015620002d35787850151600019600388901b60f8161c191681555b5050505050600190811b01905550565b80516001600160a01b0381168114620002fb57600080fd5b919050565b600080600080608085870312156200031757600080fd5b84516001600160401b03811681146200032f57600080fd5b93506200033f60208601620002e3565b92506200034f60408601620002e3565b6060959095015193969295505050565b60805160a051614544620003a860003960008181610e050152612dbd015260008181610b39015281816110c8015281816116720152818161179f01526124c201526145446000f3fe6080604052600436106103dd5760003560e01c8063715018a6116101fd578063c8bc57b011610118578063e9197efe116100ab578063f2fde38b1161007a578063f2fde38b14610cf9578063f9ca2b0914610d19578063fa39355f14610d39578063ff1aea4a14610d59578063ff673dbc14610ac857600080fd5b8063e9197efe14610c86578063e986b13a14610ca6578063f172010d14610cc6578063f2be459914610ce657600080fd5b8063d1bccf08116100e7578063d1bccf0814610c08578063d348dd5014610c28578063db7bf55a14610c48578063de3d9fb714610c6857600080fd5b8063c8bc57b014610b7d578063c8ce7b4714610b9b578063ca0880cf14610bc8578063d02641a014610be857600080fd5b806398bec9d511610190578063afa293d41161015f578063afa293d414610b08578063b0f479a114610b2a578063c26f5b6e14610b5d578063c6b7ac3c1461074557600080fd5b806398bec9d514610a8a57806399d2545514610aa85780639ace5b8214610ac8578063ad7ea8aa14610ae857600080fd5b806385572ffb116101cc57806385572ffb146109da5780638d1f0afa146109fa5780638da5cb5b14610a335780639719501f14610a5157600080fd5b8063715018a61461095357806371cbfc981461096857806374625342146109885780637e72ffa6146109a857600080fd5b80633d91079b116102f8578063586d25cb1161028b578063628c97fc1161025a578063628c97fc1461087c578063644f1aa7146108b5578063649a05c1146108ea5780636a2f9536146108fd5780636aa673db1461091d57600080fd5b8063586d25cb146107fa5780635b0918751461081a5780635d9a2c481461083c5780636185328f1461085c57600080fd5b80634b52ffb0116102c75780634b52ffb01461077a5780634d69d9461461079a57806352d84c62146107ba578063554a221c146107da57600080fd5b80633d91079b146106a75780633ed4464b146106f8578063444810f21461074557806344b1aa5e1461076557600080fd5b80631a93d1c311610370578063326cb9171161033f578063326cb917146105db5780633395a79a146106425780633bf33346146106675780633c96b5ef1461068757600080fd5b80631a93d1c3146105495780631edebf0b1461057b5780632d682b561461059b5780632f881be7146105bb57600080fd5b80630ca76175116103ac5780630ca76175146104c7578063137a9acb146104e95780631572823c1461050957806318bd43c21461052957600080fd5b806301996e6f1461040e57806301f728841461044357806301ffc9a71461047157806309fef9d91461049157600080fd5b3661040957336000908152601460205260408120805434929061040190849061351f565b925050819055005b600080fd5b34801561041a57600080fd5b5061042e610429366004613547565b610d79565b60405190151581526020015b60405180910390f35b34801561044f57600080fd5b5061046361045e366004613564565b610d94565b60405190815260200161043a565b34801561047d57600080fd5b5061042e61048c366004613586565b610dc4565b34801561049d57600080fd5b506104636104ac366004613547565b6001600160a01b03166000908152600e602052604090205490565b3480156104d357600080fd5b506104e76104e23660046136bd565b610dfa565b005b3480156104f557600080fd5b50610463610504366004613547565b610e7e565b34801561051557600080fd5b506104e761052436600461375e565b610ec6565b34801561053557600080fd5b506104e761054436600461378a565b610f2c565b34801561055557600080fd5b50600854600160401b900463ffffffff1660405163ffffffff909116815260200161043a565b34801561058757600080fd5b506104e76105963660046137cb565b610f6a565b3480156105a757600080fd5b506104636105b6366004613547565b610f95565b3480156105c757600080fd5b506104e76105d6366004613547565b610fc7565b3480156105e757600080fd5b5061062a6105f63660046137e8565b6001600160401b039190911660009081526012602090815260408083206001600160a01b0394851684529091529020541690565b6040516001600160a01b03909116815260200161043a565b34801561064e57600080fd5b50600654600160401b90046001600160a01b031661062a565b34801561067357600080fd5b506104e7610682366004613821565b610ff1565b34801561069357600080fd5b506104636106a2366004613872565b611031565b3480156106b357600080fd5b5061042e6106c23660046137e8565b6001600160401b03821660009081526010602090815260408083206001600160a01b038516845290915290205460ff1692915050565b34801561070457600080fd5b50610732610713366004613547565b6001600160a01b03166000908152600d602052604090205461ffff1690565b60405161ffff909116815260200161043a565b34801561075157600080fd5b506104636107603660046138a3565b61115c565b34801561077157600080fd5b50600754610463565b34801561078657600080fd5b506104e76107953660046138d1565b61118f565b3480156107a657600080fd5b506104636107b5366004613547565b6111c2565b3480156107c657600080fd5b506104e76107d53660046138ef565b611221565b3480156107e657600080fd5b506104636107f5366004613915565b611254565b34801561080657600080fd5b5061042e610815366004613547565b61128a565b34801561082657600080fd5b5061082f61129e565b60405161043a919061392e565b34801561084857600080fd5b506104e761085736600461375e565b61134d565b34801561086857600080fd5b5061046361087736600461397b565b611380565b34801561088857600080fd5b5061042e6108973660046137cb565b6001600160401b031660009081526003602052604090205460ff1690565b3480156108c157600080fd5b506108d56108d03660046138a3565b6113a8565b6040805192835260208301919091520161043a565b6104e76108f8366004613872565b6113ca565b34801561090957600080fd5b5061046361091836600461397b565b6115ce565b34801561092957600080fd5b50610463610938366004613547565b6001600160a01b031660009081526014602052604090205490565b34801561095f57600080fd5b506104e761160d565b34801561097457600080fd5b50610463610983366004613547565b611621565b34801561099457600080fd5b506104e76109a3366004613547565b61163d565b3480156109b457600080fd5b506006546001600160401b03165b6040516001600160401b03909116815260200161043a565b3480156109e657600080fd5b506104e76109f53660046139a7565b611667565b348015610a0657600080fd5b5061042e610a153660046137cb565b6001600160401b031660009081526004602052604090205460ff1690565b348015610a3f57600080fd5b506000546001600160a01b031661062a565b348015610a5d57600080fd5b5061042e610a6c366004613547565b6001600160a01b031660009081526005602052604090205460ff1690565b348015610a9657600080fd5b50600c546001600160a01b031661062a565b348015610ab457600080fd5b506104e7610ac33660046139e1565b6116c6565b348015610ad457600080fd5b50610463610ae3366004613a15565b6116da565b348015610af457600080fd5b50610463610b03366004613a60565b611718565b348015610b1457600080fd5b50610b1d611830565b60405161043a9190613ae0565b348015610b3657600080fd5b507f000000000000000000000000000000000000000000000000000000000000000061062a565b348015610b6957600080fd5b50610463610b78366004613a15565b6118c2565b348015610b8957600080fd5b50600b546001600160a01b031661062a565b348015610ba757600080fd5b50610bbb610bb63660046137cb565b6118d4565b60405161043a9190613af3565b348015610bd457600080fd5b506104e7610be3366004613915565b6119c5565b348015610bf457600080fd5b50610463610c03366004613547565b6119d2565b348015610c1457600080fd5b50610463610c23366004613a60565b611a9a565b348015610c3457600080fd5b506104e7610c433660046137e8565b611bc9565b348015610c5457600080fd5b50610463610c633660046138a3565b611cac565b348015610c7457600080fd5b506008546001600160401b03166109c2565b348015610c9257600080fd5b506104e7610ca1366004613b34565b611d21565b348015610cb257600080fd5b506104e7610cc1366004613bb8565b611d66565b348015610cd257600080fd5b506108d5610ce1366004613547565b611e4e565b6104e7610cf4366004613a60565b611e6c565b348015610d0557600080fd5b506104e7610d14366004613547565b611e9d565b348015610d2557600080fd5b50610463610d34366004613547565b611ed8565b348015610d4557600080fd5b50610463610d54366004613be8565b611f11565b348015610d6557600080fd5b50610463610d74366004613547565b612071565b6000670de0b6b3a7640000610d8d83610f95565b1192915050565b600081600003610da75750600019610dbe565b610dbb83836804563918244f4000006115ce565b90505b92915050565b60006001600160e01b031982166385572ffb60e01b1480610dbe57506001600160e01b031982166301ffc9a760e01b1492915050565b336001600160a01b037f00000000000000000000000000000000000000000000000000000000000000001614610e435760405163c6829f8360e01b815260040160405180910390fd5b610e4e8383836120c8565b60405183907f85e1543bf2f84fe80c6badbce3648c8539ad1df4d2b3d822938ca0538be727e690600090a2505050565b6001600160a01b0381166000908152600e6020908152604080832054600d909252822054610eb3916107f59161ffff16613c6f565b610dbe906803860e639d8064000061351f565b610ece612179565b6001600160401b0382166000908152600360205260409020805460ff19168215801591909117909155610f1457610f0f60016001600160401b0384166121a6565b505050565b610f0f60016001600160401b0384166121b2565b5050565b600c5433906001600160a01b03168114610f5957604051631eb49d6d60e11b815260040160405180910390fd5b610f648484846121be565b50505050565b610f72612179565b6008805467ffffffffffffffff19166001600160401b0392909216919091179055565b600080610fa183610e7e565b9050600080610faf85611e4e565b91509150610fbe828285611380565b95945050505050565b610fcf612179565b600b80546001600160a01b0319166001600160a01b0392909216919091179055565b600b5433906001600160a01b0316811461101e57604051631eb49d6d60e11b815260040160405180910390fd5b61102a8585858561224d565b5050505050565b6006546000906001600160401b0380871691160361105157506000611154565b604080513360208201526001600160a01b03851681830152606080820185905282518083039091018152608082019092526000916110949183919060a001613c98565b604051602081830303815290604052905060006110b6868360006015546122f9565b6040516320487ded60e01b81529091507f0000000000000000000000000000000000000000000000000000000000000000906000906001600160a01b038316906320487ded9061110c908c908790600401613ccf565b602060405180830381865afa158015611129573d6000803e3d6000fd5b505050506040513d601f19601f8201168201806040525081019061114d9190613da8565b9450505050505b949350505050565b6001600160a01b03821660009081526013602090815260408083206001600160401b038516845290915290205492915050565b611197612179565b6001600160a01b03919091166000908152600560205260409020805460ff1916911515919091179055565b60006001816111d08261241b565b905060005b8161ffff168110156112195760006111ed8483612425565b90506111f9868261115c565b611203908661351f565b945050808061121190613dc1565b9150506111d5565b505050919050565b611229612179565b6008805463ffffffff909216600160401b026bffffffff000000000000000019909216919091179055565b60006103e8826112766803860e639d80640000680410d586a20a4c0000613c6f565b6112809190613dda565b610dbe9190613e07565b6000670de0b6b3a7640000610d8d83611621565b606060006112ac600161241b565b90506000816001600160401b038111156112c8576112c86135b0565b6040519080825280602002602001820160405280156112f1578160200160208202803683370190505b50905060005b828110156113465761130a600182612425565b82828151811061131c5761131c613e1b565b6001600160401b03909216602092830291909101909101528061133e81613dc1565b9150506112f7565b5092915050565b611355612179565b6001600160401b03919091166000908152600460205260409020805460ff1916911515919091179055565b60008260000361139357506000196113a1565b61139e8484846115ce565b90505b9392505050565b6000806113b58484611cac565b91506113c1848461115c565b90509250929050565b6001600160401b03841660009081526010602090815260408083206001600160a01b03861684529091529020548490839060ff1661142857818160405163b34279bf60e01b815260040161141f929190613e31565b60405180910390fd5b826000036114495760405163532c969f60e11b815260040160405180910390fd5b336000908152601460205260408120805434929061146890849061351f565b9091555050336000908152600f602090815260408083206001600160401b038a16845282528083206001600160a01b0388168452909152812080548592906114b1908490613c6f565b909155506114c090503361128a565b6114dd5760405163317416e560e11b815260040160405180910390fd5b6006546001600160401b0380881691160361155f57604051630e6dfcd560e01b81523360048201526001600160a01b03858116602483015260448201859052861690630e6dfcd590606401600060405180830381600087803b15801561154257600080fd5b505af1158015611556573d6000803e3d6000fd5b505050506115c6565b604080513360208201526001600160a01b03861681830152606080820186905282518083039091018152608082019092526000916115a29183919060a001613c98565b60405160208183030381529060405290506115c33388886000898987612431565b50505b505050505050565b600068056bc75e2d631000006115e48386613dda565b6115ee9190613e07565b905082611603670de0b6b3a764000083613dda565b61139e9190613e07565b611615612179565b61161f6000612708565b565b600080600061162f84611e4e565b915091506111548282610d94565b611645612179565b600c80546001600160a01b0319166001600160a01b0392909216919091179055565b336001600160a01b037f000000000000000000000000000000000000000000000000000000000000000016146116b2576040516335fdcccd60e21b815233600482015260240161141f565b6116c36116be82613f09565b612758565b50565b6116ce612179565b600a610f288282614035565b6001600160a01b038084166000908152600f602090815260408083206001600160401b03871684528252808320938516835292905220549392505050565b6006546000906001600160401b03808616911603611738575060006113a1565b604080513360208201528082018490528151808203830181526060820190925260009161176b9160019190608001613c98565b6040516020818303038152906040529050600061178d858360006015546122f9565b6040516320487ded60e01b81529091507f0000000000000000000000000000000000000000000000000000000000000000906000906001600160a01b038316906320487ded906117e3908b908790600401613ccf565b602060405180830381865afa158015611800573d6000803e3d6000fd5b505050506040513d601f19601f820116820180604052508101906118249190613da8565b98975050505050505050565b6060600a805461183f90613fb5565b80601f016020809104026020016040519081016040528092919081815260200182805461186b90613fb5565b80156118b85780601f1061188d576101008083540402835291602001916118b8565b820191906000526020600020905b81548152906001019060200180831161189b57829003601f168201915b5050505050905090565b600061139e8383610c238787876116da565b6001600160401b0381166000908152601160205260408120606091906118f99061241b565b6001600160401b03811115611910576119106135b0565b604051908082528060200260200182016040528015611939578160200160208202803683370190505b50905060005b6001600160401b03841660009081526011602052604090206119609061241b565b811015611346576001600160401b03841660009081526011602052604090206119899082612425565b82828151811061199b5761199b613e1b565b6001600160a01b0390921660209283029190910190910152806119bd81613dc1565b91505061193f565b6119cd612179565b601555565b6000806012816119e3600182612425565b6001600160401b03168152602080820192909252604090810160009081206001600160a01b03878116835293528181205491516315d0e4b560e11b815291909216600482018190529250734df4573f5e3ea8134a96871bd38ed129f5021a5990632ba1c96a9060240160a060405180830381865af4158015611a69573d6000803e3d6000fd5b505050506040513d601f19601f82011682018060405250810190611a8d919061410e565b5091979650505050505050565b6001600160401b03831660009081526010602090815260408083206001600160a01b03861684529091528120548490849060ff16611aef57818160405163b34279bf60e01b815260040161141f929190613e31565b6001600160401b03861660009081526012602090815260408083206001600160a01b03898116855292528083205490516315d0e4b560e11b81529116600482018190529190734df4573f5e3ea8134a96871bd38ed129f5021a5990632ba1c96a9060240160a060405180830381865af4158015611b70573d6000803e3d6000fd5b505050506040513d601f19601f82011682018060405250810190611b94919061410e565b505050915050670de0b6b3a7640000866402540be40083611bb59190613dda565b611bbf9190613dda565b6118249190613e07565b611bd1612179565b6001600160401b03821660009081526010602090815260408083206001600160a01b03851684529091529020548290829060ff16611c2657818160405163b34279bf60e01b815260040161141f929190613e31565b6001600160401b03841660008181526010602090815260408083206001600160a01b03881684528252808320805460ff191690559282526011905220611c6c908461291c565b5050506001600160401b0390911660009081526012602090815260408083206001600160a01b0390941683529290522080546001600160a01b0319169055565b6001600160401b038116600090815260116020526040812081611cce8261241b565b905060005b8161ffff16811015611d18576000611ceb8483612425565b9050611cf88787836118c2565b611d02908661351f565b9450508080611d1090613dc1565b915050611cd3565b50505092915050565b600b5433906001600160a01b03168114611d4e57604051631eb49d6d60e11b815260040160405180910390fd5b611d5a8888888861224d565b6115c384848a85612931565b611d6e612179565b6001600160401b03831660009081526010602090815260408083206001600160a01b038616845290915290205460ff1615611dc0578282604051635b764d5760e01b815260040161141f929190613e31565b6001600160401b03831660008181526010602090815260408083206001600160a01b03871684528252808320805460ff191660011790559282526011905220611e099083612a94565b506001600160401b039290921660009081526012602090815260408083206001600160a01b039485168452909152902080546001600160a01b03191691909216179055565b600080611e5a83612071565b9150611e65836111c2565b9050915091565b3360009081526014602052604081208054349290611e8b90849061351f565b90915550610f0f905083833384612931565b611ea5612179565b6001600160a01b038116611ecf57604051631e4fbdf760e01b81526000600482015260240161141f565b6116c381612708565b600080611ee483610e7e565b90506000611ef184612071565b905068056bc75e2d63100000611f078383613dda565b6111549190613e07565b6000611f546040805160e0810190915280600081526020016000815260200160008152602001606081526020016060815260200160608152602001606081525090565b611ff1600a8054611f6490613fb5565b80601f0160208091040260200160405190810160405280929190818152602001828054611f9090613fb5565b8015611fdd5780601f10611fb257610100808354040283529160200191611fdd565b820191906000526020600020905b815481529060010190602001808311611fc057829003601f168201915b505050505082612aa990919063ffffffff16565b821561200b5761200b612004848661415e565b8290612ab6565b61203b61201782612ae0565b6008546007546001600160401b03821691600160401b900463ffffffff1690612db8565b600081815260096020526040902080546001600160a01b0319166001600160a01b03979097169690961790955550929392505050565b600060018161207f8261241b565b905060005b8161ffff1681101561121957600061209c8483612425565b90506120a88682611cac565b6120b2908661351f565b94505080806120c090613dc1565b915050612084565b60008381526009602052604081205483516001600160a01b039091169190156120f7576120f4846141d1565b90505b61ffff811615612129576001600160a01b0382166000908152600d60205260409020805461ffff191661ffff83161790555b8061ffff1685836001600160a01b03167f403bdb10ed8dc83f54ba14d3110235f19bfe4f00550a91eda66c81c9c47c9efe878760405161216a9291906141f5565b60405180910390a45050505050565b6000546001600160a01b0316331461161f5760405163118cdaa760e01b815233600482015260240161141f565b6000610dbb8383612e8a565b6000610dbb8383612ed9565b6001600160a01b03831660009081526013602090815260408083206001600160401b0386168452909152812080548392906121fa908490613c6f565b90915550506040518181526001600160401b038316906001600160a01b038516907ffc9381a94a7dfa48ef1e0101b90a651637dc1dde1dfc766ae2e94db9193814489060200160405180910390a3505050565b6001600160a01b038085166000908152600f602090815260408083206001600160401b038816845282528083209386168352929052908120805483929061229590849061351f565b92505081905550816001600160a01b0316836001600160401b0316856001600160a01b03167fa61751a812949bef861391695e3c0ff1e7d4a33cb2afd76e49d1ce2feef41bc9846040516122eb91815260200190565b60405180910390a450505050565b6123346040518060a0016040528060608152602001606081526020016060815260200160006001600160a01b03168152602001606081525090565b6040805160a081019091526001600160a01b03861660c08201528060e0810160408051808303601f1901815291815290825260208083018890528151600080825291810183529290910191906123ac565b60408051808201909152600080825260208201528152602001906001900390816123855790505b508152602001846001600160a01b0316815260200161241060405180602001604052808681525060408051915160248084019190915281518084039091018152604490920190526020810180516001600160e01b03166397a657c960e01b17905290565b905295945050505050565b6000610dbe825490565b6000610dbb8383612fcc565b6001600160401b038616600090815260036020526040812054879060ff1661247757604051630a503cdb60e01b81526001600160401b038216600482015260240161141f565b866001600160a01b03811661249f5760405163502ffa3f60e11b815260040160405180910390fd5b60006124b0898660006015546122f9565b6040516320487ded60e01b81529091507f0000000000000000000000000000000000000000000000000000000000000000906000906001600160a01b038316906320487ded90612506908f908790600401613ccf565b602060405180830381865afa158015612523573d6000803e3d6000fd5b505050506040513d601f19601f820116820180604052508101906125479190613da8565b6001600160a01b038e166000908152601460205260409020549091508111156125a8576001600160a01b038d166000908152601460205260409081902054905163d44547cd60e01b815260048101919091526024810182905260440161141f565b816001600160a01b03166396f4e9f9828e866040518463ffffffff1660e01b81526004016125d7929190613ccf565b60206040518083038185885af11580156125f5573d6000803e3d6000fd5b50505050506040513d601f19601f8201168201806040525081019061261a9190613da8565b955060008a600181111561263057612630613c82565b0361269157886001600160a01b03168c6001600160401b03168e6001600160a01b03167fa4a5196b9663ea82d0c7a1554b5b9cb8d7aa3bf0a56e43a0abd169e47cb817ef8b60405161268491815260200190565b60405180910390a46126f8565b60018a60018111156126a5576126a5613c82565b036126f8578b6001600160401b03168d6001600160a01b03167fbee4f42ec19ab812d347ca0b11a0e518e9f4d1c671f7f4df8b093f2bd5dea0df8a6040516126ef91815260200190565b60405180910390a35b5050505050979650505050505050565b600080546001600160a01b038381166001600160a01b0319831681178455604051919092169283917f8be0079c531659141344cd1fd0a4f28419497f9722a3daafe3b4186f6b6457e09190a35050565b80602001518160400151806020019051810190612775919061421a565b6001600160401b03821660009081526004602052604090205460ff166127b9576040516326bfad9160e21b81526001600160401b038316600482015260240161141f565b6001600160a01b03811660009081526005602052604090205460ff166127fd576040516338c08ef960e11b81526001600160a01b038216600482015260240161141f565b60008084606001518060200190518101906128189190614237565b60208701519193509150600083600281111561283657612836613c82565b0361286e5760008060008480602001905181019061285491906142c7565b9250925092506128668385848461224d565b5050506115c6565b600183600281111561288257612882613c82565b036128b4576000808380602001905181019061289e919061430a565b915091506128ad8284836121be565b50506115c6565b60028360028111156128c8576128c8613c82565b036115c657600080600080600080878060200190518101906128ea9190614338565b9550955095509550955095506129028688878761224d565b61290e83838884612931565b505050505050505050505050565b6000610dbb836001600160a01b038416612ed9565b806000036129525760405163532c969f60e11b815260040160405180910390fd5b6001600160a01b03821660009081526013602090815260408083206001600160401b03881684529091528120805483929061298e90849061351f565b9091555061299d905082610d79565b6129ba57604051635296a20960e11b815260040160405180910390fd5b6006546001600160401b03808616911603612a36576040516340c10f1960e01b81526001600160a01b038381166004830152602482018390528416906340c10f1990604401600060405180830381600087803b158015612a1957600080fd5b505af1158015612a2d573d6000803e3d6000fd5b50505050610f64565b604080516001600160a01b038416602082015280820183905281518082038301815260608201909252600091612a729160019190608001613c98565b60405160208183030381529060405290506115c6838686600160008787612431565b6000610dbb836001600160a01b038416612e8a565b610f288260008084612ff6565b8051600003612ad85760405163fe936cb760e01b815260040160405180910390fd5b60a090910152565b60606000612aef610100613074565b9050612b286040518060400160405280600c81526020016b31b7b232a637b1b0ba34b7b760a11b8152508261309590919063ffffffff16565b8251612b46906002811115612b3f57612b3f613c82565b82906130ae565b6040805180820190915260088152676c616e677561676560c01b6020820152612b70908290613095565b6040830151612b87908015612b3f57612b3f613c82565b604080518082019091526006815265736f7572636560d01b6020820152612baf908290613095565b6060830151612bbf908290613095565b60a08301515115612c53576040805180820190915260048152636172677360e01b6020820152612bf0908290613095565b612bf9816130e7565b60005b8360a0015151811015612c4957612c398460a001518281518110612c2257612c22613e1b565b60200260200101518361309590919063ffffffff16565b612c4281613dc1565b9050612bfc565b50612c538161310b565b60808301515115612d1757600083602001516002811115612c7657612c76613c82565b03612c945760405163a80d31f760e01b815260040160405180910390fd5b60408051808201909152600f81526e39b2b1b932ba39a637b1b0ba34b7b760891b6020820152612cc5908290613095565b612cde83602001516002811115612b3f57612b3f613c82565b6040805180820190915260078152667365637265747360c81b6020820152612d07908290613095565b6080830151612d17908290613129565b60c08301515115612db05760408051808201909152600981526862797465734172677360b81b6020820152612d4d908290613095565b612d56816130e7565b60005b8360c0015151811015612da657612d968460c001518281518110612d7f57612d7f613e1b565b60200260200101518361312990919063ffffffff16565b612d9f81613dc1565b9050612d59565b50612db08161310b565b515192915050565b6000807f00000000000000000000000000000000000000000000000000000000000000006001600160a01b031663461d27628688600188886040518663ffffffff1660e01b8152600401612e109594939291906143ab565b6020604051808303816000875af1158015612e2f573d6000803e3d6000fd5b505050506040513d601f19601f82011682018060405250810190612e539190613da8565b60405190915081907f1131472297a800fee664d1d89cfa8f7676ff07189ecc53f80bbb5f4969099db890600090a295945050505050565b6000818152600183016020526040812054612ed157508154600181810184556000848152602080822090930184905584548482528286019093526040902091909155610dbe565b506000610dbe565b60008181526001830160205260408120548015612fc2576000612efd600183613c6f565b8554909150600090612f1190600190613c6f565b9050808214612f76576000866000018281548110612f3157612f31613e1b565b9060005260206000200154905080876000018481548110612f5457612f54613e1b565b6000918252602080832090910192909255918252600188019052604090208390555b8554869080612f8757612f876143f4565b600190038181906000526020600020016000905590558560010160008681526020019081526020016000206000905560019350505050610dbe565b6000915050610dbe565b6000826000018281548110612fe357612fe3613e1b565b9060005260206000200154905092915050565b8051600003613018576040516322ce3edd60e01b815260040160405180910390fd5b8383600281111561302b5761302b613c82565b9081600281111561303e5761303e613c82565b9052506040840182801561305457613054613c82565b9081801561306457613064613c82565b9052506060909301929092525050565b61307c6134d4565b80516130889083613136565b5060006020820152919050565b6130a282600383516131ad565b8151610f0f90826132c6565b81516130bb9060c26132e7565b50610f2882826040516020016130d391815260200190565b604051602081830303815290604052613129565b6130f2816004613350565b600181602001818151613105919061351f565b90525050565b613116816007613350565b6001816020018181516131059190613c6f565b6130a282600283516131ad565b60408051808201909152606081526000602082015261315660208361440a565b1561317e5761316660208361440a565b613171906020613c6f565b61317b908361351f565b91505b6020808401839052604051808552600081529081840101818110156131a257600080fd5b604052509192915050565b6017816001600160401b0316116131d3578251610f649060e0600585901b1683176132e7565b60ff816001600160401b0316116132135782516131fb906018611fe0600586901b16176132e7565b508251610f64906001600160401b0383166001613367565b61ffff816001600160401b03161161325457825161323c906019611fe0600586901b16176132e7565b508251610f64906001600160401b0383166002613367565b63ffffffff816001600160401b03161161329757825161327f90601a611fe0600586901b16176132e7565b508251610f64906001600160401b0383166004613367565b82516132ae90601b611fe0600586901b16176132e7565b508251610f64906001600160401b0383166008613367565b604080518082019091526060815260006020820152610dbb838384516133ec565b604080518082019091526060815260006020820152825151600061330c82600161351f565b90508460200151821061332d5761332d85613328836002613dda565b6134bd565b8451602083820101858153508051821115613346578181525b5093949350505050565b8151610f0f90601f611fe0600585901b16176132e7565b604080518082019091526060815260006020820152835151600061338b828561351f565b905085602001518111156133a8576133a886613328836002613dda565b600060016133b886610100614502565b6133c29190613c6f565b905086518281018783198251161781525080518311156133e0578281525b50959695505050505050565b604080518082019091526060815260006020820152825182111561340f57600080fd5b835151600061341e848361351f565b9050856020015181111561343b5761343b86613328836002613dda565b855180518382016020019160009180851115613455578482525b505050602086015b60208610613495578051825261347460208361351f565b915061348160208261351f565b905061348e602087613c6f565b955061345d565b51815160001960208890036101000a0190811690199190911617905250849150509392505050565b81516134c98383613136565b50610f6483826132c6565b60405180604001604052806134fc604051806040016040528060608152602001600081525090565b8152602001600081525090565b634e487b7160e01b600052601160045260246000fd5b80820180821115610dbe57610dbe613509565b6001600160a01b03811681146116c357600080fd5b60006020828403121561355957600080fd5b81356113a181613532565b6000806040838503121561357757600080fd5b50508035926020909101359150565b60006020828403121561359857600080fd5b81356001600160e01b0319811681146113a157600080fd5b634e487b7160e01b600052604160045260246000fd5b604080519081016001600160401b03811182821017156135e8576135e86135b0565b60405290565b60405160a081016001600160401b03811182821017156135e8576135e86135b0565b604051601f8201601f191681016001600160401b0381118282101715613638576136386135b0565b604052919050565b60006001600160401b03821115613659576136596135b0565b50601f01601f191660200190565b600082601f83011261367857600080fd5b813561368b61368682613640565b613610565b8181528460208386010111156136a057600080fd5b816020850160208301376000918101602001919091529392505050565b6000806000606084860312156136d257600080fd5b8335925060208401356001600160401b03808211156136f057600080fd5b6136fc87838801613667565b9350604086013591508082111561371257600080fd5b5061371f86828701613667565b9150509250925092565b6001600160401b03811681146116c357600080fd5b803561374981613729565b919050565b8035801515811461374957600080fd5b6000806040838503121561377157600080fd5b823561377c81613729565b91506113c16020840161374e565b60008060006060848603121561379f57600080fd5b83356137aa81613532565b925060208401356137ba81613729565b929592945050506040919091013590565b6000602082840312156137dd57600080fd5b81356113a181613729565b600080604083850312156137fb57600080fd5b823561380681613729565b9150602083013561381681613532565b809150509250929050565b6000806000806080858703121561383757600080fd5b843561384281613532565b9350602085013561385281613729565b9250604085013561386281613532565b9396929550929360600135925050565b6000806000806080858703121561388857600080fd5b843561389381613729565b9350602085013561385281613532565b600080604083850312156138b657600080fd5b82356138c181613532565b9150602083013561381681613729565b600080604083850312156138e457600080fd5b823561377c81613532565b60006020828403121561390157600080fd5b813563ffffffff811681146113a157600080fd5b60006020828403121561392757600080fd5b5035919050565b6020808252825182820181905260009190848201906040850190845b8181101561396f5783516001600160401b03168352928401929184019160010161394a565b50909695505050505050565b60008060006060848603121561399057600080fd5b505081359360208301359350604090920135919050565b6000602082840312156139b957600080fd5b81356001600160401b038111156139cf57600080fd5b820160a081850312156113a157600080fd5b6000602082840312156139f357600080fd5b81356001600160401b03811115613a0957600080fd5b61115484828501613667565b600080600060608486031215613a2a57600080fd5b8335613a3581613532565b92506020840135613a4581613729565b91506040840135613a5581613532565b809150509250925092565b600080600060608486031215613a7557600080fd5b8335613a8081613729565b925060208401356137ba81613532565b60005b83811015613aab578181015183820152602001613a93565b50506000910152565b60008151808452613acc816020860160208601613a90565b601f01601f19169290920160200192915050565b602081526000610dbb6020830184613ab4565b6020808252825182820181905260009190848201906040850190845b8181101561396f5783516001600160a01b031683529284019291840191600101613b0f565b600080600080600080600060e0888a031215613b4f57600080fd5b8735613b5a81613532565b96506020880135613b6a81613729565b95506040880135613b7a81613532565b9450606088013593506080880135613b9181613729565b925060a0880135613ba181613532565b8092505060c0880135905092959891949750929550565b600080600060608486031215613bcd57600080fd5b8335613bd881613729565b92506020840135613a4581613532565b600080600060408486031215613bfd57600080fd5b8335613c0881613532565b925060208401356001600160401b0380821115613c2457600080fd5b818601915086601f830112613c3857600080fd5b813581811115613c4757600080fd5b8760208260051b8501011115613c5c57600080fd5b6020830194508093505050509250925092565b81810381811115610dbe57610dbe613509565b634e487b7160e01b600052602160045260246000fd5b600060028410613cb857634e487b7160e01b600052602160045260246000fd5b8382526040602083015261139e6040830184613ab4565b600060406001600160401b038516835260208181850152845160a083860152613cfb60e0860182613ab4565b905081860151603f1980878403016060880152613d188383613ab4565b88860151888203830160808a01528051808352908601945060009350908501905b80841015613d6b57845180516001600160a01b0316835286015186830152938501936001939093019290860190613d39565b5060608901516001600160a01b031660a08901526080890151888203830160c08a01529550613d9a8187613ab4565b9a9950505050505050505050565b600060208284031215613dba57600080fd5b5051919050565b600060018201613dd357613dd3613509565b5060010190565b8082028115828204841417610dbe57610dbe613509565b634e487b7160e01b600052601260045260246000fd5b600082613e1657613e16613df1565b500490565b634e487b7160e01b600052603260045260246000fd5b6001600160401b039290921682526001600160a01b0316602082015260400190565b60006001600160401b03821115613e6c57613e6c6135b0565b5060051b60200190565b600082601f830112613e8757600080fd5b81356020613e9761368683613e53565b82815260069290921b84018101918181019086841115613eb657600080fd5b8286015b84811015613efe5760408189031215613ed35760008081fd5b613edb6135c6565b8135613ee681613532565b81528185013585820152835291830191604001613eba565b509695505050505050565b600060a08236031215613f1b57600080fd5b613f236135ee565b82358152613f336020840161373e565b602082015260408301356001600160401b0380821115613f5257600080fd5b613f5e36838701613667565b60408401526060850135915080821115613f7757600080fd5b613f8336838701613667565b60608401526080850135915080821115613f9c57600080fd5b50613fa936828601613e76565b60808301525092915050565b600181811c90821680613fc957607f821691505b602082108103613fe957634e487b7160e01b600052602260045260246000fd5b50919050565b601f821115610f0f57600081815260208120601f850160051c810160208610156140165750805b601f850160051c820191505b818110156115c657828155600101614022565b81516001600160401b0381111561404e5761404e6135b0565b6140628161405c8454613fb5565b84613fef565b602080601f831160018114614097576000841561407f5750858301515b600019600386901b1c1916600185901b1785556115c6565b600085815260208120601f198616915b828110156140c6578886015182559484019460019091019084016140a7565b50858210156140e45787850151600019600388901b60f8161c191681555b5050505050600190811b01905550565b805169ffffffffffffffffffff8116811461374957600080fd5b600080600080600060a0868803121561412657600080fd5b61412f866140f4565b9450602086015193506040860151925060608601519150614152608087016140f4565b90509295509295909350565b600061416c61368684613e53565b80848252602080830192508560051b85013681111561418a57600080fd5b855b818110156141c55780356001600160401b038111156141ab5760008081fd5b6141b736828a01613667565b86525093820193820161418c565b50919695505050505050565b80516020808301519190811015613fe95760001960209190910360031b1b16919050565b6040815260006142086040830185613ab4565b8281036020840152610fbe8185613ab4565b60006020828403121561422c57600080fd5b81516113a181613532565b6000806040838503121561424a57600080fd5b82516003811061425957600080fd5b60208401519092506001600160401b0381111561427557600080fd5b8301601f8101851361428657600080fd5b805161429461368682613640565b8181528660208385010111156142a957600080fd5b6142ba826020830160208601613a90565b8093505050509250929050565b6000806000606084860312156142dc57600080fd5b83516142e781613532565b60208501519093506142f881613532565b80925050604084015190509250925092565b6000806040838503121561431d57600080fd5b825161432881613532565b6020939093015192949293505050565b60008060008060008060c0878903121561435157600080fd5b865161435c81613532565b602088015190965061436d81613532565b60408801516060890151919650945061438581613729565b608088015190935061439681613532565b8092505060a087015190509295509295509295565b6001600160401b038616815260a0602082015260006143cd60a0830187613ab4565b61ffff9590951660408301525063ffffffff92909216606083015260809091015292915050565b634e487b7160e01b600052603160045260246000fd5b60008261441957614419613df1565b500690565b600181815b8085111561445957816000190482111561443f5761443f613509565b8085161561444c57918102915b93841c9390800290614423565b509250929050565b60008261447057506001610dbe565b8161447d57506000610dbe565b8160018114614493576002811461449d576144b9565b6001915050610dbe565b60ff8411156144ae576144ae613509565b50506001821b610dbe565b5060208310610133831016604e8410600b84101617156144dc575081810a610dbe565b6144e6838361441e565b80600019048211156144fa576144fa613509565b029392505050565b6000610dbb838361446156fea2646970667358221220d699ac98ee6b98ddd67ef9a42ee53d3230360e0d1bb14a638409488ec990829164736f6c63430008150033636f6e73742075736572203d20617267735b305d3b636f6e737420617069526573706f6e7365203d2061776169742046756e6374696f6e732e6d616b654874747052657175657374287b75726c3a206068747470733a2f2f626574612e6372656470726f746f636f6c2e636f6d2f6170692f73636f72652f616464726573732f247b757365727d2f602c686561646572733a207b27417574686f72697a6174696f6e273a2060546f6b656e2033373335343038333664313239366638633466373932656164653738646464383961623133643230607d2c7d293b69662028617069526573706f6e73652e6572726f7229207b7468726f77204572726f72282752657175657374206661696c656427293b7d636f6e7374207b2064617461207d203d20617069526573706f6e73653b72657475726e2046756e6374696f6e732e656e636f646555696e7432353628646174612e76616c7565293b000000000000000000000000000000000000000000000000ccf0a31a221f3c9b000000000000000000000000f694e193200268f9a4868e4aa017a0118c9a8177000000000000000000000000a9d587a00a31a52ed70d6026794a8fc5e2f5dcb066756e2d6176616c616e6368652d66756a692d31000000000000000000000000",
        "nonce": "0x123",
        "accessList": []
      },
      "additionalContracts": [],
      "isFixedGasLimit": false
    },
    {
      "hash": "0xe82f518446049b4851cb546b76813242f5fc43020edf1c38f5a02ab56cbe8c8c",
      "transactionType": "CREATE",
      "contractName": null,
      "contractAddress": "0x7ce9F877C2BE59c2DDef0E66153C7cD33933f5a4",
      "function": null,
      "arguments": null,
      "transaction": {
        "type": "0x02",
        "from": "0x7af234d569ab6360693806d7e7f439ec2114f93c",
        "gas": "0x1b947b",
        "value": "0x0",
        "data": "0x6080604052600c805462ff00ff19166201000117905534801561002157600080fd5b506117c2806100316000396000f3fe608060405234801561001057600080fd5b50600436106104ee5760003560e01c8063a25b465e1161028e578063cafa15c711610167578063ead95284116100d9578063f8cda8ca11610092578063f8cda8ca14610ab0578063f8f095dc146104f3578063f9b001e014610ab8578063fa0caf1714610584578063fc2a53d514610ad3578063fcb9a218146106ba57600080fd5b8063ead9528414610a44578063ef597f7414610569578063f15650c814610a4d578063f1b09fc114610a68578063f8caf99b14610a72578063f8ccbf4714610a8d57600080fd5b8063d806acb71161012b578063d806acb7146109c9578063d863fcc81461054e578063d8dab1f7146109e4578063d8ea3d24146109ff578063da960d2714610a1a578063de88e91514610a3557600080fd5b8063cafa15c714610786578063cb62cfbd14610978578063cdf686df14610750578063d043bf9c14610993578063d7a6ead8146109ae57600080fd5b8063afed4d8c11610200578063c0406226116101c4578063c040622614610959578063c132cda714610961578063c1cbe74914610970578063c43b6b00146107a1578063c714ff6f14610786578063c95a43691461054e57600080fd5b8063afed4d8c1461090c578063b5b3774f1461091b578063be00843014610923578063bf1344db146104f3578063bfaa4aad1461093e57600080fd5b8063abe914dd11610252578063abe914dd146108b3578063ac659d1d1461054e578063acec0a69146108ce578063acfaf34d146108fa578063ad9f2db214610904578063ae0267091461066957600080fd5b8063a25b465e14610873578063a25bc4791461088e578063a8823052146106ba578063a95d644314610786578063aa8269201461089857600080fd5b80635556b32a116103cb5780636c619a081161033d5780638f3f1561116102f65780638f3f15611461056957806393ea3c79146106ba57806394c96545146107a15780639acd72a1146107bc578063a06e2b1f1461083d578063a08fc3221461085857600080fd5b80636c619a08146105ba5780636ece094914610807578063709e1ba614610750578063811db7621461082257806386862bc5146104f3578063888117e21461058457600080fd5b806360f0ff8e1161038f57806360f0ff8e14610786578063616258fc146107a157806363c7b800146107a1578063669ac34f146107bc57806367fee281146107d757806368567e71146107ec57600080fd5b80635556b32a146106ff578063573864c41461071a5780635878d5fe146107355780635932b5db146107505780635ba1a94e1461076b57600080fd5b80632b7076a0116104645780633e49331d116104285780633e49331d1461068457806343ac40df1461069f57806349377bd7146106ba5780634c47f188146106d55780634d1b22f81461058457806350e2f236146106e457600080fd5b80632b7076a0146106095780632f3a3fa61461062457806331e8ae5d1461063f57806334f594361461065a5780633cad3fc11461066957600080fd5b806313643d0a116104b657806313643d0a1461059f57806315d99206146105ba57806316b3d6fa146105d55780631fab59fb146105e457806329da731e146105ee5780632b4c59db1461056957600080fd5b8063033130f2146104f357806304c4a7b31461052b5780630c4c526c1461054e5780630f011ded146105695780630ff859d614610584575b600080fd5b61050e7332b8f75d2ac926a0a906f24df3e8fe2ba17bd80a81565b6040516001600160a01b0390911681526020015b60405180910390f35b61053562aa36a781565b60405167ffffffffffffffff9091168152602001610522565b61050e73dff5ba9fcff83ce455e45de7572b6259b0e7d7de81565b61050e73f6905f1e4ad86f8c3a1ebfca3e04a9e4d2addd0d81565b61050e7375b86d7b224fd88f785bb5fac5e261d9efde304781565b61050e73114a20a10b43d4115e5aeef7345a1a71d2a60c5781565b61050e737898accc83587c3c55116c5230c17a6cd9c71bad81565b610535678f90b8876dee653881565b61053562066eee81565b61050e73b093e4d95d5089f62e5c7a63387c62e1364de03181565b61050e73b3718e52781f9fc1c0b72a2966c2616e6d962a1c81565b61050e733001d62ebc86ab3a4ef91afed766bb70182e251c81565b61050e73dad6d150ff45c7ed553c259ed55dd0c3aa797c5c81565b61053567e1f4423f1bf587cd81565b61050e7334c4c526902d88a3aa98db8a9b802603eb1e347081565b61050e737b219f57a8e9c7303204af681e9fa69d17ef626f81565b61050e73f543b7445b6f2699634e2863e98d65946dd1d5c581565b61050e739a24bd7833859d2364ead5a4af4b16799693df1281565b61053567ccf0a31a221f3c9b81565b61050e730bf3de8c5d3e8a2b34d2beeb17abfcebaf363a5981565b61050e730804bfec3ef24bc6ca0eb399d108cc0313d86d9c81565b61050e7331cf013a08c6ac228c94551d535d5bafe19c602a81565b61050e73aca1ea8547e247a3125da273b16c17badc4f081281565b61050e7309484f76b7376d53fc5e4f52fabee3fe3aac525c81565b61050e739124d3b5dfd072bb2d6cf3e3a59430d2a5d8a55d81565b61050e73e257e2a67407144c918acad5e11c2582f77c0b1a81565b61050e73244ec7f5753b2fc10d0c2baab1ab55850e73a3ab81565b61050e732165936af562a3901e6d60c18b2e4a2b09898be681565b6107df610adb565b60405161052291906116fc565b61050e7340ec0db2c2f63f76aebefe1a4d88c895a2b3071981565b61050e73d28f8454873ceb4de41d537257044510c3a1d61681565b61050e73a7809a6373ee66a99269933395a311c01ed6d02381565b61050e732a9c5afb0d0e4bab2bcdae109ec4b0c4be15a16581565b61050e736cc55345982d82e3e6dc704a64cdbd58a6421b7a81565b61050e73dd36fb413b4470ab5ce67f975c6a2b192e6f84ba81565b61053562aa37dc81565b61050e739c32fcb86bf0f4a1a8921a9fe46de3198bb884b281565b61050e7365ae0010421814b1303778bc82a599f63028d89981565b6108ec7366756e2d6176616c616e6368652d66756a692d3160601b81565b604051908152602001610522565b6105356201388281565b6107df610ca0565b61053567de41ba4fc9d91ad981565b6107df610e65565b61050e73620476fe1bc36a37530b416b7d658024d5966b0881565b61050e7386d67c3d38d2bcee722e601025c25a575021c6ea81565b6107df61102a565b6105356748810ec3e431431f81565b6107df6110ab565b61050e73597fa805bfc550d1d5bba46425fc92555352aa5181565b61050e73492e85cd024a271c4f19d8b7e9050ef2bbfedcca81565b61050e7351353bfb9fb8bae6d70b896401937c64e96bacb981565b61050e7331a4ae750c0e8d477dd39af3662f93e69021aa5081565b61050e73f694e193200268f9a4868e4aa017a0118c9a817781565b61050e73d3b06cebf099ce7da4accf578aaebfdbd6e88a9381565b61050e7384c3baaf6566ec0d022d7db67bcf86c501007d5981565b61053567304611b6affba76a81565b61053561a86981565b61050e73170dd06d42000d32f325a102214b1304daa757eb81565b61053562014a3481565b61050e73a9d587a00a31a52ed70d6026794a8fc5e2f5dcb081565b600c54610aa09062010000900460ff1681565b6040519015158152602001610522565b6107df611270565b61050e734aa3b1639d45cb98a67790b8509e47bd7aa16d2a81565b6107df611435565b610ae36115fa565b604080516060808201835267e1f4423f1bf587cd80835273f6905f1e4ad86f8c3a1ebfca3e04a9e4d2addd0d6020808501919091527331cf013a08c6ac228c94551d535d5bafe19c602a8486015292855283518083018552818152739a24bd7833859d2364ead5a4af4b16799693df12818501527386d67c3d38d2bcee722e601025c25a575021c6ea81860152858401528351808301855281815273244ec7f5753b2fc10d0c2baab1ab55850e73a3ab818501527334c4c526902d88a3aa98db8a9b802603eb1e3470818601819052868601919091528451808401865282815273e257e2a67407144c918acad5e11c2582f77c0b1a818601528086019190915285830152835180830185528181527332b8f75d2ac926a0a906f24df3e8fe2ba17bd80a81850152737b219f57a8e9c7303204af681e9fa69d17ef626f8186015260808601528351808301855281815273dff5ba9fcff83ce455e45de7572b6259b0e7d7de81850152737898accc83587c3c55116c5230c17a6cd9c71bad81860181905260a0870191909152845192830185529082527375b86d7b224fd88f785bb5fac5e261d9efde3047928201929092529182015260c082015290565b610ca86115fa565b6040805160608082018352678f90b8876dee653880835273f6905f1e4ad86f8c3a1ebfca3e04a9e4d2addd0d6020808501919091527331cf013a08c6ac228c94551d535d5bafe19c602a8486015292855283518083018552818152739a24bd7833859d2364ead5a4af4b16799693df12818501527386d67c3d38d2bcee722e601025c25a575021c6ea81860152858401528351808301855281815273244ec7f5753b2fc10d0c2baab1ab55850e73a3ab818501527334c4c526902d88a3aa98db8a9b802603eb1e3470818601819052868601919091528451808401865282815273e257e2a67407144c918acad5e11c2582f77c0b1a818601528086019190915285830152835180830185528181527332b8f75d2ac926a0a906f24df3e8fe2ba17bd80a81850152737b219f57a8e9c7303204af681e9fa69d17ef626f8186015260808601528351808301855281815273dff5ba9fcff83ce455e45de7572b6259b0e7d7de81850152737898accc83587c3c55116c5230c17a6cd9c71bad81860181905260a0870191909152845192830185529082527375b86d7b224fd88f785bb5fac5e261d9efde3047928201929092529182015260c082015290565b610e6d6115fa565b604080516060808201835267de41ba4fc9d91ad9808352734aa3b1639d45cb98a67790b8509e47bd7aa16d2a6020808501919091527331cf013a08c6ac228c94551d535d5bafe19c602a8486015292855283518083018552818152739124d3b5dfd072bb2d6cf3e3a59430d2a5d8a55d818501527386d67c3d38d2bcee722e601025c25a575021c6ea8186015285840152835180830185528181527331a4ae750c0e8d477dd39af3662f93e69021aa50818501527334c4c526902d88a3aa98db8a9b802603eb1e3470818601819052868601919091528451808401865282815273dd36fb413b4470ab5ce67f975c6a2b192e6f84ba8186015280860191909152858301528351808301855281815273492e85cd024a271c4f19d8b7e9050ef2bbfedcca81850152737b219f57a8e9c7303204af681e9fa69d17ef626f818601526080860152835180830185528181527365ae0010421814b1303778bc82a599f63028d89981850152737898accc83587c3c55116c5230c17a6cd9c71bad81860181905260a08701919091528451928301855290825273b3718e52781f9fc1c0b72a2966c2616e6d962a1c928201929092529182015260c082015290565b6110326115fa565b61a86819460161104957611044611435565b905090565b62aa36a619460161105c57611044610e65565b62066eed19460161106f57611044611270565b6201388119460161108257611044610adb565b62014a3319460161109557611044610ca0565b62aa37db1946016110a8576110446110ab565b90565b6110b36115fa565b60408051606080820183526748810ec3e431431f80835273f6905f1e4ad86f8c3a1ebfca3e04a9e4d2addd0d6020808501919091527331cf013a08c6ac228c94551d535d5bafe19c602a8486015292855283518083018552818152739a24bd7833859d2364ead5a4af4b16799693df12818501527386d67c3d38d2bcee722e601025c25a575021c6ea81860152858401528351808301855281815273244ec7f5753b2fc10d0c2baab1ab55850e73a3ab818501527334c4c526902d88a3aa98db8a9b802603eb1e3470818601819052868601919091528451808401865282815273e257e2a67407144c918acad5e11c2582f77c0b1a818601528086019190915285830152835180830185528181527332b8f75d2ac926a0a906f24df3e8fe2ba17bd80a81850152737b219f57a8e9c7303204af681e9fa69d17ef626f8186015260808601528351808301855281815273dff5ba9fcff83ce455e45de7572b6259b0e7d7de81850152737898accc83587c3c55116c5230c17a6cd9c71bad81860181905260a0870191909152845192830185529082527375b86d7b224fd88f785bb5fac5e261d9efde3047928201929092529182015260c082015290565b6112786115fa565b604080516060808201835267304611b6affba76a80835273f6905f1e4ad86f8c3a1ebfca3e04a9e4d2addd0d6020808501919091527331cf013a08c6ac228c94551d535d5bafe19c602a8486015292855283518083018552818152739a24bd7833859d2364ead5a4af4b16799693df12818501527386d67c3d38d2bcee722e601025c25a575021c6ea81860152858401528351808301855281815273244ec7f5753b2fc10d0c2baab1ab55850e73a3ab818501527334c4c526902d88a3aa98db8a9b802603eb1e3470818601819052868601919091528451808401865282815273e257e2a67407144c918acad5e11c2582f77c0b1a818601528086019190915285830152835180830185528181527332b8f75d2ac926a0a906f24df3e8fe2ba17bd80a81850152737b219f57a8e9c7303204af681e9fa69d17ef626f8186015260808601528351808301855281815273dff5ba9fcff83ce455e45de7572b6259b0e7d7de81850152737898accc83587c3c55116c5230c17a6cd9c71bad81860181905260a0870191909152845192830185529082527375b86d7b224fd88f785bb5fac5e261d9efde3047928201929092529182015260c082015290565b61143d6115fa565b604080516060808201835267ccf0a31a221f3c9b808352730804bfec3ef24bc6ca0eb399d108cc0313d86d9c6020808501919091527331cf013a08c6ac228c94551d535d5bafe19c602a84860152928552835180830185528181527351353bfb9fb8bae6d70b896401937c64e96bacb9818501527386d67c3d38d2bcee722e601025c25a575021c6ea818601528584015283518083018552818152733001d62ebc86ab3a4ef91afed766bb70182e251c818501527334c4c526902d88a3aa98db8a9b802603eb1e3470818601819052868601919091528451808401865282815273d28f8454873ceb4de41d537257044510c3a1d61681860152808601919091528583015283518083018552818152736cc55345982d82e3e6dc704a64cdbd58a6421b7a81850152737b219f57a8e9c7303204af681e9fa69d17ef626f8186015260808601528351808301855281815273620476fe1bc36a37530b416b7d658024d5966b0881850152737898accc83587c3c55116c5230c17a6cd9c71bad81860181905260a08701919091528451928301855290825273aca1ea8547e247a3125da273b16c17badc4f0812928201929092529182015260c082015290565b6040805161014081018252600060e08201818152610100830182905261012083018290528252825160608082018552828252602080830184905282860184905280850192909252845180820186528381528083018490528086018490528486015284518082018652838152808301849052808601849052818501528451808201865283815280830184905280860184905260808501528451808201865283815280830184905280860184905260a0850152845190810185528281529081018290529283015260c081019190915290565b805167ffffffffffffffff1682526020808201516001600160a01b039081169184019190915260409182015116910152565b60006102a0820190506117108284516116ca565b602083015161172260608401826116ca565b50604083015161173560c08401826116ca565b5060608301516117496101208401826116ca565b50608083015161175d6101808401826116ca565b5060a08301516117716101e08401826116ca565b5060c08301516117856102408401826116ca565b509291505056fea2646970667358221220b3e3ed43955e77530aa3e7b698485b5b89f588822988daf6fe5cbbf1e882109464736f6c63430008150033",
        "nonce": "0x124",
        "accessList": []
      },
      "additionalContracts": [],
      "isFixedGasLimit": false
    },
    {
      "hash": "0x7a33e593b516f5b848849841589950c5b7f665d40be66e2bf74438a9822f2c53",
      "transactionType": "CALL",
      "contractName": "MainRouter",
      "contractAddress": "0x9b0cb6E1B1BbA871b2738f3CCd10eC5eCe8DaBa7",
      "function": "addAllowedToken(uint64,address,address)",
      "arguments": [
        "14767482510784806043",
        "0x0804BfEC3ef24bc6CA0eb399D108CC0313d86d9c",
        "0x31CF013A08c6Ac228C94551d535d5BAfE19c602a"
      ],
      "transaction": {
        "type": "0x02",
        "from": "0x7af234d569ab6360693806d7e7f439ec2114f93c",
        "to": "0x9b0cb6e1b1bba871b2738f3ccd10ec5ece8daba7",
        "gas": "0x30c13",
        "value": "0x0",
        "data": "0xe986b13a000000000000000000000000000000000000000000000000ccf0a31a221f3c9b0000000000000000000000000804bfec3ef24bc6ca0eb399d108cc0313d86d9c00000000000000000000000031cf013a08c6ac228c94551d535d5bafe19c602a",
        "nonce": "0x125",
        "accessList": []
      },
      "additionalContracts": [],
      "isFixedGasLimit": false
    },
    {
      "hash": "0x173e5f9974a143cf1adb9c38b1c82bfc19589f2cf690af6c7dde1ec218b82f06",
      "transactionType": "CALL",
      "contractName": "MainRouter",
      "contractAddress": "0x9b0cb6E1B1BbA871b2738f3CCd10eC5eCe8DaBa7",
      "function": "addAllowedToken(uint64,address,address)",
      "arguments": [
        "14767482510784806043",
        "0x51353BFb9fB8baE6d70b896401937C64E96BAcB9",
        "0x86d67c3D38D2bCeE722E601025C25a575021c6EA"
      ],
      "transaction": {
        "type": "0x02",
        "from": "0x7af234d569ab6360693806d7e7f439ec2114f93c",
        "to": "0x9b0cb6e1b1bba871b2738f3ccd10ec5ece8daba7",
        "gas": "0x28479",
        "value": "0x0",
        "data": "0xe986b13a000000000000000000000000000000000000000000000000ccf0a31a221f3c9b00000000000000000000000051353bfb9fb8bae6d70b896401937c64e96bacb900000000000000000000000086d67c3d38d2bcee722e601025c25a575021c6ea",
        "nonce": "0x126",
        "accessList": []
      },
      "additionalContracts": [],
      "isFixedGasLimit": false
    },
    {
      "hash": "0xccc9e40ef3a00621068375d68d7eff99419af50e5dc7e36b7192900718441fae",
      "transactionType": "CALL",
      "contractName": "MainRouter",
      "contractAddress": "0x9b0cb6E1B1BbA871b2738f3CCd10eC5eCe8DaBa7",
      "function": "addAllowedToken(uint64,address,address)",
      "arguments": [
        "14767482510784806043",
        "0x3001d62eBc86ab3A4eF91aFed766BB70182e251c",
        "0x34C4c526902d88a3Aa98DB8a9b802603EB1E3470"
      ],
      "transaction": {
        "type": "0x02",
        "from": "0x7af234d569ab6360693806d7e7f439ec2114f93c",
        "to": "0x9b0cb6e1b1bba871b2738f3ccd10ec5ece8daba7",
        "gas": "0x28479",
        "value": "0x0",
        "data": "0xe986b13a000000000000000000000000000000000000000000000000ccf0a31a221f3c9b0000000000000000000000003001d62ebc86ab3a4ef91afed766bb70182e251c00000000000000000000000034c4c526902d88a3aa98db8a9b802603eb1e3470",
        "nonce": "0x127",
        "accessList": []
      },
      "additionalContracts": [],
      "isFixedGasLimit": false
    },
    {
      "hash": "0xcb0a91e63d6d786981e53f8ea939a5d73c320ea249d4972a7a8468bd235d5ec4",
      "transactionType": "CALL",
      "contractName": "MainRouter",
      "contractAddress": "0x9b0cb6E1B1BbA871b2738f3CCd10eC5eCe8DaBa7",
      "function": "addAllowedToken(uint64,address,address)",
      "arguments": [
        "14767482510784806043",
        "0xD28f8454873CEb4de41d537257044510c3A1d616",
        "0x34C4c526902d88a3Aa98DB8a9b802603EB1E3470"
      ],
      "transaction": {
        "type": "0x02",
        "from": "0x7af234d569ab6360693806d7e7f439ec2114f93c",
        "to": "0x9b0cb6e1b1bba871b2738f3ccd10ec5ece8daba7",
        "gas": "0x28479",
        "value": "0x0",
        "data": "0xe986b13a000000000000000000000000000000000000000000000000ccf0a31a221f3c9b000000000000000000000000d28f8454873ceb4de41d537257044510c3a1d61600000000000000000000000034c4c526902d88a3aa98db8a9b802603eb1e3470",
        "nonce": "0x128",
        "accessList": []
      },
      "additionalContracts": [],
      "isFixedGasLimit": false
    },
    {
      "hash": "0xfb9e3af39fe140252e143f7320cfb0aefae8a53c7e83ee36cb5eba543a2139cc",
      "transactionType": "CALL",
      "contractName": "MainRouter",
      "contractAddress": "0x9b0cb6E1B1BbA871b2738f3CCd10eC5eCe8DaBa7",
      "function": "addAllowedToken(uint64,address,address)",
      "arguments": [
        "14767482510784806043",
        "0x6cC55345982d82e3E6dC704a64cdbD58a6421b7A",
        "0x7b219F57a8e9C7303204Af681e9fA69d17ef626f"
      ],
      "transaction": {
        "type": "0x02",
        "from": "0x7af234d569ab6360693806d7e7f439ec2114f93c",
        "to": "0x9b0cb6e1b1bba871b2738f3ccd10ec5ece8daba7",
        "gas": "0x28479",
        "value": "0x0",
        "data": "0xe986b13a000000000000000000000000000000000000000000000000ccf0a31a221f3c9b0000000000000000000000006cc55345982d82e3e6dc704a64cdbd58a6421b7a0000000000000000000000007b219f57a8e9c7303204af681e9fa69d17ef626f",
        "nonce": "0x129",
        "accessList": []
      },
      "additionalContracts": [],
      "isFixedGasLimit": false
    },
    {
      "hash": "0xe66ae21b080fad67f0e33c12c27f250b914754c380cda11bdbb6fd7c3553fe52",
      "transactionType": "CALL",
      "contractName": "MainRouter",
      "contractAddress": "0x9b0cb6E1B1BbA871b2738f3CCd10eC5eCe8DaBa7",
      "function": "addAllowedToken(uint64,address,address)",
      "arguments": [
        "14767482510784806043",
        "0x620476fe1Bc36a37530b416B7d658024D5966b08",
        "0x7898AcCC83587C3C55116c5230C17a6Cd9C71bad"
      ],
      "transaction": {
        "type": "0x02",
        "from": "0x7af234d569ab6360693806d7e7f439ec2114f93c",
        "to": "0x9b0cb6e1b1bba871b2738f3ccd10ec5ece8daba7",
        "gas": "0x28479",
        "value": "0x0",
        "data": "0xe986b13a000000000000000000000000000000000000000000000000ccf0a31a221f3c9b000000000000000000000000620476fe1bc36a37530b416b7d658024d5966b080000000000000000000000007898accc83587c3c55116c5230c17a6cd9c71bad",
        "nonce": "0x12a",
        "accessList": []
      },
      "additionalContracts": [],
      "isFixedGasLimit": false
    },
    {
      "hash": "0x0221e75895efae35528c5ae0e71ee1eea11e89279438196921fe4f73c63802a3",
      "transactionType": "CALL",
      "contractName": "MainRouter",
      "contractAddress": "0x9b0cb6E1B1BbA871b2738f3CCd10eC5eCe8DaBa7",
      "function": "addAllowedToken(uint64,address,address)",
      "arguments": [
        "14767482510784806043",
        "0xAcA1eA8547E247a3125Da273b16C17Badc4f0812",
        "0x7898AcCC83587C3C55116c5230C17a6Cd9C71bad"
      ],
      "transaction": {
        "type": "0x02",
        "from": "0x7af234d569ab6360693806d7e7f439ec2114f93c",
        "to": "0x9b0cb6e1b1bba871b2738f3ccd10ec5ece8daba7",
        "gas": "0x28479",
        "value": "0x0",
        "data": "0xe986b13a000000000000000000000000000000000000000000000000ccf0a31a221f3c9b000000000000000000000000aca1ea8547e247a3125da273b16c17badc4f08120000000000000000000000007898accc83587c3c55116c5230c17a6cd9c71bad",
        "nonce": "0x12b",
        "accessList": []
      },
      "additionalContracts": [],
      "isFixedGasLimit": false
    },
    {
      "hash": "0xd2d863ee4e4381fe48db76efe44507db69d485ddf1ffaf7d656aa86b3ab58317",
      "transactionType": "CALL",
      "contractName": "MainRouter",
      "contractAddress": "0x9b0cb6E1B1BbA871b2738f3CCd10eC5eCe8DaBa7",
      "function": "addAllowedToken(uint64,address,address)",
      "arguments": [
        "16015286601757825753",
        "0x4aa3B1639d45Cb98a67790b8509E47bD7aa16D2A",
        "0x31CF013A08c6Ac228C94551d535d5BAfE19c602a"
      ],
      "transaction": {
        "type": "0x02",
        "from": "0x7af234d569ab6360693806d7e7f439ec2114f93c",
        "to": "0x9b0cb6e1b1bba871b2738f3ccd10ec5ece8daba7",
        "gas": "0x30c13",
        "value": "0x0",
        "data": "0xe986b13a000000000000000000000000000000000000000000000000de41ba4fc9d91ad90000000000000000000000004aa3b1639d45cb98a67790b8509e47bd7aa16d2a00000000000000000000000031cf013a08c6ac228c94551d535d5bafe19c602a",
        "nonce": "0x12c",
        "accessList": []
      },
      "additionalContracts": [],
      "isFixedGasLimit": false
    },
    {
      "hash": "0x53f7d01524c9228814de25eb890c6c685e2160174c46da458ee3e36c049c2c5b",
      "transactionType": "CALL",
      "contractName": "MainRouter",
      "contractAddress": "0x9b0cb6E1B1BbA871b2738f3CCd10eC5eCe8DaBa7",
      "function": "addAllowedToken(uint64,address,address)",
      "arguments": [
        "16015286601757825753",
        "0x9124d3b5DfD072bB2d6cf3e3A59430d2a5D8A55D",
        "0x86d67c3D38D2bCeE722E601025C25a575021c6EA"
      ],
      "transaction": {
        "type": "0x02",
        "from": "0x7af234d569ab6360693806d7e7f439ec2114f93c",
        "to": "0x9b0cb6e1b1bba871b2738f3ccd10ec5ece8daba7",
        "gas": "0x28479",
        "value": "0x0",
        "data": "0xe986b13a000000000000000000000000000000000000000000000000de41ba4fc9d91ad90000000000000000000000009124d3b5dfd072bb2d6cf3e3a59430d2a5d8a55d00000000000000000000000086d67c3d38d2bcee722e601025c25a575021c6ea",
        "nonce": "0x12d",
        "accessList": []
      },
      "additionalContracts": [],
      "isFixedGasLimit": false
    },
    {
      "hash": "0x6606105226d3a47b6b0d6c1710b28791c3be79340fa325aa5450768a93c176ec",
      "transactionType": "CALL",
      "contractName": "MainRouter",
      "contractAddress": "0x9b0cb6E1B1BbA871b2738f3CCd10eC5eCe8DaBa7",
      "function": "addAllowedToken(uint64,address,address)",
      "arguments": [
        "16015286601757825753",
        "0x31A4Ae750C0e8d477Dd39AF3662F93e69021AA50",
        "0x34C4c526902d88a3Aa98DB8a9b802603EB1E3470"
      ],
      "transaction": {
        "type": "0x02",
        "from": "0x7af234d569ab6360693806d7e7f439ec2114f93c",
        "to": "0x9b0cb6e1b1bba871b2738f3ccd10ec5ece8daba7",
        "gas": "0x28479",
        "value": "0x0",
        "data": "0xe986b13a000000000000000000000000000000000000000000000000de41ba4fc9d91ad900000000000000000000000031a4ae750c0e8d477dd39af3662f93e69021aa5000000000000000000000000034c4c526902d88a3aa98db8a9b802603eb1e3470",
        "nonce": "0x12e",
        "accessList": []
      },
      "additionalContracts": [],
      "isFixedGasLimit": false
    },
    {
      "hash": "0xbbe1c98cbf6bbb71578629bdbfed98f1a0bdc570f2612ea5260fb3845037d344",
      "transactionType": "CALL",
      "contractName": "MainRouter",
      "contractAddress": "0x9b0cb6E1B1BbA871b2738f3CCd10eC5eCe8DaBa7",
      "function": "addAllowedToken(uint64,address,address)",
      "arguments": [
        "16015286601757825753",
        "0xdd36FB413B4470ab5CE67F975c6A2B192e6F84ba",
        "0x34C4c526902d88a3Aa98DB8a9b802603EB1E3470"
      ],
      "transaction": {
        "type": "0x02",
        "from": "0x7af234d569ab6360693806d7e7f439ec2114f93c",
        "to": "0x9b0cb6e1b1bba871b2738f3ccd10ec5ece8daba7",
        "gas": "0x28479",
        "value": "0x0",
        "data": "0xe986b13a000000000000000000000000000000000000000000000000de41ba4fc9d91ad9000000000000000000000000dd36fb413b4470ab5ce67f975c6a2b192e6f84ba00000000000000000000000034c4c526902d88a3aa98db8a9b802603eb1e3470",
        "nonce": "0x12f",
        "accessList": []
      },
      "additionalContracts": [],
      "isFixedGasLimit": false
    },
    {
      "hash": "0x81ed3a2eba5d5cd29fdc1ae8d655dc3889c746d3e90519cb8f97fd2b62d0350c",
      "transactionType": "CALL",
      "contractName": "MainRouter",
      "contractAddress": "0x9b0cb6E1B1BbA871b2738f3CCd10eC5eCe8DaBa7",
      "function": "addAllowedToken(uint64,address,address)",
      "arguments": [
        "16015286601757825753",
        "0x492E85cD024A271C4F19d8B7E9050Ef2bbFeDcCA",
        "0x7b219F57a8e9C7303204Af681e9fA69d17ef626f"
      ],
      "transaction": {
        "type": "0x02",
        "from": "0x7af234d569ab6360693806d7e7f439ec2114f93c",
        "to": "0x9b0cb6e1b1bba871b2738f3ccd10ec5ece8daba7",
        "gas": "0x28479",
        "value": "0x0",
        "data": "0xe986b13a000000000000000000000000000000000000000000000000de41ba4fc9d91ad9000000000000000000000000492e85cd024a271c4f19d8b7e9050ef2bbfedcca0000000000000000000000007b219f57a8e9c7303204af681e9fa69d17ef626f",
        "nonce": "0x130",
        "accessList": []
      },
      "additionalContracts": [],
      "isFixedGasLimit": false
    },
    {
      "hash": "0xb0c38637d61aa691b784ec67cef6a2329ee718a0ea1c8100f159075d53d68328",
      "transactionType": "CALL",
      "contractName": "MainRouter",
      "contractAddress": "0x9b0cb6E1B1BbA871b2738f3CCd10eC5eCe8DaBa7",
      "function": "addAllowedToken(uint64,address,address)",
      "arguments": [
        "16015286601757825753",
        "0x65Ae0010421814B1303778Bc82a599f63028d899",
        "0x7898AcCC83587C3C55116c5230C17a6Cd9C71bad"
      ],
      "transaction": {
        "type": "0x02",
        "from": "0x7af234d569ab6360693806d7e7f439ec2114f93c",
        "to": "0x9b0cb6e1b1bba871b2738f3ccd10ec5ece8daba7",
        "gas": "0x2aa51",
        "value": "0x0",
        "data": "0xe986b13a000000000000000000000000000000000000000000000000de41ba4fc9d91ad900000000000000000000000065ae0010421814b1303778bc82a599f63028d8990000000000000000000000007898accc83587c3c55116c5230c17a6cd9c71bad",
        "nonce": "0x131",
        "accessList": []
      },
      "additionalContracts": [],
      "isFixedGasLimit": false
    },
    {
      "hash": "0xf87eb9e32efb006bb6d370549b357c78064f6805edbce2fbe2a698ad04efee44",
      "transactionType": "CALL",
      "contractName": "MainRouter",
      "contractAddress": "0x9b0cb6E1B1BbA871b2738f3CCd10eC5eCe8DaBa7",
      "function": "addAllowedToken(uint64,address,address)",
      "arguments": [
        "16015286601757825753",
        "0xB3718E52781F9Fc1C0b72A2966C2616E6d962a1C",
        "0x7898AcCC83587C3C55116c5230C17a6Cd9C71bad"
      ],
      "transaction": {
        "type": "0x02",
        "from": "0x7af234d569ab6360693806d7e7f439ec2114f93c",
        "to": "0x9b0cb6e1b1bba871b2738f3ccd10ec5ece8daba7",
        "gas": "0x28479",
        "value": "0x0",
        "data": "0xe986b13a000000000000000000000000000000000000000000000000de41ba4fc9d91ad9000000000000000000000000b3718e52781f9fc1c0b72a2966c2616e6d962a1c0000000000000000000000007898accc83587c3c55116c5230c17a6cd9c71bad",
        "nonce": "0x132",
        "accessList": []
      },
      "additionalContracts": [],
      "isFixedGasLimit": false
    },
    {
      "hash": "0x486fdbd2ec0d5d33dfec9b1ce64f29eb908e41f489da04f12ff246173b4f01ba",
      "transactionType": "CALL",
      "contractName": "MainRouter",
      "contractAddress": "0x9b0cb6E1B1BbA871b2738f3CCd10eC5eCe8DaBa7",
      "function": "addAllowedToken(uint64,address,address)",
      "arguments": [
        "16281711391670634445",
        "0xF6905F1E4ad86f8C3a1Ebfca3E04a9e4d2adDD0D",
        "0x31CF013A08c6Ac228C94551d535d5BAfE19c602a"
      ],
      "transaction": {
        "type": "0x02",
        "from": "0x7af234d569ab6360693806d7e7f439ec2114f93c",
        "to": "0x9b0cb6e1b1bba871b2738f3ccd10ec5ece8daba7",
        "gas": "0x30c13",
        "value": "0x0",
        "data": "0xe986b13a000000000000000000000000000000000000000000000000e1f4423f1bf587cd000000000000000000000000f6905f1e4ad86f8c3a1ebfca3e04a9e4d2addd0d00000000000000000000000031cf013a08c6ac228c94551d535d5bafe19c602a",
        "nonce": "0x133",
        "accessList": []
      },
      "additionalContracts": [],
      "isFixedGasLimit": false
    },
    {
      "hash": "0x6794fcdf6d2b751d03f4a443335995a876c48ac2cac1320c64cd06922b190d16",
      "transactionType": "CALL",
      "contractName": "MainRouter",
      "contractAddress": "0x9b0cb6E1B1BbA871b2738f3CCd10eC5eCe8DaBa7",
      "function": "addAllowedToken(uint64,address,address)",
      "arguments": [
        "16281711391670634445",
        "0x9a24BD7833859d2364EaD5A4aF4b16799693DF12",
        "0x86d67c3D38D2bCeE722E601025C25a575021c6EA"
      ],
      "transaction": {
        "type": "0x02",
        "from": "0x7af234d569ab6360693806d7e7f439ec2114f93c",
        "to": "0x9b0cb6e1b1bba871b2738f3ccd10ec5ece8daba7",
        "gas": "0x28479",
        "value": "0x0",
        "data": "0xe986b13a000000000000000000000000000000000000000000000000e1f4423f1bf587cd0000000000000000000000009a24bd7833859d2364ead5a4af4b16799693df1200000000000000000000000086d67c3d38d2bcee722e601025c25a575021c6ea",
        "nonce": "0x134",
        "accessList": []
      },
      "additionalContracts": [],
      "isFixedGasLimit": false
    },
    {
      "hash": "0x286b8a28c4728026f924cedb4b21390b9ba431fb08989f6f9421c5b30369538d",
      "transactionType": "CALL",
      "contractName": "MainRouter",
      "contractAddress": "0x9b0cb6E1B1BbA871b2738f3CCd10eC5eCe8DaBa7",
      "function": "addAllowedToken(uint64,address,address)",
      "arguments": [
        "16281711391670634445",
        "0x244ec7F5753b2Fc10d0C2bAaB1AB55850E73a3AB",
        "0x34C4c526902d88a3Aa98DB8a9b802603EB1E3470"
      ],
      "transaction": {
        "type": "0x02",
        "from": "0x7af234d569ab6360693806d7e7f439ec2114f93c",
        "to": "0x9b0cb6e1b1bba871b2738f3ccd10ec5ece8daba7",
        "gas": "0x28479",
        "value": "0x0",
        "data": "0xe986b13a000000000000000000000000000000000000000000000000e1f4423f1bf587cd000000000000000000000000244ec7f5753b2fc10d0c2baab1ab55850e73a3ab00000000000000000000000034c4c526902d88a3aa98db8a9b802603eb1e3470",
        "nonce": "0x135",
        "accessList": []
      },
      "additionalContracts": [],
      "isFixedGasLimit": false
    },
    {
      "hash": "0x68e90f43682728f5ff1f8f0c5df12b607bcecfefdc875633d9a1713757adc168",
      "transactionType": "CALL",
      "contractName": "MainRouter",
      "contractAddress": "0x9b0cb6E1B1BbA871b2738f3CCd10eC5eCe8DaBa7",
      "function": "addAllowedToken(uint64,address,address)",
      "arguments": [
        "16281711391670634445",
        "0xe257e2a67407144C918acaD5e11c2582F77c0B1a",
        "0x34C4c526902d88a3Aa98DB8a9b802603EB1E3470"
      ],
      "transaction": {
        "type": "0x02",
        "from": "0x7af234d569ab6360693806d7e7f439ec2114f93c",
        "to": "0x9b0cb6e1b1bba871b2738f3ccd10ec5ece8daba7",
        "gas": "0x28479",
        "value": "0x0",
        "data": "0xe986b13a000000000000000000000000000000000000000000000000e1f4423f1bf587cd000000000000000000000000e257e2a67407144c918acad5e11c2582f77c0b1a00000000000000000000000034c4c526902d88a3aa98db8a9b802603eb1e3470",
        "nonce": "0x136",
        "accessList": []
      },
      "additionalContracts": [],
      "isFixedGasLimit": false
    },
    {
      "hash": "0xfcabca0ca790a71a5a4b7666bab08b84a7878f7c9137df2076fedf97e6921400",
      "transactionType": "CALL",
      "contractName": "MainRouter",
      "contractAddress": "0x9b0cb6E1B1BbA871b2738f3CCd10eC5eCe8DaBa7",
      "function": "addAllowedToken(uint64,address,address)",
      "arguments": [
        "16281711391670634445",
        "0x32B8F75d2AC926a0a906F24df3e8Fe2bA17Bd80a",
        "0x7b219F57a8e9C7303204Af681e9fA69d17ef626f"
      ],
      "transaction": {
        "type": "0x02",
        "from": "0x7af234d569ab6360693806d7e7f439ec2114f93c",
        "to": "0x9b0cb6e1b1bba871b2738f3ccd10ec5ece8daba7",
        "gas": "0x28479",
        "value": "0x0",
        "data": "0xe986b13a000000000000000000000000000000000000000000000000e1f4423f1bf587cd00000000000000000000000032b8f75d2ac926a0a906f24df3e8fe2ba17bd80a0000000000000000000000007b219f57a8e9c7303204af681e9fa69d17ef626f",
        "nonce": "0x137",
        "accessList": []
      },
      "additionalContracts": [],
      "isFixedGasLimit": false
    },
    {
      "hash": "0xa4526b962b62d67c42f526fe2da07dfb5a9cd9dc90ad68c793beb6b70e4ffcb5",
      "transactionType": "CALL",
      "contractName": "MainRouter",
      "contractAddress": "0x9b0cb6E1B1BbA871b2738f3CCd10eC5eCe8DaBa7",
      "function": "addAllowedToken(uint64,address,address)",
      "arguments": [
        "16281711391670634445",
        "0xDFf5Ba9FCff83cE455e45De7572B6259b0E7D7dE",
        "0x7898AcCC83587C3C55116c5230C17a6Cd9C71bad"
      ],
      "transaction": {
        "type": "0x02",
        "from": "0x7af234d569ab6360693806d7e7f439ec2114f93c",
        "to": "0x9b0cb6e1b1bba871b2738f3ccd10ec5ece8daba7",
        "gas": "0x28479",
        "value": "0x0",
        "data": "0xe986b13a000000000000000000000000000000000000000000000000e1f4423f1bf587cd000000000000000000000000dff5ba9fcff83ce455e45de7572b6259b0e7d7de0000000000000000000000007898accc83587c3c55116c5230c17a6cd9c71bad",
        "nonce": "0x138",
        "accessList": []
      },
      "additionalContracts": [],
      "isFixedGasLimit": false
    },
    {
      "hash": "0xc7d3b1e0da9d5db362f1acdf08d661c1a6a0ffc531d8ab80b92bfd3a3cb2016c",
      "transactionType": "CALL",
      "contractName": "MainRouter",
      "contractAddress": "0x9b0cb6E1B1BbA871b2738f3CCd10eC5eCe8DaBa7",
      "function": "addAllowedToken(uint64,address,address)",
      "arguments": [
        "16281711391670634445",
        "0x75b86D7B224Fd88f785BB5FaC5e261D9EFde3047",
        "0x7898AcCC83587C3C55116c5230C17a6Cd9C71bad"
      ],
      "transaction": {
        "type": "0x02",
        "from": "0x7af234d569ab6360693806d7e7f439ec2114f93c",
        "to": "0x9b0cb6e1b1bba871b2738f3ccd10ec5ece8daba7",
        "gas": "0x28479",
        "value": "0x0",
        "data": "0xe986b13a000000000000000000000000000000000000000000000000e1f4423f1bf587cd00000000000000000000000075b86d7b224fd88f785bb5fac5e261d9efde30470000000000000000000000007898accc83587c3c55116c5230c17a6cd9c71bad",
        "nonce": "0x139",
        "accessList": []
      },
      "additionalContracts": [],
      "isFixedGasLimit": false
    },
    {
      "hash": "0x30afad324c6552cd38c5e71b57d55ea6658810b3087e23d2ea51b261f12e859d",
      "transactionType": "CALL",
      "contractName": "MainRouter",
      "contractAddress": "0x9b0cb6E1B1BbA871b2738f3CCd10eC5eCe8DaBa7",
      "function": "addAllowedToken(uint64,address,address)",
      "arguments": [
        "10344971235874465080",
        "0xF6905F1E4ad86f8C3a1Ebfca3E04a9e4d2adDD0D",
        "0x31CF013A08c6Ac228C94551d535d5BAfE19c602a"
      ],
      "transaction": {
        "type": "0x02",
        "from": "0x7af234d569ab6360693806d7e7f439ec2114f93c",
        "to": "0x9b0cb6e1b1bba871b2738f3ccd10ec5ece8daba7",
        "gas": "0x30c13",
        "value": "0x0",
        "data": "0xe986b13a0000000000000000000000000000000000000000000000008f90b8876dee6538000000000000000000000000f6905f1e4ad86f8c3a1ebfca3e04a9e4d2addd0d00000000000000000000000031cf013a08c6ac228c94551d535d5bafe19c602a",
        "nonce": "0x13a",
        "accessList": []
      },
      "additionalContracts": [],
      "isFixedGasLimit": false
    },
    {
      "hash": "0xd3d9aa21fd80645dcc8bddf0b3e24b2ecd6a0466d66e757be7fee688652d6cb3",
      "transactionType": "CALL",
      "contractName": "MainRouter",
      "contractAddress": "0x9b0cb6E1B1BbA871b2738f3CCd10eC5eCe8DaBa7",
      "function": "addAllowedToken(uint64,address,address)",
      "arguments": [
        "10344971235874465080",
        "0x9a24BD7833859d2364EaD5A4aF4b16799693DF12",
        "0x86d67c3D38D2bCeE722E601025C25a575021c6EA"
      ],
      "transaction": {
        "type": "0x02",
        "from": "0x7af234d569ab6360693806d7e7f439ec2114f93c",
        "to": "0x9b0cb6e1b1bba871b2738f3ccd10ec5ece8daba7",
        "gas": "0x28479",
        "value": "0x0",
        "data": "0xe986b13a0000000000000000000000000000000000000000000000008f90b8876dee65380000000000000000000000009a24bd7833859d2364ead5a4af4b16799693df1200000000000000000000000086d67c3d38d2bcee722e601025c25a575021c6ea",
        "nonce": "0x13b",
        "accessList": []
      },
      "additionalContracts": [],
      "isFixedGasLimit": false
    },
    {
      "hash": "0xd15a602e479779f887832b7517dad417a35893a1cbd78589482372d3d8b4b37b",
      "transactionType": "CALL",
      "contractName": "MainRouter",
      "contractAddress": "0x9b0cb6E1B1BbA871b2738f3CCd10eC5eCe8DaBa7",
      "function": "addAllowedToken(uint64,address,address)",
      "arguments": [
        "10344971235874465080",
        "0x244ec7F5753b2Fc10d0C2bAaB1AB55850E73a3AB",
        "0x34C4c526902d88a3Aa98DB8a9b802603EB1E3470"
      ],
      "transaction": {
        "type": "0x02",
        "from": "0x7af234d569ab6360693806d7e7f439ec2114f93c",
        "to": "0x9b0cb6e1b1bba871b2738f3ccd10ec5ece8daba7",
        "gas": "0x28479",
        "value": "0x0",
        "data": "0xe986b13a0000000000000000000000000000000000000000000000008f90b8876dee6538000000000000000000000000244ec7f5753b2fc10d0c2baab1ab55850e73a3ab00000000000000000000000034c4c526902d88a3aa98db8a9b802603eb1e3470",
        "nonce": "0x13c",
        "accessList": []
      },
      "additionalContracts": [],
      "isFixedGasLimit": false
    },
    {
      "hash": "0x1202ac83ccd9aba2617b70dd133ea7c49e50a113e897994d5305004f3b0d7b40",
      "transactionType": "CALL",
      "contractName": "MainRouter",
      "contractAddress": "0x9b0cb6E1B1BbA871b2738f3CCd10eC5eCe8DaBa7",
      "function": "addAllowedToken(uint64,address,address)",
      "arguments": [
        "10344971235874465080",
        "0xe257e2a67407144C918acaD5e11c2582F77c0B1a",
        "0x34C4c526902d88a3Aa98DB8a9b802603EB1E3470"
      ],
      "transaction": {
        "type": "0x02",
        "from": "0x7af234d569ab6360693806d7e7f439ec2114f93c",
        "to": "0x9b0cb6e1b1bba871b2738f3ccd10ec5ece8daba7",
        "gas": "0x28479",
        "value": "0x0",
        "data": "0xe986b13a0000000000000000000000000000000000000000000000008f90b8876dee6538000000000000000000000000e257e2a67407144c918acad5e11c2582f77c0b1a00000000000000000000000034c4c526902d88a3aa98db8a9b802603eb1e3470",
        "nonce": "0x13d",
        "accessList": []
      },
      "additionalContracts": [],
      "isFixedGasLimit": false
    },
    {
      "hash": "0x4b029d3ffb68018b0c2c251666d67b04e634790aaa2d265e199a104e938a964b",
      "transactionType": "CALL",
      "contractName": "MainRouter",
      "contractAddress": "0x9b0cb6E1B1BbA871b2738f3CCd10eC5eCe8DaBa7",
      "function": "addAllowedToken(uint64,address,address)",
      "arguments": [
        "10344971235874465080",
        "0x32B8F75d2AC926a0a906F24df3e8Fe2bA17Bd80a",
        "0x7b219F57a8e9C7303204Af681e9fA69d17ef626f"
      ],
      "transaction": {
        "type": "0x02",
        "from": "0x7af234d569ab6360693806d7e7f439ec2114f93c",
        "to": "0x9b0cb6e1b1bba871b2738f3ccd10ec5ece8daba7",
        "gas": "0x28479",
        "value": "0x0",
        "data": "0xe986b13a0000000000000000000000000000000000000000000000008f90b8876dee653800000000000000000000000032b8f75d2ac926a0a906f24df3e8fe2ba17bd80a0000000000000000000000007b219f57a8e9c7303204af681e9fa69d17ef626f",
        "nonce": "0x13e",
        "accessList": []
      },
      "additionalContracts": [],
      "isFixedGasLimit": false
    },
    {
      "hash": "0x6a336146b29d64d1f38da2e0600d0c350e72c6005081b9e925e76a41d5535eb5",
      "transactionType": "CALL",
      "contractName": "MainRouter",
      "contractAddress": "0x9b0cb6E1B1BbA871b2738f3CCd10eC5eCe8DaBa7",
      "function": "addAllowedToken(uint64,address,address)",
      "arguments": [
        "10344971235874465080",
        "0xDFf5Ba9FCff83cE455e45De7572B6259b0E7D7dE",
        "0x7898AcCC83587C3C55116c5230C17a6Cd9C71bad"
      ],
      "transaction": {
        "type": "0x02",
        "from": "0x7af234d569ab6360693806d7e7f439ec2114f93c",
        "to": "0x9b0cb6e1b1bba871b2738f3ccd10ec5ece8daba7",
        "gas": "0x28479",
        "value": "0x0",
        "data": "0xe986b13a0000000000000000000000000000000000000000000000008f90b8876dee6538000000000000000000000000dff5ba9fcff83ce455e45de7572b6259b0e7d7de0000000000000000000000007898accc83587c3c55116c5230c17a6cd9c71bad",
        "nonce": "0x13f",
        "accessList": []
      },
      "additionalContracts": [],
      "isFixedGasLimit": false
    },
    {
      "hash": "0xe3ff3e5adbd95fce67c8748345acca20832748307016e021c7d2d828a81716e3",
      "transactionType": "CALL",
      "contractName": "MainRouter",
      "contractAddress": "0x9b0cb6E1B1BbA871b2738f3CCd10eC5eCe8DaBa7",
      "function": "addAllowedToken(uint64,address,address)",
      "arguments": [
        "10344971235874465080",
        "0x75b86D7B224Fd88f785BB5FaC5e261D9EFde3047",
        "0x7898AcCC83587C3C55116c5230C17a6Cd9C71bad"
      ],
      "transaction": {
        "type": "0x02",
        "from": "0x7af234d569ab6360693806d7e7f439ec2114f93c",
        "to": "0x9b0cb6e1b1bba871b2738f3ccd10ec5ece8daba7",
        "gas": "0x28479",
        "value": "0x0",
        "data": "0xe986b13a0000000000000000000000000000000000000000000000008f90b8876dee653800000000000000000000000075b86d7b224fd88f785bb5fac5e261d9efde30470000000000000000000000007898accc83587c3c55116c5230c17a6cd9c71bad",
        "nonce": "0x140",
        "accessList": []
      },
      "additionalContracts": [],
      "isFixedGasLimit": false
    },
    {
      "hash": "0x382fcfb89d910ab231b708bc59145af565ee5743b1f8f597bb989775225753d5",
      "transactionType": "CALL",
      "contractName": "MainRouter",
      "contractAddress": "0x9b0cb6E1B1BbA871b2738f3CCd10eC5eCe8DaBa7",
      "function": "addAllowedToken(uint64,address,address)",
      "arguments": [
        "5224473277236331295",
        "0xF6905F1E4ad86f8C3a1Ebfca3E04a9e4d2adDD0D",
        "0x31CF013A08c6Ac228C94551d535d5BAfE19c602a"
      ],
      "transaction": {
        "type": "0x02",
        "from": "0x7af234d569ab6360693806d7e7f439ec2114f93c",
        "to": "0x9b0cb6e1b1bba871b2738f3ccd10ec5ece8daba7",
        "gas": "0x30c13",
        "value": "0x0",
        "data": "0xe986b13a00000000000000000000000000000000000000000000000048810ec3e431431f000000000000000000000000f6905f1e4ad86f8c3a1ebfca3e04a9e4d2addd0d00000000000000000000000031cf013a08c6ac228c94551d535d5bafe19c602a",
        "nonce": "0x141",
        "accessList": []
      },
      "additionalContracts": [],
      "isFixedGasLimit": false
    },
    {
      "hash": "0x18b08ba992abcf579b526d76600d5a66bcbf2ac7f7f46684aa67787fc33f80e2",
      "transactionType": "CALL",
      "contractName": "MainRouter",
      "contractAddress": "0x9b0cb6E1B1BbA871b2738f3CCd10eC5eCe8DaBa7",
      "function": "addAllowedToken(uint64,address,address)",
      "arguments": [
        "5224473277236331295",
        "0x9a24BD7833859d2364EaD5A4aF4b16799693DF12",
        "0x86d67c3D38D2bCeE722E601025C25a575021c6EA"
      ],
      "transaction": {
        "type": "0x02",
        "from": "0x7af234d569ab6360693806d7e7f439ec2114f93c",
        "to": "0x9b0cb6e1b1bba871b2738f3ccd10ec5ece8daba7",
        "gas": "0x28479",
        "value": "0x0",
        "data": "0xe986b13a00000000000000000000000000000000000000000000000048810ec3e431431f0000000000000000000000009a24bd7833859d2364ead5a4af4b16799693df1200000000000000000000000086d67c3d38d2bcee722e601025c25a575021c6ea",
        "nonce": "0x142",
        "accessList": []
      },
      "additionalContracts": [],
      "isFixedGasLimit": false
    },
    {
      "hash": "0x0f904913d4d169c9d246e0f4e18767f90b7f4b3e5e98328dd23d9c4ff9446f89",
      "transactionType": "CALL",
      "contractName": "MainRouter",
      "contractAddress": "0x9b0cb6E1B1BbA871b2738f3CCd10eC5eCe8DaBa7",
      "function": "addAllowedToken(uint64,address,address)",
      "arguments": [
        "5224473277236331295",
        "0x244ec7F5753b2Fc10d0C2bAaB1AB55850E73a3AB",
        "0x34C4c526902d88a3Aa98DB8a9b802603EB1E3470"
      ],
      "transaction": {
        "type": "0x02",
        "from": "0x7af234d569ab6360693806d7e7f439ec2114f93c",
        "to": "0x9b0cb6e1b1bba871b2738f3ccd10ec5ece8daba7",
        "gas": "0x28479",
        "value": "0x0",
        "data": "0xe986b13a00000000000000000000000000000000000000000000000048810ec3e431431f000000000000000000000000244ec7f5753b2fc10d0c2baab1ab55850e73a3ab00000000000000000000000034c4c526902d88a3aa98db8a9b802603eb1e3470",
        "nonce": "0x143",
        "accessList": []
      },
      "additionalContracts": [],
      "isFixedGasLimit": false
    },
    {
      "hash": "0xbea49274e2313f90748fb01ba1d36e0fd4fad9cfa352fa8c0247071b46b92c72",
      "transactionType": "CALL",
      "contractName": "MainRouter",
      "contractAddress": "0x9b0cb6E1B1BbA871b2738f3CCd10eC5eCe8DaBa7",
      "function": "addAllowedToken(uint64,address,address)",
      "arguments": [
        "5224473277236331295",
        "0xe257e2a67407144C918acaD5e11c2582F77c0B1a",
        "0x34C4c526902d88a3Aa98DB8a9b802603EB1E3470"
      ],
      "transaction": {
        "type": "0x02",
        "from": "0x7af234d569ab6360693806d7e7f439ec2114f93c",
        "to": "0x9b0cb6e1b1bba871b2738f3ccd10ec5ece8daba7",
        "gas": "0x28479",
        "value": "0x0",
        "data": "0xe986b13a00000000000000000000000000000000000000000000000048810ec3e431431f000000000000000000000000e257e2a67407144c918acad5e11c2582f77c0b1a00000000000000000000000034c4c526902d88a3aa98db8a9b802603eb1e3470",
        "nonce": "0x144",
        "accessList": []
      },
      "additionalContracts": [],
      "isFixedGasLimit": false
    },
    {
      "hash": "0x387160d0b0c13e7e276a6cb79c47ec088b85e8ebf1b9894c96df153d3b96921a",
      "transactionType": "CALL",
      "contractName": "MainRouter",
      "contractAddress": "0x9b0cb6E1B1BbA871b2738f3CCd10eC5eCe8DaBa7",
      "function": "addAllowedToken(uint64,address,address)",
      "arguments": [
        "5224473277236331295",
        "0x32B8F75d2AC926a0a906F24df3e8Fe2bA17Bd80a",
        "0x7b219F57a8e9C7303204Af681e9fA69d17ef626f"
      ],
      "transaction": {
        "type": "0x02",
        "from": "0x7af234d569ab6360693806d7e7f439ec2114f93c",
        "to": "0x9b0cb6e1b1bba871b2738f3ccd10ec5ece8daba7",
        "gas": "0x28479",
        "value": "0x0",
        "data": "0xe986b13a00000000000000000000000000000000000000000000000048810ec3e431431f00000000000000000000000032b8f75d2ac926a0a906f24df3e8fe2ba17bd80a0000000000000000000000007b219f57a8e9c7303204af681e9fa69d17ef626f",
        "nonce": "0x145",
        "accessList": []
      },
      "additionalContracts": [],
      "isFixedGasLimit": false
    },
    {
      "hash": "0x0a6f02318e0e24a3dfc50e74271035e38e56191b56fe10886c73e8fdb073f516",
      "transactionType": "CALL",
      "contractName": "MainRouter",
      "contractAddress": "0x9b0cb6E1B1BbA871b2738f3CCd10eC5eCe8DaBa7",
      "function": "addAllowedToken(uint64,address,address)",
      "arguments": [
        "5224473277236331295",
        "0xDFf5Ba9FCff83cE455e45De7572B6259b0E7D7dE",
        "0x7898AcCC83587C3C55116c5230C17a6Cd9C71bad"
      ],
      "transaction": {
        "type": "0x02",
        "from": "0x7af234d569ab6360693806d7e7f439ec2114f93c",
        "to": "0x9b0cb6e1b1bba871b2738f3ccd10ec5ece8daba7",
        "gas": "0x28479",
        "value": "0x0",
        "data": "0xe986b13a00000000000000000000000000000000000000000000000048810ec3e431431f000000000000000000000000dff5ba9fcff83ce455e45de7572b6259b0e7d7de0000000000000000000000007898accc83587c3c55116c5230c17a6cd9c71bad",
        "nonce": "0x146",
        "accessList": []
      },
      "additionalContracts": [],
      "isFixedGasLimit": false
    },
    {
      "hash": "0xa6021947269d11415157b967978ed6ec8bb91e38de5aaed8c419f625d2bfb12a",
      "transactionType": "CALL",
      "contractName": "MainRouter",
      "contractAddress": "0x9b0cb6E1B1BbA871b2738f3CCd10eC5eCe8DaBa7",
      "function": "addAllowedToken(uint64,address,address)",
      "arguments": [
        "5224473277236331295",
        "0x75b86D7B224Fd88f785BB5FaC5e261D9EFde3047",
        "0x7898AcCC83587C3C55116c5230C17a6Cd9C71bad"
      ],
      "transaction": {
        "type": "0x02",
        "from": "0x7af234d569ab6360693806d7e7f439ec2114f93c",
        "to": "0x9b0cb6e1b1bba871b2738f3ccd10ec5ece8daba7",
        "gas": "0x28479",
        "value": "0x0",
        "data": "0xe986b13a00000000000000000000000000000000000000000000000048810ec3e431431f00000000000000000000000075b86d7b224fd88f785bb5fac5e261d9efde30470000000000000000000000007898accc83587c3c55116c5230c17a6cd9c71bad",
        "nonce": "0x147",
        "accessList": []
      },
      "additionalContracts": [],
      "isFixedGasLimit": false
    },
    {
      "hash": "0x3748b2b702ac719a20a71df63c64fd27c503f95a9caa7a2060f2b09bc7a5ecff",
      "transactionType": "CALL",
      "contractName": "MainRouter",
      "contractAddress": "0x9b0cb6E1B1BbA871b2738f3CCd10eC5eCe8DaBa7",
      "function": "addAllowedToken(uint64,address,address)",
      "arguments": [
        "3478487238524512106",
        "0xF6905F1E4ad86f8C3a1Ebfca3E04a9e4d2adDD0D",
        "0x31CF013A08c6Ac228C94551d535d5BAfE19c602a"
      ],
      "transaction": {
        "type": "0x02",
        "from": "0x7af234d569ab6360693806d7e7f439ec2114f93c",
        "to": "0x9b0cb6e1b1bba871b2738f3ccd10ec5ece8daba7",
        "gas": "0x30c13",
        "value": "0x0",
        "data": "0xe986b13a000000000000000000000000000000000000000000000000304611b6affba76a000000000000000000000000f6905f1e4ad86f8c3a1ebfca3e04a9e4d2addd0d00000000000000000000000031cf013a08c6ac228c94551d535d5bafe19c602a",
        "nonce": "0x148",
        "accessList": []
      },
      "additionalContracts": [],
      "isFixedGasLimit": false
    },
    {
      "hash": "0x583b0bf19aa8701251dfa32f09bf21f4e0c7caf0d02bf2fb62381966da4c5a43",
      "transactionType": "CALL",
      "contractName": "MainRouter",
      "contractAddress": "0x9b0cb6E1B1BbA871b2738f3CCd10eC5eCe8DaBa7",
      "function": "addAllowedToken(uint64,address,address)",
      "arguments": [
        "3478487238524512106",
        "0x9a24BD7833859d2364EaD5A4aF4b16799693DF12",
        "0x86d67c3D38D2bCeE722E601025C25a575021c6EA"
      ],
      "transaction": {
        "type": "0x02",
        "from": "0x7af234d569ab6360693806d7e7f439ec2114f93c",
        "to": "0x9b0cb6e1b1bba871b2738f3ccd10ec5ece8daba7",
        "gas": "0x28479",
        "value": "0x0",
        "data": "0xe986b13a000000000000000000000000000000000000000000000000304611b6affba76a0000000000000000000000009a24bd7833859d2364ead5a4af4b16799693df1200000000000000000000000086d67c3d38d2bcee722e601025c25a575021c6ea",
        "nonce": "0x149",
        "accessList": []
      },
      "additionalContracts": [],
      "isFixedGasLimit": false
    },
    {
      "hash": "0x0d2d5e8ca08b15bb933560ef73d66134b6dbbab300439e109e6ed5380fc7b891",
      "transactionType": "CALL",
      "contractName": "MainRouter",
      "contractAddress": "0x9b0cb6E1B1BbA871b2738f3CCd10eC5eCe8DaBa7",
      "function": "addAllowedToken(uint64,address,address)",
      "arguments": [
        "3478487238524512106",
        "0x244ec7F5753b2Fc10d0C2bAaB1AB55850E73a3AB",
        "0x34C4c526902d88a3Aa98DB8a9b802603EB1E3470"
      ],
      "transaction": {
        "type": "0x02",
        "from": "0x7af234d569ab6360693806d7e7f439ec2114f93c",
        "to": "0x9b0cb6e1b1bba871b2738f3ccd10ec5ece8daba7",
        "gas": "0x28479",
        "value": "0x0",
        "data": "0xe986b13a000000000000000000000000000000000000000000000000304611b6affba76a000000000000000000000000244ec7f5753b2fc10d0c2baab1ab55850e73a3ab00000000000000000000000034c4c526902d88a3aa98db8a9b802603eb1e3470",
        "nonce": "0x14a",
        "accessList": []
      },
      "additionalContracts": [],
      "isFixedGasLimit": false
    },
    {
      "hash": "0xec241a5a1cca7eb5a7801c0e565c33d90f687d4155011552c4b43c207c5f77d3",
      "transactionType": "CALL",
      "contractName": "MainRouter",
      "contractAddress": "0x9b0cb6E1B1BbA871b2738f3CCd10eC5eCe8DaBa7",
      "function": "addAllowedToken(uint64,address,address)",
      "arguments": [
        "3478487238524512106",
        "0xe257e2a67407144C918acaD5e11c2582F77c0B1a",
        "0x34C4c526902d88a3Aa98DB8a9b802603EB1E3470"
      ],
      "transaction": {
        "type": "0x02",
        "from": "0x7af234d569ab6360693806d7e7f439ec2114f93c",
        "to": "0x9b0cb6e1b1bba871b2738f3ccd10ec5ece8daba7",
        "gas": "0x28479",
        "value": "0x0",
        "data": "0xe986b13a000000000000000000000000000000000000000000000000304611b6affba76a000000000000000000000000e257e2a67407144c918acad5e11c2582f77c0b1a00000000000000000000000034c4c526902d88a3aa98db8a9b802603eb1e3470",
        "nonce": "0x14b",
        "accessList": []
      },
      "additionalContracts": [],
      "isFixedGasLimit": false
    },
    {
      "hash": "0x06a9cc9f6697c3ec02020080334d48086ec9c88cf5f83de45741da3ae7cf761e",
      "transactionType": "CALL",
      "contractName": "MainRouter",
      "contractAddress": "0x9b0cb6E1B1BbA871b2738f3CCd10eC5eCe8DaBa7",
      "function": "addAllowedToken(uint64,address,address)",
      "arguments": [
        "3478487238524512106",
        "0x32B8F75d2AC926a0a906F24df3e8Fe2bA17Bd80a",
        "0x7b219F57a8e9C7303204Af681e9fA69d17ef626f"
      ],
      "transaction": {
        "type": "0x02",
        "from": "0x7af234d569ab6360693806d7e7f439ec2114f93c",
        "to": "0x9b0cb6e1b1bba871b2738f3ccd10ec5ece8daba7",
        "gas": "0x28479",
        "value": "0x0",
        "data": "0xe986b13a000000000000000000000000000000000000000000000000304611b6affba76a00000000000000000000000032b8f75d2ac926a0a906f24df3e8fe2ba17bd80a0000000000000000000000007b219f57a8e9c7303204af681e9fa69d17ef626f",
        "nonce": "0x14c",
        "accessList": []
      },
      "additionalContracts": [],
      "isFixedGasLimit": false
    },
    {
      "hash": "0x0333567cc693753117d74b4f12f5614ddce6245ed4280a34d3192bf3aaaad204",
      "transactionType": "CALL",
      "contractName": "MainRouter",
      "contractAddress": "0x9b0cb6E1B1BbA871b2738f3CCd10eC5eCe8DaBa7",
      "function": "addAllowedToken(uint64,address,address)",
      "arguments": [
        "3478487238524512106",
        "0xDFf5Ba9FCff83cE455e45De7572B6259b0E7D7dE",
        "0x7898AcCC83587C3C55116c5230C17a6Cd9C71bad"
      ],
      "transaction": {
        "type": "0x02",
        "from": "0x7af234d569ab6360693806d7e7f439ec2114f93c",
        "to": "0x9b0cb6e1b1bba871b2738f3ccd10ec5ece8daba7",
        "gas": "0x28479",
        "value": "0x0",
        "data": "0xe986b13a000000000000000000000000000000000000000000000000304611b6affba76a000000000000000000000000dff5ba9fcff83ce455e45de7572b6259b0e7d7de0000000000000000000000007898accc83587c3c55116c5230c17a6cd9c71bad",
        "nonce": "0x14d",
        "accessList": []
      },
      "additionalContracts": [],
      "isFixedGasLimit": false
    },
    {
      "hash": "0x7a89764993eb398f3142abaff2cfa59cee87c347c08be508232c4c39c9d4110f",
      "transactionType": "CALL",
      "contractName": "MainRouter",
      "contractAddress": "0x9b0cb6E1B1BbA871b2738f3CCd10eC5eCe8DaBa7",
      "function": "addAllowedToken(uint64,address,address)",
      "arguments": [
        "3478487238524512106",
        "0x75b86D7B224Fd88f785BB5FaC5e261D9EFde3047",
        "0x7898AcCC83587C3C55116c5230C17a6Cd9C71bad"
      ],
      "transaction": {
        "type": "0x02",
        "from": "0x7af234d569ab6360693806d7e7f439ec2114f93c",
        "to": "0x9b0cb6e1b1bba871b2738f3ccd10ec5ece8daba7",
        "gas": "0x28479",
        "value": "0x0",
        "data": "0xe986b13a000000000000000000000000000000000000000000000000304611b6affba76a00000000000000000000000075b86d7b224fd88f785bb5fac5e261d9efde30470000000000000000000000007898accc83587c3c55116c5230c17a6cd9c71bad",
        "nonce": "0x14e",
        "accessList": []
      },
      "additionalContracts": [],
      "isFixedGasLimit": false
    },
    {
      "hash": "0x63effa7ed510b6a5d380986617d0344a44ec8e8bae662d4df98642b451352e7e",
      "transactionType": "CALL",
      "contractName": "MainRouter",
      "contractAddress": "0x9b0cb6E1B1BbA871b2738f3CCd10eC5eCe8DaBa7",
      "function": "setAllowedDestinationChain(uint64,bool)",
      "arguments": [
        "14767482510784806043",
        "true"
      ],
      "transaction": {
        "type": "0x02",
        "from": "0x7af234d569ab6360693806d7e7f439ec2114f93c",
        "to": "0x9b0cb6e1b1bba871b2738f3ccd10ec5ece8daba7",
        "gas": "0x26261",
        "value": "0x0",
        "data": "0x1572823c000000000000000000000000000000000000000000000000ccf0a31a221f3c9b0000000000000000000000000000000000000000000000000000000000000001",
        "nonce": "0x14f",
        "accessList": []
      },
      "additionalContracts": [],
      "isFixedGasLimit": false
    },
    {
      "hash": "0x7782a529d92cbe5d072fb042f99c5939725fad6505b7ed141d51a53b5a9c2006",
      "transactionType": "CALL",
      "contractName": "MainRouter",
      "contractAddress": "0x9b0cb6E1B1BbA871b2738f3CCd10eC5eCe8DaBa7",
      "function": "setAllowedDestinationChain(uint64,bool)",
      "arguments": [
        "16015286601757825753",
        "true"
      ],
      "transaction": {
        "type": "0x02",
        "from": "0x7af234d569ab6360693806d7e7f439ec2114f93c",
        "to": "0x9b0cb6e1b1bba871b2738f3ccd10ec5ece8daba7",
        "gas": "0x2061d",
        "value": "0x0",
        "data": "0x1572823c000000000000000000000000000000000000000000000000de41ba4fc9d91ad90000000000000000000000000000000000000000000000000000000000000001",
        "nonce": "0x150",
        "accessList": []
      },
      "additionalContracts": [],
      "isFixedGasLimit": false
    },
    {
      "hash": "0x8cd12756e4a298aec4ba39860d69d45a5f80d243685d94faa3742d7f2a44bfcd",
      "transactionType": "CALL",
      "contractName": "MainRouter",
      "contractAddress": "0x9b0cb6E1B1BbA871b2738f3CCd10eC5eCe8DaBa7",
      "function": "setAllowedDestinationChain(uint64,bool)",
      "arguments": [
        "16281711391670634445",
        "true"
      ],
      "transaction": {
        "type": "0x02",
        "from": "0x7af234d569ab6360693806d7e7f439ec2114f93c",
        "to": "0x9b0cb6e1b1bba871b2738f3ccd10ec5ece8daba7",
        "gas": "0x2061d",
        "value": "0x0",
        "data": "0x1572823c000000000000000000000000000000000000000000000000e1f4423f1bf587cd0000000000000000000000000000000000000000000000000000000000000001",
        "nonce": "0x151",
        "accessList": []
      },
      "additionalContracts": [],
      "isFixedGasLimit": false
    },
    {
      "hash": "0x70b264a8535da4231cf75231c204416bcbaf62c003ad3107dfa0fa1c997237ea",
      "transactionType": "CALL",
      "contractName": "MainRouter",
      "contractAddress": "0x9b0cb6E1B1BbA871b2738f3CCd10eC5eCe8DaBa7",
      "function": "setAllowedDestinationChain(uint64,bool)",
      "arguments": [
        "10344971235874465080",
        "true"
      ],
      "transaction": {
        "type": "0x02",
        "from": "0x7af234d569ab6360693806d7e7f439ec2114f93c",
        "to": "0x9b0cb6e1b1bba871b2738f3ccd10ec5ece8daba7",
        "gas": "0x2061d",
        "value": "0x0",
        "data": "0x1572823c0000000000000000000000000000000000000000000000008f90b8876dee65380000000000000000000000000000000000000000000000000000000000000001",
        "nonce": "0x152",
        "accessList": []
      },
      "additionalContracts": [],
      "isFixedGasLimit": false
    },
    {
      "hash": "0x684a6048e7140d4060050ad11a6df42d83bfaef2330e874d78a1c4c56476ddd0",
      "transactionType": "CALL",
      "contractName": "MainRouter",
      "contractAddress": "0x9b0cb6E1B1BbA871b2738f3CCd10eC5eCe8DaBa7",
      "function": "setAllowedDestinationChain(uint64,bool)",
      "arguments": [
        "5224473277236331295",
        "true"
      ],
      "transaction": {
        "type": "0x02",
        "from": "0x7af234d569ab6360693806d7e7f439ec2114f93c",
        "to": "0x9b0cb6e1b1bba871b2738f3ccd10ec5ece8daba7",
        "gas": "0x2061d",
        "value": "0x0",
        "data": "0x1572823c00000000000000000000000000000000000000000000000048810ec3e431431f0000000000000000000000000000000000000000000000000000000000000001",
        "nonce": "0x153",
        "accessList": []
      },
      "additionalContracts": [],
      "isFixedGasLimit": false
    },
    {
      "hash": "0x815d347e280c34862bfe7758d9c1e12ad6ff9211466a0c45650203010d529f1e",
      "transactionType": "CALL",
      "contractName": "MainRouter",
      "contractAddress": "0x9b0cb6E1B1BbA871b2738f3CCd10eC5eCe8DaBa7",
      "function": "setAllowedDestinationChain(uint64,bool)",
      "arguments": [
        "3478487238524512106",
        "true"
      ],
      "transaction": {
        "type": "0x02",
        "from": "0x7af234d569ab6360693806d7e7f439ec2114f93c",
        "to": "0x9b0cb6e1b1bba871b2738f3ccd10ec5ece8daba7",
        "gas": "0x2061d",
        "value": "0x0",
        "data": "0x1572823c000000000000000000000000000000000000000000000000304611b6affba76a0000000000000000000000000000000000000000000000000000000000000001",
        "nonce": "0x154",
        "accessList": []
      },
      "additionalContracts": [],
      "isFixedGasLimit": false
    },
    {
      "hash": "0x503c216ac4c4f634f0b126d3ee65488a5fdc6e5e0f3450da326dcc4785b1df2b",
      "transactionType": "CALL",
      "contractName": "MainRouter",
      "contractAddress": "0x9b0cb6E1B1BbA871b2738f3CCd10eC5eCe8DaBa7",
      "function": "setAllowedSourceChain(uint64,bool)",
      "arguments": [
        "14767482510784806043",
        "true"
      ],
      "transaction": {
        "type": "0x02",
        "from": "0x7af234d569ab6360693806d7e7f439ec2114f93c",
        "to": "0x9b0cb6e1b1bba871b2738f3ccd10ec5ece8daba7",
        "gas": "0x108a1",
        "value": "0x0",
        "data": "0x5d9a2c48000000000000000000000000000000000000000000000000ccf0a31a221f3c9b0000000000000000000000000000000000000000000000000000000000000001",
        "nonce": "0x155",
        "accessList": []
      },
      "additionalContracts": [],
      "isFixedGasLimit": false
    },
    {
      "hash": "0x26026a485e336d13b0a71bc027f7bc871a497da9679d6fec0e89099dad4ddbcd",
      "transactionType": "CALL",
      "contractName": "MainRouter",
      "contractAddress": "0x9b0cb6E1B1BbA871b2738f3CCd10eC5eCe8DaBa7",
      "function": "setAllowedSourceChain(uint64,bool)",
      "arguments": [
        "16015286601757825753",
        "true"
      ],
      "transaction": {
        "type": "0x02",
        "from": "0x7af234d569ab6360693806d7e7f439ec2114f93c",
        "to": "0x9b0cb6e1b1bba871b2738f3ccd10ec5ece8daba7",
        "gas": "0x108a1",
        "value": "0x0",
        "data": "0x5d9a2c48000000000000000000000000000000000000000000000000de41ba4fc9d91ad90000000000000000000000000000000000000000000000000000000000000001",
        "nonce": "0x156",
        "accessList": []
      },
      "additionalContracts": [],
      "isFixedGasLimit": false
    },
    {
      "hash": "0x1ad5121610a946555d91cb539f7e0bf9737d76c270314d987b46ee7969584462",
      "transactionType": "CALL",
      "contractName": "MainRouter",
      "contractAddress": "0x9b0cb6E1B1BbA871b2738f3CCd10eC5eCe8DaBa7",
      "function": "setAllowedSourceChain(uint64,bool)",
      "arguments": [
        "16281711391670634445",
        "true"
      ],
      "transaction": {
        "type": "0x02",
        "from": "0x7af234d569ab6360693806d7e7f439ec2114f93c",
        "to": "0x9b0cb6e1b1bba871b2738f3ccd10ec5ece8daba7",
        "gas": "0x108a1",
        "value": "0x0",
        "data": "0x5d9a2c48000000000000000000000000000000000000000000000000e1f4423f1bf587cd0000000000000000000000000000000000000000000000000000000000000001",
        "nonce": "0x157",
        "accessList": []
      },
      "additionalContracts": [],
      "isFixedGasLimit": false
    },
    {
      "hash": "0xd6f6476d90e11ddc13fa9def21de1c9060486d3b6b27a9c8a6f5b48bf6ce9325",
      "transactionType": "CALL",
      "contractName": "MainRouter",
      "contractAddress": "0x9b0cb6E1B1BbA871b2738f3CCd10eC5eCe8DaBa7",
      "function": "setAllowedSourceChain(uint64,bool)",
      "arguments": [
        "10344971235874465080",
        "true"
      ],
      "transaction": {
        "type": "0x02",
        "from": "0x7af234d569ab6360693806d7e7f439ec2114f93c",
        "to": "0x9b0cb6e1b1bba871b2738f3ccd10ec5ece8daba7",
        "gas": "0x108a1",
        "value": "0x0",
        "data": "0x5d9a2c480000000000000000000000000000000000000000000000008f90b8876dee65380000000000000000000000000000000000000000000000000000000000000001",
        "nonce": "0x158",
        "accessList": []
      },
      "additionalContracts": [],
      "isFixedGasLimit": false
    },
    {
      "hash": "0xfe8605de591d7ef33320a5901b5efa9f1a9ffa3f9b2fc77f4eb22627b75ed2a6",
      "transactionType": "CALL",
      "contractName": "MainRouter",
      "contractAddress": "0x9b0cb6E1B1BbA871b2738f3CCd10eC5eCe8DaBa7",
      "function": "setAllowedSourceChain(uint64,bool)",
      "arguments": [
        "5224473277236331295",
        "true"
      ],
      "transaction": {
        "type": "0x02",
        "from": "0x7af234d569ab6360693806d7e7f439ec2114f93c",
        "to": "0x9b0cb6e1b1bba871b2738f3ccd10ec5ece8daba7",
        "gas": "0x108a1",
        "value": "0x0",
        "data": "0x5d9a2c4800000000000000000000000000000000000000000000000048810ec3e431431f0000000000000000000000000000000000000000000000000000000000000001",
        "nonce": "0x159",
        "accessList": []
      },
      "additionalContracts": [],
      "isFixedGasLimit": false
    },
    {
      "hash": "0x58b5cc98add00da9dd121a60680aa239204d282c015ca3bc8421686ea09a6fb6",
      "transactionType": "CALL",
      "contractName": "MainRouter",
      "contractAddress": "0x9b0cb6E1B1BbA871b2738f3CCd10eC5eCe8DaBa7",
      "function": "setAllowedSourceChain(uint64,bool)",
      "arguments": [
        "3478487238524512106",
        "true"
      ],
      "transaction": {
        "type": "0x02",
        "from": "0x7af234d569ab6360693806d7e7f439ec2114f93c",
        "to": "0x9b0cb6e1b1bba871b2738f3ccd10ec5ece8daba7",
        "gas": "0x108a1",
        "value": "0x0",
        "data": "0x5d9a2c48000000000000000000000000000000000000000000000000304611b6affba76a0000000000000000000000000000000000000000000000000000000000000001",
        "nonce": "0x15a",
        "accessList": []
      },
      "additionalContracts": [],
      "isFixedGasLimit": false
    }
  ],
  "receipts": [
    {
      "transactionHash": "0xfd5748245d8446e3cbb8c2158191425b573b5d3ea03e7eb25120d54e9c2369ca",
      "transactionIndex": "0x0",
      "blockHash": "0xb7d00eb5f78af150208f83b64f050a18795a7d65c79ecca677ad87e81c94eecf",
      "blockNumber": "0x1fd5f69",
      "from": "0x7aF234d569aB6360693806D7e7f439Ec2114F93c",
      "to": null,
      "cumulativeGasUsed": "0x3b3c9",
      "gasUsed": "0x3b3c9",
      "contractAddress": "0x4DF4573F5e3Ea8134a96871Bd38ed129f5021a59",
      "logs": [],
      "status": "0x1",
      "logsBloom": "0x00000000000000000000000000000000000000000000000000000000000000000000000000000000000000000000000000000000000000000000000000000000000000000000000000000000000000000000000000000000000000000000000000000000000000000000000000000000000000000000000000000000000000000000000000000000000000000000000000000000000000000000000000000000000000000000000000000000000000000000000000000000000000000000000000000000000000000000000000000000000000000000000000000000000000000000000000000000000000000000000000000000000000000000000000000000",
      "type": "0x2",
      "effectiveGasPrice": "0x684ee1800"
    },
    {
      "transactionHash": "0x4df54ca1720c4be2fa0ecf8e097800e670264a190627d381a5ee33b7be71b234",
      "transactionIndex": "0x1",
      "blockHash": "0xb7d00eb5f78af150208f83b64f050a18795a7d65c79ecca677ad87e81c94eecf",
      "blockNumber": "0x1fd5f69",
      "from": "0x7aF234d569aB6360693806D7e7f439Ec2114F93c",
      "to": null,
      "cumulativeGasUsed": "0x44ad29",
      "gasUsed": "0x40f960",
      "contractAddress": "0x9b0cb6E1B1BbA871b2738f3CCd10eC5eCe8DaBa7",
      "logs": [
        {
          "address": "0x9b0cb6E1B1BbA871b2738f3CCd10eC5eCe8DaBa7",
          "topics": [
            "0x8be0079c531659141344cd1fd0a4f28419497f9722a3daafe3b4186f6b6457e0",
            "0x0000000000000000000000000000000000000000000000000000000000000000",
            "0x0000000000000000000000007af234d569ab6360693806d7e7f439ec2114f93c"
          ],
          "data": "0x",
          "blockHash": "0xb7d00eb5f78af150208f83b64f050a18795a7d65c79ecca677ad87e81c94eecf",
          "blockNumber": "0x1fd5f69",
          "transactionHash": "0x4df54ca1720c4be2fa0ecf8e097800e670264a190627d381a5ee33b7be71b234",
          "transactionIndex": "0x1",
          "logIndex": "0x0",
          "removed": false
        }
      ],
      "status": "0x1",
      "logsBloom": "0x00000000080000000000000000000000000000000000000000800000000000000000000000000000000000000000000000000000000000000000000000000000000000000000000000000000000000000001000000000000000000200000000000000000020000000000000000000800000000000000000000000000000000400000000000000000000000000000000000000000000008000000000000000000000000000000000000000000000000000000000000000000000000000000000000000000000000000000000000000000000000000000000040000000000020000000008000000000000000000000000000000000000000000000000000000000",
      "type": "0x2",
      "effectiveGasPrice": "0x684ee1800"
    },
    {
      "transactionHash": "0xe82f518446049b4851cb546b76813242f5fc43020edf1c38f5a02ab56cbe8c8c",
      "transactionIndex": "0x0",
      "blockHash": "0x8da3b18f19f8254e3e6224ca139add7b94211ac9845923f2da84ad1e920855d4",
      "blockNumber": "0x1fd5f6a",
      "from": "0x7aF234d569aB6360693806D7e7f439Ec2114F93c",
      "to": null,
      "cumulativeGasUsed": "0x1538a4",
      "gasUsed": "0x1538a4",
      "contractAddress": "0x7ce9F877C2BE59c2DDef0E66153C7cD33933f5a4",
      "logs": [],
      "status": "0x1",
      "logsBloom": "0x00000000000000000000000000000000000000000000000000000000000000000000000000000000000000000000000000000000000000000000000000000000000000000000000000000000000000000000000000000000000000000000000000000000000000000000000000000000000000000000000000000000000000000000000000000000000000000000000000000000000000000000000000000000000000000000000000000000000000000000000000000000000000000000000000000000000000000000000000000000000000000000000000000000000000000000000000000000000000000000000000000000000000000000000000000000",
      "type": "0x2",
      "effectiveGasPrice": "0x684ee1800"
    },
    {
      "transactionHash": "0x7a33e593b516f5b848849841589950c5b7f665d40be66e2bf74438a9822f2c53",
      "transactionIndex": "0x1",
      "blockHash": "0x8da3b18f19f8254e3e6224ca139add7b94211ac9845923f2da84ad1e920855d4",
      "blockNumber": "0x1fd5f6a",
      "from": "0x7aF234d569aB6360693806D7e7f439Ec2114F93c",
      "to": "0x9b0cb6E1B1BbA871b2738f3CCd10eC5eCe8DaBa7",
      "cumulativeGasUsed": "0x174e07",
      "gasUsed": "0x21563",
      "contractAddress": null,
      "logs": [],
      "status": "0x1",
      "logsBloom": "0x00000000000000000000000000000000000000000000000000000000000000000000000000000000000000000000000000000000000000000000000000000000000000000000000000000000000000000000000000000000000000000000000000000000000000000000000000000000000000000000000000000000000000000000000000000000000000000000000000000000000000000000000000000000000000000000000000000000000000000000000000000000000000000000000000000000000000000000000000000000000000000000000000000000000000000000000000000000000000000000000000000000000000000000000000000000",
      "type": "0x2",
      "effectiveGasPrice": "0x684ee1800"
    },
    {
      "transactionHash": "0x173e5f9974a143cf1adb9c38b1c82bfc19589f2cf690af6c7dde1ec218b82f06",
      "transactionIndex": "0x2",
      "blockHash": "0x8da3b18f19f8254e3e6224ca139add7b94211ac9845923f2da84ad1e920855d4",
      "blockNumber": "0x1fd5f6a",
      "from": "0x7aF234d569aB6360693806D7e7f439Ec2114F93c",
      "to": "0x9b0cb6E1B1BbA871b2738f3CCd10eC5eCe8DaBa7",
      "cumulativeGasUsed": "0x19209e",
      "gasUsed": "0x1d297",
      "contractAddress": null,
      "logs": [],
      "status": "0x1",
      "logsBloom": "0x00000000000000000000000000000000000000000000000000000000000000000000000000000000000000000000000000000000000000000000000000000000000000000000000000000000000000000000000000000000000000000000000000000000000000000000000000000000000000000000000000000000000000000000000000000000000000000000000000000000000000000000000000000000000000000000000000000000000000000000000000000000000000000000000000000000000000000000000000000000000000000000000000000000000000000000000000000000000000000000000000000000000000000000000000000000",
      "type": "0x2",
      "effectiveGasPrice": "0x684ee1800"
    },
    {
      "transactionHash": "0xccc9e40ef3a00621068375d68d7eff99419af50e5dc7e36b7192900718441fae",
      "transactionIndex": "0x3",
      "blockHash": "0x8da3b18f19f8254e3e6224ca139add7b94211ac9845923f2da84ad1e920855d4",
      "blockNumber": "0x1fd5f6a",
      "from": "0x7aF234d569aB6360693806D7e7f439Ec2114F93c",
      "to": "0x9b0cb6E1B1BbA871b2738f3CCd10eC5eCe8DaBa7",
      "cumulativeGasUsed": "0x1af335",
      "gasUsed": "0x1d297",
      "contractAddress": null,
      "logs": [],
      "status": "0x1",
      "logsBloom": "0x00000000000000000000000000000000000000000000000000000000000000000000000000000000000000000000000000000000000000000000000000000000000000000000000000000000000000000000000000000000000000000000000000000000000000000000000000000000000000000000000000000000000000000000000000000000000000000000000000000000000000000000000000000000000000000000000000000000000000000000000000000000000000000000000000000000000000000000000000000000000000000000000000000000000000000000000000000000000000000000000000000000000000000000000000000000",
      "type": "0x2",
      "effectiveGasPrice": "0x684ee1800"
    },
    {
      "transactionHash": "0xcb0a91e63d6d786981e53f8ea939a5d73c320ea249d4972a7a8468bd235d5ec4",
      "transactionIndex": "0x4",
      "blockHash": "0x8da3b18f19f8254e3e6224ca139add7b94211ac9845923f2da84ad1e920855d4",
      "blockNumber": "0x1fd5f6a",
      "from": "0x7aF234d569aB6360693806D7e7f439Ec2114F93c",
      "to": "0x9b0cb6E1B1BbA871b2738f3CCd10eC5eCe8DaBa7",
      "cumulativeGasUsed": "0x1cc5cc",
      "gasUsed": "0x1d297",
      "contractAddress": null,
      "logs": [],
      "status": "0x1",
      "logsBloom": "0x00000000000000000000000000000000000000000000000000000000000000000000000000000000000000000000000000000000000000000000000000000000000000000000000000000000000000000000000000000000000000000000000000000000000000000000000000000000000000000000000000000000000000000000000000000000000000000000000000000000000000000000000000000000000000000000000000000000000000000000000000000000000000000000000000000000000000000000000000000000000000000000000000000000000000000000000000000000000000000000000000000000000000000000000000000000",
      "type": "0x2",
      "effectiveGasPrice": "0x684ee1800"
    },
    {
      "transactionHash": "0xfb9e3af39fe140252e143f7320cfb0aefae8a53c7e83ee36cb5eba543a2139cc",
      "transactionIndex": "0x5",
      "blockHash": "0x8da3b18f19f8254e3e6224ca139add7b94211ac9845923f2da84ad1e920855d4",
      "blockNumber": "0x1fd5f6a",
      "from": "0x7aF234d569aB6360693806D7e7f439Ec2114F93c",
      "to": "0x9b0cb6E1B1BbA871b2738f3CCd10eC5eCe8DaBa7",
      "cumulativeGasUsed": "0x1e9863",
      "gasUsed": "0x1d297",
      "contractAddress": null,
      "logs": [],
      "status": "0x1",
      "logsBloom": "0x00000000000000000000000000000000000000000000000000000000000000000000000000000000000000000000000000000000000000000000000000000000000000000000000000000000000000000000000000000000000000000000000000000000000000000000000000000000000000000000000000000000000000000000000000000000000000000000000000000000000000000000000000000000000000000000000000000000000000000000000000000000000000000000000000000000000000000000000000000000000000000000000000000000000000000000000000000000000000000000000000000000000000000000000000000000",
      "type": "0x2",
      "effectiveGasPrice": "0x684ee1800"
    },
    {
      "transactionHash": "0xe66ae21b080fad67f0e33c12c27f250b914754c380cda11bdbb6fd7c3553fe52",
      "transactionIndex": "0x6",
      "blockHash": "0x8da3b18f19f8254e3e6224ca139add7b94211ac9845923f2da84ad1e920855d4",
      "blockNumber": "0x1fd5f6a",
      "from": "0x7aF234d569aB6360693806D7e7f439Ec2114F93c",
      "to": "0x9b0cb6E1B1BbA871b2738f3CCd10eC5eCe8DaBa7",
      "cumulativeGasUsed": "0x206afa",
      "gasUsed": "0x1d297",
      "contractAddress": null,
      "logs": [],
      "status": "0x1",
      "logsBloom": "0x00000000000000000000000000000000000000000000000000000000000000000000000000000000000000000000000000000000000000000000000000000000000000000000000000000000000000000000000000000000000000000000000000000000000000000000000000000000000000000000000000000000000000000000000000000000000000000000000000000000000000000000000000000000000000000000000000000000000000000000000000000000000000000000000000000000000000000000000000000000000000000000000000000000000000000000000000000000000000000000000000000000000000000000000000000000",
      "type": "0x2",
      "effectiveGasPrice": "0x684ee1800"
    },
    {
      "transactionHash": "0x0221e75895efae35528c5ae0e71ee1eea11e89279438196921fe4f73c63802a3",
      "transactionIndex": "0x7",
      "blockHash": "0x8da3b18f19f8254e3e6224ca139add7b94211ac9845923f2da84ad1e920855d4",
      "blockNumber": "0x1fd5f6a",
      "from": "0x7aF234d569aB6360693806D7e7f439Ec2114F93c",
      "to": "0x9b0cb6E1B1BbA871b2738f3CCd10eC5eCe8DaBa7",
      "cumulativeGasUsed": "0x223d91",
      "gasUsed": "0x1d297",
      "contractAddress": null,
      "logs": [],
      "status": "0x1",
      "logsBloom": "0x00000000000000000000000000000000000000000000000000000000000000000000000000000000000000000000000000000000000000000000000000000000000000000000000000000000000000000000000000000000000000000000000000000000000000000000000000000000000000000000000000000000000000000000000000000000000000000000000000000000000000000000000000000000000000000000000000000000000000000000000000000000000000000000000000000000000000000000000000000000000000000000000000000000000000000000000000000000000000000000000000000000000000000000000000000000",
      "type": "0x2",
      "effectiveGasPrice": "0x684ee1800"
    },
    {
      "transactionHash": "0xd2d863ee4e4381fe48db76efe44507db69d485ddf1ffaf7d656aa86b3ab58317",
      "transactionIndex": "0x8",
      "blockHash": "0x8da3b18f19f8254e3e6224ca139add7b94211ac9845923f2da84ad1e920855d4",
      "blockNumber": "0x1fd5f6a",
      "from": "0x7aF234d569aB6360693806D7e7f439Ec2114F93c",
      "to": "0x9b0cb6E1B1BbA871b2738f3CCd10eC5eCe8DaBa7",
      "cumulativeGasUsed": "0x2452f4",
      "gasUsed": "0x21563",
      "contractAddress": null,
      "logs": [],
      "status": "0x1",
      "logsBloom": "0x00000000000000000000000000000000000000000000000000000000000000000000000000000000000000000000000000000000000000000000000000000000000000000000000000000000000000000000000000000000000000000000000000000000000000000000000000000000000000000000000000000000000000000000000000000000000000000000000000000000000000000000000000000000000000000000000000000000000000000000000000000000000000000000000000000000000000000000000000000000000000000000000000000000000000000000000000000000000000000000000000000000000000000000000000000000",
      "type": "0x2",
      "effectiveGasPrice": "0x684ee1800"
    },
    {
      "transactionHash": "0x53f7d01524c9228814de25eb890c6c685e2160174c46da458ee3e36c049c2c5b",
      "transactionIndex": "0x9",
      "blockHash": "0x8da3b18f19f8254e3e6224ca139add7b94211ac9845923f2da84ad1e920855d4",
      "blockNumber": "0x1fd5f6a",
      "from": "0x7aF234d569aB6360693806D7e7f439Ec2114F93c",
      "to": "0x9b0cb6E1B1BbA871b2738f3CCd10eC5eCe8DaBa7",
      "cumulativeGasUsed": "0x26258b",
      "gasUsed": "0x1d297",
      "contractAddress": null,
      "logs": [],
      "status": "0x1",
      "logsBloom": "0x00000000000000000000000000000000000000000000000000000000000000000000000000000000000000000000000000000000000000000000000000000000000000000000000000000000000000000000000000000000000000000000000000000000000000000000000000000000000000000000000000000000000000000000000000000000000000000000000000000000000000000000000000000000000000000000000000000000000000000000000000000000000000000000000000000000000000000000000000000000000000000000000000000000000000000000000000000000000000000000000000000000000000000000000000000000",
      "type": "0x2",
      "effectiveGasPrice": "0x684ee1800"
    },
    {
      "transactionHash": "0x6606105226d3a47b6b0d6c1710b28791c3be79340fa325aa5450768a93c176ec",
      "transactionIndex": "0xa",
      "blockHash": "0x8da3b18f19f8254e3e6224ca139add7b94211ac9845923f2da84ad1e920855d4",
      "blockNumber": "0x1fd5f6a",
      "from": "0x7aF234d569aB6360693806D7e7f439Ec2114F93c",
      "to": "0x9b0cb6E1B1BbA871b2738f3CCd10eC5eCe8DaBa7",
      "cumulativeGasUsed": "0x27f822",
      "gasUsed": "0x1d297",
      "contractAddress": null,
      "logs": [],
      "status": "0x1",
      "logsBloom": "0x00000000000000000000000000000000000000000000000000000000000000000000000000000000000000000000000000000000000000000000000000000000000000000000000000000000000000000000000000000000000000000000000000000000000000000000000000000000000000000000000000000000000000000000000000000000000000000000000000000000000000000000000000000000000000000000000000000000000000000000000000000000000000000000000000000000000000000000000000000000000000000000000000000000000000000000000000000000000000000000000000000000000000000000000000000000",
      "type": "0x2",
      "effectiveGasPrice": "0x684ee1800"
    },
    {
      "transactionHash": "0xbbe1c98cbf6bbb71578629bdbfed98f1a0bdc570f2612ea5260fb3845037d344",
      "transactionIndex": "0xb",
      "blockHash": "0x8da3b18f19f8254e3e6224ca139add7b94211ac9845923f2da84ad1e920855d4",
      "blockNumber": "0x1fd5f6a",
      "from": "0x7aF234d569aB6360693806D7e7f439Ec2114F93c",
      "to": "0x9b0cb6E1B1BbA871b2738f3CCd10eC5eCe8DaBa7",
      "cumulativeGasUsed": "0x29cab9",
      "gasUsed": "0x1d297",
      "contractAddress": null,
      "logs": [],
      "status": "0x1",
      "logsBloom": "0x00000000000000000000000000000000000000000000000000000000000000000000000000000000000000000000000000000000000000000000000000000000000000000000000000000000000000000000000000000000000000000000000000000000000000000000000000000000000000000000000000000000000000000000000000000000000000000000000000000000000000000000000000000000000000000000000000000000000000000000000000000000000000000000000000000000000000000000000000000000000000000000000000000000000000000000000000000000000000000000000000000000000000000000000000000000",
      "type": "0x2",
      "effectiveGasPrice": "0x684ee1800"
    },
    {
      "transactionHash": "0x81ed3a2eba5d5cd29fdc1ae8d655dc3889c746d3e90519cb8f97fd2b62d0350c",
      "transactionIndex": "0xc",
      "blockHash": "0x8da3b18f19f8254e3e6224ca139add7b94211ac9845923f2da84ad1e920855d4",
      "blockNumber": "0x1fd5f6a",
      "from": "0x7aF234d569aB6360693806D7e7f439Ec2114F93c",
      "to": "0x9b0cb6E1B1BbA871b2738f3CCd10eC5eCe8DaBa7",
      "cumulativeGasUsed": "0x2b9d50",
      "gasUsed": "0x1d297",
      "contractAddress": null,
      "logs": [],
      "status": "0x1",
      "logsBloom": "0x00000000000000000000000000000000000000000000000000000000000000000000000000000000000000000000000000000000000000000000000000000000000000000000000000000000000000000000000000000000000000000000000000000000000000000000000000000000000000000000000000000000000000000000000000000000000000000000000000000000000000000000000000000000000000000000000000000000000000000000000000000000000000000000000000000000000000000000000000000000000000000000000000000000000000000000000000000000000000000000000000000000000000000000000000000000",
      "type": "0x2",
      "effectiveGasPrice": "0x684ee1800"
    },
    {
      "transactionHash": "0xb0c38637d61aa691b784ec67cef6a2329ee718a0ea1c8100f159075d53d68328",
      "transactionIndex": "0xd",
      "blockHash": "0x8da3b18f19f8254e3e6224ca139add7b94211ac9845923f2da84ad1e920855d4",
      "blockNumber": "0x1fd5f6a",
      "from": "0x7aF234d569aB6360693806D7e7f439Ec2114F93c",
      "to": "0x9b0cb6E1B1BbA871b2738f3CCd10eC5eCe8DaBa7",
      "cumulativeGasUsed": "0x2d6fdb",
      "gasUsed": "0x1d28b",
      "contractAddress": null,
      "logs": [],
      "status": "0x1",
      "logsBloom": "0x00000000000000000000000000000000000000000000000000000000000000000000000000000000000000000000000000000000000000000000000000000000000000000000000000000000000000000000000000000000000000000000000000000000000000000000000000000000000000000000000000000000000000000000000000000000000000000000000000000000000000000000000000000000000000000000000000000000000000000000000000000000000000000000000000000000000000000000000000000000000000000000000000000000000000000000000000000000000000000000000000000000000000000000000000000000",
      "type": "0x2",
      "effectiveGasPrice": "0x684ee1800"
    },
    {
      "transactionHash": "0xf87eb9e32efb006bb6d370549b357c78064f6805edbce2fbe2a698ad04efee44",
      "transactionIndex": "0xe",
      "blockHash": "0x8da3b18f19f8254e3e6224ca139add7b94211ac9845923f2da84ad1e920855d4",
      "blockNumber": "0x1fd5f6a",
      "from": "0x7aF234d569aB6360693806D7e7f439Ec2114F93c",
      "to": "0x9b0cb6E1B1BbA871b2738f3CCd10eC5eCe8DaBa7",
      "cumulativeGasUsed": "0x2f4272",
      "gasUsed": "0x1d297",
      "contractAddress": null,
      "logs": [],
      "status": "0x1",
      "logsBloom": "0x00000000000000000000000000000000000000000000000000000000000000000000000000000000000000000000000000000000000000000000000000000000000000000000000000000000000000000000000000000000000000000000000000000000000000000000000000000000000000000000000000000000000000000000000000000000000000000000000000000000000000000000000000000000000000000000000000000000000000000000000000000000000000000000000000000000000000000000000000000000000000000000000000000000000000000000000000000000000000000000000000000000000000000000000000000000",
      "type": "0x2",
      "effectiveGasPrice": "0x684ee1800"
    },
    {
      "transactionHash": "0x486fdbd2ec0d5d33dfec9b1ce64f29eb908e41f489da04f12ff246173b4f01ba",
      "transactionIndex": "0xf",
      "blockHash": "0x8da3b18f19f8254e3e6224ca139add7b94211ac9845923f2da84ad1e920855d4",
      "blockNumber": "0x1fd5f6a",
      "from": "0x7aF234d569aB6360693806D7e7f439Ec2114F93c",
      "to": "0x9b0cb6E1B1BbA871b2738f3CCd10eC5eCe8DaBa7",
      "cumulativeGasUsed": "0x3157d5",
      "gasUsed": "0x21563",
      "contractAddress": null,
      "logs": [],
      "status": "0x1",
      "logsBloom": "0x00000000000000000000000000000000000000000000000000000000000000000000000000000000000000000000000000000000000000000000000000000000000000000000000000000000000000000000000000000000000000000000000000000000000000000000000000000000000000000000000000000000000000000000000000000000000000000000000000000000000000000000000000000000000000000000000000000000000000000000000000000000000000000000000000000000000000000000000000000000000000000000000000000000000000000000000000000000000000000000000000000000000000000000000000000000",
      "type": "0x2",
      "effectiveGasPrice": "0x684ee1800"
    },
    {
      "transactionHash": "0x6794fcdf6d2b751d03f4a443335995a876c48ac2cac1320c64cd06922b190d16",
      "transactionIndex": "0x10",
      "blockHash": "0x8da3b18f19f8254e3e6224ca139add7b94211ac9845923f2da84ad1e920855d4",
      "blockNumber": "0x1fd5f6a",
      "from": "0x7aF234d569aB6360693806D7e7f439Ec2114F93c",
      "to": "0x9b0cb6E1B1BbA871b2738f3CCd10eC5eCe8DaBa7",
      "cumulativeGasUsed": "0x332a6c",
      "gasUsed": "0x1d297",
      "contractAddress": null,
      "logs": [],
      "status": "0x1",
      "logsBloom": "0x00000000000000000000000000000000000000000000000000000000000000000000000000000000000000000000000000000000000000000000000000000000000000000000000000000000000000000000000000000000000000000000000000000000000000000000000000000000000000000000000000000000000000000000000000000000000000000000000000000000000000000000000000000000000000000000000000000000000000000000000000000000000000000000000000000000000000000000000000000000000000000000000000000000000000000000000000000000000000000000000000000000000000000000000000000000",
      "type": "0x2",
      "effectiveGasPrice": "0x684ee1800"
    },
    {
      "transactionHash": "0x286b8a28c4728026f924cedb4b21390b9ba431fb08989f6f9421c5b30369538d",
      "transactionIndex": "0x11",
      "blockHash": "0x8da3b18f19f8254e3e6224ca139add7b94211ac9845923f2da84ad1e920855d4",
      "blockNumber": "0x1fd5f6a",
      "from": "0x7aF234d569aB6360693806D7e7f439Ec2114F93c",
      "to": "0x9b0cb6E1B1BbA871b2738f3CCd10eC5eCe8DaBa7",
      "cumulativeGasUsed": "0x34fd03",
      "gasUsed": "0x1d297",
      "contractAddress": null,
      "logs": [],
      "status": "0x1",
      "logsBloom": "0x00000000000000000000000000000000000000000000000000000000000000000000000000000000000000000000000000000000000000000000000000000000000000000000000000000000000000000000000000000000000000000000000000000000000000000000000000000000000000000000000000000000000000000000000000000000000000000000000000000000000000000000000000000000000000000000000000000000000000000000000000000000000000000000000000000000000000000000000000000000000000000000000000000000000000000000000000000000000000000000000000000000000000000000000000000000",
      "type": "0x2",
      "effectiveGasPrice": "0x684ee1800"
    },
    {
      "transactionHash": "0x68e90f43682728f5ff1f8f0c5df12b607bcecfefdc875633d9a1713757adc168",
      "transactionIndex": "0x12",
      "blockHash": "0x8da3b18f19f8254e3e6224ca139add7b94211ac9845923f2da84ad1e920855d4",
      "blockNumber": "0x1fd5f6a",
      "from": "0x7aF234d569aB6360693806D7e7f439Ec2114F93c",
      "to": "0x9b0cb6E1B1BbA871b2738f3CCd10eC5eCe8DaBa7",
      "cumulativeGasUsed": "0x36cf9a",
      "gasUsed": "0x1d297",
      "contractAddress": null,
      "logs": [],
      "status": "0x1",
      "logsBloom": "0x00000000000000000000000000000000000000000000000000000000000000000000000000000000000000000000000000000000000000000000000000000000000000000000000000000000000000000000000000000000000000000000000000000000000000000000000000000000000000000000000000000000000000000000000000000000000000000000000000000000000000000000000000000000000000000000000000000000000000000000000000000000000000000000000000000000000000000000000000000000000000000000000000000000000000000000000000000000000000000000000000000000000000000000000000000000",
      "type": "0x2",
      "effectiveGasPrice": "0x684ee1800"
    },
    {
      "transactionHash": "0xfcabca0ca790a71a5a4b7666bab08b84a7878f7c9137df2076fedf97e6921400",
      "transactionIndex": "0x0",
      "blockHash": "0xb7772dce3f1c38a5aec6fc717ac86a4976a9adbb0c05815d4b0d2aacaca6a550",
      "blockNumber": "0x1fd5f6b",
      "from": "0x7aF234d569aB6360693806D7e7f439Ec2114F93c",
      "to": "0x9b0cb6E1B1BbA871b2738f3CCd10eC5eCe8DaBa7",
      "cumulativeGasUsed": "0x1d297",
      "gasUsed": "0x1d297",
      "contractAddress": null,
      "logs": [],
      "status": "0x1",
      "logsBloom": "0x00000000000000000000000000000000000000000000000000000000000000000000000000000000000000000000000000000000000000000000000000000000000000000000000000000000000000000000000000000000000000000000000000000000000000000000000000000000000000000000000000000000000000000000000000000000000000000000000000000000000000000000000000000000000000000000000000000000000000000000000000000000000000000000000000000000000000000000000000000000000000000000000000000000000000000000000000000000000000000000000000000000000000000000000000000000",
      "type": "0x2",
      "effectiveGasPrice": "0x684ee1800"
    },
    {
      "transactionHash": "0xa4526b962b62d67c42f526fe2da07dfb5a9cd9dc90ad68c793beb6b70e4ffcb5",
      "transactionIndex": "0x1",
      "blockHash": "0xb7772dce3f1c38a5aec6fc717ac86a4976a9adbb0c05815d4b0d2aacaca6a550",
      "blockNumber": "0x1fd5f6b",
      "from": "0x7aF234d569aB6360693806D7e7f439Ec2114F93c",
      "to": "0x9b0cb6E1B1BbA871b2738f3CCd10eC5eCe8DaBa7",
      "cumulativeGasUsed": "0x3a52e",
      "gasUsed": "0x1d297",
      "contractAddress": null,
      "logs": [],
      "status": "0x1",
      "logsBloom": "0x00000000000000000000000000000000000000000000000000000000000000000000000000000000000000000000000000000000000000000000000000000000000000000000000000000000000000000000000000000000000000000000000000000000000000000000000000000000000000000000000000000000000000000000000000000000000000000000000000000000000000000000000000000000000000000000000000000000000000000000000000000000000000000000000000000000000000000000000000000000000000000000000000000000000000000000000000000000000000000000000000000000000000000000000000000000",
      "type": "0x2",
      "effectiveGasPrice": "0x684ee1800"
    },
    {
      "transactionHash": "0xc7d3b1e0da9d5db362f1acdf08d661c1a6a0ffc531d8ab80b92bfd3a3cb2016c",
      "transactionIndex": "0x2",
      "blockHash": "0xb7772dce3f1c38a5aec6fc717ac86a4976a9adbb0c05815d4b0d2aacaca6a550",
      "blockNumber": "0x1fd5f6b",
      "from": "0x7aF234d569aB6360693806D7e7f439Ec2114F93c",
      "to": "0x9b0cb6E1B1BbA871b2738f3CCd10eC5eCe8DaBa7",
      "cumulativeGasUsed": "0x577c5",
      "gasUsed": "0x1d297",
      "contractAddress": null,
      "logs": [],
      "status": "0x1",
      "logsBloom": "0x00000000000000000000000000000000000000000000000000000000000000000000000000000000000000000000000000000000000000000000000000000000000000000000000000000000000000000000000000000000000000000000000000000000000000000000000000000000000000000000000000000000000000000000000000000000000000000000000000000000000000000000000000000000000000000000000000000000000000000000000000000000000000000000000000000000000000000000000000000000000000000000000000000000000000000000000000000000000000000000000000000000000000000000000000000000",
      "type": "0x2",
      "effectiveGasPrice": "0x684ee1800"
    },
    {
      "transactionHash": "0x30afad324c6552cd38c5e71b57d55ea6658810b3087e23d2ea51b261f12e859d",
      "transactionIndex": "0x3",
      "blockHash": "0xb7772dce3f1c38a5aec6fc717ac86a4976a9adbb0c05815d4b0d2aacaca6a550",
      "blockNumber": "0x1fd5f6b",
      "from": "0x7aF234d569aB6360693806D7e7f439Ec2114F93c",
      "to": "0x9b0cb6E1B1BbA871b2738f3CCd10eC5eCe8DaBa7",
      "cumulativeGasUsed": "0x78d28",
      "gasUsed": "0x21563",
      "contractAddress": null,
      "logs": [],
      "status": "0x1",
      "logsBloom": "0x00000000000000000000000000000000000000000000000000000000000000000000000000000000000000000000000000000000000000000000000000000000000000000000000000000000000000000000000000000000000000000000000000000000000000000000000000000000000000000000000000000000000000000000000000000000000000000000000000000000000000000000000000000000000000000000000000000000000000000000000000000000000000000000000000000000000000000000000000000000000000000000000000000000000000000000000000000000000000000000000000000000000000000000000000000000",
      "type": "0x2",
      "effectiveGasPrice": "0x684ee1800"
    },
    {
      "transactionHash": "0xd3d9aa21fd80645dcc8bddf0b3e24b2ecd6a0466d66e757be7fee688652d6cb3",
      "transactionIndex": "0x4",
      "blockHash": "0xb7772dce3f1c38a5aec6fc717ac86a4976a9adbb0c05815d4b0d2aacaca6a550",
      "blockNumber": "0x1fd5f6b",
      "from": "0x7aF234d569aB6360693806D7e7f439Ec2114F93c",
      "to": "0x9b0cb6E1B1BbA871b2738f3CCd10eC5eCe8DaBa7",
      "cumulativeGasUsed": "0x95fbf",
      "gasUsed": "0x1d297",
      "contractAddress": null,
      "logs": [],
      "status": "0x1",
      "logsBloom": "0x00000000000000000000000000000000000000000000000000000000000000000000000000000000000000000000000000000000000000000000000000000000000000000000000000000000000000000000000000000000000000000000000000000000000000000000000000000000000000000000000000000000000000000000000000000000000000000000000000000000000000000000000000000000000000000000000000000000000000000000000000000000000000000000000000000000000000000000000000000000000000000000000000000000000000000000000000000000000000000000000000000000000000000000000000000000",
      "type": "0x2",
      "effectiveGasPrice": "0x684ee1800"
    },
    {
      "transactionHash": "0xd15a602e479779f887832b7517dad417a35893a1cbd78589482372d3d8b4b37b",
      "transactionIndex": "0x5",
      "blockHash": "0xb7772dce3f1c38a5aec6fc717ac86a4976a9adbb0c05815d4b0d2aacaca6a550",
      "blockNumber": "0x1fd5f6b",
      "from": "0x7aF234d569aB6360693806D7e7f439Ec2114F93c",
      "to": "0x9b0cb6E1B1BbA871b2738f3CCd10eC5eCe8DaBa7",
      "cumulativeGasUsed": "0xb3256",
      "gasUsed": "0x1d297",
      "contractAddress": null,
      "logs": [],
      "status": "0x1",
      "logsBloom": "0x00000000000000000000000000000000000000000000000000000000000000000000000000000000000000000000000000000000000000000000000000000000000000000000000000000000000000000000000000000000000000000000000000000000000000000000000000000000000000000000000000000000000000000000000000000000000000000000000000000000000000000000000000000000000000000000000000000000000000000000000000000000000000000000000000000000000000000000000000000000000000000000000000000000000000000000000000000000000000000000000000000000000000000000000000000000",
      "type": "0x2",
      "effectiveGasPrice": "0x684ee1800"
    },
    {
      "transactionHash": "0x1202ac83ccd9aba2617b70dd133ea7c49e50a113e897994d5305004f3b0d7b40",
      "transactionIndex": "0x6",
      "blockHash": "0xb7772dce3f1c38a5aec6fc717ac86a4976a9adbb0c05815d4b0d2aacaca6a550",
      "blockNumber": "0x1fd5f6b",
      "from": "0x7aF234d569aB6360693806D7e7f439Ec2114F93c",
      "to": "0x9b0cb6E1B1BbA871b2738f3CCd10eC5eCe8DaBa7",
      "cumulativeGasUsed": "0xd04ed",
      "gasUsed": "0x1d297",
      "contractAddress": null,
      "logs": [],
      "status": "0x1",
      "logsBloom": "0x00000000000000000000000000000000000000000000000000000000000000000000000000000000000000000000000000000000000000000000000000000000000000000000000000000000000000000000000000000000000000000000000000000000000000000000000000000000000000000000000000000000000000000000000000000000000000000000000000000000000000000000000000000000000000000000000000000000000000000000000000000000000000000000000000000000000000000000000000000000000000000000000000000000000000000000000000000000000000000000000000000000000000000000000000000000",
      "type": "0x2",
      "effectiveGasPrice": "0x684ee1800"
    },
    {
      "transactionHash": "0x4b029d3ffb68018b0c2c251666d67b04e634790aaa2d265e199a104e938a964b",
      "transactionIndex": "0x7",
      "blockHash": "0xb7772dce3f1c38a5aec6fc717ac86a4976a9adbb0c05815d4b0d2aacaca6a550",
      "blockNumber": "0x1fd5f6b",
      "from": "0x7aF234d569aB6360693806D7e7f439Ec2114F93c",
      "to": "0x9b0cb6E1B1BbA871b2738f3CCd10eC5eCe8DaBa7",
      "cumulativeGasUsed": "0xed784",
      "gasUsed": "0x1d297",
      "contractAddress": null,
      "logs": [],
      "status": "0x1",
      "logsBloom": "0x00000000000000000000000000000000000000000000000000000000000000000000000000000000000000000000000000000000000000000000000000000000000000000000000000000000000000000000000000000000000000000000000000000000000000000000000000000000000000000000000000000000000000000000000000000000000000000000000000000000000000000000000000000000000000000000000000000000000000000000000000000000000000000000000000000000000000000000000000000000000000000000000000000000000000000000000000000000000000000000000000000000000000000000000000000000",
      "type": "0x2",
      "effectiveGasPrice": "0x684ee1800"
    },
    {
      "transactionHash": "0x6a336146b29d64d1f38da2e0600d0c350e72c6005081b9e925e76a41d5535eb5",
      "transactionIndex": "0x8",
      "blockHash": "0xb7772dce3f1c38a5aec6fc717ac86a4976a9adbb0c05815d4b0d2aacaca6a550",
      "blockNumber": "0x1fd5f6b",
      "from": "0x7aF234d569aB6360693806D7e7f439Ec2114F93c",
      "to": "0x9b0cb6E1B1BbA871b2738f3CCd10eC5eCe8DaBa7",
      "cumulativeGasUsed": "0x10aa1b",
      "gasUsed": "0x1d297",
      "contractAddress": null,
      "logs": [],
      "status": "0x1",
      "logsBloom": "0x00000000000000000000000000000000000000000000000000000000000000000000000000000000000000000000000000000000000000000000000000000000000000000000000000000000000000000000000000000000000000000000000000000000000000000000000000000000000000000000000000000000000000000000000000000000000000000000000000000000000000000000000000000000000000000000000000000000000000000000000000000000000000000000000000000000000000000000000000000000000000000000000000000000000000000000000000000000000000000000000000000000000000000000000000000000",
      "type": "0x2",
      "effectiveGasPrice": "0x684ee1800"
    },
    {
      "transactionHash": "0xe3ff3e5adbd95fce67c8748345acca20832748307016e021c7d2d828a81716e3",
      "transactionIndex": "0x9",
      "blockHash": "0xb7772dce3f1c38a5aec6fc717ac86a4976a9adbb0c05815d4b0d2aacaca6a550",
      "blockNumber": "0x1fd5f6b",
      "from": "0x7aF234d569aB6360693806D7e7f439Ec2114F93c",
      "to": "0x9b0cb6E1B1BbA871b2738f3CCd10eC5eCe8DaBa7",
      "cumulativeGasUsed": "0x127cb2",
      "gasUsed": "0x1d297",
      "contractAddress": null,
      "logs": [],
      "status": "0x1",
      "logsBloom": "0x00000000000000000000000000000000000000000000000000000000000000000000000000000000000000000000000000000000000000000000000000000000000000000000000000000000000000000000000000000000000000000000000000000000000000000000000000000000000000000000000000000000000000000000000000000000000000000000000000000000000000000000000000000000000000000000000000000000000000000000000000000000000000000000000000000000000000000000000000000000000000000000000000000000000000000000000000000000000000000000000000000000000000000000000000000000",
      "type": "0x2",
      "effectiveGasPrice": "0x684ee1800"
    },
    {
      "transactionHash": "0x382fcfb89d910ab231b708bc59145af565ee5743b1f8f597bb989775225753d5",
      "transactionIndex": "0xa",
      "blockHash": "0xb7772dce3f1c38a5aec6fc717ac86a4976a9adbb0c05815d4b0d2aacaca6a550",
      "blockNumber": "0x1fd5f6b",
      "from": "0x7aF234d569aB6360693806D7e7f439Ec2114F93c",
      "to": "0x9b0cb6E1B1BbA871b2738f3CCd10eC5eCe8DaBa7",
      "cumulativeGasUsed": "0x149215",
      "gasUsed": "0x21563",
      "contractAddress": null,
      "logs": [],
      "status": "0x1",
      "logsBloom": "0x00000000000000000000000000000000000000000000000000000000000000000000000000000000000000000000000000000000000000000000000000000000000000000000000000000000000000000000000000000000000000000000000000000000000000000000000000000000000000000000000000000000000000000000000000000000000000000000000000000000000000000000000000000000000000000000000000000000000000000000000000000000000000000000000000000000000000000000000000000000000000000000000000000000000000000000000000000000000000000000000000000000000000000000000000000000",
      "type": "0x2",
      "effectiveGasPrice": "0x684ee1800"
    },
    {
      "transactionHash": "0x18b08ba992abcf579b526d76600d5a66bcbf2ac7f7f46684aa67787fc33f80e2",
      "transactionIndex": "0xb",
      "blockHash": "0xb7772dce3f1c38a5aec6fc717ac86a4976a9adbb0c05815d4b0d2aacaca6a550",
      "blockNumber": "0x1fd5f6b",
      "from": "0x7aF234d569aB6360693806D7e7f439Ec2114F93c",
      "to": "0x9b0cb6E1B1BbA871b2738f3CCd10eC5eCe8DaBa7",
      "cumulativeGasUsed": "0x1664ac",
      "gasUsed": "0x1d297",
      "contractAddress": null,
      "logs": [],
      "status": "0x1",
      "logsBloom": "0x00000000000000000000000000000000000000000000000000000000000000000000000000000000000000000000000000000000000000000000000000000000000000000000000000000000000000000000000000000000000000000000000000000000000000000000000000000000000000000000000000000000000000000000000000000000000000000000000000000000000000000000000000000000000000000000000000000000000000000000000000000000000000000000000000000000000000000000000000000000000000000000000000000000000000000000000000000000000000000000000000000000000000000000000000000000",
      "type": "0x2",
      "effectiveGasPrice": "0x684ee1800"
    },
    {
      "transactionHash": "0x0f904913d4d169c9d246e0f4e18767f90b7f4b3e5e98328dd23d9c4ff9446f89",
      "transactionIndex": "0xc",
      "blockHash": "0xb7772dce3f1c38a5aec6fc717ac86a4976a9adbb0c05815d4b0d2aacaca6a550",
      "blockNumber": "0x1fd5f6b",
      "from": "0x7aF234d569aB6360693806D7e7f439Ec2114F93c",
      "to": "0x9b0cb6E1B1BbA871b2738f3CCd10eC5eCe8DaBa7",
      "cumulativeGasUsed": "0x183743",
      "gasUsed": "0x1d297",
      "contractAddress": null,
      "logs": [],
      "status": "0x1",
      "logsBloom": "0x00000000000000000000000000000000000000000000000000000000000000000000000000000000000000000000000000000000000000000000000000000000000000000000000000000000000000000000000000000000000000000000000000000000000000000000000000000000000000000000000000000000000000000000000000000000000000000000000000000000000000000000000000000000000000000000000000000000000000000000000000000000000000000000000000000000000000000000000000000000000000000000000000000000000000000000000000000000000000000000000000000000000000000000000000000000",
      "type": "0x2",
      "effectiveGasPrice": "0x684ee1800"
    },
    {
      "transactionHash": "0xbea49274e2313f90748fb01ba1d36e0fd4fad9cfa352fa8c0247071b46b92c72",
      "transactionIndex": "0xd",
      "blockHash": "0xb7772dce3f1c38a5aec6fc717ac86a4976a9adbb0c05815d4b0d2aacaca6a550",
      "blockNumber": "0x1fd5f6b",
      "from": "0x7aF234d569aB6360693806D7e7f439Ec2114F93c",
      "to": "0x9b0cb6E1B1BbA871b2738f3CCd10eC5eCe8DaBa7",
      "cumulativeGasUsed": "0x1a09da",
      "gasUsed": "0x1d297",
      "contractAddress": null,
      "logs": [],
      "status": "0x1",
      "logsBloom": "0x00000000000000000000000000000000000000000000000000000000000000000000000000000000000000000000000000000000000000000000000000000000000000000000000000000000000000000000000000000000000000000000000000000000000000000000000000000000000000000000000000000000000000000000000000000000000000000000000000000000000000000000000000000000000000000000000000000000000000000000000000000000000000000000000000000000000000000000000000000000000000000000000000000000000000000000000000000000000000000000000000000000000000000000000000000000",
      "type": "0x2",
      "effectiveGasPrice": "0x684ee1800"
    },
    {
      "transactionHash": "0x387160d0b0c13e7e276a6cb79c47ec088b85e8ebf1b9894c96df153d3b96921a",
      "transactionIndex": "0xe",
      "blockHash": "0xb7772dce3f1c38a5aec6fc717ac86a4976a9adbb0c05815d4b0d2aacaca6a550",
      "blockNumber": "0x1fd5f6b",
      "from": "0x7aF234d569aB6360693806D7e7f439Ec2114F93c",
      "to": "0x9b0cb6E1B1BbA871b2738f3CCd10eC5eCe8DaBa7",
      "cumulativeGasUsed": "0x1bdc71",
      "gasUsed": "0x1d297",
      "contractAddress": null,
      "logs": [],
      "status": "0x1",
      "logsBloom": "0x00000000000000000000000000000000000000000000000000000000000000000000000000000000000000000000000000000000000000000000000000000000000000000000000000000000000000000000000000000000000000000000000000000000000000000000000000000000000000000000000000000000000000000000000000000000000000000000000000000000000000000000000000000000000000000000000000000000000000000000000000000000000000000000000000000000000000000000000000000000000000000000000000000000000000000000000000000000000000000000000000000000000000000000000000000000",
      "type": "0x2",
      "effectiveGasPrice": "0x684ee1800"
    },
    {
      "transactionHash": "0x0a6f02318e0e24a3dfc50e74271035e38e56191b56fe10886c73e8fdb073f516",
      "transactionIndex": "0xf",
      "blockHash": "0xb7772dce3f1c38a5aec6fc717ac86a4976a9adbb0c05815d4b0d2aacaca6a550",
      "blockNumber": "0x1fd5f6b",
      "from": "0x7aF234d569aB6360693806D7e7f439Ec2114F93c",
      "to": "0x9b0cb6E1B1BbA871b2738f3CCd10eC5eCe8DaBa7",
      "cumulativeGasUsed": "0x1daf08",
      "gasUsed": "0x1d297",
      "contractAddress": null,
      "logs": [],
      "status": "0x1",
      "logsBloom": "0x00000000000000000000000000000000000000000000000000000000000000000000000000000000000000000000000000000000000000000000000000000000000000000000000000000000000000000000000000000000000000000000000000000000000000000000000000000000000000000000000000000000000000000000000000000000000000000000000000000000000000000000000000000000000000000000000000000000000000000000000000000000000000000000000000000000000000000000000000000000000000000000000000000000000000000000000000000000000000000000000000000000000000000000000000000000",
      "type": "0x2",
      "effectiveGasPrice": "0x684ee1800"
    },
    {
      "transactionHash": "0xa6021947269d11415157b967978ed6ec8bb91e38de5aaed8c419f625d2bfb12a",
      "transactionIndex": "0x10",
      "blockHash": "0xb7772dce3f1c38a5aec6fc717ac86a4976a9adbb0c05815d4b0d2aacaca6a550",
      "blockNumber": "0x1fd5f6b",
      "from": "0x7aF234d569aB6360693806D7e7f439Ec2114F93c",
      "to": "0x9b0cb6E1B1BbA871b2738f3CCd10eC5eCe8DaBa7",
      "cumulativeGasUsed": "0x1f819f",
      "gasUsed": "0x1d297",
      "contractAddress": null,
      "logs": [],
      "status": "0x1",
      "logsBloom": "0x00000000000000000000000000000000000000000000000000000000000000000000000000000000000000000000000000000000000000000000000000000000000000000000000000000000000000000000000000000000000000000000000000000000000000000000000000000000000000000000000000000000000000000000000000000000000000000000000000000000000000000000000000000000000000000000000000000000000000000000000000000000000000000000000000000000000000000000000000000000000000000000000000000000000000000000000000000000000000000000000000000000000000000000000000000000",
      "type": "0x2",
      "effectiveGasPrice": "0x684ee1800"
    },
    {
      "transactionHash": "0x3748b2b702ac719a20a71df63c64fd27c503f95a9caa7a2060f2b09bc7a5ecff",
      "transactionIndex": "0x11",
      "blockHash": "0xb7772dce3f1c38a5aec6fc717ac86a4976a9adbb0c05815d4b0d2aacaca6a550",
      "blockNumber": "0x1fd5f6b",
      "from": "0x7aF234d569aB6360693806D7e7f439Ec2114F93c",
      "to": "0x9b0cb6E1B1BbA871b2738f3CCd10eC5eCe8DaBa7",
      "cumulativeGasUsed": "0x219702",
      "gasUsed": "0x21563",
      "contractAddress": null,
      "logs": [],
      "status": "0x1",
      "logsBloom": "0x00000000000000000000000000000000000000000000000000000000000000000000000000000000000000000000000000000000000000000000000000000000000000000000000000000000000000000000000000000000000000000000000000000000000000000000000000000000000000000000000000000000000000000000000000000000000000000000000000000000000000000000000000000000000000000000000000000000000000000000000000000000000000000000000000000000000000000000000000000000000000000000000000000000000000000000000000000000000000000000000000000000000000000000000000000000",
      "type": "0x2",
      "effectiveGasPrice": "0x684ee1800"
    },
    {
      "transactionHash": "0x583b0bf19aa8701251dfa32f09bf21f4e0c7caf0d02bf2fb62381966da4c5a43",
      "transactionIndex": "0x12",
      "blockHash": "0xb7772dce3f1c38a5aec6fc717ac86a4976a9adbb0c05815d4b0d2aacaca6a550",
      "blockNumber": "0x1fd5f6b",
      "from": "0x7aF234d569aB6360693806D7e7f439Ec2114F93c",
      "to": "0x9b0cb6E1B1BbA871b2738f3CCd10eC5eCe8DaBa7",
      "cumulativeGasUsed": "0x236999",
      "gasUsed": "0x1d297",
      "contractAddress": null,
      "logs": [],
      "status": "0x1",
      "logsBloom": "0x00000000000000000000000000000000000000000000000000000000000000000000000000000000000000000000000000000000000000000000000000000000000000000000000000000000000000000000000000000000000000000000000000000000000000000000000000000000000000000000000000000000000000000000000000000000000000000000000000000000000000000000000000000000000000000000000000000000000000000000000000000000000000000000000000000000000000000000000000000000000000000000000000000000000000000000000000000000000000000000000000000000000000000000000000000000",
      "type": "0x2",
      "effectiveGasPrice": "0x684ee1800"
    },
    {
      "transactionHash": "0x0d2d5e8ca08b15bb933560ef73d66134b6dbbab300439e109e6ed5380fc7b891",
      "transactionIndex": "0x13",
      "blockHash": "0xb7772dce3f1c38a5aec6fc717ac86a4976a9adbb0c05815d4b0d2aacaca6a550",
      "blockNumber": "0x1fd5f6b",
      "from": "0x7aF234d569aB6360693806D7e7f439Ec2114F93c",
      "to": "0x9b0cb6E1B1BbA871b2738f3CCd10eC5eCe8DaBa7",
      "cumulativeGasUsed": "0x253c30",
      "gasUsed": "0x1d297",
      "contractAddress": null,
      "logs": [],
      "status": "0x1",
      "logsBloom": "0x00000000000000000000000000000000000000000000000000000000000000000000000000000000000000000000000000000000000000000000000000000000000000000000000000000000000000000000000000000000000000000000000000000000000000000000000000000000000000000000000000000000000000000000000000000000000000000000000000000000000000000000000000000000000000000000000000000000000000000000000000000000000000000000000000000000000000000000000000000000000000000000000000000000000000000000000000000000000000000000000000000000000000000000000000000000",
      "type": "0x2",
      "effectiveGasPrice": "0x684ee1800"
    },
    {
      "transactionHash": "0xec241a5a1cca7eb5a7801c0e565c33d90f687d4155011552c4b43c207c5f77d3",
      "transactionIndex": "0x14",
      "blockHash": "0xb7772dce3f1c38a5aec6fc717ac86a4976a9adbb0c05815d4b0d2aacaca6a550",
      "blockNumber": "0x1fd5f6b",
      "from": "0x7aF234d569aB6360693806D7e7f439Ec2114F93c",
      "to": "0x9b0cb6E1B1BbA871b2738f3CCd10eC5eCe8DaBa7",
      "cumulativeGasUsed": "0x270ec7",
      "gasUsed": "0x1d297",
      "contractAddress": null,
      "logs": [],
      "status": "0x1",
      "logsBloom": "0x00000000000000000000000000000000000000000000000000000000000000000000000000000000000000000000000000000000000000000000000000000000000000000000000000000000000000000000000000000000000000000000000000000000000000000000000000000000000000000000000000000000000000000000000000000000000000000000000000000000000000000000000000000000000000000000000000000000000000000000000000000000000000000000000000000000000000000000000000000000000000000000000000000000000000000000000000000000000000000000000000000000000000000000000000000000",
      "type": "0x2",
      "effectiveGasPrice": "0x684ee1800"
    },
    {
      "transactionHash": "0x06a9cc9f6697c3ec02020080334d48086ec9c88cf5f83de45741da3ae7cf761e",
      "transactionIndex": "0x15",
      "blockHash": "0xb7772dce3f1c38a5aec6fc717ac86a4976a9adbb0c05815d4b0d2aacaca6a550",
      "blockNumber": "0x1fd5f6b",
      "from": "0x7aF234d569aB6360693806D7e7f439Ec2114F93c",
      "to": "0x9b0cb6E1B1BbA871b2738f3CCd10eC5eCe8DaBa7",
      "cumulativeGasUsed": "0x28e15e",
      "gasUsed": "0x1d297",
      "contractAddress": null,
      "logs": [],
      "status": "0x1",
      "logsBloom": "0x00000000000000000000000000000000000000000000000000000000000000000000000000000000000000000000000000000000000000000000000000000000000000000000000000000000000000000000000000000000000000000000000000000000000000000000000000000000000000000000000000000000000000000000000000000000000000000000000000000000000000000000000000000000000000000000000000000000000000000000000000000000000000000000000000000000000000000000000000000000000000000000000000000000000000000000000000000000000000000000000000000000000000000000000000000000",
      "type": "0x2",
      "effectiveGasPrice": "0x684ee1800"
    },
    {
      "transactionHash": "0x0333567cc693753117d74b4f12f5614ddce6245ed4280a34d3192bf3aaaad204",
      "transactionIndex": "0x16",
      "blockHash": "0xb7772dce3f1c38a5aec6fc717ac86a4976a9adbb0c05815d4b0d2aacaca6a550",
      "blockNumber": "0x1fd5f6b",
      "from": "0x7aF234d569aB6360693806D7e7f439Ec2114F93c",
      "to": "0x9b0cb6E1B1BbA871b2738f3CCd10eC5eCe8DaBa7",
      "cumulativeGasUsed": "0x2ab3f5",
      "gasUsed": "0x1d297",
      "contractAddress": null,
      "logs": [],
      "status": "0x1",
      "logsBloom": "0x00000000000000000000000000000000000000000000000000000000000000000000000000000000000000000000000000000000000000000000000000000000000000000000000000000000000000000000000000000000000000000000000000000000000000000000000000000000000000000000000000000000000000000000000000000000000000000000000000000000000000000000000000000000000000000000000000000000000000000000000000000000000000000000000000000000000000000000000000000000000000000000000000000000000000000000000000000000000000000000000000000000000000000000000000000000",
      "type": "0x2",
      "effectiveGasPrice": "0x684ee1800"
    },
    {
      "transactionHash": "0x7a89764993eb398f3142abaff2cfa59cee87c347c08be508232c4c39c9d4110f",
      "transactionIndex": "0x17",
      "blockHash": "0xb7772dce3f1c38a5aec6fc717ac86a4976a9adbb0c05815d4b0d2aacaca6a550",
      "blockNumber": "0x1fd5f6b",
      "from": "0x7aF234d569aB6360693806D7e7f439Ec2114F93c",
      "to": "0x9b0cb6E1B1BbA871b2738f3CCd10eC5eCe8DaBa7",
      "cumulativeGasUsed": "0x2c868c",
      "gasUsed": "0x1d297",
      "contractAddress": null,
      "logs": [],
      "status": "0x1",
      "logsBloom": "0x00000000000000000000000000000000000000000000000000000000000000000000000000000000000000000000000000000000000000000000000000000000000000000000000000000000000000000000000000000000000000000000000000000000000000000000000000000000000000000000000000000000000000000000000000000000000000000000000000000000000000000000000000000000000000000000000000000000000000000000000000000000000000000000000000000000000000000000000000000000000000000000000000000000000000000000000000000000000000000000000000000000000000000000000000000000",
      "type": "0x2",
      "effectiveGasPrice": "0x684ee1800"
    },
    {
      "transactionHash": "0x63effa7ed510b6a5d380986617d0344a44ec8e8bae662d4df98642b451352e7e",
      "transactionIndex": "0x18",
      "blockHash": "0xb7772dce3f1c38a5aec6fc717ac86a4976a9adbb0c05815d4b0d2aacaca6a550",
      "blockNumber": "0x1fd5f6b",
      "from": "0x7aF234d569aB6360693806D7e7f439Ec2114F93c",
      "to": "0x9b0cb6E1B1BbA871b2738f3CCd10eC5eCe8DaBa7",
      "cumulativeGasUsed": "0x2e4074",
      "gasUsed": "0x1b9e8",
      "contractAddress": null,
      "logs": [],
      "status": "0x1",
      "logsBloom": "0x00000000000000000000000000000000000000000000000000000000000000000000000000000000000000000000000000000000000000000000000000000000000000000000000000000000000000000000000000000000000000000000000000000000000000000000000000000000000000000000000000000000000000000000000000000000000000000000000000000000000000000000000000000000000000000000000000000000000000000000000000000000000000000000000000000000000000000000000000000000000000000000000000000000000000000000000000000000000000000000000000000000000000000000000000000000",
      "type": "0x2",
      "effectiveGasPrice": "0x684ee1800"
    },
    {
      "transactionHash": "0x7782a529d92cbe5d072fb042f99c5939725fad6505b7ed141d51a53b5a9c2006",
      "transactionIndex": "0x19",
      "blockHash": "0xb7772dce3f1c38a5aec6fc717ac86a4976a9adbb0c05815d4b0d2aacaca6a550",
      "blockNumber": "0x1fd5f6b",
      "from": "0x7aF234d569aB6360693806D7e7f439Ec2114F93c",
      "to": "0x9b0cb6E1B1BbA871b2738f3CCd10eC5eCe8DaBa7",
      "cumulativeGasUsed": "0x2fb790",
      "gasUsed": "0x1771c",
      "contractAddress": null,
      "logs": [],
      "status": "0x1",
      "logsBloom": "0x00000000000000000000000000000000000000000000000000000000000000000000000000000000000000000000000000000000000000000000000000000000000000000000000000000000000000000000000000000000000000000000000000000000000000000000000000000000000000000000000000000000000000000000000000000000000000000000000000000000000000000000000000000000000000000000000000000000000000000000000000000000000000000000000000000000000000000000000000000000000000000000000000000000000000000000000000000000000000000000000000000000000000000000000000000000",
      "type": "0x2",
      "effectiveGasPrice": "0x684ee1800"
    },
    {
      "transactionHash": "0x8cd12756e4a298aec4ba39860d69d45a5f80d243685d94faa3742d7f2a44bfcd",
      "transactionIndex": "0x1a",
      "blockHash": "0xb7772dce3f1c38a5aec6fc717ac86a4976a9adbb0c05815d4b0d2aacaca6a550",
      "blockNumber": "0x1fd5f6b",
      "from": "0x7aF234d569aB6360693806D7e7f439Ec2114F93c",
      "to": "0x9b0cb6E1B1BbA871b2738f3CCd10eC5eCe8DaBa7",
      "cumulativeGasUsed": "0x312eac",
      "gasUsed": "0x1771c",
      "contractAddress": null,
      "logs": [],
      "status": "0x1",
      "logsBloom": "0x00000000000000000000000000000000000000000000000000000000000000000000000000000000000000000000000000000000000000000000000000000000000000000000000000000000000000000000000000000000000000000000000000000000000000000000000000000000000000000000000000000000000000000000000000000000000000000000000000000000000000000000000000000000000000000000000000000000000000000000000000000000000000000000000000000000000000000000000000000000000000000000000000000000000000000000000000000000000000000000000000000000000000000000000000000000",
      "type": "0x2",
      "effectiveGasPrice": "0x684ee1800"
    },
    {
      "transactionHash": "0x70b264a8535da4231cf75231c204416bcbaf62c003ad3107dfa0fa1c997237ea",
      "transactionIndex": "0x1b",
      "blockHash": "0xb7772dce3f1c38a5aec6fc717ac86a4976a9adbb0c05815d4b0d2aacaca6a550",
      "blockNumber": "0x1fd5f6b",
      "from": "0x7aF234d569aB6360693806D7e7f439Ec2114F93c",
      "to": "0x9b0cb6E1B1BbA871b2738f3CCd10eC5eCe8DaBa7",
      "cumulativeGasUsed": "0x32a5c8",
      "gasUsed": "0x1771c",
      "contractAddress": null,
      "logs": [],
      "status": "0x1",
      "logsBloom": "0x00000000000000000000000000000000000000000000000000000000000000000000000000000000000000000000000000000000000000000000000000000000000000000000000000000000000000000000000000000000000000000000000000000000000000000000000000000000000000000000000000000000000000000000000000000000000000000000000000000000000000000000000000000000000000000000000000000000000000000000000000000000000000000000000000000000000000000000000000000000000000000000000000000000000000000000000000000000000000000000000000000000000000000000000000000000",
      "type": "0x2",
      "effectiveGasPrice": "0x684ee1800"
    },
    {
      "transactionHash": "0x684a6048e7140d4060050ad11a6df42d83bfaef2330e874d78a1c4c56476ddd0",
      "transactionIndex": "0x1c",
      "blockHash": "0xb7772dce3f1c38a5aec6fc717ac86a4976a9adbb0c05815d4b0d2aacaca6a550",
      "blockNumber": "0x1fd5f6b",
      "from": "0x7aF234d569aB6360693806D7e7f439Ec2114F93c",
      "to": "0x9b0cb6E1B1BbA871b2738f3CCd10eC5eCe8DaBa7",
      "cumulativeGasUsed": "0x341ce4",
      "gasUsed": "0x1771c",
      "contractAddress": null,
      "logs": [],
      "status": "0x1",
      "logsBloom": "0x00000000000000000000000000000000000000000000000000000000000000000000000000000000000000000000000000000000000000000000000000000000000000000000000000000000000000000000000000000000000000000000000000000000000000000000000000000000000000000000000000000000000000000000000000000000000000000000000000000000000000000000000000000000000000000000000000000000000000000000000000000000000000000000000000000000000000000000000000000000000000000000000000000000000000000000000000000000000000000000000000000000000000000000000000000000",
      "type": "0x2",
      "effectiveGasPrice": "0x684ee1800"
    },
    {
      "transactionHash": "0x815d347e280c34862bfe7758d9c1e12ad6ff9211466a0c45650203010d529f1e",
      "transactionIndex": "0x1d",
      "blockHash": "0xb7772dce3f1c38a5aec6fc717ac86a4976a9adbb0c05815d4b0d2aacaca6a550",
      "blockNumber": "0x1fd5f6b",
      "from": "0x7aF234d569aB6360693806D7e7f439Ec2114F93c",
      "to": "0x9b0cb6E1B1BbA871b2738f3CCd10eC5eCe8DaBa7",
      "cumulativeGasUsed": "0x359400",
      "gasUsed": "0x1771c",
      "contractAddress": null,
      "logs": [],
      "status": "0x1",
      "logsBloom": "0x00000000000000000000000000000000000000000000000000000000000000000000000000000000000000000000000000000000000000000000000000000000000000000000000000000000000000000000000000000000000000000000000000000000000000000000000000000000000000000000000000000000000000000000000000000000000000000000000000000000000000000000000000000000000000000000000000000000000000000000000000000000000000000000000000000000000000000000000000000000000000000000000000000000000000000000000000000000000000000000000000000000000000000000000000000000",
      "type": "0x2",
      "effectiveGasPrice": "0x684ee1800"
    },
    {
      "transactionHash": "0x503c216ac4c4f634f0b126d3ee65488a5fdc6e5e0f3450da326dcc4785b1df2b",
      "transactionIndex": "0x1e",
      "blockHash": "0xb7772dce3f1c38a5aec6fc717ac86a4976a9adbb0c05815d4b0d2aacaca6a550",
      "blockNumber": "0x1fd5f6b",
      "from": "0x7aF234d569aB6360693806D7e7f439Ec2114F93c",
      "to": "0x9b0cb6E1B1BbA871b2738f3CCd10eC5eCe8DaBa7",
      "cumulativeGasUsed": "0x3648f2",
      "gasUsed": "0xb4f2",
      "contractAddress": null,
      "logs": [],
      "status": "0x1",
      "logsBloom": "0x00000000000000000000000000000000000000000000000000000000000000000000000000000000000000000000000000000000000000000000000000000000000000000000000000000000000000000000000000000000000000000000000000000000000000000000000000000000000000000000000000000000000000000000000000000000000000000000000000000000000000000000000000000000000000000000000000000000000000000000000000000000000000000000000000000000000000000000000000000000000000000000000000000000000000000000000000000000000000000000000000000000000000000000000000000000",
      "type": "0x2",
      "effectiveGasPrice": "0x684ee1800"
    },
    {
      "transactionHash": "0x26026a485e336d13b0a71bc027f7bc871a497da9679d6fec0e89099dad4ddbcd",
      "transactionIndex": "0x1f",
      "blockHash": "0xb7772dce3f1c38a5aec6fc717ac86a4976a9adbb0c05815d4b0d2aacaca6a550",
      "blockNumber": "0x1fd5f6b",
      "from": "0x7aF234d569aB6360693806D7e7f439Ec2114F93c",
      "to": "0x9b0cb6E1B1BbA871b2738f3CCd10eC5eCe8DaBa7",
      "cumulativeGasUsed": "0x36fde4",
      "gasUsed": "0xb4f2",
      "contractAddress": null,
      "logs": [],
      "status": "0x1",
      "logsBloom": "0x00000000000000000000000000000000000000000000000000000000000000000000000000000000000000000000000000000000000000000000000000000000000000000000000000000000000000000000000000000000000000000000000000000000000000000000000000000000000000000000000000000000000000000000000000000000000000000000000000000000000000000000000000000000000000000000000000000000000000000000000000000000000000000000000000000000000000000000000000000000000000000000000000000000000000000000000000000000000000000000000000000000000000000000000000000000",
      "type": "0x2",
      "effectiveGasPrice": "0x684ee1800"
    },
    {
      "transactionHash": "0x1ad5121610a946555d91cb539f7e0bf9737d76c270314d987b46ee7969584462",
      "transactionIndex": "0x20",
      "blockHash": "0xb7772dce3f1c38a5aec6fc717ac86a4976a9adbb0c05815d4b0d2aacaca6a550",
      "blockNumber": "0x1fd5f6b",
      "from": "0x7aF234d569aB6360693806D7e7f439Ec2114F93c",
      "to": "0x9b0cb6E1B1BbA871b2738f3CCd10eC5eCe8DaBa7",
      "cumulativeGasUsed": "0x37b2d6",
      "gasUsed": "0xb4f2",
      "contractAddress": null,
      "logs": [],
      "status": "0x1",
      "logsBloom": "0x00000000000000000000000000000000000000000000000000000000000000000000000000000000000000000000000000000000000000000000000000000000000000000000000000000000000000000000000000000000000000000000000000000000000000000000000000000000000000000000000000000000000000000000000000000000000000000000000000000000000000000000000000000000000000000000000000000000000000000000000000000000000000000000000000000000000000000000000000000000000000000000000000000000000000000000000000000000000000000000000000000000000000000000000000000000",
      "type": "0x2",
      "effectiveGasPrice": "0x684ee1800"
    },
    {
      "transactionHash": "0xd6f6476d90e11ddc13fa9def21de1c9060486d3b6b27a9c8a6f5b48bf6ce9325",
      "transactionIndex": "0x21",
      "blockHash": "0xb7772dce3f1c38a5aec6fc717ac86a4976a9adbb0c05815d4b0d2aacaca6a550",
      "blockNumber": "0x1fd5f6b",
      "from": "0x7aF234d569aB6360693806D7e7f439Ec2114F93c",
      "to": "0x9b0cb6E1B1BbA871b2738f3CCd10eC5eCe8DaBa7",
      "cumulativeGasUsed": "0x3867c8",
      "gasUsed": "0xb4f2",
      "contractAddress": null,
      "logs": [],
      "status": "0x1",
      "logsBloom": "0x00000000000000000000000000000000000000000000000000000000000000000000000000000000000000000000000000000000000000000000000000000000000000000000000000000000000000000000000000000000000000000000000000000000000000000000000000000000000000000000000000000000000000000000000000000000000000000000000000000000000000000000000000000000000000000000000000000000000000000000000000000000000000000000000000000000000000000000000000000000000000000000000000000000000000000000000000000000000000000000000000000000000000000000000000000000",
      "type": "0x2",
      "effectiveGasPrice": "0x684ee1800"
    },
    {
      "transactionHash": "0xfe8605de591d7ef33320a5901b5efa9f1a9ffa3f9b2fc77f4eb22627b75ed2a6",
      "transactionIndex": "0x22",
      "blockHash": "0xb7772dce3f1c38a5aec6fc717ac86a4976a9adbb0c05815d4b0d2aacaca6a550",
      "blockNumber": "0x1fd5f6b",
      "from": "0x7aF234d569aB6360693806D7e7f439Ec2114F93c",
      "to": "0x9b0cb6E1B1BbA871b2738f3CCd10eC5eCe8DaBa7",
      "cumulativeGasUsed": "0x391cba",
      "gasUsed": "0xb4f2",
      "contractAddress": null,
      "logs": [],
      "status": "0x1",
      "logsBloom": "0x00000000000000000000000000000000000000000000000000000000000000000000000000000000000000000000000000000000000000000000000000000000000000000000000000000000000000000000000000000000000000000000000000000000000000000000000000000000000000000000000000000000000000000000000000000000000000000000000000000000000000000000000000000000000000000000000000000000000000000000000000000000000000000000000000000000000000000000000000000000000000000000000000000000000000000000000000000000000000000000000000000000000000000000000000000000",
      "type": "0x2",
      "effectiveGasPrice": "0x684ee1800"
    },
    {
      "transactionHash": "0x58b5cc98add00da9dd121a60680aa239204d282c015ca3bc8421686ea09a6fb6",
      "transactionIndex": "0x0",
      "blockHash": "0xd994d00ee2fa062b1f34a94033713400c663b87beb71457bbe6e13c0e2fa432e",
      "blockNumber": "0x1fd5f6c",
      "from": "0x7aF234d569aB6360693806D7e7f439Ec2114F93c",
      "to": "0x9b0cb6E1B1BbA871b2738f3CCd10eC5eCe8DaBa7",
      "cumulativeGasUsed": "0xb4f2",
      "gasUsed": "0xb4f2",
      "contractAddress": null,
      "logs": [],
      "status": "0x1",
      "logsBloom": "0x00000000000000000000000000000000000000000000000000000000000000000000000000000000000000000000000000000000000000000000000000000000000000000000000000000000000000000000000000000000000000000000000000000000000000000000000000000000000000000000000000000000000000000000000000000000000000000000000000000000000000000000000000000000000000000000000000000000000000000000000000000000000000000000000000000000000000000000000000000000000000000000000000000000000000000000000000000000000000000000000000000000000000000000000000000000",
      "type": "0x2",
      "effectiveGasPrice": "0x684ee1800"
    }
  ],
  "libraries": [
    "src/library/OracleLib.sol:OracleLib:0x4df4573f5e3ea8134a96871bd38ed129f5021a59"
  ],
  "pending": [],
  "returns": {
    "mainRouter": {
      "internal_type": "contract MainRouter",
      "value": "0x9b0cb6E1B1BbA871b2738f3CCd10eC5eCe8DaBa7"
    }
  },
  "timestamp": 1716704379,
  "chain": 43113,
  "multi": false,
  "commit": "d904af2"
}