{
  "transactions": [
    {
      "hash": "0x6a454c27265dd49c31ee8ca15ae5fd12ca3c4ec44d08ecf4c0ec2f24eb67e083",
      "transactionType": "CREATE",
      "contractName": "Depositor",
      "contractAddress": "0xA2696CD53F0E8c8Fdc2D2fd842C7670ba0662794",
      "function": null,
      "arguments": [
        "10344971235874465080",
        "0xD3b06cEbF099CE7DA4AcCf578aaebFDBd6e88a93",
        "14767482510784806043",
        "0xF7be8E30E35bf739e9e63B5D334D91de34cEFA8D"
      ],
      "transaction": {
        "type": "0x02",
        "from": "0x7af234d569ab6360693806d7e7f439ec2114f93c",
        "gas": "0x2b5cce",
        "value": "0x0",
        "data": "0x60a06040526207a120600b55620f4240600c553480156200001f57600080fd5b506040516200268f3803806200268f833981016040819052620000429162000190565b838333816001600160a01b03811662000076576040516335fdcccd60e21b8152600060048201526024015b60405180910390fd5b6001600160a01b039081166080528116620000a857604051631e4fbdf760e01b8152600060048201526024016200006d565b620000b3816200010b565b5050600680546001600160401b039283166001600160401b0319909116179055600a805493909116600160a01b026001600160e01b03199093166001600160a01b039092169190911791909117905550620001ed9050565b600080546001600160a01b038381166001600160a01b0319831681178455604051919092169283917f8be0079c531659141344cd1fd0a4f28419497f9722a3daafe3b4186f6b6457e09190a35050565b80516001600160401b03811681146200017357600080fd5b919050565b80516001600160a01b03811681146200017357600080fd5b60008060008060808587031215620001a757600080fd5b620001b2856200015b565b9350620001c26020860162000178565b9250620001d2604086016200015b565b9150620001e26060860162000178565b905092959194509250565b60805161246a620002256000396000818161067601528181610d9601528181610ec70152818161101c01526112e1015261246a6000f3fe6080604052600436106101e75760003560e01c8063678aa2b7116101025780638aaa228411610095578063a782537311610064578063a782537314610647578063b0f479a114610667578063d920223c1461069a578063f2fde38b146106ba57600080fd5b80638aaa2284146105975780638d1f0afa146105b75780638da5cb5b146105f05780639719501f1461060e57600080fd5b80637e72ffa6116100d15780637e72ffa6146104f35780637f776ade1461051157806385572ffb1461053157806387c0cc4f1461055157600080fd5b8063678aa2b71461044f5780636aa673db1461046f5780636e543d70146104a5578063715018a6146104de57600080fd5b806347e7ef241161017a5780635b091875116101495780635b091875146103b45780635d9a2c48146103d6578063628c97fc146103f657806364e43bb91461042f57600080fd5b806347e7ef241461034c5780634b52ffb01461035f57806351425e951461037f57806352cf518b1461039f57600080fd5b806315abb12f116101b657806315abb12f146102c157806319ad863e146102d45780632374d710146102f45780632d373cab1461032d57600080fd5b806301ffc9a7146102185780630e6dfcd51461024d5780631165b26a1461026f5780631572823c146102a157600080fd5b3661021357336000908152600860205260408120805434929061020b908490611bcb565b925050819055005b600080fd5b34801561022457600080fd5b50610238610233366004611bde565b6106da565b60405190151581526020015b60405180910390f35b34801561025957600080fd5b5061026d610268366004611c1d565b610711565b005b34801561027b57600080fd5b50600a546001600160a01b03165b6040516001600160a01b039091168152602001610244565b3480156102ad57600080fd5b5061026d6102bc366004611c88565b61074f565b61026d6102cf366004611cbf565b6107b5565b3480156102e057600080fd5b5061026d6102ef366004611d18565b610989565b34801561030057600080fd5b50600a54600160a01b90046001600160401b03165b6040516001600160401b039091168152602001610244565b34801561033957600080fd5b50600c545b604051908152602001610244565b61026d61035a366004611d35565b6109b3565b34801561036b57600080fd5b5061026d61037a366004611d61565b610b6e565b34801561038b57600080fd5b5061026d61039a366004611d7f565b610ba1565b3480156103ab57600080fd5b50600b5461033e565b3480156103c057600080fd5b506103c9610bae565b6040516102449190611d98565b3480156103e257600080fd5b5061026d6103f1366004611c88565b610c5d565b34801561040257600080fd5b50610238610411366004611de5565b6001600160401b031660009081526003602052604090205460ff1690565b34801561043b57600080fd5b5061026d61044a366004611d7f565b610c90565b34801561045b57600080fd5b5061026d61046a366004611de5565b610c9d565b34801561047b57600080fd5b5061033e61048a366004611d18565b6001600160a01b031660009081526008602052604090205490565b3480156104b157600080fd5b506102386104c0366004611d18565b6001600160a01b031660009081526009602052604090205460ff1690565b3480156104ea57600080fd5b5061026d610cd2565b3480156104ff57600080fd5b506006546001600160401b0316610315565b34801561051d57600080fd5b5061026d61052c366004611d7f565b610ce6565b34801561053d57600080fd5b5061026d61054c366004611e00565b610d8b565b34801561055d57600080fd5b5061033e61056c366004611e3a565b6001600160a01b03918216600090815260076020908152604080832093909416825291909152205490565b3480156105a357600080fd5b5061026d6105b2366004611d61565b610dea565b3480156105c357600080fd5b506102386105d2366004611de5565b6001600160401b031660009081526004602052604090205460ff1690565b3480156105fc57600080fd5b506000546001600160a01b0316610289565b34801561061a57600080fd5b50610238610629366004611d18565b6001600160a01b031660009081526005602052604090205460ff1690565b34801561065357600080fd5b5061033e610662366004611d35565b610e1d565b34801561067357600080fd5b507f0000000000000000000000000000000000000000000000000000000000000000610289565b3480156106a657600080fd5b5061033e6106b5366004611cbf565b610f78565b3480156106c657600080fd5b5061026d6106d5366004611d18565b6110d2565b60006001600160e01b031982166385572ffb60e01b148061070b57506001600160e01b031982166301ffc9a760e01b145b92915050565b600a5433906001600160a01b0316811461073e57604051631eb49d6d60e11b815260040160405180910390fd5b61074984848461110d565b50505050565b6107576111a4565b6001600160401b0382166000908152600360205260409020805460ff1916821580159190911790915561079d5761079860016001600160401b0384166111d1565b505050565b61079860016001600160401b0384166111e4565b5050565b6001600160a01b038516600090815260096020526040902054859060ff16610800576040516306c942d160e11b81526001600160a01b03821660048201526024015b60405180910390fd5b336000908152600860205260408120805434929061081f908490611bcb565b9091555061083090503387876111f0565b600a546006546001600160401b03600160a01b90920482169116036109215760405185906001600160a01b0388169033907f5548c837ab068cf56a2c2479df0882a4922fd203edb7517321831d95078c5f6290600090a4600a5460065460405163748cbf7f60e11b81523360048201526001600160401b0391821660248201526001600160a01b03898116604483015260648201899052918716608482015285821660a482015260c4810185905291169063e9197efe9060e401600060405180830381600087803b15801561090457600080fd5b505af1158015610918573d6000803e3d6000fd5b50505050610981565b6000600233888888888860405160200161094096959493929190611e68565b60408051601f198184030181529082905261095e9291602001611f12565b604051602081830303815290604052905061097e33888884600c54611246565b50505b505050505050565b6109916111a4565b600a80546001600160a01b0319166001600160a01b0392909216919091179055565b6001600160a01b038216600090815260096020526040902054829060ff166109f9576040516306c942d160e11b81526001600160a01b03821660048201526024016107f7565b3360009081526008602052604081208054349290610a18908490611bcb565b90915550610a2990503384846111f0565b600a546006546001600160401b03600160a01b9092048216911603610b0457600a54600654604051631df999a360e11b81523360048201526001600160401b0390911660248201526001600160a01b0385811660448301526064820185905290911690633bf3334690608401600060405180830381600087803b158015610aaf57600080fd5b505af1158015610ac3573d6000803e3d6000fd5b50506040518492506001600160a01b038616915033907f5548c837ab068cf56a2c2479df0882a4922fd203edb7517321831d95078c5f6290600090a4505050565b604080513360208201526001600160a01b0385168183015260608082018590528251808303909101815260808201909252600091610b479183919060a001611f12565b6040516020818303038152906040529050610b6733858584600b54611246565b5050505050565b610b766111a4565b6001600160a01b03919091166000908152600560205260409020805460ff1916911515919091179055565b610ba96111a4565b600c55565b60606000610bbc60016114ec565b90506000816001600160401b03811115610bd857610bd8611f49565b604051908082528060200260200182016040528015610c01578160200160208202803683370190505b50905060005b82811015610c5657610c1a6001826114f6565b828281518110610c2c57610c2c611f5f565b6001600160401b039092166020928302919091019091015280610c4e81611f75565b915050610c07565b5092915050565b610c656111a4565b6001600160401b03919091166000908152600460205260409020805460ff1916911515919091179055565b610c986111a4565b600b55565b610ca56111a4565b600a80546001600160401b03909216600160a01b0267ffffffffffffffff60a01b19909216919091179055565b610cda6111a4565b610ce46000611502565b565b33600090815260086020526040902054811115610d3a5760405162461bcd60e51b81526020600482015260126024820152714e6f7420656e6f756768206665652070617960701b60448201526064016107f7565b3360009081526008602052604081208054839290610d59908490611f8e565b9091555050604051339082156108fc029083906000818181858888f193505050501580156107b1573d6000803e3d6000fd5b336001600160a01b037f00000000000000000000000000000000000000000000000000000000000000001614610dd6576040516335fdcccd60e21b81523360048201526024016107f7565b610de7610de282612144565b611552565b50565b610df26111a4565b6001600160a01b03919091166000908152600960205260409020805460ff1916911515919091179055565b600a546006546000916001600160401b03600160a01b9091048116911603610e475750600061070b565b604080513360208201526001600160a01b0385168183015260608082018590528251808303909101815260808201909252600091610e8a9183919060a001611f12565b60405160208183030381529060405290506000610ec1600a60009054906101000a90046001600160a01b0316836000600b546116a5565b905060007f0000000000000000000000000000000000000000000000000000000000000000600a546040516320487ded60e01b81529192506000916001600160a01b038416916320487ded91610f2c91600160a01b90046001600160401b03169087906004016121f0565b602060405180830381865afa158015610f49573d6000803e3d6000fd5b505050506040513d601f19601f82011682018060405250810190610f6d91906122c9565b979650505050505050565b600a546006546000916001600160401b03600160a01b9091048116911603610fa2575060006110c9565b60006002338888888888604051602001610fc196959493929190611e68565b60408051601f1981840301815290829052610fdf9291602001611f12565b60405160208183030381529060405290506000611016600a60009054906101000a90046001600160a01b0316836000600b546116a5565b905060007f0000000000000000000000000000000000000000000000000000000000000000600a546040516320487ded60e01b81529192506000916001600160a01b038416916320487ded9161108191600160a01b90046001600160401b03169087906004016121f0565b602060405180830381865afa15801561109e573d6000803e3d6000fd5b505050506040513d601f19601f820116820180604052508101906110c291906122c9565b9450505050505b95945050505050565b6110da6111a4565b6001600160a01b03811661110457604051631e4fbdf760e01b8152600060048201526024016107f7565b610de781611502565b6001600160a01b038216600090815260096020526040902054829060ff16611153576040516306c942d160e11b81526001600160a01b03821660048201526024016107f7565b6001600160a01b0380851660009081526007602090815260408083209387168352929052908120805484929061118a908490611f8e565b9091555061074990506001600160a01b03841685846117c9565b6000546001600160a01b03163314610ce45760405163118cdaa760e01b81523360048201526024016107f7565b60006111dd838361182c565b9392505050565b60006111dd838361187b565b6112056001600160a01b03831684308461196e565b6001600160a01b0380841660009081526007602090815260408083209386168352929052908120805483929061123c908490611bcb565b9091555050505050565b600a54600160a01b90046001600160401b031660008181526003602052604081205490919060ff1661129657604051630a503cdb60e01b81526001600160401b03821660048201526024016107f7565b600a546001600160a01b0316806112c05760405163502ffa3f60e11b815260040160405180910390fd5b600a546000906112db906001600160a01b03168783886116a5565b905060007f0000000000000000000000000000000000000000000000000000000000000000600a546040516320487ded60e01b81529192506000916001600160a01b038416916320487ded9161134691600160a01b90046001600160401b03169087906004016121f0565b602060405180830381865afa158015611363573d6000803e3d6000fd5b505050506040513d601f19601f8201168201806040525081019061138791906122c9565b6001600160a01b038c166000908152600860205260409020549091508111156113e8576001600160a01b038b166000908152600860205260409081902054905163d44547cd60e01b81526004810191909152602481018290526044016107f7565b6001600160a01b038b1660009081526008602052604081208054839290611410908490611f8e565b9091555050600a546040516396f4e9f960e01b81526001600160a01b038416916396f4e9f991849161145891600160a01b9091046001600160401b03169088906004016121f0565b60206040518083038185885af1158015611476573d6000803e3d6000fd5b50505050506040513d601f19601f8201168201806040525081019061149b91906122c9565b9550888a6001600160a01b03168c6001600160a01b03167f5548c837ab068cf56a2c2479df0882a4922fd203edb7517321831d95078c5f6260405160405180910390a4505050505095945050505050565b600061070b825490565b60006111dd83836119a6565b600080546001600160a01b038381166001600160a01b0319831681178455604051919092169283917f8be0079c531659141344cd1fd0a4f28419497f9722a3daafe3b4186f6b6457e09190a35050565b8060200151816040015180602001905181019061156f91906122e2565b6001600160401b03821660009081526004602052604090205460ff166115b3576040516326bfad9160e21b81526001600160401b03831660048201526024016107f7565b6001600160a01b03811660009081526005602052604090205460ff166115f7576040516338c08ef960e11b81526001600160a01b03821660048201526024016107f7565b600080846060015180602001905181019061161291906122ff565b9092509050600082600181111561162b5761162b611eac565b03610b6757600080600083806020019051810190611649919061238f565b92509250925061165a83838361110d565b80826001600160a01b0316846001600160a01b03167fd12200efa34901b99367694174c3b0d32c99585fdf37c7c26892136ddd0836d960405160405180910390a45050505050505050565b6116e06040518060a0016040528060608152602001606081526020016060815260200160006001600160a01b03168152602001606081525090565b6040805160a081019091526001600160a01b03861660c08201528060e0810160408051808303601f190181529181529082526020808301889052815160008082529181018352929091019190611758565b60408051808201909152600080825260208201528152602001906001900390816117315790505b508152602001846001600160a01b031681526020016117bc60405180602001604052808681525060408051915160248084019190915281518084039091018152604490920190526020810180516001600160e01b03166397a657c960e01b17905290565b905290505b949350505050565b6040516001600160a01b03831660248201526044810182905261079890849063a9059cbb60e01b906064015b60408051601f198184030181529190526020810180516001600160e01b03166001600160e01b0319909316929092179091526119d0565b60008181526001830160205260408120546118735750815460018181018455600084815260208082209093018490558454848252828601909352604090209190915561070b565b50600061070b565b6000818152600183016020526040812054801561196457600061189f600183611f8e565b85549091506000906118b390600190611f8e565b90508082146119185760008660000182815481106118d3576118d3611f5f565b90600052602060002001549050808760000184815481106118f6576118f6611f5f565b6000918252602080832090910192909255918252600188019052604090208390555b8554869080611929576119296123d2565b60019003818190600052602060002001600090559055856001016000868152602001908152602001600020600090556001935050505061070b565b600091505061070b565b6040516001600160a01b03808516602483015283166044820152606481018290526107499085906323b872dd60e01b906084016117f5565b60008260000182815481106119bd576119bd611f5f565b9060005260206000200154905092915050565b6000611a25826040518060400160405280602081526020017f5361666545524332303a206c6f772d6c6576656c2063616c6c206661696c6564815250856001600160a01b0316611aa29092919063ffffffff16565b8051909150156107985780806020019051810190611a4391906123e8565b6107985760405162461bcd60e51b815260206004820152602a60248201527f5361666545524332303a204552433230206f7065726174696f6e20646964206e6044820152691bdd081cdd58d8d9595960b21b60648201526084016107f7565b60606117c1848460008585600080866001600160a01b03168587604051611ac99190612405565b60006040518083038185875af1925050503d8060008114611b06576040519150601f19603f3d011682016040523d82523d6000602084013e611b0b565b606091505b5091509150610f6d8783838760608315611b86578251600003611b7f576001600160a01b0385163b611b7f5760405162461bcd60e51b815260206004820152601d60248201527f416464726573733a2063616c6c20746f206e6f6e2d636f6e747261637400000060448201526064016107f7565b50816117c1565b6117c18383815115611b9b5781518083602001fd5b8060405162461bcd60e51b81526004016107f79190612421565b634e487b7160e01b600052601160045260246000fd5b8082018082111561070b5761070b611bb5565b600060208284031215611bf057600080fd5b81356001600160e01b0319811681146111dd57600080fd5b6001600160a01b0381168114610de757600080fd5b600080600060608486031215611c3257600080fd5b8335611c3d81611c08565b92506020840135611c4d81611c08565b929592945050506040919091013590565b80356001600160401b0381168114611c7557600080fd5b919050565b8015158114610de757600080fd5b60008060408385031215611c9b57600080fd5b611ca483611c5e565b91506020830135611cb481611c7a565b809150509250929050565b600080600080600060a08688031215611cd757600080fd5b8535611ce281611c08565b945060208601359350611cf760408701611c5e565b92506060860135611d0781611c08565b949793965091946080013592915050565b600060208284031215611d2a57600080fd5b81356111dd81611c08565b60008060408385031215611d4857600080fd5b8235611d5381611c08565b946020939093013593505050565b60008060408385031215611d7457600080fd5b8235611ca481611c08565b600060208284031215611d9157600080fd5b5035919050565b6020808252825182820181905260009190848201906040850190845b81811015611dd95783516001600160401b031683529284019291840191600101611db4565b50909695505050505050565b600060208284031215611df757600080fd5b6111dd82611c5e565b600060208284031215611e1257600080fd5b81356001600160401b03811115611e2857600080fd5b820160a081850312156111dd57600080fd5b60008060408385031215611e4d57600080fd5b8235611e5881611c08565b91506020830135611cb481611c08565b6001600160a01b039687168152948616602086015260408501939093526001600160401b03919091166060840152909216608082015260a081019190915260c00190565b634e487b7160e01b600052602160045260246000fd5b60005b83811015611edd578181015183820152602001611ec5565b50506000910152565b60008151808452611efe816020860160208601611ec2565b601f01601f19169290920160200192915050565b600060048410611f3257634e487b7160e01b600052602160045260246000fd5b838252604060208301526117c16040830184611ee6565b634e487b7160e01b600052604160045260246000fd5b634e487b7160e01b600052603260045260246000fd5b600060018201611f8757611f87611bb5565b5060010190565b8181038181111561070b5761070b611bb5565b604080519081016001600160401b0381118282101715611fc357611fc3611f49565b60405290565b60405160a081016001600160401b0381118282101715611fc357611fc3611f49565b604051601f8201601f191681016001600160401b038111828210171561201357612013611f49565b604052919050565b60006001600160401b0382111561203457612034611f49565b50601f01601f191660200190565b600082601f83011261205357600080fd5b81356120666120618261201b565b611feb565b81815284602083860101111561207b57600080fd5b816020850160208301376000918101602001919091529392505050565b600082601f8301126120a957600080fd5b813560206001600160401b038211156120c4576120c4611f49565b6120d2818360051b01611feb565b82815260069290921b840181019181810190868411156120f157600080fd5b8286015b84811015612139576040818903121561210e5760008081fd5b612116611fa1565b813561212181611c08565b815281850135858201528352918301916040016120f5565b509695505050505050565b600060a0823603121561215657600080fd5b61215e611fc9565b8235815261216e60208401611c5e565b602082015260408301356001600160401b038082111561218d57600080fd5b61219936838701612042565b604084015260608501359150808211156121b257600080fd5b6121be36838701612042565b606084015260808501359150808211156121d757600080fd5b506121e436828601612098565b60808301525092915050565b600060406001600160401b038516835260208181850152845160a08386015261221c60e0860182611ee6565b905081860151603f19808784030160608801526122398383611ee6565b88860151888203830160808a01528051808352908601945060009350908501905b8084101561228c57845180516001600160a01b031683528601518683015293850193600193909301929086019061225a565b5060608901516001600160a01b031660a08901526080890151888203830160c08a015295506122bb8187611ee6565b9a9950505050505050505050565b6000602082840312156122db57600080fd5b5051919050565b6000602082840312156122f457600080fd5b81516111dd81611c08565b6000806040838503121561231257600080fd5b82516002811061232157600080fd5b60208401519092506001600160401b0381111561233d57600080fd5b8301601f8101851361234e57600080fd5b805161235c6120618261201b565b81815286602083850101111561237157600080fd5b612382826020830160208601611ec2565b8093505050509250929050565b6000806000606084860312156123a457600080fd5b83516123af81611c08565b60208501519093506123c081611c08565b80925050604084015190509250925092565b634e487b7160e01b600052603160045260246000fd5b6000602082840312156123fa57600080fd5b81516111dd81611c7a565b60008251612417818460208701611ec2565b9190910192915050565b6020815260006111dd6020830184611ee656fea26469706673582212206d23c3090aa8035bcc52f41c1b264508670bf8e11c5dc308f09d734691e53eb564736f6c634300081500330000000000000000000000000000000000000000000000008f90b8876dee6538000000000000000000000000d3b06cebf099ce7da4accf578aaebfdbd6e88a93000000000000000000000000000000000000000000000000ccf0a31a221f3c9b000000000000000000000000f7be8e30e35bf739e9e63b5d334d91de34cefa8d",
        "nonce": "0x32",
        "accessList": []
      },
      "additionalContracts": [],
      "isFixedGasLimit": false
    },
    {
      "hash": "0x97eb42c643965d076f504f28c6a36e5b4ebd0417e78ca677744058e3cd99543d",
      "transactionType": "CALL",
      "contractName": "Depositor",
      "contractAddress": "0xA2696CD53F0E8c8Fdc2D2fd842C7670ba0662794",
      "function": "setAllowedToken(address,bool)",
      "arguments": [
        "0xF6905F1E4ad86f8C3a1Ebfca3E04a9e4d2adDD0D",
        "true"
      ],
      "transaction": {
        "type": "0x02",
        "from": "0x7af234d569ab6360693806d7e7f439ec2114f93c",
        "to": "0xa2696cd53f0e8c8fdc2d2fd842c7670ba0662794",
        "gas": "0xfa56",
        "value": "0x0",
        "data": "0x8aaa2284000000000000000000000000f6905f1e4ad86f8c3a1ebfca3e04a9e4d2addd0d0000000000000000000000000000000000000000000000000000000000000001",
        "nonce": "0x33",
        "accessList": []
      },
      "additionalContracts": [],
      "isFixedGasLimit": false
    },
    {
      "hash": "0xdd6f60626ba1cfc7212125195983bbdf31ecfc2f91a648c65f3e93da1745e749",
      "transactionType": "CALL",
      "contractName": "Depositor",
      "contractAddress": "0xA2696CD53F0E8c8Fdc2D2fd842C7670ba0662794",
      "function": "setAllowedToken(address,bool)",
      "arguments": [
        "0x9a24BD7833859d2364EaD5A4aF4b16799693DF12",
        "true"
      ],
      "transaction": {
        "type": "0x02",
        "from": "0x7af234d569ab6360693806d7e7f439ec2114f93c",
        "to": "0xa2696cd53f0e8c8fdc2d2fd842c7670ba0662794",
        "gas": "0xfa56",
        "value": "0x0",
        "data": "0x8aaa22840000000000000000000000009a24bd7833859d2364ead5a4af4b16799693df120000000000000000000000000000000000000000000000000000000000000001",
        "nonce": "0x34",
        "accessList": []
      },
      "additionalContracts": [],
      "isFixedGasLimit": false
    },
    {
      "hash": "0x871c13160eb9057dc15621d799a3fcd30523a00861e50f40767fdb756cf9f914",
      "transactionType": "CALL",
      "contractName": "Depositor",
      "contractAddress": "0xA2696CD53F0E8c8Fdc2D2fd842C7670ba0662794",
      "function": "setAllowedToken(address,bool)",
      "arguments": [
        "0x244ec7F5753b2Fc10d0C2bAaB1AB55850E73a3AB",
        "true"
      ],
      "transaction": {
        "type": "0x02",
        "from": "0x7af234d569ab6360693806d7e7f439ec2114f93c",
        "to": "0xa2696cd53f0e8c8fdc2d2fd842c7670ba0662794",
        "gas": "0xfa56",
        "value": "0x0",
        "data": "0x8aaa2284000000000000000000000000244ec7f5753b2fc10d0c2baab1ab55850e73a3ab0000000000000000000000000000000000000000000000000000000000000001",
        "nonce": "0x35",
        "accessList": []
      },
      "additionalContracts": [],
      "isFixedGasLimit": false
    },
    {
      "hash": "0x0c30c4b947aa87b2084f9e2fc2379a234cc4fffc417921ce19e049947187b555",
      "transactionType": "CALL",
      "contractName": "Depositor",
      "contractAddress": "0xA2696CD53F0E8c8Fdc2D2fd842C7670ba0662794",
      "function": "setAllowedToken(address,bool)",
      "arguments": [
        "0xe257e2a67407144C918acaD5e11c2582F77c0B1a",
        "true"
      ],
      "transaction": {
        "type": "0x02",
        "from": "0x7af234d569ab6360693806d7e7f439ec2114f93c",
        "to": "0xa2696cd53f0e8c8fdc2d2fd842c7670ba0662794",
        "gas": "0xfa56",
        "value": "0x0",
        "data": "0x8aaa2284000000000000000000000000e257e2a67407144c918acad5e11c2582f77c0b1a0000000000000000000000000000000000000000000000000000000000000001",
        "nonce": "0x36",
        "accessList": []
      },
      "additionalContracts": [],
      "isFixedGasLimit": false
    },
    {
      "hash": "0x6362d62802d8847c484ca7352c7a99d2938276c8721b54455d858de6d035252a",
      "transactionType": "CALL",
      "contractName": "Depositor",
      "contractAddress": "0xA2696CD53F0E8c8Fdc2D2fd842C7670ba0662794",
      "function": "setAllowedToken(address,bool)",
      "arguments": [
        "0x32B8F75d2AC926a0a906F24df3e8Fe2bA17Bd80a",
        "true"
      ],
      "transaction": {
        "type": "0x02",
        "from": "0x7af234d569ab6360693806d7e7f439ec2114f93c",
        "to": "0xa2696cd53f0e8c8fdc2d2fd842c7670ba0662794",
        "gas": "0xfa56",
        "value": "0x0",
        "data": "0x8aaa228400000000000000000000000032b8f75d2ac926a0a906f24df3e8fe2ba17bd80a0000000000000000000000000000000000000000000000000000000000000001",
        "nonce": "0x37",
        "accessList": []
      },
      "additionalContracts": [],
      "isFixedGasLimit": false
    },
    {
      "hash": "0xcb8e2917b931e938d3ca6562bd30160e84ff9c6603783efddb4ce3d98bde9f16",
      "transactionType": "CALL",
      "contractName": "Depositor",
      "contractAddress": "0xA2696CD53F0E8c8Fdc2D2fd842C7670ba0662794",
      "function": "setAllowedToken(address,bool)",
      "arguments": [
        "0xDFf5Ba9FCff83cE455e45De7572B6259b0E7D7dE",
        "true"
      ],
      "transaction": {
        "type": "0x02",
        "from": "0x7af234d569ab6360693806d7e7f439ec2114f93c",
        "to": "0xa2696cd53f0e8c8fdc2d2fd842c7670ba0662794",
        "gas": "0xfa56",
        "value": "0x0",
        "data": "0x8aaa2284000000000000000000000000dff5ba9fcff83ce455e45de7572b6259b0e7d7de0000000000000000000000000000000000000000000000000000000000000001",
        "nonce": "0x38",
        "accessList": []
      },
      "additionalContracts": [],
      "isFixedGasLimit": false
    },
    {
      "hash": "0x9220a047c966ca34e1d1e3f91a76c6ee37990e80ba56c9c045bd6179885e5c43",
      "transactionType": "CALL",
      "contractName": "Depositor",
      "contractAddress": "0xA2696CD53F0E8c8Fdc2D2fd842C7670ba0662794",
      "function": "setAllowedToken(address,bool)",
      "arguments": [
        "0x75b86D7B224Fd88f785BB5FaC5e261D9EFde3047",
        "true"
      ],
      "transaction": {
        "type": "0x02",
        "from": "0x7af234d569ab6360693806d7e7f439ec2114f93c",
        "to": "0xa2696cd53f0e8c8fdc2d2fd842c7670ba0662794",
        "gas": "0xfa56",
        "value": "0x0",
        "data": "0x8aaa228400000000000000000000000075b86d7b224fd88f785bb5fac5e261d9efde30470000000000000000000000000000000000000000000000000000000000000001",
        "nonce": "0x39",
        "accessList": []
      },
      "additionalContracts": [],
      "isFixedGasLimit": false
    },
    {
      "hash": "0x17c0f22243d7a652b99c57fe64a0af2821b57c1f9a9d3677afe5c2c34990d952",
      "transactionType": "CALL",
      "contractName": "Depositor",
      "contractAddress": "0xA2696CD53F0E8c8Fdc2D2fd842C7670ba0662794",
      "function": "setAllowedDestinationChain(uint64,bool)",
      "arguments": [
        "14767482510784806043",
        "true"
      ],
      "transaction": {
        "type": "0x02",
        "from": "0x7af234d569ab6360693806d7e7f439ec2114f93c",
        "to": "0xa2696cd53f0e8c8fdc2d2fd842c7670ba0662794",
        "gas": "0x2864b",
        "value": "0x0",
        "data": "0x1572823c000000000000000000000000000000000000000000000000ccf0a31a221f3c9b0000000000000000000000000000000000000000000000000000000000000001",
        "nonce": "0x3a",
        "accessList": []
      },
      "additionalContracts": [],
      "isFixedGasLimit": false
    },
    {
      "hash": "0x609ff6b55db16c53c327d27535f8c1706e823676c47ee713c514e5fd76bbb09c",
      "transactionType": "CALL",
      "contractName": "Depositor",
      "contractAddress": "0xA2696CD53F0E8c8Fdc2D2fd842C7670ba0662794",
      "function": "setAllowedSourceChain(uint64,bool)",
      "arguments": [
        "14767482510784806043",
        "true"
      ],
      "transaction": {
        "type": "0x02",
        "from": "0x7af234d569ab6360693806d7e7f439ec2114f93c",
        "to": "0xa2696cd53f0e8c8fdc2d2fd842c7670ba0662794",
        "gas": "0x10867",
        "value": "0x0",
        "data": "0x5d9a2c48000000000000000000000000000000000000000000000000ccf0a31a221f3c9b0000000000000000000000000000000000000000000000000000000000000001",
        "nonce": "0x3b",
        "accessList": []
      },
      "additionalContracts": [],
      "isFixedGasLimit": false
    },
    {
      "hash": "0x5108005eb37aa8b3af3f81f45512021ef3f42d68be8b6670be7788d0c274bb6d",
      "transactionType": "CALL",
      "contractName": "Depositor",
      "contractAddress": "0xA2696CD53F0E8c8Fdc2D2fd842C7670ba0662794",
      "function": "setAllowedSender(address,bool)",
      "arguments": [
        "0xF7be8E30E35bf739e9e63B5D334D91de34cEFA8D",
        "true"
      ],
      "transaction": {
        "type": "0x02",
        "from": "0x7af234d569ab6360693806d7e7f439ec2114f93c",
        "to": "0xa2696cd53f0e8c8fdc2d2fd842c7670ba0662794",
        "gas": "0xfa76",
        "value": "0x0",
        "data": "0x4b52ffb0000000000000000000000000f7be8e30e35bf739e9e63b5d334d91de34cefa8d0000000000000000000000000000000000000000000000000000000000000001",
        "nonce": "0x3c",
        "accessList": []
      },
      "additionalContracts": [],
      "isFixedGasLimit": false
    }
  ],
  "receipts": [
    {
      "transactionHash": "0x6a454c27265dd49c31ee8ca15ae5fd12ca3c4ec44d08ecf4c0ec2f24eb67e083",
      "transactionIndex": "0x1",
      "blockHash": "0x5e4278f00fb00c8bce36ae5e46611d9bbf14a1d7bd0d4ce4e3787cd5685c1b40",
      "blockNumber": "0xa1d67a",
      "from": "0x7aF234d569aB6360693806D7e7f439Ec2114F93c",
      "to": null,
      "cumulativeGasUsed": "0x2208ea",
      "gasUsed": "0x215d87",
      "contractAddress": "0xA2696CD53F0E8c8Fdc2D2fd842C7670ba0662794",
      "logs": [
        {
          "address": "0xA2696CD53F0E8c8Fdc2D2fd842C7670ba0662794",
          "topics": [
            "0x8be0079c531659141344cd1fd0a4f28419497f9722a3daafe3b4186f6b6457e0",
            "0x0000000000000000000000000000000000000000000000000000000000000000",
            "0x0000000000000000000000007af234d569ab6360693806d7e7f439ec2114f93c"
          ],
          "data": "0x",
          "blockHash": "0x5e4278f00fb00c8bce36ae5e46611d9bbf14a1d7bd0d4ce4e3787cd5685c1b40",
          "blockNumber": "0xa1d67a",
          "transactionHash": "0x6a454c27265dd49c31ee8ca15ae5fd12ca3c4ec44d08ecf4c0ec2f24eb67e083",
          "transactionIndex": "0x1",
          "logIndex": "0x0",
          "removed": false
        }
      ],
      "status": "0x1",
      "logsBloom": "0x00000000080000000000000000000000000000000000000000800000000000000000000000000000000000000000000000000000000000000000000000000000000000000000000000000000000000000001000000000000000000000000004000000000020000000000000000000800000000000000000000000000000000400000000000000000000000000000000000000000000008000000000000000000000000000000000000000000000000000000000000000000000000000000000000000000000000000004000000000000000000000020000040000000000020000000000000000000000000000000000000000000000000000000000000000000",
      "type": "0x2",
      "effectiveGasPrice": "0xb2d05f22"
    },
    {
      "transactionHash": "0x97eb42c643965d076f504f28c6a36e5b4ebd0417e78ca677744058e3cd99543d",
      "transactionIndex": "0x2",
      "blockHash": "0x5e4278f00fb00c8bce36ae5e46611d9bbf14a1d7bd0d4ce4e3787cd5685c1b40",
      "blockNumber": "0xa1d67a",
      "from": "0x7aF234d569aB6360693806D7e7f439Ec2114F93c",
      "to": "0xA2696CD53F0E8c8Fdc2D2fd842C7670ba0662794",
      "cumulativeGasUsed": "0x22be28",
      "gasUsed": "0xb53e",
      "contractAddress": null,
      "logs": [],
      "status": "0x1",
      "logsBloom": "0x00000000000000000000000000000000000000000000000000000000000000000000000000000000000000000000000000000000000000000000000000000000000000000000000000000000000000000000000000000000000000000000000000000000000000000000000000000000000000000000000000000000000000000000000000000000000000000000000000000000000000000000000000000000000000000000000000000000000000000000000000000000000000000000000000000000000000000000000000000000000000000000000000000000000000000000000000000000000000000000000000000000000000000000000000000000",
      "type": "0x2",
      "effectiveGasPrice": "0xb2d05f22"
    },
    {
      "transactionHash": "0xdd6f60626ba1cfc7212125195983bbdf31ecfc2f91a648c65f3e93da1745e749",
      "transactionIndex": "0x3",
      "blockHash": "0x5e4278f00fb00c8bce36ae5e46611d9bbf14a1d7bd0d4ce4e3787cd5685c1b40",
      "blockNumber": "0xa1d67a",
      "from": "0x7aF234d569aB6360693806D7e7f439Ec2114F93c",
      "to": "0xA2696CD53F0E8c8Fdc2D2fd842C7670ba0662794",
      "cumulativeGasUsed": "0x237366",
      "gasUsed": "0xb53e",
      "contractAddress": null,
      "logs": [],
      "status": "0x1",
      "logsBloom": "0x00000000000000000000000000000000000000000000000000000000000000000000000000000000000000000000000000000000000000000000000000000000000000000000000000000000000000000000000000000000000000000000000000000000000000000000000000000000000000000000000000000000000000000000000000000000000000000000000000000000000000000000000000000000000000000000000000000000000000000000000000000000000000000000000000000000000000000000000000000000000000000000000000000000000000000000000000000000000000000000000000000000000000000000000000000000",
      "type": "0x2",
      "effectiveGasPrice": "0xb2d05f22"
    },
    {
      "transactionHash": "0x871c13160eb9057dc15621d799a3fcd30523a00861e50f40767fdb756cf9f914",
      "transactionIndex": "0x4",
      "blockHash": "0x5e4278f00fb00c8bce36ae5e46611d9bbf14a1d7bd0d4ce4e3787cd5685c1b40",
      "blockNumber": "0xa1d67a",
      "from": "0x7aF234d569aB6360693806D7e7f439Ec2114F93c",
      "to": "0xA2696CD53F0E8c8Fdc2D2fd842C7670ba0662794",
      "cumulativeGasUsed": "0x2428a4",
      "gasUsed": "0xb53e",
      "contractAddress": null,
      "logs": [],
      "status": "0x1",
      "logsBloom": "0x00000000000000000000000000000000000000000000000000000000000000000000000000000000000000000000000000000000000000000000000000000000000000000000000000000000000000000000000000000000000000000000000000000000000000000000000000000000000000000000000000000000000000000000000000000000000000000000000000000000000000000000000000000000000000000000000000000000000000000000000000000000000000000000000000000000000000000000000000000000000000000000000000000000000000000000000000000000000000000000000000000000000000000000000000000000",
      "type": "0x2",
      "effectiveGasPrice": "0xb2d05f22"
    },
    {
      "transactionHash": "0x0c30c4b947aa87b2084f9e2fc2379a234cc4fffc417921ce19e049947187b555",
      "transactionIndex": "0x5",
      "blockHash": "0x5e4278f00fb00c8bce36ae5e46611d9bbf14a1d7bd0d4ce4e3787cd5685c1b40",
      "blockNumber": "0xa1d67a",
      "from": "0x7aF234d569aB6360693806D7e7f439Ec2114F93c",
      "to": "0xA2696CD53F0E8c8Fdc2D2fd842C7670ba0662794",
      "cumulativeGasUsed": "0x24dde2",
      "gasUsed": "0xb53e",
      "contractAddress": null,
      "logs": [],
      "status": "0x1",
      "logsBloom": "0x00000000000000000000000000000000000000000000000000000000000000000000000000000000000000000000000000000000000000000000000000000000000000000000000000000000000000000000000000000000000000000000000000000000000000000000000000000000000000000000000000000000000000000000000000000000000000000000000000000000000000000000000000000000000000000000000000000000000000000000000000000000000000000000000000000000000000000000000000000000000000000000000000000000000000000000000000000000000000000000000000000000000000000000000000000000",
      "type": "0x2",
      "effectiveGasPrice": "0xb2d05f22"
    },
    {
      "transactionHash": "0x6362d62802d8847c484ca7352c7a99d2938276c8721b54455d858de6d035252a",
      "transactionIndex": "0x6",
      "blockHash": "0x5e4278f00fb00c8bce36ae5e46611d9bbf14a1d7bd0d4ce4e3787cd5685c1b40",
      "blockNumber": "0xa1d67a",
      "from": "0x7aF234d569aB6360693806D7e7f439Ec2114F93c",
      "to": "0xA2696CD53F0E8c8Fdc2D2fd842C7670ba0662794",
      "cumulativeGasUsed": "0x259320",
      "gasUsed": "0xb53e",
      "contractAddress": null,
      "logs": [],
      "status": "0x1",
      "logsBloom": "0x00000000000000000000000000000000000000000000000000000000000000000000000000000000000000000000000000000000000000000000000000000000000000000000000000000000000000000000000000000000000000000000000000000000000000000000000000000000000000000000000000000000000000000000000000000000000000000000000000000000000000000000000000000000000000000000000000000000000000000000000000000000000000000000000000000000000000000000000000000000000000000000000000000000000000000000000000000000000000000000000000000000000000000000000000000000",
      "type": "0x2",
      "effectiveGasPrice": "0xb2d05f22"
    },
    {
      "transactionHash": "0xcb8e2917b931e938d3ca6562bd30160e84ff9c6603783efddb4ce3d98bde9f16",
      "transactionIndex": "0x7",
      "blockHash": "0x5e4278f00fb00c8bce36ae5e46611d9bbf14a1d7bd0d4ce4e3787cd5685c1b40",
      "blockNumber": "0xa1d67a",
      "from": "0x7aF234d569aB6360693806D7e7f439Ec2114F93c",
      "to": "0xA2696CD53F0E8c8Fdc2D2fd842C7670ba0662794",
      "cumulativeGasUsed": "0x26485e",
      "gasUsed": "0xb53e",
      "contractAddress": null,
      "logs": [],
      "status": "0x1",
      "logsBloom": "0x00000000000000000000000000000000000000000000000000000000000000000000000000000000000000000000000000000000000000000000000000000000000000000000000000000000000000000000000000000000000000000000000000000000000000000000000000000000000000000000000000000000000000000000000000000000000000000000000000000000000000000000000000000000000000000000000000000000000000000000000000000000000000000000000000000000000000000000000000000000000000000000000000000000000000000000000000000000000000000000000000000000000000000000000000000000",
      "type": "0x2",
      "effectiveGasPrice": "0xb2d05f22"
    },
    {
      "transactionHash": "0x9220a047c966ca34e1d1e3f91a76c6ee37990e80ba56c9c045bd6179885e5c43",
      "transactionIndex": "0x8",
      "blockHash": "0x5e4278f00fb00c8bce36ae5e46611d9bbf14a1d7bd0d4ce4e3787cd5685c1b40",
      "blockNumber": "0xa1d67a",
      "from": "0x7aF234d569aB6360693806D7e7f439Ec2114F93c",
      "to": "0xA2696CD53F0E8c8Fdc2D2fd842C7670ba0662794",
      "cumulativeGasUsed": "0x26fd9c",
      "gasUsed": "0xb53e",
      "contractAddress": null,
      "logs": [],
      "status": "0x1",
      "logsBloom": "0x00000000000000000000000000000000000000000000000000000000000000000000000000000000000000000000000000000000000000000000000000000000000000000000000000000000000000000000000000000000000000000000000000000000000000000000000000000000000000000000000000000000000000000000000000000000000000000000000000000000000000000000000000000000000000000000000000000000000000000000000000000000000000000000000000000000000000000000000000000000000000000000000000000000000000000000000000000000000000000000000000000000000000000000000000000000",
      "type": "0x2",
      "effectiveGasPrice": "0xb2d05f22"
    },
    {
      "transactionHash": "0x17c0f22243d7a652b99c57fe64a0af2821b57c1f9a9d3677afe5c2c34990d952",
      "transactionIndex": "0x1",
      "blockHash": "0xa782798f196a2602aa9562a734ff02ef22addfdba344531a6015d6ee66edc42e",
      "blockNumber": "0xa1d67b",
      "from": "0x7aF234d569aB6360693806D7e7f439Ec2114F93c",
      "to": "0xA2696CD53F0E8c8Fdc2D2fd842C7670ba0662794",
      "cumulativeGasUsed": "0x2654c",
      "gasUsed": "0x1b9e9",
      "contractAddress": null,
      "logs": [],
      "status": "0x1",
      "logsBloom": "0x00000000000000000000000000000000000000000000000000000000000000000000000000000000000000000000000000000000000000000000000000000000000000000000000000000000000000000000000000000000000000000000000000000000000000000000000000000000000000000000000000000000000000000000000000000000000000000000000000000000000000000000000000000000000000000000000000000000000000000000000000000000000000000000000000000000000000000000000000000000000000000000000000000000000000000000000000000000000000000000000000000000000000000000000000000000",
      "type": "0x2",
      "effectiveGasPrice": "0xb2d05f23"
    },
    {
      "transactionHash": "0x609ff6b55db16c53c327d27535f8c1706e823676c47ee713c514e5fd76bbb09c",
      "transactionIndex": "0x2",
      "blockHash": "0xa782798f196a2602aa9562a734ff02ef22addfdba344531a6015d6ee66edc42e",
      "blockNumber": "0xa1d67b",
      "from": "0x7aF234d569aB6360693806D7e7f439Ec2114F93c",
      "to": "0xA2696CD53F0E8c8Fdc2D2fd842C7670ba0662794",
      "cumulativeGasUsed": "0x31a16",
      "gasUsed": "0xb4ca",
      "contractAddress": null,
      "logs": [],
      "status": "0x1",
      "logsBloom": "0x00000000000000000000000000000000000000000000000000000000000000000000000000000000000000000000000000000000000000000000000000000000000000000000000000000000000000000000000000000000000000000000000000000000000000000000000000000000000000000000000000000000000000000000000000000000000000000000000000000000000000000000000000000000000000000000000000000000000000000000000000000000000000000000000000000000000000000000000000000000000000000000000000000000000000000000000000000000000000000000000000000000000000000000000000000000",
      "type": "0x2",
      "effectiveGasPrice": "0xb2d05f23"
    },
    {
      "transactionHash": "0x5108005eb37aa8b3af3f81f45512021ef3f42d68be8b6670be7788d0c274bb6d",
      "transactionIndex": "0x3",
      "blockHash": "0xa782798f196a2602aa9562a734ff02ef22addfdba344531a6015d6ee66edc42e",
      "blockNumber": "0xa1d67b",
      "from": "0x7aF234d569aB6360693806D7e7f439Ec2114F93c",
      "to": "0xA2696CD53F0E8c8Fdc2D2fd842C7670ba0662794",
      "cumulativeGasUsed": "0x3cf6b",
      "gasUsed": "0xb555",
      "contractAddress": null,
      "logs": [],
      "status": "0x1",
      "logsBloom": "0x00000000000000000000000000000000000000000000000000000000000000000000000000000000000000000000000000000000000000000000000000000000000000000000000000000000000000000000000000000000000000000000000000000000000000000000000000000000000000000000000000000000000000000000000000000000000000000000000000000000000000000000000000000000000000000000000000000000000000000000000000000000000000000000000000000000000000000000000000000000000000000000000000000000000000000000000000000000000000000000000000000000000000000000000000000000",
      "type": "0x2",
      "effectiveGasPrice": "0xb2d05f23"
    }
  ],
  "libraries": [],
  "pending": [],
  "returns": {
    "depositor": {
      "internal_type": "contract Depositor",
      "value": "0xA2696CD53F0E8c8Fdc2D2fd842C7670ba0662794"
    }
  },
  "timestamp": 1716980699,
  "chain": 84532,
  "multi": false,
  "commit": "5f6d2f1"
}