{
  "transactions": [
    {
      "hash": "0xfc1eac75a3ffeb8d3145380e2337d4661ee0b93d8e8fdd70557ac67c5f2e4edc",
      "transactionType": "CREATE",
      "contractName": "Depositor",
      "contractAddress": "0x3b72037c5c7d211DD45bBFFE051F0CA250405360",
      "function": null,
      "arguments": [
        "5224473277236331295",
        "0x114A20A10b43D4115e5aeef7345a1A71d2a60C57",
        "14767482510784806043",
        "0x86d76dcA88B435E9342F0f8A05523BE89c819F3E"
      ],
      "transaction": {
        "type": "0x02",
        "from": "0x7af234d569ab6360693806d7e7f439ec2114f93c",
        "gas": "0x2b9eef",
        "value": "0x0",
        "data": "0x60a06040526207a120600b55620f4240600c553480156200001f57600080fd5b50604051620026cb380380620026cb833981016040819052620000429162000190565b838333816001600160a01b03811662000076576040516335fdcccd60e21b8152600060048201526024015b60405180910390fd5b6001600160a01b039081166080528116620000a857604051631e4fbdf760e01b8152600060048201526024016200006d565b620000b3816200010b565b5050600680546001600160401b039283166001600160401b0319909116179055600a805493909116600160a01b026001600160e01b03199093166001600160a01b039092169190911791909117905550620001ed9050565b600080546001600160a01b038381166001600160a01b0319831681178455604051919092169283917f8be0079c531659141344cd1fd0a4f28419497f9722a3daafe3b4186f6b6457e09190a35050565b80516001600160401b03811681146200017357600080fd5b919050565b80516001600160a01b03811681146200017357600080fd5b60008060008060808587031215620001a757600080fd5b620001b2856200015b565b9350620001c26020860162000178565b9250620001d2604086016200015b565b9150620001e26060860162000178565b905092959194509250565b6080516124a6620002256000396000818161065601528181610d5801528181610e8901528181611017015261124501526124a66000f3fe6080604052600436106101e75760003560e01c80636aa673db116101025780638d1f0afa11610095578063b0f479a111610064578063b0f479a114610647578063ba036b401461067a578063d920223c1461069a578063f2fde38b146106ba57600080fd5b80638d1f0afa146105975780638da5cb5b146105d05780639719501f146105ee578063a78253731461062757600080fd5b80637f776ade116100d15780637f776ade146104f157806385572ffb1461051157806387c0cc4f146105315780638aaa22841461057757600080fd5b80636aa673db1461044f5780636e543d7014610485578063715018a6146104be5780637e72ffa6146104d357600080fd5b80634b52ffb01161017a5780635d9a2c48116101495780635d9a2c48146103b6578063628c97fc146103d657806364e43bb91461040f578063678aa2b71461042f57600080fd5b80634b52ffb01461033f57806351425e951461035f57806352cf518b1461037f5780635b0918751461039457600080fd5b806319ad863e116101b657806319ad863e146102b45780632374d710146102d45780632d373cab1461030d57806347e7ef241461032c57600080fd5b806301ffc9a7146102185780631165b26a1461024d5780631572823c1461027f57806315abb12f146102a157600080fd5b3661021357336000908152600860205260408120805434929061020b908490611be7565b925050819055005b600080fd5b34801561022457600080fd5b50610238610233366004611bfa565b6106da565b60405190151581526020015b60405180910390f35b34801561025957600080fd5b50600a546001600160a01b03165b6040516001600160a01b039091168152602001610244565b34801561028b57600080fd5b5061029f61029a366004611c4e565b610711565b005b61029f6102af366004611c9a565b610777565b3480156102c057600080fd5b5061029f6102cf366004611cf3565b61094b565b3480156102e057600080fd5b50600a54600160a01b90046001600160401b03165b6040516001600160401b039091168152602001610244565b34801561031957600080fd5b50600c545b604051908152602001610244565b61029f61033a366004611d10565b610975565b34801561034b57600080fd5b5061029f61035a366004611d3c565b610b30565b34801561036b57600080fd5b5061029f61037a366004611d5a565b610b63565b34801561038b57600080fd5b50600b5461031e565b3480156103a057600080fd5b506103a9610b70565b6040516102449190611d73565b3480156103c257600080fd5b5061029f6103d1366004611c4e565b610c1f565b3480156103e257600080fd5b506102386103f1366004611dc0565b6001600160401b031660009081526003602052604090205460ff1690565b34801561041b57600080fd5b5061029f61042a366004611d5a565b610c52565b34801561043b57600080fd5b5061029f61044a366004611dc0565b610c5f565b34801561045b57600080fd5b5061031e61046a366004611cf3565b6001600160a01b031660009081526008602052604090205490565b34801561049157600080fd5b506102386104a0366004611cf3565b6001600160a01b031660009081526009602052604090205460ff1690565b3480156104ca57600080fd5b5061029f610c94565b3480156104df57600080fd5b506006546001600160401b03166102f5565b3480156104fd57600080fd5b5061029f61050c366004611d5a565b610ca8565b34801561051d57600080fd5b5061029f61052c366004611ddb565b610d4d565b34801561053d57600080fd5b5061031e61054c366004611e15565b6001600160a01b03918216600090815260076020908152604080832093909416825291909152205490565b34801561058357600080fd5b5061029f610592366004611d3c565b610dac565b3480156105a357600080fd5b506102386105b2366004611dc0565b6001600160401b031660009081526004602052604090205460ff1690565b3480156105dc57600080fd5b506000546001600160a01b0316610267565b3480156105fa57600080fd5b50610238610609366004611cf3565b6001600160a01b031660009081526005602052604090205460ff1690565b34801561063357600080fd5b5061031e610642366004611d10565b610ddf565b34801561065357600080fd5b507f0000000000000000000000000000000000000000000000000000000000000000610267565b34801561068657600080fd5b5061029f610695366004611e43565b610f3a565b3480156106a657600080fd5b5061031e6106b5366004611c9a565b610f73565b3480156106c657600080fd5b5061029f6106d5366004611cf3565b6110cd565b60006001600160e01b031982166385572ffb60e01b148061070b57506001600160e01b031982166301ffc9a760e01b145b92915050565b610719611108565b6001600160401b0382166000908152600360205260409020805460ff1916821580159190911790915561075f5761075a60016001600160401b038416611135565b505050565b61075a60016001600160401b038416611148565b5050565b6001600160a01b038516600090815260096020526040902054859060ff166107c2576040516306c942d160e11b81526001600160a01b03821660048201526024015b60405180910390fd5b33600090815260086020526040812080543492906107e1908490611be7565b909155506107f29050338787611154565b600a546006546001600160401b03600160a01b90920482169116036108e35760405185906001600160a01b0388169033907f5548c837ab068cf56a2c2479df0882a4922fd203edb7517321831d95078c5f6290600090a4600a5460065460405163748cbf7f60e11b81523360048201526001600160401b0391821660248201526001600160a01b03898116604483015260648201899052918716608482015285821660a482015260c4810185905291169063e9197efe9060e401600060405180830381600087803b1580156108c657600080fd5b505af11580156108da573d6000803e3d6000fd5b50505050610943565b6000600233888888888860405160200161090296959493929190611e94565b60408051601f19818403018152908290526109209291602001611f3e565b604051602081830303815290604052905061094033888884600c546111aa565b50505b505050505050565b610953611108565b600a80546001600160a01b0319166001600160a01b0392909216919091179055565b6001600160a01b038216600090815260096020526040902054829060ff166109bb576040516306c942d160e11b81526001600160a01b03821660048201526024016107b9565b33600090815260086020526040812080543492906109da908490611be7565b909155506109eb9050338484611154565b600a546006546001600160401b03600160a01b9092048216911603610ac657600a54600654604051631df999a360e11b81523360048201526001600160401b0390911660248201526001600160a01b0385811660448301526064820185905290911690633bf3334690608401600060405180830381600087803b158015610a7157600080fd5b505af1158015610a85573d6000803e3d6000fd5b50506040518492506001600160a01b038616915033907f5548c837ab068cf56a2c2479df0882a4922fd203edb7517321831d95078c5f6290600090a4505050565b604080513360208201526001600160a01b0385168183015260608082018590528251808303909101815260808201909252600091610b099183919060a001611f3e565b6040516020818303038152906040529050610b2933858584600b546111aa565b5050505050565b610b38611108565b6001600160a01b03919091166000908152600560205260409020805460ff1916911515919091179055565b610b6b611108565b600c55565b60606000610b7e6001611450565b90506000816001600160401b03811115610b9a57610b9a611f75565b604051908082528060200260200182016040528015610bc3578160200160208202803683370190505b50905060005b82811015610c1857610bdc60018261145a565b828281518110610bee57610bee611f8b565b6001600160401b039092166020928302919091019091015280610c1081611fa1565b915050610bc9565b5092915050565b610c27611108565b6001600160401b03919091166000908152600460205260409020805460ff1916911515919091179055565b610c5a611108565b600b55565b610c67611108565b600a80546001600160401b03909216600160a01b0267ffffffffffffffff60a01b19909216919091179055565b610c9c611108565b610ca66000611466565b565b33600090815260086020526040902054811115610cfc5760405162461bcd60e51b81526020600482015260126024820152714e6f7420656e6f756768206665652070617960701b60448201526064016107b9565b3360009081526008602052604081208054839290610d1b908490611fba565b9091555050604051339082156108fc029083906000818181858888f19350505050158015610773573d6000803e3d6000fd5b336001600160a01b037f00000000000000000000000000000000000000000000000000000000000000001614610d98576040516335fdcccd60e21b81523360048201526024016107b9565b610da9610da482612170565b6114b6565b50565b610db4611108565b6001600160a01b03919091166000908152600960205260409020805460ff1916911515919091179055565b600a546006546000916001600160401b03600160a01b9091048116911603610e095750600061070b565b604080513360208201526001600160a01b0385168183015260608082018590528251808303909101815260808201909252600091610e4c9183919060a001611f3e565b60405160208183030381529060405290506000610e83600a60009054906101000a90046001600160a01b0316836000600b54611624565b905060007f0000000000000000000000000000000000000000000000000000000000000000600a546040516320487ded60e01b81529192506000916001600160a01b038416916320487ded91610eee91600160a01b90046001600160401b031690879060040161221c565b602060405180830381865afa158015610f0b573d6000803e3d6000fd5b505050506040513d601f19601f82011682018060405250810190610f2f91906122f5565b979650505050505050565b600a5433906001600160a01b03168114610f6757604051631eb49d6d60e11b815260040160405180910390fd5b610b2985858585611748565b600a546006546000916001600160401b03600160a01b9091048116911603610f9d575060006110c4565b60006002338888888888604051602001610fbc96959493929190611e94565b60408051601f1981840301815290829052610fda9291602001611f3e565b60405160208183030381529060405290506000611011600a60009054906101000a90046001600160a01b0316836000600c54611624565b905060007f0000000000000000000000000000000000000000000000000000000000000000600a546040516320487ded60e01b81529192506000916001600160a01b038416916320487ded9161107c91600160a01b90046001600160401b031690879060040161221c565b602060405180830381865afa158015611099573d6000803e3d6000fd5b505050506040513d601f19601f820116820180604052508101906110bd91906122f5565b9450505050505b95945050505050565b6110d5611108565b6001600160a01b0381166110ff57604051631e4fbdf760e01b8152600060048201526024016107b9565b610da981611466565b6000546001600160a01b03163314610ca65760405163118cdaa760e01b81523360048201526024016107b9565b600061114183836117df565b9392505050565b6000611141838361182e565b6111696001600160a01b038316843084611921565b6001600160a01b038084166000908152600760209081526040808320938616835292905290812080548392906111a0908490611be7565b9091555050505050565b600a54600160a01b90046001600160401b031660008181526003602052604081205490919060ff166111fa57604051630a503cdb60e01b81526001600160401b03821660048201526024016107b9565b600a546001600160a01b0316806112245760405163502ffa3f60e11b815260040160405180910390fd5b600a5460009061123f906001600160a01b0316878388611624565b905060007f0000000000000000000000000000000000000000000000000000000000000000600a546040516320487ded60e01b81529192506000916001600160a01b038416916320487ded916112aa91600160a01b90046001600160401b031690879060040161221c565b602060405180830381865afa1580156112c7573d6000803e3d6000fd5b505050506040513d601f19601f820116820180604052508101906112eb91906122f5565b6001600160a01b038c1660009081526008602052604090205490915081111561134c576001600160a01b038b166000908152600860205260409081902054905163d44547cd60e01b81526004810191909152602481018290526044016107b9565b6001600160a01b038b1660009081526008602052604081208054839290611374908490611fba565b9091555050600a546040516396f4e9f960e01b81526001600160a01b038416916396f4e9f99184916113bc91600160a01b9091046001600160401b031690889060040161221c565b60206040518083038185885af11580156113da573d6000803e3d6000fd5b50505050506040513d601f19601f820116820180604052508101906113ff91906122f5565b9550888a6001600160a01b03168c6001600160a01b03167f5548c837ab068cf56a2c2479df0882a4922fd203edb7517321831d95078c5f6260405160405180910390a4505050505095945050505050565b600061070b825490565b60006111418383611992565b600080546001600160a01b038381166001600160a01b0319831681178455604051919092169283917f8be0079c531659141344cd1fd0a4f28419497f9722a3daafe3b4186f6b6457e09190a35050565b806020015181604001518060200190518101906114d3919061230e565b6001600160401b03821660009081526004602052604090205460ff16611517576040516326bfad9160e21b81526001600160401b03831660048201526024016107b9565b6001600160a01b03811660009081526005602052604090205460ff1661155b576040516338c08ef960e11b81526001600160a01b03821660048201526024016107b9565b6000808460600151806020019051810190611576919061232b565b9092509050600082600181111561158f5761158f611ed8565b03610b2957600080600080848060200190518101906115ae91906123bb565b93509350935093506115c284848484611748565b816001600160a01b0316836001600160a01b0316856001600160a01b03167fee02732fab40ece8284c756220846dff4b8d32058b86b35b4f0459bf172fcef08460405161161191815260200190565b60405180910390a4505050505050505050565b61165f6040518060a0016040528060608152602001606081526020016060815260200160006001600160a01b03168152602001606081525090565b6040805160a081019091526001600160a01b03861660c08201528060e0810160408051808303601f1901815291815290825260208083018890528151600080825291810183529290910191906116d7565b60408051808201909152600080825260208201528152602001906001900390816116b05790505b508152602001846001600160a01b0316815260200161173b60405180602001604052808681525060408051915160248084019190915281518084039091018152604490920190526020810180516001600160e01b03166397a657c960e01b17905290565b905290505b949350505050565b6001600160a01b038216600090815260096020526040902054829060ff1661178e576040516306c942d160e11b81526001600160a01b03821660048201526024016107b9565b6001600160a01b038086166000908152600760209081526040808320938716835292905290812080548492906117c5908490611fba565b90915550610b2990506001600160a01b03841685846119bc565b60008181526001830160205260408120546118265750815460018181018455600084815260208082209093018490558454848252828601909352604090209190915561070b565b50600061070b565b60008181526001830160205260408120548015611917576000611852600183611fba565b855490915060009061186690600190611fba565b90508082146118cb57600086600001828154811061188657611886611f8b565b90600052602060002001549050808760000184815481106118a9576118a9611f8b565b6000918252602080832090910192909255918252600188019052604090208390555b85548690806118dc576118dc61240e565b60019003818190600052602060002001600090559055856001016000868152602001908152602001600020600090556001935050505061070b565b600091505061070b565b6040516001600160a01b038085166024830152831660448201526064810182905261198c9085906323b872dd60e01b906084015b60408051601f198184030181529190526020810180516001600160e01b03166001600160e01b0319909316929092179091526119ec565b50505050565b60008260000182815481106119a9576119a9611f8b565b9060005260206000200154905092915050565b6040516001600160a01b03831660248201526044810182905261075a90849063a9059cbb60e01b90606401611955565b6000611a41826040518060400160405280602081526020017f5361666545524332303a206c6f772d6c6576656c2063616c6c206661696c6564815250856001600160a01b0316611abe9092919063ffffffff16565b80519091501561075a5780806020019051810190611a5f9190612424565b61075a5760405162461bcd60e51b815260206004820152602a60248201527f5361666545524332303a204552433230206f7065726174696f6e20646964206e6044820152691bdd081cdd58d8d9595960b21b60648201526084016107b9565b6060611740848460008585600080866001600160a01b03168587604051611ae59190612441565b60006040518083038185875af1925050503d8060008114611b22576040519150601f19603f3d011682016040523d82523d6000602084013e611b27565b606091505b5091509150610f2f8783838760608315611ba2578251600003611b9b576001600160a01b0385163b611b9b5760405162461bcd60e51b815260206004820152601d60248201527f416464726573733a2063616c6c20746f206e6f6e2d636f6e747261637400000060448201526064016107b9565b5081611740565b6117408383815115611bb75781518083602001fd5b8060405162461bcd60e51b81526004016107b9919061245d565b634e487b7160e01b600052601160045260246000fd5b8082018082111561070b5761070b611bd1565b600060208284031215611c0c57600080fd5b81356001600160e01b03198116811461114157600080fd5b80356001600160401b0381168114611c3b57600080fd5b919050565b8015158114610da957600080fd5b60008060408385031215611c6157600080fd5b611c6a83611c24565b91506020830135611c7a81611c40565b809150509250929050565b6001600160a01b0381168114610da957600080fd5b600080600080600060a08688031215611cb257600080fd5b8535611cbd81611c85565b945060208601359350611cd260408701611c24565b92506060860135611ce281611c85565b949793965091946080013592915050565b600060208284031215611d0557600080fd5b813561114181611c85565b60008060408385031215611d2357600080fd5b8235611d2e81611c85565b946020939093013593505050565b60008060408385031215611d4f57600080fd5b8235611c6a81611c85565b600060208284031215611d6c57600080fd5b5035919050565b6020808252825182820181905260009190848201906040850190845b81811015611db45783516001600160401b031683529284019291840191600101611d8f565b50909695505050505050565b600060208284031215611dd257600080fd5b61114182611c24565b600060208284031215611ded57600080fd5b81356001600160401b03811115611e0357600080fd5b820160a0818503121561114157600080fd5b60008060408385031215611e2857600080fd5b8235611e3381611c85565b91506020830135611c7a81611c85565b60008060008060808587031215611e5957600080fd5b8435611e6481611c85565b93506020850135611e7481611c85565b92506040850135611e8481611c85565b9396929550929360600135925050565b6001600160a01b039687168152948616602086015260408501939093526001600160401b03919091166060840152909216608082015260a081019190915260c00190565b634e487b7160e01b600052602160045260246000fd5b60005b83811015611f09578181015183820152602001611ef1565b50506000910152565b60008151808452611f2a816020860160208601611eee565b601f01601f19169290920160200192915050565b600060058410611f5e57634e487b7160e01b600052602160045260246000fd5b838252604060208301526117406040830184611f12565b634e487b7160e01b600052604160045260246000fd5b634e487b7160e01b600052603260045260246000fd5b600060018201611fb357611fb3611bd1565b5060010190565b8181038181111561070b5761070b611bd1565b604080519081016001600160401b0381118282101715611fef57611fef611f75565b60405290565b60405160a081016001600160401b0381118282101715611fef57611fef611f75565b604051601f8201601f191681016001600160401b038111828210171561203f5761203f611f75565b604052919050565b60006001600160401b0382111561206057612060611f75565b50601f01601f191660200190565b600082601f83011261207f57600080fd5b813561209261208d82612047565b612017565b8181528460208386010111156120a757600080fd5b816020850160208301376000918101602001919091529392505050565b600082601f8301126120d557600080fd5b813560206001600160401b038211156120f0576120f0611f75565b6120fe818360051b01612017565b82815260069290921b8401810191818101908684111561211d57600080fd5b8286015b84811015612165576040818903121561213a5760008081fd5b612142611fcd565b813561214d81611c85565b81528185013585820152835291830191604001612121565b509695505050505050565b600060a0823603121561218257600080fd5b61218a611ff5565b8235815261219a60208401611c24565b602082015260408301356001600160401b03808211156121b957600080fd5b6121c53683870161206e565b604084015260608501359150808211156121de57600080fd5b6121ea3683870161206e565b6060840152608085013591508082111561220357600080fd5b50612210368286016120c4565b60808301525092915050565b600060406001600160401b038516835260208181850152845160a08386015261224860e0860182611f12565b905081860151603f19808784030160608801526122658383611f12565b88860151888203830160808a01528051808352908601945060009350908501905b808410156122b857845180516001600160a01b0316835286015186830152938501936001939093019290860190612286565b5060608901516001600160a01b031660a08901526080890151888203830160c08a015295506122e78187611f12565b9a9950505050505050505050565b60006020828403121561230757600080fd5b5051919050565b60006020828403121561232057600080fd5b815161114181611c85565b6000806040838503121561233e57600080fd5b82516002811061234d57600080fd5b60208401519092506001600160401b0381111561236957600080fd5b8301601f8101851361237a57600080fd5b805161238861208d82612047565b81815286602083850101111561239d57600080fd5b6123ae826020830160208601611eee565b8093505050509250929050565b600080600080608085870312156123d157600080fd5b84516123dc81611c85565b60208601519094506123ed81611c85565b60408601519093506123fe81611c85565b6060959095015193969295505050565b634e487b7160e01b600052603160045260246000fd5b60006020828403121561243657600080fd5b815161114181611c40565b60008251612453818460208701611eee565b9190910192915050565b6020815260006111416020830184611f1256fea26469706673582212204abde161ef25ad7a569509a1518f5b3dcd88133ac30ed3084cbb461ccfcd1e2064736f6c6343000815003300000000000000000000000000000000000000000000000048810ec3e431431f000000000000000000000000114a20a10b43d4115e5aeef7345a1a71d2a60c57000000000000000000000000000000000000000000000000ccf0a31a221f3c9b00000000000000000000000086d76dca88b435e9342f0f8a05523be89c819f3e",
        "nonce": "0x5a",
        "accessList": []
      },
      "additionalContracts": [],
      "isFixedGasLimit": false
    },
    {
      "hash": "0x20867b9f6e9902d90e1b2f2faa3c4c8bee5d5d47fbe88fb983d4a2d25851fdaa",
      "transactionType": "CALL",
      "contractName": "Depositor",
      "contractAddress": "0x3b72037c5c7d211DD45bBFFE051F0CA250405360",
      "function": "setAllowedToken(address,bool)",
      "arguments": [
        "0xF6905F1E4ad86f8C3a1Ebfca3E04a9e4d2adDD0D",
        "true"
      ],
      "transaction": {
        "type": "0x02",
        "from": "0x7af234d569ab6360693806d7e7f439ec2114f93c",
        "to": "0x3b72037c5c7d211dd45bbffe051f0ca250405360",
        "gas": "0xfab2",
        "value": "0x0",
        "data": "0x8aaa2284000000000000000000000000f6905f1e4ad86f8c3a1ebfca3e04a9e4d2addd0d0000000000000000000000000000000000000000000000000000000000000001",
        "nonce": "0x5b",
        "accessList": []
      },
      "additionalContracts": [],
      "isFixedGasLimit": false
    },
    {
      "hash": "0x0085b8925352ebad67460954b45374142b6e666cec222bf1b661a1a836b01600",
      "transactionType": "CALL",
      "contractName": "Depositor",
      "contractAddress": "0x3b72037c5c7d211DD45bBFFE051F0CA250405360",
      "function": "setAllowedToken(address,bool)",
      "arguments": [
        "0x9a24BD7833859d2364EaD5A4aF4b16799693DF12",
        "true"
      ],
      "transaction": {
        "type": "0x02",
        "from": "0x7af234d569ab6360693806d7e7f439ec2114f93c",
        "to": "0x3b72037c5c7d211dd45bbffe051f0ca250405360",
        "gas": "0xfab2",
        "value": "0x0",
        "data": "0x8aaa22840000000000000000000000009a24bd7833859d2364ead5a4af4b16799693df120000000000000000000000000000000000000000000000000000000000000001",
        "nonce": "0x5c",
        "accessList": []
      },
      "additionalContracts": [],
      "isFixedGasLimit": false
    },
    {
      "hash": "0x5befd2a54f319dfb3c568302b9cd84bf8441bda7ddb1c81fdfde26f975cd0dfa",
      "transactionType": "CALL",
      "contractName": "Depositor",
      "contractAddress": "0x3b72037c5c7d211DD45bBFFE051F0CA250405360",
      "function": "setAllowedToken(address,bool)",
      "arguments": [
        "0x244ec7F5753b2Fc10d0C2bAaB1AB55850E73a3AB",
        "true"
      ],
      "transaction": {
        "type": "0x02",
        "from": "0x7af234d569ab6360693806d7e7f439ec2114f93c",
        "to": "0x3b72037c5c7d211dd45bbffe051f0ca250405360",
        "gas": "0xfab2",
        "value": "0x0",
        "data": "0x8aaa2284000000000000000000000000244ec7f5753b2fc10d0c2baab1ab55850e73a3ab0000000000000000000000000000000000000000000000000000000000000001",
        "nonce": "0x5d",
        "accessList": []
      },
      "additionalContracts": [],
      "isFixedGasLimit": false
    },
    {
      "hash": "0x3bef02e5c7c9e486e149c534579ab7622d8d8304c46140afc36afb137886e88b",
      "transactionType": "CALL",
      "contractName": "Depositor",
      "contractAddress": "0x3b72037c5c7d211DD45bBFFE051F0CA250405360",
      "function": "setAllowedToken(address,bool)",
      "arguments": [
        "0xe257e2a67407144C918acaD5e11c2582F77c0B1a",
        "true"
      ],
      "transaction": {
        "type": "0x02",
        "from": "0x7af234d569ab6360693806d7e7f439ec2114f93c",
        "to": "0x3b72037c5c7d211dd45bbffe051f0ca250405360",
        "gas": "0xfab2",
        "value": "0x0",
        "data": "0x8aaa2284000000000000000000000000e257e2a67407144c918acad5e11c2582f77c0b1a0000000000000000000000000000000000000000000000000000000000000001",
        "nonce": "0x5e",
        "accessList": []
      },
      "additionalContracts": [],
      "isFixedGasLimit": false
    },
    {
      "hash": "0x198956674a93ca6820f1720b0215b9e4953df7a1fd72877bc142572118c5a5eb",
      "transactionType": "CALL",
      "contractName": "Depositor",
      "contractAddress": "0x3b72037c5c7d211DD45bBFFE051F0CA250405360",
      "function": "setAllowedToken(address,bool)",
      "arguments": [
        "0x32B8F75d2AC926a0a906F24df3e8Fe2bA17Bd80a",
        "true"
      ],
      "transaction": {
        "type": "0x02",
        "from": "0x7af234d569ab6360693806d7e7f439ec2114f93c",
        "to": "0x3b72037c5c7d211dd45bbffe051f0ca250405360",
        "gas": "0xfab2",
        "value": "0x0",
        "data": "0x8aaa228400000000000000000000000032b8f75d2ac926a0a906f24df3e8fe2ba17bd80a0000000000000000000000000000000000000000000000000000000000000001",
        "nonce": "0x5f",
        "accessList": []
      },
      "additionalContracts": [],
      "isFixedGasLimit": false
    },
    {
      "hash": "0xf29aaf001f3ef97adddc6be6c8af38588b4300b0c720f247bd603197ce2248ef",
      "transactionType": "CALL",
      "contractName": "Depositor",
      "contractAddress": "0x3b72037c5c7d211DD45bBFFE051F0CA250405360",
      "function": "setAllowedToken(address,bool)",
      "arguments": [
        "0xDFf5Ba9FCff83cE455e45De7572B6259b0E7D7dE",
        "true"
      ],
      "transaction": {
        "type": "0x02",
        "from": "0x7af234d569ab6360693806d7e7f439ec2114f93c",
        "to": "0x3b72037c5c7d211dd45bbffe051f0ca250405360",
        "gas": "0xfab2",
        "value": "0x0",
        "data": "0x8aaa2284000000000000000000000000dff5ba9fcff83ce455e45de7572b6259b0e7d7de0000000000000000000000000000000000000000000000000000000000000001",
        "nonce": "0x60",
        "accessList": []
      },
      "additionalContracts": [],
      "isFixedGasLimit": false
    },
    {
      "hash": "0xc8bb793d0b4ed67b417d4fcd1ed088acf8bea0cf11a62fb7f1ba7dde217b331b",
      "transactionType": "CALL",
      "contractName": "Depositor",
      "contractAddress": "0x3b72037c5c7d211DD45bBFFE051F0CA250405360",
      "function": "setAllowedToken(address,bool)",
      "arguments": [
        "0x75b86D7B224Fd88f785BB5FaC5e261D9EFde3047",
        "true"
      ],
      "transaction": {
        "type": "0x02",
        "from": "0x7af234d569ab6360693806d7e7f439ec2114f93c",
        "to": "0x3b72037c5c7d211dd45bbffe051f0ca250405360",
        "gas": "0xfab2",
        "value": "0x0",
        "data": "0x8aaa228400000000000000000000000075b86d7b224fd88f785bb5fac5e261d9efde30470000000000000000000000000000000000000000000000000000000000000001",
        "nonce": "0x61",
        "accessList": []
      },
      "additionalContracts": [],
      "isFixedGasLimit": false
    },
    {
      "hash": "0xd99f1f9ba16929a19cedc600a8913058ceecc3ded4905fb8b5dacdefe2ccc4ad",
      "transactionType": "CALL",
      "contractName": "Depositor",
      "contractAddress": "0x3b72037c5c7d211DD45bBFFE051F0CA250405360",
      "function": "setAllowedDestinationChain(uint64,bool)",
      "arguments": [
        "14767482510784806043",
        "true"
      ],
      "transaction": {
        "type": "0x02",
        "from": "0x7af234d569ab6360693806d7e7f439ec2114f93c",
        "to": "0x3b72037c5c7d211dd45bbffe051f0ca250405360",
        "gas": "0x2862a",
        "value": "0x0",
        "data": "0x1572823c000000000000000000000000000000000000000000000000ccf0a31a221f3c9b0000000000000000000000000000000000000000000000000000000000000001",
        "nonce": "0x62",
        "accessList": []
      },
      "additionalContracts": [],
      "isFixedGasLimit": false
    },
    {
      "hash": "0x27d058b2d6f119fcab9d0b0b2d75b7f53546c861dc16bd7e59e846d026a4a283",
      "transactionType": "CALL",
      "contractName": "Depositor",
      "contractAddress": "0x3b72037c5c7d211DD45bBFFE051F0CA250405360",
      "function": "setAllowedSourceChain(uint64,bool)",
      "arguments": [
        "14767482510784806043",
        "true"
      ],
      "transaction": {
        "type": "0x02",
        "from": "0x7af234d569ab6360693806d7e7f439ec2114f93c",
        "to": "0x3b72037c5c7d211dd45bbffe051f0ca250405360",
        "gas": "0xf998",
        "value": "0x0",
        "data": "0x5d9a2c48000000000000000000000000000000000000000000000000ccf0a31a221f3c9b0000000000000000000000000000000000000000000000000000000000000001",
        "nonce": "0x63",
        "accessList": []
      },
      "additionalContracts": [],
      "isFixedGasLimit": false
    },
    {
      "hash": "0x3a3d07a344b2b0c2cedfc1d5cad03fb2416b7ca5827f3b98ce55762b0dbbccf9",
      "transactionType": "CALL",
      "contractName": "Depositor",
      "contractAddress": "0x3b72037c5c7d211DD45bBFFE051F0CA250405360",
      "function": "setAllowedSender(address,bool)",
      "arguments": [
        "0x86d76dcA88B435E9342F0f8A05523BE89c819F3E",
        "true"
      ],
      "transaction": {
        "type": "0x02",
        "from": "0x7af234d569ab6360693806d7e7f439ec2114f93c",
        "to": "0x3b72037c5c7d211dd45bbffe051f0ca250405360",
        "gas": "0xfa57",
        "value": "0x0",
        "data": "0x4b52ffb000000000000000000000000086d76dca88b435e9342f0f8a05523be89c819f3e0000000000000000000000000000000000000000000000000000000000000001",
        "nonce": "0x64",
        "accessList": []
      },
      "additionalContracts": [],
      "isFixedGasLimit": false
    }
  ],
  "receipts": [
    {
      "transactionHash": "0xfc1eac75a3ffeb8d3145380e2337d4661ee0b93d8e8fdd70557ac67c5f2e4edc",
      "transactionIndex": "0x1",
      "blockHash": "0xaa0154e3f3936cdb7386f86381b3ae06b5d08b7def0c6fb287663ecf28edaad5",
      "blockNumber": "0xc21485",
      "from": "0x7aF234d569aB6360693806D7e7f439Ec2114F93c",
      "to": null,
      "cumulativeGasUsed": "0x223be4",
      "gasUsed": "0x219069",
      "contractAddress": "0x3b72037c5c7d211DD45bBFFE051F0CA250405360",
      "logs": [
        {
          "address": "0x3b72037c5c7d211DD45bBFFE051F0CA250405360",
          "topics": [
            "0x8be0079c531659141344cd1fd0a4f28419497f9722a3daafe3b4186f6b6457e0",
            "0x0000000000000000000000000000000000000000000000000000000000000000",
            "0x0000000000000000000000007af234d569ab6360693806d7e7f439ec2114f93c"
          ],
          "data": "0x",
          "blockHash": "0xaa0154e3f3936cdb7386f86381b3ae06b5d08b7def0c6fb287663ecf28edaad5",
          "blockNumber": "0xc21485",
          "transactionHash": "0xfc1eac75a3ffeb8d3145380e2337d4661ee0b93d8e8fdd70557ac67c5f2e4edc",
          "transactionIndex": "0x1",
          "logIndex": "0x0",
          "removed": false
        }
      ],
      "status": "0x1",
      "logsBloom": "0x00000000080000000000000000000000000000000000000000800000000000000000000000000000000000000000000000000000000000000000000000000000000000000000000000000000000000000001000000000000000000000000000000000000020000000000000000000800000000000000000000000000000000400000000000000000000000000000000000000000000008000000000080000001000000000000000000000000000000000000000000000000000000100000000000000000000000000000000000000000000000000000000040000000000020000000000000000000000000000000000000000000000000000000000000000000",
      "type": "0x2",
      "effectiveGasPrice": "0xb2d05f00"
    },
    {
      "transactionHash": "0x20867b9f6e9902d90e1b2f2faa3c4c8bee5d5d47fbe88fb983d4a2d25851fdaa",
      "transactionIndex": "0x2",
      "blockHash": "0xaa0154e3f3936cdb7386f86381b3ae06b5d08b7def0c6fb287663ecf28edaad5",
      "blockNumber": "0xc21485",
      "from": "0x7aF234d569aB6360693806D7e7f439Ec2114F93c",
      "to": "0x3b72037c5c7d211DD45bBFFE051F0CA250405360",
      "cumulativeGasUsed": "0x22f164",
      "gasUsed": "0xb580",
      "contractAddress": null,
      "logs": [],
      "status": "0x1",
      "logsBloom": "0x00000000000000000000000000000000000000000000000000000000000000000000000000000000000000000000000000000000000000000000000000000000000000000000000000000000000000000000000000000000000000000000000000000000000000000000000000000000000000000000000000000000000000000000000000000000000000000000000000000000000000000000000000000000000000000000000000000000000000000000000000000000000000000000000000000000000000000000000000000000000000000000000000000000000000000000000000000000000000000000000000000000000000000000000000000000",
      "type": "0x2",
      "effectiveGasPrice": "0xb2d05f00"
    },
    {
      "transactionHash": "0x0085b8925352ebad67460954b45374142b6e666cec222bf1b661a1a836b01600",
      "transactionIndex": "0x3",
      "blockHash": "0xaa0154e3f3936cdb7386f86381b3ae06b5d08b7def0c6fb287663ecf28edaad5",
      "blockNumber": "0xc21485",
      "from": "0x7aF234d569aB6360693806D7e7f439Ec2114F93c",
      "to": "0x3b72037c5c7d211DD45bBFFE051F0CA250405360",
      "cumulativeGasUsed": "0x23a6e4",
      "gasUsed": "0xb580",
      "contractAddress": null,
      "logs": [],
      "status": "0x1",
      "logsBloom": "0x00000000000000000000000000000000000000000000000000000000000000000000000000000000000000000000000000000000000000000000000000000000000000000000000000000000000000000000000000000000000000000000000000000000000000000000000000000000000000000000000000000000000000000000000000000000000000000000000000000000000000000000000000000000000000000000000000000000000000000000000000000000000000000000000000000000000000000000000000000000000000000000000000000000000000000000000000000000000000000000000000000000000000000000000000000000",
      "type": "0x2",
      "effectiveGasPrice": "0xb2d05f00"
    },
    {
      "transactionHash": "0x5befd2a54f319dfb3c568302b9cd84bf8441bda7ddb1c81fdfde26f975cd0dfa",
      "transactionIndex": "0x4",
      "blockHash": "0xaa0154e3f3936cdb7386f86381b3ae06b5d08b7def0c6fb287663ecf28edaad5",
      "blockNumber": "0xc21485",
      "from": "0x7aF234d569aB6360693806D7e7f439Ec2114F93c",
      "to": "0x3b72037c5c7d211DD45bBFFE051F0CA250405360",
      "cumulativeGasUsed": "0x245c64",
      "gasUsed": "0xb580",
      "contractAddress": null,
      "logs": [],
      "status": "0x1",
      "logsBloom": "0x00000000000000000000000000000000000000000000000000000000000000000000000000000000000000000000000000000000000000000000000000000000000000000000000000000000000000000000000000000000000000000000000000000000000000000000000000000000000000000000000000000000000000000000000000000000000000000000000000000000000000000000000000000000000000000000000000000000000000000000000000000000000000000000000000000000000000000000000000000000000000000000000000000000000000000000000000000000000000000000000000000000000000000000000000000000",
      "type": "0x2",
      "effectiveGasPrice": "0xb2d05f00"
    },
    {
      "transactionHash": "0x3bef02e5c7c9e486e149c534579ab7622d8d8304c46140afc36afb137886e88b",
      "transactionIndex": "0x5",
      "blockHash": "0xaa0154e3f3936cdb7386f86381b3ae06b5d08b7def0c6fb287663ecf28edaad5",
      "blockNumber": "0xc21485",
      "from": "0x7aF234d569aB6360693806D7e7f439Ec2114F93c",
      "to": "0x3b72037c5c7d211DD45bBFFE051F0CA250405360",
      "cumulativeGasUsed": "0x2511e4",
      "gasUsed": "0xb580",
      "contractAddress": null,
      "logs": [],
      "status": "0x1",
      "logsBloom": "0x00000000000000000000000000000000000000000000000000000000000000000000000000000000000000000000000000000000000000000000000000000000000000000000000000000000000000000000000000000000000000000000000000000000000000000000000000000000000000000000000000000000000000000000000000000000000000000000000000000000000000000000000000000000000000000000000000000000000000000000000000000000000000000000000000000000000000000000000000000000000000000000000000000000000000000000000000000000000000000000000000000000000000000000000000000000",
      "type": "0x2",
      "effectiveGasPrice": "0xb2d05f00"
    },
    {
      "transactionHash": "0x198956674a93ca6820f1720b0215b9e4953df7a1fd72877bc142572118c5a5eb",
      "transactionIndex": "0x6",
      "blockHash": "0xaa0154e3f3936cdb7386f86381b3ae06b5d08b7def0c6fb287663ecf28edaad5",
      "blockNumber": "0xc21485",
      "from": "0x7aF234d569aB6360693806D7e7f439Ec2114F93c",
      "to": "0x3b72037c5c7d211DD45bBFFE051F0CA250405360",
      "cumulativeGasUsed": "0x25c764",
      "gasUsed": "0xb580",
      "contractAddress": null,
      "logs": [],
      "status": "0x1",
      "logsBloom": "0x00000000000000000000000000000000000000000000000000000000000000000000000000000000000000000000000000000000000000000000000000000000000000000000000000000000000000000000000000000000000000000000000000000000000000000000000000000000000000000000000000000000000000000000000000000000000000000000000000000000000000000000000000000000000000000000000000000000000000000000000000000000000000000000000000000000000000000000000000000000000000000000000000000000000000000000000000000000000000000000000000000000000000000000000000000000",
      "type": "0x2",
      "effectiveGasPrice": "0xb2d05f00"
    },
    {
      "transactionHash": "0xf29aaf001f3ef97adddc6be6c8af38588b4300b0c720f247bd603197ce2248ef",
      "transactionIndex": "0x7",
      "blockHash": "0xaa0154e3f3936cdb7386f86381b3ae06b5d08b7def0c6fb287663ecf28edaad5",
      "blockNumber": "0xc21485",
      "from": "0x7aF234d569aB6360693806D7e7f439Ec2114F93c",
      "to": "0x3b72037c5c7d211DD45bBFFE051F0CA250405360",
      "cumulativeGasUsed": "0x267ce4",
      "gasUsed": "0xb580",
      "contractAddress": null,
      "logs": [],
      "status": "0x1",
      "logsBloom": "0x00000000000000000000000000000000000000000000000000000000000000000000000000000000000000000000000000000000000000000000000000000000000000000000000000000000000000000000000000000000000000000000000000000000000000000000000000000000000000000000000000000000000000000000000000000000000000000000000000000000000000000000000000000000000000000000000000000000000000000000000000000000000000000000000000000000000000000000000000000000000000000000000000000000000000000000000000000000000000000000000000000000000000000000000000000000",
      "type": "0x2",
      "effectiveGasPrice": "0xb2d05f00"
    },
    {
      "transactionHash": "0xc8bb793d0b4ed67b417d4fcd1ed088acf8bea0cf11a62fb7f1ba7dde217b331b",
      "transactionIndex": "0x8",
      "blockHash": "0xaa0154e3f3936cdb7386f86381b3ae06b5d08b7def0c6fb287663ecf28edaad5",
      "blockNumber": "0xc21485",
      "from": "0x7aF234d569aB6360693806D7e7f439Ec2114F93c",
      "to": "0x3b72037c5c7d211DD45bBFFE051F0CA250405360",
      "cumulativeGasUsed": "0x273264",
      "gasUsed": "0xb580",
      "contractAddress": null,
      "logs": [],
      "status": "0x1",
      "logsBloom": "0x00000000000000000000000000000000000000000000000000000000000000000000000000000000000000000000000000000000000000000000000000000000000000000000000000000000000000000000000000000000000000000000000000000000000000000000000000000000000000000000000000000000000000000000000000000000000000000000000000000000000000000000000000000000000000000000000000000000000000000000000000000000000000000000000000000000000000000000000000000000000000000000000000000000000000000000000000000000000000000000000000000000000000000000000000000000",
      "type": "0x2",
      "effectiveGasPrice": "0xb2d05f00"
    },
    {
      "transactionHash": "0xd99f1f9ba16929a19cedc600a8913058ceecc3ded4905fb8b5dacdefe2ccc4ad",
      "transactionIndex": "0x9",
      "blockHash": "0xaa0154e3f3936cdb7386f86381b3ae06b5d08b7def0c6fb287663ecf28edaad5",
      "blockNumber": "0xc21485",
      "from": "0x7aF234d569aB6360693806D7e7f439Ec2114F93c",
      "to": "0x3b72037c5c7d211DD45bBFFE051F0CA250405360",
      "cumulativeGasUsed": "0x28ec37",
      "gasUsed": "0x1b9d3",
      "contractAddress": null,
      "logs": [],
      "status": "0x1",
      "logsBloom": "0x00000000000000000000000000000000000000000000000000000000000000000000000000000000000000000000000000000000000000000000000000000000000000000000000000000000000000000000000000000000000000000000000000000000000000000000000000000000000000000000000000000000000000000000000000000000000000000000000000000000000000000000000000000000000000000000000000000000000000000000000000000000000000000000000000000000000000000000000000000000000000000000000000000000000000000000000000000000000000000000000000000000000000000000000000000000",
      "type": "0x2",
      "effectiveGasPrice": "0xb2d05f00"
    },
    {
      "transactionHash": "0x27d058b2d6f119fcab9d0b0b2d75b7f53546c861dc16bd7e59e846d026a4a283",
      "transactionIndex": "0xa",
      "blockHash": "0xaa0154e3f3936cdb7386f86381b3ae06b5d08b7def0c6fb287663ecf28edaad5",
      "blockNumber": "0xc21485",
      "from": "0x7aF234d569aB6360693806D7e7f439Ec2114F93c",
      "to": "0x3b72037c5c7d211DD45bBFFE051F0CA250405360",
      "cumulativeGasUsed": "0x29a0eb",
      "gasUsed": "0xb4b4",
      "contractAddress": null,
      "logs": [],
      "status": "0x1",
      "logsBloom": "0x00000000000000000000000000000000000000000000000000000000000000000000000000000000000000000000000000000000000000000000000000000000000000000000000000000000000000000000000000000000000000000000000000000000000000000000000000000000000000000000000000000000000000000000000000000000000000000000000000000000000000000000000000000000000000000000000000000000000000000000000000000000000000000000000000000000000000000000000000000000000000000000000000000000000000000000000000000000000000000000000000000000000000000000000000000000",
      "type": "0x2",
      "effectiveGasPrice": "0xb2d05f00"
    },
    {
      "transactionHash": "0x3a3d07a344b2b0c2cedfc1d5cad03fb2416b7ca5827f3b98ce55762b0dbbccf9",
      "transactionIndex": "0x1",
      "blockHash": "0xdf6aedb51f9bbb4d908088306f68f5fceb789498946b5cf78226913cb7243b96",
      "blockNumber": "0xc21486",
      "from": "0x7aF234d569aB6360693806D7e7f439Ec2114F93c",
      "to": "0x3b72037c5c7d211DD45bBFFE051F0CA250405360",
      "cumulativeGasUsed": "0x160ba",
      "gasUsed": "0xb53f",
      "contractAddress": null,
      "logs": [],
      "status": "0x1",
      "logsBloom": "0x00000000000000000000000000000000000000000000000000000000000000000000000000000000000000000000000000000000000000000000000000000000000000000000000000000000000000000000000000000000000000000000000000000000000000000000000000000000000000000000000000000000000000000000000000000000000000000000000000000000000000000000000000000000000000000000000000000000000000000000000000000000000000000000000000000000000000000000000000000000000000000000000000000000000000000000000000000000000000000000000000000000000000000000000000000000",
      "type": "0x2",
      "effectiveGasPrice": "0xb2d05f00"
    }
  ],
  "libraries": [],
  "pending": [],
  "returns": {
    "depositor": {
      "internal_type": "contract Depositor",
      "value": "0x3b72037c5c7d211DD45bBFFE051F0CA250405360"
    }
  },
  "timestamp": 1717241022,
  "chain": 11155420,
  "multi": false,
  "commit": "d79c3f0"
}