{
  "transactions": [
    {
      "hash": "0x38d96dcfadcb4117e71c61c34fef57ab564f5e30f94655cd0b41cc76dc9b19fc",
      "transactionType": "CREATE",
      "contractName": "Depositor",
      "contractAddress": "0x09484F76B7376D53FC5e4F52FaBEe3Fe3aac525c",
      "function": null,
      "arguments": [
        "0x9C32fCB86BF0f4a1A8921a9Fe46de3198bb884B2",
        "14767482510784806043",
        "0x1658727bd2E390837D39c2fffE41e16Dc1D6c27b"
      ],
      "transaction": {
        "type": "0x02",
        "from": "0x7af234d569ab6360693806d7e7f439ec2114f93c",
        "gas": "0x1d47d3",
        "value": "0x0",
        "data": "0x60e06040523480156200001157600080fd5b5060405162001b2538038062001b25833981016040819052620000349162000132565b8233816001600160a01b03811662000067576040516335fdcccd60e21b8152600060048201526024015b60405180910390fd5b6001600160a01b0390811660805281166200009957604051631e4fbdf760e01b8152600060048201526024016200005e565b620000a481620000c5565b50506001600160a01b031660a0526001600160401b031660c052506200018a565b600080546001600160a01b038381166001600160a01b0319831681178455604051919092169283917f8be0079c531659141344cd1fd0a4f28419497f9722a3daafe3b4186f6b6457e09190a35050565b80516001600160a01b03811681146200012d57600080fd5b919050565b6000806000606084860312156200014857600080fd5b620001538462000115565b60208501519093506001600160401b03811681146200017157600080fd5b9150620001816040850162000115565b90509250925092565b60805160a05160c05161193a620001eb600039600081816101f6015281816107c0015281816108e80152610a070152600081816101820152818161082801526108750152600081816103e80152818161065a01526108ae015261193a6000f3fe60806040526004361061010d5760003560e01c8063715018a6116100955780638da5cb5b116100645780638da5cb5b1461038b578063aa84600a146103a9578063b0f479a1146103d9578063dd406fd51461040c578063f2fde38b1461043c57600080fd5b8063715018a6146102f057806385572ffb1461030557806387c0cc4f146103255780638aaa22841461036b57600080fd5b806347e7ef24116100dc57806347e7ef24146102205780634b52ffb0146102335780635d9a2c48146102535780636aa673db146102735780636e543d70146102b757600080fd5b806301ffc9a71461013e5780631165b26a146101735780631572823c146101ba5780632374d710146101dc57600080fd5b366101395733600090815260076020526040812080543492906101319084906111f8565b925050819055005b600080fd5b34801561014a57600080fd5b5061015e61015936600461120b565b61045c565b60405190151581526020015b60405180910390f35b34801561017f57600080fd5b507f00000000000000000000000000000000000000000000000000000000000000005b6040516001600160a01b03909116815260200161016a565b3480156101c657600080fd5b506101da6101d536600461125f565b610493565b005b3480156101e857600080fd5b506040516001600160401b037f000000000000000000000000000000000000000000000000000000000000000016815260200161016a565b6101da61022e3660046112ab565b6104f5565b34801561023f57600080fd5b506101da61024e3660046112d7565b6105d5565b34801561025f57600080fd5b506101da61026e36600461125f565b610608565b34801561027f57600080fd5b506102a961028e3660046112f5565b6001600160a01b031660009081526007602052604090205490565b60405190815260200161016a565b3480156102c357600080fd5b5061015e6102d23660046112f5565b6001600160a01b031660009081526008602052604090205460ff1690565b3480156102fc57600080fd5b506101da61063b565b34801561031157600080fd5b506101da610320366004611312565b61064f565b34801561033157600080fd5b506102a961034036600461134c565b6001600160a01b03918216600090815260066020908152604080832093909416825291909152205490565b34801561037757600080fd5b506101da6103863660046112d7565b6106ae565b34801561039757600080fd5b506000546001600160a01b03166101a2565b3480156103b557600080fd5b5061015e6103c436600461137a565b60046020526000908152604090205460ff1681565b3480156103e557600080fd5b507f00000000000000000000000000000000000000000000000000000000000000006101a2565b34801561041857600080fd5b5061015e6104273660046112f5565b60056020526000908152604090205460ff1681565b34801561044857600080fd5b506101da6104573660046112f5565b6106e1565b60006001600160e01b031982166385572ffb60e01b148061048d57506001600160e01b031982166301ffc9a760e01b145b92915050565b61049b61071c565b6001600160401b0382166000908152600360205260409020805460ff191682158015919091179091556104e1576104dc60016001600160401b038416610749565b505050565b6104dc60016001600160401b03841661075c565b6001600160a01b038216600090815260086020526040902054829060ff16610540576040516306c942d160e11b81526001600160a01b03821660048201526024015b60405180910390fd5b336000908152600760205260408120805434929061055f9084906111f8565b909155506105709050338484610768565b604080513360208201526001600160a01b03851681830152606080820185905282518083039091018152608082019092526000916105b39183919060a0016113fb565b60405160208183030381529060405290506105ce33826107be565b5050505050565b6105dd61071c565b6001600160a01b03919091166000908152600560205260409020805460ff1916911515919091179055565b61061061071c565b6001600160401b03919091166000908152600460205260409020805460ff1916911515919091179055565b61064361071c565b61064d6000610a80565b565b336001600160a01b037f0000000000000000000000000000000000000000000000000000000000000000161461069a576040516335fdcccd60e21b8152336004820152602401610537565b6106ab6106a6826115eb565b610ad0565b50565b6106b661071c565b6001600160a01b03919091166000908152600860205260409020805460ff1916911515919091179055565b6106e961071c565b6001600160a01b03811661071357604051631e4fbdf760e01b815260006004820152602401610537565b6106ab81610a80565b6000546001600160a01b0316331461064d5760405163118cdaa760e01b8152336004820152602401610537565b60006107558383610be2565b9392505050565b60006107558383610c31565b61077d6001600160a01b038316843084610d24565b6001600160a01b038084166000908152600660209081526040808320938616835292905290812080548392906107b49084906111f8565b9091555050505050565b7f00000000000000000000000000000000000000000000000000000000000000006001600160401b03811660009081526003602052604081205490919060ff1661082657604051630a503cdb60e01b81526001600160401b0382166004820152602401610537565b7f00000000000000000000000000000000000000000000000000000000000000006001600160a01b03811661086e5760405163502ffa3f60e11b815260040160405180910390fd5b600061089c7f0000000000000000000000000000000000000000000000000000000000000000866000610d95565b6040516320487ded60e01b81529091507f0000000000000000000000000000000000000000000000000000000000000000906000906001600160a01b038316906320487ded90610912907f0000000000000000000000000000000000000000000000000000000000000000908790600401611697565b602060405180830381865afa15801561092f573d6000803e3d6000fd5b505050506040513d601f19601f820116820180604052508101906109539190611770565b6001600160a01b0389166000908152600760205260409020549091508111156109b4576001600160a01b0388166000908152600760205260409081902054905163d44547cd60e01b8152600481019190915260248101829052604401610537565b6001600160a01b038816600090815260076020526040812080548392906109dc908490611789565b90915550506040516396f4e9f960e01b81526001600160a01b038316906396f4e9f9908390610a31907f0000000000000000000000000000000000000000000000000000000000000000908890600401611697565b60206040518083038185885af1158015610a4f573d6000803e3d6000fd5b50505050506040513d601f19601f82011682018060405250810190610a749190611770565b98975050505050505050565b600080546001600160a01b038381166001600160a01b0319831681178455604051919092169283917f8be0079c531659141344cd1fd0a4f28419497f9722a3daafe3b4186f6b6457e09190a35050565b80602001518160400151806020019051810190610aed919061179c565b6001600160401b03821660009081526004602052604090205460ff16610b31576040516326bfad9160e21b81526001600160401b0383166004820152602401610537565b6001600160a01b03811660009081526005602052604090205460ff16610b75576040516338c08ef960e11b81526001600160a01b0382166004820152602401610537565b6000808460600151806020019051810190610b9091906117b9565b90925090506000826001811115610ba957610ba9611395565b036105ce57600080600083806020019051810190610bc79190611849565b925092509250610bd8838383610eb9565b5050505050505050565b6000818152600183016020526040812054610c295750815460018181018455600084815260208082209093018490558454848252828601909352604090209190915561048d565b50600061048d565b60008181526001830160205260408120548015610d1a576000610c55600183611789565b8554909150600090610c6990600190611789565b9050808214610cce576000866000018281548110610c8957610c8961188c565b9060005260206000200154905080876000018481548110610cac57610cac61188c565b6000918252602080832090910192909255918252600188019052604090208390555b8554869080610cdf57610cdf6118a2565b60019003818190600052602060002001600090559055856001016000868152602001908152602001600020600090556001935050505061048d565b600091505061048d565b6040516001600160a01b0380851660248301528316604482015260648101829052610d8f9085906323b872dd60e01b906084015b60408051601f198184030181529190526020810180516001600160e01b03166001600160e01b031990931692909217909152610f50565b50505050565b610dd06040518060a0016040528060608152602001606081526020016060815260200160006001600160a01b03168152602001606081525090565b6040805160a081019091526001600160a01b03851660c08201528060e0810160408051808303601f190181529181529082526020808301879052815160008082529181018352929091019190610e48565b6040805180820190915260008082526020820152815260200190600190039081610e215790505b508152602001836001600160a01b03168152602001610eaf604051806020016040528062030d4081525060408051915160248084019190915281518084039091018152604490920190526020810180516001600160e01b03166397a657c960e01b17905290565b9052949350505050565b6001600160a01b038216600090815260086020526040902054829060ff16610eff576040516306c942d160e11b81526001600160a01b0382166004820152602401610537565b6001600160a01b03808516600090815260066020908152604080832093871683529290529081208054849290610f36908490611789565b90915550610d8f90506001600160a01b0384168584611022565b6000610fa5826040518060400160405280602081526020017f5361666545524332303a206c6f772d6c6576656c2063616c6c206661696c6564815250856001600160a01b03166110529092919063ffffffff16565b8051909150156104dc5780806020019051810190610fc391906118b8565b6104dc5760405162461bcd60e51b815260206004820152602a60248201527f5361666545524332303a204552433230206f7065726174696f6e20646964206e6044820152691bdd081cdd58d8d9595960b21b6064820152608401610537565b6040516001600160a01b0383166024820152604481018290526104dc90849063a9059cbb60e01b90606401610d58565b60606110618484600085611069565b949350505050565b6060824710156110ca5760405162461bcd60e51b815260206004820152602660248201527f416464726573733a20696e73756666696369656e742062616c616e636520666f6044820152651c8818d85b1b60d21b6064820152608401610537565b600080866001600160a01b031685876040516110e691906118d5565b60006040518083038185875af1925050503d8060008114611123576040519150601f19603f3d011682016040523d82523d6000602084013e611128565b606091505b509150915061113987838387611144565b979650505050505050565b606083156111b35782516000036111ac576001600160a01b0385163b6111ac5760405162461bcd60e51b815260206004820152601d60248201527f416464726573733a2063616c6c20746f206e6f6e2d636f6e74726163740000006044820152606401610537565b5081611061565b61106183838151156111c85781518083602001fd5b8060405162461bcd60e51b815260040161053791906118f1565b634e487b7160e01b600052601160045260246000fd5b8082018082111561048d5761048d6111e2565b60006020828403121561121d57600080fd5b81356001600160e01b03198116811461075557600080fd5b80356001600160401b038116811461124c57600080fd5b919050565b80151581146106ab57600080fd5b6000806040838503121561127257600080fd5b61127b83611235565b9150602083013561128b81611251565b809150509250929050565b6001600160a01b03811681146106ab57600080fd5b600080604083850312156112be57600080fd5b82356112c981611296565b946020939093013593505050565b600080604083850312156112ea57600080fd5b823561127b81611296565b60006020828403121561130757600080fd5b813561075581611296565b60006020828403121561132457600080fd5b81356001600160401b0381111561133a57600080fd5b820160a0818503121561075557600080fd5b6000806040838503121561135f57600080fd5b823561136a81611296565b9150602083013561128b81611296565b60006020828403121561138c57600080fd5b61075582611235565b634e487b7160e01b600052602160045260246000fd5b60005b838110156113c65781810151838201526020016113ae565b50506000910152565b600081518084526113e78160208601602086016113ab565b601f01601f19169290920160200192915050565b60006002841061141b57634e487b7160e01b600052602160045260246000fd5b8382526040602083015261106160408301846113cf565b634e487b7160e01b600052604160045260246000fd5b604080519081016001600160401b038111828210171561146a5761146a611432565b60405290565b60405160a081016001600160401b038111828210171561146a5761146a611432565b604051601f8201601f191681016001600160401b03811182821017156114ba576114ba611432565b604052919050565b60006001600160401b038211156114db576114db611432565b50601f01601f191660200190565b600082601f8301126114fa57600080fd5b813561150d611508826114c2565b611492565b81815284602083860101111561152257600080fd5b816020850160208301376000918101602001919091529392505050565b600082601f83011261155057600080fd5b813560206001600160401b0382111561156b5761156b611432565b611579818360051b01611492565b82815260069290921b8401810191818101908684111561159857600080fd5b8286015b848110156115e057604081890312156115b55760008081fd5b6115bd611448565b81356115c881611296565b8152818501358582015283529183019160400161159c565b509695505050505050565b600060a082360312156115fd57600080fd5b611605611470565b8235815261161560208401611235565b602082015260408301356001600160401b038082111561163457600080fd5b611640368387016114e9565b6040840152606085013591508082111561165957600080fd5b611665368387016114e9565b6060840152608085013591508082111561167e57600080fd5b5061168b3682860161153f565b60808301525092915050565b600060406001600160401b038516835260208181850152845160a0838601526116c360e08601826113cf565b905081860151603f19808784030160608801526116e083836113cf565b88860151888203830160808a01528051808352908601945060009350908501905b8084101561173357845180516001600160a01b0316835286015186830152938501936001939093019290860190611701565b5060608901516001600160a01b031660a08901526080890151888203830160c08a0152955061176281876113cf565b9a9950505050505050505050565b60006020828403121561178257600080fd5b5051919050565b8181038181111561048d5761048d6111e2565b6000602082840312156117ae57600080fd5b815161075581611296565b600080604083850312156117cc57600080fd5b8251600281106117db57600080fd5b60208401519092506001600160401b038111156117f757600080fd5b8301601f8101851361180857600080fd5b8051611816611508826114c2565b81815286602083850101111561182b57600080fd5b61183c8260208301602086016113ab565b8093505050509250929050565b60008060006060848603121561185e57600080fd5b835161186981611296565b602085015190935061187a81611296565b80925050604084015190509250925092565b634e487b7160e01b600052603260045260246000fd5b634e487b7160e01b600052603160045260246000fd5b6000602082840312156118ca57600080fd5b815161075581611251565b600082516118e78184602087016113ab565b9190910192915050565b60208152600061075560208301846113cf56fea2646970667358221220d4a18eb44a9a833b4915c7ced7bdcf3e9f148679be912fab26e1706ba145cf6964736f6c634300081500330000000000000000000000009c32fcb86bf0f4a1a8921a9fe46de3198bb884b2000000000000000000000000000000000000000000000000ccf0a31a221f3c9b0000000000000000000000001658727bd2e390837d39c2fffe41e16dc1d6c27b",
        "nonce": "0x7",
        "accessList": []
      },
      "additionalContracts": [],
      "isFixedGasLimit": false
    },
    {
      "hash": "0x7c287da5e12cdd6b8663a099e02e8b262971c16734b6b64710c5fd1dac896299",
      "transactionType": "CALL",
      "contractName": "Depositor",
      "contractAddress": "0x09484F76B7376D53FC5e4F52FaBEe3Fe3aac525c",
      "function": "setAllowedToken(address,bool)",
      "arguments": [
        "0xF6905F1E4ad86f8C3a1Ebfca3E04a9e4d2adDD0D",
        "true"
      ],
      "transaction": {
        "type": "0x02",
        "from": "0x7af234d569ab6360693806d7e7f439ec2114f93c",
        "to": "0x09484f76b7376d53fc5e4f52fabee3fe3aac525c",
        "gas": "0x10951",
        "value": "0x0",
        "data": "0x8aaa2284000000000000000000000000f6905f1e4ad86f8c3a1ebfca3e04a9e4d2addd0d0000000000000000000000000000000000000000000000000000000000000001",
        "nonce": "0x8",
        "accessList": []
      },
      "additionalContracts": [],
      "isFixedGasLimit": false
    },
    {
      "hash": "0x74047435c7f9b1b79a252e006f9dba088fa03dbb7cde439e6d09408ef15dd1dd",
      "transactionType": "CALL",
      "contractName": "Depositor",
      "contractAddress": "0x09484F76B7376D53FC5e4F52FaBEe3Fe3aac525c",
      "function": "setAllowedToken(address,bool)",
      "arguments": [
        "0x9a24BD7833859d2364EaD5A4aF4b16799693DF12",
        "true"
      ],
      "transaction": {
        "type": "0x02",
        "from": "0x7af234d569ab6360693806d7e7f439ec2114f93c",
        "to": "0x09484f76b7376d53fc5e4f52fabee3fe3aac525c",
        "gas": "0x10951",
        "value": "0x0",
        "data": "0x8aaa22840000000000000000000000009a24bd7833859d2364ead5a4af4b16799693df120000000000000000000000000000000000000000000000000000000000000001",
        "nonce": "0x9",
        "accessList": []
      },
      "additionalContracts": [],
      "isFixedGasLimit": false
    },
    {
      "hash": "0xf0c78ebcb55facd7e95c14c7a3749f6654f5fb11b930735a056cd6ea6773ddf2",
      "transactionType": "CALL",
      "contractName": "Depositor",
      "contractAddress": "0x09484F76B7376D53FC5e4F52FaBEe3Fe3aac525c",
      "function": "setAllowedToken(address,bool)",
      "arguments": [
        "0x244ec7F5753b2Fc10d0C2bAaB1AB55850E73a3AB",
        "true"
      ],
      "transaction": {
        "type": "0x02",
        "from": "0x7af234d569ab6360693806d7e7f439ec2114f93c",
        "to": "0x09484f76b7376d53fc5e4f52fabee3fe3aac525c",
        "gas": "0x10951",
        "value": "0x0",
        "data": "0x8aaa2284000000000000000000000000244ec7f5753b2fc10d0c2baab1ab55850e73a3ab0000000000000000000000000000000000000000000000000000000000000001",
        "nonce": "0xa",
        "accessList": []
      },
      "additionalContracts": [],
      "isFixedGasLimit": false
    },
    {
      "hash": "0x85576ecc8cdfe15c9ec9f8b35792492ae7b2cb9da5f3657194717ce36e216a2d",
      "transactionType": "CALL",
      "contractName": "Depositor",
      "contractAddress": "0x09484F76B7376D53FC5e4F52FaBEe3Fe3aac525c",
      "function": "setAllowedToken(address,bool)",
      "arguments": [
        "0xe257e2a67407144C918acaD5e11c2582F77c0B1a",
        "true"
      ],
      "transaction": {
        "type": "0x02",
        "from": "0x7af234d569ab6360693806d7e7f439ec2114f93c",
        "to": "0x09484f76b7376d53fc5e4f52fabee3fe3aac525c",
        "gas": "0x10951",
        "value": "0x0",
        "data": "0x8aaa2284000000000000000000000000e257e2a67407144c918acad5e11c2582f77c0b1a0000000000000000000000000000000000000000000000000000000000000001",
        "nonce": "0xb",
        "accessList": []
      },
      "additionalContracts": [],
      "isFixedGasLimit": false
    },
    {
      "hash": "0x923c62705e4f463cb3e8659b16b0c5fe50783c8350a5222f99df4049e4970a8e",
      "transactionType": "CALL",
      "contractName": "Depositor",
      "contractAddress": "0x09484F76B7376D53FC5e4F52FaBEe3Fe3aac525c",
      "function": "setAllowedToken(address,bool)",
      "arguments": [
        "0x32B8F75d2AC926a0a906F24df3e8Fe2bA17Bd80a",
        "true"
      ],
      "transaction": {
        "type": "0x02",
        "from": "0x7af234d569ab6360693806d7e7f439ec2114f93c",
        "to": "0x09484f76b7376d53fc5e4f52fabee3fe3aac525c",
        "gas": "0x10951",
        "value": "0x0",
        "data": "0x8aaa228400000000000000000000000032b8f75d2ac926a0a906f24df3e8fe2ba17bd80a0000000000000000000000000000000000000000000000000000000000000001",
        "nonce": "0xc",
        "accessList": []
      },
      "additionalContracts": [],
      "isFixedGasLimit": false
    },
    {
      "hash": "0x652b2cf73890aed1cccdb0794cc4fc2f965528d7b0f9be3c9fbf4d6c76975b95",
      "transactionType": "CALL",
      "contractName": "Depositor",
      "contractAddress": "0x09484F76B7376D53FC5e4F52FaBEe3Fe3aac525c",
      "function": "setAllowedToken(address,bool)",
      "arguments": [
        "0xDFf5Ba9FCff83cE455e45De7572B6259b0E7D7dE",
        "true"
      ],
      "transaction": {
        "type": "0x02",
        "from": "0x7af234d569ab6360693806d7e7f439ec2114f93c",
        "to": "0x09484f76b7376d53fc5e4f52fabee3fe3aac525c",
        "gas": "0x10951",
        "value": "0x0",
        "data": "0x8aaa2284000000000000000000000000dff5ba9fcff83ce455e45de7572b6259b0e7d7de0000000000000000000000000000000000000000000000000000000000000001",
        "nonce": "0xd",
        "accessList": []
      },
      "additionalContracts": [],
      "isFixedGasLimit": false
    },
    {
      "hash": "0x6ab5850bd1f94b28cf4de09081b6b17e04fa3c20f28256bb4e18926bc5bb9624",
      "transactionType": "CALL",
      "contractName": "Depositor",
      "contractAddress": "0x09484F76B7376D53FC5e4F52FaBEe3Fe3aac525c",
      "function": "setAllowedToken(address,bool)",
      "arguments": [
        "0x75b86D7B224Fd88f785BB5FaC5e261D9EFde3047",
        "true"
      ],
      "transaction": {
        "type": "0x02",
        "from": "0x7af234d569ab6360693806d7e7f439ec2114f93c",
        "to": "0x09484f76b7376d53fc5e4f52fabee3fe3aac525c",
        "gas": "0x10951",
        "value": "0x0",
        "data": "0x8aaa228400000000000000000000000075b86d7b224fd88f785bb5fac5e261d9efde30470000000000000000000000000000000000000000000000000000000000000001",
        "nonce": "0xe",
        "accessList": []
      },
      "additionalContracts": [],
      "isFixedGasLimit": false
    },
    {
      "hash": "0x5a243bf01882cfe3d7194075554ff9874e725a7f114ae34d21cb99bbd9f75d9d",
      "transactionType": "CALL",
      "contractName": "Depositor",
      "contractAddress": "0x09484F76B7376D53FC5e4F52FaBEe3Fe3aac525c",
      "function": "setAllowedDestinationChain(uint64,bool)",
      "arguments": [
        "14767482510784806043",
        "true"
      ],
      "transaction": {
        "type": "0x02",
        "from": "0x7af234d569ab6360693806d7e7f439ec2114f93c",
        "to": "0x09484f76b7376d53fc5e4f52fabee3fe3aac525c",
        "gas": "0x26224",
        "value": "0x0",
        "data": "0x1572823c000000000000000000000000000000000000000000000000ccf0a31a221f3c9b0000000000000000000000000000000000000000000000000000000000000001",
        "nonce": "0xf",
        "accessList": []
      },
      "additionalContracts": [],
      "isFixedGasLimit": false
    },
    {
      "hash": "0x01ee5f5987b645a30751ea8fecc3f3996d4620c178bc09e4015c132323fea343",
      "transactionType": "CALL",
      "contractName": "Depositor",
      "contractAddress": "0x09484F76B7376D53FC5e4F52FaBEe3Fe3aac525c",
      "function": "setAllowedSourceChain(uint64,bool)",
      "arguments": [
        "14767482510784806043",
        "true"
      ],
      "transaction": {
        "type": "0x02",
        "from": "0x7af234d569ab6360693806d7e7f439ec2114f93c",
        "to": "0x09484f76b7376d53fc5e4f52fabee3fe3aac525c",
        "gas": "0x10867",
        "value": "0x0",
        "data": "0x5d9a2c48000000000000000000000000000000000000000000000000ccf0a31a221f3c9b0000000000000000000000000000000000000000000000000000000000000001",
        "nonce": "0x10",
        "accessList": []
      },
      "additionalContracts": [],
      "isFixedGasLimit": false
    },
    {
      "hash": "0x4e6d6e5c5cd499b7f9800499971e40876000c96ff51671c20598726937cb18f3",
      "transactionType": "CALL",
      "contractName": "Depositor",
      "contractAddress": "0x09484F76B7376D53FC5e4F52FaBEe3Fe3aac525c",
      "function": "setAllowedSender(address,bool)",
      "arguments": [
        "0x1658727bd2E390837D39c2fffE41e16Dc1D6c27b",
        "true"
      ],
      "transaction": {
        "type": "0x02",
        "from": "0x7af234d569ab6360693806d7e7f439ec2114f93c",
        "to": "0x09484f76b7376d53fc5e4f52fabee3fe3aac525c",
        "gas": "0xfa56",
        "value": "0x0",
        "data": "0x4b52ffb00000000000000000000000001658727bd2e390837d39c2fffe41e16dc1d6c27b0000000000000000000000000000000000000000000000000000000000000001",
        "nonce": "0x11",
        "accessList": []
      },
      "additionalContracts": [],
      "isFixedGasLimit": false
    }
  ],
  "receipts": [
    {
      "transactionHash": "0x38d96dcfadcb4117e71c61c34fef57ab564f5e30f94655cd0b41cc76dc9b19fc",
      "transactionIndex": "0x0",
      "blockHash": "0x8809a33aea4cfd3f3ab76897e17d2e8b8e88a671eeb27d714c2f4a3251ceb4b5",
      "blockNumber": "0x70a5a2",
      "from": "0x7aF234d569aB6360693806D7e7f439Ec2114F93c",
      "to": null,
      "cumulativeGasUsed": "0x1687bf",
      "gasUsed": "0x1687bf",
      "contractAddress": "0x09484F76B7376D53FC5e4F52FaBEe3Fe3aac525c",
      "logs": [
        {
          "address": "0x09484F76B7376D53FC5e4F52FaBEe3Fe3aac525c",
          "topics": [
            "0x8be0079c531659141344cd1fd0a4f28419497f9722a3daafe3b4186f6b6457e0",
            "0x0000000000000000000000000000000000000000000000000000000000000000",
            "0x0000000000000000000000007af234d569ab6360693806d7e7f439ec2114f93c"
          ],
          "data": "0x",
          "blockHash": "0x8809a33aea4cfd3f3ab76897e17d2e8b8e88a671eeb27d714c2f4a3251ceb4b5",
          "blockNumber": "0x70a5a2",
          "transactionHash": "0x38d96dcfadcb4117e71c61c34fef57ab564f5e30f94655cd0b41cc76dc9b19fc",
          "transactionIndex": "0x0",
          "logIndex": "0x0",
          "removed": false
        },
        {
          "address": "0x0000000000000000000000000000000000001010",
          "topics": [
            "0x4dfe1bbbcf077ddc3e01291eea2d5c70c2b422b415d95645b9adcfd678cb1d63",
            "0x0000000000000000000000000000000000000000000000000000000000001010",
            "0x0000000000000000000000007af234d569ab6360693806d7e7f439ec2114f93c",
            "0x00000000000000000000000009207a6efee346cb3e4a54ac18523e3715d38b3f"
          ],
          "data": "0x000000000000000000000000000000000000000000000000000fbcb95f08220000000000000000000000000000000000000000000000000006c017457a4513900000000000000000000000000000000000000000000000f3c4d365d7147a9cb100000000000000000000000000000000000000000000000006b05a8c1b3cf1900000000000000000000000000000000000000000000000f3c4e322907382beb1",
          "blockHash": "0x8809a33aea4cfd3f3ab76897e17d2e8b8e88a671eeb27d714c2f4a3251ceb4b5",
          "blockNumber": "0x70a5a2",
          "transactionHash": "0x38d96dcfadcb4117e71c61c34fef57ab564f5e30f94655cd0b41cc76dc9b19fc",
          "transactionIndex": "0x0",
          "logIndex": "0x1",
          "removed": false
        }
      ],
      "status": "0x1",
      "logsBloom": "0x00000000080000000000000000000000000000000000000000800000000000000000000000000000000000000000000000008000000000000000010000000000000000000000000000000000000000800001000000000000000100000000000000000000020000000000000000000800000000000000000080000000000000400000000000000000000400000000000000004000000008000400000000000000200000000000000000000000000000000000000000000000000000000000004000000000000000000001000000000000000000000000000040100000000020000000002000000000000000010000000000000000000000000000000000100000",
      "type": "0x2",
      "effectiveGasPrice": "0xb2d05e0f"
    },
    {
      "transactionHash": "0x7c287da5e12cdd6b8663a099e02e8b262971c16734b6b64710c5fd1dac896299",
      "transactionIndex": "0x1",
      "blockHash": "0x8809a33aea4cfd3f3ab76897e17d2e8b8e88a671eeb27d714c2f4a3251ceb4b5",
      "blockNumber": "0x70a5a2",
      "from": "0x7aF234d569aB6360693806D7e7f439Ec2114F93c",
      "to": "0x09484F76B7376D53FC5e4F52FaBEe3Fe3aac525c",
      "cumulativeGasUsed": "0x173d29",
      "gasUsed": "0xb56a",
      "contractAddress": null,
      "logs": [
        {
          "address": "0x0000000000000000000000000000000000001010",
          "topics": [
            "0x4dfe1bbbcf077ddc3e01291eea2d5c70c2b422b415d95645b9adcfd678cb1d63",
            "0x0000000000000000000000000000000000000000000000000000000000001010",
            "0x0000000000000000000000007af234d569ab6360693806d7e7f439ec2114f93c",
            "0x00000000000000000000000009207a6efee346cb3e4a54ac18523e3715d38b3f"
          ],
          "data": "0x00000000000000000000000000000000000000000000000000007eb75cbcec0000000000000000000000000000000000000000000000000006b05a8c19eafd5f0000000000000000000000000000000000000000000000f3c4e322907382beb100000000000000000000000000000000000000000000000006afdbd4bd2e115f0000000000000000000000000000000000000000000000f3c4e3a147d03faab1",
          "blockHash": "0x8809a33aea4cfd3f3ab76897e17d2e8b8e88a671eeb27d714c2f4a3251ceb4b5",
          "blockNumber": "0x70a5a2",
          "transactionHash": "0x7c287da5e12cdd6b8663a099e02e8b262971c16734b6b64710c5fd1dac896299",
          "transactionIndex": "0x1",
          "logIndex": "0x2",
          "removed": false
        }
      ],
      "status": "0x1",
      "logsBloom": "0x00000000080000000000000000000000000000000000000000000000000000000000000000000000000000000000000000008000000000000000010000000000000000000000000000000000000000800000000000000000000100000000000000000000000000000000000000000000000000000000000080000000000000000000000000000000000000000000000000004000000008000000000000000000200000000000000000000000000000000000000000000000000000000000004000000000000000000001000000000000000000000000000040100000000000000000000000000000000000010000000000000000000000000000000000100000",
      "type": "0x2",
      "effectiveGasPrice": "0xb2d05e0f"
    },
    {
      "transactionHash": "0x74047435c7f9b1b79a252e006f9dba088fa03dbb7cde439e6d09408ef15dd1dd",
      "transactionIndex": "0x2",
      "blockHash": "0x8809a33aea4cfd3f3ab76897e17d2e8b8e88a671eeb27d714c2f4a3251ceb4b5",
      "blockNumber": "0x70a5a2",
      "from": "0x7aF234d569aB6360693806D7e7f439Ec2114F93c",
      "to": "0x09484F76B7376D53FC5e4F52FaBEe3Fe3aac525c",
      "cumulativeGasUsed": "0x17f293",
      "gasUsed": "0xb56a",
      "contractAddress": null,
      "logs": [
        {
          "address": "0x0000000000000000000000000000000000001010",
          "topics": [
            "0x4dfe1bbbcf077ddc3e01291eea2d5c70c2b422b415d95645b9adcfd678cb1d63",
            "0x0000000000000000000000000000000000000000000000000000000000001010",
            "0x0000000000000000000000007af234d569ab6360693806d7e7f439ec2114f93c",
            "0x00000000000000000000000009207a6efee346cb3e4a54ac18523e3715d38b3f"
          ],
          "data": "0x00000000000000000000000000000000000000000000000000007eb75cbcec0000000000000000000000000000000000000000000000000006afdbd4bd2370290000000000000000000000000000000000000000000000f3c4e3a147d03faab100000000000000000000000000000000000000000000000006af5d1d606684290000000000000000000000000000000000000000000000f3c4e41fff2cfc96b1",
          "blockHash": "0x8809a33aea4cfd3f3ab76897e17d2e8b8e88a671eeb27d714c2f4a3251ceb4b5",
          "blockNumber": "0x70a5a2",
          "transactionHash": "0x74047435c7f9b1b79a252e006f9dba088fa03dbb7cde439e6d09408ef15dd1dd",
          "transactionIndex": "0x2",
          "logIndex": "0x3",
          "removed": false
        }
      ],
      "status": "0x1",
      "logsBloom": "0x00000000080000000000000000000000000000000000000000000000000000000000000000000000000000000000000000008000000000000000010000000000000000000000000000000000000000800000000000000000000100000000000000000000000000000000000000000000000000000000000080000000000000000000000000000000000000000000000000004000000008000000000000000000200000000000000000000000000000000000000000000000000000000000004000000000000000000001000000000000000000000000000040100000000000000000000000000000000000010000000000000000000000000000000000100000",
      "type": "0x2",
      "effectiveGasPrice": "0xb2d05e0f"
    },
    {
      "transactionHash": "0xf0c78ebcb55facd7e95c14c7a3749f6654f5fb11b930735a056cd6ea6773ddf2",
      "transactionIndex": "0x3",
      "blockHash": "0x8809a33aea4cfd3f3ab76897e17d2e8b8e88a671eeb27d714c2f4a3251ceb4b5",
      "blockNumber": "0x70a5a2",
      "from": "0x7aF234d569aB6360693806D7e7f439Ec2114F93c",
      "to": "0x09484F76B7376D53FC5e4F52FaBEe3Fe3aac525c",
      "cumulativeGasUsed": "0x18a7fd",
      "gasUsed": "0xb56a",
      "contractAddress": null,
      "logs": [
        {
          "address": "0x0000000000000000000000000000000000001010",
          "topics": [
            "0x4dfe1bbbcf077ddc3e01291eea2d5c70c2b422b415d95645b9adcfd678cb1d63",
            "0x0000000000000000000000000000000000000000000000000000000000001010",
            "0x0000000000000000000000007af234d569ab6360693806d7e7f439ec2114f93c",
            "0x00000000000000000000000009207a6efee346cb3e4a54ac18523e3715d38b3f"
          ],
          "data": "0x00000000000000000000000000000000000000000000000000007eb75cbcec0000000000000000000000000000000000000000000000000006af5d1d605be2f30000000000000000000000000000000000000000000000f3c4e41fff2cfc96b100000000000000000000000000000000000000000000000006aede66039ef6f30000000000000000000000000000000000000000000000f3c4e49eb689b982b1",
          "blockHash": "0x8809a33aea4cfd3f3ab76897e17d2e8b8e88a671eeb27d714c2f4a3251ceb4b5",
          "blockNumber": "0x70a5a2",
          "transactionHash": "0xf0c78ebcb55facd7e95c14c7a3749f6654f5fb11b930735a056cd6ea6773ddf2",
          "transactionIndex": "0x3",
          "logIndex": "0x4",
          "removed": false
        }
      ],
      "status": "0x1",
      "logsBloom": "0x00000000080000000000000000000000000000000000000000000000000000000000000000000000000000000000000000008000000000000000010000000000000000000000000000000000000000800000000000000000000100000000000000000000000000000000000000000000000000000000000080000000000000000000000000000000000000000000000000004000000008000000000000000000200000000000000000000000000000000000000000000000000000000000004000000000000000000001000000000000000000000000000040100000000000000000000000000000000000010000000000000000000000000000000000100000",
      "type": "0x2",
      "effectiveGasPrice": "0xb2d05e0f"
    },
    {
      "transactionHash": "0x85576ecc8cdfe15c9ec9f8b35792492ae7b2cb9da5f3657194717ce36e216a2d",
      "transactionIndex": "0x0",
      "blockHash": "0xef98cb8544babf30e83c43d3b1f05a0a159da8c5fe2409a3663602221971dc42",
      "blockNumber": "0x70a5a5",
      "from": "0x7aF234d569aB6360693806D7e7f439Ec2114F93c",
      "to": "0x09484F76B7376D53FC5e4F52FaBEe3Fe3aac525c",
      "cumulativeGasUsed": "0xb56a",
      "gasUsed": "0xb56a",
      "contractAddress": null,
      "logs": [
        {
          "address": "0x0000000000000000000000000000000000001010",
          "topics": [
            "0x4dfe1bbbcf077ddc3e01291eea2d5c70c2b422b415d95645b9adcfd678cb1d63",
            "0x0000000000000000000000000000000000000000000000000000000000001010",
            "0x0000000000000000000000007af234d569ab6360693806d7e7f439ec2114f93c",
            "0x00000000000000000000000009207a6efee346cb3e4a54ac18523e3715d38b3f"
          ],
          "data": "0x00000000000000000000000000000000000000000000000000007eb75cbcec0000000000000000000000000000000000000000000000000006aede66039455bd0000000000000000000000000000000000000000000000f3c4fa772219ba60b100000000000000000000000000000000000000000000000006ae5faea6d769bd0000000000000000000000000000000000000000000000f3c4faf5d976774cb1",
          "blockHash": "0xef98cb8544babf30e83c43d3b1f05a0a159da8c5fe2409a3663602221971dc42",
          "blockNumber": "0x70a5a5",
          "transactionHash": "0x85576ecc8cdfe15c9ec9f8b35792492ae7b2cb9da5f3657194717ce36e216a2d",
          "transactionIndex": "0x0",
          "logIndex": "0x0",
          "removed": false
        }
      ],
      "status": "0x1",
      "logsBloom": "0x00000000080000000000000000000000000000000000000000000000000000000000000000000000000000000000000000008000000000000000010000000000000000000000000000000000000000800000000000000000000100000000000000000000000000000000000000000000000000000000000080000000000000000000000000000000000000000000000000004000000008000000000000000000200000000000000000000000000000000000000000000000000000000000004000000000000000000001000000000000000000000000000040100000000000000000000000000000000000010000000000000000000000000000000000100000",
      "type": "0x2",
      "effectiveGasPrice": "0xb2d05e0f"
    },
    {
      "transactionHash": "0x923c62705e4f463cb3e8659b16b0c5fe50783c8350a5222f99df4049e4970a8e",
      "transactionIndex": "0x1",
      "blockHash": "0xef98cb8544babf30e83c43d3b1f05a0a159da8c5fe2409a3663602221971dc42",
      "blockNumber": "0x70a5a5",
      "from": "0x7aF234d569aB6360693806D7e7f439Ec2114F93c",
      "to": "0x09484F76B7376D53FC5e4F52FaBEe3Fe3aac525c",
      "cumulativeGasUsed": "0x16ad4",
      "gasUsed": "0xb56a",
      "contractAddress": null,
      "logs": [
        {
          "address": "0x0000000000000000000000000000000000001010",
          "topics": [
            "0x4dfe1bbbcf077ddc3e01291eea2d5c70c2b422b415d95645b9adcfd678cb1d63",
            "0x0000000000000000000000000000000000000000000000000000000000001010",
            "0x0000000000000000000000007af234d569ab6360693806d7e7f439ec2114f93c",
            "0x00000000000000000000000009207a6efee346cb3e4a54ac18523e3715d38b3f"
          ],
          "data": "0x00000000000000000000000000000000000000000000000000007eb75cbcec0000000000000000000000000000000000000000000000000006ae5faea6ccc8870000000000000000000000000000000000000000000000f3c4faf5d976774cb100000000000000000000000000000000000000000000000006ade0f74a0fdc870000000000000000000000000000000000000000000000f3c4fb7490d33438b1",
          "blockHash": "0xef98cb8544babf30e83c43d3b1f05a0a159da8c5fe2409a3663602221971dc42",
          "blockNumber": "0x70a5a5",
          "transactionHash": "0x923c62705e4f463cb3e8659b16b0c5fe50783c8350a5222f99df4049e4970a8e",
          "transactionIndex": "0x1",
          "logIndex": "0x1",
          "removed": false
        }
      ],
      "status": "0x1",
      "logsBloom": "0x00000000080000000000000000000000000000000000000000000000000000000000000000000000000000000000000000008000000000000000010000000000000000000000000000000000000000800000000000000000000100000000000000000000000000000000000000000000000000000000000080000000000000000000000000000000000000000000000000004000000008000000000000000000200000000000000000000000000000000000000000000000000000000000004000000000000000000001000000000000000000000000000040100000000000000000000000000000000000010000000000000000000000000000000000100000",
      "type": "0x2",
      "effectiveGasPrice": "0xb2d05e0f"
    },
    {
      "transactionHash": "0x652b2cf73890aed1cccdb0794cc4fc2f965528d7b0f9be3c9fbf4d6c76975b95",
      "transactionIndex": "0x2",
      "blockHash": "0xef98cb8544babf30e83c43d3b1f05a0a159da8c5fe2409a3663602221971dc42",
      "blockNumber": "0x70a5a5",
      "from": "0x7aF234d569aB6360693806D7e7f439Ec2114F93c",
      "to": "0x09484F76B7376D53FC5e4F52FaBEe3Fe3aac525c",
      "cumulativeGasUsed": "0x2203e",
      "gasUsed": "0xb56a",
      "contractAddress": null,
      "logs": [
        {
          "address": "0x0000000000000000000000000000000000001010",
          "topics": [
            "0x4dfe1bbbcf077ddc3e01291eea2d5c70c2b422b415d95645b9adcfd678cb1d63",
            "0x0000000000000000000000000000000000000000000000000000000000001010",
            "0x0000000000000000000000007af234d569ab6360693806d7e7f439ec2114f93c",
            "0x00000000000000000000000009207a6efee346cb3e4a54ac18523e3715d38b3f"
          ],
          "data": "0x00000000000000000000000000000000000000000000000000007eb75cbcec0000000000000000000000000000000000000000000000000006ade0f74a053b510000000000000000000000000000000000000000000000f3c4fb7490d33438b100000000000000000000000000000000000000000000000006ad623fed484f510000000000000000000000000000000000000000000000f3c4fbf3482ff124b1",
          "blockHash": "0xef98cb8544babf30e83c43d3b1f05a0a159da8c5fe2409a3663602221971dc42",
          "blockNumber": "0x70a5a5",
          "transactionHash": "0x652b2cf73890aed1cccdb0794cc4fc2f965528d7b0f9be3c9fbf4d6c76975b95",
          "transactionIndex": "0x2",
          "logIndex": "0x2",
          "removed": false
        }
      ],
      "status": "0x1",
      "logsBloom": "0x00000000080000000000000000000000000000000000000000000000000000000000000000000000000000000000000000008000000000000000010000000000000000000000000000000000000000800000000000000000000100000000000000000000000000000000000000000000000000000000000080000000000000000000000000000000000000000000000000004000000008000000000000000000200000000000000000000000000000000000000000000000000000000000004000000000000000000001000000000000000000000000000040100000000000000000000000000000000000010000000000000000000000000000000000100000",
      "type": "0x2",
      "effectiveGasPrice": "0xb2d05e0f"
    },
    {
      "transactionHash": "0x6ab5850bd1f94b28cf4de09081b6b17e04fa3c20f28256bb4e18926bc5bb9624",
      "transactionIndex": "0x3",
      "blockHash": "0xef98cb8544babf30e83c43d3b1f05a0a159da8c5fe2409a3663602221971dc42",
      "blockNumber": "0x70a5a5",
      "from": "0x7aF234d569aB6360693806D7e7f439Ec2114F93c",
      "to": "0x09484F76B7376D53FC5e4F52FaBEe3Fe3aac525c",
      "cumulativeGasUsed": "0x2d5a8",
      "gasUsed": "0xb56a",
      "contractAddress": null,
      "logs": [
        {
          "address": "0x0000000000000000000000000000000000001010",
          "topics": [
            "0x4dfe1bbbcf077ddc3e01291eea2d5c70c2b422b415d95645b9adcfd678cb1d63",
            "0x0000000000000000000000000000000000000000000000000000000000001010",
            "0x0000000000000000000000007af234d569ab6360693806d7e7f439ec2114f93c",
            "0x00000000000000000000000009207a6efee346cb3e4a54ac18523e3715d38b3f"
          ],
          "data": "0x00000000000000000000000000000000000000000000000000007eb75cbcec0000000000000000000000000000000000000000000000000006ad623fed3dae1b0000000000000000000000000000000000000000000000f3c4fbf3482ff124b100000000000000000000000000000000000000000000000006ace3889080c21b0000000000000000000000000000000000000000000000f3c4fc71ff8cae10b1",
          "blockHash": "0xef98cb8544babf30e83c43d3b1f05a0a159da8c5fe2409a3663602221971dc42",
          "blockNumber": "0x70a5a5",
          "transactionHash": "0x6ab5850bd1f94b28cf4de09081b6b17e04fa3c20f28256bb4e18926bc5bb9624",
          "transactionIndex": "0x3",
          "logIndex": "0x3",
          "removed": false
        }
      ],
      "status": "0x1",
      "logsBloom": "0x00000000080000000000000000000000000000000000000000000000000000000000000000000000000000000000000000008000000000000000010000000000000000000000000000000000000000800000000000000000000100000000000000000000000000000000000000000000000000000000000080000000000000000000000000000000000000000000000000004000000008000000000000000000200000000000000000000000000000000000000000000000000000000000004000000000000000000001000000000000000000000000000040100000000000000000000000000000000000010000000000000000000000000000000000100000",
      "type": "0x2",
      "effectiveGasPrice": "0xb2d05e0f"
    },
    {
      "transactionHash": "0x5a243bf01882cfe3d7194075554ff9874e725a7f114ae34d21cb99bbd9f75d9d",
      "transactionIndex": "0x4",
      "blockHash": "0xef98cb8544babf30e83c43d3b1f05a0a159da8c5fe2409a3663602221971dc42",
      "blockNumber": "0x70a5a5",
      "from": "0x7aF234d569aB6360693806D7e7f439Ec2114F93c",
      "to": "0x09484F76B7376D53FC5e4F52FaBEe3Fe3aac525c",
      "cumulativeGasUsed": "0x48f64",
      "gasUsed": "0x1b9bc",
      "contractAddress": null,
      "logs": [
        {
          "address": "0x0000000000000000000000000000000000001010",
          "topics": [
            "0x4dfe1bbbcf077ddc3e01291eea2d5c70c2b422b415d95645b9adcfd678cb1d63",
            "0x0000000000000000000000000000000000000000000000000000000000001010",
            "0x0000000000000000000000007af234d569ab6360693806d7e7f439ec2114f93c",
            "0x00000000000000000000000009207a6efee346cb3e4a54ac18523e3715d38b3f"
          ],
          "data": "0x0000000000000000000000000000000000000000000000000001348c42f3080000000000000000000000000000000000000000000000000006ace388907620e50000000000000000000000000000000000000000000000f3c4fc71ff8cae10b100000000000000000000000000000000000000000000000006abaefc4d8318e50000000000000000000000000000000000000000000000f3c4fda68bcfa118b1",
          "blockHash": "0xef98cb8544babf30e83c43d3b1f05a0a159da8c5fe2409a3663602221971dc42",
          "blockNumber": "0x70a5a5",
          "transactionHash": "0x5a243bf01882cfe3d7194075554ff9874e725a7f114ae34d21cb99bbd9f75d9d",
          "transactionIndex": "0x4",
          "logIndex": "0x4",
          "removed": false
        }
      ],
      "status": "0x1",
      "logsBloom": "0x00000000080000000000000000000000000000000000000000000000000000000000000000000000000000000000000000008000000000000000010000000000000000000000000000000000000000800000000000000000000100000000000000000000000000000000000000000000000000000000000080000000000000000000000000000000000000000000000000004000000008000000000000000000200000000000000000000000000000000000000000000000000000000000004000000000000000000001000000000000000000000000000040100000000000000000000000000000000000010000000000000000000000000000000000100000",
      "type": "0x2",
      "effectiveGasPrice": "0xb2d05e0f"
    },
    {
      "transactionHash": "0x01ee5f5987b645a30751ea8fecc3f3996d4620c178bc09e4015c132323fea343",
      "transactionIndex": "0x5",
      "blockHash": "0xef98cb8544babf30e83c43d3b1f05a0a159da8c5fe2409a3663602221971dc42",
      "blockNumber": "0x70a5a5",
      "from": "0x7aF234d569aB6360693806D7e7f439Ec2114F93c",
      "to": "0x09484F76B7376D53FC5e4F52FaBEe3Fe3aac525c",
      "cumulativeGasUsed": "0x5442e",
      "gasUsed": "0xb4ca",
      "contractAddress": null,
      "logs": [
        {
          "address": "0x0000000000000000000000000000000000001010",
          "topics": [
            "0x4dfe1bbbcf077ddc3e01291eea2d5c70c2b422b415d95645b9adcfd678cb1d63",
            "0x0000000000000000000000000000000000000000000000000000000000001010",
            "0x0000000000000000000000007af234d569ab6360693806d7e7f439ec2114f93c",
            "0x00000000000000000000000009207a6efee346cb3e4a54ac18523e3715d38b3f"
          ],
          "data": "0x00000000000000000000000000000000000000000000000000007e479a822c0000000000000000000000000000000000000000000000000006abaefc4d6936e10000000000000000000000000000000000000000000000f3c4fda68bcfa118b100000000000000000000000000000000000000000000000006ab30b4b2e70ae10000000000000000000000000000000000000000000000f3c4fe24d36a2344b1",
          "blockHash": "0xef98cb8544babf30e83c43d3b1f05a0a159da8c5fe2409a3663602221971dc42",
          "blockNumber": "0x70a5a5",
          "transactionHash": "0x01ee5f5987b645a30751ea8fecc3f3996d4620c178bc09e4015c132323fea343",
          "transactionIndex": "0x5",
          "logIndex": "0x5",
          "removed": false
        }
      ],
      "status": "0x1",
      "logsBloom": "0x00000000080000000000000000000000000000000000000000000000000000000000000000000000000000000000000000008000000000000000010000000000000000000000000000000000000000800000000000000000000100000000000000000000000000000000000000000000000000000000000080000000000000000000000000000000000000000000000000004000000008000000000000000000200000000000000000000000000000000000000000000000000000000000004000000000000000000001000000000000000000000000000040100000000000000000000000000000000000010000000000000000000000000000000000100000",
      "type": "0x2",
      "effectiveGasPrice": "0xb2d05e0f"
    },
    {
      "transactionHash": "0x4e6d6e5c5cd499b7f9800499971e40876000c96ff51671c20598726937cb18f3",
      "transactionIndex": "0x6",
      "blockHash": "0xef98cb8544babf30e83c43d3b1f05a0a159da8c5fe2409a3663602221971dc42",
      "blockNumber": "0x70a5a5",
      "from": "0x7aF234d569aB6360693806D7e7f439Ec2114F93c",
      "to": "0x09484F76B7376D53FC5e4F52FaBEe3Fe3aac525c",
      "cumulativeGasUsed": "0x5f96c",
      "gasUsed": "0xb53e",
      "contractAddress": null,
      "logs": [
        {
          "address": "0x0000000000000000000000000000000000001010",
          "topics": [
            "0x4dfe1bbbcf077ddc3e01291eea2d5c70c2b422b415d95645b9adcfd678cb1d63",
            "0x0000000000000000000000000000000000000000000000000000000000001010",
            "0x0000000000000000000000007af234d569ab6360693806d7e7f439ec2114f93c",
            "0x00000000000000000000000009207a6efee346cb3e4a54ac18523e3715d38b3f"
          ],
          "data": "0x00000000000000000000000000000000000000000000000000007e98a0ecc40000000000000000000000000000000000000000000000000006ab30b4b2dc730b0000000000000000000000000000000000000000000000f3c4fe24d36a2344b100000000000000000000000000000000000000000000000006aab21c11efaf0b0000000000000000000000000000000000000000000000f3c4fea36c0b1008b1",
          "blockHash": "0xef98cb8544babf30e83c43d3b1f05a0a159da8c5fe2409a3663602221971dc42",
          "blockNumber": "0x70a5a5",
          "transactionHash": "0x4e6d6e5c5cd499b7f9800499971e40876000c96ff51671c20598726937cb18f3",
          "transactionIndex": "0x6",
          "logIndex": "0x6",
          "removed": false
        }
      ],
      "status": "0x1",
      "logsBloom": "0x00000000080000000000000000000000000000000000000000000000000000000000000000000000000000000000000000008000000000000000010000000000000000000000000000000000000000800000000000000000000100000000000000000000000000000000000000000000000000000000000080000000000000000000000000000000000000000000000000004000000008000000000000000000200000000000000000000000000000000000000000000000000000000000004000000000000000000001000000000000000000000000000040100000000000000000000000000000000000010000000000000000000000000000000000100000",
      "type": "0x2",
      "effectiveGasPrice": "0xb2d05e0f"
    }
  ],
  "libraries": [],
  "pending": [],
  "returns": {
    "depositor": {
      "internal_type": "contract Depositor",
      "value": "0x09484F76B7376D53FC5e4F52FaBEe3Fe3aac525c"
    }
  },
  "timestamp": 1716437228,
  "chain": 80002,
  "multi": false,
  "commit": "dea0c6c"
}